{
  "_format": "hh-sol-artifact-1",
  "contractName": "ThredMarketplace",
  "sourceName": "contracts/ThredMarketplace/ThredMarketplace.sol",
  "abi": [
    {
      "anonymous": false,
      "inputs": [
        {
          "indexed": false,
          "internalType": "uint8",
          "name": "version",
          "type": "uint8"
        }
      ],
      "name": "Initialized",
      "type": "event"
    },
    {
      "anonymous": false,
      "inputs": [
        {
          "indexed": false,
          "internalType": "address",
          "name": "account",
          "type": "address"
        }
      ],
      "name": "Paused",
      "type": "event"
    },
    {
      "anonymous": false,
      "inputs": [
        {
          "indexed": false,
          "internalType": "address",
          "name": "account",
          "type": "address"
        }
      ],
      "name": "Unpaused",
      "type": "event"
    },
    {
      "inputs": [
        {
          "components": [
            {
              "internalType": "uint256",
              "name": "tokenId",
              "type": "uint256"
            },
            {
              "internalType": "uint256",
              "name": "minPrice",
              "type": "uint256"
            },
            {
              "internalType": "uint96",
              "name": "royalty",
              "type": "uint96"
            },
            {
              "internalType": "bool",
              "name": "isNative",
              "type": "bool"
            },
            {
              "internalType": "uint256",
              "name": "amount",
              "type": "uint256"
            },
            {
              "internalType": "bool",
              "name": "fungible",
              "type": "bool"
            },
            {
              "internalType": "string",
              "name": "uri",
              "type": "string"
            },
            {
              "internalType": "bytes",
              "name": "signature",
              "type": "bytes"
            }
          ],
          "internalType": "struct ThredMarketplace.NFTVoucher",
          "name": "voucher",
          "type": "tuple"
        },
        {
          "internalType": "address",
          "name": "nftContract",
          "type": "address"
        },
        {
          "internalType": "address",
          "name": "to",
          "type": "address"
        }
      ],
      "name": "createSale",
      "outputs": [
        {
          "internalType": "bool",
          "name": "",
          "type": "bool"
        }
      ],
      "stateMutability": "payable",
      "type": "function"
    },
    {
      "inputs": [
        {
          "internalType": "address",
          "name": "contractAddress",
          "type": "address"
        },
        {
          "internalType": "uint256",
          "name": "tokenId",
          "type": "uint256"
        }
      ],
      "name": "fetchCollectionAsset",
      "outputs": [
        {
          "components": [
            {
              "internalType": "uint256",
              "name": "itemId",
              "type": "uint256"
            },
            {
              "internalType": "address",
              "name": "nftContract",
              "type": "address"
            },
            {
              "internalType": "uint256",
              "name": "tokenId",
              "type": "uint256"
            },
            {
              "internalType": "address payable",
              "name": "owner",
              "type": "address"
            },
            {
              "components": [
                {
                  "internalType": "address payable",
                  "name": "seller",
                  "type": "address"
                },
                {
                  "internalType": "uint256",
                  "name": "price",
                  "type": "uint256"
                },
                {
                  "internalType": "uint256",
                  "name": "variationId",
                  "type": "uint256"
                },
                {
                  "internalType": "uint256",
                  "name": "itemId",
                  "type": "uint256"
                },
                {
                  "internalType": "bool",
                  "name": "forSale",
                  "type": "bool"
                }
              ],
              "internalType": "struct ThredMarketplace.Variation[]",
              "name": "variations",
              "type": "tuple[]"
            },
            {
              "internalType": "uint96",
              "name": "royalty",
              "type": "uint96"
            },
            {
              "internalType": "bool",
              "name": "isNative",
              "type": "bool"
            },
            {
              "internalType": "bool",
              "name": "minted",
              "type": "bool"
            },
            {
              "internalType": "uint256",
              "name": "amount",
              "type": "uint256"
            },
            {
              "components": [
                {
                  "internalType": "uint256",
                  "name": "_value",
                  "type": "uint256"
                }
              ],
              "internalType": "struct Counters.Counter",
              "name": "mintedVariations",
              "type": "tuple"
            },
            {
              "internalType": "bool",
              "name": "fungible",
              "type": "bool"
            },
            {
              "internalType": "string",
              "name": "tokenUri",
              "type": "string"
            }
          ],
          "internalType": "struct ThredMarketplace.MarketItem[]",
          "name": "",
          "type": "tuple[]"
        }
      ],
      "stateMutability": "view",
      "type": "function"
    },
    {
      "inputs": [
        {
          "internalType": "address",
          "name": "contractAddress",
          "type": "address"
        }
      ],
      "name": "fetchCollectionAssets",
      "outputs": [
        {
          "components": [
            {
              "internalType": "uint256",
              "name": "itemId",
              "type": "uint256"
            },
            {
              "internalType": "address",
              "name": "nftContract",
              "type": "address"
            },
            {
              "internalType": "uint256",
              "name": "tokenId",
              "type": "uint256"
            },
            {
              "internalType": "address payable",
              "name": "owner",
              "type": "address"
            },
            {
              "components": [
                {
                  "internalType": "address payable",
                  "name": "seller",
                  "type": "address"
                },
                {
                  "internalType": "uint256",
                  "name": "price",
                  "type": "uint256"
                },
                {
                  "internalType": "uint256",
                  "name": "variationId",
                  "type": "uint256"
                },
                {
                  "internalType": "uint256",
                  "name": "itemId",
                  "type": "uint256"
                },
                {
                  "internalType": "bool",
                  "name": "forSale",
                  "type": "bool"
                }
              ],
              "internalType": "struct ThredMarketplace.Variation[]",
              "name": "variations",
              "type": "tuple[]"
            },
            {
              "internalType": "uint96",
              "name": "royalty",
              "type": "uint96"
            },
            {
              "internalType": "bool",
              "name": "isNative",
              "type": "bool"
            },
            {
              "internalType": "bool",
              "name": "minted",
              "type": "bool"
            },
            {
              "internalType": "uint256",
              "name": "amount",
              "type": "uint256"
            },
            {
              "components": [
                {
                  "internalType": "uint256",
                  "name": "_value",
                  "type": "uint256"
                }
              ],
              "internalType": "struct Counters.Counter",
              "name": "mintedVariations",
              "type": "tuple"
            },
            {
              "internalType": "bool",
              "name": "fungible",
              "type": "bool"
            },
            {
              "internalType": "string",
              "name": "tokenUri",
              "type": "string"
            }
          ],
          "internalType": "struct ThredMarketplace.MarketItem[]",
          "name": "",
          "type": "tuple[]"
        }
      ],
      "stateMutability": "view",
      "type": "function"
    },
    {
      "inputs": [
        {
          "components": [
            {
              "internalType": "uint256",
              "name": "tokenId",
              "type": "uint256"
            },
            {
              "internalType": "address",
              "name": "contractAddress",
              "type": "address"
            }
          ],
          "internalType": "struct ThredMarketplace.NFTMetadata[]",
          "name": "metadata",
          "type": "tuple[]"
        }
      ],
      "name": "fetchCollectionAssetsById",
      "outputs": [
        {
          "components": [
            {
              "internalType": "uint256",
              "name": "itemId",
              "type": "uint256"
            },
            {
              "internalType": "address",
              "name": "nftContract",
              "type": "address"
            },
            {
              "internalType": "uint256",
              "name": "tokenId",
              "type": "uint256"
            },
            {
              "internalType": "address payable",
              "name": "owner",
              "type": "address"
            },
            {
              "components": [
                {
                  "internalType": "address payable",
                  "name": "seller",
                  "type": "address"
                },
                {
                  "internalType": "uint256",
                  "name": "price",
                  "type": "uint256"
                },
                {
                  "internalType": "uint256",
                  "name": "variationId",
                  "type": "uint256"
                },
                {
                  "internalType": "uint256",
                  "name": "itemId",
                  "type": "uint256"
                },
                {
                  "internalType": "bool",
                  "name": "forSale",
                  "type": "bool"
                }
              ],
              "internalType": "struct ThredMarketplace.Variation[]",
              "name": "variations",
              "type": "tuple[]"
            },
            {
              "internalType": "uint96",
              "name": "royalty",
              "type": "uint96"
            },
            {
              "internalType": "bool",
              "name": "isNative",
              "type": "bool"
            },
            {
              "internalType": "bool",
              "name": "minted",
              "type": "bool"
            },
            {
              "internalType": "uint256",
              "name": "amount",
              "type": "uint256"
            },
            {
              "components": [
                {
                  "internalType": "uint256",
                  "name": "_value",
                  "type": "uint256"
                }
              ],
              "internalType": "struct Counters.Counter",
              "name": "mintedVariations",
              "type": "tuple"
            },
            {
              "internalType": "bool",
              "name": "fungible",
              "type": "bool"
            },
            {
              "internalType": "string",
              "name": "tokenUri",
              "type": "string"
            }
          ],
          "internalType": "struct ThredMarketplace.MarketItem[]",
          "name": "",
          "type": "tuple[]"
        }
      ],
      "stateMutability": "view",
      "type": "function"
    },
    {
      "inputs": [
        {
          "internalType": "address",
          "name": "contractAddress",
          "type": "address"
        }
      ],
      "name": "fetchCollectionAssetsOnMarket",
      "outputs": [
        {
          "components": [
            {
              "internalType": "uint256",
              "name": "itemId",
              "type": "uint256"
            },
            {
              "internalType": "address",
              "name": "nftContract",
              "type": "address"
            },
            {
              "internalType": "uint256",
              "name": "tokenId",
              "type": "uint256"
            },
            {
              "internalType": "address payable",
              "name": "owner",
              "type": "address"
            },
            {
              "components": [
                {
                  "internalType": "address payable",
                  "name": "seller",
                  "type": "address"
                },
                {
                  "internalType": "uint256",
                  "name": "price",
                  "type": "uint256"
                },
                {
                  "internalType": "uint256",
                  "name": "variationId",
                  "type": "uint256"
                },
                {
                  "internalType": "uint256",
                  "name": "itemId",
                  "type": "uint256"
                },
                {
                  "internalType": "bool",
                  "name": "forSale",
                  "type": "bool"
                }
              ],
              "internalType": "struct ThredMarketplace.Variation[]",
              "name": "variations",
              "type": "tuple[]"
            },
            {
              "internalType": "uint96",
              "name": "royalty",
              "type": "uint96"
            },
            {
              "internalType": "bool",
              "name": "isNative",
              "type": "bool"
            },
            {
              "internalType": "bool",
              "name": "minted",
              "type": "bool"
            },
            {
              "internalType": "uint256",
              "name": "amount",
              "type": "uint256"
            },
            {
              "components": [
                {
                  "internalType": "uint256",
                  "name": "_value",
                  "type": "uint256"
                }
              ],
              "internalType": "struct Counters.Counter",
              "name": "mintedVariations",
              "type": "tuple"
            },
            {
              "internalType": "bool",
              "name": "fungible",
              "type": "bool"
            },
            {
              "internalType": "string",
              "name": "tokenUri",
              "type": "string"
            }
          ],
          "internalType": "struct ThredMarketplace.MarketItem[]",
          "name": "",
          "type": "tuple[]"
        }
      ],
      "stateMutability": "view",
      "type": "function"
    },
    {
      "inputs": [
        {
          "internalType": "address",
          "name": "contractAddress",
          "type": "address"
        },
        {
          "internalType": "uint256",
          "name": "variation",
          "type": "uint256"
        }
      ],
      "name": "fetchCollectionInfo",
      "outputs": [
        {
          "components": [
            {
              "internalType": "uint256",
              "name": "floor",
              "type": "uint256"
            },
            {
              "internalType": "uint256",
              "name": "holders",
              "type": "uint256"
            },
            {
              "internalType": "uint256",
              "name": "volume",
              "type": "uint256"
            }
          ],
          "internalType": "struct ThredMarketplace.CollectionInfo",
          "name": "",
          "type": "tuple"
        }
      ],
      "stateMutability": "view",
      "type": "function"
    },
    {
      "inputs": [
        {
          "internalType": "address",
          "name": "marketAddress",
          "type": "address"
        }
      ],
      "name": "fetchMarketAssets",
      "outputs": [
        {
          "components": [
            {
              "internalType": "uint256",
              "name": "itemId",
              "type": "uint256"
            },
            {
              "internalType": "address",
              "name": "nftContract",
              "type": "address"
            },
            {
              "internalType": "uint256",
              "name": "tokenId",
              "type": "uint256"
            },
            {
              "internalType": "address payable",
              "name": "owner",
              "type": "address"
            },
            {
              "components": [
                {
                  "internalType": "address payable",
                  "name": "seller",
                  "type": "address"
                },
                {
                  "internalType": "uint256",
                  "name": "price",
                  "type": "uint256"
                },
                {
                  "internalType": "uint256",
                  "name": "variationId",
                  "type": "uint256"
                },
                {
                  "internalType": "uint256",
                  "name": "itemId",
                  "type": "uint256"
                },
                {
                  "internalType": "bool",
                  "name": "forSale",
                  "type": "bool"
                }
              ],
              "internalType": "struct ThredMarketplace.Variation[]",
              "name": "variations",
              "type": "tuple[]"
            },
            {
              "internalType": "uint96",
              "name": "royalty",
              "type": "uint96"
            },
            {
              "internalType": "bool",
              "name": "isNative",
              "type": "bool"
            },
            {
              "internalType": "bool",
              "name": "minted",
              "type": "bool"
            },
            {
              "internalType": "uint256",
              "name": "amount",
              "type": "uint256"
            },
            {
              "components": [
                {
                  "internalType": "uint256",
                  "name": "_value",
                  "type": "uint256"
                }
              ],
              "internalType": "struct Counters.Counter",
              "name": "mintedVariations",
              "type": "tuple"
            },
            {
              "internalType": "bool",
              "name": "fungible",
              "type": "bool"
            },
            {
              "internalType": "string",
              "name": "tokenUri",
              "type": "string"
            }
          ],
          "internalType": "struct ThredMarketplace.MarketItem[]",
          "name": "",
          "type": "tuple[]"
        }
      ],
      "stateMutability": "view",
      "type": "function"
    },
    {
      "inputs": [],
      "name": "getChainID",
      "outputs": [
        {
          "internalType": "uint256",
          "name": "",
          "type": "uint256"
        }
      ],
      "stateMutability": "view",
      "type": "function"
    },
    {
      "inputs": [
        {
          "internalType": "string",
          "name": "domain",
          "type": "string"
        },
        {
          "internalType": "string",
          "name": "version",
          "type": "string"
        },
        {
          "internalType": "address",
          "name": "marketplaceAddress",
          "type": "address"
        }
      ],
      "name": "initialize",
      "outputs": [],
      "stateMutability": "nonpayable",
      "type": "function"
    },
    {
      "inputs": [
        {
          "components": [
            {
              "internalType": "uint256",
              "name": "tokenId",
              "type": "uint256"
            },
            {
              "internalType": "uint256",
              "name": "minPrice",
              "type": "uint256"
            },
            {
              "internalType": "uint96",
              "name": "royalty",
              "type": "uint96"
            },
            {
              "internalType": "bool",
              "name": "isNative",
              "type": "bool"
            },
            {
              "internalType": "uint256",
              "name": "amount",
              "type": "uint256"
            },
            {
              "internalType": "bool",
              "name": "fungible",
              "type": "bool"
            },
            {
              "internalType": "string",
              "name": "uri",
              "type": "string"
            },
            {
              "internalType": "bytes",
              "name": "signature",
              "type": "bytes"
            }
          ],
          "internalType": "struct ThredMarketplace.NFTVoucher",
          "name": "voucher",
          "type": "tuple"
        },
        {
          "internalType": "address",
          "name": "nftContract",
          "type": "address"
        }
      ],
      "name": "mintNFT",
      "outputs": [
        {
          "internalType": "bool",
          "name": "",
          "type": "bool"
        }
      ],
      "stateMutability": "nonpayable",
      "type": "function"
    },
    {
      "inputs": [],
      "name": "pause",
      "outputs": [],
      "stateMutability": "nonpayable",
      "type": "function"
    },
    {
      "inputs": [],
      "name": "paused",
      "outputs": [
        {
          "internalType": "bool",
          "name": "",
          "type": "bool"
        }
      ],
      "stateMutability": "view",
      "type": "function"
    },
    {
      "inputs": [],
      "name": "unpause",
      "outputs": [],
      "stateMutability": "nonpayable",
      "type": "function"
    },
    {
      "inputs": [
        {
          "components": [
            {
              "internalType": "uint256",
              "name": "tokenId",
              "type": "uint256"
            },
            {
              "internalType": "uint256",
              "name": "minPrice",
              "type": "uint256"
            },
            {
              "internalType": "uint96",
              "name": "royalty",
              "type": "uint96"
            },
            {
              "internalType": "bool",
              "name": "isNative",
              "type": "bool"
            },
            {
              "internalType": "uint256",
              "name": "amount",
              "type": "uint256"
            },
            {
              "internalType": "bool",
              "name": "fungible",
              "type": "bool"
            },
            {
              "internalType": "string",
              "name": "uri",
              "type": "string"
            },
            {
              "internalType": "bytes",
              "name": "signature",
              "type": "bytes"
            }
          ],
          "internalType": "struct ThredMarketplace.NFTVoucher",
          "name": "voucher",
          "type": "tuple"
        }
      ],
      "name": "verify",
      "outputs": [
        {
          "internalType": "address",
          "name": "",
          "type": "address"
        }
      ],
      "stateMutability": "view",
      "type": "function"
    }
  ],
  "bytecode": "0x608060405234801561001057600080fd5b506137ac806100206000396000f3fe6080604052600436106100dd5760003560e01c80638456cb591161007f5780638b1d1d72116100595780638b1d1d7214610238578063a4747be514610258578063ade1e77014610278578063dadfb61a146102b0576100dd565b80638456cb59146101f0578063877569931461020557806387bb44bd14610218576100dd565b80633f4ba83a116100bb5780633f4ba83a1461017c578063564b81ef146101915780635c975abb146101ac5780637c503420146101d0576100dd565b8063077f224a146100e25780630ea29a261461010457806318368b7a1461013a575b600080fd5b3480156100ee57600080fd5b506101026100fd366004613162565b6102d0565b005b34801561011057600080fd5b5061012461011f36600461301e565b61037a565b6040516101319190613415565b60405180910390f35b34801561014657600080fd5b5061015a61015536600461301e565b6107e6565b6040805182518152602080840151908201529181015190820152606001610131565b34801561018857600080fd5b50610102610a24565b34801561019d57600080fd5b50604051468152602001610131565b3480156101b857600080fd5b5060995460ff165b6040519015158152602001610131565b3480156101dc57600080fd5b506101246101eb366004612fe6565b610a2e565b3480156101fc57600080fd5b50610102610d32565b6101c061021336600461325f565b610d3a565b34801561022457600080fd5b50610124610233366004612fe6565b610e80565b34801561024457600080fd5b50610124610253366004613049565b6112ef565b34801561026457600080fd5b50610124610273366004612fe6565b61192e565b34801561028457600080fd5b506102986102933660046131d6565b611d4d565b6040516001600160a01b039091168152602001610131565b3480156102bc57600080fd5b506101c06102cb366004613210565b611dad565b60006102dc6001611eb1565b905080156102f4576000805461ff0019166101001790555b6102fe8484611f36565b610306611f6b565b61030e611f9a565b60cd80546001600160a01b0319166001600160a01b038416179055600060cf558015610374576000805461ff0019169055604051600181527f7f26b83ff96e1f2b6a682f133852f6798a09c465da95921460cefb38474024989060200160405180910390a15b50505050565b6060600061038760cb5490565b60408051600180825281830190925291925060009190816020015b6103aa612f10565b8152602001906001900390816103a257905050905060005b828110156107dd576001600160a01b03861660cc60006103e3846001613693565b81526020810191909152604001600020600101546001600160a01b031614801561042c57508460cc6000610418846001613693565b815260200190815260200160002060020154145b156107cb57600061043e826001613693565b600081815260cc602090815260408083208151610180810183528154815260018201546001600160a01b039081168286015260028301548285015260038301541660608201526004820180548451818702810187019095528085529697509495909491936080860193929190879084015b8282101561051b5760008481526020908190206040805160a0810182526005860290920180546001600160a01b0316835260018082015484860152600282015492840192909252600381015460608401526004015460ff161515608083015290835290920191016104af565b5050509082525060058201546001600160601b03811660208084019190915260ff600160601b830481161515604080860191909152600160681b9093048116151560608501526006850154608085015282519182019092526007840154815260a0830152600883015416151560c082015260098201805460e0909201916105a1906136d7565b80601f01602080910402602001604051908101604052809291908181526020018280546105cd906136d7565b801561061a5780601f106105ef5761010080835404028352916020019161061a565b820191906000526020600020905b8154815290600101906020018083116105fd57829003601f168201915b505050505081525050905060005b81608001515181101561079657602082015160408084015190516331a9108f60e11b815282916001600160a01b03831691636352211e9161066f9160040190815260200190565b60206040518083038186803b15801561068757600080fd5b505afa15801561069b573d6000803e3d6000fd5b505050506040513d601f19601f820116820180604052508101906106bf9190613002565b846080015184815181106106e357634e487b7160e01b600052603260045260246000fd5b60209081029190910101516001600160a01b039182169052604080860151905163c87b56dd60e01b81529183169163c87b56dd916107279160040190815260200190565b60006040518083038186803b15801561073f57600080fd5b505afa158015610753573d6000803e3d6000fd5b505050506040513d6000823e601f3d908101601f1916820160405261077b91908101906130f0565b6101608501525081905061078e8161370c565b915050610628565b5080846000815181106107b957634e487b7160e01b600052603260045260246000fd5b602002602001018190525050506107dd565b806107d58161370c565b9150506103c2565b50949350505050565b61080a60405180606001604052806000815260200160008152602001600081525090565b600061081560cb5490565b60408051606081018252600080825260208083018290526001600160a01b038916825260ce905282812054928201929092529192505b828110156107dd576001600160a01b03861660cc600061086c846001613693565b81526020810191909152604001600020600101546001600160a01b03161415610a125760cc600061089e836001613693565b815260200190815260200160002060040185815481106108ce57634e487b7160e01b600052603260045260246000fd5b600091825260209091206004600590920201015460ff166109035760208201516108f9906001611fc9565b6020830152610a12565b81516109635760cc6000610918836001613693565b8152602001908152602001600020600401858154811061094857634e487b7160e01b600052603260045260246000fd5b60009182526020909120600160059092020101548252610a12565b815160cc6000610974846001613693565b815260200190815260200160002060040186815481106109a457634e487b7160e01b600052603260045260246000fd5b9060005260206000209060050201600101541015610a125760cc60006109cb836001613693565b815260200190815260200160002060040185815481106109fb57634e487b7160e01b600052603260045260246000fd5b600091825260209091206001600590920201015482525b80610a1c8161370c565b91505061084b565b610a2c611fd5565b565b60606000610a3b60cb5490565b9050600080826001600160401b03811115610a6657634e487b7160e01b600052604160045260246000fd5b604051908082528060200260200182016040528015610a9f57816020015b610a8c612f10565b815260200190600190039081610a845790505b50905060005b83811015610d27576001600160a01b03861660cc6000610ac6846001613693565b81526020810191909152604001600020600301546001600160a01b03161415610d15576000610af6826001613693565b600081815260cc602090815260408083208151610180810183528154815260018201546001600160a01b0390811682860152600283015482850152600383015416606082015260048201805484518187028101870190955280855296975091959094869460808701949392919084015b82821015610bd25760008481526020908190206040805160a0810182526005860290920180546001600160a01b0316835260018082015484860152600282015492840192909252600381015460608401526004015460ff16151560808301529083529092019101610b66565b5050509082525060058201546001600160601b03811660208084019190915260ff600160601b830481161515604080860191909152600160681b9093048116151560608501526006850154608085015282519182019092526007840154815260a0830152600883015416151560c082015260098201805460e090920191610c58906136d7565b80601f0160208091040260200160405190810160405280929190818152602001828054610c84906136d7565b8015610cd15780601f10610ca657610100808354040283529160200191610cd1565b820191906000526020600020905b815481529060010190602001808311610cb457829003601f168201915b505050505081525050848681518110610cfa57634e487b7160e01b600052603260045260246000fd5b6020908102919091010152610d10600186613693565b945050505b80610d1f8161370c565b915050610aa5565b50925050505b919050565b610a2c612068565b600060026001541415610d945760405162461bcd60e51b815260206004820152601f60248201527f5265656e7472616e637947756172643a207265656e7472616e742063616c6c0060448201526064015b60405180910390fd5b600260015560cd546001600160a01b03163314610dc35760405162461bcd60e51b8152600401610d8b90613537565b826000610dd08683611dad565b90506000610ddd60cb5490565b6040516331a9108f60e11b815288356004820152909150610e6890829060009088906001600160a01b03881690636352211e9060240160206040518083038186803b158015610e2b57600080fd5b505afa158015610e3f573d6000803e3d6000fd5b505050506040513d601f19601f82011682018060405250810190610e639190613002565b6120e3565b8015610e715750815b60018055979650505050505050565b60606000610e8d60cb5490565b9050600080826001600160401b03811115610eb857634e487b7160e01b600052604160045260246000fd5b604051908082528060200260200182016040528015610ef157816020015b610ede612f10565b815260200190600190039081610ed65790505b50905060005b83811015610d27576001600160a01b03861660cc6000610f18846001613693565b81526020810191909152604001600020600101546001600160a01b031614156112dd576000610f48826001613693565b600081815260cc602090815260408083208151610180810183528154815260018201546001600160a01b039081168286015260028301548285015260038301541660608201526004820180548451818702810187019095528085529697509495909491936080860193929190879084015b828210156110255760008481526020908190206040805160a0810182526005860290920180546001600160a01b0316835260018082015484860152600282015492840192909252600381015460608401526004015460ff16151560808301529083529092019101610fb9565b5050509082525060058201546001600160601b03811660208084019190915260ff600160601b830481161515604080860191909152600160681b9093048116151560608501526006850154608085015282519182019092526007840154815260a0830152600883015416151560c082015260098201805460e0909201916110ab906136d7565b80601f01602080910402602001604051908101604052809291908181526020018280546110d7906136d7565b80156111245780601f106110f957610100808354040283529160200191611124565b820191906000526020600020905b81548152906001019060200180831161110757829003601f168201915b505050505081525050905060005b8160800151518110156112a057602082015160408084015190516331a9108f60e11b815282916001600160a01b03831691636352211e916111799160040190815260200190565b60206040518083038186803b15801561119157600080fd5b505afa1580156111a5573d6000803e3d6000fd5b505050506040513d601f19601f820116820180604052508101906111c99190613002565b846080015184815181106111ed57634e487b7160e01b600052603260045260246000fd5b60209081029190910101516001600160a01b039182169052604080860151905163c87b56dd60e01b81529183169163c87b56dd916112319160040190815260200190565b60006040518083038186803b15801561124957600080fd5b505afa15801561125d573d6000803e3d6000fd5b505050506040513d6000823e601f3d908101601f1916820160405261128591908101906130f0565b610160850152508190506112988161370c565b915050611132565b50808486815181106112c257634e487b7160e01b600052603260045260246000fd5b60209081029190910101526112d8600186613693565b945050505b806112e78161370c565b915050610ef7565b606060006112fc60cb5490565b9050600080826001600160401b0381111561132757634e487b7160e01b600052604160045260246000fd5b60405190808252806020026020018201604052801561136057816020015b61134d612f10565b8152602001906001900390816113455790505b50905060005b838110156119245761156b878760cc6000611382866001613693565b8152602080820192909252604090810160009081208251610180810184528154815260018201546001600160a01b03908116828701526002830154828601526003830154166060820152600482018054855181880281018801909652808652919592946080870194909391929184015b8282101561145e5760008481526020908190206040805160a0810182526005860290920180546001600160a01b0316835260018082015484860152600282015492840192909252600381015460608401526004015460ff161515608083015290835290920191016113f2565b5050509082525060058201546001600160601b03811660208084019190915260ff600160601b830481161515604080860191909152600160681b9093048116151560608501526006850154608085015282519182019092526007840154815260a0830152600883015416151560c082015260098201805460e0909201916114e4906136d7565b80601f0160208091040260200160405190810160405280929190818152602001828054611510906136d7565b801561155d5780601f106115325761010080835404028352916020019161155d565b820191906000526020600020905b81548152906001019060200180831161154057829003601f168201915b50505050508152505061232a565b1561191257600061157d826001613693565b600081815260cc602090815260408083208151610180810183528154815260018201546001600160a01b039081168286015260028301548285015260038301541660608201526004820180548451818702810187019095528085529697509495909491936080860193929190879084015b8282101561165a5760008481526020908190206040805160a0810182526005860290920180546001600160a01b0316835260018082015484860152600282015492840192909252600381015460608401526004015460ff161515608083015290835290920191016115ee565b5050509082525060058201546001600160601b03811660208084019190915260ff600160601b830481161515604080860191909152600160681b9093048116151560608501526006850154608085015282519182019092526007840154815260a0830152600883015416151560c082015260098201805460e0909201916116e0906136d7565b80601f016020809104026020016040519081016040528092919081815260200182805461170c906136d7565b80156117595780601f1061172e57610100808354040283529160200191611759565b820191906000526020600020905b81548152906001019060200180831161173c57829003601f168201915b505050505081525050905060005b8160800151518110156118d557602082015160408084015190516331a9108f60e11b815282916001600160a01b03831691636352211e916117ae9160040190815260200190565b60206040518083038186803b1580156117c657600080fd5b505afa1580156117da573d6000803e3d6000fd5b505050506040513d601f19601f820116820180604052508101906117fe9190613002565b8460800151848151811061182257634e487b7160e01b600052603260045260246000fd5b60209081029190910101516001600160a01b039182169052604080860151905163c87b56dd60e01b81529183169163c87b56dd916118669160040190815260200190565b60006040518083038186803b15801561187e57600080fd5b505afa158015611892573d6000803e3d6000fd5b505050506040513d6000823e601f3d908101601f191682016040526118ba91908101906130f0565b610160850152508190506118cd8161370c565b915050611767565b50808486815181106118f757634e487b7160e01b600052603260045260246000fd5b602090810291909101015261190d600186613693565b945050505b8061191c8161370c565b915050611366565b5095945050505050565b606060008290506000816001600160a01b03166318160ddd6040518163ffffffff1660e01b815260040160206040518083038186803b15801561197057600080fd5b505afa158015611984573d6000803e3d6000fd5b505050506040513d601f19601f820116820180604052508101906119a891906132b5565b9050600080826001600160401b038111156119d357634e487b7160e01b600052604160045260246000fd5b604051908082528060200260200182016040528015611a0c57816020015b6119f9612f10565b8152602001906001900390816119f15790505b50905060005b8381101561192457604080516001808252818301909252600091816020015b611a6e6040518060a0016040528060006001600160a01b031681526020016000815260200160008152602001600081526020016000151581525090565b815260200190600190039081611a3157905050604051634f6ccce760e01b8152600481018490529091506000906001600160a01b03881690634f6ccce79060240160206040518083038186803b158015611ac757600080fd5b505afa158015611adb573d6000803e3d6000fd5b505050506040513d601f19601f82011682018060405250810190611aff91906132b5565b6040516331a9108f60e11b815260048101829052909150899081906000906001600160a01b03831690636352211e9060240160206040518083038186803b158015611b4957600080fd5b505afa158015611b5d573d6000803e3d6000fd5b505050506040513d601f19601f82011682018060405250810190611b819190613002565b60405163c87b56dd60e01b8152600481018690529091506000906001600160a01b0384169063c87b56dd9060240160006040518083038186803b158015611bc757600080fd5b505afa158015611bdb573d6000803e3d6000fd5b505050506040513d6000823e601f3d908101601f19168201604052611c0391908101906130f0565b90506040518060a00160405280836001600160a01b031681526020016000815260200160008152602001600081526020016000151581525086600081518110611c5c57634e487b7160e01b600052603260045260246000fd5b60200260200101819052506000604051806101800160405280600081526020018f6001600160a01b03168152602001878152602001846001600160a01b0316815260200188815260200160006001600160601b031681526020016001151581526020016001151581526020016001815260200160cb604051806020016040529081600082015481525050815260200160001515815260200183815250905080898b81518110611d1b57634e487b7160e01b600052603260045260246000fd5b6020908102919091010152611d3160018b613693565b9950505050505050508080611d459061370c565b915050611a12565b600080611d59836123db565b9050611da681611d6c60e08601866135f8565b8080601f0160208091040260200160405190810160405280939291908181526020018383808284376000920191909152506124c992505050565b9392505050565b600060026001541415611e025760405162461bcd60e51b815260206004820152601f60248201527f5265656e7472616e637947756172643a207265656e7472616e742063616c6c006044820152606401610d8b565b60026001556020830135611e585760405162461bcd60e51b815260206004820152601c60248201527f5072696365206d757374206265206174206c65617374203120776569000000006044820152606401610d8b565b60cd546001600160a01b03163314611e825760405162461bcd60e51b8152600401610d8b90613537565b6000611e8d60cb5490565b611e98906001613693565b9050611ea58484836124ed565b60018055949350505050565b60008054610100900460ff1615611ef8578160ff166001148015611ed45750303b155b611ef05760405162461bcd60e51b8152600401610d8b9061355f565b506000610d2d565b60005460ff808416911610611f1f5760405162461bcd60e51b8152600401610d8b9061355f565b506000805460ff191660ff83161790556001610d2d565b600054610100900460ff16611f5d5760405162461bcd60e51b8152600401610d8b906135ad565b611f6782826126a6565b5050565b600054610100900460ff16611f925760405162461bcd60e51b8152600401610d8b906135ad565b610a2c6126e7565b600054610100900460ff16611fc15760405162461bcd60e51b8152600401610d8b906135ad565b610a2c612714565b6000611da68284613693565b60995460ff1661201e5760405162461bcd60e51b815260206004820152601460248201527314185d5cd8589b194e881b9bdd081c185d5cd95960621b6044820152606401610d8b565b6099805460ff191690557f5db9ee0a495bf2e6ff9c91a7834c1ba4fdd244a5e8aa4e537bd38aeae4b073aa335b6040516001600160a01b03909116815260200160405180910390a1565b60995460ff16156120ae5760405162461bcd60e51b815260206004820152601060248201526f14185d5cd8589b194e881c185d5cd95960821b6044820152606401610d8b565b6099805460ff191660011790557f62e78cea01bee320cd4e420270b5ea74000d11b0c9f74754ebdbfc544b05a25861204b3390565b600084815260cc602052604081206004810180548391908790811061211857634e487b7160e01b600052603260045260246000fd5b6000918252602090912060046005909202019081015490915060ff1615156001146121745760405162461bcd60e51b815260206004820152600c60248201526b4e6f7420666f722073616c6560a01b6044820152606401610d8b565b600180820154908301546001600160a01b0316600090815260ce602052604090205461219f91611fc9565b600180840180546001600160a01b03908116600090815260ce6020526040902093909355549083015460028501546121dd9392909216918890612747565b50600882015460ff161561227e576001828101546002840154604051637921219560e11b81526001600160a01b03898116600483015288811660248301526044820192909252606481019390935260a06084840152600060a48401521690819063f242432a9060c401600060405180830381600087803b15801561226057600080fd5b505af1158015612274573d6000803e3d6000fd5b50505050506122f7565b600182015460028301546040516323b872dd60e01b81526001600160a01b0388811660048301528781166024830152604482019290925291169081906323b872dd90606401600060405180830381600087803b1580156122dd57600080fd5b505af11580156122f1573d6000803e3d6000fd5b50505050505b80546001600160a01b0385166001600160a01b0319909116178155600401805460ff191690555060019050949350505050565b600080805b848110156107dd5785858281811061235757634e487b7160e01b600052603260045260246000fd5b9050604002016000013584604001511480156123bf575085858281811061238e57634e487b7160e01b600052603260045260246000fd5b90506040020160200160208101906123a69190612fe6565b6001600160a01b031684602001516001600160a01b0316145b156123c957600191505b806123d38161370c565b91505061232f565b60006124c37ff0f5490334e1c5f82fbb995c28e81723f56f0074e8447455b9eeea657a50d8438335602085013561241860608701604088016132cd565b61242860808801606089016130b8565b608088013561243d60c08a0160a08b016130b8565b61244a60c08b018b6135f8565b60405161245892919061338f565b60408051918290038220602083019990995281019690965260608601949094526001600160601b039092166080850152151560a084015260c0830152151560e082015261010081019190915261012001604051602081830303815290604052805190602001206127fd565b92915050565b60008060006124d8858561284b565b915091506124e5816128bb565b509392505050565b60cd546000906001600160a01b0316331461251a5760405162461bcd60e51b8152600401610d8b90613537565b600082815260cc60205260409020600681015460079091015411156125715760405162461bcd60e51b815260206004820152600d60248201526c4d696e74204f766572666c6f7760981b6044820152606401610d8b565b600061257c85611d4d565b60cd549091506001600160a01b038083169116146125ac5760405162461bcd60e51b8152600401610d8b90613537565b836001600160a01b03811663a2b929ea8388356125cc60c08b018b6135f8565b6125dc60608d0160408e016132cd565b6040518663ffffffff1660e01b81526004016125fc9594939291906133bb565b602060405180830381600087803b15801561261657600080fd5b505af115801561262a573d6000803e3d6000fd5b505050506040513d601f19601f8201168201806040525081019061264e91906130d4565b50600061265e8384888a89612ac1565b9050801561269c5761267460cb80546001019055565b61269a86886020013560cc60008981526020019081526020016000206002015486612d09565b505b9695505050505050565b600054610100900460ff166126cd5760405162461bcd60e51b8152600401610d8b906135ad565b815160209283012081519190920120603391909155603455565b600054610100900460ff1661270e5760405162461bcd60e51b8152600401610d8b906135ad565b60018055565b600054610100900460ff1661273b5760405162461bcd60e51b8152600401610d8b906135ad565b6099805460ff19169055565b604051602481018490523360448201526001600160a01b03838116606483015260848201839052600091829187169060a40160408051601f198184030181529181526020820180516001600160e01b0316639841aa7560e01b179052516127ae919061339f565b6000604051808303816000865af19150503d80600081146127eb576040519150601f19603f3d011682016040523d82523d6000602084013e6127f0565b606091505b5090979650505050505050565b60006124c361280a612d6a565b8360405161190160f01b6020820152602281018390526042810182905260009060620160405160208183030381529060405280519060200120905092915050565b6000808251604114156128825760208301516040840151606085015160001a61287687828585612dea565b945094505050506128b4565b8251604014156128ac57602083015160408401516128a1868383612ed7565b9350935050506128b4565b506000905060025b9250929050565b60008160048111156128dd57634e487b7160e01b600052602160045260246000fd5b14156128e857612abe565b600181600481111561290a57634e487b7160e01b600052602160045260246000fd5b14156129585760405162461bcd60e51b815260206004820152601860248201527f45434453413a20696e76616c6964207369676e617475726500000000000000006044820152606401610d8b565b600281600481111561297a57634e487b7160e01b600052602160045260246000fd5b14156129c85760405162461bcd60e51b815260206004820152601f60248201527f45434453413a20696e76616c6964207369676e6174757265206c656e677468006044820152606401610d8b565b60038160048111156129ea57634e487b7160e01b600052602160045260246000fd5b1415612a435760405162461bcd60e51b815260206004820152602260248201527f45434453413a20696e76616c6964207369676e6174757265202773272076616c604482015261756560f01b6064820152608401610d8b565b6004816004811115612a6557634e487b7160e01b600052602160045260246000fd5b1415612abe5760405162461bcd60e51b815260206004820152602260248201527f45434453413a20696e76616c6964207369676e6174757265202776272076616c604482015261756560f01b6064820152608401610d8b565b50565b600080836020013511612b165760405162461bcd60e51b815260206004820152601c60248201527f5072696365206d757374206265206174206c65617374203120776569000000006044820152606401610d8b565b600082815260cc6020526040908190208381556001810180546001600160a01b038089166001600160a01b0319928316179092558635600284015560039092018054918a1691909216179055612b7290606085019085016132cd565b600083815260cc6020526040902060050180546bffffffffffffffffffffffff19166001600160601b0392909216919091179055612bb660808401606085016130b8565b600083815260cc6020526040902060058101805460ff60681b19931515600160601b029390931661ffff60601b1990931692909217600160681b179091556080840135600690910155612c0f60c0840160a085016130b8565b600083815260cc6020818152604080842060088101805460ff191696151596909617909555805160a0810182526001600160a01b038b168152888301358184015293879052919052600483019290820190612c6b906007015490565b8152602080820186905260016040928301819052845480820186556000958652828620855160059092020180546001600160a01b0319166001600160a01b039092169190911781558483015181830155848401516002820155606085015160038201556080909401516004909401805460ff19169415159490941790935585845260cc90529091206007018054909101905550600195945050505050565b604051602481018490526001600160a01b03828116604483015260648201849052600091829187169060840160408051601f198184030181529181526020820180516001600160e01b0316633f2c55ab60e21b179052516127ae919061339f565b6000612de57f8b73c3c69bb8fe3d512ecc4cf759cc79239f7b179b0ffacaa9a75d522b39400f612d9960335490565b6034546040805160208101859052908101839052606081018290524660808201523060a082015260009060c0016040516020818303038152906040528051906020012090509392505050565b905090565b6000807f7fffffffffffffffffffffffffffffff5d576e7357a4501ddfe92f46681b20a0831115612e215750600090506003612ece565b8460ff16601b14158015612e3957508460ff16601c14155b15612e4a5750600090506004612ece565b6040805160008082526020820180845289905260ff881692820192909252606081018690526080810185905260019060a0016020604051602081039080840390855afa158015612e9e573d6000803e3d6000fd5b5050604051601f1901519150506001600160a01b038116612ec757600060019250925050612ece565b9150600090505b94509492505050565b6000806001600160ff1b03831681612ef460ff86901c601b613693565b9050612f0287828885612dea565b935093505050935093915050565b6040805161018081018252600080825260208083018290528284018290526060808401839052608084015260a0830182905260c0830182905260e0830182905261010083018290528351908101909352825290610120820190815260006020820152606060409091015290565b600082601f830112612f8d578081fd5b8135612fa0612f9b8261366c565b61363c565b818152846020838601011115612fb4578283fd5b816020850160208301379081016020019190915292915050565b60006101008284031215612fe0578081fd5b50919050565b600060208284031215612ff7578081fd5b8135611da681613753565b600060208284031215613013578081fd5b8151611da681613753565b60008060408385031215613030578081fd5b823561303b81613753565b946020939093013593505050565b6000806020838503121561305b578182fd5b82356001600160401b0380821115613071578384fd5b818501915085601f830112613084578384fd5b813581811115613092578485fd5b8660208260061b85010111156130a6578485fd5b60209290920196919550909350505050565b6000602082840312156130c9578081fd5b8135611da681613768565b6000602082840312156130e5578081fd5b8151611da681613768565b600060208284031215613101578081fd5b81516001600160401b03811115613116578182fd5b8201601f81018413613126578182fd5b8051613134612f9b8261366c565b818152856020838501011115613148578384fd5b6131598260208301602086016136ab565b95945050505050565b600080600060608486031215613176578081fd5b83356001600160401b038082111561318c578283fd5b61319887838801612f7d565b945060208601359150808211156131ad578283fd5b506131ba86828701612f7d565b92505060408401356131cb81613753565b809150509250925092565b6000602082840312156131e7578081fd5b81356001600160401b038111156131fc578182fd5b61320884828501612fce565b949350505050565b60008060408385031215613222578182fd5b82356001600160401b03811115613237578283fd5b61324385828601612fce565b925050602083013561325481613753565b809150509250929050565b600080600060608486031215613273578283fd5b83356001600160401b03811115613288578384fd5b61329486828701612fce565b93505060208401356132a581613753565b915060408401356131cb81613753565b6000602082840312156132c6578081fd5b5051919050565b6000602082840312156132de578081fd5b81356001600160601b0381168114611da6578182fd5b6000815180845260208085019450808401835b8381101561335857815180516001600160a01b031688528381015184890152604080820151908901526060808201519089015260809081015115159088015260a09096019590820190600101613307565b509495945050505050565b6000815180845261337b8160208601602086016136ab565b601f01601f19169290920160200192915050565b6000828483379101908152919050565b600082516133b18184602087016136ab565b9190910192915050565b6001600160a01b03861681526020810185905260806040820181905281018390526000838560a08401378060a0858401015260a0601f19601f86011683010190506001600160601b03831660608301529695505050505050565b60006020808301818452808551808352604092508286019150828160051b870101848801865b8381101561352957888303603f19018552815180518452878101516001600160a01b03811689860152610180905081880151858901526060808301516001600160a01b038116828801525050608080830151828288015261349e838801826132f4565b9250505060a0808301516134bc828801826001600160601b03169052565b505060c08281015115159086015260e08083015115159086015261010080830151908601526101208083015151908601526101408083015115159086015261016091820151858203928601929092526135158183613363565b96890196945050509086019060010161343b565b509098975050505050505050565b6020808252600e908201526d139bdd08105d5d1a1bdc9a5e995960921b604082015260600190565b6020808252602e908201527f496e697469616c697a61626c653a20636f6e747261637420697320616c72656160408201526d191e481a5b9a5d1a585b1a5e995960921b606082015260800190565b6020808252602b908201527f496e697469616c697a61626c653a20636f6e7472616374206973206e6f74206960408201526a6e697469616c697a696e6760a81b606082015260800190565b6000808335601e1984360301811261360e578283fd5b8301803591506001600160401b03821115613627578283fd5b6020019150368190038213156128b457600080fd5b604051601f8201601f191681016001600160401b03811182821017156136645761366461373d565b604052919050565b60006001600160401b038211156136855761368561373d565b50601f01601f191660200190565b600082198211156136a6576136a6613727565b500190565b60005b838110156136c65781810151838201526020016136ae565b838111156103745750506000910152565b600181811c908216806136eb57607f821691505b60208210811415612fe057634e487b7160e01b600052602260045260246000fd5b600060001982141561372057613720613727565b5060010190565b634e487b7160e01b600052601160045260246000fd5b634e487b7160e01b600052604160045260246000fd5b6001600160a01b0381168114612abe57600080fd5b8015158114612abe57600080fdfea26469706673582212204d12c2334ddb8489e8696d50ee0179a57c00e0cac74c0ad65dd540b4bb3fe9af64736f6c63430008030033",
  "linkReferences": {},
  "deployedLinkReferences": {}
}