{
  "_format": "hh-sol-artifact-1",
  "contractName": "ThredMarketplace",
  "sourceName": "contracts/ThredMarketplace/ThredMarketplace.sol",
  "abi": [
    {
      "inputs": [
        {
          "internalType": "string",
          "name": "domain",
          "type": "string"
        },
        {
          "internalType": "string",
          "name": "version",
          "type": "string"
        }
      ],
      "stateMutability": "nonpayable",
      "type": "constructor"
    },
    {
      "inputs": [
        {
          "components": [
            {
              "internalType": "uint256",
              "name": "itemId",
              "type": "uint256"
            },
            {
              "internalType": "address",
              "name": "nftContract",
              "type": "address"
            },
            {
              "internalType": "uint256",
              "name": "tokenId",
              "type": "uint256"
            },
            {
              "internalType": "address payable",
              "name": "seller",
              "type": "address"
            },
            {
              "internalType": "address payable",
              "name": "owner",
              "type": "address"
            },
            {
              "internalType": "uint256",
              "name": "price",
              "type": "uint256"
            },
            {
              "internalType": "bool",
              "name": "forSale",
              "type": "bool"
            },
            {
              "internalType": "uint96",
              "name": "royalty",
              "type": "uint96"
            },
            {
              "internalType": "address",
              "name": "tokenContract",
              "type": "address"
            },
            {
              "internalType": "bool",
              "name": "isNative",
              "type": "bool"
            },
            {
              "internalType": "bool",
              "name": "minted",
              "type": "bool"
            }
          ],
          "internalType": "struct ThredMarketplace.MarketItem",
          "name": "item",
          "type": "tuple"
        }
      ],
      "name": "createSale",
      "outputs": [
        {
          "internalType": "bool",
          "name": "",
          "type": "bool"
        }
      ],
      "stateMutability": "payable",
      "type": "function"
    },
    {
      "inputs": [
        {
          "components": [
            {
              "internalType": "uint256",
              "name": "itemId",
              "type": "uint256"
            },
            {
              "internalType": "address",
              "name": "nftContract",
              "type": "address"
            },
            {
              "internalType": "uint256",
              "name": "tokenId",
              "type": "uint256"
            },
            {
              "internalType": "address payable",
              "name": "seller",
              "type": "address"
            },
            {
              "internalType": "address payable",
              "name": "owner",
              "type": "address"
            },
            {
              "internalType": "uint256",
              "name": "price",
              "type": "uint256"
            },
            {
              "internalType": "bool",
              "name": "forSale",
              "type": "bool"
            },
            {
              "internalType": "uint96",
              "name": "royalty",
              "type": "uint96"
            },
            {
              "internalType": "address",
              "name": "tokenContract",
              "type": "address"
            },
            {
              "internalType": "bool",
              "name": "isNative",
              "type": "bool"
            },
            {
              "internalType": "bool",
              "name": "minted",
              "type": "bool"
            }
          ],
          "internalType": "struct ThredMarketplace.MarketItem",
          "name": "item",
          "type": "tuple"
        }
      ],
      "name": "createSaleCustom",
      "outputs": [
        {
          "internalType": "bool",
          "name": "",
          "type": "bool"
        }
      ],
      "stateMutability": "payable",
      "type": "function"
    },
    {
      "inputs": [
        {
          "internalType": "address",
          "name": "contractAddress",
          "type": "address"
        }
      ],
      "name": "fetchMarketItems",
      "outputs": [
        {
          "components": [
            {
              "internalType": "uint256",
              "name": "itemId",
              "type": "uint256"
            },
            {
              "internalType": "address",
              "name": "nftContract",
              "type": "address"
            },
            {
              "internalType": "uint256",
              "name": "tokenId",
              "type": "uint256"
            },
            {
              "internalType": "address payable",
              "name": "seller",
              "type": "address"
            },
            {
              "internalType": "address payable",
              "name": "owner",
              "type": "address"
            },
            {
              "internalType": "uint256",
              "name": "price",
              "type": "uint256"
            },
            {
              "internalType": "bool",
              "name": "forSale",
              "type": "bool"
            },
            {
              "internalType": "uint96",
              "name": "royalty",
              "type": "uint96"
            },
            {
              "internalType": "address",
              "name": "tokenContract",
              "type": "address"
            },
            {
              "internalType": "bool",
              "name": "isNative",
              "type": "bool"
            },
            {
              "internalType": "bool",
              "name": "minted",
              "type": "bool"
            }
          ],
          "internalType": "struct ThredMarketplace.MarketItem[]",
          "name": "",
          "type": "tuple[]"
        }
      ],
      "stateMutability": "view",
      "type": "function"
    },
    {
      "inputs": [],
      "name": "getChainID",
      "outputs": [
        {
          "internalType": "uint256",
          "name": "",
          "type": "uint256"
        }
      ],
      "stateMutability": "view",
      "type": "function"
    },
    {
      "inputs": [
        {
          "components": [
            {
              "internalType": "uint256",
              "name": "tokenId",
              "type": "uint256"
            },
            {
              "internalType": "uint256",
              "name": "minPrice",
              "type": "uint256"
            },
            {
              "internalType": "uint96",
              "name": "royalty",
              "type": "uint96"
            },
            {
              "internalType": "address",
              "name": "token",
              "type": "address"
            },
            {
              "internalType": "bool",
              "name": "isNative",
              "type": "bool"
            },
            {
              "internalType": "string",
              "name": "uri",
              "type": "string"
            },
            {
              "internalType": "bytes",
              "name": "signature",
              "type": "bytes"
            }
          ],
          "internalType": "struct ThredMarketplace.NFTVoucher",
          "name": "voucher",
          "type": "tuple"
        },
        {
          "internalType": "address",
          "name": "contractAddress",
          "type": "address"
        }
      ],
      "name": "mintAndTransfer",
      "outputs": [
        {
          "internalType": "bool",
          "name": "",
          "type": "bool"
        }
      ],
      "stateMutability": "payable",
      "type": "function"
    },
    {
      "inputs": [
        {
          "components": [
            {
              "internalType": "uint256",
              "name": "tokenId",
              "type": "uint256"
            },
            {
              "internalType": "uint256",
              "name": "minPrice",
              "type": "uint256"
            },
            {
              "internalType": "uint96",
              "name": "royalty",
              "type": "uint96"
            },
            {
              "internalType": "address",
              "name": "token",
              "type": "address"
            },
            {
              "internalType": "bool",
              "name": "isNative",
              "type": "bool"
            },
            {
              "internalType": "string",
              "name": "uri",
              "type": "string"
            },
            {
              "internalType": "bytes",
              "name": "signature",
              "type": "bytes"
            }
          ],
          "internalType": "struct ThredMarketplace.NFTVoucher",
          "name": "voucher",
          "type": "tuple"
        },
        {
          "internalType": "address",
          "name": "contractAddress",
          "type": "address"
        }
      ],
      "name": "mintAndTransferCustom",
      "outputs": [
        {
          "internalType": "bool",
          "name": "",
          "type": "bool"
        }
      ],
      "stateMutability": "payable",
      "type": "function"
    },
    {
      "inputs": [
        {
          "components": [
            {
              "internalType": "uint256",
              "name": "tokenId",
              "type": "uint256"
            },
            {
              "internalType": "uint256",
              "name": "minPrice",
              "type": "uint256"
            },
            {
              "internalType": "uint96",
              "name": "royalty",
              "type": "uint96"
            },
            {
              "internalType": "address",
              "name": "token",
              "type": "address"
            },
            {
              "internalType": "bool",
              "name": "isNative",
              "type": "bool"
            },
            {
              "internalType": "string",
              "name": "uri",
              "type": "string"
            },
            {
              "internalType": "bytes",
              "name": "signature",
              "type": "bytes"
            }
          ],
          "internalType": "struct ThredMarketplace.NFTVoucher",
          "name": "voucher",
          "type": "tuple"
        },
        {
          "internalType": "address",
          "name": "nftContract",
          "type": "address"
        }
      ],
      "name": "mintNFT",
      "outputs": [
        {
          "internalType": "bool",
          "name": "",
          "type": "bool"
        }
      ],
      "stateMutability": "nonpayable",
      "type": "function"
    },
    {
      "inputs": [
        {
          "components": [
            {
              "internalType": "uint256",
              "name": "itemId",
              "type": "uint256"
            },
            {
              "internalType": "address",
              "name": "nftContract",
              "type": "address"
            },
            {
              "internalType": "uint256",
              "name": "tokenId",
              "type": "uint256"
            },
            {
              "internalType": "address payable",
              "name": "seller",
              "type": "address"
            },
            {
              "internalType": "address payable",
              "name": "owner",
              "type": "address"
            },
            {
              "internalType": "uint256",
              "name": "price",
              "type": "uint256"
            },
            {
              "internalType": "bool",
              "name": "forSale",
              "type": "bool"
            },
            {
              "internalType": "uint96",
              "name": "royalty",
              "type": "uint96"
            },
            {
              "internalType": "address",
              "name": "tokenContract",
              "type": "address"
            },
            {
              "internalType": "bool",
              "name": "isNative",
              "type": "bool"
            },
            {
              "internalType": "bool",
              "name": "minted",
              "type": "bool"
            }
          ],
          "internalType": "struct ThredMarketplace.MarketItem",
          "name": "item",
          "type": "tuple"
        },
        {
          "internalType": "bool",
          "name": "forSale",
          "type": "bool"
        },
        {
          "internalType": "uint256",
          "name": "price",
          "type": "uint256"
        }
      ],
      "name": "updateItem",
      "outputs": [
        {
          "internalType": "bool",
          "name": "",
          "type": "bool"
        }
      ],
      "stateMutability": "nonpayable",
      "type": "function"
    }
  ],
  "bytecode": "0x6101406040523480156200001257600080fd5b50604051620022a4380380620022a4833981016040819052620000359162000188565b6001600055815160209283012081519183019190912060e08290526101008190524660a0818152604080517f8b73c3c69bb8fe3d512ecc4cf759cc79239f7b179b0ffacaa9a75d522b39400f81880181905281830196909652606081810195909552608080820194909452308184018190528251808303909401845260c091820190925282519290960191909120909152901b9091526101205262000205565b600082601f830112620000e6578081fd5b81516001600160401b0380821115620001035762000103620001ef565b604051601f8301601f19908116603f011681019082821181831017156200012e576200012e620001ef565b816040528381526020925086838588010111156200014a578485fd5b8491505b838210156200016d57858201830151818301840152908201906200014e565b838211156200017e57848385830101525b9695505050505050565b600080604083850312156200019b578182fd5b82516001600160401b0380821115620001b2578384fd5b620001c086838701620000d5565b93506020850151915080821115620001d6578283fd5b50620001e585828601620000d5565b9150509250929050565b634e487b7160e01b600052604160045260246000fd5b60805160a05160c05160601c60e051610100516101205161204c620002586000396000611780015260006117cf015260006117aa015260006117010152600061172b01526000611755015261204c6000f3fe60806040526004361061007b5760003560e01c80635b0c736e1161004e5780635b0c736e1461008057806388829b1b14610118578063bd0c547214610118578063e5af610a1461012b5761007b565b80630a4cb5e0146100805780630ad44fe8146100a85780631f10e57a146100c8578063564b81ef146100f5575b600080fd5b61009361008e366004611b35565b61014b565b60405190151581526020015b60405180910390f35b3480156100b457600080fd5b506100936100c3366004611af3565b610194565b3480156100d457600080fd5b506100e86100e3366004611a3a565b610400565b60405161009f9190611c49565b34801561010157600080fd5b5061010a610630565b60405190815260200161009f565b610093610126366004611ad7565b610635565b34801561013757600080fd5b50610093610146366004611b35565b610673565b6000600260005414156101795760405162461bcd60e51b815260040161017090611d41565b60405180910390fd5b600260005561018883836106c8565b60016000559392505050565b825160009081526002602081905260408083209091015490850151146101f15760405162461bcd60e51b81526020600482015260126024820152710e8ded6cadc92c840daeae6e840dac2e8c6d60731b6044820152606401610170565b8351600090815260026020819052604080832060010154875184528184209092015490516331a9108f60e11b815260048101919091526001600160a01b0390911691908290636352211e9060240160206040518083038186803b15801561025757600080fd5b505afa15801561026b573d6000803e3d6000fd5b505050506040513d601f19601f8201168201806040525081019061028f9190611a56565b9050336001600160a01b038216146102e95760405162461bcd60e51b815260206004820152601860248201527f73656e646572206e6f742070726f7065722073656c6c657200000000000000006044820152606401610170565b600084116103095760405162461bcd60e51b815260040161017090611d78565b855160009081526002602052604080822060050186905587518252808220600601805460ff191688151590811790915588518352912060030180546001600160a01b0319166001600160a01b038416179055600114156103f25785516000908152600260208190526040808320600101548951845292819020909101549051633f2c55ab60e21b81526004810187905233602482015260448101919091526001600160a01b0390911690819063fcb156ac90606401600060405180830381600087803b1580156103d857600080fd5b505af11580156103ec573d6000803e3d6000fd5b50505050505b6001925050505b9392505050565b6060600061040d60015490565b90506000808267ffffffffffffffff81111561043957634e487b7160e01b600052604160045260246000fd5b6040519080825280602002602001820160405280156104c057816020015b604080516101608101825260008082526020808301829052928201819052606082018190526080820181905260a0820181905260c0820181905260e082018190526101008201819052610120820181905261014082015282526000199092019101816104575790505b50905060005b83811015610625576001600160a01b038616600260006104e7846001611e49565b81526020810191909152604001600020600101546001600160a01b03161415610613576000610517826001611e49565b6000818152600260208181526040928390208351610160810185528154815260018201546001600160a01b03908116938201939093529281015493830193909352600383015481166060830152600483015481166080830152600583015460a0830152600683015460ff808216151560c08501526001600160601b03610100928390041660e0850152600785015492831691840191909152600160a01b820481161515610120840152600160a81b909104161515610140820152855192935090918590879081106105f857634e487b7160e01b600052603260045260246000fd5b602090810291909101015261060e600186611e49565b945050505b8061061d81611fc2565b9150506104c6565b50925050505b919050565b465b90565b60006002600054141561065a5760405162461bcd60e51b815260040161017090611d41565b600260005561066882610816565b600160005592915050565b6000600260005414156106985760405162461bcd60e51b815260040161017090611d41565b600260005560208301356106be5760405162461bcd60e51b815260040161017090611d78565b6101888383610ee2565b6000808360200135116106ed5760405162461bcd60e51b815260040161017090611d78565b60006106f98484610ee2565b90508061073d5760405162461bcd60e51b815260206004820152601260248201527111985a5b1959081d1bc8135a5b9d0813919560721b6044820152606401610170565b600061074860015490565b6000818152600260208181526040928390208351610160810185528154815260018201546001600160a01b03908116938201939093529281015493830193909352600383015481166060830152600483015481166080830152600583015460a0830152600683015460ff808216151560c08501526001600160601b03610100928390041660e085015260079094015491821690830152600160a01b810483161515610120830152600160a81b9004909116151561014082015290915061080d90610816565b95945050505050565b6000808260a001511161083b5760405162461bcd60e51b815260040161017090611d78565b815160009081526002602052604090206005015460a0830151146108945760405162461bcd60e51b815260206004820152601060248201526f0a0e4d2c6ca40daeae6e840dac2e8c6d60831b6044820152606401610170565b8151600090815260026020819052604091829020015490830151146108ee5760405162461bcd60e51b815260206004820152601060248201526f0a8ded6cadc40daeae6e840dac2e8c6d60831b6044820152606401610170565b81516000908152600260205260409020600681015460ff1615156001146109465760405162461bcd60e51b815260206004820152600c60248201526b4e6f7420666f722073616c6560a01b6044820152606401610170565b600381810154600583015473d31c54efd3a4b5e6a993aaa4618d3700a12ff752926001600160a01b0390921691600090610981908390611051565b6001860154600287015460405163152a902d60e11b81526004810191909152602481018590529192506001600160a01b031690819060009081908390632a55205a90604401604080518083038186803b1580156109dd57600080fd5b505afa1580156109f1573d6000803e3d6000fd5b505050506040513d601f19601f82011682018060405250810190610a159190611a72565b90925090506000610a3082610a2a898961108d565b9061108d565b60078b0154909150600160a01b900460ff1680610a58575060078a01546001600160a01b0316155b15610b07576040516001600160a01b0389169082156108fc029083906000818181858888f19350505050158015610a93573d6000803e3d6000fd5b506040516001600160a01b038a169087156108fc029088906000818181858888f19350505050158015610aca573d6000803e3d6000fd5b506040516001600160a01b0384169083156108fc029084906000818181858888f19350505050158015610b01573d6000803e3d6000fd5b50610db8565b60078a015460058b0154604051636eb1769f60e11b81523360048201523060248201526001600160a01b0390921691829063dd62ed3e9060440160206040518083038186803b158015610b5957600080fd5b505afa158015610b6d573d6000803e3d6000fd5b505050506040513d601f19601f82011682018060405250810190610b919190611b89565b10610d75576040516323b872dd60e01b81526001600160a01b038216906323b872dd90610bc69033908d908790600401611bcb565b602060405180830381600087803b158015610be057600080fd5b505af1158015610bf4573d6000803e3d6000fd5b505050506040513d601f19601f82011682018060405250810190610c189190611abb565b610c345760405162461bcd60e51b815260040161017090611d18565b6040516323b872dd60e01b81526001600160a01b038216906323b872dd90610c649033908e908c90600401611bcb565b602060405180830381600087803b158015610c7e57600080fd5b505af1158015610c92573d6000803e3d6000fd5b505050506040513d601f19601f82011682018060405250810190610cb69190611abb565b610cd25760405162461bcd60e51b815260040161017090611d18565b6040516323b872dd60e01b81526001600160a01b038216906323b872dd90610d0290339088908890600401611bcb565b602060405180830381600087803b158015610d1c57600080fd5b505af1158015610d30573d6000803e3d6000fd5b505050506040513d601f19601f82011682018060405250810190610d549190611abb565b610d705760405162461bcd60e51b815260040161017090611d18565b610db6565b60405162461bcd60e51b8152602060048201526016602482015275496e73756666696369656e7420416c6c6f77616e636560501b6044820152606401610170565b505b60018a015460028b0154604051639841aa7560e01b8152600481018a90523360248201526001600160a01b038b8116604483015260648201929092529116908190639841aa7590608401600060405180830381600087803b158015610e1c57600080fd5b505af1158015610e30573d6000803e3d6000fd5b50505060028c01546040516323b872dd60e01b81526001600160a01b03891692506323b872dd91610e67918d913391600401611bcb565b600060405180830381600087803b158015610e8157600080fd5b505af1158015610e95573d6000803e3d6000fd5b50508e5160009081526002602052604080822060030180546001600160a01b031916331790559f5181529e909e20600601805460ff191690555060019d9c50505050505050505050505050565b600080610eee84611099565b9050826001600160a01b03811663a2b929ea838735610f1060a08a018a611df4565b610f2060608c0160408d01611ba1565b6040518663ffffffff1660e01b8152600401610f40959493929190611bef565b602060405180830381600087803b158015610f5a57600080fd5b505af1158015610f6e573d6000803e3d6000fd5b505050506040513d601f19601f82011682018060405250810190610f929190611abb565b506000610fa1838487896110f2565b9050801561080d576000610fb460015490565b60008181526002602081815260409283902060068101805460ff19166001179055909101549151633f2c55ab60e21b8152908a013560048201526001600160a01b038781166024830152604482019290925291925084169063fcb156ac90606401600060405180830381600087803b15801561102f57600080fd5b505af1158015611043573d6000803e3d6000fd5b505050505095945050505050565b60008061107f6110636002600a611ebe565b61106e906064611f8c565b61107986606461130a565b90611316565b9050600061080d828561130a565b60006103f98284611fab565b6000806110a583611322565b90506103f9816110b860c0860186611daf565b8080601f01602080910402602001604051908101604052809392919081815260200183838082843760009201919091525061140c92505050565b6000808260200135116111175760405162461bcd60e51b815260040161017090611d78565b611125600180546001019055565b600061113060015490565b9050604051806101600160405280828152602001856001600160a01b0316815260200184600001358152602001866001600160a01b03168152602001876001600160a01b03168152602001846020013581526020016000151581526020018460400160208101906111a19190611ba1565b6001600160601b031681526020016111bf6080860160608701611a3a565b6001600160a01b031681526020016111dd60a0860160808701611a9f565b151581526001602091820181905260009384526002808352604094859020845181559284015183830180546001600160a01b03199081166001600160a01b039384161790915595850151918401919091556060840151600384018054871691831691909117905560808401516004840180549096169082161790945560a0830151600583015560c083015160068301805460e08601516cffffffffffffffffffffffffff199091169215156cffffffffffffffffffffffff001916929092176101006001600160601b0390931683021790558301516007909201805461012085015161014090950151939095166001600160a81b031990951694909417600160a01b931515939093029290921760ff60a81b1916600160a81b911515919091021790915595945050505050565b60006103f98284611f8c565b60006103f98284611e61565b60006114067f56afae8d896fd9531f06be54cf24dfc399960088594ece641e90b33fc82e5cbb8335602085013561135f6060870160408801611ba1565b61136f6080880160608901611a3a565b61137f60a0890160808a01611a9f565b61138c60a08a018a611df4565b60405161139a929190611bbb565b60408051918290038220602083019890985281019590955260608501939093526001600160601b0390911660808401526001600160a01b031660a0830152151560c082015260e08101919091526101000160405160208183030381529060405280519060200120611430565b92915050565b600080600061141b858561147e565b91509150611428816114ee565b509392505050565b600061140661143d6116f4565b8360405161190160f01b6020820152602281018390526042810182905260009060620160405160208183030381529060405280519060200120905092915050565b6000808251604114156114b55760208301516040840151606085015160001a6114a98782858561181f565b945094505050506114e7565b8251604014156114df57602083015160408401516114d486838361190c565b9350935050506114e7565b506000905060025b9250929050565b600081600481111561151057634e487b7160e01b600052602160045260246000fd5b141561151b576116f1565b600181600481111561153d57634e487b7160e01b600052602160045260246000fd5b141561158b5760405162461bcd60e51b815260206004820152601860248201527f45434453413a20696e76616c6964207369676e617475726500000000000000006044820152606401610170565b60028160048111156115ad57634e487b7160e01b600052602160045260246000fd5b14156115fb5760405162461bcd60e51b815260206004820152601f60248201527f45434453413a20696e76616c6964207369676e6174757265206c656e677468006044820152606401610170565b600381600481111561161d57634e487b7160e01b600052602160045260246000fd5b14156116765760405162461bcd60e51b815260206004820152602260248201527f45434453413a20696e76616c6964207369676e6174757265202773272076616c604482015261756560f01b6064820152608401610170565b600481600481111561169857634e487b7160e01b600052602160045260246000fd5b14156116f15760405162461bcd60e51b815260206004820152602260248201527f45434453413a20696e76616c6964207369676e6174757265202776272076616c604482015261756560f01b6064820152608401610170565b50565b6000306001600160a01b037f00000000000000000000000000000000000000000000000000000000000000001614801561174d57507f000000000000000000000000000000000000000000000000000000000000000046145b1561177957507f0000000000000000000000000000000000000000000000000000000000000000610632565b50604080517f00000000000000000000000000000000000000000000000000000000000000006020808301919091527f0000000000000000000000000000000000000000000000000000000000000000828401527f000000000000000000000000000000000000000000000000000000000000000060608301524660808301523060a0808401919091528351808403909101815260c09092019092528051910120610632565b6000807f7fffffffffffffffffffffffffffffff5d576e7357a4501ddfe92f46681b20a08311156118565750600090506003611903565b8460ff16601b1415801561186e57508460ff16601c14155b1561187f5750600090506004611903565b6040805160008082526020820180845289905260ff881692820192909252606081018690526080810185905260019060a0016020604051602081039080840390855afa1580156118d3573d6000803e3d6000fd5b5050604051601f1901519150506001600160a01b0381166118fc57600060019250925050611903565b9150600090505b94509492505050565b6000806001600160ff1b0383168161192960ff86901c601b611e49565b90506119378782888561181f565b935093505050935093915050565b803561062b81611ff3565b803561062b81612008565b600061016080838503121561196e578182fd5b61197781611e0a565b9150508135815261198a60208301611945565b6020820152604082013560408201526119a560608301611945565b60608201526119b660808301611945565b608082015260a082013560a08201526119d160c08301611950565b60c08201526119e260e08301611a23565b60e08201526101006119f5818401611945565b90820152610120611a07838201611950565b90820152610140611a19838201611950565b9082015292915050565b80356001600160601b038116811461062b57600080fd5b600060208284031215611a4b578081fd5b81356103f981611ff3565b600060208284031215611a67578081fd5b81516103f981611ff3565b60008060408385031215611a84578081fd5b8251611a8f81611ff3565b6020939093015192949293505050565b600060208284031215611ab0578081fd5b81356103f981612008565b600060208284031215611acc578081fd5b81516103f981612008565b60006101608284031215611ae9578081fd5b6103f9838361195b565b60008060006101a08486031215611b08578081fd5b611b12858561195b565b9250610160840135611b2381612008565b92959294505050610180919091013590565b60008060408385031215611b47578182fd5b823567ffffffffffffffff811115611b5d578283fd5b830160e08186031215611b6e578283fd5b91506020830135611b7e81611ff3565b809150509250929050565b600060208284031215611b9a578081fd5b5051919050565b600060208284031215611bb2578081fd5b6103f982611a23565b6000828483379101908152919050565b6001600160a01b039384168152919092166020820152604081019190915260600190565b6001600160a01b03861681526020810185905260806040820181905281018390526000838560a08401378060a0858401015260a0601f19601f86011683010190506001600160601b03831660608301529695505050505050565b602080825282518282018190526000919060409081850190868401855b82811015611d0b57815180518552868101516001600160a01b0390811688870152868201518787015260608083015182169087015260808083015182169087015260a0808301519087015260c08083015115159087015260e0808301516001600160601b031690870152610100808301519091169086015261012080820151151590860152610140908101511515908501526101609093019290850190600101611c66565b5091979650505050505050565b6020808252600f908201526e1d1c985b9cd9995c8811985a5b1959608a1b604082015260600190565b6020808252601f908201527f5265656e7472616e637947756172643a207265656e7472616e742063616c6c00604082015260600190565b6020808252601c908201527f5072696365206d757374206265206174206c6561737420312077656900000000604082015260600190565b6000808335601e19843603018112611dc5578283fd5b83018035915067ffffffffffffffff821115611ddf578283fd5b6020019150368190038213156114e757600080fd5b6000808335601e19843603018112611dc5578182fd5b604051601f8201601f1916810167ffffffffffffffff81118282101715611e4157634e487b7160e01b600052604160045260246000fd5b604052919050565b60008219821115611e5c57611e5c611fdd565b500190565b600082611e7c57634e487b7160e01b81526012600452602481fd5b500490565b80825b6001808611611e935750611903565b818704821115611ea557611ea5611fdd565b80861615611eb257918102915b9490941c938002611e84565b60006103f96000198484600082611ed7575060016103f9565b81611ee4575060006103f9565b8160018114611efa5760028114611f0457611f31565b60019150506103f9565b60ff841115611f1557611f15611fdd565b6001841b915084821115611f2b57611f2b611fdd565b506103f9565b5060208310610133831016604e8410600b8410161715611f64575081810a83811115611f5f57611f5f611fdd565b6103f9565b611f718484846001611e81565b808604821115611f8357611f83611fdd565b02949350505050565b6000816000190483118215151615611fa657611fa6611fdd565b500290565b600082821015611fbd57611fbd611fdd565b500390565b6000600019821415611fd657611fd6611fdd565b5060010190565b634e487b7160e01b600052601160045260246000fd5b6001600160a01b03811681146116f157600080fd5b80151581146116f157600080fdfea26469706673582212208c869385921fe14125a498756987a987c57553ac3fc4c60c04784d358e94485e64736f6c63430008030033",
  "linkReferences": {},
  "deployedLinkReferences": {}
}