{
  "_format": "hh-sol-artifact-1",
  "contractName": "ThredMarketplace",
  "sourceName": "contracts/ThredMarketplace/ThredMarketplace.sol",
  "abi": [
    {
      "anonymous": false,
      "inputs": [
        {
          "indexed": true,
          "internalType": "address",
          "name": "sender",
          "type": "address"
        },
        {
          "indexed": false,
          "internalType": "uint256",
          "name": "amount",
          "type": "uint256"
        }
      ],
      "name": "Bid",
      "type": "event"
    },
    {
      "anonymous": false,
      "inputs": [
        {
          "indexed": false,
          "internalType": "address",
          "name": "winner",
          "type": "address"
        },
        {
          "indexed": false,
          "internalType": "uint256",
          "name": "amount",
          "type": "uint256"
        }
      ],
      "name": "End",
      "type": "event"
    },
    {
      "anonymous": false,
      "inputs": [
        {
          "indexed": false,
          "internalType": "uint8",
          "name": "version",
          "type": "uint8"
        }
      ],
      "name": "Initialized",
      "type": "event"
    },
    {
      "anonymous": false,
      "inputs": [
        {
          "indexed": false,
          "internalType": "address",
          "name": "account",
          "type": "address"
        }
      ],
      "name": "Paused",
      "type": "event"
    },
    {
      "anonymous": false,
      "inputs": [],
      "name": "Start",
      "type": "event"
    },
    {
      "anonymous": false,
      "inputs": [
        {
          "indexed": false,
          "internalType": "address",
          "name": "account",
          "type": "address"
        }
      ],
      "name": "Unpaused",
      "type": "event"
    },
    {
      "anonymous": false,
      "inputs": [
        {
          "indexed": true,
          "internalType": "address",
          "name": "bidder",
          "type": "address"
        },
        {
          "indexed": false,
          "internalType": "uint256",
          "name": "amount",
          "type": "uint256"
        }
      ],
      "name": "Withdraw",
      "type": "event"
    },
    {
      "inputs": [
        {
          "internalType": "address payable",
          "name": "nftOwner",
          "type": "address"
        },
        {
          "internalType": "address payable",
          "name": "nftSeller",
          "type": "address"
        },
        {
          "internalType": "address",
          "name": "nftContract",
          "type": "address"
        },
        {
          "internalType": "address",
          "name": "token",
          "type": "address"
        },
        {
          "components": [
            {
              "internalType": "uint256",
              "name": "tokenId",
              "type": "uint256"
            },
            {
              "internalType": "uint256",
              "name": "minPrice",
              "type": "uint256"
            },
            {
              "internalType": "uint96",
              "name": "royalty",
              "type": "uint96"
            },
            {
              "internalType": "bool",
              "name": "isNative",
              "type": "bool"
            },
            {
              "internalType": "uint256",
              "name": "amount",
              "type": "uint256"
            },
            {
              "internalType": "bool",
              "name": "fungible",
              "type": "bool"
            },
            {
              "internalType": "string",
              "name": "uri",
              "type": "string"
            },
            {
              "internalType": "bytes",
              "name": "signature",
              "type": "bytes"
            }
          ],
          "internalType": "struct ThredMarketplace.NFTVoucher",
          "name": "voucher",
          "type": "tuple"
        }
      ],
      "name": "createMarketItem",
      "outputs": [
        {
          "internalType": "bool",
          "name": "",
          "type": "bool"
        }
      ],
      "stateMutability": "nonpayable",
      "type": "function"
    },
    {
      "inputs": [
        {
          "internalType": "uint256",
          "name": "item",
          "type": "uint256"
        },
        {
          "internalType": "uint256",
          "name": "variation",
          "type": "uint256"
        }
      ],
      "name": "createSale",
      "outputs": [
        {
          "internalType": "bool",
          "name": "",
          "type": "bool"
        }
      ],
      "stateMutability": "payable",
      "type": "function"
    },
    {
      "inputs": [
        {
          "internalType": "uint256",
          "name": "item",
          "type": "uint256"
        },
        {
          "internalType": "uint256",
          "name": "variation",
          "type": "uint256"
        }
      ],
      "name": "createSaleCustom",
      "outputs": [
        {
          "internalType": "bool",
          "name": "",
          "type": "bool"
        }
      ],
      "stateMutability": "nonpayable",
      "type": "function"
    },
    {
      "inputs": [
        {
          "internalType": "address",
          "name": "contractAddress",
          "type": "address"
        },
        {
          "internalType": "uint256",
          "name": "tokenId",
          "type": "uint256"
        }
      ],
      "name": "fetchCollectionAsset",
      "outputs": [
        {
          "components": [
            {
              "internalType": "uint256",
              "name": "itemId",
              "type": "uint256"
            },
            {
              "internalType": "address",
              "name": "nftContract",
              "type": "address"
            },
            {
              "internalType": "uint256",
              "name": "tokenId",
              "type": "uint256"
            },
            {
              "internalType": "address payable",
              "name": "owner",
              "type": "address"
            },
            {
              "components": [
                {
                  "internalType": "address payable",
                  "name": "seller",
                  "type": "address"
                },
                {
                  "internalType": "uint256",
                  "name": "price",
                  "type": "uint256"
                },
                {
                  "internalType": "uint256",
                  "name": "variationId",
                  "type": "uint256"
                },
                {
                  "internalType": "uint256",
                  "name": "itemId",
                  "type": "uint256"
                },
                {
                  "internalType": "bool",
                  "name": "forSale",
                  "type": "bool"
                }
              ],
              "internalType": "struct ThredMarketplace.Variation[]",
              "name": "variations",
              "type": "tuple[]"
            },
            {
              "internalType": "uint96",
              "name": "royalty",
              "type": "uint96"
            },
            {
              "internalType": "address",
              "name": "tokenContract",
              "type": "address"
            },
            {
              "internalType": "bool",
              "name": "isNative",
              "type": "bool"
            },
            {
              "internalType": "bool",
              "name": "minted",
              "type": "bool"
            },
            {
              "internalType": "uint256",
              "name": "amount",
              "type": "uint256"
            },
            {
              "components": [
                {
                  "internalType": "uint256",
                  "name": "_value",
                  "type": "uint256"
                }
              ],
              "internalType": "struct Counters.Counter",
              "name": "mintedVariations",
              "type": "tuple"
            },
            {
              "internalType": "bool",
              "name": "fungible",
              "type": "bool"
            },
            {
              "internalType": "string",
              "name": "tokenUri",
              "type": "string"
            }
          ],
          "internalType": "struct ThredMarketplace.MarketItem[]",
          "name": "",
          "type": "tuple[]"
        }
      ],
      "stateMutability": "view",
      "type": "function"
    },
    {
      "inputs": [
        {
          "internalType": "address",
          "name": "contractAddress",
          "type": "address"
        }
      ],
      "name": "fetchCollectionAssets",
      "outputs": [
        {
          "components": [
            {
              "internalType": "uint256",
              "name": "itemId",
              "type": "uint256"
            },
            {
              "internalType": "address",
              "name": "nftContract",
              "type": "address"
            },
            {
              "internalType": "uint256",
              "name": "tokenId",
              "type": "uint256"
            },
            {
              "internalType": "address payable",
              "name": "owner",
              "type": "address"
            },
            {
              "components": [
                {
                  "internalType": "address payable",
                  "name": "seller",
                  "type": "address"
                },
                {
                  "internalType": "uint256",
                  "name": "price",
                  "type": "uint256"
                },
                {
                  "internalType": "uint256",
                  "name": "variationId",
                  "type": "uint256"
                },
                {
                  "internalType": "uint256",
                  "name": "itemId",
                  "type": "uint256"
                },
                {
                  "internalType": "bool",
                  "name": "forSale",
                  "type": "bool"
                }
              ],
              "internalType": "struct ThredMarketplace.Variation[]",
              "name": "variations",
              "type": "tuple[]"
            },
            {
              "internalType": "uint96",
              "name": "royalty",
              "type": "uint96"
            },
            {
              "internalType": "address",
              "name": "tokenContract",
              "type": "address"
            },
            {
              "internalType": "bool",
              "name": "isNative",
              "type": "bool"
            },
            {
              "internalType": "bool",
              "name": "minted",
              "type": "bool"
            },
            {
              "internalType": "uint256",
              "name": "amount",
              "type": "uint256"
            },
            {
              "components": [
                {
                  "internalType": "uint256",
                  "name": "_value",
                  "type": "uint256"
                }
              ],
              "internalType": "struct Counters.Counter",
              "name": "mintedVariations",
              "type": "tuple"
            },
            {
              "internalType": "bool",
              "name": "fungible",
              "type": "bool"
            },
            {
              "internalType": "string",
              "name": "tokenUri",
              "type": "string"
            }
          ],
          "internalType": "struct ThredMarketplace.MarketItem[]",
          "name": "",
          "type": "tuple[]"
        }
      ],
      "stateMutability": "view",
      "type": "function"
    },
    {
      "inputs": [
        {
          "internalType": "address",
          "name": "contractAddress",
          "type": "address"
        }
      ],
      "name": "fetchCollectionAssetsOnMarket",
      "outputs": [
        {
          "components": [
            {
              "internalType": "uint256",
              "name": "itemId",
              "type": "uint256"
            },
            {
              "internalType": "address",
              "name": "nftContract",
              "type": "address"
            },
            {
              "internalType": "uint256",
              "name": "tokenId",
              "type": "uint256"
            },
            {
              "internalType": "address payable",
              "name": "owner",
              "type": "address"
            },
            {
              "components": [
                {
                  "internalType": "address payable",
                  "name": "seller",
                  "type": "address"
                },
                {
                  "internalType": "uint256",
                  "name": "price",
                  "type": "uint256"
                },
                {
                  "internalType": "uint256",
                  "name": "variationId",
                  "type": "uint256"
                },
                {
                  "internalType": "uint256",
                  "name": "itemId",
                  "type": "uint256"
                },
                {
                  "internalType": "bool",
                  "name": "forSale",
                  "type": "bool"
                }
              ],
              "internalType": "struct ThredMarketplace.Variation[]",
              "name": "variations",
              "type": "tuple[]"
            },
            {
              "internalType": "uint96",
              "name": "royalty",
              "type": "uint96"
            },
            {
              "internalType": "address",
              "name": "tokenContract",
              "type": "address"
            },
            {
              "internalType": "bool",
              "name": "isNative",
              "type": "bool"
            },
            {
              "internalType": "bool",
              "name": "minted",
              "type": "bool"
            },
            {
              "internalType": "uint256",
              "name": "amount",
              "type": "uint256"
            },
            {
              "components": [
                {
                  "internalType": "uint256",
                  "name": "_value",
                  "type": "uint256"
                }
              ],
              "internalType": "struct Counters.Counter",
              "name": "mintedVariations",
              "type": "tuple"
            },
            {
              "internalType": "bool",
              "name": "fungible",
              "type": "bool"
            },
            {
              "internalType": "string",
              "name": "tokenUri",
              "type": "string"
            }
          ],
          "internalType": "struct ThredMarketplace.MarketItem[]",
          "name": "",
          "type": "tuple[]"
        }
      ],
      "stateMutability": "view",
      "type": "function"
    },
    {
      "inputs": [
        {
          "internalType": "address",
          "name": "contractAddress",
          "type": "address"
        },
        {
          "internalType": "uint256",
          "name": "variation",
          "type": "uint256"
        }
      ],
      "name": "fetchCollectionInfo",
      "outputs": [
        {
          "components": [
            {
              "internalType": "uint256",
              "name": "floor",
              "type": "uint256"
            },
            {
              "internalType": "uint256",
              "name": "holders",
              "type": "uint256"
            },
            {
              "internalType": "uint256",
              "name": "volume",
              "type": "uint256"
            }
          ],
          "internalType": "struct ThredMarketplace.CollectionInfo",
          "name": "",
          "type": "tuple"
        }
      ],
      "stateMutability": "view",
      "type": "function"
    },
    {
      "inputs": [
        {
          "internalType": "address",
          "name": "marketAddress",
          "type": "address"
        }
      ],
      "name": "fetchMarketAssets",
      "outputs": [
        {
          "components": [
            {
              "internalType": "uint256",
              "name": "itemId",
              "type": "uint256"
            },
            {
              "internalType": "address",
              "name": "nftContract",
              "type": "address"
            },
            {
              "internalType": "uint256",
              "name": "tokenId",
              "type": "uint256"
            },
            {
              "internalType": "address payable",
              "name": "owner",
              "type": "address"
            },
            {
              "components": [
                {
                  "internalType": "address payable",
                  "name": "seller",
                  "type": "address"
                },
                {
                  "internalType": "uint256",
                  "name": "price",
                  "type": "uint256"
                },
                {
                  "internalType": "uint256",
                  "name": "variationId",
                  "type": "uint256"
                },
                {
                  "internalType": "uint256",
                  "name": "itemId",
                  "type": "uint256"
                },
                {
                  "internalType": "bool",
                  "name": "forSale",
                  "type": "bool"
                }
              ],
              "internalType": "struct ThredMarketplace.Variation[]",
              "name": "variations",
              "type": "tuple[]"
            },
            {
              "internalType": "uint96",
              "name": "royalty",
              "type": "uint96"
            },
            {
              "internalType": "address",
              "name": "tokenContract",
              "type": "address"
            },
            {
              "internalType": "bool",
              "name": "isNative",
              "type": "bool"
            },
            {
              "internalType": "bool",
              "name": "minted",
              "type": "bool"
            },
            {
              "internalType": "uint256",
              "name": "amount",
              "type": "uint256"
            },
            {
              "components": [
                {
                  "internalType": "uint256",
                  "name": "_value",
                  "type": "uint256"
                }
              ],
              "internalType": "struct Counters.Counter",
              "name": "mintedVariations",
              "type": "tuple"
            },
            {
              "internalType": "bool",
              "name": "fungible",
              "type": "bool"
            },
            {
              "internalType": "string",
              "name": "tokenUri",
              "type": "string"
            }
          ],
          "internalType": "struct ThredMarketplace.MarketItem[]",
          "name": "",
          "type": "tuple[]"
        }
      ],
      "stateMutability": "view",
      "type": "function"
    },
    {
      "inputs": [],
      "name": "getChainID",
      "outputs": [
        {
          "internalType": "uint256",
          "name": "",
          "type": "uint256"
        }
      ],
      "stateMutability": "view",
      "type": "function"
    },
    {
      "inputs": [
        {
          "internalType": "string",
          "name": "domain",
          "type": "string"
        },
        {
          "internalType": "string",
          "name": "version",
          "type": "string"
        },
        {
          "internalType": "address",
          "name": "marketplaceAddress",
          "type": "address"
        }
      ],
      "name": "initialize",
      "outputs": [],
      "stateMutability": "nonpayable",
      "type": "function"
    },
    {
      "inputs": [
        {
          "components": [
            {
              "internalType": "uint256",
              "name": "tokenId",
              "type": "uint256"
            },
            {
              "internalType": "uint256",
              "name": "minPrice",
              "type": "uint256"
            },
            {
              "internalType": "uint96",
              "name": "royalty",
              "type": "uint96"
            },
            {
              "internalType": "bool",
              "name": "isNative",
              "type": "bool"
            },
            {
              "internalType": "uint256",
              "name": "amount",
              "type": "uint256"
            },
            {
              "internalType": "bool",
              "name": "fungible",
              "type": "bool"
            },
            {
              "internalType": "string",
              "name": "uri",
              "type": "string"
            },
            {
              "internalType": "bytes",
              "name": "signature",
              "type": "bytes"
            }
          ],
          "internalType": "struct ThredMarketplace.NFTVoucher",
          "name": "voucher",
          "type": "tuple"
        },
        {
          "internalType": "address",
          "name": "contractAddress",
          "type": "address"
        }
      ],
      "name": "mintAndTransfer",
      "outputs": [
        {
          "internalType": "bool",
          "name": "",
          "type": "bool"
        }
      ],
      "stateMutability": "payable",
      "type": "function"
    },
    {
      "inputs": [
        {
          "components": [
            {
              "internalType": "uint256",
              "name": "tokenId",
              "type": "uint256"
            },
            {
              "internalType": "uint256",
              "name": "minPrice",
              "type": "uint256"
            },
            {
              "internalType": "uint96",
              "name": "royalty",
              "type": "uint96"
            },
            {
              "internalType": "bool",
              "name": "isNative",
              "type": "bool"
            },
            {
              "internalType": "uint256",
              "name": "amount",
              "type": "uint256"
            },
            {
              "internalType": "bool",
              "name": "fungible",
              "type": "bool"
            },
            {
              "internalType": "string",
              "name": "uri",
              "type": "string"
            },
            {
              "internalType": "bytes",
              "name": "signature",
              "type": "bytes"
            }
          ],
          "internalType": "struct ThredMarketplace.NFTVoucher",
          "name": "voucher",
          "type": "tuple"
        },
        {
          "internalType": "address",
          "name": "contractAddress",
          "type": "address"
        }
      ],
      "name": "mintAndTransferCustom",
      "outputs": [
        {
          "internalType": "bool",
          "name": "",
          "type": "bool"
        }
      ],
      "stateMutability": "nonpayable",
      "type": "function"
    },
    {
      "inputs": [
        {
          "components": [
            {
              "internalType": "uint256",
              "name": "tokenId",
              "type": "uint256"
            },
            {
              "internalType": "uint256",
              "name": "minPrice",
              "type": "uint256"
            },
            {
              "internalType": "uint96",
              "name": "royalty",
              "type": "uint96"
            },
            {
              "internalType": "bool",
              "name": "isNative",
              "type": "bool"
            },
            {
              "internalType": "uint256",
              "name": "amount",
              "type": "uint256"
            },
            {
              "internalType": "bool",
              "name": "fungible",
              "type": "bool"
            },
            {
              "internalType": "string",
              "name": "uri",
              "type": "string"
            },
            {
              "internalType": "bytes",
              "name": "signature",
              "type": "bytes"
            }
          ],
          "internalType": "struct ThredMarketplace.NFTVoucher",
          "name": "voucher",
          "type": "tuple"
        },
        {
          "internalType": "address",
          "name": "nftContract",
          "type": "address"
        }
      ],
      "name": "mintNFT",
      "outputs": [
        {
          "internalType": "bool",
          "name": "",
          "type": "bool"
        }
      ],
      "stateMutability": "nonpayable",
      "type": "function"
    },
    {
      "inputs": [],
      "name": "pause",
      "outputs": [],
      "stateMutability": "nonpayable",
      "type": "function"
    },
    {
      "inputs": [],
      "name": "paused",
      "outputs": [
        {
          "internalType": "bool",
          "name": "",
          "type": "bool"
        }
      ],
      "stateMutability": "view",
      "type": "function"
    },
    {
      "inputs": [
        {
          "internalType": "uint256",
          "name": "itemId",
          "type": "uint256"
        },
        {
          "internalType": "uint256",
          "name": "v",
          "type": "uint256"
        },
        {
          "internalType": "address",
          "name": "from",
          "type": "address"
        },
        {
          "internalType": "address",
          "name": "to",
          "type": "address"
        }
      ],
      "name": "transferNFTSale",
      "outputs": [
        {
          "internalType": "bool",
          "name": "",
          "type": "bool"
        }
      ],
      "stateMutability": "payable",
      "type": "function"
    },
    {
      "inputs": [],
      "name": "unpause",
      "outputs": [],
      "stateMutability": "nonpayable",
      "type": "function"
    },
    {
      "inputs": [
        {
          "internalType": "uint256",
          "name": "itemId",
          "type": "uint256"
        },
        {
          "internalType": "uint256",
          "name": "variation",
          "type": "uint256"
        },
        {
          "internalType": "bool",
          "name": "forSale",
          "type": "bool"
        },
        {
          "internalType": "uint256",
          "name": "price",
          "type": "uint256"
        }
      ],
      "name": "updateItem",
      "outputs": [
        {
          "internalType": "bool",
          "name": "",
          "type": "bool"
        }
      ],
      "stateMutability": "nonpayable",
      "type": "function"
    },
    {
      "inputs": [
        {
          "components": [
            {
              "internalType": "uint256",
              "name": "tokenId",
              "type": "uint256"
            },
            {
              "internalType": "uint256",
              "name": "minPrice",
              "type": "uint256"
            },
            {
              "internalType": "uint96",
              "name": "royalty",
              "type": "uint96"
            },
            {
              "internalType": "bool",
              "name": "isNative",
              "type": "bool"
            },
            {
              "internalType": "uint256",
              "name": "amount",
              "type": "uint256"
            },
            {
              "internalType": "bool",
              "name": "fungible",
              "type": "bool"
            },
            {
              "internalType": "string",
              "name": "uri",
              "type": "string"
            },
            {
              "internalType": "bytes",
              "name": "signature",
              "type": "bytes"
            }
          ],
          "internalType": "struct ThredMarketplace.NFTVoucher",
          "name": "voucher",
          "type": "tuple"
        }
      ],
      "name": "verify",
      "outputs": [
        {
          "internalType": "address",
          "name": "",
          "type": "address"
        }
      ],
      "stateMutability": "view",
      "type": "function"
    },
    {
      "inputs": [],
      "name": "withdrawThred",
      "outputs": [],
      "stateMutability": "nonpayable",
      "type": "function"
    }
  ],
  "bytecode": "0x608060405234801561001057600080fd5b50614103806100206000396000f3fe60806040526004361061011f5760003560e01c80637c503420116100a0578063d8f9b50d11610064578063d8f9b50d14610324578063dadfb61a14610337578063dd6a1fbd14610357578063df76606614610372578063fa662b74146103875761011f565b80637c503420146102775780638456cb591461029757806387bb44bd146102ac578063a4747be5146102cc578063ade1e770146102ec5761011f565b806350517bad116100e757806350517bad146101f6578063564b81ef146102165780635c975abb146102315780636019061b146102495780636214d4271461025c5761011f565b8063077f224a146101245780630ea29a261461014657806318368b7a1461017c5780633f4ba83a146101be57806348fc7cd4146101d3575b600080fd5b34801561013057600080fd5b5061014461013f3660046137c9565b6103a7565b005b34801561015257600080fd5b506101666101613660046136cf565b610451565b6040516101739190613b4e565b60405180910390f35b34801561018857600080fd5b5061019c6101973660046136cf565b6108d4565b6040805182518152602080840151908201529181015190820152606001610173565b3480156101ca57600080fd5b50610144610b13565b6101e66101e1366004613879565b610b1d565b6040519015158152602001610173565b34801561020257600080fd5b506101e6610211366004613649565b610b65565b34801561022257600080fd5b50604051468152602001610173565b34801561023d57600080fd5b5060995460ff166101e6565b6101e66102573660046138e1565b610bdc565b34801561026857600080fd5b506101e66101e1366004613879565b34801561028357600080fd5b50610166610292366004613611565b610c1d565b3480156102a357600080fd5b50610144610f39565b3480156102b857600080fd5b506101666102c7366004613611565b610f41565b3480156102d857600080fd5b506101666102e7366004613611565b6113c8565b3480156102f857600080fd5b5061030c61030736600461383e565b611802565b6040516001600160a01b039091168152602001610173565b6101e6610332366004613902565b611862565b34801561034357600080fd5b506101e6610352366004613879565b6118f0565b34801561036357600080fd5b506101e66102573660046138e1565b34801561037e57600080fd5b5061014461196a565b34801561039357600080fd5b506101e66103a236600461394b565b611a37565b60006103b36001611d90565b905080156103cb576000805461ff0019166101001790555b6103d58484611e15565b6103dd611e4a565b6103e5611e79565b60cd80546001600160a01b0319166001600160a01b038416179055600060cf55801561044b576000805461ff0019169055604051600181527f7f26b83ff96e1f2b6a682f133852f6798a09c465da95921460cefb38474024989060200160405180910390a15b50505050565b6060600061045e60cb5490565b60408051600180825281830190925291925060009190816020015b610481613533565b81526020019060019003908161047957905050905060005b828110156108cb576001600160a01b03861660cc60006104ba846001613e89565b81526020810191909152604001600020600101546001600160a01b031614801561050357508460cc60006104ef846001613e89565b815260200190815260200160002060020154145b156108b9576000610515826001613e89565b600081815260cc6020908152604080832081516101a0810183528154815260018201546001600160a01b039081168286015260028301548285015260038301541660608201526004820180548451818702810187019095528085529697509495909491936080860193929190879084015b828210156105f25760008481526020908190206040805160a0810182526005860290920180546001600160a01b0316835260018082015484860152600282015492840192909252600381015460608401526004015460ff16151560808301529083529092019101610586565b5050509082525060058201546001600160601b038116602080840191909152600160601b9091046001600160a01b0316604080840191909152600684015460ff8082161515606086015261010091829004811615156080860152600786015460a086015282519384019092526008850154835260c0840192909252600984015416151560e0830152600a8301805491909201919061068f9061402e565b80601f01602080910402602001604051908101604052809291908181526020018280546106bb9061402e565b80156107085780601f106106dd57610100808354040283529160200191610708565b820191906000526020600020905b8154815290600101906020018083116106eb57829003601f168201915b505050505081525050905060005b81608001515181101561088457602082015160408084015190516331a9108f60e11b815282916001600160a01b03831691636352211e9161075d9160040190815260200190565b60206040518083038186803b15801561077557600080fd5b505afa158015610789573d6000803e3d6000fd5b505050506040513d601f19601f820116820180604052508101906107ad919061362d565b846080015184815181106107d157634e487b7160e01b600052603260045260246000fd5b60209081029190910101516001600160a01b039182169052604080860151905163c87b56dd60e01b81529183169163c87b56dd916108159160040190815260200190565b60006040518083038186803b15801561082d57600080fd5b505afa158015610841573d6000803e3d6000fd5b505050506040513d6000823e601f3d908101601f19168201604052610869919081019061375f565b6101808501525081905061087c81614063565b915050610716565b5080846000815181106108a757634e487b7160e01b600052603260045260246000fd5b602002602001018190525050506108cb565b806108c381614063565b915050610499565b50949350505050565b6108f860405180606001604052806000815260200160008152602001600081525090565b600061090360cb5490565b60408051606081018252600080825260208083018290526001600160a01b038916825260ce905282812054928201929092529192505b828110156108cb576001600160a01b03861660cc600061095a846001613e89565b81526020810191909152604001600020600101546001600160a01b03161415610b015760cc600061098c836001613e89565b815260200190815260200160002060040185815481106109bc57634e487b7160e01b600052603260045260246000fd5b600091825260209091206004600590920201015460ff166109f2576001826020018181516109ea9190613e89565b905250610b01565b8151610a525760cc6000610a07836001613e89565b81526020019081526020016000206004018181548110610a3757634e487b7160e01b600052603260045260246000fd5b60009182526020909120600160059092020101548252610b01565b815160cc6000610a63846001613e89565b81526020019081526020016000206004018681548110610a9357634e487b7160e01b600052603260045260246000fd5b9060005260206000209060050201600101541015610b015760cc6000610aba836001613e89565b81526020019081526020016000206004018581548110610aea57634e487b7160e01b600052603260045260246000fd5b600091825260209091206001600590920201015482525b80610b0b81614063565b915050610939565b610b1b611ea8565b565b600060026001541415610b4b5760405162461bcd60e51b8152600401610b4290613d7d565b60405180910390fd5b6002600155610b5a8383611f3b565b600180559392505050565b600060026001541415610b8a5760405162461bcd60e51b8152600401610b4290613d7d565b60026001556000610b9a60cb5490565b610ba5906001613e89565b90506000610bb7888888888887611ffd565b90508015610bcd57610bcd60cb80546001019055565b60018055979650505050505050565b600060026001541415610c015760405162461bcd60e51b8152600401610b4290613d7d565b60026001908155610b5a908490610c189085613feb565b612206565b60606000610c2a60cb5490565b90506000808267ffffffffffffffff811115610c5657634e487b7160e01b600052604160045260246000fd5b604051908082528060200260200182016040528015610c8f57816020015b610c7c613533565b815260200190600190039081610c745790505b50905060005b83811015610f2e576001600160a01b03861660cc6000610cb6846001613e89565b81526020810191909152604001600020600301546001600160a01b03161415610f1c576000610ce6826001613e89565b600081815260cc6020908152604080832081516101a0810183528154815260018201546001600160a01b0390811682860152600283015482850152600383015416606082015260048201805484518187028101870190955280855296975091959094869460808701949392919084015b82821015610dc25760008481526020908190206040805160a0810182526005860290920180546001600160a01b0316835260018082015484860152600282015492840192909252600381015460608401526004015460ff16151560808301529083529092019101610d56565b5050509082525060058201546001600160601b038116602080840191909152600160601b9091046001600160a01b0316604080840191909152600684015460ff8082161515606086015261010091829004811615156080860152600786015460a086015282519384019092526008850154835260c0840192909252600984015416151560e0830152600a83018054919092019190610e5f9061402e565b80601f0160208091040260200160405190810160405280929190818152602001828054610e8b9061402e565b8015610ed85780601f10610ead57610100808354040283529160200191610ed8565b820191906000526020600020905b815481529060010190602001808311610ebb57829003601f168201915b505050505081525050848681518110610f0157634e487b7160e01b600052603260045260246000fd5b6020908102919091010152610f17600186613e89565b945050505b80610f2681614063565b915050610c95565b50925050505b919050565b610b1b6127c5565b60606000610f4e60cb5490565b90506000808267ffffffffffffffff811115610f7a57634e487b7160e01b600052604160045260246000fd5b604051908082528060200260200182016040528015610fb357816020015b610fa0613533565b815260200190600190039081610f985790505b50905060005b83811015610f2e576001600160a01b03861660cc6000610fda846001613e89565b81526020810191909152604001600020600101546001600160a01b031614156113b657600061100a826001613e89565b600081815260cc6020908152604080832081516101a0810183528154815260018201546001600160a01b039081168286015260028301548285015260038301541660608201526004820180548451818702810187019095528085529697509495909491936080860193929190879084015b828210156110e75760008481526020908190206040805160a0810182526005860290920180546001600160a01b0316835260018082015484860152600282015492840192909252600381015460608401526004015460ff1615156080830152908352909201910161107b565b5050509082525060058201546001600160601b038116602080840191909152600160601b9091046001600160a01b0316604080840191909152600684015460ff8082161515606086015261010091829004811615156080860152600786015460a086015282519384019092526008850154835260c0840192909252600984015416151560e0830152600a830180549190920191906111849061402e565b80601f01602080910402602001604051908101604052809291908181526020018280546111b09061402e565b80156111fd5780601f106111d2576101008083540402835291602001916111fd565b820191906000526020600020905b8154815290600101906020018083116111e057829003601f168201915b505050505081525050905060005b81608001515181101561137957602082015160408084015190516331a9108f60e11b815282916001600160a01b03831691636352211e916112529160040190815260200190565b60206040518083038186803b15801561126a57600080fd5b505afa15801561127e573d6000803e3d6000fd5b505050506040513d601f19601f820116820180604052508101906112a2919061362d565b846080015184815181106112c657634e487b7160e01b600052603260045260246000fd5b60209081029190910101516001600160a01b039182169052604080860151905163c87b56dd60e01b81529183169163c87b56dd9161130a9160040190815260200190565b60006040518083038186803b15801561132257600080fd5b505afa158015611336573d6000803e3d6000fd5b505050506040513d6000823e601f3d908101601f1916820160405261135e919081019061375f565b6101808501525081905061137181614063565b91505061120b565b508084868151811061139b57634e487b7160e01b600052603260045260246000fd5b60209081029190910101526113b1600186613e89565b945050505b806113c081614063565b915050610fb9565b606060008290506000816001600160a01b03166318160ddd6040518163ffffffff1660e01b815260040160206040518083038186803b15801561140a57600080fd5b505afa15801561141e573d6000803e3d6000fd5b505050506040513d601f19601f8201168201806040525081019061144291906138c9565b90506000808267ffffffffffffffff81111561146e57634e487b7160e01b600052604160045260246000fd5b6040519080825280602002602001820160405280156114a757816020015b611494613533565b81526020019060019003908161148c5790505b50905060005b838110156117f857604080516001808252818301909252600091816020015b6115096040518060a0016040528060006001600160a01b031681526020016000815260200160008152602001600081526020016000151581525090565b8152602001906001900390816114cc57905050604051634f6ccce760e01b8152600481018490529091506000906001600160a01b03881690634f6ccce79060240160206040518083038186803b15801561156257600080fd5b505afa158015611576573d6000803e3d6000fd5b505050506040513d601f19601f8201168201806040525081019061159a91906138c9565b6040516331a9108f60e11b815260048101829052909150899081906000906001600160a01b03831690636352211e9060240160206040518083038186803b1580156115e457600080fd5b505afa1580156115f8573d6000803e3d6000fd5b505050506040513d601f19601f8201168201806040525081019061161c919061362d565b60405163c87b56dd60e01b8152600481018690529091506000906001600160a01b0384169063c87b56dd9060240160006040518083038186803b15801561166257600080fd5b505afa158015611676573d6000803e3d6000fd5b505050506040513d6000823e601f3d908101601f1916820160405261169e919081019061375f565b90506040518060a00160405280836001600160a01b0316815260200160008152602001600081526020016000815260200160001515815250866000815181106116f757634e487b7160e01b600052603260045260246000fd5b60200260200101819052506000604051806101a00160405280600081526020018f6001600160a01b03168152602001878152602001846001600160a01b0316815260200188815260200160006001600160601b0316815260200160006001600160a01b031681526020016001151581526020016001151581526020016001815260200160cb604051806020016040529081600082015481525050815260200160001515815260200183815250905080898b815181106117c657634e487b7160e01b600052603260045260246000fd5b60209081029190910101526117dc60018b613e89565b99505050505050505080806117f090614063565b9150506114ad565b5095945050505050565b60008061180e83612840565b905061185b8161182160e0860186613deb565b8080601f01602080910402602001604051908101604052809392919081815260200183838082843760009201919091525061292e92505050565b9392505050565b6000600260015414156118875760405162461bcd60e51b8152600401610b4290613d7d565b600260015560cd546001600160a01b031633146118d75760405162461bcd60e51b815260206004820152600e60248201526d139bdd08105d5d1a1bdc9a5e995960921b6044820152606401610b42565b6118e385858486612952565b6001805595945050505050565b6000600260015414156119155760405162461bcd60e51b8152600401610b4290613d7d565b6002600155602083013561193b5760405162461bcd60e51b8152600401610b4290613db4565b600061194660cb5490565b611951906001613e89565b905061195e848483612b90565b60018055949350505050565b60cd546001600160a01b031633146119b95760405162461bcd60e51b81526020600482015260126024820152712737ba1021b7b93932b1ba1021b0b63632b960711b6044820152606401610b42565b600060cf5411611a015760405162461bcd60e51b81526020600482015260136024820152724e6f7468696e6720746f20776974686472617760681b6044820152606401610b42565b60cf54604051339180156108fc02916000818181858888f19350505050158015611a2f573d6000803e3d6000fd5b50600060cf55565b600084815260cc60205260408120600981015482919060ff1615611b60578054600090815260cc602052604080822060018101546002909101549151627eeac760e11b815233600482015260248101929092526001600160a01b03169190829062fdd58e9060440160206040518083038186803b158015611ab757600080fd5b505afa158015611acb573d6000803e3d6000fd5b505050506040513d601f19601f82011682018060405250810190611aef91906138c9565b11611b0c5760405162461bcd60e51b8152600401610b4290613c84565b600088815260cc60205260409020600401805488908110611b3d57634e487b7160e01b600052603260045260246000fd5b60009182526020909120600590910201546001600160a01b03169250611bfa9050565b8054600090815260cc602052604090819020600181015460029091015491516331a9108f60e11b815260048101929092526001600160a01b0316908190636352211e9060240160206040518083038186803b158015611bbe57600080fd5b505afa158015611bd2573d6000803e3d6000fd5b505050506040513d601f19601f82011682018060405250810190611bf6919061362d565b9250505b336001600160a01b03831614611c225760405162461bcd60e51b8152600401610b4290613c84565b60008411611c425760405162461bcd60e51b8152600401610b4290613db4565b600087815260cc60205260409020600401805485919088908110611c7657634e487b7160e01b600052603260045260246000fd5b9060005260206000209060050201600101819055508460cc60008981526020019081526020016000206004018781548110611cc157634e487b7160e01b600052603260045260246000fd5b6000918252602080832060046005909302018201805494151560ff199095169490941790935589825260cc9092526040902001805483919088908110611d1757634e487b7160e01b600052603260045260246000fd5b6000918252602090912060059091020180546001600160a01b0319166001600160a01b039290921691909117905584151560011415611d83578054600090815260cc602052604090206001810154600290910154611d81916001600160a01b031690869033612e9c565b505b5060019695505050505050565b60008054610100900460ff1615611dd7578160ff166001148015611db35750303b155b611dcf5760405162461bcd60e51b8152600401610b4290613ce4565b506000610f34565b60005460ff808416911610611dfe5760405162461bcd60e51b8152600401610b4290613ce4565b506000805460ff191660ff83161790556001610f34565b600054610100900460ff16611e3c5760405162461bcd60e51b8152600401610b4290613d32565b611e468282612f4c565b5050565b600054610100900460ff16611e715760405162461bcd60e51b8152600401610b4290613d32565b610b1b612f8d565b600054610100900460ff16611ea05760405162461bcd60e51b8152600401610b4290613d32565b610b1b612fba565b60995460ff16611ef15760405162461bcd60e51b815260206004820152601460248201527314185d5cd8589b194e881b9bdd081c185d5cd95960621b6044820152606401610b42565b6099805460ff191690557f5db9ee0a495bf2e6ff9c91a7834c1ba4fdd244a5e8aa4e537bd38aeae4b073aa335b6040516001600160a01b03909116815260200160405180910390a1565b600080836020013511611f605760405162461bcd60e51b8152600401610b4290613db4565b6000611f6b60cb5490565b611f76906001613e89565b90506000611f85858584612b90565b905080611fc95760405162461bcd60e51b815260206004820152601260248201527111985a5b1959081d1bc8135a5b9d0813919560721b6044820152606401610b42565b600082815260cc6020526040812060080154611fe790600190613feb565b9050611ff38382612206565b9695505050505050565b6000808360200135116120225760405162461bcd60e51b8152600401610b4290613db4565b600082815260cc6020526040908190208381556001810180546001600160a01b03808a166001600160a01b0319928316179092558635600284015560039092018054918b169190921617905561207e9060608501908501613989565b600083815260cc602052604090206001600160601b0391909116600160601b6001600160a01b03871602176005909101556120bf6080840160608501613727565b600083815260cc6020526040902060068101805461ff00199315159390931661ffff199093169290921761010017909155608084013560079091015561210b60c0840160a08501613727565b600083815260cc6020818152604080842060098101805460ff191696151596909617909555805160a0810182526001600160a01b038c168152888301358184015293879052919052600483019290820190612167906008015490565b8152602080820186905260016040928301819052845480820186556000958652828620855160059092020180546001600160a01b0319166001600160a01b039092169190911781558483015181830155848401516002820155606085015160038201556080909401516004909401805460ff19169415159490941790935585845260cc9052909120600801805490910190555060019695505050505050565b600082815260cc6020526040812060048101805483929183918690811061223d57634e487b7160e01b600052603260045260246000fd5b6000918252602090912060046005909202019081015490915060ff1615156001146122995760405162461bcd60e51b815260206004820152600c60248201526b4e6f7420666f722073616c6560a01b6044820152606401610b42565b80600101549250600083116122c05760405162461bcd60e51b8152600401610b4290613db4565b80546001600160a01b031660006122d8856003612fed565b6001850154600286015460405163152a902d60e11b81526004810191909152602481018890529192506001600160a01b03169060009081908390632a55205a90604401604080518083038186803b15801561233257600080fd5b505afa158015612346573d6000803e3d6000fd5b505050506040513d601f19601f8201168201806040525081019061236a91906136fa565b909250905060006123858261237f8b88613032565b90613032565b600989015490915060ff1615612444576001880154600789015460028a0154604051627eeac760e11b815233600482015260248101919091526001600160a01b0390921691829062fdd58e9060440160206040518083038186803b1580156123ec57600080fd5b505afa158015612400573d6000803e3d6000fd5b505050506040513d601f19601f8201168201806040525081019061242491906138c9565b10156124425760405162461bcd60e51b8152600401610b4290613c84565b505b600688015460ff168061246957506005880154600160601b90046001600160a01b0316155b156124f1576040516001600160a01b0387169082156108fc029083906000818181858888f193505050501580156124a4573d6000803e3d6000fd5b506040516001600160a01b0384169083156108fc029084906000818181858888f193505050501580156124db573d6000803e3d6000fd5b5060cf546124e9908661303e565b60cf556127a9565b6005880154604051636eb1769f60e11b8152336004820152306024820152600160601b9091046001600160a01b0316908a90829063dd62ed3e9060440160206040518083038186803b15801561254657600080fd5b505afa15801561255a573d6000803e3d6000fd5b505050506040513d601f19601f8201168201806040525081019061257e91906138c9565b10612766576040516323b872dd60e01b81526001600160a01b038216906323b872dd906125b39033908b908790600401613aa1565b602060405180830381600087803b1580156125cd57600080fd5b505af11580156125e1573d6000803e3d6000fd5b505050506040513d601f19601f820116820180604052508101906126059190613743565b6126215760405162461bcd60e51b8152600401610b4290613cbb565b60cd546040516323b872dd60e01b81526001600160a01b03808416926323b872dd9261265592339216908b90600401613aa1565b602060405180830381600087803b15801561266f57600080fd5b505af1158015612683573d6000803e3d6000fd5b505050506040513d601f19601f820116820180604052508101906126a79190613743565b6126c35760405162461bcd60e51b8152600401610b4290613cbb565b6040516323b872dd60e01b81526001600160a01b038216906323b872dd906126f390339088908890600401613aa1565b602060405180830381600087803b15801561270d57600080fd5b505af1158015612721573d6000803e3d6000fd5b505050506040513d601f19601f820116820180604052508101906127459190613743565b6127615760405162461bcd60e51b8152600401610b4290613cbb565b6127a7565b60405162461bcd60e51b8152602060048201526016602482015275496e73756666696369656e7420416c6c6f77616e636560501b6044820152606401610b42565b505b6127b58c8c8833612952565b9c9b505050505050505050505050565b60995460ff161561280b5760405162461bcd60e51b815260206004820152601060248201526f14185d5cd8589b194e881c185d5cd95960821b6044820152606401610b42565b6099805460ff191660011790557f62e78cea01bee320cd4e420270b5ea74000d11b0c9f74754ebdbfc544b05a258611f1e3390565b60006129287f9f1b4f1ae6f22c440250f116238e331a00e9e0958ff40b35a30f5bd632c98b518335602085013561287d6060870160408801613989565b61288d6080880160608901613727565b60808801356128a260c08a0160a08b01613727565b6128af60c08b018b613deb565b6040516128bd929190613a75565b60408051918290038220602083019990995281019690965260608601949094526001600160601b039092166080850152151560a084015260c0830152151560e0820152610100810191909152610120016040516020818303038152906040528051906020012061304a565b92915050565b600080600061293d8585613098565b9150915061294a81613108565b509392505050565b600084815260cc602052604081206004810180548391908790811061298757634e487b7160e01b600052603260045260246000fd5b6000918252602090912060046005909202019081015490915060ff1615156001146129e35760405162461bcd60e51b815260206004820152600c60248201526b4e6f7420666f722073616c6560a01b6044820152606401610b42565b600180820154908301546001600160a01b0316600090815260ce6020526040902054612a0e9161303e565b600180840180546001600160a01b03908116600090815260ce602052604090209390935554908301546002850154612a4c939290921691889061330e565b50600982015460ff1615612aed576001828101546002840154604051637921219560e11b81526001600160a01b03898116600483015288811660248301526044820192909252606481019390935260a06084840152600060a48401521690819063f242432a9060c401600060405180830381600087803b158015612acf57600080fd5b505af1158015612ae3573d6000803e3d6000fd5b5050505050612b5d565b600182015460028301546040516323b872dd60e01b81526001600160a01b039092169182916323b872dd91612b29918a918a9190600401613aa1565b600060405180830381600087803b158015612b4357600080fd5b505af1158015612b57573d6000803e3d6000fd5b50505050505b80546001600160a01b0385166001600160a01b0319909116178155600401805460ff191690555060019050949350505050565b600081815260cc6020526040812060078101546008909101541115612be75760405162461bcd60e51b815260206004820152600d60248201526c4d696e74204f766572666c6f7760981b6044820152606401610b42565b6000612bf285611802565b90506000612c0660c0870160a08801613727565b15612d2d57846001600160a01b038116633ef1f7a6848935612c2b60c08c018c613deb565b612c3b60608e0160408f01613989565b8d608001356040518763ffffffff1660e01b8152600401612c6196959493929190613b08565b602060405180830381600087803b158015612c7b57600080fd5b505af1158015612c8f573d6000803e3d6000fd5b505050506040513d601f19601f82011682018060405250810190612cb39190613743565b50806001600160a01b031663899e31066040518163ffffffff1660e01b815260040160206040518083038186803b158015612ced57600080fd5b505afa158015612d01573d6000803e3d6000fd5b505050506040513d601f19601f82011682018060405250810190612d25919061362d565b915050612e45565b846001600160a01b03811663a2b929ea848935612d4d60c08c018c613deb565b612d5d60608e0160408f01613989565b6040518663ffffffff1660e01b8152600401612d7d959493929190613ac5565b602060405180830381600087803b158015612d9757600080fd5b505af1158015612dab573d6000803e3d6000fd5b505050506040513d601f19601f82011682018060405250810190612dcf9190613743565b50806001600160a01b031663899e31066040518163ffffffff1660e01b815260040160206040518083038186803b158015612e0957600080fd5b505afa158015612e1d573d6000803e3d6000fd5b505050506040513d601f19601f82011682018060405250810190612e41919061362d565b9150505b6000612e55838488858b8a611ffd565b90508015611ff357612e6b60cb80546001019055565b612e9186886020013560cc60008981526020019081526020016000206002015486612e9c565b509695505050505050565b604051602481018490526001600160a01b03828116604483015260648201849052600091829187169060840160408051601f198184030181529181526020820180516001600160e01b0316633f2c55ab60e21b17905251612efd9190613a85565b6000604051808303816000865af19150503d8060008114612f3a576040519150601f19603f3d011682016040523d82523d6000602084013e612f3f565b606091505b5090979650505050505050565b600054610100900460ff16612f735760405162461bcd60e51b8152600401610b4290613d32565b815160209283012081519190920120603391909155603455565b600054610100900460ff16612fb45760405162461bcd60e51b8152600401610b4290613d32565b60018055565b600054610100900460ff16612fe15760405162461bcd60e51b8152600401610b4290613d32565b6099805460ff19169055565b60008061301b612fff6002600a613efe565b61300a906064613fcc565b613015866064613375565b90613381565b905060006130298285613375565b95945050505050565b600061185b8284613feb565b600061185b8284613e89565b600061292861305761338d565b8360405161190160f01b6020820152602281018390526042810182905260009060620160405160208183030381529060405280519060200120905092915050565b6000808251604114156130cf5760208301516040840151606085015160001a6130c38782858561340d565b94509450505050613101565b8251604014156130f957602083015160408401516130ee8683836134fa565b935093505050613101565b506000905060025b9250929050565b600081600481111561312a57634e487b7160e01b600052602160045260246000fd5b14156131355761330b565b600181600481111561315757634e487b7160e01b600052602160045260246000fd5b14156131a55760405162461bcd60e51b815260206004820152601860248201527f45434453413a20696e76616c6964207369676e617475726500000000000000006044820152606401610b42565b60028160048111156131c757634e487b7160e01b600052602160045260246000fd5b14156132155760405162461bcd60e51b815260206004820152601f60248201527f45434453413a20696e76616c6964207369676e6174757265206c656e677468006044820152606401610b42565b600381600481111561323757634e487b7160e01b600052602160045260246000fd5b14156132905760405162461bcd60e51b815260206004820152602260248201527f45434453413a20696e76616c6964207369676e6174757265202773272076616c604482015261756560f01b6064820152608401610b42565b60048160048111156132b257634e487b7160e01b600052602160045260246000fd5b141561330b5760405162461bcd60e51b815260206004820152602260248201527f45434453413a20696e76616c6964207369676e6174757265202776272076616c604482015261756560f01b6064820152608401610b42565b50565b604051602481018490523360448201526001600160a01b03838116606483015260848201839052600091829187169060a40160408051601f198184030181529181526020820180516001600160e01b0316639841aa7560e01b17905251612efd9190613a85565b600061185b8284613fcc565b600061185b8284613ea1565b60006134087f8b73c3c69bb8fe3d512ecc4cf759cc79239f7b179b0ffacaa9a75d522b39400f6133bc60335490565b6034546040805160208101859052908101839052606081018290524660808201523060a082015260009060c0016040516020818303038152906040528051906020012090509392505050565b905090565b6000807f7fffffffffffffffffffffffffffffff5d576e7357a4501ddfe92f46681b20a083111561344457506000905060036134f1565b8460ff16601b1415801561345c57508460ff16601c14155b1561346d57506000905060046134f1565b6040805160008082526020820180845289905260ff881692820192909252606081018690526080810185905260019060a0016020604051602081039080840390855afa1580156134c1573d6000803e3d6000fd5b5050604051601f1901519150506001600160a01b0381166134ea576000600192509250506134f1565b9150600090505b94509492505050565b6000806001600160ff1b0383168161351760ff86901c601b613e89565b90506135258782888561340d565b935093505050935093915050565b604080516101a081018252600080825260208083018290528284018290526060808401839052608084015260a0830182905260c0830182905260e08301829052610100830182905261012083018290528351908101909352825290610140820190815260006020820152606060409091015290565b600082601f8301126135b8578081fd5b81356135cb6135c682613e61565b613e30565b8181528460208386010111156135df578283fd5b816020850160208301379081016020019190915292915050565b6000610100828403121561360b578081fd5b50919050565b600060208284031215613622578081fd5b813561185b816140aa565b60006020828403121561363e578081fd5b815161185b816140aa565b600080600080600060a08688031215613660578081fd5b853561366b816140aa565b9450602086013561367b816140aa565b9350604086013561368b816140aa565b9250606086013561369b816140aa565b9150608086013567ffffffffffffffff8111156136b6578182fd5b6136c2888289016135f9565b9150509295509295909350565b600080604083850312156136e1578182fd5b82356136ec816140aa565b946020939093013593505050565b6000806040838503121561370c578182fd5b8251613717816140aa565b6020939093015192949293505050565b600060208284031215613738578081fd5b813561185b816140bf565b600060208284031215613754578081fd5b815161185b816140bf565b600060208284031215613770578081fd5b815167ffffffffffffffff811115613786578182fd5b8201601f81018413613796578182fd5b80516137a46135c682613e61565b8181528560208385010111156137b8578384fd5b613029826020830160208601614002565b6000806000606084860312156137dd578283fd5b833567ffffffffffffffff808211156137f4578485fd5b613800878388016135a8565b94506020860135915080821115613815578384fd5b50613822868287016135a8565b9250506040840135613833816140aa565b809150509250925092565b60006020828403121561384f578081fd5b813567ffffffffffffffff811115613865578182fd5b613871848285016135f9565b949350505050565b6000806040838503121561388b578182fd5b823567ffffffffffffffff8111156138a1578283fd5b6138ad858286016135f9565b92505060208301356138be816140aa565b809150509250929050565b6000602082840312156138da578081fd5b5051919050565b600080604083850312156138f3578182fd5b50508035926020909101359150565b60008060008060808587031215613917578182fd5b84359350602085013592506040850135613930816140aa565b91506060850135613940816140aa565b939692955090935050565b60008060008060808587031215613960578182fd5b84359350602085013592506040850135613979816140bf565b9396929550929360600135925050565b60006020828403121561399a578081fd5b81356001600160601b038116811461185b578182fd5b6000815180845260208085019450808401835b83811015613a1457815180516001600160a01b031688528381015184890152604080820151908901526060808201519089015260809081015115159088015260a090960195908201906001016139c3565b509495945050505050565b60008284528282602086013780602084860101526020601f19601f85011685010190509392505050565b60008151808452613a61816020860160208601614002565b601f01601f19169290920160200192915050565b6000828483379101908152919050565b60008251613a97818460208701614002565b9190910192915050565b6001600160a01b039384168152919092166020820152604081019190915260600190565b600060018060a01b038716825285602083015260806040830152613aed608083018587613a1f565b90506001600160601b03831660608301529695505050505050565b600060018060a01b038816825286602083015260a06040830152613b3060a083018688613a1f565b6001600160601b039490941660608301525060800152949350505050565b60006020808301818452808551808352604092508286019150828160051b870101848801865b83811015613c7657888303603f19018552815180518452878101516001600160a01b038116898601526101a0905081880151858901526060808301516001600160a01b0381168288015250506080808301518282880152613bd7838801826139b0565b9250505060a080830151613bf5828801826001600160601b03169052565b505060c0828101516001600160a01b03169086015260e080830151151590860152610100808301511515908601526101208083015190860152610140808301515190860152610160808301511515908601526101809182015185820392860192909252613c628183613a49565b968901969450505090860190600101613b74565b509098975050505050505050565b60208082526019908201527f73656e64657220646f6573206e6f74206f776e20746f6b656e00000000000000604082015260600190565b6020808252600f908201526e1d1c985b9cd9995c8811985a5b1959608a1b604082015260600190565b6020808252602e908201527f496e697469616c697a61626c653a20636f6e747261637420697320616c72656160408201526d191e481a5b9a5d1a585b1a5e995960921b606082015260800190565b6020808252602b908201527f496e697469616c697a61626c653a20636f6e7472616374206973206e6f74206960408201526a6e697469616c697a696e6760a81b606082015260800190565b6020808252601f908201527f5265656e7472616e637947756172643a207265656e7472616e742063616c6c00604082015260600190565b6020808252601c908201527f5072696365206d757374206265206174206c6561737420312077656900000000604082015260600190565b6000808335601e19843603018112613e01578283fd5b83018035915067ffffffffffffffff821115613e1b578283fd5b60200191503681900382131561310157600080fd5b604051601f8201601f1916810167ffffffffffffffff81118282101715613e5957613e59614094565b604052919050565b600067ffffffffffffffff821115613e7b57613e7b614094565b50601f01601f191660200190565b60008219821115613e9c57613e9c61407e565b500190565b600082613ebc57634e487b7160e01b81526012600452602481fd5b500490565b80825b6001808611613ed357506134f1565b818704821115613ee557613ee561407e565b80861615613ef257918102915b9490941c938002613ec4565b600061185b6000198484600082613f175750600161185b565b81613f245750600061185b565b8160018114613f3a5760028114613f4457613f71565b600191505061185b565b60ff841115613f5557613f5561407e565b6001841b915084821115613f6b57613f6b61407e565b5061185b565b5060208310610133831016604e8410600b8410161715613fa4575081810a83811115613f9f57613f9f61407e565b61185b565b613fb18484846001613ec1565b808604821115613fc357613fc361407e565b02949350505050565b6000816000190483118215151615613fe657613fe661407e565b500290565b600082821015613ffd57613ffd61407e565b500390565b60005b8381101561401d578181015183820152602001614005565b8381111561044b5750506000910152565b600181811c9082168061404257607f821691505b6020821081141561360b57634e487b7160e01b600052602260045260246000fd5b60006000198214156140775761407761407e565b5060010190565b634e487b7160e01b600052601160045260246000fd5b634e487b7160e01b600052604160045260246000fd5b6001600160a01b038116811461330b57600080fd5b801515811461330b57600080fdfea264697066735822122040d6de83cb9fc83a9dced726711e310d6d3903fb2e812e5ce96c09ee419bb2c364736f6c63430008030033",
  "linkReferences": {},
  "deployedLinkReferences": {}
}