{
  "_format": "hh-sol-artifact-1",
  "contractName": "ThredMarketplace",
  "sourceName": "contracts/ThredMarketplace/ThredMarketplace.sol",
  "abi": [
    {
      "inputs": [
        {
          "internalType": "string",
          "name": "domain",
          "type": "string"
        },
        {
          "internalType": "string",
          "name": "version",
          "type": "string"
        },
        {
          "internalType": "address",
          "name": "marketplaceAddress",
          "type": "address"
        }
      ],
      "stateMutability": "nonpayable",
      "type": "constructor"
    },
    {
      "anonymous": false,
      "inputs": [
        {
          "indexed": true,
          "internalType": "address",
          "name": "sender",
          "type": "address"
        },
        {
          "indexed": false,
          "internalType": "uint256",
          "name": "amount",
          "type": "uint256"
        }
      ],
      "name": "Bid",
      "type": "event"
    },
    {
      "anonymous": false,
      "inputs": [
        {
          "indexed": false,
          "internalType": "address",
          "name": "winner",
          "type": "address"
        },
        {
          "indexed": false,
          "internalType": "uint256",
          "name": "amount",
          "type": "uint256"
        }
      ],
      "name": "End",
      "type": "event"
    },
    {
      "anonymous": false,
      "inputs": [],
      "name": "Start",
      "type": "event"
    },
    {
      "anonymous": false,
      "inputs": [
        {
          "indexed": true,
          "internalType": "address",
          "name": "bidder",
          "type": "address"
        },
        {
          "indexed": false,
          "internalType": "uint256",
          "name": "amount",
          "type": "uint256"
        }
      ],
      "name": "Withdraw",
      "type": "event"
    },
    {
      "inputs": [
        {
          "internalType": "address payable",
          "name": "nftOwner",
          "type": "address"
        },
        {
          "internalType": "address payable",
          "name": "nftSeller",
          "type": "address"
        },
        {
          "internalType": "address",
          "name": "nftContract",
          "type": "address"
        },
        {
          "internalType": "address",
          "name": "token",
          "type": "address"
        },
        {
          "components": [
            {
              "internalType": "uint256",
              "name": "tokenId",
              "type": "uint256"
            },
            {
              "internalType": "uint256",
              "name": "minPrice",
              "type": "uint256"
            },
            {
              "internalType": "uint96",
              "name": "royalty",
              "type": "uint96"
            },
            {
              "internalType": "bool",
              "name": "isNative",
              "type": "bool"
            },
            {
              "internalType": "uint256",
              "name": "amount",
              "type": "uint256"
            },
            {
              "internalType": "bool",
              "name": "fungible",
              "type": "bool"
            },
            {
              "internalType": "string",
              "name": "uri",
              "type": "string"
            },
            {
              "internalType": "bytes",
              "name": "signature",
              "type": "bytes"
            }
          ],
          "internalType": "struct ThredMarketplace.NFTVoucher",
          "name": "voucher",
          "type": "tuple"
        }
      ],
      "name": "createMarketItem",
      "outputs": [
        {
          "internalType": "bool",
          "name": "",
          "type": "bool"
        }
      ],
      "stateMutability": "nonpayable",
      "type": "function"
    },
    {
      "inputs": [
        {
          "internalType": "uint256",
          "name": "item",
          "type": "uint256"
        },
        {
          "internalType": "uint256",
          "name": "variation",
          "type": "uint256"
        }
      ],
      "name": "createSale",
      "outputs": [
        {
          "internalType": "bool",
          "name": "",
          "type": "bool"
        }
      ],
      "stateMutability": "payable",
      "type": "function"
    },
    {
      "inputs": [
        {
          "internalType": "uint256",
          "name": "item",
          "type": "uint256"
        },
        {
          "internalType": "uint256",
          "name": "variation",
          "type": "uint256"
        }
      ],
      "name": "createSaleCustom",
      "outputs": [
        {
          "internalType": "bool",
          "name": "",
          "type": "bool"
        }
      ],
      "stateMutability": "nonpayable",
      "type": "function"
    },
    {
      "inputs": [
        {
          "internalType": "address",
          "name": "contractAddress",
          "type": "address"
        },
        {
          "internalType": "uint256",
          "name": "tokenId",
          "type": "uint256"
        }
      ],
      "name": "fetchCollectionAsset",
      "outputs": [
        {
          "components": [
            {
              "internalType": "uint256",
              "name": "itemId",
              "type": "uint256"
            },
            {
              "internalType": "address",
              "name": "nftContract",
              "type": "address"
            },
            {
              "internalType": "uint256",
              "name": "tokenId",
              "type": "uint256"
            },
            {
              "internalType": "address payable",
              "name": "owner",
              "type": "address"
            },
            {
              "components": [
                {
                  "internalType": "address payable",
                  "name": "seller",
                  "type": "address"
                },
                {
                  "internalType": "uint256",
                  "name": "price",
                  "type": "uint256"
                },
                {
                  "internalType": "uint256",
                  "name": "variationId",
                  "type": "uint256"
                },
                {
                  "internalType": "uint256",
                  "name": "itemId",
                  "type": "uint256"
                },
                {
                  "internalType": "bool",
                  "name": "forSale",
                  "type": "bool"
                }
              ],
              "internalType": "struct ThredMarketplace.Variation[]",
              "name": "variations",
              "type": "tuple[]"
            },
            {
              "internalType": "uint96",
              "name": "royalty",
              "type": "uint96"
            },
            {
              "internalType": "address",
              "name": "tokenContract",
              "type": "address"
            },
            {
              "internalType": "bool",
              "name": "isNative",
              "type": "bool"
            },
            {
              "internalType": "bool",
              "name": "minted",
              "type": "bool"
            },
            {
              "internalType": "uint256",
              "name": "amount",
              "type": "uint256"
            },
            {
              "components": [
                {
                  "internalType": "uint256",
                  "name": "_value",
                  "type": "uint256"
                }
              ],
              "internalType": "struct Counters.Counter",
              "name": "mintedVariations",
              "type": "tuple"
            },
            {
              "internalType": "bool",
              "name": "fungible",
              "type": "bool"
            }
          ],
          "internalType": "struct ThredMarketplace.MarketItem[]",
          "name": "",
          "type": "tuple[]"
        }
      ],
      "stateMutability": "view",
      "type": "function"
    },
    {
      "inputs": [
        {
          "internalType": "address",
          "name": "contractAddress",
          "type": "address"
        }
      ],
      "name": "fetchCollectionAssets",
      "outputs": [
        {
          "components": [
            {
              "internalType": "uint256",
              "name": "itemId",
              "type": "uint256"
            },
            {
              "internalType": "address",
              "name": "nftContract",
              "type": "address"
            },
            {
              "internalType": "uint256",
              "name": "tokenId",
              "type": "uint256"
            },
            {
              "internalType": "address payable",
              "name": "owner",
              "type": "address"
            },
            {
              "components": [
                {
                  "internalType": "address payable",
                  "name": "seller",
                  "type": "address"
                },
                {
                  "internalType": "uint256",
                  "name": "price",
                  "type": "uint256"
                },
                {
                  "internalType": "uint256",
                  "name": "variationId",
                  "type": "uint256"
                },
                {
                  "internalType": "uint256",
                  "name": "itemId",
                  "type": "uint256"
                },
                {
                  "internalType": "bool",
                  "name": "forSale",
                  "type": "bool"
                }
              ],
              "internalType": "struct ThredMarketplace.Variation[]",
              "name": "variations",
              "type": "tuple[]"
            },
            {
              "internalType": "uint96",
              "name": "royalty",
              "type": "uint96"
            },
            {
              "internalType": "address",
              "name": "tokenContract",
              "type": "address"
            },
            {
              "internalType": "bool",
              "name": "isNative",
              "type": "bool"
            },
            {
              "internalType": "bool",
              "name": "minted",
              "type": "bool"
            },
            {
              "internalType": "uint256",
              "name": "amount",
              "type": "uint256"
            },
            {
              "components": [
                {
                  "internalType": "uint256",
                  "name": "_value",
                  "type": "uint256"
                }
              ],
              "internalType": "struct Counters.Counter",
              "name": "mintedVariations",
              "type": "tuple"
            },
            {
              "internalType": "bool",
              "name": "fungible",
              "type": "bool"
            }
          ],
          "internalType": "struct ThredMarketplace.MarketItem[]",
          "name": "",
          "type": "tuple[]"
        }
      ],
      "stateMutability": "view",
      "type": "function"
    },
    {
      "inputs": [
        {
          "internalType": "address",
          "name": "marketAddress",
          "type": "address"
        }
      ],
      "name": "fetchMarketAssets",
      "outputs": [
        {
          "components": [
            {
              "internalType": "uint256",
              "name": "itemId",
              "type": "uint256"
            },
            {
              "internalType": "address",
              "name": "nftContract",
              "type": "address"
            },
            {
              "internalType": "uint256",
              "name": "tokenId",
              "type": "uint256"
            },
            {
              "internalType": "address payable",
              "name": "owner",
              "type": "address"
            },
            {
              "components": [
                {
                  "internalType": "address payable",
                  "name": "seller",
                  "type": "address"
                },
                {
                  "internalType": "uint256",
                  "name": "price",
                  "type": "uint256"
                },
                {
                  "internalType": "uint256",
                  "name": "variationId",
                  "type": "uint256"
                },
                {
                  "internalType": "uint256",
                  "name": "itemId",
                  "type": "uint256"
                },
                {
                  "internalType": "bool",
                  "name": "forSale",
                  "type": "bool"
                }
              ],
              "internalType": "struct ThredMarketplace.Variation[]",
              "name": "variations",
              "type": "tuple[]"
            },
            {
              "internalType": "uint96",
              "name": "royalty",
              "type": "uint96"
            },
            {
              "internalType": "address",
              "name": "tokenContract",
              "type": "address"
            },
            {
              "internalType": "bool",
              "name": "isNative",
              "type": "bool"
            },
            {
              "internalType": "bool",
              "name": "minted",
              "type": "bool"
            },
            {
              "internalType": "uint256",
              "name": "amount",
              "type": "uint256"
            },
            {
              "components": [
                {
                  "internalType": "uint256",
                  "name": "_value",
                  "type": "uint256"
                }
              ],
              "internalType": "struct Counters.Counter",
              "name": "mintedVariations",
              "type": "tuple"
            },
            {
              "internalType": "bool",
              "name": "fungible",
              "type": "bool"
            }
          ],
          "internalType": "struct ThredMarketplace.MarketItem[]",
          "name": "",
          "type": "tuple[]"
        }
      ],
      "stateMutability": "view",
      "type": "function"
    },
    {
      "inputs": [],
      "name": "getChainID",
      "outputs": [
        {
          "internalType": "uint256",
          "name": "",
          "type": "uint256"
        }
      ],
      "stateMutability": "view",
      "type": "function"
    },
    {
      "inputs": [
        {
          "components": [
            {
              "internalType": "uint256",
              "name": "tokenId",
              "type": "uint256"
            },
            {
              "internalType": "uint256",
              "name": "minPrice",
              "type": "uint256"
            },
            {
              "internalType": "uint96",
              "name": "royalty",
              "type": "uint96"
            },
            {
              "internalType": "bool",
              "name": "isNative",
              "type": "bool"
            },
            {
              "internalType": "uint256",
              "name": "amount",
              "type": "uint256"
            },
            {
              "internalType": "bool",
              "name": "fungible",
              "type": "bool"
            },
            {
              "internalType": "string",
              "name": "uri",
              "type": "string"
            },
            {
              "internalType": "bytes",
              "name": "signature",
              "type": "bytes"
            }
          ],
          "internalType": "struct ThredMarketplace.NFTVoucher",
          "name": "voucher",
          "type": "tuple"
        },
        {
          "internalType": "address",
          "name": "contractAddress",
          "type": "address"
        }
      ],
      "name": "mintAndTransfer",
      "outputs": [
        {
          "internalType": "bool",
          "name": "",
          "type": "bool"
        }
      ],
      "stateMutability": "payable",
      "type": "function"
    },
    {
      "inputs": [
        {
          "components": [
            {
              "internalType": "uint256",
              "name": "tokenId",
              "type": "uint256"
            },
            {
              "internalType": "uint256",
              "name": "minPrice",
              "type": "uint256"
            },
            {
              "internalType": "uint96",
              "name": "royalty",
              "type": "uint96"
            },
            {
              "internalType": "bool",
              "name": "isNative",
              "type": "bool"
            },
            {
              "internalType": "uint256",
              "name": "amount",
              "type": "uint256"
            },
            {
              "internalType": "bool",
              "name": "fungible",
              "type": "bool"
            },
            {
              "internalType": "string",
              "name": "uri",
              "type": "string"
            },
            {
              "internalType": "bytes",
              "name": "signature",
              "type": "bytes"
            }
          ],
          "internalType": "struct ThredMarketplace.NFTVoucher",
          "name": "voucher",
          "type": "tuple"
        },
        {
          "internalType": "address",
          "name": "contractAddress",
          "type": "address"
        }
      ],
      "name": "mintAndTransferCustom",
      "outputs": [
        {
          "internalType": "bool",
          "name": "",
          "type": "bool"
        }
      ],
      "stateMutability": "nonpayable",
      "type": "function"
    },
    {
      "inputs": [
        {
          "components": [
            {
              "internalType": "uint256",
              "name": "tokenId",
              "type": "uint256"
            },
            {
              "internalType": "uint256",
              "name": "minPrice",
              "type": "uint256"
            },
            {
              "internalType": "uint96",
              "name": "royalty",
              "type": "uint96"
            },
            {
              "internalType": "bool",
              "name": "isNative",
              "type": "bool"
            },
            {
              "internalType": "uint256",
              "name": "amount",
              "type": "uint256"
            },
            {
              "internalType": "bool",
              "name": "fungible",
              "type": "bool"
            },
            {
              "internalType": "string",
              "name": "uri",
              "type": "string"
            },
            {
              "internalType": "bytes",
              "name": "signature",
              "type": "bytes"
            }
          ],
          "internalType": "struct ThredMarketplace.NFTVoucher",
          "name": "voucher",
          "type": "tuple"
        },
        {
          "internalType": "address",
          "name": "nftContract",
          "type": "address"
        }
      ],
      "name": "mintNFT",
      "outputs": [
        {
          "internalType": "bool",
          "name": "",
          "type": "bool"
        }
      ],
      "stateMutability": "nonpayable",
      "type": "function"
    },
    {
      "inputs": [
        {
          "internalType": "uint256",
          "name": "itemId",
          "type": "uint256"
        },
        {
          "internalType": "uint256",
          "name": "v",
          "type": "uint256"
        },
        {
          "internalType": "address",
          "name": "from",
          "type": "address"
        },
        {
          "internalType": "address",
          "name": "to",
          "type": "address"
        }
      ],
      "name": "transferNFTSale",
      "outputs": [
        {
          "internalType": "bool",
          "name": "",
          "type": "bool"
        }
      ],
      "stateMutability": "payable",
      "type": "function"
    },
    {
      "inputs": [
        {
          "internalType": "uint256",
          "name": "itemId",
          "type": "uint256"
        },
        {
          "internalType": "uint256",
          "name": "variation",
          "type": "uint256"
        },
        {
          "internalType": "bool",
          "name": "forSale",
          "type": "bool"
        },
        {
          "internalType": "uint256",
          "name": "price",
          "type": "uint256"
        }
      ],
      "name": "updateItem",
      "outputs": [
        {
          "internalType": "bool",
          "name": "",
          "type": "bool"
        }
      ],
      "stateMutability": "nonpayable",
      "type": "function"
    },
    {
      "inputs": [
        {
          "components": [
            {
              "internalType": "uint256",
              "name": "tokenId",
              "type": "uint256"
            },
            {
              "internalType": "uint256",
              "name": "minPrice",
              "type": "uint256"
            },
            {
              "internalType": "uint96",
              "name": "royalty",
              "type": "uint96"
            },
            {
              "internalType": "bool",
              "name": "isNative",
              "type": "bool"
            },
            {
              "internalType": "uint256",
              "name": "amount",
              "type": "uint256"
            },
            {
              "internalType": "bool",
              "name": "fungible",
              "type": "bool"
            },
            {
              "internalType": "string",
              "name": "uri",
              "type": "string"
            },
            {
              "internalType": "bytes",
              "name": "signature",
              "type": "bytes"
            }
          ],
          "internalType": "struct ThredMarketplace.NFTVoucher",
          "name": "voucher",
          "type": "tuple"
        }
      ],
      "name": "verify",
      "outputs": [
        {
          "internalType": "address",
          "name": "",
          "type": "address"
        }
      ],
      "stateMutability": "view",
      "type": "function"
    }
  ],
  "bytecode": "0x6101406040523480156200001257600080fd5b50604051620030b5380380620030b58339810160408190526200003591620001ad565b6001600055825160208085019190912083518483012060e08290526101008190524660a0818152604080517f8b73c3c69bb8fe3d512ecc4cf759cc79239f7b179b0ffacaa9a75d522b39400f81880181905281830187905260608201869052608082019490945230818401528151808203909301835260c001905280519401939093208693869392916080523060601b60c052610120525050600380546001600160a01b0319166001600160a01b039490941693909317909255506200024c92505050565b600082601f8301126200010b578081fd5b81516001600160401b038082111562000128576200012862000236565b604051601f8301601f19908116603f0116810190828211818310171562000153576200015362000236565b816040528381526020925086838588010111156200016f578485fd5b8491505b8382101562000192578582018301518183018401529082019062000173565b83821115620001a357848385830101525b9695505050505050565b600080600060608486031215620001c2578283fd5b83516001600160401b0380821115620001d9578485fd5b620001e787838801620000fa565b94506020860151915080821115620001fd578384fd5b506200020c86828701620000fa565b604086015190935090506001600160a01b03811681146200022b578182fd5b809150509250925092565b634e487b7160e01b600052604160045260246000fd5b60805160a05160c05160601c60e0516101005161012051612e166200029f600039600061234e0152600061239d01526000612378015260006122cf015260006122f9015260006123230152612e166000f3fe6080604052600436106100c25760003560e01c80637c5034201161007f578063d8f9b50d11610059578063d8f9b50d14610209578063dadfb61a1461021c578063dd6a1fbd1461023c578063fa662b7414610257576100c2565b80637c50342014610191578063a4747be5146101b1578063ade1e770146101d1576100c2565b80630ea29a26146100c757806348fc7cd4146100fd57806350517bad14610120578063564b81ef146101405780636019061b146101635780636214d42714610176575b600080fd5b3480156100d357600080fd5b506100e76100e2366004612657565b610277565b6040516100f491906129e8565b60405180910390f35b61011061010b366004612722565b6104ec565b60405190151581526020016100f4565b34801561012c57600080fd5b5061011061013b3660046125d1565b610535565b34801561014c57600080fd5b506101556105a7565b6040519081526020016100f4565b61011061017136600461278a565b6105ac565b34801561018257600080fd5b5061011061010b366004612722565b34801561019d57600080fd5b506100e76101ac366004612599565b6105ea565b3480156101bd57600080fd5b506100e76101cc366004612599565b610869565b3480156101dd57600080fd5b506101f16101ec3660046126e7565b610ae8565b6040516001600160a01b0390911681526020016100f4565b6101106102173660046127ab565b610b48565b34801561022857600080fd5b50610110610237366004612722565b610bd7565b34801561024857600080fd5b5061011061017136600461278a565b34801561026357600080fd5b506101106102723660046127f4565b610c52565b6060600061028460015490565b60408051600180825281830190925291925060009190816020015b6102a7612513565b81526020019060019003908161029f57905050905060005b828110156104e3576001600160a01b038616600260006102e0846001612c13565b81526020810191909152604001600020600101546001600160a01b031614801561032957508460026000610315846001612c13565b815260200190815260200160002060020154145b156104d157600061033b826001612c13565b60008181526002602081815260408084208151610180810183528154815260018201546001600160a01b0390811682860152948201548184015260038201549094166060850152600481018054835181860281018601909452808452969750939590946080870194929384015b828210156104145760008481526020908190206040805160a0810182526005860290920180546001600160a01b0316835260018082015484860152600282015492840192909252600381015460608401526004015460ff161515608083015290835290920191016103a8565b5050509082525060058201546001600160601b038116602080840191909152600160601b9091046001600160a01b0316604080840191909152600684015460ff80821615156060860152610100909104811615156080850152600785015460a085015281519283019091526008840154825260c0830191909152600990920154909116151560e090910152835184906000906104c057634e487b7160e01b600052603260045260246000fd5b6020026020010181905250506104e3565b806104db81612d8c565b9150506102bf565b50949350505050565b60006002600054141561051a5760405162461bcd60e51b815260040161051190612b60565b60405180910390fd5b60026000556105298383610fab565b60016000559392505050565b60006002600054141561055a5760405162461bcd60e51b815260040161051190612b60565b6002600090815560015461056f906001612c13565b9050600061058188888888888761106d565b9050801561059757610597600180546001019055565b6001600055979650505050505050565b465b90565b6000600260005414156105d15760405162461bcd60e51b815260040161051190612b60565b6002600055610529836105e5600185612d75565b61127c565b606060006105f760015490565b90506000808267ffffffffffffffff81111561062357634e487b7160e01b600052604160045260246000fd5b60405190808252806020026020018201604052801561065c57816020015b610649612513565b8152602001906001900390816106415790505b50905060005b838110156104e3576001600160a01b03861660026000610683846001612c13565b81526020810191909152604001600020600301546001600160a01b031614156108575760006106b3826001612c13565b60008181526002602081815260408084208151610180810183528154815260018201546001600160a01b0390811682860152948201548184015260038201549094166060850152600481018054835181860281018601909452808452969750909593948694608087019490919084015b8282101561078f5760008481526020908190206040805160a0810182526005860290920180546001600160a01b0316835260018082015484860152600282015492840192909252600381015460608401526004015460ff16151560808301529083529092019101610723565b5050509082525060058201546001600160601b038116602080840191909152600160601b9091046001600160a01b0316604080840191909152600684015460ff80821615156060860152610100909104811615156080850152600785015460a085015281519283019091526008840154825260c0830191909152600990920154909116151560e090910152845185908790811061083c57634e487b7160e01b600052603260045260246000fd5b6020908102919091010152610852600186612c13565b945050505b8061086181612d8c565b915050610662565b6060600061087660015490565b90506000808267ffffffffffffffff8111156108a257634e487b7160e01b600052604160045260246000fd5b6040519080825280602002602001820160405280156108db57816020015b6108c8612513565b8152602001906001900390816108c05790505b50905060005b838110156104e3576001600160a01b03861660026000610902846001612c13565b81526020810191909152604001600020600101546001600160a01b03161415610ad6576000610932826001612c13565b60008181526002602081815260408084208151610180810183528154815260018201546001600160a01b0390811682860152948201548184015260038201549094166060850152600481018054835181860281018601909452808452969750909593948694608087019490919084015b82821015610a0e5760008481526020908190206040805160a0810182526005860290920180546001600160a01b0316835260018082015484860152600282015492840192909252600381015460608401526004015460ff161515608083015290835290920191016109a2565b5050509082525060058201546001600160601b038116602080840191909152600160601b9091046001600160a01b0316604080840191909152600684015460ff80821615156060860152610100909104811615156080850152600785015460a085015281519283019091526008840154825260c0830191909152600990920154909116151560e0909101528451859087908110610abb57634e487b7160e01b600052603260045260246000fd5b6020908102919091010152610ad1600186612c13565b945050505b80610ae081612d8c565b9150506108e1565b600080610af483611866565b9050610b4181610b0760e0860186612bce565b8080601f01602080910402602001604051908101604052809392919081815260200183838082843760009201919091525061195492505050565b9392505050565b600060026000541415610b6d5760405162461bcd60e51b815260040161051190612b60565b60026000556003546001600160a01b03163314610bbd5760405162461bcd60e51b815260206004820152600e60248201526d139bdd08105d5d1a1bdc9a5e995960921b6044820152606401610511565b610bc985858486611978565b600160005595945050505050565b600060026000541415610bfc5760405162461bcd60e51b815260040161051190612b60565b60026000556020830135610c225760405162461bcd60e51b815260040161051190612b97565b6000610c2d60015490565b610c38906001612c13565b9050610c45848483611b72565b6001600055949350505050565b6000848152600260205260408120600981015482919060ff1615610d7c578054600090815260026020819052604080832060018101549201549051627eeac760e11b815233600482015260248101919091526001600160a01b039091169190829062fdd58e9060440160206040518083038186803b158015610cd357600080fd5b505afa158015610ce7573d6000803e3d6000fd5b505050506040513d601f19601f82011682018060405250810190610d0b9190612772565b11610d285760405162461bcd60e51b815260040161051190612b00565b6000888152600260205260409020600401805488908110610d5957634e487b7160e01b600052603260045260246000fd5b60009182526020909120600590910201546001600160a01b03169250610e159050565b8054600090815260026020819052604091829020600181015491015491516331a9108f60e11b815260048101929092526001600160a01b0316908190636352211e9060240160206040518083038186803b158015610dd957600080fd5b505afa158015610ded573d6000803e3d6000fd5b505050506040513d601f19601f82011682018060405250810190610e1191906125b5565b9250505b336001600160a01b03831614610e3d5760405162461bcd60e51b815260040161051190612b00565b60008411610e5d5760405162461bcd60e51b815260040161051190612b97565b6000878152600260205260409020600401805485919088908110610e9157634e487b7160e01b600052603260045260246000fd5b90600052602060002090600502016001018190555084600260008981526020019081526020016000206004018781548110610edc57634e487b7160e01b600052603260045260246000fd5b6000918252602080832060046005909302018201805494151560ff199095169490941790935589825260029092526040902001805483919088908110610f3257634e487b7160e01b600052603260045260246000fd5b6000918252602090912060059091020180546001600160a01b0319166001600160a01b039290921691909117905584151560011415610f9e57805460009081526002602081905260409091206001810154910154610f9c916001600160a01b031690869033611e7e565b505b5060019695505050505050565b600080836020013511610fd05760405162461bcd60e51b815260040161051190612b97565b6000610fdb60015490565b610fe6906001612c13565b90506000610ff5858584611b72565b9050806110395760405162461bcd60e51b815260206004820152601260248201527111985a5b1959081d1bc8135a5b9d0813919560721b6044820152606401610511565b60008281526002602052604081206008015461105790600190612d75565b9050611063838261127c565b9695505050505050565b6000808360200135116110925760405162461bcd60e51b815260040161051190612b97565b6000828152600260208190526040918290208481556001810180546001600160a01b03808b166001600160a01b03199283161790925587359383019390935560039091018054918b16919092161790556110f29060608501908501612832565b60008381526002602052604090206001600160601b0391909116600160601b6001600160a01b038716021760059091015561113360808401606085016126af565b600083815260026020526040902060068101805461ff00199315159390931661ffff199093169290921761010017909155608084013560079091015561117f60c0840160a085016126af565b600083815260026020818152604080842060098101805460ff191696151596909617909555805160a0810182526001600160a01b038c1681528883013581840152938790529190526004830192908201906111db906008015490565b8152602080820186905260016040928301819052845480820186556000958652828620855160059092020180546001600160a01b0319166001600160a01b03909216919091178155848301518183015584840151600280830191909155606086015160038301556080909501516004909101805460ff1916911515919091179055868552929052909120600801805490910190555060019695505050505050565b60008281526002602052604081206004810180548392918391869081106112b357634e487b7160e01b600052603260045260246000fd5b6000918252602090912060046005909202019081015490915060ff16151560011461130f5760405162461bcd60e51b815260206004820152600c60248201526b4e6f7420666f722073616c6560a01b6044820152606401610511565b80600101549250600083116113365760405162461bcd60e51b815260040161051190612b97565b80546001600160a01b0316600061134e856003611f2e565b6001850154600286015460405163152a902d60e11b81526004810191909152602481018890529192506001600160a01b03169060009081908390632a55205a90604401604080518083038186803b1580156113a857600080fd5b505afa1580156113bc573d6000803e3d6000fd5b505050506040513d601f19601f820116820180604052508101906113e09190612682565b909250905060006113fb826113f58b88611f73565b90611f73565b600989015490915060ff16156114ba576001880154600789015460028a0154604051627eeac760e11b815233600482015260248101919091526001600160a01b0390921691829062fdd58e9060440160206040518083038186803b15801561146257600080fd5b505afa158015611476573d6000803e3d6000fd5b505050506040513d601f19601f8201168201806040525081019061149a9190612772565b10156114b85760405162461bcd60e51b815260040161051190612b00565b505b600688015460ff16806114df57506005880154600160601b90046001600160a01b0316155b15611592576040516001600160a01b0387169082156108fc029083906000818181858888f1935050505015801561151a573d6000803e3d6000fd5b506003546040516001600160a01b039091169086156108fc029087906000818181858888f19350505050158015611555573d6000803e3d6000fd5b506040516001600160a01b0384169083156108fc029084906000818181858888f1935050505015801561158c573d6000803e3d6000fd5b5061184a565b6005880154604051636eb1769f60e11b8152336004820152306024820152600160601b9091046001600160a01b0316908a90829063dd62ed3e9060440160206040518083038186803b1580156115e757600080fd5b505afa1580156115fb573d6000803e3d6000fd5b505050506040513d601f19601f8201168201806040525081019061161f9190612772565b10611807576040516323b872dd60e01b81526001600160a01b038216906323b872dd906116549033908b90879060040161293b565b602060405180830381600087803b15801561166e57600080fd5b505af1158015611682573d6000803e3d6000fd5b505050506040513d601f19601f820116820180604052508101906116a691906126cb565b6116c25760405162461bcd60e51b815260040161051190612b37565b6003546040516323b872dd60e01b81526001600160a01b03808416926323b872dd926116f692339216908b9060040161293b565b602060405180830381600087803b15801561171057600080fd5b505af1158015611724573d6000803e3d6000fd5b505050506040513d601f19601f8201168201806040525081019061174891906126cb565b6117645760405162461bcd60e51b815260040161051190612b37565b6040516323b872dd60e01b81526001600160a01b038216906323b872dd906117949033908890889060040161293b565b602060405180830381600087803b1580156117ae57600080fd5b505af11580156117c2573d6000803e3d6000fd5b505050506040513d601f19601f820116820180604052508101906117e691906126cb565b6118025760405162461bcd60e51b815260040161051190612b37565b611848565b60405162461bcd60e51b8152602060048201526016602482015275496e73756666696369656e7420416c6c6f77616e636560501b6044820152606401610511565b505b6118568c8c8833611978565b9c9b505050505050505050505050565b600061194e7f9f1b4f1ae6f22c440250f116238e331a00e9e0958ff40b35a30f5bd632c98b51833560208501356118a36060870160408801612832565b6118b360808801606089016126af565b60808801356118c860c08a0160a08b016126af565b6118d560c08b018b612bce565b6040516118e39291906128f2565b60408051918290038220602083019990995281019690965260608601949094526001600160601b039092166080850152151560a084015260c0830152151560e08201526101008101919091526101200160405160208183030381529060405280519060200120611f7f565b92915050565b60008060006119638585611fcd565b915091506119708161203d565b509392505050565b6000848152600260205260408120600481018054839190879081106119ad57634e487b7160e01b600052603260045260246000fd5b6000918252602090912060046005909202019081015490915060ff161515600114611a095760405162461bcd60e51b815260206004820152600c60248201526b4e6f7420666f722073616c6560a01b6044820152606401610511565b600180830154908201546002840154611a2e926001600160a01b031691908890612243565b50600982015460ff1615611acf576001828101546002840154604051637921219560e11b81526001600160a01b03898116600483015288811660248301526044820192909252606481019390935260a06084840152600060a48401521690819063f242432a9060c401600060405180830381600087803b158015611ab157600080fd5b505af1158015611ac5573d6000803e3d6000fd5b5050505050611b3f565b600182015460028301546040516323b872dd60e01b81526001600160a01b039092169182916323b872dd91611b0b918a918a919060040161293b565b600060405180830381600087803b158015611b2557600080fd5b505af1158015611b39573d6000803e3d6000fd5b50505050505b80546001600160a01b0385166001600160a01b0319909116178155600401805460ff191690555060019050949350505050565b600081815260026020526040812060078101546008909101541115611bc95760405162461bcd60e51b815260206004820152600d60248201526c4d696e74204f766572666c6f7760981b6044820152606401610511565b6000611bd485610ae8565b90506000611be860c0870160a088016126af565b15611d0f57846001600160a01b038116633ef1f7a6848935611c0d60c08c018c612bce565b611c1d60608e0160408f01612832565b8d608001356040518763ffffffff1660e01b8152600401611c43969594939291906129a2565b602060405180830381600087803b158015611c5d57600080fd5b505af1158015611c71573d6000803e3d6000fd5b505050506040513d601f19601f82011682018060405250810190611c9591906126cb565b50806001600160a01b031663899e31066040518163ffffffff1660e01b815260040160206040518083038186803b158015611ccf57600080fd5b505afa158015611ce3573d6000803e3d6000fd5b505050506040513d601f19601f82011682018060405250810190611d0791906125b5565b915050611e27565b846001600160a01b03811663a2b929ea848935611d2f60c08c018c612bce565b611d3f60608e0160408f01612832565b6040518663ffffffff1660e01b8152600401611d5f95949392919061295f565b602060405180830381600087803b158015611d7957600080fd5b505af1158015611d8d573d6000803e3d6000fd5b505050506040513d601f19601f82011682018060405250810190611db191906126cb565b50806001600160a01b031663899e31066040518163ffffffff1660e01b815260040160206040518083038186803b158015611deb57600080fd5b505afa158015611dff573d6000803e3d6000fd5b505050506040513d601f19601f82011682018060405250810190611e2391906125b5565b9150505b6000611e37838488858b8a61106d565b9050801561106357611e4d600180546001019055565b611e73868860200135600260008981526020019081526020016000206002015486611e7e565b509695505050505050565b604051602481018490526001600160a01b03828116604483015260648201849052600091829187169060840160408051601f198184030181529181526020820180516001600160e01b0316633f2c55ab60e21b17905251611edf9190612902565b6000604051808303816000865af19150503d8060008114611f1c576040519150601f19603f3d011682016040523d82523d6000602084013e611f21565b606091505b5090979650505050505050565b600080611f5c611f406002600a612c88565b611f4b906064612d56565b611f568660646122aa565b906122b6565b90506000611f6a82856122aa565b95945050505050565b6000610b418284612d75565b600061194e611f8c6122c2565b8360405161190160f01b6020820152602281018390526042810182905260009060620160405160208183030381529060405280519060200120905092915050565b6000808251604114156120045760208301516040840151606085015160001a611ff8878285856123ed565b94509450505050612036565b82516040141561202e57602083015160408401516120238683836124da565b935093505050612036565b506000905060025b9250929050565b600081600481111561205f57634e487b7160e01b600052602160045260246000fd5b141561206a57612240565b600181600481111561208c57634e487b7160e01b600052602160045260246000fd5b14156120da5760405162461bcd60e51b815260206004820152601860248201527f45434453413a20696e76616c6964207369676e617475726500000000000000006044820152606401610511565b60028160048111156120fc57634e487b7160e01b600052602160045260246000fd5b141561214a5760405162461bcd60e51b815260206004820152601f60248201527f45434453413a20696e76616c6964207369676e6174757265206c656e677468006044820152606401610511565b600381600481111561216c57634e487b7160e01b600052602160045260246000fd5b14156121c55760405162461bcd60e51b815260206004820152602260248201527f45434453413a20696e76616c6964207369676e6174757265202773272076616c604482015261756560f01b6064820152608401610511565b60048160048111156121e757634e487b7160e01b600052602160045260246000fd5b14156122405760405162461bcd60e51b815260206004820152602260248201527f45434453413a20696e76616c6964207369676e6174757265202776272076616c604482015261756560f01b6064820152608401610511565b50565b604051602481018490523360448201526001600160a01b03838116606483015260848201839052600091829187169060a40160408051601f198184030181529181526020820180516001600160e01b0316639841aa7560e01b17905251611edf9190612902565b6000610b418284612d56565b6000610b418284612c2b565b6000306001600160a01b037f00000000000000000000000000000000000000000000000000000000000000001614801561231b57507f000000000000000000000000000000000000000000000000000000000000000046145b1561234757507f00000000000000000000000000000000000000000000000000000000000000006105a9565b50604080517f00000000000000000000000000000000000000000000000000000000000000006020808301919091527f0000000000000000000000000000000000000000000000000000000000000000828401527f000000000000000000000000000000000000000000000000000000000000000060608301524660808301523060a0808401919091528351808403909101815260c090920190925280519101206105a9565b6000807f7fffffffffffffffffffffffffffffff5d576e7357a4501ddfe92f46681b20a083111561242457506000905060036124d1565b8460ff16601b1415801561243c57508460ff16601c14155b1561244d57506000905060046124d1565b6040805160008082526020820180845289905260ff881692820192909252606081018690526080810185905260019060a0016020604051602081039080840390855afa1580156124a1573d6000803e3d6000fd5b5050604051601f1901519150506001600160a01b0381166124ca576000600192509250506124d1565b9150600090505b94509492505050565b6000806001600160ff1b038316816124f760ff86901c601b612c13565b9050612505878288856123ed565b935093505050935093915050565b6040805161018081018252600080825260208083018290528284018290526060808401839052608084015260a0830182905260c0830182905260e083018290526101008301829052610120830182905283519081019093528252906101408201908152600060209091015290565b60006101008284031215612593578081fd5b50919050565b6000602082840312156125aa578081fd5b8135610b4181612dbd565b6000602082840312156125c6578081fd5b8151610b4181612dbd565b600080600080600060a086880312156125e8578081fd5b85356125f381612dbd565b9450602086013561260381612dbd565b9350604086013561261381612dbd565b9250606086013561262381612dbd565b9150608086013567ffffffffffffffff81111561263e578182fd5b61264a88828901612581565b9150509295509295909350565b60008060408385031215612669578182fd5b823561267481612dbd565b946020939093013593505050565b60008060408385031215612694578182fd5b825161269f81612dbd565b6020939093015192949293505050565b6000602082840312156126c0578081fd5b8135610b4181612dd2565b6000602082840312156126dc578081fd5b8151610b4181612dd2565b6000602082840312156126f8578081fd5b813567ffffffffffffffff81111561270e578182fd5b61271a84828501612581565b949350505050565b60008060408385031215612734578182fd5b823567ffffffffffffffff81111561274a578283fd5b61275685828601612581565b925050602083013561276781612dbd565b809150509250929050565b600060208284031215612783578081fd5b5051919050565b6000806040838503121561279c578182fd5b50508035926020909101359150565b600080600080608085870312156127c0578384fd5b843593506020850135925060408501356127d981612dbd565b915060608501356127e981612dbd565b939692955090935050565b60008060008060808587031215612809578384fd5b8435935060208501359250604085013561282281612dd2565b9396929550929360600135925050565b600060208284031215612843578081fd5b81356001600160601b0381168114610b41578182fd5b6000815180845260208085019450808401835b838110156128bd57815180516001600160a01b031688528381015184890152604080820151908901526060808201519089015260809081015115159088015260a0909601959082019060010161286c565b509495945050505050565b60008284528282602086013780602084860101526020601f19601f85011685010190509392505050565b6000828483379101908152919050565b60008251815b818110156129225760208186018101518583015201612908565b818111156129305782828501525b509190910192915050565b6001600160a01b039384168152919092166020820152604081019190915260600190565b600060018060a01b0387168252856020830152608060408301526129876080830185876128c8565b90506001600160601b03831660608301529695505050505050565b600060018060a01b038816825286602083015260a060408301526129ca60a0830186886128c8565b6001600160601b039490941660608301525060800152949350505050565b60006020808301818452808551808352604092508286019150828160051b870101848801865b83811015612af257888303603f19018552815180518452878101516001600160a01b03811689860152610180905081880151858901526060808301516001600160a01b0381168288015250506080808301518282880152612a7183880182612859565b9250505060a080830151612a8f828801826001600160601b03169052565b505060c0828101516001600160a01b03169086015260e08083015115159086015261010080830151151590860152610120808301519086015261014080830151519086015261016091820151151591909401529386019390860190600101612a0e565b509098975050505050505050565b60208082526019908201527f73656e64657220646f6573206e6f74206f776e20746f6b656e00000000000000604082015260600190565b6020808252600f908201526e1d1c985b9cd9995c8811985a5b1959608a1b604082015260600190565b6020808252601f908201527f5265656e7472616e637947756172643a207265656e7472616e742063616c6c00604082015260600190565b6020808252601c908201527f5072696365206d757374206265206174206c6561737420312077656900000000604082015260600190565b6000808335601e19843603018112612be4578283fd5b83018035915067ffffffffffffffff821115612bfe578283fd5b60200191503681900382131561203657600080fd5b60008219821115612c2657612c26612da7565b500190565b600082612c4657634e487b7160e01b81526012600452602481fd5b500490565b80825b6001808611612c5d57506124d1565b818704821115612c6f57612c6f612da7565b80861615612c7c57918102915b9490941c938002612c4e565b6000610b416000198484600082612ca157506001610b41565b81612cae57506000610b41565b8160018114612cc45760028114612cce57612cfb565b6001915050610b41565b60ff841115612cdf57612cdf612da7565b6001841b915084821115612cf557612cf5612da7565b50610b41565b5060208310610133831016604e8410600b8410161715612d2e575081810a83811115612d2957612d29612da7565b610b41565b612d3b8484846001612c4b565b808604821115612d4d57612d4d612da7565b02949350505050565b6000816000190483118215151615612d7057612d70612da7565b500290565b600082821015612d8757612d87612da7565b500390565b6000600019821415612da057612da0612da7565b5060010190565b634e487b7160e01b600052601160045260246000fd5b6001600160a01b038116811461224057600080fd5b801515811461224057600080fdfea26469706673582212204d7fe0522c2041f0dd18e097e78e8f7531fd95fb614a5539109a9209e805281164736f6c63430008030033",
  "linkReferences": {},
  "deployedLinkReferences": {}
}