{
  "_format": "hh-sol-artifact-1",
  "contractName": "ThredMarketplace",
  "sourceName": "contracts/ThredMarketplace/ThredMarketplace.sol",
  "abi": [
    {
      "inputs": [
        {
          "internalType": "string",
          "name": "domain",
          "type": "string"
        },
        {
          "internalType": "string",
          "name": "version",
          "type": "string"
        }
      ],
      "stateMutability": "nonpayable",
      "type": "constructor"
    },
    {
      "anonymous": false,
      "inputs": [
        {
          "indexed": true,
          "internalType": "address",
          "name": "sender",
          "type": "address"
        },
        {
          "indexed": false,
          "internalType": "uint256",
          "name": "amount",
          "type": "uint256"
        }
      ],
      "name": "Bid",
      "type": "event"
    },
    {
      "anonymous": false,
      "inputs": [
        {
          "indexed": false,
          "internalType": "address",
          "name": "winner",
          "type": "address"
        },
        {
          "indexed": false,
          "internalType": "uint256",
          "name": "amount",
          "type": "uint256"
        }
      ],
      "name": "End",
      "type": "event"
    },
    {
      "anonymous": false,
      "inputs": [],
      "name": "Start",
      "type": "event"
    },
    {
      "anonymous": false,
      "inputs": [
        {
          "indexed": true,
          "internalType": "address",
          "name": "bidder",
          "type": "address"
        },
        {
          "indexed": false,
          "internalType": "uint256",
          "name": "amount",
          "type": "uint256"
        }
      ],
      "name": "Withdraw",
      "type": "event"
    },
    {
      "inputs": [
        {
          "internalType": "address payable",
          "name": "nftOwner",
          "type": "address"
        },
        {
          "internalType": "address payable",
          "name": "nftSeller",
          "type": "address"
        },
        {
          "internalType": "address",
          "name": "nftContract",
          "type": "address"
        },
        {
          "components": [
            {
              "internalType": "uint256",
              "name": "tokenId",
              "type": "uint256"
            },
            {
              "internalType": "uint256",
              "name": "minPrice",
              "type": "uint256"
            },
            {
              "internalType": "uint96",
              "name": "royalty",
              "type": "uint96"
            },
            {
              "internalType": "address",
              "name": "token",
              "type": "address"
            },
            {
              "internalType": "bool",
              "name": "isNative",
              "type": "bool"
            },
            {
              "internalType": "uint256",
              "name": "amount",
              "type": "uint256"
            },
            {
              "internalType": "bool",
              "name": "fungible",
              "type": "bool"
            },
            {
              "internalType": "string",
              "name": "uri",
              "type": "string"
            },
            {
              "internalType": "bytes",
              "name": "signature",
              "type": "bytes"
            }
          ],
          "internalType": "struct ThredMarketplace.NFTVoucher",
          "name": "voucher",
          "type": "tuple"
        }
      ],
      "name": "createMarketItem",
      "outputs": [
        {
          "internalType": "bool",
          "name": "",
          "type": "bool"
        }
      ],
      "stateMutability": "nonpayable",
      "type": "function"
    },
    {
      "inputs": [
        {
          "internalType": "uint256",
          "name": "item",
          "type": "uint256"
        },
        {
          "internalType": "uint256",
          "name": "variation",
          "type": "uint256"
        }
      ],
      "name": "createSale",
      "outputs": [
        {
          "internalType": "bool",
          "name": "",
          "type": "bool"
        }
      ],
      "stateMutability": "payable",
      "type": "function"
    },
    {
      "inputs": [
        {
          "internalType": "uint256",
          "name": "item",
          "type": "uint256"
        },
        {
          "internalType": "uint256",
          "name": "variation",
          "type": "uint256"
        }
      ],
      "name": "createSaleCustom",
      "outputs": [
        {
          "internalType": "bool",
          "name": "",
          "type": "bool"
        }
      ],
      "stateMutability": "nonpayable",
      "type": "function"
    },
    {
      "inputs": [
        {
          "internalType": "address",
          "name": "contractAddress",
          "type": "address"
        },
        {
          "internalType": "uint256",
          "name": "tokenId",
          "type": "uint256"
        }
      ],
      "name": "fetchCollectionAsset",
      "outputs": [
        {
          "components": [
            {
              "internalType": "uint256",
              "name": "itemId",
              "type": "uint256"
            },
            {
              "internalType": "address",
              "name": "nftContract",
              "type": "address"
            },
            {
              "internalType": "uint256",
              "name": "tokenId",
              "type": "uint256"
            },
            {
              "internalType": "address payable",
              "name": "owner",
              "type": "address"
            },
            {
              "components": [
                {
                  "internalType": "address payable",
                  "name": "seller",
                  "type": "address"
                },
                {
                  "internalType": "uint256",
                  "name": "price",
                  "type": "uint256"
                },
                {
                  "internalType": "uint256",
                  "name": "variationId",
                  "type": "uint256"
                },
                {
                  "internalType": "uint256",
                  "name": "itemId",
                  "type": "uint256"
                },
                {
                  "internalType": "bool",
                  "name": "forSale",
                  "type": "bool"
                }
              ],
              "internalType": "struct ThredMarketplace.Variation[]",
              "name": "variations",
              "type": "tuple[]"
            },
            {
              "internalType": "uint96",
              "name": "royalty",
              "type": "uint96"
            },
            {
              "internalType": "address",
              "name": "tokenContract",
              "type": "address"
            },
            {
              "internalType": "bool",
              "name": "isNative",
              "type": "bool"
            },
            {
              "internalType": "bool",
              "name": "minted",
              "type": "bool"
            },
            {
              "internalType": "uint256",
              "name": "amount",
              "type": "uint256"
            },
            {
              "components": [
                {
                  "internalType": "uint256",
                  "name": "_value",
                  "type": "uint256"
                }
              ],
              "internalType": "struct Counters.Counter",
              "name": "mintedVariations",
              "type": "tuple"
            },
            {
              "internalType": "bool",
              "name": "fungible",
              "type": "bool"
            }
          ],
          "internalType": "struct ThredMarketplace.MarketItem[]",
          "name": "",
          "type": "tuple[]"
        }
      ],
      "stateMutability": "view",
      "type": "function"
    },
    {
      "inputs": [
        {
          "internalType": "address",
          "name": "contractAddress",
          "type": "address"
        }
      ],
      "name": "fetchCollectionAssets",
      "outputs": [
        {
          "components": [
            {
              "internalType": "uint256",
              "name": "itemId",
              "type": "uint256"
            },
            {
              "internalType": "address",
              "name": "nftContract",
              "type": "address"
            },
            {
              "internalType": "uint256",
              "name": "tokenId",
              "type": "uint256"
            },
            {
              "internalType": "address payable",
              "name": "owner",
              "type": "address"
            },
            {
              "components": [
                {
                  "internalType": "address payable",
                  "name": "seller",
                  "type": "address"
                },
                {
                  "internalType": "uint256",
                  "name": "price",
                  "type": "uint256"
                },
                {
                  "internalType": "uint256",
                  "name": "variationId",
                  "type": "uint256"
                },
                {
                  "internalType": "uint256",
                  "name": "itemId",
                  "type": "uint256"
                },
                {
                  "internalType": "bool",
                  "name": "forSale",
                  "type": "bool"
                }
              ],
              "internalType": "struct ThredMarketplace.Variation[]",
              "name": "variations",
              "type": "tuple[]"
            },
            {
              "internalType": "uint96",
              "name": "royalty",
              "type": "uint96"
            },
            {
              "internalType": "address",
              "name": "tokenContract",
              "type": "address"
            },
            {
              "internalType": "bool",
              "name": "isNative",
              "type": "bool"
            },
            {
              "internalType": "bool",
              "name": "minted",
              "type": "bool"
            },
            {
              "internalType": "uint256",
              "name": "amount",
              "type": "uint256"
            },
            {
              "components": [
                {
                  "internalType": "uint256",
                  "name": "_value",
                  "type": "uint256"
                }
              ],
              "internalType": "struct Counters.Counter",
              "name": "mintedVariations",
              "type": "tuple"
            },
            {
              "internalType": "bool",
              "name": "fungible",
              "type": "bool"
            }
          ],
          "internalType": "struct ThredMarketplace.MarketItem[]",
          "name": "",
          "type": "tuple[]"
        }
      ],
      "stateMutability": "view",
      "type": "function"
    },
    {
      "inputs": [
        {
          "internalType": "address",
          "name": "marketAddress",
          "type": "address"
        }
      ],
      "name": "fetchMarketAssets",
      "outputs": [
        {
          "components": [
            {
              "internalType": "uint256",
              "name": "itemId",
              "type": "uint256"
            },
            {
              "internalType": "address",
              "name": "nftContract",
              "type": "address"
            },
            {
              "internalType": "uint256",
              "name": "tokenId",
              "type": "uint256"
            },
            {
              "internalType": "address payable",
              "name": "owner",
              "type": "address"
            },
            {
              "components": [
                {
                  "internalType": "address payable",
                  "name": "seller",
                  "type": "address"
                },
                {
                  "internalType": "uint256",
                  "name": "price",
                  "type": "uint256"
                },
                {
                  "internalType": "uint256",
                  "name": "variationId",
                  "type": "uint256"
                },
                {
                  "internalType": "uint256",
                  "name": "itemId",
                  "type": "uint256"
                },
                {
                  "internalType": "bool",
                  "name": "forSale",
                  "type": "bool"
                }
              ],
              "internalType": "struct ThredMarketplace.Variation[]",
              "name": "variations",
              "type": "tuple[]"
            },
            {
              "internalType": "uint96",
              "name": "royalty",
              "type": "uint96"
            },
            {
              "internalType": "address",
              "name": "tokenContract",
              "type": "address"
            },
            {
              "internalType": "bool",
              "name": "isNative",
              "type": "bool"
            },
            {
              "internalType": "bool",
              "name": "minted",
              "type": "bool"
            },
            {
              "internalType": "uint256",
              "name": "amount",
              "type": "uint256"
            },
            {
              "components": [
                {
                  "internalType": "uint256",
                  "name": "_value",
                  "type": "uint256"
                }
              ],
              "internalType": "struct Counters.Counter",
              "name": "mintedVariations",
              "type": "tuple"
            },
            {
              "internalType": "bool",
              "name": "fungible",
              "type": "bool"
            }
          ],
          "internalType": "struct ThredMarketplace.MarketItem[]",
          "name": "",
          "type": "tuple[]"
        }
      ],
      "stateMutability": "view",
      "type": "function"
    },
    {
      "inputs": [],
      "name": "getChainID",
      "outputs": [
        {
          "internalType": "uint256",
          "name": "",
          "type": "uint256"
        }
      ],
      "stateMutability": "view",
      "type": "function"
    },
    {
      "inputs": [
        {
          "components": [
            {
              "internalType": "uint256",
              "name": "tokenId",
              "type": "uint256"
            },
            {
              "internalType": "uint256",
              "name": "minPrice",
              "type": "uint256"
            },
            {
              "internalType": "uint96",
              "name": "royalty",
              "type": "uint96"
            },
            {
              "internalType": "address",
              "name": "token",
              "type": "address"
            },
            {
              "internalType": "bool",
              "name": "isNative",
              "type": "bool"
            },
            {
              "internalType": "uint256",
              "name": "amount",
              "type": "uint256"
            },
            {
              "internalType": "bool",
              "name": "fungible",
              "type": "bool"
            },
            {
              "internalType": "string",
              "name": "uri",
              "type": "string"
            },
            {
              "internalType": "bytes",
              "name": "signature",
              "type": "bytes"
            }
          ],
          "internalType": "struct ThredMarketplace.NFTVoucher",
          "name": "voucher",
          "type": "tuple"
        },
        {
          "internalType": "address",
          "name": "contractAddress",
          "type": "address"
        }
      ],
      "name": "mintAndTransfer",
      "outputs": [
        {
          "internalType": "bool",
          "name": "",
          "type": "bool"
        }
      ],
      "stateMutability": "payable",
      "type": "function"
    },
    {
      "inputs": [
        {
          "components": [
            {
              "internalType": "uint256",
              "name": "tokenId",
              "type": "uint256"
            },
            {
              "internalType": "uint256",
              "name": "minPrice",
              "type": "uint256"
            },
            {
              "internalType": "uint96",
              "name": "royalty",
              "type": "uint96"
            },
            {
              "internalType": "address",
              "name": "token",
              "type": "address"
            },
            {
              "internalType": "bool",
              "name": "isNative",
              "type": "bool"
            },
            {
              "internalType": "uint256",
              "name": "amount",
              "type": "uint256"
            },
            {
              "internalType": "bool",
              "name": "fungible",
              "type": "bool"
            },
            {
              "internalType": "string",
              "name": "uri",
              "type": "string"
            },
            {
              "internalType": "bytes",
              "name": "signature",
              "type": "bytes"
            }
          ],
          "internalType": "struct ThredMarketplace.NFTVoucher",
          "name": "voucher",
          "type": "tuple"
        },
        {
          "internalType": "address",
          "name": "contractAddress",
          "type": "address"
        }
      ],
      "name": "mintAndTransferCustom",
      "outputs": [
        {
          "internalType": "bool",
          "name": "",
          "type": "bool"
        }
      ],
      "stateMutability": "nonpayable",
      "type": "function"
    },
    {
      "inputs": [
        {
          "components": [
            {
              "internalType": "uint256",
              "name": "tokenId",
              "type": "uint256"
            },
            {
              "internalType": "uint256",
              "name": "minPrice",
              "type": "uint256"
            },
            {
              "internalType": "uint96",
              "name": "royalty",
              "type": "uint96"
            },
            {
              "internalType": "address",
              "name": "token",
              "type": "address"
            },
            {
              "internalType": "bool",
              "name": "isNative",
              "type": "bool"
            },
            {
              "internalType": "uint256",
              "name": "amount",
              "type": "uint256"
            },
            {
              "internalType": "bool",
              "name": "fungible",
              "type": "bool"
            },
            {
              "internalType": "string",
              "name": "uri",
              "type": "string"
            },
            {
              "internalType": "bytes",
              "name": "signature",
              "type": "bytes"
            }
          ],
          "internalType": "struct ThredMarketplace.NFTVoucher",
          "name": "voucher",
          "type": "tuple"
        },
        {
          "internalType": "address",
          "name": "nftContract",
          "type": "address"
        }
      ],
      "name": "mintNFT",
      "outputs": [
        {
          "internalType": "bool",
          "name": "",
          "type": "bool"
        }
      ],
      "stateMutability": "nonpayable",
      "type": "function"
    },
    {
      "inputs": [
        {
          "internalType": "uint256",
          "name": "itemId",
          "type": "uint256"
        },
        {
          "internalType": "uint256",
          "name": "variation",
          "type": "uint256"
        },
        {
          "internalType": "bool",
          "name": "forSale",
          "type": "bool"
        },
        {
          "internalType": "uint256",
          "name": "price",
          "type": "uint256"
        }
      ],
      "name": "updateItem",
      "outputs": [
        {
          "internalType": "bool",
          "name": "",
          "type": "bool"
        }
      ],
      "stateMutability": "nonpayable",
      "type": "function"
    }
  ],
  "bytecode": "0x6101406040523480156200001257600080fd5b5060405162002dee38038062002dee833981016040819052620000359162000188565b6001600055815160209283012081519183019190912060e08290526101008190524660a0818152604080517f8b73c3c69bb8fe3d512ecc4cf759cc79239f7b179b0ffacaa9a75d522b39400f81880181905281830196909652606081810195909552608080820194909452308184018190528251808303909401845260c091820190925282519290960191909120909152901b9091526101205262000205565b600082601f830112620000e6578081fd5b81516001600160401b0380821115620001035762000103620001ef565b604051601f8301601f19908116603f011681019082821181831017156200012e576200012e620001ef565b816040528381526020925086838588010111156200014a578485fd5b8491505b838210156200016d57858201830151818301840152908201906200014e565b838211156200017e57848385830101525b9695505050505050565b600080604083850312156200019b578182fd5b82516001600160401b0380821115620001b2578384fd5b620001c086838701620000d5565b93506020850151915080821115620001d6578283fd5b50620001e585828601620000d5565b9150509250929050565b634e487b7160e01b600052604160045260246000fd5b60805160a05160c05160601c60e0516101005161012051612b96620002586000396000612165015260006121b40152600061218f015260006120e6015260006121100152600061213a0152612b966000f3fe60806040526004361061009c5760003560e01c80636019061b116100645780636019061b146101545780637c50342014610167578063a4747be514610187578063c23a5c69146101a7578063dd6a1fbd146101c7578063fa662b74146101e25761009c565b806309aeb3d2146100a15780630ea29a26146100c9578063427d0b0a146100f657806348ab470a14610111578063564b81ef14610131575b600080fd5b6100b46100af3660046124eb565b610202565b60405190151581526020015b60405180910390f35b3480156100d557600080fd5b506100e96100e436600461245b565b61024b565b6040516100c09190612768565b34801561010257600080fd5b506100b46100af3660046124eb565b34801561011d57600080fd5b506100b461012c3660046124eb565b6104c0565b34801561013d57600080fd5b5061014661053b565b6040519081526020016100c0565b6100b4610162366004612553565b610540565b34801561017357600080fd5b506100e96101823660046123b0565b61057e565b34801561019357600080fd5b506100e96101a23660046123b0565b6107fd565b3480156101b357600080fd5b506100b46101c23660046123e8565b610a7c565b3480156101d357600080fd5b506100b4610162366004612553565b3480156101ee57600080fd5b506100b46101fd366004612574565b610aec565b6000600260005414156102305760405162461bcd60e51b8152600401610227906128e0565b60405180910390fd5b600260005561023f8383610e44565b60016000559392505050565b6060600061025860015490565b60408051600180825281830190925291925060009190816020015b61027b61232a565b81526020019060019003908161027357905050905060005b828110156104b7576001600160a01b038616600260006102b4846001612993565b81526020810191909152604001600020600101546001600160a01b03161480156102fd575084600260006102e9846001612993565b815260200190815260200160002060020154145b156104a557600061030f826001612993565b60008181526002602081815260408084208151610180810183528154815260018201546001600160a01b0390811682860152948201548184015260038201549094166060850152600481018054835181860281018601909452808452969750939590946080870194929384015b828210156103e85760008481526020908190206040805160a0810182526005860290920180546001600160a01b0316835260018082015484860152600282015492840192909252600381015460608401526004015460ff1615156080830152908352909201910161037c565b5050509082525060058201546001600160601b038116602080840191909152600160601b9091046001600160a01b0316604080840191909152600684015460ff80821615156060860152610100909104811615156080850152600785015460a085015281519283019091526008840154825260c0830191909152600990920154909116151560e0909101528351849060009061049457634e487b7160e01b600052603260045260246000fd5b6020026020010181905250506104b7565b806104af81612b0c565b915050610293565b50949350505050565b6000600260005414156104e55760405162461bcd60e51b8152600401610227906128e0565b6002600055602083013561050b5760405162461bcd60e51b815260040161022790612917565b600061051660015490565b610521906001612993565b905061052e848483610f06565b6001600055949350505050565b465b90565b6000600260005414156105655760405162461bcd60e51b8152600401610227906128e0565b600260005561023f83610579600185612af5565b61112a565b6060600061058b60015490565b90506000808267ffffffffffffffff8111156105b757634e487b7160e01b600052604160045260246000fd5b6040519080825280602002602001820160405280156105f057816020015b6105dd61232a565b8152602001906001900390816105d55790505b50905060005b838110156104b7576001600160a01b03861660026000610617846001612993565b81526020810191909152604001600020600301546001600160a01b031614156107eb576000610647826001612993565b60008181526002602081815260408084208151610180810183528154815260018201546001600160a01b0390811682860152948201548184015260038201549094166060850152600481018054835181860281018601909452808452969750909593948694608087019490919084015b828210156107235760008481526020908190206040805160a0810182526005860290920180546001600160a01b0316835260018082015484860152600282015492840192909252600381015460608401526004015460ff161515608083015290835290920191016106b7565b5050509082525060058201546001600160601b038116602080840191909152600160601b9091046001600160a01b0316604080840191909152600684015460ff80821615156060860152610100909104811615156080850152600785015460a085015281519283019091526008840154825260c0830191909152600990920154909116151560e09091015284518590879081106107d057634e487b7160e01b600052603260045260246000fd5b60209081029190910101526107e6600186612993565b945050505b806107f581612b0c565b9150506105f6565b6060600061080a60015490565b90506000808267ffffffffffffffff81111561083657634e487b7160e01b600052604160045260246000fd5b60405190808252806020026020018201604052801561086f57816020015b61085c61232a565b8152602001906001900390816108545790505b50905060005b838110156104b7576001600160a01b03861660026000610896846001612993565b81526020810191909152604001600020600101546001600160a01b03161415610a6a5760006108c6826001612993565b60008181526002602081815260408084208151610180810183528154815260018201546001600160a01b0390811682860152948201548184015260038201549094166060850152600481018054835181860281018601909452808452969750909593948694608087019490919084015b828210156109a25760008481526020908190206040805160a0810182526005860290920180546001600160a01b0316835260018082015484860152600282015492840192909252600381015460608401526004015460ff16151560808301529083529092019101610936565b5050509082525060058201546001600160601b038116602080840191909152600160601b9091046001600160a01b0316604080840191909152600684015460ff80821615156060860152610100909104811615156080850152600785015460a085015281519283019091526008840154825260c0830191909152600990920154909116151560e0909101528451859087908110610a4f57634e487b7160e01b600052603260045260246000fd5b6020908102919091010152610a65600186612993565b945050505b80610a7481612b0c565b915050610875565b600060026000541415610aa15760405162461bcd60e51b8152600401610227906128e0565b60026000908155600154610ab6906001612993565b90506000610ac78787878786611865565b90508015610add57610add600180546001019055565b60016000559695505050505050565b6000848152600260205260408120600981015482919060ff1615610c16578054600090815260026020819052604080832060018101549201549051627eeac760e11b815233600482015260248101919091526001600160a01b039091169190829062fdd58e9060440160206040518083038186803b158015610b6d57600080fd5b505afa158015610b81573d6000803e3d6000fd5b505050506040513d601f19601f82011682018060405250810190610ba5919061253b565b11610bc25760405162461bcd60e51b815260040161022790612880565b6000888152600260205260409020600401805488908110610bf357634e487b7160e01b600052603260045260246000fd5b60009182526020909120600590910201546001600160a01b03169250610caf9050565b8054600090815260026020819052604091829020600181015491015491516331a9108f60e11b815260048101929092526001600160a01b0316908190636352211e9060240160206040518083038186803b158015610c7357600080fd5b505afa158015610c87573d6000803e3d6000fd5b505050506040513d601f19601f82011682018060405250810190610cab91906123cc565b9250505b336001600160a01b03831614610cd75760405162461bcd60e51b815260040161022790612880565b60008411610cf75760405162461bcd60e51b815260040161022790612917565b6000878152600260205260409020600401805485919088908110610d2b57634e487b7160e01b600052603260045260246000fd5b90600052602060002090600502016001018190555084600260008981526020019081526020016000206004018781548110610d7657634e487b7160e01b600052603260045260246000fd5b6000918252602080832060046005909302018201805494151560ff199095169490941790935589825260029092526040902001805483919088908110610dcc57634e487b7160e01b600052603260045260246000fd5b6000918252602090912060059091020180546001600160a01b0319166001600160a01b039290921691909117905584151560011415610e3757805460009081526002602081905260409091206001810154910154610e35916001600160a01b0316908690611abc565b505b5060019695505050505050565b600080836020013511610e695760405162461bcd60e51b815260040161022790612917565b6000610e7460015490565b610e7f906001612993565b90506000610e8e858584610f06565b905080610ed25760405162461bcd60e51b815260206004820152601260248201527111985a5b1959081d1bc8135a5b9d0813919560721b6044820152606401610227565b600082815260026020526040812060080154610ef090600190612af5565b9050610efc838261112a565b9695505050505050565b600081815260026020526040812060078101546008909101541115610f5d5760405162461bcd60e51b815260206004820152600d60248201526c4d696e74204f766572666c6f7760981b6044820152606401610227565b6000610f6885611b69565b9050610f7a60e0860160c087016124b3565b1561102e57836001600160a01b038116633ef1f7a6838835610f9f60e08b018b61294e565b610faf60608d0160408e016125b2565b8c60a001356040518763ffffffff1660e01b8152600401610fd596959493929190612722565b602060405180830381600087803b158015610fef57600080fd5b505af1158015611003573d6000803e3d6000fd5b505050506040513d601f19601f8201168201806040525081019061102791906124cf565b50506110d3565b836001600160a01b03811663a2b929ea83883561104e60e08b018b61294e565b61105e60608d0160408e016125b2565b6040518663ffffffff1660e01b815260040161107e9594939291906126df565b602060405180830381600087803b15801561109857600080fd5b505af11580156110ac573d6000803e3d6000fd5b505050506040513d601f19601f820116820180604052508101906110d091906124cf565b50505b60006110e28283878988611865565b9050801561111f576110f8600180546001019055565b61111d8587602001356002600088815260200190815260200160002060020154611abc565b505b9150505b9392505050565b600082815260026020526040812060048101805483929183918690811061116157634e487b7160e01b600052603260045260246000fd5b6000918252602090912060046005909202019081015490915060ff1615156001146111bd5760405162461bcd60e51b815260206004820152600c60248201526b4e6f7420666f722073616c6560a01b6044820152606401610227565b80600101549250600083116111e45760405162461bcd60e51b815260040161022790612917565b80546001600160a01b031673d31c54efd3a4b5e6a993aaa4618d3700a12ff7526000611211866003611bc3565b6001860154600287015460405163152a902d60e11b81526004810191909152602481018990529192506001600160a01b03169060009081908390632a55205a90604401604080518083038186803b15801561126b57600080fd5b505afa15801561127f573d6000803e3d6000fd5b505050506040513d601f19601f820116820180604052508101906112a39190612486565b909250905060006112be826112b88c88611c08565b90611c08565b60098a015490915060ff161561137d57600189015460078a015460028b0154604051627eeac760e11b815233600482015260248101919091526001600160a01b0390921691829062fdd58e9060440160206040518083038186803b15801561132557600080fd5b505afa158015611339573d6000803e3d6000fd5b505050506040513d601f19601f8201168201806040525081019061135d919061253b565b101561137b5760405162461bcd60e51b815260040161022790612880565b505b600689015460ff16806113a257506005890154600160601b90046001600160a01b0316155b15611451576040516001600160a01b0388169082156108fc029083906000818181858888f193505050501580156113dd573d6000803e3d6000fd5b506040516001600160a01b0387169086156108fc029087906000818181858888f19350505050158015611414573d6000803e3d6000fd5b506040516001600160a01b0384169083156108fc029084906000818181858888f1935050505015801561144b573d6000803e3d6000fd5b50611705565b6005890154604051636eb1769f60e11b8152336004820152306024820152600160601b9091046001600160a01b0316908b90829063dd62ed3e9060440160206040518083038186803b1580156114a657600080fd5b505afa1580156114ba573d6000803e3d6000fd5b505050506040513d601f19601f820116820180604052508101906114de919061253b565b106116c2576040516323b872dd60e01b81526001600160a01b038216906323b872dd906115139033908c9087906004016126bb565b602060405180830381600087803b15801561152d57600080fd5b505af1158015611541573d6000803e3d6000fd5b505050506040513d601f19601f8201168201806040525081019061156591906124cf565b6115815760405162461bcd60e51b8152600401610227906128b7565b6040516323b872dd60e01b81526001600160a01b038216906323b872dd906115b19033908b908b906004016126bb565b602060405180830381600087803b1580156115cb57600080fd5b505af11580156115df573d6000803e3d6000fd5b505050506040513d601f19601f8201168201806040525081019061160391906124cf565b61161f5760405162461bcd60e51b8152600401610227906128b7565b6040516323b872dd60e01b81526001600160a01b038216906323b872dd9061164f903390889088906004016126bb565b602060405180830381600087803b15801561166957600080fd5b505af115801561167d573d6000803e3d6000fd5b505050506040513d601f19601f820116820180604052508101906116a191906124cf565b6116bd5760405162461bcd60e51b8152600401610227906128b7565b611703565b60405162461bcd60e51b8152602060048201526016602482015275496e73756666696369656e7420416c6c6f77616e636560501b6044820152606401610227565b505b600189015460028a0154611726916001600160a01b0316908c908a90611c14565b50600989015460ff16156117c55760018981015460028b0154604051637921219560e11b81526001600160a01b038b811660048301523360248301526044820192909252606481019390935260a06084840152600060a48401521690819063f242432a9060c401600060405180830381600087803b1580156117a757600080fd5b505af11580156117bb573d6000803e3d6000fd5b5050505050611835565b600189015460028a01546040516323b872dd60e01b81526001600160a01b039092169182916323b872dd91611801918c913391906004016126bb565b600060405180830381600087803b15801561181b57600080fd5b505af115801561182f573d6000803e3d6000fd5b50505050505b505085546001600160a01b031916331786555050506004909201805460ff19169055506001935050505092915050565b60008083602001351161188a5760405162461bcd60e51b815260040161022790612917565b6000828152600260208190526040918290208481556001810180546001600160a01b03808a166001600160a01b03199283161790925587359383019390935560039091018054918a16919092161790556118ea90606085019085016125b2565b600083815260026020526040902060050180546bffffffffffffffffffffffff19166001600160601b039290921691909117905561192e60808401606085016123b0565b600083815260026020526040902060050180546001600160a01b0392909216600160601b026001600160601b0390921691909117905561197460a08401608085016124b3565b600083815260026020526040902060068101805461ff00199315159390931661ffff19909316929092176101001790915560a08401356007909101556119c060e0840160c085016124b3565b600083815260026020818152604080842060098101805460ff191696151596909617909555805160a0810182526001600160a01b038b168152888301358184015293879052919052600483019290820190611a1c906008015490565b8152602080820186905260016040928301819052845480820186556000958652828620855160059092020180546001600160a01b0319166001600160a01b03909216919091178155848301518183015584840151600280830191909155606086015160038301556080909501516004909101805460ff19169115159190911790558685529290529091206008018054909101905550600195945050505050565b604051602481018390523360448201526064810182905260009081906001600160a01b0386169060840160408051601f198184030181529181526020820180516001600160e01b0316633f2c55ab60e21b17905251611b1b9190612682565b6000604051808303816000865af19150503d8060008114611b58576040519150601f19603f3d011682016040523d82523d6000602084013e611b5d565b606091505b50909695505050505050565b600080611b7583611cca565b905061112381611b8961010086018661294e565b8080601f016020809104026020016040519081016040528093929190818152602001838380828437600092019190915250611dd992505050565b600080611bf1611bd56002600a612a08565b611be0906064612ad6565b611beb866064611dfd565b90611e09565b90506000611bff8285611dfd565b95945050505050565b60006111238284612af5565b604051602481018490523360448201526001600160a01b03838116606483015260848201839052600091829187169060a40160408051601f198184030181529181526020820180516001600160e01b0316639841aa7560e01b17905251611c7b9190612682565b6000604051808303816000865af19150503d8060008114611cb8576040519150601f19603f3d011682016040523d82523d6000602084013e611cbd565b606091505b5090979650505050505050565b6000611dd37f9e1405d0ba2ca402831f859da924827874501b1dd00451f03242dca5c995d4dc83356020850135611d0760608701604088016125b2565b611d1760808801606089016123b0565b611d2760a0890160808a016124b3565b60a0890135611d3c60e08b0160c08c016124b3565b611d4960e08c018c61294e565b604051611d57929190612672565b60408051918290038220602083019a909a5281019790975260608701959095526001600160601b0390931660808601526001600160a01b0390911660a0850152151560c084015260e083015215156101008201526101208101919091526101400160405160208183030381529060405280519060200120611e15565b92915050565b6000806000611de88585611e63565b91509150611df581611ed3565b509392505050565b60006111238284612ad6565b600061112382846129ab565b6000611dd3611e226120d9565b8360405161190160f01b6020820152602281018390526042810182905260009060620160405160208183030381529060405280519060200120905092915050565b600080825160411415611e9a5760208301516040840151606085015160001a611e8e87828585612204565b94509450505050611ecc565b825160401415611ec45760208301516040840151611eb98683836122f1565b935093505050611ecc565b506000905060025b9250929050565b6000816004811115611ef557634e487b7160e01b600052602160045260246000fd5b1415611f00576120d6565b6001816004811115611f2257634e487b7160e01b600052602160045260246000fd5b1415611f705760405162461bcd60e51b815260206004820152601860248201527f45434453413a20696e76616c6964207369676e617475726500000000000000006044820152606401610227565b6002816004811115611f9257634e487b7160e01b600052602160045260246000fd5b1415611fe05760405162461bcd60e51b815260206004820152601f60248201527f45434453413a20696e76616c6964207369676e6174757265206c656e677468006044820152606401610227565b600381600481111561200257634e487b7160e01b600052602160045260246000fd5b141561205b5760405162461bcd60e51b815260206004820152602260248201527f45434453413a20696e76616c6964207369676e6174757265202773272076616c604482015261756560f01b6064820152608401610227565b600481600481111561207d57634e487b7160e01b600052602160045260246000fd5b14156120d65760405162461bcd60e51b815260206004820152602260248201527f45434453413a20696e76616c6964207369676e6174757265202776272076616c604482015261756560f01b6064820152608401610227565b50565b6000306001600160a01b037f00000000000000000000000000000000000000000000000000000000000000001614801561213257507f000000000000000000000000000000000000000000000000000000000000000046145b1561215e57507f000000000000000000000000000000000000000000000000000000000000000061053d565b50604080517f00000000000000000000000000000000000000000000000000000000000000006020808301919091527f0000000000000000000000000000000000000000000000000000000000000000828401527f000000000000000000000000000000000000000000000000000000000000000060608301524660808301523060a0808401919091528351808403909101815260c0909201909252805191012061053d565b6000807f7fffffffffffffffffffffffffffffff5d576e7357a4501ddfe92f46681b20a083111561223b57506000905060036122e8565b8460ff16601b1415801561225357508460ff16601c14155b1561226457506000905060046122e8565b6040805160008082526020820180845289905260ff881692820192909252606081018690526080810185905260019060a0016020604051602081039080840390855afa1580156122b8573d6000803e3d6000fd5b5050604051601f1901519150506001600160a01b0381166122e1576000600192509250506122e8565b9150600090505b94509492505050565b6000806001600160ff1b0383168161230e60ff86901c601b612993565b905061231c87828885612204565b935093505050935093915050565b6040805161018081018252600080825260208083018290528284018290526060808401839052608084015260a0830182905260c0830182905260e083018290526101008301829052610120830182905283519081019093528252906101408201908152600060209091015290565b600061012082840312156123aa578081fd5b50919050565b6000602082840312156123c1578081fd5b813561112381612b3d565b6000602082840312156123dd578081fd5b815161112381612b3d565b600080600080608085870312156123fd578283fd5b843561240881612b3d565b9350602085013561241881612b3d565b9250604085013561242881612b3d565b9150606085013567ffffffffffffffff811115612443578182fd5b61244f87828801612398565b91505092959194509250565b6000806040838503121561246d578182fd5b823561247881612b3d565b946020939093013593505050565b60008060408385031215612498578182fd5b82516124a381612b3d565b6020939093015192949293505050565b6000602082840312156124c4578081fd5b813561112381612b52565b6000602082840312156124e0578081fd5b815161112381612b52565b600080604083850312156124fd578182fd5b823567ffffffffffffffff811115612513578283fd5b61251f85828601612398565b925050602083013561253081612b3d565b809150509250929050565b60006020828403121561254c578081fd5b5051919050565b60008060408385031215612565578182fd5b50508035926020909101359150565b60008060008060808587031215612589578384fd5b843593506020850135925060408501356125a281612b52565b9396929550929360600135925050565b6000602082840312156125c3578081fd5b81356001600160601b0381168114611123578182fd5b6000815180845260208085019450808401835b8381101561263d57815180516001600160a01b031688528381015184890152604080820151908901526060808201519089015260809081015115159088015260a090960195908201906001016125ec565b509495945050505050565b60008284528282602086013780602084860101526020601f19601f85011685010190509392505050565b6000828483379101908152919050565b60008251815b818110156126a25760208186018101518583015201612688565b818111156126b05782828501525b509190910192915050565b6001600160a01b039384168152919092166020820152604081019190915260600190565b600060018060a01b038716825285602083015260806040830152612707608083018587612648565b90506001600160601b03831660608301529695505050505050565b600060018060a01b038816825286602083015260a0604083015261274a60a083018688612648565b6001600160601b039490941660608301525060800152949350505050565b60006020808301818452808551808352604092508286019150828160051b870101848801865b8381101561287257888303603f19018552815180518452878101516001600160a01b03811689860152610180905081880151858901526060808301516001600160a01b03811682880152505060808083015182828801526127f1838801826125d9565b9250505060a08083015161280f828801826001600160601b03169052565b505060c0828101516001600160a01b03169086015260e0808301511515908601526101008083015115159086015261012080830151908601526101408083015151908601526101609182015115159190940152938601939086019060010161278e565b509098975050505050505050565b60208082526019908201527f73656e64657220646f6573206e6f74206f776e20746f6b656e00000000000000604082015260600190565b6020808252600f908201526e1d1c985b9cd9995c8811985a5b1959608a1b604082015260600190565b6020808252601f908201527f5265656e7472616e637947756172643a207265656e7472616e742063616c6c00604082015260600190565b6020808252601c908201527f5072696365206d757374206265206174206c6561737420312077656900000000604082015260600190565b6000808335601e19843603018112612964578283fd5b83018035915067ffffffffffffffff82111561297e578283fd5b602001915036819003821315611ecc57600080fd5b600082198211156129a6576129a6612b27565b500190565b6000826129c657634e487b7160e01b81526012600452602481fd5b500490565b80825b60018086116129dd57506122e8565b8187048211156129ef576129ef612b27565b808616156129fc57918102915b9490941c9380026129ce565b60006111236000198484600082612a2157506001611123565b81612a2e57506000611123565b8160018114612a445760028114612a4e57612a7b565b6001915050611123565b60ff841115612a5f57612a5f612b27565b6001841b915084821115612a7557612a75612b27565b50611123565b5060208310610133831016604e8410600b8410161715612aae575081810a83811115612aa957612aa9612b27565b611123565b612abb84848460016129cb565b808604821115612acd57612acd612b27565b02949350505050565b6000816000190483118215151615612af057612af0612b27565b500290565b600082821015612b0757612b07612b27565b500390565b6000600019821415612b2057612b20612b27565b5060010190565b634e487b7160e01b600052601160045260246000fd5b6001600160a01b03811681146120d657600080fd5b80151581146120d657600080fdfea26469706673582212205e77217888d07c710a13beb2e33ae3fe9f7935c75a7a96726d2e6624d50977aa64736f6c63430008030033",
  "linkReferences": {},
  "deployedLinkReferences": {}
}