{
  "_format": "hh-sol-artifact-1",
  "contractName": "ThredMarketplace",
  "sourceName": "contracts/ThredMarketplace/ThredMarketplace.sol",
  "abi": [
    {
      "inputs": [
        {
          "internalType": "string",
          "name": "domain",
          "type": "string"
        },
        {
          "internalType": "string",
          "name": "version",
          "type": "string"
        },
        {
          "internalType": "address",
          "name": "marketplaceAddress",
          "type": "address"
        }
      ],
      "stateMutability": "nonpayable",
      "type": "constructor"
    },
    {
      "anonymous": false,
      "inputs": [
        {
          "indexed": true,
          "internalType": "address",
          "name": "sender",
          "type": "address"
        },
        {
          "indexed": false,
          "internalType": "uint256",
          "name": "amount",
          "type": "uint256"
        }
      ],
      "name": "Bid",
      "type": "event"
    },
    {
      "anonymous": false,
      "inputs": [
        {
          "indexed": false,
          "internalType": "address",
          "name": "winner",
          "type": "address"
        },
        {
          "indexed": false,
          "internalType": "uint256",
          "name": "amount",
          "type": "uint256"
        }
      ],
      "name": "End",
      "type": "event"
    },
    {
      "anonymous": false,
      "inputs": [],
      "name": "Start",
      "type": "event"
    },
    {
      "anonymous": false,
      "inputs": [
        {
          "indexed": true,
          "internalType": "address",
          "name": "bidder",
          "type": "address"
        },
        {
          "indexed": false,
          "internalType": "uint256",
          "name": "amount",
          "type": "uint256"
        }
      ],
      "name": "Withdraw",
      "type": "event"
    },
    {
      "inputs": [
        {
          "internalType": "address payable",
          "name": "nftOwner",
          "type": "address"
        },
        {
          "internalType": "address payable",
          "name": "nftSeller",
          "type": "address"
        },
        {
          "internalType": "address",
          "name": "nftContract",
          "type": "address"
        },
        {
          "internalType": "address",
          "name": "token",
          "type": "address"
        },
        {
          "components": [
            {
              "internalType": "uint256",
              "name": "tokenId",
              "type": "uint256"
            },
            {
              "internalType": "uint256",
              "name": "minPrice",
              "type": "uint256"
            },
            {
              "internalType": "uint96",
              "name": "royalty",
              "type": "uint96"
            },
            {
              "internalType": "bool",
              "name": "isNative",
              "type": "bool"
            },
            {
              "internalType": "uint256",
              "name": "amount",
              "type": "uint256"
            },
            {
              "internalType": "bool",
              "name": "fungible",
              "type": "bool"
            },
            {
              "internalType": "string",
              "name": "uri",
              "type": "string"
            },
            {
              "internalType": "bytes",
              "name": "signature",
              "type": "bytes"
            }
          ],
          "internalType": "struct ThredMarketplace.NFTVoucher",
          "name": "voucher",
          "type": "tuple"
        }
      ],
      "name": "createMarketItem",
      "outputs": [
        {
          "internalType": "bool",
          "name": "",
          "type": "bool"
        }
      ],
      "stateMutability": "nonpayable",
      "type": "function"
    },
    {
      "inputs": [
        {
          "internalType": "uint256",
          "name": "item",
          "type": "uint256"
        },
        {
          "internalType": "uint256",
          "name": "variation",
          "type": "uint256"
        }
      ],
      "name": "createSale",
      "outputs": [
        {
          "internalType": "bool",
          "name": "",
          "type": "bool"
        }
      ],
      "stateMutability": "payable",
      "type": "function"
    },
    {
      "inputs": [
        {
          "internalType": "uint256",
          "name": "item",
          "type": "uint256"
        },
        {
          "internalType": "uint256",
          "name": "variation",
          "type": "uint256"
        }
      ],
      "name": "createSaleCustom",
      "outputs": [
        {
          "internalType": "bool",
          "name": "",
          "type": "bool"
        }
      ],
      "stateMutability": "nonpayable",
      "type": "function"
    },
    {
      "inputs": [
        {
          "internalType": "address",
          "name": "contractAddress",
          "type": "address"
        },
        {
          "internalType": "uint256",
          "name": "tokenId",
          "type": "uint256"
        }
      ],
      "name": "fetchCollectionAsset",
      "outputs": [
        {
          "components": [
            {
              "internalType": "uint256",
              "name": "itemId",
              "type": "uint256"
            },
            {
              "internalType": "address",
              "name": "nftContract",
              "type": "address"
            },
            {
              "internalType": "uint256",
              "name": "tokenId",
              "type": "uint256"
            },
            {
              "internalType": "address payable",
              "name": "owner",
              "type": "address"
            },
            {
              "components": [
                {
                  "internalType": "address payable",
                  "name": "seller",
                  "type": "address"
                },
                {
                  "internalType": "uint256",
                  "name": "price",
                  "type": "uint256"
                },
                {
                  "internalType": "uint256",
                  "name": "variationId",
                  "type": "uint256"
                },
                {
                  "internalType": "uint256",
                  "name": "itemId",
                  "type": "uint256"
                },
                {
                  "internalType": "bool",
                  "name": "forSale",
                  "type": "bool"
                }
              ],
              "internalType": "struct ThredMarketplace.Variation[]",
              "name": "variations",
              "type": "tuple[]"
            },
            {
              "internalType": "uint96",
              "name": "royalty",
              "type": "uint96"
            },
            {
              "internalType": "address",
              "name": "tokenContract",
              "type": "address"
            },
            {
              "internalType": "bool",
              "name": "isNative",
              "type": "bool"
            },
            {
              "internalType": "bool",
              "name": "minted",
              "type": "bool"
            },
            {
              "internalType": "uint256",
              "name": "amount",
              "type": "uint256"
            },
            {
              "components": [
                {
                  "internalType": "uint256",
                  "name": "_value",
                  "type": "uint256"
                }
              ],
              "internalType": "struct Counters.Counter",
              "name": "mintedVariations",
              "type": "tuple"
            },
            {
              "internalType": "bool",
              "name": "fungible",
              "type": "bool"
            },
            {
              "internalType": "string",
              "name": "tokenUri",
              "type": "string"
            }
          ],
          "internalType": "struct ThredMarketplace.MarketItem[]",
          "name": "",
          "type": "tuple[]"
        }
      ],
      "stateMutability": "view",
      "type": "function"
    },
    {
      "inputs": [
        {
          "internalType": "address",
          "name": "contractAddress",
          "type": "address"
        }
      ],
      "name": "fetchCollectionAssets",
      "outputs": [
        {
          "components": [
            {
              "internalType": "uint256",
              "name": "itemId",
              "type": "uint256"
            },
            {
              "internalType": "address",
              "name": "nftContract",
              "type": "address"
            },
            {
              "internalType": "uint256",
              "name": "tokenId",
              "type": "uint256"
            },
            {
              "internalType": "address payable",
              "name": "owner",
              "type": "address"
            },
            {
              "components": [
                {
                  "internalType": "address payable",
                  "name": "seller",
                  "type": "address"
                },
                {
                  "internalType": "uint256",
                  "name": "price",
                  "type": "uint256"
                },
                {
                  "internalType": "uint256",
                  "name": "variationId",
                  "type": "uint256"
                },
                {
                  "internalType": "uint256",
                  "name": "itemId",
                  "type": "uint256"
                },
                {
                  "internalType": "bool",
                  "name": "forSale",
                  "type": "bool"
                }
              ],
              "internalType": "struct ThredMarketplace.Variation[]",
              "name": "variations",
              "type": "tuple[]"
            },
            {
              "internalType": "uint96",
              "name": "royalty",
              "type": "uint96"
            },
            {
              "internalType": "address",
              "name": "tokenContract",
              "type": "address"
            },
            {
              "internalType": "bool",
              "name": "isNative",
              "type": "bool"
            },
            {
              "internalType": "bool",
              "name": "minted",
              "type": "bool"
            },
            {
              "internalType": "uint256",
              "name": "amount",
              "type": "uint256"
            },
            {
              "components": [
                {
                  "internalType": "uint256",
                  "name": "_value",
                  "type": "uint256"
                }
              ],
              "internalType": "struct Counters.Counter",
              "name": "mintedVariations",
              "type": "tuple"
            },
            {
              "internalType": "bool",
              "name": "fungible",
              "type": "bool"
            },
            {
              "internalType": "string",
              "name": "tokenUri",
              "type": "string"
            }
          ],
          "internalType": "struct ThredMarketplace.MarketItem[]",
          "name": "",
          "type": "tuple[]"
        }
      ],
      "stateMutability": "view",
      "type": "function"
    },
    {
      "inputs": [
        {
          "internalType": "address",
          "name": "contractAddress",
          "type": "address"
        }
      ],
      "name": "fetchCollectionAssetsOnMarket",
      "outputs": [
        {
          "components": [
            {
              "internalType": "uint256",
              "name": "itemId",
              "type": "uint256"
            },
            {
              "internalType": "address",
              "name": "nftContract",
              "type": "address"
            },
            {
              "internalType": "uint256",
              "name": "tokenId",
              "type": "uint256"
            },
            {
              "internalType": "address payable",
              "name": "owner",
              "type": "address"
            },
            {
              "components": [
                {
                  "internalType": "address payable",
                  "name": "seller",
                  "type": "address"
                },
                {
                  "internalType": "uint256",
                  "name": "price",
                  "type": "uint256"
                },
                {
                  "internalType": "uint256",
                  "name": "variationId",
                  "type": "uint256"
                },
                {
                  "internalType": "uint256",
                  "name": "itemId",
                  "type": "uint256"
                },
                {
                  "internalType": "bool",
                  "name": "forSale",
                  "type": "bool"
                }
              ],
              "internalType": "struct ThredMarketplace.Variation[]",
              "name": "variations",
              "type": "tuple[]"
            },
            {
              "internalType": "uint96",
              "name": "royalty",
              "type": "uint96"
            },
            {
              "internalType": "address",
              "name": "tokenContract",
              "type": "address"
            },
            {
              "internalType": "bool",
              "name": "isNative",
              "type": "bool"
            },
            {
              "internalType": "bool",
              "name": "minted",
              "type": "bool"
            },
            {
              "internalType": "uint256",
              "name": "amount",
              "type": "uint256"
            },
            {
              "components": [
                {
                  "internalType": "uint256",
                  "name": "_value",
                  "type": "uint256"
                }
              ],
              "internalType": "struct Counters.Counter",
              "name": "mintedVariations",
              "type": "tuple"
            },
            {
              "internalType": "bool",
              "name": "fungible",
              "type": "bool"
            },
            {
              "internalType": "string",
              "name": "tokenUri",
              "type": "string"
            }
          ],
          "internalType": "struct ThredMarketplace.MarketItem[]",
          "name": "",
          "type": "tuple[]"
        }
      ],
      "stateMutability": "view",
      "type": "function"
    },
    {
      "inputs": [
        {
          "internalType": "address",
          "name": "marketAddress",
          "type": "address"
        }
      ],
      "name": "fetchMarketAssets",
      "outputs": [
        {
          "components": [
            {
              "internalType": "uint256",
              "name": "itemId",
              "type": "uint256"
            },
            {
              "internalType": "address",
              "name": "nftContract",
              "type": "address"
            },
            {
              "internalType": "uint256",
              "name": "tokenId",
              "type": "uint256"
            },
            {
              "internalType": "address payable",
              "name": "owner",
              "type": "address"
            },
            {
              "components": [
                {
                  "internalType": "address payable",
                  "name": "seller",
                  "type": "address"
                },
                {
                  "internalType": "uint256",
                  "name": "price",
                  "type": "uint256"
                },
                {
                  "internalType": "uint256",
                  "name": "variationId",
                  "type": "uint256"
                },
                {
                  "internalType": "uint256",
                  "name": "itemId",
                  "type": "uint256"
                },
                {
                  "internalType": "bool",
                  "name": "forSale",
                  "type": "bool"
                }
              ],
              "internalType": "struct ThredMarketplace.Variation[]",
              "name": "variations",
              "type": "tuple[]"
            },
            {
              "internalType": "uint96",
              "name": "royalty",
              "type": "uint96"
            },
            {
              "internalType": "address",
              "name": "tokenContract",
              "type": "address"
            },
            {
              "internalType": "bool",
              "name": "isNative",
              "type": "bool"
            },
            {
              "internalType": "bool",
              "name": "minted",
              "type": "bool"
            },
            {
              "internalType": "uint256",
              "name": "amount",
              "type": "uint256"
            },
            {
              "components": [
                {
                  "internalType": "uint256",
                  "name": "_value",
                  "type": "uint256"
                }
              ],
              "internalType": "struct Counters.Counter",
              "name": "mintedVariations",
              "type": "tuple"
            },
            {
              "internalType": "bool",
              "name": "fungible",
              "type": "bool"
            },
            {
              "internalType": "string",
              "name": "tokenUri",
              "type": "string"
            }
          ],
          "internalType": "struct ThredMarketplace.MarketItem[]",
          "name": "",
          "type": "tuple[]"
        }
      ],
      "stateMutability": "view",
      "type": "function"
    },
    {
      "inputs": [],
      "name": "getChainID",
      "outputs": [
        {
          "internalType": "uint256",
          "name": "",
          "type": "uint256"
        }
      ],
      "stateMutability": "view",
      "type": "function"
    },
    {
      "inputs": [
        {
          "components": [
            {
              "internalType": "uint256",
              "name": "tokenId",
              "type": "uint256"
            },
            {
              "internalType": "uint256",
              "name": "minPrice",
              "type": "uint256"
            },
            {
              "internalType": "uint96",
              "name": "royalty",
              "type": "uint96"
            },
            {
              "internalType": "bool",
              "name": "isNative",
              "type": "bool"
            },
            {
              "internalType": "uint256",
              "name": "amount",
              "type": "uint256"
            },
            {
              "internalType": "bool",
              "name": "fungible",
              "type": "bool"
            },
            {
              "internalType": "string",
              "name": "uri",
              "type": "string"
            },
            {
              "internalType": "bytes",
              "name": "signature",
              "type": "bytes"
            }
          ],
          "internalType": "struct ThredMarketplace.NFTVoucher",
          "name": "voucher",
          "type": "tuple"
        },
        {
          "internalType": "address",
          "name": "contractAddress",
          "type": "address"
        }
      ],
      "name": "mintAndTransfer",
      "outputs": [
        {
          "internalType": "bool",
          "name": "",
          "type": "bool"
        }
      ],
      "stateMutability": "payable",
      "type": "function"
    },
    {
      "inputs": [
        {
          "components": [
            {
              "internalType": "uint256",
              "name": "tokenId",
              "type": "uint256"
            },
            {
              "internalType": "uint256",
              "name": "minPrice",
              "type": "uint256"
            },
            {
              "internalType": "uint96",
              "name": "royalty",
              "type": "uint96"
            },
            {
              "internalType": "bool",
              "name": "isNative",
              "type": "bool"
            },
            {
              "internalType": "uint256",
              "name": "amount",
              "type": "uint256"
            },
            {
              "internalType": "bool",
              "name": "fungible",
              "type": "bool"
            },
            {
              "internalType": "string",
              "name": "uri",
              "type": "string"
            },
            {
              "internalType": "bytes",
              "name": "signature",
              "type": "bytes"
            }
          ],
          "internalType": "struct ThredMarketplace.NFTVoucher",
          "name": "voucher",
          "type": "tuple"
        },
        {
          "internalType": "address",
          "name": "contractAddress",
          "type": "address"
        }
      ],
      "name": "mintAndTransferCustom",
      "outputs": [
        {
          "internalType": "bool",
          "name": "",
          "type": "bool"
        }
      ],
      "stateMutability": "nonpayable",
      "type": "function"
    },
    {
      "inputs": [
        {
          "components": [
            {
              "internalType": "uint256",
              "name": "tokenId",
              "type": "uint256"
            },
            {
              "internalType": "uint256",
              "name": "minPrice",
              "type": "uint256"
            },
            {
              "internalType": "uint96",
              "name": "royalty",
              "type": "uint96"
            },
            {
              "internalType": "bool",
              "name": "isNative",
              "type": "bool"
            },
            {
              "internalType": "uint256",
              "name": "amount",
              "type": "uint256"
            },
            {
              "internalType": "bool",
              "name": "fungible",
              "type": "bool"
            },
            {
              "internalType": "string",
              "name": "uri",
              "type": "string"
            },
            {
              "internalType": "bytes",
              "name": "signature",
              "type": "bytes"
            }
          ],
          "internalType": "struct ThredMarketplace.NFTVoucher",
          "name": "voucher",
          "type": "tuple"
        },
        {
          "internalType": "address",
          "name": "nftContract",
          "type": "address"
        }
      ],
      "name": "mintNFT",
      "outputs": [
        {
          "internalType": "bool",
          "name": "",
          "type": "bool"
        }
      ],
      "stateMutability": "nonpayable",
      "type": "function"
    },
    {
      "inputs": [
        {
          "internalType": "uint256",
          "name": "itemId",
          "type": "uint256"
        },
        {
          "internalType": "uint256",
          "name": "v",
          "type": "uint256"
        },
        {
          "internalType": "address",
          "name": "from",
          "type": "address"
        },
        {
          "internalType": "address",
          "name": "to",
          "type": "address"
        }
      ],
      "name": "transferNFTSale",
      "outputs": [
        {
          "internalType": "bool",
          "name": "",
          "type": "bool"
        }
      ],
      "stateMutability": "payable",
      "type": "function"
    },
    {
      "inputs": [
        {
          "internalType": "uint256",
          "name": "itemId",
          "type": "uint256"
        },
        {
          "internalType": "uint256",
          "name": "variation",
          "type": "uint256"
        },
        {
          "internalType": "bool",
          "name": "forSale",
          "type": "bool"
        },
        {
          "internalType": "uint256",
          "name": "price",
          "type": "uint256"
        }
      ],
      "name": "updateItem",
      "outputs": [
        {
          "internalType": "bool",
          "name": "",
          "type": "bool"
        }
      ],
      "stateMutability": "nonpayable",
      "type": "function"
    },
    {
      "inputs": [
        {
          "components": [
            {
              "internalType": "uint256",
              "name": "tokenId",
              "type": "uint256"
            },
            {
              "internalType": "uint256",
              "name": "minPrice",
              "type": "uint256"
            },
            {
              "internalType": "uint96",
              "name": "royalty",
              "type": "uint96"
            },
            {
              "internalType": "bool",
              "name": "isNative",
              "type": "bool"
            },
            {
              "internalType": "uint256",
              "name": "amount",
              "type": "uint256"
            },
            {
              "internalType": "bool",
              "name": "fungible",
              "type": "bool"
            },
            {
              "internalType": "string",
              "name": "uri",
              "type": "string"
            },
            {
              "internalType": "bytes",
              "name": "signature",
              "type": "bytes"
            }
          ],
          "internalType": "struct ThredMarketplace.NFTVoucher",
          "name": "voucher",
          "type": "tuple"
        }
      ],
      "name": "verify",
      "outputs": [
        {
          "internalType": "address",
          "name": "",
          "type": "address"
        }
      ],
      "stateMutability": "view",
      "type": "function"
    }
  ],
  "bytecode": "0x6101406040523480156200001257600080fd5b5060405162003b2638038062003b268339810160408190526200003591620001ad565b6001600055825160208085019190912083518483012060e08290526101008190524660a0818152604080517f8b73c3c69bb8fe3d512ecc4cf759cc79239f7b179b0ffacaa9a75d522b39400f81880181905281830187905260608201869052608082019490945230818401528151808203909301835260c001905280519401939093208693869392916080523060601b60c052610120525050600380546001600160a01b0319166001600160a01b039490941693909317909255506200024c92505050565b600082601f8301126200010b578081fd5b81516001600160401b038082111562000128576200012862000236565b604051601f8301601f19908116603f0116810190828211818310171562000153576200015362000236565b816040528381526020925086838588010111156200016f578485fd5b8491505b8382101562000192578582018301518183018401529082019062000173565b83821115620001a357848385830101525b9695505050505050565b600080600060608486031215620001c2578283fd5b83516001600160401b0380821115620001d9578485fd5b620001e787838801620000fa565b94506020860151915080821115620001fd578384fd5b506200020c86828701620000fa565b604086015190935090506001600160a01b03811681146200022b578182fd5b809150509250925092565b634e487b7160e01b600052604160045260246000fd5b60805160a05160c05160601c60e05161010051610120516138876200029f6000396000612c6701526000612cb601526000612c9101526000612be801526000612c1201526000612c3c01526138876000f3fe6080604052600436106100dd5760003560e01c806387bb44bd1161007f578063d8f9b50d11610059578063d8f9b50d14610244578063dadfb61a14610257578063dd6a1fbd14610277578063fa662b7414610292576100dd565b806387bb44bd146101cc578063a4747be5146101ec578063ade1e7701461020c576100dd565b8063564b81ef116100bb578063564b81ef1461015b5780636019061b1461017e5780636214d427146101915780637c503420146101ac576100dd565b80630ea29a26146100e257806348fc7cd41461011857806350517bad1461013b575b600080fd5b3480156100ee57600080fd5b506101026100fd366004612f77565b6102b2565b60405161010f91906133c0565b60405180910390f35b61012b6101263660046130eb565b610733565b604051901515815260200161010f565b34801561014757600080fd5b5061012b610156366004612ef1565b61077c565b34801561016757600080fd5b506101706107ee565b60405190815260200161010f565b61012b61018c366004613153565b6107f3565b34801561019d57600080fd5b5061012b6101263660046130eb565b3480156101b857600080fd5b506101026101c7366004612eb9565b610831565b3480156101d857600080fd5b506101026101e7366004612eb9565b610b42565b3480156101f857600080fd5b50610102610207366004612eb9565b610fc7565b34801561021857600080fd5b5061022c6102273660046130b0565b611401565b6040516001600160a01b03909116815260200161010f565b61012b610252366004613174565b611461565b34801561026357600080fd5b5061012b6102723660046130eb565b6114f0565b34801561028357600080fd5b5061012b61018c366004613153565b34801561029e57600080fd5b5061012b6102ad3660046131bd565b61156b565b606060006102bf60015490565b60408051600180825281830190925291925060009190816020015b6102e2612e2c565b8152602001906001900390816102da57905050905060005b8281101561072a576001600160a01b0386166002600061031b846001613609565b81526020810191909152604001600020600101546001600160a01b031614801561036457508460026000610350846001613609565b815260200190815260200160002060020154145b15610718576000610376826001613609565b600081815260026020818152604080842081516101a0810183528154815260018201546001600160a01b03908116828601529482015481840152600382015490941660608501526004810180548351818602810186019094528084529697509495939490936080860193879084015b828210156104515760008481526020908190206040805160a0810182526005860290920180546001600160a01b0316835260018082015484860152600282015492840192909252600381015460608401526004015460ff161515608083015290835290920191016103e5565b5050509082525060058201546001600160601b038116602080840191909152600160601b9091046001600160a01b0316604080840191909152600684015460ff8082161515606086015261010091829004811615156080860152600786015460a086015282519384019092526008850154835260c0840192909252600984015416151560e0830152600a830180549190920191906104ee906137b2565b80601f016020809104026020016040519081016040528092919081815260200182805461051a906137b2565b80156105675780601f1061053c57610100808354040283529160200191610567565b820191906000526020600020905b81548152906001019060200180831161054a57829003601f168201915b505050505081525050905060005b8160800151518110156106e357602082015160408084015190516331a9108f60e11b815282916001600160a01b03831691636352211e916105bc9160040190815260200190565b60206040518083038186803b1580156105d457600080fd5b505afa1580156105e8573d6000803e3d6000fd5b505050506040513d601f19601f8201168201806040525081019061060c9190612ed5565b8460800151848151811061063057634e487b7160e01b600052603260045260246000fd5b60209081029190910101516001600160a01b039182169052604080860151905163c87b56dd60e01b81529183169163c87b56dd916106749160040190815260200190565b60006040518083038186803b15801561068c57600080fd5b505afa1580156106a0573d6000803e3d6000fd5b505050506040513d6000823e601f3d908101601f191682016040526106c89190810190613007565b610180850152508190506106db816137e7565b915050610575565b50808460008151811061070657634e487b7160e01b600052603260045260246000fd5b6020026020010181905250505061072a565b80610722816137e7565b9150506102fa565b50949350505050565b6000600260005414156107615760405162461bcd60e51b815260040161075890613556565b60405180910390fd5b600260005561077083836118c4565b60016000559392505050565b6000600260005414156107a15760405162461bcd60e51b815260040161075890613556565b600260009081556001546107b6906001613609565b905060006107c8888888888887611986565b905080156107de576107de600180546001019055565b6001600055979650505050505050565b465b90565b6000600260005414156108185760405162461bcd60e51b815260040161075890613556565b60026000556107708361082c60018561376b565b611b95565b6060600061083e60015490565b90506000808267ffffffffffffffff81111561086a57634e487b7160e01b600052604160045260246000fd5b6040519080825280602002602001820160405280156108a357816020015b610890612e2c565b8152602001906001900390816108885790505b50905060005b8381101561072a576001600160a01b038616600260006108ca846001613609565b81526020810191909152604001600020600301546001600160a01b03161415610b305760006108fa826001613609565b600081815260026020818152604080842081516101a0810183528154815260018201546001600160a01b0390811682860152948201548184015260038201549094166060850152600481018054835181860281018601909452808452969750909593948694608087019490919084015b828210156109d65760008481526020908190206040805160a0810182526005860290920180546001600160a01b0316835260018082015484860152600282015492840192909252600381015460608401526004015460ff1615156080830152908352909201910161096a565b5050509082525060058201546001600160601b038116602080840191909152600160601b9091046001600160a01b0316604080840191909152600684015460ff8082161515606086015261010091829004811615156080860152600786015460a086015282519384019092526008850154835260c0840192909252600984015416151560e0830152600a83018054919092019190610a73906137b2565b80601f0160208091040260200160405190810160405280929190818152602001828054610a9f906137b2565b8015610aec5780601f10610ac157610100808354040283529160200191610aec565b820191906000526020600020905b815481529060010190602001808311610acf57829003601f168201915b505050505081525050848681518110610b1557634e487b7160e01b600052603260045260246000fd5b6020908102919091010152610b2b600186613609565b945050505b80610b3a816137e7565b9150506108a9565b60606000610b4f60015490565b90506000808267ffffffffffffffff811115610b7b57634e487b7160e01b600052604160045260246000fd5b604051908082528060200260200182016040528015610bb457816020015b610ba1612e2c565b815260200190600190039081610b995790505b50905060005b8381101561072a576001600160a01b03861660026000610bdb846001613609565b81526020810191909152604001600020600101546001600160a01b03161415610fb5576000610c0b826001613609565b600081815260026020818152604080842081516101a0810183528154815260018201546001600160a01b03908116828601529482015481840152600382015490941660608501526004810180548351818602810186019094528084529697509495939490936080860193879084015b82821015610ce65760008481526020908190206040805160a0810182526005860290920180546001600160a01b0316835260018082015484860152600282015492840192909252600381015460608401526004015460ff16151560808301529083529092019101610c7a565b5050509082525060058201546001600160601b038116602080840191909152600160601b9091046001600160a01b0316604080840191909152600684015460ff8082161515606086015261010091829004811615156080860152600786015460a086015282519384019092526008850154835260c0840192909252600984015416151560e0830152600a83018054919092019190610d83906137b2565b80601f0160208091040260200160405190810160405280929190818152602001828054610daf906137b2565b8015610dfc5780601f10610dd157610100808354040283529160200191610dfc565b820191906000526020600020905b815481529060010190602001808311610ddf57829003601f168201915b505050505081525050905060005b816080015151811015610f7857602082015160408084015190516331a9108f60e11b815282916001600160a01b03831691636352211e91610e519160040190815260200190565b60206040518083038186803b158015610e6957600080fd5b505afa158015610e7d573d6000803e3d6000fd5b505050506040513d601f19601f82011682018060405250810190610ea19190612ed5565b84608001518481518110610ec557634e487b7160e01b600052603260045260246000fd5b60209081029190910101516001600160a01b039182169052604080860151905163c87b56dd60e01b81529183169163c87b56dd91610f099160040190815260200190565b60006040518083038186803b158015610f2157600080fd5b505afa158015610f35573d6000803e3d6000fd5b505050506040513d6000823e601f3d908101601f19168201604052610f5d9190810190613007565b61018085015250819050610f70816137e7565b915050610e0a565b5080848681518110610f9a57634e487b7160e01b600052603260045260246000fd5b6020908102919091010152610fb0600186613609565b945050505b80610fbf816137e7565b915050610bba565b606060008290506000816001600160a01b03166318160ddd6040518163ffffffff1660e01b815260040160206040518083038186803b15801561100957600080fd5b505afa15801561101d573d6000803e3d6000fd5b505050506040513d601f19601f82011682018060405250810190611041919061313b565b90506000808267ffffffffffffffff81111561106d57634e487b7160e01b600052604160045260246000fd5b6040519080825280602002602001820160405280156110a657816020015b611093612e2c565b81526020019060019003908161108b5790505b50905060005b838110156113f757604080516001808252818301909252600091816020015b6111086040518060a0016040528060006001600160a01b031681526020016000815260200160008152602001600081526020016000151581525090565b8152602001906001900390816110cb57905050604051634f6ccce760e01b8152600481018490529091506000906001600160a01b03881690634f6ccce79060240160206040518083038186803b15801561116157600080fd5b505afa158015611175573d6000803e3d6000fd5b505050506040513d601f19601f82011682018060405250810190611199919061313b565b6040516331a9108f60e11b815260048101829052909150899081906000906001600160a01b03831690636352211e9060240160206040518083038186803b1580156111e357600080fd5b505afa1580156111f7573d6000803e3d6000fd5b505050506040513d601f19601f8201168201806040525081019061121b9190612ed5565b60405163c87b56dd60e01b8152600481018690529091506000906001600160a01b0384169063c87b56dd9060240160006040518083038186803b15801561126157600080fd5b505afa158015611275573d6000803e3d6000fd5b505050506040513d6000823e601f3d908101601f1916820160405261129d9190810190613007565b90506040518060a00160405280836001600160a01b0316815260200160008152602001600081526020016000815260200160001515815250866000815181106112f657634e487b7160e01b600052603260045260246000fd5b60200260200101819052506000604051806101a00160405280600081526020018f6001600160a01b03168152602001878152602001846001600160a01b0316815260200188815260200160006001600160601b0316815260200160006001600160a01b03168152602001600115158152602001600115158152602001600181526020016001604051806020016040529081600082015481525050815260200160001515815260200183815250905080898b815181106113c557634e487b7160e01b600052603260045260246000fd5b60209081029190910101526113db60018b613609565b99505050505050505080806113ef906137e7565b9150506110ac565b5095945050505050565b60008061140d8361217f565b905061145a8161142060e08601866135c4565b8080601f01602080910402602001604051908101604052809392919081815260200183838082843760009201919091525061226d92505050565b9392505050565b6000600260005414156114865760405162461bcd60e51b815260040161075890613556565b60026000556003546001600160a01b031633146114d65760405162461bcd60e51b815260206004820152600e60248201526d139bdd08105d5d1a1bdc9a5e995960921b6044820152606401610758565b6114e285858486612291565b600160005595945050505050565b6000600260005414156115155760405162461bcd60e51b815260040161075890613556565b6002600055602083013561153b5760405162461bcd60e51b81526004016107589061358d565b600061154660015490565b611551906001613609565b905061155e84848361248b565b6001600055949350505050565b6000848152600260205260408120600981015482919060ff1615611695578054600090815260026020819052604080832060018101549201549051627eeac760e11b815233600482015260248101919091526001600160a01b039091169190829062fdd58e9060440160206040518083038186803b1580156115ec57600080fd5b505afa158015611600573d6000803e3d6000fd5b505050506040513d601f19601f82011682018060405250810190611624919061313b565b116116415760405162461bcd60e51b8152600401610758906134f6565b600088815260026020526040902060040180548890811061167257634e487b7160e01b600052603260045260246000fd5b60009182526020909120600590910201546001600160a01b0316925061172e9050565b8054600090815260026020819052604091829020600181015491015491516331a9108f60e11b815260048101929092526001600160a01b0316908190636352211e9060240160206040518083038186803b1580156116f257600080fd5b505afa158015611706573d6000803e3d6000fd5b505050506040513d601f19601f8201168201806040525081019061172a9190612ed5565b9250505b336001600160a01b038316146117565760405162461bcd60e51b8152600401610758906134f6565b600084116117765760405162461bcd60e51b81526004016107589061358d565b60008781526002602052604090206004018054859190889081106117aa57634e487b7160e01b600052603260045260246000fd5b906000526020600020906005020160010181905550846002600089815260200190815260200160002060040187815481106117f557634e487b7160e01b600052603260045260246000fd5b6000918252602080832060046005909302018201805494151560ff19909516949094179093558982526002909252604090200180548391908890811061184b57634e487b7160e01b600052603260045260246000fd5b6000918252602090912060059091020180546001600160a01b0319166001600160a01b0392909216919091179055841515600114156118b7578054600090815260026020819052604090912060018101549101546118b5916001600160a01b031690869033612797565b505b5060019695505050505050565b6000808360200135116118e95760405162461bcd60e51b81526004016107589061358d565b60006118f460015490565b6118ff906001613609565b9050600061190e85858461248b565b9050806119525760405162461bcd60e51b815260206004820152601260248201527111985a5b1959081d1bc8135a5b9d0813919560721b6044820152606401610758565b6000828152600260205260408120600801546119709060019061376b565b905061197c8382611b95565b9695505050505050565b6000808360200135116119ab5760405162461bcd60e51b81526004016107589061358d565b6000828152600260208190526040918290208481556001810180546001600160a01b03808b166001600160a01b03199283161790925587359383019390935560039091018054918b1691909216179055611a0b90606085019085016131fb565b60008381526002602052604090206001600160601b0391909116600160601b6001600160a01b0387160217600590910155611a4c6080840160608501612fcf565b600083815260026020526040902060068101805461ff00199315159390931661ffff1990931692909217610100179091556080840135600790910155611a9860c0840160a08501612fcf565b600083815260026020818152604080842060098101805460ff191696151596909617909555805160a0810182526001600160a01b038c168152888301358184015293879052919052600483019290820190611af4906008015490565b8152602080820186905260016040928301819052845480820186556000958652828620855160059092020180546001600160a01b0319166001600160a01b03909216919091178155848301518183015584840151600280830191909155606086015160038301556080909501516004909101805460ff1916911515919091179055868552929052909120600801805490910190555060019695505050505050565b6000828152600260205260408120600481018054839291839186908110611bcc57634e487b7160e01b600052603260045260246000fd5b6000918252602090912060046005909202019081015490915060ff161515600114611c285760405162461bcd60e51b815260206004820152600c60248201526b4e6f7420666f722073616c6560a01b6044820152606401610758565b8060010154925060008311611c4f5760405162461bcd60e51b81526004016107589061358d565b80546001600160a01b03166000611c67856003612847565b6001850154600286015460405163152a902d60e11b81526004810191909152602481018890529192506001600160a01b03169060009081908390632a55205a90604401604080518083038186803b158015611cc157600080fd5b505afa158015611cd5573d6000803e3d6000fd5b505050506040513d601f19601f82011682018060405250810190611cf99190612fa2565b90925090506000611d1482611d0e8b8861288c565b9061288c565b600989015490915060ff1615611dd3576001880154600789015460028a0154604051627eeac760e11b815233600482015260248101919091526001600160a01b0390921691829062fdd58e9060440160206040518083038186803b158015611d7b57600080fd5b505afa158015611d8f573d6000803e3d6000fd5b505050506040513d601f19601f82011682018060405250810190611db3919061313b565b1015611dd15760405162461bcd60e51b8152600401610758906134f6565b505b600688015460ff1680611df857506005880154600160601b90046001600160a01b0316155b15611eab576040516001600160a01b0387169082156108fc029083906000818181858888f19350505050158015611e33573d6000803e3d6000fd5b506003546040516001600160a01b039091169086156108fc029087906000818181858888f19350505050158015611e6e573d6000803e3d6000fd5b506040516001600160a01b0384169083156108fc029084906000818181858888f19350505050158015611ea5573d6000803e3d6000fd5b50612163565b6005880154604051636eb1769f60e11b8152336004820152306024820152600160601b9091046001600160a01b0316908a90829063dd62ed3e9060440160206040518083038186803b158015611f0057600080fd5b505afa158015611f14573d6000803e3d6000fd5b505050506040513d601f19601f82011682018060405250810190611f38919061313b565b10612120576040516323b872dd60e01b81526001600160a01b038216906323b872dd90611f6d9033908b908790600401613313565b602060405180830381600087803b158015611f8757600080fd5b505af1158015611f9b573d6000803e3d6000fd5b505050506040513d601f19601f82011682018060405250810190611fbf9190612feb565b611fdb5760405162461bcd60e51b81526004016107589061352d565b6003546040516323b872dd60e01b81526001600160a01b03808416926323b872dd9261200f92339216908b90600401613313565b602060405180830381600087803b15801561202957600080fd5b505af115801561203d573d6000803e3d6000fd5b505050506040513d601f19601f820116820180604052508101906120619190612feb565b61207d5760405162461bcd60e51b81526004016107589061352d565b6040516323b872dd60e01b81526001600160a01b038216906323b872dd906120ad90339088908890600401613313565b602060405180830381600087803b1580156120c757600080fd5b505af11580156120db573d6000803e3d6000fd5b505050506040513d601f19601f820116820180604052508101906120ff9190612feb565b61211b5760405162461bcd60e51b81526004016107589061352d565b612161565b60405162461bcd60e51b8152602060048201526016602482015275496e73756666696369656e7420416c6c6f77616e636560501b6044820152606401610758565b505b61216f8c8c8833612291565b9c9b505050505050505050505050565b60006122677f9f1b4f1ae6f22c440250f116238e331a00e9e0958ff40b35a30f5bd632c98b51833560208501356121bc60608701604088016131fb565b6121cc6080880160608901612fcf565b60808801356121e160c08a0160a08b01612fcf565b6121ee60c08b018b6135c4565b6040516121fc9291906132e7565b60408051918290038220602083019990995281019690965260608601949094526001600160601b039092166080850152151560a084015260c0830152151560e08201526101008101919091526101200160405160208183030381529060405280519060200120612898565b92915050565b600080600061227c85856128e6565b9150915061228981612956565b509392505050565b6000848152600260205260408120600481018054839190879081106122c657634e487b7160e01b600052603260045260246000fd5b6000918252602090912060046005909202019081015490915060ff1615156001146123225760405162461bcd60e51b815260206004820152600c60248201526b4e6f7420666f722073616c6560a01b6044820152606401610758565b600180830154908201546002840154612347926001600160a01b031691908890612b5c565b50600982015460ff16156123e8576001828101546002840154604051637921219560e11b81526001600160a01b03898116600483015288811660248301526044820192909252606481019390935260a06084840152600060a48401521690819063f242432a9060c401600060405180830381600087803b1580156123ca57600080fd5b505af11580156123de573d6000803e3d6000fd5b5050505050612458565b600182015460028301546040516323b872dd60e01b81526001600160a01b039092169182916323b872dd91612424918a918a9190600401613313565b600060405180830381600087803b15801561243e57600080fd5b505af1158015612452573d6000803e3d6000fd5b50505050505b80546001600160a01b0385166001600160a01b0319909116178155600401805460ff191690555060019050949350505050565b6000818152600260205260408120600781015460089091015411156124e25760405162461bcd60e51b815260206004820152600d60248201526c4d696e74204f766572666c6f7760981b6044820152606401610758565b60006124ed85611401565b9050600061250160c0870160a08801612fcf565b1561262857846001600160a01b038116633ef1f7a684893561252660c08c018c6135c4565b61253660608e0160408f016131fb565b8d608001356040518763ffffffff1660e01b815260040161255c9695949392919061337a565b602060405180830381600087803b15801561257657600080fd5b505af115801561258a573d6000803e3d6000fd5b505050506040513d601f19601f820116820180604052508101906125ae9190612feb565b50806001600160a01b031663899e31066040518163ffffffff1660e01b815260040160206040518083038186803b1580156125e857600080fd5b505afa1580156125fc573d6000803e3d6000fd5b505050506040513d601f19601f820116820180604052508101906126209190612ed5565b915050612740565b846001600160a01b03811663a2b929ea84893561264860c08c018c6135c4565b61265860608e0160408f016131fb565b6040518663ffffffff1660e01b8152600401612678959493929190613337565b602060405180830381600087803b15801561269257600080fd5b505af11580156126a6573d6000803e3d6000fd5b505050506040513d601f19601f820116820180604052508101906126ca9190612feb565b50806001600160a01b031663899e31066040518163ffffffff1660e01b815260040160206040518083038186803b15801561270457600080fd5b505afa158015612718573d6000803e3d6000fd5b505050506040513d601f19601f8201168201806040525081019061273c9190612ed5565b9150505b6000612750838488858b8a611986565b9050801561197c57612766600180546001019055565b61278c868860200135600260008981526020019081526020016000206002015486612797565b509695505050505050565b604051602481018490526001600160a01b03828116604483015260648201849052600091829187169060840160408051601f198184030181529181526020820180516001600160e01b0316633f2c55ab60e21b179052516127f891906132f7565b6000604051808303816000865af19150503d8060008114612835576040519150601f19603f3d011682016040523d82523d6000602084013e61283a565b606091505b5090979650505050505050565b6000806128756128596002600a61367e565b61286490606461374c565b61286f866064612bc3565b90612bcf565b905060006128838285612bc3565b95945050505050565b600061145a828461376b565b60006122676128a5612bdb565b8360405161190160f01b6020820152602281018390526042810182905260009060620160405160208183030381529060405280519060200120905092915050565b60008082516041141561291d5760208301516040840151606085015160001a61291187828585612d06565b9450945050505061294f565b825160401415612947576020830151604084015161293c868383612df3565b93509350505061294f565b506000905060025b9250929050565b600081600481111561297857634e487b7160e01b600052602160045260246000fd5b141561298357612b59565b60018160048111156129a557634e487b7160e01b600052602160045260246000fd5b14156129f35760405162461bcd60e51b815260206004820152601860248201527f45434453413a20696e76616c6964207369676e617475726500000000000000006044820152606401610758565b6002816004811115612a1557634e487b7160e01b600052602160045260246000fd5b1415612a635760405162461bcd60e51b815260206004820152601f60248201527f45434453413a20696e76616c6964207369676e6174757265206c656e677468006044820152606401610758565b6003816004811115612a8557634e487b7160e01b600052602160045260246000fd5b1415612ade5760405162461bcd60e51b815260206004820152602260248201527f45434453413a20696e76616c6964207369676e6174757265202773272076616c604482015261756560f01b6064820152608401610758565b6004816004811115612b0057634e487b7160e01b600052602160045260246000fd5b1415612b595760405162461bcd60e51b815260206004820152602260248201527f45434453413a20696e76616c6964207369676e6174757265202776272076616c604482015261756560f01b6064820152608401610758565b50565b604051602481018490523360448201526001600160a01b03838116606483015260848201839052600091829187169060a40160408051601f198184030181529181526020820180516001600160e01b0316639841aa7560e01b179052516127f891906132f7565b600061145a828461374c565b600061145a8284613621565b6000306001600160a01b037f000000000000000000000000000000000000000000000000000000000000000016148015612c3457507f000000000000000000000000000000000000000000000000000000000000000046145b15612c6057507f00000000000000000000000000000000000000000000000000000000000000006107f0565b50604080517f00000000000000000000000000000000000000000000000000000000000000006020808301919091527f0000000000000000000000000000000000000000000000000000000000000000828401527f000000000000000000000000000000000000000000000000000000000000000060608301524660808301523060a0808401919091528351808403909101815260c090920190925280519101206107f0565b6000807f7fffffffffffffffffffffffffffffff5d576e7357a4501ddfe92f46681b20a0831115612d3d5750600090506003612dea565b8460ff16601b14158015612d5557508460ff16601c14155b15612d665750600090506004612dea565b6040805160008082526020820180845289905260ff881692820192909252606081018690526080810185905260019060a0016020604051602081039080840390855afa158015612dba573d6000803e3d6000fd5b5050604051601f1901519150506001600160a01b038116612de357600060019250925050612dea565b9150600090505b94509492505050565b6000806001600160ff1b03831681612e1060ff86901c601b613609565b9050612e1e87828885612d06565b935093505050935093915050565b604080516101a081018252600080825260208083018290528284018290526060808401839052608084015260a0830182905260c0830182905260e08301829052610100830182905261012083018290528351908101909352825290610140820190815260006020820152606060409091015290565b60006101008284031215612eb3578081fd5b50919050565b600060208284031215612eca578081fd5b813561145a8161382e565b600060208284031215612ee6578081fd5b815161145a8161382e565b600080600080600060a08688031215612f08578081fd5b8535612f138161382e565b94506020860135612f238161382e565b93506040860135612f338161382e565b92506060860135612f438161382e565b9150608086013567ffffffffffffffff811115612f5e578182fd5b612f6a88828901612ea1565b9150509295509295909350565b60008060408385031215612f89578182fd5b8235612f948161382e565b946020939093013593505050565b60008060408385031215612fb4578182fd5b8251612fbf8161382e565b6020939093015192949293505050565b600060208284031215612fe0578081fd5b813561145a81613843565b600060208284031215612ffc578081fd5b815161145a81613843565b600060208284031215613018578081fd5b815167ffffffffffffffff8082111561302f578283fd5b818401915084601f830112613042578283fd5b81518181111561305457613054613818565b604051601f8201601f19908116603f0116810190838211818310171561307c5761307c613818565b81604052828152876020848701011115613094578586fd5b6130a5836020830160208801613782565b979650505050505050565b6000602082840312156130c1578081fd5b813567ffffffffffffffff8111156130d7578182fd5b6130e384828501612ea1565b949350505050565b600080604083850312156130fd578182fd5b823567ffffffffffffffff811115613113578283fd5b61311f85828601612ea1565b92505060208301356131308161382e565b809150509250929050565b60006020828403121561314c578081fd5b5051919050565b60008060408385031215613165578182fd5b50508035926020909101359150565b60008060008060808587031215613189578384fd5b843593506020850135925060408501356131a28161382e565b915060608501356131b28161382e565b939692955090935050565b600080600080608085870312156131d2578182fd5b843593506020850135925060408501356131eb81613843565b9396929550929360600135925050565b60006020828403121561320c578081fd5b81356001600160601b038116811461145a578182fd5b6000815180845260208085019450808401835b8381101561328657815180516001600160a01b031688528381015184890152604080820151908901526060808201519089015260809081015115159088015260a09096019590820190600101613235565b509495945050505050565b60008284528282602086013780602084860101526020601f19601f85011685010190509392505050565b600081518084526132d3816020860160208601613782565b601f01601f19169290920160200192915050565b6000828483379101908152919050565b60008251613309818460208701613782565b9190910192915050565b6001600160a01b039384168152919092166020820152604081019190915260600190565b600060018060a01b03871682528560208301526080604083015261335f608083018587613291565b90506001600160601b03831660608301529695505050505050565b600060018060a01b038816825286602083015260a060408301526133a260a083018688613291565b6001600160601b039490941660608301525060800152949350505050565b60006020808301818452808551808352604092508286019150828160051b870101848801865b838110156134e857888303603f19018552815180518452878101516001600160a01b038116898601526101a0905081880151858901526060808301516001600160a01b038116828801525050608080830151828288015261344983880182613222565b9250505060a080830151613467828801826001600160601b03169052565b505060c0828101516001600160a01b03169086015260e0808301511515908601526101008083015115159086015261012080830151908601526101408083015151908601526101608083015115159086015261018091820151858203928601929092526134d481836132bb565b9689019694505050908601906001016133e6565b509098975050505050505050565b60208082526019908201527f73656e64657220646f6573206e6f74206f776e20746f6b656e00000000000000604082015260600190565b6020808252600f908201526e1d1c985b9cd9995c8811985a5b1959608a1b604082015260600190565b6020808252601f908201527f5265656e7472616e637947756172643a207265656e7472616e742063616c6c00604082015260600190565b6020808252601c908201527f5072696365206d757374206265206174206c6561737420312077656900000000604082015260600190565b6000808335601e198436030181126135da578283fd5b83018035915067ffffffffffffffff8211156135f4578283fd5b60200191503681900382131561294f57600080fd5b6000821982111561361c5761361c613802565b500190565b60008261363c57634e487b7160e01b81526012600452602481fd5b500490565b80825b60018086116136535750612dea565b81870482111561366557613665613802565b8086161561367257918102915b9490941c938002613644565b600061145a60001984846000826136975750600161145a565b816136a45750600061145a565b81600181146136ba57600281146136c4576136f1565b600191505061145a565b60ff8411156136d5576136d5613802565b6001841b9150848211156136eb576136eb613802565b5061145a565b5060208310610133831016604e8410600b8410161715613724575081810a8381111561371f5761371f613802565b61145a565b6137318484846001613641565b80860482111561374357613743613802565b02949350505050565b600081600019048311821515161561376657613766613802565b500290565b60008282101561377d5761377d613802565b500390565b60005b8381101561379d578181015183820152602001613785565b838111156137ac576000848401525b50505050565b600181811c908216806137c657607f821691505b60208210811415612eb357634e487b7160e01b600052602260045260246000fd5b60006000198214156137fb576137fb613802565b5060010190565b634e487b7160e01b600052601160045260246000fd5b634e487b7160e01b600052604160045260246000fd5b6001600160a01b0381168114612b5957600080fd5b8015158114612b5957600080fdfea26469706673582212205609cde3c09cc43d8bed368d49924f45009adf6873a6312f38daf2220482c69864736f6c63430008030033",
  "linkReferences": {},
  "deployedLinkReferences": {}
}