{
  "_format": "hh-sol-artifact-1",
  "contractName": "ThredMarketplace",
  "sourceName": "contracts/ThredMarketplace/ThredMarketplace.sol",
  "abi": [
    {
      "anonymous": false,
      "inputs": [
        {
          "indexed": true,
          "internalType": "address",
          "name": "sender",
          "type": "address"
        },
        {
          "indexed": false,
          "internalType": "uint256",
          "name": "amount",
          "type": "uint256"
        }
      ],
      "name": "Bid",
      "type": "event"
    },
    {
      "anonymous": false,
      "inputs": [
        {
          "indexed": false,
          "internalType": "address",
          "name": "winner",
          "type": "address"
        },
        {
          "indexed": false,
          "internalType": "uint256",
          "name": "amount",
          "type": "uint256"
        }
      ],
      "name": "End",
      "type": "event"
    },
    {
      "anonymous": false,
      "inputs": [
        {
          "indexed": false,
          "internalType": "uint8",
          "name": "version",
          "type": "uint8"
        }
      ],
      "name": "Initialized",
      "type": "event"
    },
    {
      "anonymous": false,
      "inputs": [
        {
          "indexed": false,
          "internalType": "address",
          "name": "account",
          "type": "address"
        }
      ],
      "name": "Paused",
      "type": "event"
    },
    {
      "anonymous": false,
      "inputs": [],
      "name": "Start",
      "type": "event"
    },
    {
      "anonymous": false,
      "inputs": [
        {
          "indexed": false,
          "internalType": "address",
          "name": "account",
          "type": "address"
        }
      ],
      "name": "Unpaused",
      "type": "event"
    },
    {
      "anonymous": false,
      "inputs": [
        {
          "indexed": true,
          "internalType": "address",
          "name": "bidder",
          "type": "address"
        },
        {
          "indexed": false,
          "internalType": "uint256",
          "name": "amount",
          "type": "uint256"
        }
      ],
      "name": "Withdraw",
      "type": "event"
    },
    {
      "inputs": [
        {
          "components": [
            {
              "internalType": "uint256",
              "name": "tokenId",
              "type": "uint256"
            },
            {
              "internalType": "address",
              "name": "contractAddress",
              "type": "address"
            }
          ],
          "internalType": "struct ThredMarketplace.NFTMetadata[]",
          "name": "list",
          "type": "tuple[]"
        },
        {
          "components": [
            {
              "internalType": "uint256",
              "name": "itemId",
              "type": "uint256"
            },
            {
              "internalType": "address",
              "name": "nftContract",
              "type": "address"
            },
            {
              "internalType": "uint256",
              "name": "tokenId",
              "type": "uint256"
            },
            {
              "internalType": "address payable",
              "name": "owner",
              "type": "address"
            },
            {
              "components": [
                {
                  "internalType": "address payable",
                  "name": "seller",
                  "type": "address"
                },
                {
                  "internalType": "uint256",
                  "name": "price",
                  "type": "uint256"
                },
                {
                  "internalType": "uint256",
                  "name": "variationId",
                  "type": "uint256"
                },
                {
                  "internalType": "uint256",
                  "name": "itemId",
                  "type": "uint256"
                },
                {
                  "internalType": "bool",
                  "name": "forSale",
                  "type": "bool"
                }
              ],
              "internalType": "struct ThredMarketplace.Variation[]",
              "name": "variations",
              "type": "tuple[]"
            },
            {
              "internalType": "uint96",
              "name": "royalty",
              "type": "uint96"
            },
            {
              "internalType": "address",
              "name": "tokenContract",
              "type": "address"
            },
            {
              "internalType": "bool",
              "name": "isNative",
              "type": "bool"
            },
            {
              "internalType": "bool",
              "name": "minted",
              "type": "bool"
            },
            {
              "internalType": "uint256",
              "name": "amount",
              "type": "uint256"
            },
            {
              "components": [
                {
                  "internalType": "uint256",
                  "name": "_value",
                  "type": "uint256"
                }
              ],
              "internalType": "struct Counters.Counter",
              "name": "mintedVariations",
              "type": "tuple"
            },
            {
              "internalType": "bool",
              "name": "fungible",
              "type": "bool"
            },
            {
              "internalType": "string",
              "name": "tokenUri",
              "type": "string"
            }
          ],
          "internalType": "struct ThredMarketplace.MarketItem",
          "name": "item",
          "type": "tuple"
        }
      ],
      "name": "arrayContains",
      "outputs": [
        {
          "internalType": "bool",
          "name": "",
          "type": "bool"
        }
      ],
      "stateMutability": "view",
      "type": "function"
    },
    {
      "inputs": [
        {
          "internalType": "address payable",
          "name": "nftOwner",
          "type": "address"
        },
        {
          "internalType": "address payable",
          "name": "nftSeller",
          "type": "address"
        },
        {
          "internalType": "address",
          "name": "nftContract",
          "type": "address"
        },
        {
          "internalType": "address",
          "name": "token",
          "type": "address"
        },
        {
          "components": [
            {
              "internalType": "uint256",
              "name": "tokenId",
              "type": "uint256"
            },
            {
              "internalType": "uint256",
              "name": "minPrice",
              "type": "uint256"
            },
            {
              "internalType": "uint96",
              "name": "royalty",
              "type": "uint96"
            },
            {
              "internalType": "bool",
              "name": "isNative",
              "type": "bool"
            },
            {
              "internalType": "uint256",
              "name": "amount",
              "type": "uint256"
            },
            {
              "internalType": "bool",
              "name": "fungible",
              "type": "bool"
            },
            {
              "internalType": "string",
              "name": "uri",
              "type": "string"
            },
            {
              "internalType": "bytes",
              "name": "signature",
              "type": "bytes"
            }
          ],
          "internalType": "struct ThredMarketplace.NFTVoucher",
          "name": "voucher",
          "type": "tuple"
        }
      ],
      "name": "createMarketItem",
      "outputs": [
        {
          "internalType": "bool",
          "name": "",
          "type": "bool"
        }
      ],
      "stateMutability": "nonpayable",
      "type": "function"
    },
    {
      "inputs": [
        {
          "internalType": "uint256",
          "name": "item",
          "type": "uint256"
        },
        {
          "internalType": "uint256",
          "name": "variation",
          "type": "uint256"
        }
      ],
      "name": "createSale",
      "outputs": [
        {
          "internalType": "bool",
          "name": "",
          "type": "bool"
        }
      ],
      "stateMutability": "payable",
      "type": "function"
    },
    {
      "inputs": [
        {
          "internalType": "uint256",
          "name": "item",
          "type": "uint256"
        },
        {
          "internalType": "uint256",
          "name": "variation",
          "type": "uint256"
        }
      ],
      "name": "createSaleCustom",
      "outputs": [
        {
          "internalType": "bool",
          "name": "",
          "type": "bool"
        }
      ],
      "stateMutability": "nonpayable",
      "type": "function"
    },
    {
      "inputs": [
        {
          "internalType": "address",
          "name": "contractAddress",
          "type": "address"
        },
        {
          "internalType": "uint256",
          "name": "tokenId",
          "type": "uint256"
        }
      ],
      "name": "fetchCollectionAsset",
      "outputs": [
        {
          "components": [
            {
              "internalType": "uint256",
              "name": "itemId",
              "type": "uint256"
            },
            {
              "internalType": "address",
              "name": "nftContract",
              "type": "address"
            },
            {
              "internalType": "uint256",
              "name": "tokenId",
              "type": "uint256"
            },
            {
              "internalType": "address payable",
              "name": "owner",
              "type": "address"
            },
            {
              "components": [
                {
                  "internalType": "address payable",
                  "name": "seller",
                  "type": "address"
                },
                {
                  "internalType": "uint256",
                  "name": "price",
                  "type": "uint256"
                },
                {
                  "internalType": "uint256",
                  "name": "variationId",
                  "type": "uint256"
                },
                {
                  "internalType": "uint256",
                  "name": "itemId",
                  "type": "uint256"
                },
                {
                  "internalType": "bool",
                  "name": "forSale",
                  "type": "bool"
                }
              ],
              "internalType": "struct ThredMarketplace.Variation[]",
              "name": "variations",
              "type": "tuple[]"
            },
            {
              "internalType": "uint96",
              "name": "royalty",
              "type": "uint96"
            },
            {
              "internalType": "address",
              "name": "tokenContract",
              "type": "address"
            },
            {
              "internalType": "bool",
              "name": "isNative",
              "type": "bool"
            },
            {
              "internalType": "bool",
              "name": "minted",
              "type": "bool"
            },
            {
              "internalType": "uint256",
              "name": "amount",
              "type": "uint256"
            },
            {
              "components": [
                {
                  "internalType": "uint256",
                  "name": "_value",
                  "type": "uint256"
                }
              ],
              "internalType": "struct Counters.Counter",
              "name": "mintedVariations",
              "type": "tuple"
            },
            {
              "internalType": "bool",
              "name": "fungible",
              "type": "bool"
            },
            {
              "internalType": "string",
              "name": "tokenUri",
              "type": "string"
            }
          ],
          "internalType": "struct ThredMarketplace.MarketItem[]",
          "name": "",
          "type": "tuple[]"
        }
      ],
      "stateMutability": "view",
      "type": "function"
    },
    {
      "inputs": [
        {
          "internalType": "address",
          "name": "contractAddress",
          "type": "address"
        }
      ],
      "name": "fetchCollectionAssets",
      "outputs": [
        {
          "components": [
            {
              "internalType": "uint256",
              "name": "itemId",
              "type": "uint256"
            },
            {
              "internalType": "address",
              "name": "nftContract",
              "type": "address"
            },
            {
              "internalType": "uint256",
              "name": "tokenId",
              "type": "uint256"
            },
            {
              "internalType": "address payable",
              "name": "owner",
              "type": "address"
            },
            {
              "components": [
                {
                  "internalType": "address payable",
                  "name": "seller",
                  "type": "address"
                },
                {
                  "internalType": "uint256",
                  "name": "price",
                  "type": "uint256"
                },
                {
                  "internalType": "uint256",
                  "name": "variationId",
                  "type": "uint256"
                },
                {
                  "internalType": "uint256",
                  "name": "itemId",
                  "type": "uint256"
                },
                {
                  "internalType": "bool",
                  "name": "forSale",
                  "type": "bool"
                }
              ],
              "internalType": "struct ThredMarketplace.Variation[]",
              "name": "variations",
              "type": "tuple[]"
            },
            {
              "internalType": "uint96",
              "name": "royalty",
              "type": "uint96"
            },
            {
              "internalType": "address",
              "name": "tokenContract",
              "type": "address"
            },
            {
              "internalType": "bool",
              "name": "isNative",
              "type": "bool"
            },
            {
              "internalType": "bool",
              "name": "minted",
              "type": "bool"
            },
            {
              "internalType": "uint256",
              "name": "amount",
              "type": "uint256"
            },
            {
              "components": [
                {
                  "internalType": "uint256",
                  "name": "_value",
                  "type": "uint256"
                }
              ],
              "internalType": "struct Counters.Counter",
              "name": "mintedVariations",
              "type": "tuple"
            },
            {
              "internalType": "bool",
              "name": "fungible",
              "type": "bool"
            },
            {
              "internalType": "string",
              "name": "tokenUri",
              "type": "string"
            }
          ],
          "internalType": "struct ThredMarketplace.MarketItem[]",
          "name": "",
          "type": "tuple[]"
        }
      ],
      "stateMutability": "view",
      "type": "function"
    },
    {
      "inputs": [
        {
          "components": [
            {
              "internalType": "uint256",
              "name": "tokenId",
              "type": "uint256"
            },
            {
              "internalType": "address",
              "name": "contractAddress",
              "type": "address"
            }
          ],
          "internalType": "struct ThredMarketplace.NFTMetadata[]",
          "name": "metadata",
          "type": "tuple[]"
        }
      ],
      "name": "fetchCollectionAssetsById",
      "outputs": [
        {
          "components": [
            {
              "internalType": "uint256",
              "name": "itemId",
              "type": "uint256"
            },
            {
              "internalType": "address",
              "name": "nftContract",
              "type": "address"
            },
            {
              "internalType": "uint256",
              "name": "tokenId",
              "type": "uint256"
            },
            {
              "internalType": "address payable",
              "name": "owner",
              "type": "address"
            },
            {
              "components": [
                {
                  "internalType": "address payable",
                  "name": "seller",
                  "type": "address"
                },
                {
                  "internalType": "uint256",
                  "name": "price",
                  "type": "uint256"
                },
                {
                  "internalType": "uint256",
                  "name": "variationId",
                  "type": "uint256"
                },
                {
                  "internalType": "uint256",
                  "name": "itemId",
                  "type": "uint256"
                },
                {
                  "internalType": "bool",
                  "name": "forSale",
                  "type": "bool"
                }
              ],
              "internalType": "struct ThredMarketplace.Variation[]",
              "name": "variations",
              "type": "tuple[]"
            },
            {
              "internalType": "uint96",
              "name": "royalty",
              "type": "uint96"
            },
            {
              "internalType": "address",
              "name": "tokenContract",
              "type": "address"
            },
            {
              "internalType": "bool",
              "name": "isNative",
              "type": "bool"
            },
            {
              "internalType": "bool",
              "name": "minted",
              "type": "bool"
            },
            {
              "internalType": "uint256",
              "name": "amount",
              "type": "uint256"
            },
            {
              "components": [
                {
                  "internalType": "uint256",
                  "name": "_value",
                  "type": "uint256"
                }
              ],
              "internalType": "struct Counters.Counter",
              "name": "mintedVariations",
              "type": "tuple"
            },
            {
              "internalType": "bool",
              "name": "fungible",
              "type": "bool"
            },
            {
              "internalType": "string",
              "name": "tokenUri",
              "type": "string"
            }
          ],
          "internalType": "struct ThredMarketplace.MarketItem[]",
          "name": "",
          "type": "tuple[]"
        }
      ],
      "stateMutability": "view",
      "type": "function"
    },
    {
      "inputs": [
        {
          "internalType": "address",
          "name": "contractAddress",
          "type": "address"
        }
      ],
      "name": "fetchCollectionAssetsOnMarket",
      "outputs": [
        {
          "components": [
            {
              "internalType": "uint256",
              "name": "itemId",
              "type": "uint256"
            },
            {
              "internalType": "address",
              "name": "nftContract",
              "type": "address"
            },
            {
              "internalType": "uint256",
              "name": "tokenId",
              "type": "uint256"
            },
            {
              "internalType": "address payable",
              "name": "owner",
              "type": "address"
            },
            {
              "components": [
                {
                  "internalType": "address payable",
                  "name": "seller",
                  "type": "address"
                },
                {
                  "internalType": "uint256",
                  "name": "price",
                  "type": "uint256"
                },
                {
                  "internalType": "uint256",
                  "name": "variationId",
                  "type": "uint256"
                },
                {
                  "internalType": "uint256",
                  "name": "itemId",
                  "type": "uint256"
                },
                {
                  "internalType": "bool",
                  "name": "forSale",
                  "type": "bool"
                }
              ],
              "internalType": "struct ThredMarketplace.Variation[]",
              "name": "variations",
              "type": "tuple[]"
            },
            {
              "internalType": "uint96",
              "name": "royalty",
              "type": "uint96"
            },
            {
              "internalType": "address",
              "name": "tokenContract",
              "type": "address"
            },
            {
              "internalType": "bool",
              "name": "isNative",
              "type": "bool"
            },
            {
              "internalType": "bool",
              "name": "minted",
              "type": "bool"
            },
            {
              "internalType": "uint256",
              "name": "amount",
              "type": "uint256"
            },
            {
              "components": [
                {
                  "internalType": "uint256",
                  "name": "_value",
                  "type": "uint256"
                }
              ],
              "internalType": "struct Counters.Counter",
              "name": "mintedVariations",
              "type": "tuple"
            },
            {
              "internalType": "bool",
              "name": "fungible",
              "type": "bool"
            },
            {
              "internalType": "string",
              "name": "tokenUri",
              "type": "string"
            }
          ],
          "internalType": "struct ThredMarketplace.MarketItem[]",
          "name": "",
          "type": "tuple[]"
        }
      ],
      "stateMutability": "view",
      "type": "function"
    },
    {
      "inputs": [
        {
          "internalType": "address",
          "name": "contractAddress",
          "type": "address"
        },
        {
          "internalType": "uint256",
          "name": "variation",
          "type": "uint256"
        }
      ],
      "name": "fetchCollectionInfo",
      "outputs": [
        {
          "components": [
            {
              "internalType": "uint256",
              "name": "floor",
              "type": "uint256"
            },
            {
              "internalType": "uint256",
              "name": "holders",
              "type": "uint256"
            },
            {
              "internalType": "uint256",
              "name": "volume",
              "type": "uint256"
            }
          ],
          "internalType": "struct ThredMarketplace.CollectionInfo",
          "name": "",
          "type": "tuple"
        }
      ],
      "stateMutability": "view",
      "type": "function"
    },
    {
      "inputs": [
        {
          "internalType": "address",
          "name": "marketAddress",
          "type": "address"
        }
      ],
      "name": "fetchMarketAssets",
      "outputs": [
        {
          "components": [
            {
              "internalType": "uint256",
              "name": "itemId",
              "type": "uint256"
            },
            {
              "internalType": "address",
              "name": "nftContract",
              "type": "address"
            },
            {
              "internalType": "uint256",
              "name": "tokenId",
              "type": "uint256"
            },
            {
              "internalType": "address payable",
              "name": "owner",
              "type": "address"
            },
            {
              "components": [
                {
                  "internalType": "address payable",
                  "name": "seller",
                  "type": "address"
                },
                {
                  "internalType": "uint256",
                  "name": "price",
                  "type": "uint256"
                },
                {
                  "internalType": "uint256",
                  "name": "variationId",
                  "type": "uint256"
                },
                {
                  "internalType": "uint256",
                  "name": "itemId",
                  "type": "uint256"
                },
                {
                  "internalType": "bool",
                  "name": "forSale",
                  "type": "bool"
                }
              ],
              "internalType": "struct ThredMarketplace.Variation[]",
              "name": "variations",
              "type": "tuple[]"
            },
            {
              "internalType": "uint96",
              "name": "royalty",
              "type": "uint96"
            },
            {
              "internalType": "address",
              "name": "tokenContract",
              "type": "address"
            },
            {
              "internalType": "bool",
              "name": "isNative",
              "type": "bool"
            },
            {
              "internalType": "bool",
              "name": "minted",
              "type": "bool"
            },
            {
              "internalType": "uint256",
              "name": "amount",
              "type": "uint256"
            },
            {
              "components": [
                {
                  "internalType": "uint256",
                  "name": "_value",
                  "type": "uint256"
                }
              ],
              "internalType": "struct Counters.Counter",
              "name": "mintedVariations",
              "type": "tuple"
            },
            {
              "internalType": "bool",
              "name": "fungible",
              "type": "bool"
            },
            {
              "internalType": "string",
              "name": "tokenUri",
              "type": "string"
            }
          ],
          "internalType": "struct ThredMarketplace.MarketItem[]",
          "name": "",
          "type": "tuple[]"
        }
      ],
      "stateMutability": "view",
      "type": "function"
    },
    {
      "inputs": [],
      "name": "getChainID",
      "outputs": [
        {
          "internalType": "uint256",
          "name": "",
          "type": "uint256"
        }
      ],
      "stateMutability": "view",
      "type": "function"
    },
    {
      "inputs": [
        {
          "internalType": "string",
          "name": "domain",
          "type": "string"
        },
        {
          "internalType": "string",
          "name": "version",
          "type": "string"
        },
        {
          "internalType": "address",
          "name": "marketplaceAddress",
          "type": "address"
        }
      ],
      "name": "initialize",
      "outputs": [],
      "stateMutability": "nonpayable",
      "type": "function"
    },
    {
      "inputs": [
        {
          "components": [
            {
              "internalType": "uint256",
              "name": "tokenId",
              "type": "uint256"
            },
            {
              "internalType": "uint256",
              "name": "minPrice",
              "type": "uint256"
            },
            {
              "internalType": "uint96",
              "name": "royalty",
              "type": "uint96"
            },
            {
              "internalType": "bool",
              "name": "isNative",
              "type": "bool"
            },
            {
              "internalType": "uint256",
              "name": "amount",
              "type": "uint256"
            },
            {
              "internalType": "bool",
              "name": "fungible",
              "type": "bool"
            },
            {
              "internalType": "string",
              "name": "uri",
              "type": "string"
            },
            {
              "internalType": "bytes",
              "name": "signature",
              "type": "bytes"
            }
          ],
          "internalType": "struct ThredMarketplace.NFTVoucher",
          "name": "voucher",
          "type": "tuple"
        },
        {
          "internalType": "address",
          "name": "contractAddress",
          "type": "address"
        }
      ],
      "name": "mintAndTransfer",
      "outputs": [
        {
          "internalType": "bool",
          "name": "",
          "type": "bool"
        }
      ],
      "stateMutability": "payable",
      "type": "function"
    },
    {
      "inputs": [
        {
          "components": [
            {
              "internalType": "uint256",
              "name": "tokenId",
              "type": "uint256"
            },
            {
              "internalType": "uint256",
              "name": "minPrice",
              "type": "uint256"
            },
            {
              "internalType": "uint96",
              "name": "royalty",
              "type": "uint96"
            },
            {
              "internalType": "bool",
              "name": "isNative",
              "type": "bool"
            },
            {
              "internalType": "uint256",
              "name": "amount",
              "type": "uint256"
            },
            {
              "internalType": "bool",
              "name": "fungible",
              "type": "bool"
            },
            {
              "internalType": "string",
              "name": "uri",
              "type": "string"
            },
            {
              "internalType": "bytes",
              "name": "signature",
              "type": "bytes"
            }
          ],
          "internalType": "struct ThredMarketplace.NFTVoucher",
          "name": "voucher",
          "type": "tuple"
        },
        {
          "internalType": "address",
          "name": "contractAddress",
          "type": "address"
        }
      ],
      "name": "mintAndTransferCustom",
      "outputs": [
        {
          "internalType": "bool",
          "name": "",
          "type": "bool"
        }
      ],
      "stateMutability": "nonpayable",
      "type": "function"
    },
    {
      "inputs": [
        {
          "components": [
            {
              "internalType": "uint256",
              "name": "tokenId",
              "type": "uint256"
            },
            {
              "internalType": "uint256",
              "name": "minPrice",
              "type": "uint256"
            },
            {
              "internalType": "uint96",
              "name": "royalty",
              "type": "uint96"
            },
            {
              "internalType": "bool",
              "name": "isNative",
              "type": "bool"
            },
            {
              "internalType": "uint256",
              "name": "amount",
              "type": "uint256"
            },
            {
              "internalType": "bool",
              "name": "fungible",
              "type": "bool"
            },
            {
              "internalType": "string",
              "name": "uri",
              "type": "string"
            },
            {
              "internalType": "bytes",
              "name": "signature",
              "type": "bytes"
            }
          ],
          "internalType": "struct ThredMarketplace.NFTVoucher",
          "name": "voucher",
          "type": "tuple"
        },
        {
          "internalType": "address",
          "name": "nftContract",
          "type": "address"
        }
      ],
      "name": "mintNFT",
      "outputs": [
        {
          "internalType": "bool",
          "name": "",
          "type": "bool"
        }
      ],
      "stateMutability": "nonpayable",
      "type": "function"
    },
    {
      "inputs": [],
      "name": "pause",
      "outputs": [],
      "stateMutability": "nonpayable",
      "type": "function"
    },
    {
      "inputs": [],
      "name": "paused",
      "outputs": [
        {
          "internalType": "bool",
          "name": "",
          "type": "bool"
        }
      ],
      "stateMutability": "view",
      "type": "function"
    },
    {
      "inputs": [
        {
          "internalType": "uint256",
          "name": "itemId",
          "type": "uint256"
        },
        {
          "internalType": "uint256",
          "name": "v",
          "type": "uint256"
        },
        {
          "internalType": "address",
          "name": "from",
          "type": "address"
        },
        {
          "internalType": "address",
          "name": "to",
          "type": "address"
        }
      ],
      "name": "transferNFTSale",
      "outputs": [
        {
          "internalType": "bool",
          "name": "",
          "type": "bool"
        }
      ],
      "stateMutability": "payable",
      "type": "function"
    },
    {
      "inputs": [],
      "name": "unpause",
      "outputs": [],
      "stateMutability": "nonpayable",
      "type": "function"
    },
    {
      "inputs": [
        {
          "internalType": "uint256",
          "name": "itemId",
          "type": "uint256"
        },
        {
          "internalType": "uint256",
          "name": "variation",
          "type": "uint256"
        },
        {
          "internalType": "bool",
          "name": "forSale",
          "type": "bool"
        },
        {
          "internalType": "uint256",
          "name": "price",
          "type": "uint256"
        }
      ],
      "name": "updateItem",
      "outputs": [
        {
          "internalType": "bool",
          "name": "",
          "type": "bool"
        }
      ],
      "stateMutability": "nonpayable",
      "type": "function"
    },
    {
      "inputs": [
        {
          "components": [
            {
              "internalType": "uint256",
              "name": "tokenId",
              "type": "uint256"
            },
            {
              "internalType": "uint256",
              "name": "minPrice",
              "type": "uint256"
            },
            {
              "internalType": "uint96",
              "name": "royalty",
              "type": "uint96"
            },
            {
              "internalType": "bool",
              "name": "isNative",
              "type": "bool"
            },
            {
              "internalType": "uint256",
              "name": "amount",
              "type": "uint256"
            },
            {
              "internalType": "bool",
              "name": "fungible",
              "type": "bool"
            },
            {
              "internalType": "string",
              "name": "uri",
              "type": "string"
            },
            {
              "internalType": "bytes",
              "name": "signature",
              "type": "bytes"
            }
          ],
          "internalType": "struct ThredMarketplace.NFTVoucher",
          "name": "voucher",
          "type": "tuple"
        }
      ],
      "name": "verify",
      "outputs": [
        {
          "internalType": "address",
          "name": "",
          "type": "address"
        }
      ],
      "stateMutability": "view",
      "type": "function"
    },
    {
      "inputs": [],
      "name": "withdrawThred",
      "outputs": [],
      "stateMutability": "nonpayable",
      "type": "function"
    }
  ],
  "bytecode": "0x608060405234801561001057600080fd5b50614b64806100206000396000f3fe6080604052600436106101355760003560e01c80637c503420116100ab578063ade1e7701161006f578063ade1e7701461033e578063d8f9b50d14610376578063dadfb61a14610389578063dd6a1fbd146103a9578063df766066146103c4578063fa662b74146103d957610135565b80637c503420146102a95780638456cb59146102c957806387bb44bd146102de5780638b1d1d72146102fe578063a4747be51461031e57610135565b806348fc7cd4116100fd57806348fc7cd41461021557806350517bad14610228578063564b81ef146102485780635c975abb146102635780636019061b1461027b5780636214d4271461028e57610135565b8063077f224a1461013a5780630a8c30cf1461015c5780630ea29a261461019157806318368b7a146101be5780633f4ba83a14610200575b600080fd5b34801561014657600080fd5b5061015a61015536600461423d565b6103f9565b005b34801561016857600080fd5b5061017c610177366004614033565b6104a3565b60405190151581526020015b60405180910390f35b34801561019d57600080fd5b506101b16101ac366004613f9c565b61055f565b60405161018891906145b2565b3480156101ca57600080fd5b506101de6101d9366004613f9c565b6109e2565b6040805182518152602080840151908201529181015190820152606001610188565b34801561020c57600080fd5b5061015a610c20565b61017c6102233660046142eb565b610c2a565b34801561023457600080fd5b5061017c610243366004613f17565b610c72565b34801561025457600080fd5b50604051468152602001610188565b34801561026f57600080fd5b5060995460ff1661017c565b61017c610289366004614352565b610ce9565b34801561029a57600080fd5b5061017c6102233660046142eb565b3480156102b557600080fd5b506101b16102c4366004613edf565b610d2a565b3480156102d557600080fd5b5061015a611045565b3480156102ea57600080fd5b506101b16102f9366004613edf565b61104d565b34801561030a57600080fd5b506101b1610319366004613ff4565b6114d3565b34801561032a57600080fd5b506101b1610339366004613edf565b611b40565b34801561034a57600080fd5b5061035e6103593660046142b1565b611f6f565b6040516001600160a01b039091168152602001610188565b61017c610384366004614373565b611fc8565b34801561039557600080fd5b5061017c6103a43660046142eb565b612056565b3480156103b557600080fd5b5061017c610289366004614352565b3480156103d057600080fd5b5061015a6120d0565b3480156103e557600080fd5b5061017c6103f43660046143bc565b61219d565b600061040560016124f6565b9050801561041d576000805461ff0019166101001790555b610427848461257b565b61042f6125b0565b6104376125df565b60cd80546001600160a01b0319166001600160a01b038416179055600060cf55801561049d576000805461ff0019169055604051600181527f7f26b83ff96e1f2b6a682f133852f6798a09c465da95921460cefb38474024989060200160405180910390a15b50505050565b600080805b84811015610554578585828181106104d057634e487b7160e01b600052603260045260246000fd5b905060400201600001358460400151148015610538575085858281811061050757634e487b7160e01b600052603260045260246000fd5b905060400201602001602081019061051f9190613edf565b6001600160a01b031684602001516001600160a01b0316145b1561054257600191505b8061054c81614ac4565b9150506104a8565b5090505b9392505050565b6060600061056c60cb5490565b60408051600180825281830190925291925060009190816020015b61058f613c99565b81526020019060019003908161058757905050905060005b828110156109d9576001600160a01b03861660cc60006105c88460016148ea565b81526020810191909152604001600020600101546001600160a01b031614801561061157508460cc60006105fd8460016148ea565b815260200190815260200160002060020154145b156109c75760006106238260016148ea565b600081815260cc6020908152604080832081516101a0810183528154815260018201546001600160a01b039081168286015260028301548285015260038301541660608201526004820180548451818702810187019095528085529697509495909491936080860193929190879084015b828210156107005760008481526020908190206040805160a0810182526005860290920180546001600160a01b0316835260018082015484860152600282015492840192909252600381015460608401526004015460ff16151560808301529083529092019101610694565b5050509082525060058201546001600160601b038116602080840191909152600160601b9091046001600160a01b0316604080840191909152600684015460ff8082161515606086015261010091829004811615156080860152600786015460a086015282519384019092526008850154835260c0840192909252600984015416151560e0830152600a8301805491909201919061079d90614a8f565b80601f01602080910402602001604051908101604052809291908181526020018280546107c990614a8f565b80156108165780601f106107eb57610100808354040283529160200191610816565b820191906000526020600020905b8154815290600101906020018083116107f957829003601f168201915b505050505081525050905060005b81608001515181101561099257602082015160408084015190516331a9108f60e11b815282916001600160a01b03831691636352211e9161086b9160040190815260200190565b60206040518083038186803b15801561088357600080fd5b505afa158015610897573d6000803e3d6000fd5b505050506040513d601f19601f820116820180604052508101906108bb9190613efb565b846080015184815181106108df57634e487b7160e01b600052603260045260246000fd5b60209081029190910101516001600160a01b039182169052604080860151905163c87b56dd60e01b81529183169163c87b56dd916109239160040190815260200190565b60006040518083038186803b15801561093b57600080fd5b505afa15801561094f573d6000803e3d6000fd5b505050506040513d6000823e601f3d908101601f1916820160405261097791908101906141d4565b6101808501525081905061098a81614ac4565b915050610824565b5080846000815181106109b557634e487b7160e01b600052603260045260246000fd5b602002602001018190525050506109d9565b806109d181614ac4565b9150506105a7565b50949350505050565b610a0660405180606001604052806000815260200160008152602001600081525090565b6000610a1160cb5490565b60408051606081018252600080825260208083018290526001600160a01b038916825260ce905282812054928201929092529192505b828110156109d9576001600160a01b03861660cc6000610a688460016148ea565b81526020810191909152604001600020600101546001600160a01b03161415610c0e5760cc6000610a9a8360016148ea565b81526020019081526020016000206004018581548110610aca57634e487b7160e01b600052603260045260246000fd5b600091825260209091206004600590920201015460ff16610aff576020820151610af590600161260e565b6020830152610c0e565b8151610b5f5760cc6000610b148360016148ea565b81526020019081526020016000206004018581548110610b4457634e487b7160e01b600052603260045260246000fd5b60009182526020909120600160059092020101548252610c0e565b815160cc6000610b708460016148ea565b81526020019081526020016000206004018681548110610ba057634e487b7160e01b600052603260045260246000fd5b9060005260206000209060050201600101541015610c0e5760cc6000610bc78360016148ea565b81526020019081526020016000206004018581548110610bf757634e487b7160e01b600052603260045260246000fd5b600091825260209091206001600590920201015482525b80610c1881614ac4565b915050610a47565b610c2861261a565b565b600060026001541415610c585760405162461bcd60e51b8152600401610c4f906147e1565b60405180910390fd5b6002600155610c6783836126ad565b600180559392505050565b600060026001541415610c975760405162461bcd60e51b8152600401610c4f906147e1565b60026001556000610ca760cb5490565b610cb29060016148ea565b90506000610cc488888888888761276f565b90508015610cda57610cda60cb80546001019055565b60018055979650505050505050565b600060026001541415610d0e5760405162461bcd60e51b8152600401610c4f906147e1565b60026001908155610c67908490610d259085614a4c565b612978565b60606000610d3760cb5490565b9050600080826001600160401b03811115610d6257634e487b7160e01b600052604160045260246000fd5b604051908082528060200260200182016040528015610d9b57816020015b610d88613c99565b815260200190600190039081610d805790505b50905060005b8381101561103a576001600160a01b03861660cc6000610dc28460016148ea565b81526020810191909152604001600020600301546001600160a01b03161415611028576000610df28260016148ea565b600081815260cc6020908152604080832081516101a0810183528154815260018201546001600160a01b0390811682860152600283015482850152600383015416606082015260048201805484518187028101870190955280855296975091959094869460808701949392919084015b82821015610ece5760008481526020908190206040805160a0810182526005860290920180546001600160a01b0316835260018082015484860152600282015492840192909252600381015460608401526004015460ff16151560808301529083529092019101610e62565b5050509082525060058201546001600160601b038116602080840191909152600160601b9091046001600160a01b0316604080840191909152600684015460ff8082161515606086015261010091829004811615156080860152600786015460a086015282519384019092526008850154835260c0840192909252600984015416151560e0830152600a83018054919092019190610f6b90614a8f565b80601f0160208091040260200160405190810160405280929190818152602001828054610f9790614a8f565b8015610fe45780601f10610fb957610100808354040283529160200191610fe4565b820191906000526020600020905b815481529060010190602001808311610fc757829003601f168201915b50505050508152505084868151811061100d57634e487b7160e01b600052603260045260246000fd5b60209081029190910101526110236001866148ea565b945050505b8061103281614ac4565b915050610da1565b50925050505b919050565b610c28612f37565b6060600061105a60cb5490565b9050600080826001600160401b0381111561108557634e487b7160e01b600052604160045260246000fd5b6040519080825280602002602001820160405280156110be57816020015b6110ab613c99565b8152602001906001900390816110a35790505b50905060005b8381101561103a576001600160a01b03861660cc60006110e58460016148ea565b81526020810191909152604001600020600101546001600160a01b031614156114c15760006111158260016148ea565b600081815260cc6020908152604080832081516101a0810183528154815260018201546001600160a01b039081168286015260028301548285015260038301541660608201526004820180548451818702810187019095528085529697509495909491936080860193929190879084015b828210156111f25760008481526020908190206040805160a0810182526005860290920180546001600160a01b0316835260018082015484860152600282015492840192909252600381015460608401526004015460ff16151560808301529083529092019101611186565b5050509082525060058201546001600160601b038116602080840191909152600160601b9091046001600160a01b0316604080840191909152600684015460ff8082161515606086015261010091829004811615156080860152600786015460a086015282519384019092526008850154835260c0840192909252600984015416151560e0830152600a8301805491909201919061128f90614a8f565b80601f01602080910402602001604051908101604052809291908181526020018280546112bb90614a8f565b80156113085780601f106112dd57610100808354040283529160200191611308565b820191906000526020600020905b8154815290600101906020018083116112eb57829003601f168201915b505050505081525050905060005b81608001515181101561148457602082015160408084015190516331a9108f60e11b815282916001600160a01b03831691636352211e9161135d9160040190815260200190565b60206040518083038186803b15801561137557600080fd5b505afa158015611389573d6000803e3d6000fd5b505050506040513d601f19601f820116820180604052508101906113ad9190613efb565b846080015184815181106113d157634e487b7160e01b600052603260045260246000fd5b60209081029190910101516001600160a01b039182169052604080860151905163c87b56dd60e01b81529183169163c87b56dd916114159160040190815260200190565b60006040518083038186803b15801561142d57600080fd5b505afa158015611441573d6000803e3d6000fd5b505050506040513d6000823e601f3d908101601f1916820160405261146991908101906141d4565b6101808501525081905061147c81614ac4565b915050611316565b50808486815181106114a657634e487b7160e01b600052603260045260246000fd5b60209081029190910101526114bc6001866148ea565b945050505b806114cb81614ac4565b9150506110c4565b606060006114e060cb5490565b9050600080826001600160401b0381111561150b57634e487b7160e01b600052604160045260246000fd5b60405190808252806020026020018201604052801561154457816020015b611531613c99565b8152602001906001900390816115295790505b50905060005b83811015611b3657611766878760cc60006115668660016148ea565b81526020808201929092526040908101600090812082516101a0810184528154815260018201546001600160a01b03908116828701526002830154828601526003830154166060820152600482018054855181880281018801909652808652919592946080870194909391929184015b828210156116425760008481526020908190206040805160a0810182526005860290920180546001600160a01b0316835260018082015484860152600282015492840192909252600381015460608401526004015460ff161515608083015290835290920191016115d6565b5050509082525060058201546001600160601b038116602080840191909152600160601b9091046001600160a01b0316604080840191909152600684015460ff8082161515606086015261010091829004811615156080860152600786015460a086015282519384019092526008850154835260c0840192909252600984015416151560e0830152600a830180549190920191906116df90614a8f565b80601f016020809104026020016040519081016040528092919081815260200182805461170b90614a8f565b80156117585780601f1061172d57610100808354040283529160200191611758565b820191906000526020600020905b81548152906001019060200180831161173b57829003601f168201915b5050505050815250506104a3565b15611b245760006117788260016148ea565b600081815260cc6020908152604080832081516101a0810183528154815260018201546001600160a01b039081168286015260028301548285015260038301541660608201526004820180548451818702810187019095528085529697509495909491936080860193929190879084015b828210156118555760008481526020908190206040805160a0810182526005860290920180546001600160a01b0316835260018082015484860152600282015492840192909252600381015460608401526004015460ff161515608083015290835290920191016117e9565b5050509082525060058201546001600160601b038116602080840191909152600160601b9091046001600160a01b0316604080840191909152600684015460ff8082161515606086015261010091829004811615156080860152600786015460a086015282519384019092526008850154835260c0840192909252600984015416151560e0830152600a830180549190920191906118f290614a8f565b80601f016020809104026020016040519081016040528092919081815260200182805461191e90614a8f565b801561196b5780601f106119405761010080835404028352916020019161196b565b820191906000526020600020905b81548152906001019060200180831161194e57829003601f168201915b505050505081525050905060005b816080015151811015611ae757602082015160408084015190516331a9108f60e11b815282916001600160a01b03831691636352211e916119c09160040190815260200190565b60206040518083038186803b1580156119d857600080fd5b505afa1580156119ec573d6000803e3d6000fd5b505050506040513d601f19601f82011682018060405250810190611a109190613efb565b84608001518481518110611a3457634e487b7160e01b600052603260045260246000fd5b60209081029190910101516001600160a01b039182169052604080860151905163c87b56dd60e01b81529183169163c87b56dd91611a789160040190815260200190565b60006040518083038186803b158015611a9057600080fd5b505afa158015611aa4573d6000803e3d6000fd5b505050506040513d6000823e601f3d908101601f19168201604052611acc91908101906141d4565b61018085015250819050611adf81614ac4565b915050611979565b5080848681518110611b0957634e487b7160e01b600052603260045260246000fd5b6020908102919091010152611b1f6001866148ea565b945050505b80611b2e81614ac4565b91505061154a565b5095945050505050565b606060008290506000816001600160a01b03166318160ddd6040518163ffffffff1660e01b815260040160206040518083038186803b158015611b8257600080fd5b505afa158015611b96573d6000803e3d6000fd5b505050506040513d601f19601f82011682018060405250810190611bba919061433a565b9050600080826001600160401b03811115611be557634e487b7160e01b600052604160045260246000fd5b604051908082528060200260200182016040528015611c1e57816020015b611c0b613c99565b815260200190600190039081611c035790505b50905060005b83811015611b3657604080516001808252818301909252600091816020015b611c806040518060a0016040528060006001600160a01b031681526020016000815260200160008152602001600081526020016000151581525090565b815260200190600190039081611c4357905050604051634f6ccce760e01b8152600481018490529091506000906001600160a01b03881690634f6ccce79060240160206040518083038186803b158015611cd957600080fd5b505afa158015611ced573d6000803e3d6000fd5b505050506040513d601f19601f82011682018060405250810190611d11919061433a565b6040516331a9108f60e11b815260048101829052909150899081906000906001600160a01b03831690636352211e9060240160206040518083038186803b158015611d5b57600080fd5b505afa158015611d6f573d6000803e3d6000fd5b505050506040513d601f19601f82011682018060405250810190611d939190613efb565b60405163c87b56dd60e01b8152600481018690529091506000906001600160a01b0384169063c87b56dd9060240160006040518083038186803b158015611dd957600080fd5b505afa158015611ded573d6000803e3d6000fd5b505050506040513d6000823e601f3d908101601f19168201604052611e1591908101906141d4565b90506040518060a00160405280836001600160a01b031681526020016000815260200160008152602001600081526020016000151581525086600081518110611e6e57634e487b7160e01b600052603260045260246000fd5b60200260200101819052506000604051806101a00160405280600081526020018f6001600160a01b03168152602001878152602001846001600160a01b0316815260200188815260200160006001600160601b0316815260200160006001600160a01b031681526020016001151581526020016001151581526020016001815260200160cb604051806020016040529081600082015481525050815260200160001515815260200183815250905080898b81518110611f3d57634e487b7160e01b600052603260045260246000fd5b6020908102919091010152611f5360018b6148ea565b9950505050505050508080611f6790614ac4565b915050611c24565b600080611f7b83612fb2565b905061055881611f8e60e086018661484f565b8080601f0160208091040260200160405190810160405280939291908181526020018383808284376000920191909152506130a092505050565b600060026001541415611fed5760405162461bcd60e51b8152600401610c4f906147e1565b600260015560cd546001600160a01b0316331461203d5760405162461bcd60e51b815260206004820152600e60248201526d139bdd08105d5d1a1bdc9a5e995960921b6044820152606401610c4f565b612049858584866130c4565b6001805595945050505050565b60006002600154141561207b5760405162461bcd60e51b8152600401610c4f906147e1565b600260015560208301356120a15760405162461bcd60e51b8152600401610c4f90614818565b60006120ac60cb5490565b6120b79060016148ea565b90506120c4848483613302565b60018055949350505050565b60cd546001600160a01b0316331461211f5760405162461bcd60e51b81526020600482015260126024820152712737ba1021b7b93932b1ba1021b0b63632b960711b6044820152606401610c4f565b600060cf54116121675760405162461bcd60e51b81526020600482015260136024820152724e6f7468696e6720746f20776974686472617760681b6044820152606401610c4f565b60cf54604051339180156108fc02916000818181858888f19350505050158015612195573d6000803e3d6000fd5b50600060cf55565b600084815260cc60205260408120600981015482919060ff16156122c6578054600090815260cc602052604080822060018101546002909101549151627eeac760e11b815233600482015260248101929092526001600160a01b03169190829062fdd58e9060440160206040518083038186803b15801561221d57600080fd5b505afa158015612231573d6000803e3d6000fd5b505050506040513d601f19601f82011682018060405250810190612255919061433a565b116122725760405162461bcd60e51b8152600401610c4f906146e8565b600088815260cc602052604090206004018054889081106122a357634e487b7160e01b600052603260045260246000fd5b60009182526020909120600590910201546001600160a01b031692506123609050565b8054600090815260cc602052604090819020600181015460029091015491516331a9108f60e11b815260048101929092526001600160a01b0316908190636352211e9060240160206040518083038186803b15801561232457600080fd5b505afa158015612338573d6000803e3d6000fd5b505050506040513d601f19601f8201168201806040525081019061235c9190613efb565b9250505b336001600160a01b038316146123885760405162461bcd60e51b8152600401610c4f906146e8565b600084116123a85760405162461bcd60e51b8152600401610c4f90614818565b600087815260cc602052604090206004018054859190889081106123dc57634e487b7160e01b600052603260045260246000fd5b9060005260206000209060050201600101819055508460cc6000898152602001908152602001600020600401878154811061242757634e487b7160e01b600052603260045260246000fd5b6000918252602080832060046005909302018201805494151560ff199095169490941790935589825260cc909252604090200180548391908890811061247d57634e487b7160e01b600052603260045260246000fd5b6000918252602090912060059091020180546001600160a01b0319166001600160a01b0392909216919091179055841515600114156124e9578054600090815260cc6020526040902060018101546002909101546124e7916001600160a01b03169086903361360e565b505b5060019695505050505050565b60008054610100900460ff161561253d578160ff1660011480156125195750303b155b6125355760405162461bcd60e51b8152600401610c4f90614748565b506000611040565b60005460ff8084169116106125645760405162461bcd60e51b8152600401610c4f90614748565b506000805460ff191660ff83161790556001611040565b600054610100900460ff166125a25760405162461bcd60e51b8152600401610c4f90614796565b6125ac82826136be565b5050565b600054610100900460ff166125d75760405162461bcd60e51b8152600401610c4f90614796565b610c286136ff565b600054610100900460ff166126065760405162461bcd60e51b8152600401610c4f90614796565b610c2861372c565b600061055882846148ea565b60995460ff166126635760405162461bcd60e51b815260206004820152601460248201527314185d5cd8589b194e881b9bdd081c185d5cd95960621b6044820152606401610c4f565b6099805460ff191690557f5db9ee0a495bf2e6ff9c91a7834c1ba4fdd244a5e8aa4e537bd38aeae4b073aa335b6040516001600160a01b03909116815260200160405180910390a1565b6000808360200135116126d25760405162461bcd60e51b8152600401610c4f90614818565b60006126dd60cb5490565b6126e89060016148ea565b905060006126f7858584613302565b90508061273b5760405162461bcd60e51b815260206004820152601260248201527111985a5b1959081d1bc8135a5b9d0813919560721b6044820152606401610c4f565b600082815260cc602052604081206008015461275990600190614a4c565b90506127658382612978565b9695505050505050565b6000808360200135116127945760405162461bcd60e51b8152600401610c4f90614818565b600082815260cc6020526040908190208381556001810180546001600160a01b03808a166001600160a01b0319928316179092558635600284015560039092018054918b16919092161790556127f090606085019085016143fa565b600083815260cc602052604090206001600160601b0391909116600160601b6001600160a01b0387160217600590910155612831608084016060850161419c565b600083815260cc6020526040902060068101805461ff00199315159390931661ffff199093169290921761010017909155608084013560079091015561287d60c0840160a0850161419c565b600083815260cc6020818152604080842060098101805460ff191696151596909617909555805160a0810182526001600160a01b038c1681528883013581840152938790529190526004830192908201906128d9906008015490565b8152602080820186905260016040928301819052845480820186556000958652828620855160059092020180546001600160a01b0319166001600160a01b039092169190911781558483015181830155848401516002820155606085015160038201556080909401516004909401805460ff19169415159490941790935585845260cc9052909120600801805490910190555060019695505050505050565b600082815260cc602052604081206004810180548392918391869081106129af57634e487b7160e01b600052603260045260246000fd5b6000918252602090912060046005909202019081015490915060ff161515600114612a0b5760405162461bcd60e51b815260206004820152600c60248201526b4e6f7420666f722073616c6560a01b6044820152606401610c4f565b8060010154925060008311612a325760405162461bcd60e51b8152600401610c4f90614818565b80546001600160a01b03166000612a4a85600361375f565b6001850154600286015460405163152a902d60e11b81526004810191909152602481018890529192506001600160a01b03169060009081908390632a55205a90604401604080518083038186803b158015612aa457600080fd5b505afa158015612ab8573d6000803e3d6000fd5b505050506040513d601f19601f82011682018060405250810190612adc9190613fc7565b90925090506000612af782612af18b886137a4565b906137a4565b600989015490915060ff1615612bb6576001880154600789015460028a0154604051627eeac760e11b815233600482015260248101919091526001600160a01b0390921691829062fdd58e9060440160206040518083038186803b158015612b5e57600080fd5b505afa158015612b72573d6000803e3d6000fd5b505050506040513d601f19601f82011682018060405250810190612b96919061433a565b1015612bb45760405162461bcd60e51b8152600401610c4f906146e8565b505b600688015460ff1680612bdb57506005880154600160601b90046001600160a01b0316155b15612c63576040516001600160a01b0387169082156108fc029083906000818181858888f19350505050158015612c16573d6000803e3d6000fd5b506040516001600160a01b0384169083156108fc029084906000818181858888f19350505050158015612c4d573d6000803e3d6000fd5b5060cf54612c5b908661260e565b60cf55612f1b565b6005880154604051636eb1769f60e11b8152336004820152306024820152600160601b9091046001600160a01b0316908a90829063dd62ed3e9060440160206040518083038186803b158015612cb857600080fd5b505afa158015612ccc573d6000803e3d6000fd5b505050506040513d601f19601f82011682018060405250810190612cf0919061433a565b10612ed8576040516323b872dd60e01b81526001600160a01b038216906323b872dd90612d259033908b908790600401614505565b602060405180830381600087803b158015612d3f57600080fd5b505af1158015612d53573d6000803e3d6000fd5b505050506040513d601f19601f82011682018060405250810190612d7791906141b8565b612d935760405162461bcd60e51b8152600401610c4f9061471f565b60cd546040516323b872dd60e01b81526001600160a01b03808416926323b872dd92612dc792339216908b90600401614505565b602060405180830381600087803b158015612de157600080fd5b505af1158015612df5573d6000803e3d6000fd5b505050506040513d601f19601f82011682018060405250810190612e1991906141b8565b612e355760405162461bcd60e51b8152600401610c4f9061471f565b6040516323b872dd60e01b81526001600160a01b038216906323b872dd90612e6590339088908890600401614505565b602060405180830381600087803b158015612e7f57600080fd5b505af1158015612e93573d6000803e3d6000fd5b505050506040513d601f19601f82011682018060405250810190612eb791906141b8565b612ed35760405162461bcd60e51b8152600401610c4f9061471f565b612f19565b60405162461bcd60e51b8152602060048201526016602482015275496e73756666696369656e7420416c6c6f77616e636560501b6044820152606401610c4f565b505b612f278c8c88336130c4565b9c9b505050505050505050505050565b60995460ff1615612f7d5760405162461bcd60e51b815260206004820152601060248201526f14185d5cd8589b194e881c185d5cd95960821b6044820152606401610c4f565b6099805460ff191660011790557f62e78cea01bee320cd4e420270b5ea74000d11b0c9f74754ebdbfc544b05a2586126903390565b600061309a7f9f1b4f1ae6f22c440250f116238e331a00e9e0958ff40b35a30f5bd632c98b5183356020850135612fef60608701604088016143fa565b612fff608088016060890161419c565b608088013561301460c08a0160a08b0161419c565b61302160c08b018b61484f565b60405161302f9291906144d9565b60408051918290038220602083019990995281019690965260608601949094526001600160601b039092166080850152151560a084015260c0830152151560e082015261010081019190915261012001604051602081830303815290604052805190602001206137b0565b92915050565b60008060006130af85856137fe565b915091506130bc8161386e565b509392505050565b600084815260cc60205260408120600481018054839190879081106130f957634e487b7160e01b600052603260045260246000fd5b6000918252602090912060046005909202019081015490915060ff1615156001146131555760405162461bcd60e51b815260206004820152600c60248201526b4e6f7420666f722073616c6560a01b6044820152606401610c4f565b600180820154908301546001600160a01b0316600090815260ce60205260409020546131809161260e565b600180840180546001600160a01b03908116600090815260ce6020526040902093909355549083015460028501546131be9392909216918890613a74565b50600982015460ff161561325f576001828101546002840154604051637921219560e11b81526001600160a01b03898116600483015288811660248301526044820192909252606481019390935260a06084840152600060a48401521690819063f242432a9060c401600060405180830381600087803b15801561324157600080fd5b505af1158015613255573d6000803e3d6000fd5b50505050506132cf565b600182015460028301546040516323b872dd60e01b81526001600160a01b039092169182916323b872dd9161329b918a918a9190600401614505565b600060405180830381600087803b1580156132b557600080fd5b505af11580156132c9573d6000803e3d6000fd5b50505050505b80546001600160a01b0385166001600160a01b0319909116178155600401805460ff191690555060019050949350505050565b600081815260cc60205260408120600781015460089091015411156133595760405162461bcd60e51b815260206004820152600d60248201526c4d696e74204f766572666c6f7760981b6044820152606401610c4f565b600061336485611f6f565b9050600061337860c0870160a0880161419c565b1561349f57846001600160a01b038116633ef1f7a684893561339d60c08c018c61484f565b6133ad60608e0160408f016143fa565b8d608001356040518763ffffffff1660e01b81526004016133d39695949392919061456c565b602060405180830381600087803b1580156133ed57600080fd5b505af1158015613401573d6000803e3d6000fd5b505050506040513d601f19601f8201168201806040525081019061342591906141b8565b50806001600160a01b031663899e31066040518163ffffffff1660e01b815260040160206040518083038186803b15801561345f57600080fd5b505afa158015613473573d6000803e3d6000fd5b505050506040513d601f19601f820116820180604052508101906134979190613efb565b9150506135b7565b846001600160a01b03811663a2b929ea8489356134bf60c08c018c61484f565b6134cf60608e0160408f016143fa565b6040518663ffffffff1660e01b81526004016134ef959493929190614529565b602060405180830381600087803b15801561350957600080fd5b505af115801561351d573d6000803e3d6000fd5b505050506040513d601f19601f8201168201806040525081019061354191906141b8565b50806001600160a01b031663899e31066040518163ffffffff1660e01b815260040160206040518083038186803b15801561357b57600080fd5b505afa15801561358f573d6000803e3d6000fd5b505050506040513d601f19601f820116820180604052508101906135b39190613efb565b9150505b60006135c7838488858b8a61276f565b90508015612765576135dd60cb80546001019055565b61360386886020013560cc6000898152602001908152602001600020600201548661360e565b509695505050505050565b604051602481018490526001600160a01b03828116604483015260648201849052600091829187169060840160408051601f198184030181529181526020820180516001600160e01b0316633f2c55ab60e21b1790525161366f91906144e9565b6000604051808303816000865af19150503d80600081146136ac576040519150601f19603f3d011682016040523d82523d6000602084013e6136b1565b606091505b5090979650505050505050565b600054610100900460ff166136e55760405162461bcd60e51b8152600401610c4f90614796565b815160209283012081519190920120603391909155603455565b600054610100900460ff166137265760405162461bcd60e51b8152600401610c4f90614796565b60018055565b600054610100900460ff166137535760405162461bcd60e51b8152600401610c4f90614796565b6099805460ff19169055565b60008061378d6137716002600a61495f565b61377c906064614a2d565b613787866064613adb565b90613ae7565b9050600061379b8285613adb565b95945050505050565b60006105588284614a4c565b600061309a6137bd613af3565b8360405161190160f01b6020820152602281018390526042810182905260009060620160405160208183030381529060405280519060200120905092915050565b6000808251604114156138355760208301516040840151606085015160001a61382987828585613b73565b94509450505050613867565b82516040141561385f5760208301516040840151613854868383613c60565b935093505050613867565b506000905060025b9250929050565b600081600481111561389057634e487b7160e01b600052602160045260246000fd5b141561389b57613a71565b60018160048111156138bd57634e487b7160e01b600052602160045260246000fd5b141561390b5760405162461bcd60e51b815260206004820152601860248201527f45434453413a20696e76616c6964207369676e617475726500000000000000006044820152606401610c4f565b600281600481111561392d57634e487b7160e01b600052602160045260246000fd5b141561397b5760405162461bcd60e51b815260206004820152601f60248201527f45434453413a20696e76616c6964207369676e6174757265206c656e677468006044820152606401610c4f565b600381600481111561399d57634e487b7160e01b600052602160045260246000fd5b14156139f65760405162461bcd60e51b815260206004820152602260248201527f45434453413a20696e76616c6964207369676e6174757265202773272076616c604482015261756560f01b6064820152608401610c4f565b6004816004811115613a1857634e487b7160e01b600052602160045260246000fd5b1415613a715760405162461bcd60e51b815260206004820152602260248201527f45434453413a20696e76616c6964207369676e6174757265202776272076616c604482015261756560f01b6064820152608401610c4f565b50565b604051602481018490523360448201526001600160a01b03838116606483015260848201839052600091829187169060a40160408051601f198184030181529181526020820180516001600160e01b0316639841aa7560e01b1790525161366f91906144e9565b60006105588284614a2d565b60006105588284614902565b6000613b6e7f8b73c3c69bb8fe3d512ecc4cf759cc79239f7b179b0ffacaa9a75d522b39400f613b2260335490565b6034546040805160208101859052908101839052606081018290524660808201523060a082015260009060c0016040516020818303038152906040528051906020012090509392505050565b905090565b6000807f7fffffffffffffffffffffffffffffff5d576e7357a4501ddfe92f46681b20a0831115613baa5750600090506003613c57565b8460ff16601b14158015613bc257508460ff16601c14155b15613bd35750600090506004613c57565b6040805160008082526020820180845289905260ff881692820192909252606081018690526080810185905260019060a0016020604051602081039080840390855afa158015613c27573d6000803e3d6000fd5b5050604051601f1901519150506001600160a01b038116613c5057600060019250925050613c57565b9150600090505b94509492505050565b6000806001600160ff1b03831681613c7d60ff86901c601b6148ea565b9050613c8b87828885613b73565b935093505050935093915050565b604080516101a081018252600080825260208083018290528284018290526060808401839052608084015260a0830182905260c0830182905260e08301829052610100830182905261012083018290528351908101909352825290610140820190815260006020820152606060409091015290565b803561104081614b0b565b60008083601f840112613d2a578182fd5b5081356001600160401b03811115613d40578182fd5b6020830191508360208260061b850101111561386757600080fd5b600082601f830112613d6b578081fd5b813560206001600160401b03821115613d8657613d86614af5565b613d94818360051b01614893565b8281528181019085830160a080860288018501891015613db2578687fd5b865b86811015613e215781838b031215613dca578788fd5b613dd382614893565b8335613dde81614b0b565b815283870135878201526040808501359082015260608085013590820152608080850135613e0b81614b20565b9082015285529385019391810191600101613db4565b509198975050505050505050565b803561104081614b20565b600082601f830112613e4a578081fd5b8135613e5d613e58826148c3565b614893565b818152846020838601011115613e71578283fd5b816020850160208301379081016020019190915292915050565b600060208284031215613e9c578081fd5b613ea66020614893565b9135825250919050565b60006101008284031215613ec2578081fd5b50919050565b80356001600160601b038116811461104057600080fd5b600060208284031215613ef0578081fd5b813561055881614b0b565b600060208284031215613f0c578081fd5b815161055881614b0b565b600080600080600060a08688031215613f2e578081fd5b8535613f3981614b0b565b94506020860135613f4981614b0b565b93506040860135613f5981614b0b565b92506060860135613f6981614b0b565b915060808601356001600160401b03811115613f83578182fd5b613f8f88828901613eb0565b9150509295509295909350565b60008060408385031215613fae578182fd5b8235613fb981614b0b565b946020939093013593505050565b60008060408385031215613fd9578182fd5b8251613fe481614b0b565b6020939093015192949293505050565b60008060208385031215614006578182fd5b82356001600160401b0381111561401b578283fd5b61402785828601613d19565b90969095509350505050565b600080600060408486031215614047578081fd5b83356001600160401b038082111561405d578283fd5b61406987838801613d19565b90955093506020860135915080821115614081578283fd5b81860191506101a0808389031215614097578384fd5b6140a081614893565b9050823581526140b260208401613d0e565b6020820152604083013560408201526140cd60608401613d0e565b60608201526080830135828111156140e3578485fd5b6140ef89828601613d5b565b60808301525061410160a08401613ec8565b60a082015261411260c08401613d0e565b60c082015261412360e08401613e2f565b60e0820152610100614136818501613e2f565b90820152610120838101359082015261014061415489828601613e8b565b90820152610160614166848201613e2f565b90820152610180838101358381111561417d578586fd5b6141898a828701613e3a565b8284015250508093505050509250925092565b6000602082840312156141ad578081fd5b813561055881614b20565b6000602082840312156141c9578081fd5b815161055881614b20565b6000602082840312156141e5578081fd5b81516001600160401b038111156141fa578182fd5b8201601f8101841361420a578182fd5b8051614218613e58826148c3565b81815285602083850101111561422c578384fd5b61379b826020830160208601614a63565b600080600060608486031215614251578081fd5b83356001600160401b0380821115614267578283fd5b61427387838801613e3a565b94506020860135915080821115614288578283fd5b5061429586828701613e3a565b92505060408401356142a681614b0b565b809150509250925092565b6000602082840312156142c2578081fd5b81356001600160401b038111156142d7578182fd5b6142e384828501613eb0565b949350505050565b600080604083850312156142fd578182fd5b82356001600160401b03811115614312578283fd5b61431e85828601613eb0565b925050602083013561432f81614b0b565b809150509250929050565b60006020828403121561434b578081fd5b5051919050565b60008060408385031215614364578182fd5b50508035926020909101359150565b60008060008060808587031215614388578182fd5b843593506020850135925060408501356143a181614b0b565b915060608501356143b181614b0b565b939692955090935050565b600080600080608085870312156143d1578182fd5b843593506020850135925060408501356143ea81614b20565b9396929550929360600135925050565b60006020828403121561440b578081fd5b61055882613ec8565b6000815180845260208085019450808401835b8381101561447857815180516001600160a01b031688528381015184890152604080820151908901526060808201519089015260809081015115159088015260a09096019590820190600101614427565b509495945050505050565b60008284528282602086013780602084860101526020601f19601f85011685010190509392505050565b600081518084526144c5816020860160208601614a63565b601f01601f19169290920160200192915050565b6000828483379101908152919050565b600082516144fb818460208701614a63565b9190910192915050565b6001600160a01b039384168152919092166020820152604081019190915260600190565b600060018060a01b038716825285602083015260806040830152614551608083018587614483565b90506001600160601b03831660608301529695505050505050565b600060018060a01b038816825286602083015260a0604083015261459460a083018688614483565b6001600160601b039490941660608301525060800152949350505050565b60006020808301818452808551808352604092508286019150828160051b870101848801865b838110156146da57888303603f19018552815180518452878101516001600160a01b038116898601526101a0905081880151858901526060808301516001600160a01b038116828801525050608080830151828288015261463b83880182614414565b9250505060a080830151614659828801826001600160601b03169052565b505060c0828101516001600160a01b03169086015260e0808301511515908601526101008083015115159086015261012080830151908601526101408083015151908601526101608083015115159086015261018091820151858203928601929092526146c681836144ad565b9689019694505050908601906001016145d8565b509098975050505050505050565b60208082526019908201527f73656e64657220646f6573206e6f74206f776e20746f6b656e00000000000000604082015260600190565b6020808252600f908201526e1d1c985b9cd9995c8811985a5b1959608a1b604082015260600190565b6020808252602e908201527f496e697469616c697a61626c653a20636f6e747261637420697320616c72656160408201526d191e481a5b9a5d1a585b1a5e995960921b606082015260800190565b6020808252602b908201527f496e697469616c697a61626c653a20636f6e7472616374206973206e6f74206960408201526a6e697469616c697a696e6760a81b606082015260800190565b6020808252601f908201527f5265656e7472616e637947756172643a207265656e7472616e742063616c6c00604082015260600190565b6020808252601c908201527f5072696365206d757374206265206174206c6561737420312077656900000000604082015260600190565b6000808335601e19843603018112614865578283fd5b8301803591506001600160401b0382111561487e578283fd5b60200191503681900382131561386757600080fd5b604051601f8201601f191681016001600160401b03811182821017156148bb576148bb614af5565b604052919050565b60006001600160401b038211156148dc576148dc614af5565b50601f01601f191660200190565b600082198211156148fd576148fd614adf565b500190565b60008261491d57634e487b7160e01b81526012600452602481fd5b500490565b80825b60018086116149345750613c57565b81870482111561494657614946614adf565b8086161561495357918102915b9490941c938002614925565b6000610558600019848460008261497857506001610558565b8161498557506000610558565b816001811461499b57600281146149a5576149d2565b6001915050610558565b60ff8411156149b6576149b6614adf565b6001841b9150848211156149cc576149cc614adf565b50610558565b5060208310610133831016604e8410600b8410161715614a05575081810a83811115614a0057614a00614adf565b610558565b614a128484846001614922565b808604821115614a2457614a24614adf565b02949350505050565b6000816000190483118215151615614a4757614a47614adf565b500290565b600082821015614a5e57614a5e614adf565b500390565b60005b83811015614a7e578181015183820152602001614a66565b8381111561049d5750506000910152565b600181811c90821680614aa357607f821691505b60208210811415613ec257634e487b7160e01b600052602260045260246000fd5b6000600019821415614ad857614ad8614adf565b5060010190565b634e487b7160e01b600052601160045260246000fd5b634e487b7160e01b600052604160045260246000fd5b6001600160a01b0381168114613a7157600080fd5b8015158114613a7157600080fdfea2646970667358221220c4aeee9708da5c663ceecb5b8e76116852eff546082faf21ce39efa36860f6f164736f6c63430008030033",
  "linkReferences": {},
  "deployedLinkReferences": {}
}