{
  "_format": "hh-sol-artifact-1",
  "contractName": "ThredMarketplace",
  "sourceName": "contracts/ThredMarketplace/ThredMarketplace.sol",
  "abi": [
    {
      "inputs": [
        {
          "internalType": "string",
          "name": "domain",
          "type": "string"
        },
        {
          "internalType": "string",
          "name": "version",
          "type": "string"
        }
      ],
      "stateMutability": "nonpayable",
      "type": "constructor"
    },
    {
      "inputs": [
        {
          "internalType": "address payable",
          "name": "nftOwner",
          "type": "address"
        },
        {
          "internalType": "address payable",
          "name": "nftSeller",
          "type": "address"
        },
        {
          "internalType": "address",
          "name": "nftContract",
          "type": "address"
        },
        {
          "components": [
            {
              "internalType": "uint256",
              "name": "tokenId",
              "type": "uint256"
            },
            {
              "internalType": "uint256",
              "name": "minPrice",
              "type": "uint256"
            },
            {
              "internalType": "uint96",
              "name": "royalty",
              "type": "uint96"
            },
            {
              "internalType": "address",
              "name": "token",
              "type": "address"
            },
            {
              "internalType": "bool",
              "name": "isNative",
              "type": "bool"
            },
            {
              "internalType": "string",
              "name": "uri",
              "type": "string"
            },
            {
              "internalType": "bytes",
              "name": "signature",
              "type": "bytes"
            }
          ],
          "internalType": "struct ThredMarketplace.NFTVoucher",
          "name": "voucher",
          "type": "tuple"
        }
      ],
      "name": "createMarketItem",
      "outputs": [
        {
          "internalType": "bool",
          "name": "",
          "type": "bool"
        }
      ],
      "stateMutability": "nonpayable",
      "type": "function"
    },
    {
      "inputs": [
        {
          "components": [
            {
              "internalType": "uint256",
              "name": "itemId",
              "type": "uint256"
            },
            {
              "internalType": "address",
              "name": "nftContract",
              "type": "address"
            },
            {
              "internalType": "uint256",
              "name": "tokenId",
              "type": "uint256"
            },
            {
              "internalType": "address payable",
              "name": "seller",
              "type": "address"
            },
            {
              "internalType": "address payable",
              "name": "owner",
              "type": "address"
            },
            {
              "internalType": "uint256",
              "name": "price",
              "type": "uint256"
            },
            {
              "internalType": "bool",
              "name": "forSale",
              "type": "bool"
            },
            {
              "internalType": "uint96",
              "name": "royalty",
              "type": "uint96"
            },
            {
              "internalType": "address",
              "name": "tokenContract",
              "type": "address"
            },
            {
              "internalType": "bool",
              "name": "isNative",
              "type": "bool"
            },
            {
              "internalType": "bool",
              "name": "minted",
              "type": "bool"
            }
          ],
          "internalType": "struct ThredMarketplace.MarketItem",
          "name": "item",
          "type": "tuple"
        }
      ],
      "name": "createSale",
      "outputs": [
        {
          "internalType": "bool",
          "name": "",
          "type": "bool"
        }
      ],
      "stateMutability": "payable",
      "type": "function"
    },
    {
      "inputs": [
        {
          "components": [
            {
              "internalType": "uint256",
              "name": "itemId",
              "type": "uint256"
            },
            {
              "internalType": "address",
              "name": "nftContract",
              "type": "address"
            },
            {
              "internalType": "uint256",
              "name": "tokenId",
              "type": "uint256"
            },
            {
              "internalType": "address payable",
              "name": "seller",
              "type": "address"
            },
            {
              "internalType": "address payable",
              "name": "owner",
              "type": "address"
            },
            {
              "internalType": "uint256",
              "name": "price",
              "type": "uint256"
            },
            {
              "internalType": "bool",
              "name": "forSale",
              "type": "bool"
            },
            {
              "internalType": "uint96",
              "name": "royalty",
              "type": "uint96"
            },
            {
              "internalType": "address",
              "name": "tokenContract",
              "type": "address"
            },
            {
              "internalType": "bool",
              "name": "isNative",
              "type": "bool"
            },
            {
              "internalType": "bool",
              "name": "minted",
              "type": "bool"
            }
          ],
          "internalType": "struct ThredMarketplace.MarketItem",
          "name": "item",
          "type": "tuple"
        }
      ],
      "name": "createSaleCustom",
      "outputs": [
        {
          "internalType": "bool",
          "name": "",
          "type": "bool"
        }
      ],
      "stateMutability": "payable",
      "type": "function"
    },
    {
      "inputs": [
        {
          "internalType": "address",
          "name": "contractAddress",
          "type": "address"
        }
      ],
      "name": "fetchCollectionAssets",
      "outputs": [
        {
          "components": [
            {
              "internalType": "uint256",
              "name": "itemId",
              "type": "uint256"
            },
            {
              "internalType": "address",
              "name": "nftContract",
              "type": "address"
            },
            {
              "internalType": "uint256",
              "name": "tokenId",
              "type": "uint256"
            },
            {
              "internalType": "address payable",
              "name": "seller",
              "type": "address"
            },
            {
              "internalType": "address payable",
              "name": "owner",
              "type": "address"
            },
            {
              "internalType": "uint256",
              "name": "price",
              "type": "uint256"
            },
            {
              "internalType": "bool",
              "name": "forSale",
              "type": "bool"
            },
            {
              "internalType": "uint96",
              "name": "royalty",
              "type": "uint96"
            },
            {
              "internalType": "address",
              "name": "tokenContract",
              "type": "address"
            },
            {
              "internalType": "bool",
              "name": "isNative",
              "type": "bool"
            },
            {
              "internalType": "bool",
              "name": "minted",
              "type": "bool"
            }
          ],
          "internalType": "struct ThredMarketplace.MarketItem[]",
          "name": "",
          "type": "tuple[]"
        }
      ],
      "stateMutability": "view",
      "type": "function"
    },
    {
      "inputs": [
        {
          "internalType": "address",
          "name": "marketAddress",
          "type": "address"
        }
      ],
      "name": "fetchMarketAssets",
      "outputs": [
        {
          "components": [
            {
              "internalType": "uint256",
              "name": "itemId",
              "type": "uint256"
            },
            {
              "internalType": "address",
              "name": "nftContract",
              "type": "address"
            },
            {
              "internalType": "uint256",
              "name": "tokenId",
              "type": "uint256"
            },
            {
              "internalType": "address payable",
              "name": "seller",
              "type": "address"
            },
            {
              "internalType": "address payable",
              "name": "owner",
              "type": "address"
            },
            {
              "internalType": "uint256",
              "name": "price",
              "type": "uint256"
            },
            {
              "internalType": "bool",
              "name": "forSale",
              "type": "bool"
            },
            {
              "internalType": "uint96",
              "name": "royalty",
              "type": "uint96"
            },
            {
              "internalType": "address",
              "name": "tokenContract",
              "type": "address"
            },
            {
              "internalType": "bool",
              "name": "isNative",
              "type": "bool"
            },
            {
              "internalType": "bool",
              "name": "minted",
              "type": "bool"
            }
          ],
          "internalType": "struct ThredMarketplace.MarketItem[]",
          "name": "",
          "type": "tuple[]"
        }
      ],
      "stateMutability": "view",
      "type": "function"
    },
    {
      "inputs": [],
      "name": "getChainID",
      "outputs": [
        {
          "internalType": "uint256",
          "name": "",
          "type": "uint256"
        }
      ],
      "stateMutability": "view",
      "type": "function"
    },
    {
      "inputs": [
        {
          "components": [
            {
              "internalType": "uint256",
              "name": "tokenId",
              "type": "uint256"
            },
            {
              "internalType": "uint256",
              "name": "minPrice",
              "type": "uint256"
            },
            {
              "internalType": "uint96",
              "name": "royalty",
              "type": "uint96"
            },
            {
              "internalType": "address",
              "name": "token",
              "type": "address"
            },
            {
              "internalType": "bool",
              "name": "isNative",
              "type": "bool"
            },
            {
              "internalType": "string",
              "name": "uri",
              "type": "string"
            },
            {
              "internalType": "bytes",
              "name": "signature",
              "type": "bytes"
            }
          ],
          "internalType": "struct ThredMarketplace.NFTVoucher",
          "name": "voucher",
          "type": "tuple"
        },
        {
          "internalType": "address",
          "name": "contractAddress",
          "type": "address"
        }
      ],
      "name": "mintAndTransfer",
      "outputs": [
        {
          "internalType": "bool",
          "name": "",
          "type": "bool"
        }
      ],
      "stateMutability": "payable",
      "type": "function"
    },
    {
      "inputs": [
        {
          "components": [
            {
              "internalType": "uint256",
              "name": "tokenId",
              "type": "uint256"
            },
            {
              "internalType": "uint256",
              "name": "minPrice",
              "type": "uint256"
            },
            {
              "internalType": "uint96",
              "name": "royalty",
              "type": "uint96"
            },
            {
              "internalType": "address",
              "name": "token",
              "type": "address"
            },
            {
              "internalType": "bool",
              "name": "isNative",
              "type": "bool"
            },
            {
              "internalType": "string",
              "name": "uri",
              "type": "string"
            },
            {
              "internalType": "bytes",
              "name": "signature",
              "type": "bytes"
            }
          ],
          "internalType": "struct ThredMarketplace.NFTVoucher",
          "name": "voucher",
          "type": "tuple"
        },
        {
          "internalType": "address",
          "name": "contractAddress",
          "type": "address"
        }
      ],
      "name": "mintAndTransferCustom",
      "outputs": [
        {
          "internalType": "bool",
          "name": "",
          "type": "bool"
        }
      ],
      "stateMutability": "payable",
      "type": "function"
    },
    {
      "inputs": [
        {
          "components": [
            {
              "internalType": "uint256",
              "name": "tokenId",
              "type": "uint256"
            },
            {
              "internalType": "uint256",
              "name": "minPrice",
              "type": "uint256"
            },
            {
              "internalType": "uint96",
              "name": "royalty",
              "type": "uint96"
            },
            {
              "internalType": "address",
              "name": "token",
              "type": "address"
            },
            {
              "internalType": "bool",
              "name": "isNative",
              "type": "bool"
            },
            {
              "internalType": "string",
              "name": "uri",
              "type": "string"
            },
            {
              "internalType": "bytes",
              "name": "signature",
              "type": "bytes"
            }
          ],
          "internalType": "struct ThredMarketplace.NFTVoucher",
          "name": "voucher",
          "type": "tuple"
        },
        {
          "internalType": "address",
          "name": "nftContract",
          "type": "address"
        }
      ],
      "name": "mintNFT",
      "outputs": [
        {
          "internalType": "bool",
          "name": "",
          "type": "bool"
        }
      ],
      "stateMutability": "nonpayable",
      "type": "function"
    },
    {
      "inputs": [
        {
          "components": [
            {
              "internalType": "uint256",
              "name": "itemId",
              "type": "uint256"
            },
            {
              "internalType": "address",
              "name": "nftContract",
              "type": "address"
            },
            {
              "internalType": "uint256",
              "name": "tokenId",
              "type": "uint256"
            },
            {
              "internalType": "address payable",
              "name": "seller",
              "type": "address"
            },
            {
              "internalType": "address payable",
              "name": "owner",
              "type": "address"
            },
            {
              "internalType": "uint256",
              "name": "price",
              "type": "uint256"
            },
            {
              "internalType": "bool",
              "name": "forSale",
              "type": "bool"
            },
            {
              "internalType": "uint96",
              "name": "royalty",
              "type": "uint96"
            },
            {
              "internalType": "address",
              "name": "tokenContract",
              "type": "address"
            },
            {
              "internalType": "bool",
              "name": "isNative",
              "type": "bool"
            },
            {
              "internalType": "bool",
              "name": "minted",
              "type": "bool"
            }
          ],
          "internalType": "struct ThredMarketplace.MarketItem",
          "name": "item",
          "type": "tuple"
        },
        {
          "internalType": "bool",
          "name": "forSale",
          "type": "bool"
        },
        {
          "internalType": "uint256",
          "name": "price",
          "type": "uint256"
        }
      ],
      "name": "updateItem",
      "outputs": [
        {
          "internalType": "bool",
          "name": "",
          "type": "bool"
        }
      ],
      "stateMutability": "nonpayable",
      "type": "function"
    }
  ],
  "bytecode": "0x6101406040523480156200001257600080fd5b506040516200262738038062002627833981016040819052620000359162000188565b6001600055815160209283012081519183019190912060e08290526101008190524660a0818152604080517f8b73c3c69bb8fe3d512ecc4cf759cc79239f7b179b0ffacaa9a75d522b39400f81880181905281830196909652606081810195909552608080820194909452308184018190528251808303909401845260c091820190925282519290960191909120909152901b9091526101205262000205565b600082601f830112620000e6578081fd5b81516001600160401b0380821115620001035762000103620001ef565b604051601f8301601f19908116603f011681019082821181831017156200012e576200012e620001ef565b816040528381526020925086838588010111156200014a578485fd5b8491505b838210156200016d57858201830151818301840152908201906200014e565b838211156200017e57848385830101525b9695505050505050565b600080604083850312156200019b578182fd5b82516001600160401b0380821115620001b2578384fd5b620001c086838701620000d5565b93506020850151915080821115620001d6578283fd5b50620001e585828601620000d5565b9150509250929050565b634e487b7160e01b600052604160045260246000fd5b60805160a05160c05160601c60e05161010051610120516123cf6200025860003960006119e801526000611a3701526000611a120152600061196901526000611993015260006119bd01526123cf6000f3fe6080604052600436106100915760003560e01c80637c503420116100595780637c5034201461012157806388829b1b1461014e578063a4747be514610161578063bd0c54721461014e578063e5af610a1461018157610091565b80630a4cb5e0146100965780630ad44fe8146100be5780634c7a6b39146100de578063564b81ef146100fe5780635b0c736e14610096575b600080fd5b6100a96100a4366004611e83565b6101a1565b60405190151581526020015b60405180910390f35b3480156100ca57600080fd5b506100a96100d9366004611e41565b6101ea565b3480156100ea57600080fd5b506100a96100f9366004611d4d565b6103fd565b34801561010a57600080fd5b50610113610441565b6040519081526020016100b5565b34801561012d57600080fd5b5061014161013c366004611d15565b610446565b6040516100b59190611fcc565b6100a961015c366004611e25565b610628565b34801561016d57600080fd5b5061014161017c366004611d15565b610666565b34801561018d57600080fd5b506100a961019c366004611e83565b61083d565b6000600260005414156101cf5760405162461bcd60e51b81526004016101c6906120c4565b60405180910390fd5b60026000556101de8383610892565b60016000559392505050565b825160009081526002602081905260408083209091015490850151146102475760405162461bcd60e51b81526020600482015260126024820152710e8ded6cadc92c840daeae6e840dac2e8c6d60731b60448201526064016101c6565b8351600090815260026020819052604080832060010154875184528184209092015490516331a9108f60e11b815260048101919091526001600160a01b0390911691908290636352211e9060240160206040518083038186803b1580156102ad57600080fd5b505afa1580156102c1573d6000803e3d6000fd5b505050506040513d601f19601f820116820180604052508101906102e59190611d31565b9050336001600160a01b0382161461033f5760405162461bcd60e51b815260206004820152601860248201527f73656e646572206e6f742070726f7065722073656c6c6572000000000000000060448201526064016101c6565b6000841161035f5760405162461bcd60e51b81526004016101c6906120fb565b855160009081526002602052604080822060050186905587518252808220600601805460ff191688151590811790915588518352912060030180546001600160a01b0319166001600160a01b038416179055600114156103ef57855160009081526002602081905260408083206001015489518452922001546103ed916001600160a01b03169086906109e0565b505b6001925050505b9392505050565b6000600260005414156104225760405162461bcd60e51b81526004016101c6906120c4565b600260005561043385858585610a8d565b600160005595945050505050565b465b90565b6060600061045360015490565b90506000808267ffffffffffffffff81111561047f57634e487b7160e01b600052604160045260246000fd5b6040519080825280602002602001820160405280156104b857816020015b6104a5611bad565b81526020019060019003908161049d5790505b50905060005b8381101561061d576001600160a01b038616600260006104df8460016121cc565b81526020810191909152604001600020600401546001600160a01b0316141561060b57600061050f8260016121cc565b6000818152600260208181526040928390208351610160810185528154815260018201546001600160a01b03908116938201939093529281015493830193909352600383015481166060830152600483015481166080830152600583015460a0830152600683015460ff808216151560c08501526001600160601b03610100928390041660e0850152600785015492831691840191909152600160a01b820481161515610120840152600160a81b909104161515610140820152855192935090918590879081106105f057634e487b7160e01b600052603260045260246000fd5b60209081029190910101526106066001866121cc565b945050505b8061061581612345565b9150506104be565b50925050505b919050565b60006002600054141561064d5760405162461bcd60e51b81526004016101c6906120c4565b600260005561065b82610ca5565b600160005592915050565b6060600061067360015490565b90506000808267ffffffffffffffff81111561069f57634e487b7160e01b600052604160045260246000fd5b6040519080825280602002602001820160405280156106d857816020015b6106c5611bad565b8152602001906001900390816106bd5790505b50905060005b8381101561061d576001600160a01b038616600260006106ff8460016121cc565b81526020810191909152604001600020600101546001600160a01b0316141561082b57600061072f8260016121cc565b6000818152600260208181526040928390208351610160810185528154815260018201546001600160a01b03908116938201939093529281015493830193909352600383015481166060830152600483015481166080830152600583015460a0830152600683015460ff808216151560c08501526001600160601b03610100928390041660e0850152600785015492831691840191909152600160a01b820481161515610120840152600160a81b9091041615156101408201528551929350909185908790811061081057634e487b7160e01b600052603260045260246000fd5b60209081029190910101526108266001866121cc565b945050505b8061083581612345565b9150506106de565b6000600260005414156108625760405162461bcd60e51b81526004016101c6906120c4565b600260005560208301356108885760405162461bcd60e51b81526004016101c6906120fb565b6101de8383611317565b6000808360200135116108b75760405162461bcd60e51b81526004016101c6906120fb565b60006108c38484611317565b9050806109075760405162461bcd60e51b815260206004820152601260248201527111985a5b1959081d1bc8135a5b9d0813919560721b60448201526064016101c6565b600061091260015490565b6000818152600260208181526040928390208351610160810185528154815260018201546001600160a01b03908116938201939093529281015493830193909352600383015481166060830152600483015481166080830152600583015460a0830152600683015460ff808216151560c08501526001600160601b03610100928390041660e085015260079094015491821690830152600160a01b810483161515610120830152600160a81b900490911615156101408201529091506109d790610ca5565b95945050505050565b604051602481018390523360448201526064810182905260009081906001600160a01b0386169060840160408051601f198184030181529181526020820180516001600160e01b0316633f2c55ab60e21b17905251610a3f9190611f15565b6000604051808303816000865af19150503d8060008114610a7c576040519150601f19603f3d011682016040523d82523d6000602084013e610a81565b606091505b50909695505050505050565b600080826020013511610ab25760405162461bcd60e51b81526004016101c6906120fb565b610ac0600180546001019055565b6000610acb60015490565b9050604051806101600160405280828152602001856001600160a01b0316815260200184600001358152602001866001600160a01b03168152602001876001600160a01b0316815260200184602001358152602001600015158152602001846040016020810190610b3c9190611eeb565b6001600160601b03168152602001610b5a6080860160608701611d15565b6001600160a01b03168152602001610b7860a0860160808701611ded565b151581526001602091820181905260009384526002808352604094859020845181559284015183830180546001600160a01b03199081166001600160a01b039384161790915595850151918401919091556060840151600384018054871691831691909117905560808401516004840180549096169082161790945560a0830151600583015560c083015160068301805460e08601516cffffffffffffffffffffffffff199091169215156cffffffffffffffffffffffff001916929092176101006001600160601b0390931683021790558301516007909201805461012085015161014090950151939095166001600160a81b031990951694909417600160a01b931515939093029290921760ff60a81b1916600160a81b911515919091021790915595945050505050565b6000808260a0015111610cca5760405162461bcd60e51b81526004016101c6906120fb565b815160009081526002602052604090206005015460a083015114610d235760405162461bcd60e51b815260206004820152601060248201526f0a0e4d2c6ca40daeae6e840dac2e8c6d60831b60448201526064016101c6565b815160009081526002602081905260409182902001549083015114610d7d5760405162461bcd60e51b815260206004820152601060248201526f0a8ded6cadc40daeae6e840dac2e8c6d60831b60448201526064016101c6565b81516000908152600260205260409020600681015460ff161515600114610dd55760405162461bcd60e51b815260206004820152600c60248201526b4e6f7420666f722073616c6560a01b60448201526064016101c6565b600381810154600583015473d31c54efd3a4b5e6a993aaa4618d3700a12ff752926001600160a01b0390921691600090610e1090839061141b565b6001860154600287015460405163152a902d60e11b81526004810191909152602481018590529192506001600160a01b031690819060009081908390632a55205a90604401604080518083038186803b158015610e6c57600080fd5b505afa158015610e80573d6000803e3d6000fd5b505050506040513d601f19601f82011682018060405250810190610ea49190611dc0565b90925090506000610ebf82610eb98989611457565b90611457565b60078b0154909150600160a01b900460ff1680610ee7575060078a01546001600160a01b0316155b15610f96576040516001600160a01b0389169082156108fc029083906000818181858888f19350505050158015610f22573d6000803e3d6000fd5b506040516001600160a01b038a169087156108fc029088906000818181858888f19350505050158015610f59573d6000803e3d6000fd5b506040516001600160a01b0384169083156108fc029084906000818181858888f19350505050158015610f90573d6000803e3d6000fd5b50611247565b60078a015460058b0154604051636eb1769f60e11b81523360048201523060248201526001600160a01b0390921691829063dd62ed3e9060440160206040518083038186803b158015610fe857600080fd5b505afa158015610ffc573d6000803e3d6000fd5b505050506040513d601f19601f820116820180604052508101906110209190611ed3565b10611204576040516323b872dd60e01b81526001600160a01b038216906323b872dd906110559033908d908790600401611f4e565b602060405180830381600087803b15801561106f57600080fd5b505af1158015611083573d6000803e3d6000fd5b505050506040513d601f19601f820116820180604052508101906110a79190611e09565b6110c35760405162461bcd60e51b81526004016101c69061209b565b6040516323b872dd60e01b81526001600160a01b038216906323b872dd906110f39033908e908c90600401611f4e565b602060405180830381600087803b15801561110d57600080fd5b505af1158015611121573d6000803e3d6000fd5b505050506040513d601f19601f820116820180604052508101906111459190611e09565b6111615760405162461bcd60e51b81526004016101c69061209b565b6040516323b872dd60e01b81526001600160a01b038216906323b872dd9061119190339088908890600401611f4e565b602060405180830381600087803b1580156111ab57600080fd5b505af11580156111bf573d6000803e3d6000fd5b505050506040513d601f19601f820116820180604052508101906111e39190611e09565b6111ff5760405162461bcd60e51b81526004016101c69061209b565b611245565b60405162461bcd60e51b8152602060048201526016602482015275496e73756666696369656e7420416c6c6f77616e636560501b60448201526064016101c6565b505b60018a015460028b0154611268916001600160a01b03169089908b90611463565b5060028a01546040516323b872dd60e01b81526001600160a01b038716916323b872dd9161129d918c91339190600401611f4e565b600060405180830381600087803b1580156112b757600080fd5b505af11580156112cb573d6000803e3d6000fd5b50508d5160009081526002602052604080822060030180546001600160a01b031916331790558f5182529020600601805460ff191690555060019b505050505050505050505050919050565b60008061132384611519565b9050826001600160a01b03811663a2b929ea83873561134560a08a018a612177565b61135560608c0160408d01611eeb565b6040518663ffffffff1660e01b8152600401611375959493929190611f72565b602060405180830381600087803b15801561138f57600080fd5b505af11580156113a3573d6000803e3d6000fd5b505050506040513d601f19601f820116820180604052508101906113c79190611e09565b5060006113d683848789610a8d565b905080156109d75760006113e960015490565b905061141086886020013560026000858152602001908152602001600020600201546109e0565b505095945050505050565b60008061144961142d6002600a612241565b61143890606461230f565b611443866064611572565b9061157e565b905060006109d78285611572565b60006103f6828461232e565b604051602481018490523360448201526001600160a01b03838116606483015260848201839052600091829187169060a40160408051601f198184030181529181526020820180516001600160e01b0316639841aa7560e01b179052516114ca9190611f15565b6000604051808303816000865af19150503d8060008114611507576040519150601f19603f3d011682016040523d82523d6000602084013e61150c565b606091505b5090979650505050505050565b6000806115258361158a565b90506103f68161153860c0860186612132565b8080601f01602080910402602001604051908101604052809392919081815260200183838082843760009201919091525061167492505050565b60006103f6828461230f565b60006103f682846121e4565b600061166e7f56afae8d896fd9531f06be54cf24dfc399960088594ece641e90b33fc82e5cbb833560208501356115c76060870160408801611eeb565b6115d76080880160608901611d15565b6115e760a0890160808a01611ded565b6115f460a08a018a612177565b604051611602929190611f05565b60408051918290038220602083019890985281019590955260608501939093526001600160601b0390911660808401526001600160a01b031660a0830152151560c082015260e08101919091526101000160405160208183030381529060405280519060200120611698565b92915050565b600080600061168385856116e6565b9150915061169081611756565b509392505050565b600061166e6116a561195c565b8360405161190160f01b6020820152602281018390526042810182905260009060620160405160208183030381529060405280519060200120905092915050565b60008082516041141561171d5760208301516040840151606085015160001a61171187828585611a87565b9450945050505061174f565b825160401415611747576020830151604084015161173c868383611b74565b93509350505061174f565b506000905060025b9250929050565b600081600481111561177857634e487b7160e01b600052602160045260246000fd5b141561178357611959565b60018160048111156117a557634e487b7160e01b600052602160045260246000fd5b14156117f35760405162461bcd60e51b815260206004820152601860248201527f45434453413a20696e76616c6964207369676e6174757265000000000000000060448201526064016101c6565b600281600481111561181557634e487b7160e01b600052602160045260246000fd5b14156118635760405162461bcd60e51b815260206004820152601f60248201527f45434453413a20696e76616c6964207369676e6174757265206c656e6774680060448201526064016101c6565b600381600481111561188557634e487b7160e01b600052602160045260246000fd5b14156118de5760405162461bcd60e51b815260206004820152602260248201527f45434453413a20696e76616c6964207369676e6174757265202773272076616c604482015261756560f01b60648201526084016101c6565b600481600481111561190057634e487b7160e01b600052602160045260246000fd5b14156119595760405162461bcd60e51b815260206004820152602260248201527f45434453413a20696e76616c6964207369676e6174757265202776272076616c604482015261756560f01b60648201526084016101c6565b50565b6000306001600160a01b037f0000000000000000000000000000000000000000000000000000000000000000161480156119b557507f000000000000000000000000000000000000000000000000000000000000000046145b156119e157507f0000000000000000000000000000000000000000000000000000000000000000610443565b50604080517f00000000000000000000000000000000000000000000000000000000000000006020808301919091527f0000000000000000000000000000000000000000000000000000000000000000828401527f000000000000000000000000000000000000000000000000000000000000000060608301524660808301523060a0808401919091528351808403909101815260c09092019092528051910120610443565b6000807f7fffffffffffffffffffffffffffffff5d576e7357a4501ddfe92f46681b20a0831115611abe5750600090506003611b6b565b8460ff16601b14158015611ad657508460ff16601c14155b15611ae75750600090506004611b6b565b6040805160008082526020820180845289905260ff881692820192909252606081018690526080810185905260019060a0016020604051602081039080840390855afa158015611b3b573d6000803e3d6000fd5b5050604051601f1901519150506001600160a01b038116611b6457600060019250925050611b6b565b9150600090505b94509492505050565b6000806001600160ff1b03831681611b9160ff86901c601b6121cc565b9050611b9f87828885611a87565b935093505050935093915050565b6040805161016081018252600080825260208201819052918101829052606081018290526080810182905260a0810182905260c0810182905260e081018290526101008101829052610120810182905261014081019190915290565b803561062381612376565b80356106238161238b565b6000610160808385031215611c32578182fd5b611c3b8161218d565b91505081358152611c4e60208301611c09565b602082015260408201356040820152611c6960608301611c09565b6060820152611c7a60808301611c09565b608082015260a082013560a0820152611c9560c08301611c14565b60c0820152611ca660e08301611cfe565b60e0820152610100611cb9818401611c09565b90820152610120611ccb838201611c14565b90820152610140611cdd838201611c14565b9082015292915050565b600060e08284031215611cf8578081fd5b50919050565b80356001600160601b038116811461062357600080fd5b600060208284031215611d26578081fd5b81356103f681612376565b600060208284031215611d42578081fd5b81516103f681612376565b60008060008060808587031215611d62578283fd5b8435611d6d81612376565b93506020850135611d7d81612376565b92506040850135611d8d81612376565b9150606085013567ffffffffffffffff811115611da8578182fd5b611db487828801611ce7565b91505092959194509250565b60008060408385031215611dd2578182fd5b8251611ddd81612376565b6020939093015192949293505050565b600060208284031215611dfe578081fd5b81356103f68161238b565b600060208284031215611e1a578081fd5b81516103f68161238b565b60006101608284031215611e37578081fd5b6103f68383611c1f565b60008060006101a08486031215611e56578283fd5b611e608585611c1f565b9250610160840135611e718161238b565b92959294505050610180919091013590565b60008060408385031215611e95578182fd5b823567ffffffffffffffff811115611eab578283fd5b611eb785828601611ce7565b9250506020830135611ec881612376565b809150509250929050565b600060208284031215611ee4578081fd5b5051919050565b600060208284031215611efc578081fd5b6103f682611cfe565b6000828483379101908152919050565b60008251815b81811015611f355760208186018101518583015201611f1b565b81811115611f435782828501525b509190910192915050565b6001600160a01b039384168152919092166020820152604081019190915260600190565b6001600160a01b03861681526020810185905260806040820181905281018390526000838560a08401378060a0858401015260a0601f19601f86011683010190506001600160601b03831660608301529695505050505050565b602080825282518282018190526000919060409081850190868401855b8281101561208e57815180518552868101516001600160a01b0390811688870152868201518787015260608083015182169087015260808083015182169087015260a0808301519087015260c08083015115159087015260e0808301516001600160601b031690870152610100808301519091169086015261012080820151151590860152610140908101511515908501526101609093019290850190600101611fe9565b5091979650505050505050565b6020808252600f908201526e1d1c985b9cd9995c8811985a5b1959608a1b604082015260600190565b6020808252601f908201527f5265656e7472616e637947756172643a207265656e7472616e742063616c6c00604082015260600190565b6020808252601c908201527f5072696365206d757374206265206174206c6561737420312077656900000000604082015260600190565b6000808335601e19843603018112612148578283fd5b83018035915067ffffffffffffffff821115612162578283fd5b60200191503681900382131561174f57600080fd5b6000808335601e19843603018112612148578182fd5b604051601f8201601f1916810167ffffffffffffffff811182821017156121c457634e487b7160e01b600052604160045260246000fd5b604052919050565b600082198211156121df576121df612360565b500190565b6000826121ff57634e487b7160e01b81526012600452602481fd5b500490565b80825b60018086116122165750611b6b565b81870482111561222857612228612360565b8086161561223557918102915b9490941c938002612207565b60006103f6600019848460008261225a575060016103f6565b81612267575060006103f6565b816001811461227d5760028114612287576122b4565b60019150506103f6565b60ff84111561229857612298612360565b6001841b9150848211156122ae576122ae612360565b506103f6565b5060208310610133831016604e8410600b84101617156122e7575081810a838111156122e2576122e2612360565b6103f6565b6122f48484846001612204565b80860482111561230657612306612360565b02949350505050565b600081600019048311821515161561232957612329612360565b500290565b60008282101561234057612340612360565b500390565b600060001982141561235957612359612360565b5060010190565b634e487b7160e01b600052601160045260246000fd5b6001600160a01b038116811461195957600080fd5b801515811461195957600080fdfea26469706673582212209e5a5eb956c309e1ec076551e1a45c080209b9b1436e37bbce4610086259ebe864736f6c63430008030033",
  "linkReferences": {},
  "deployedLinkReferences": {}
}