{
  "_format": "hh-sol-artifact-1",
  "contractName": "ThredMarketplace",
  "sourceName": "contracts/ThredMarketplace/ThredMarketplace.sol",
  "bytecode": "0x608060405234801561001057600080fd5b50613d60806100206000396000f3fe6080604052600436106101095760003560e01c80637c50342011610095578063ade1e77011610064578063ade1e77014610294578063d8f9b50d146102cc578063dadfb61a146102df578063dd6a1fbd146102ff578063fa662b741461031a57610109565b80637c5034201461021f5780638456cb591461023f57806387bb44bd14610254578063a4747be51461027457610109565b806350517bad116100dc57806350517bad1461019e578063564b81ef146101be5780635c975abb146101d95780636019061b146101f15780636214d4271461020457610109565b8063077f224a1461010e5780630ea29a26146101305780633f4ba83a1461016657806348fc7cd41461017b575b600080fd5b34801561011a57600080fd5b5061012e610129366004613426565b61033a565b005b34801561013c57600080fd5b5061015061014b36600461332c565b6103df565b60405161015d91906137ab565b60405180910390f35b34801561017257600080fd5b5061012e610862565b61018e6101893660046134d6565b61086c565b604051901515815260200161015d565b3480156101aa57600080fd5b5061018e6101b93660046132a6565b6108b4565b3480156101ca57600080fd5b5060405146815260200161015d565b3480156101e557600080fd5b5060995460ff1661018e565b61018e6101ff36600461353e565b61092b565b34801561021057600080fd5b5061018e6101893660046134d6565b34801561022b57600080fd5b5061015061023a36600461326e565b61096c565b34801561024b57600080fd5b5061012e610c88565b34801561026057600080fd5b5061015061026f36600461326e565b610c90565b34801561028057600080fd5b5061015061028f36600461326e565b611117565b3480156102a057600080fd5b506102b46102af36600461349b565b611551565b6040516001600160a01b03909116815260200161015d565b61018e6102da36600461355f565b6115b1565b3480156102eb57600080fd5b5061018e6102fa3660046134d6565b61163f565b34801561030b57600080fd5b5061018e6101ff36600461353e565b34801561032657600080fd5b5061018e6103353660046135a8565b6116b9565b60006103466001611a12565b9050801561035e576000805461ff0019166101001790555b6103688484611a97565b610370611acc565b610378611afb565b60cd80546001600160a01b0319166001600160a01b03841617905580156103d9576000805461ff0019169055604051600181527f7f26b83ff96e1f2b6a682f133852f6798a09c465da95921460cefb38474024989060200160405180910390a15b50505050565b606060006103ec60cb5490565b60408051600180825281830190925291925060009190816020015b61040f613190565b81526020019060019003908161040757905050905060005b82811015610859576001600160a01b03861660cc6000610448846001613ae6565b81526020810191909152604001600020600101546001600160a01b031614801561049157508460cc600061047d846001613ae6565b815260200190815260200160002060020154145b156108475760006104a3826001613ae6565b600081815260cc6020908152604080832081516101a0810183528154815260018201546001600160a01b039081168286015260028301548285015260038301541660608201526004820180548451818702810187019095528085529697509495909491936080860193929190879084015b828210156105805760008481526020908190206040805160a0810182526005860290920180546001600160a01b0316835260018082015484860152600282015492840192909252600381015460608401526004015460ff16151560808301529083529092019101610514565b5050509082525060058201546001600160601b038116602080840191909152600160601b9091046001600160a01b0316604080840191909152600684015460ff8082161515606086015261010091829004811615156080860152600786015460a086015282519384019092526008850154835260c0840192909252600984015416151560e0830152600a8301805491909201919061061d90613c8b565b80601f016020809104026020016040519081016040528092919081815260200182805461064990613c8b565b80156106965780601f1061066b57610100808354040283529160200191610696565b820191906000526020600020905b81548152906001019060200180831161067957829003601f168201915b505050505081525050905060005b81608001515181101561081257602082015160408084015190516331a9108f60e11b815282916001600160a01b03831691636352211e916106eb9160040190815260200190565b60206040518083038186803b15801561070357600080fd5b505afa158015610717573d6000803e3d6000fd5b505050506040513d601f19601f8201168201806040525081019061073b919061328a565b8460800151848151811061075f57634e487b7160e01b600052603260045260246000fd5b60209081029190910101516001600160a01b039182169052604080860151905163c87b56dd60e01b81529183169163c87b56dd916107a39160040190815260200190565b60006040518083038186803b1580156107bb57600080fd5b505afa1580156107cf573d6000803e3d6000fd5b505050506040513d6000823e601f3d908101601f191682016040526107f791908101906133bc565b6101808501525081905061080a81613cc0565b9150506106a4565b50808460008151811061083557634e487b7160e01b600052603260045260246000fd5b60200260200101819052505050610859565b8061085181613cc0565b915050610427565b50949350505050565b61086a611b2a565b565b60006002600154141561089a5760405162461bcd60e51b8152600401610891906139da565b60405180910390fd5b60026001556108a98383611bbd565b600180559392505050565b6000600260015414156108d95760405162461bcd60e51b8152600401610891906139da565b600260015560006108e960cb5490565b6108f4906001613ae6565b90506000610906888888888887611c7f565b9050801561091c5761091c60cb80546001019055565b60018055979650505050505050565b6000600260015414156109505760405162461bcd60e51b8152600401610891906139da565b600260019081556108a99084906109679085613c48565b611e88565b6060600061097960cb5490565b90506000808267ffffffffffffffff8111156109a557634e487b7160e01b600052604160045260246000fd5b6040519080825280602002602001820160405280156109de57816020015b6109cb613190565b8152602001906001900390816109c35790505b50905060005b83811015610c7d576001600160a01b03861660cc6000610a05846001613ae6565b81526020810191909152604001600020600301546001600160a01b03161415610c6b576000610a35826001613ae6565b600081815260cc6020908152604080832081516101a0810183528154815260018201546001600160a01b0390811682860152600283015482850152600383015416606082015260048201805484518187028101870190955280855296975091959094869460808701949392919084015b82821015610b115760008481526020908190206040805160a0810182526005860290920180546001600160a01b0316835260018082015484860152600282015492840192909252600381015460608401526004015460ff16151560808301529083529092019101610aa5565b5050509082525060058201546001600160601b038116602080840191909152600160601b9091046001600160a01b0316604080840191909152600684015460ff8082161515606086015261010091829004811615156080860152600786015460a086015282519384019092526008850154835260c0840192909252600984015416151560e0830152600a83018054919092019190610bae90613c8b565b80601f0160208091040260200160405190810160405280929190818152602001828054610bda90613c8b565b8015610c275780601f10610bfc57610100808354040283529160200191610c27565b820191906000526020600020905b815481529060010190602001808311610c0a57829003601f168201915b505050505081525050848681518110610c5057634e487b7160e01b600052603260045260246000fd5b6020908102919091010152610c66600186613ae6565b945050505b80610c7581613cc0565b9150506109e4565b50925050505b919050565b61086a612472565b60606000610c9d60cb5490565b90506000808267ffffffffffffffff811115610cc957634e487b7160e01b600052604160045260246000fd5b604051908082528060200260200182016040528015610d0257816020015b610cef613190565b815260200190600190039081610ce75790505b50905060005b83811015610c7d576001600160a01b03861660cc6000610d29846001613ae6565b81526020810191909152604001600020600101546001600160a01b03161415611105576000610d59826001613ae6565b600081815260cc6020908152604080832081516101a0810183528154815260018201546001600160a01b039081168286015260028301548285015260038301541660608201526004820180548451818702810187019095528085529697509495909491936080860193929190879084015b82821015610e365760008481526020908190206040805160a0810182526005860290920180546001600160a01b0316835260018082015484860152600282015492840192909252600381015460608401526004015460ff16151560808301529083529092019101610dca565b5050509082525060058201546001600160601b038116602080840191909152600160601b9091046001600160a01b0316604080840191909152600684015460ff8082161515606086015261010091829004811615156080860152600786015460a086015282519384019092526008850154835260c0840192909252600984015416151560e0830152600a83018054919092019190610ed390613c8b565b80601f0160208091040260200160405190810160405280929190818152602001828054610eff90613c8b565b8015610f4c5780601f10610f2157610100808354040283529160200191610f4c565b820191906000526020600020905b815481529060010190602001808311610f2f57829003601f168201915b505050505081525050905060005b8160800151518110156110c857602082015160408084015190516331a9108f60e11b815282916001600160a01b03831691636352211e91610fa19160040190815260200190565b60206040518083038186803b158015610fb957600080fd5b505afa158015610fcd573d6000803e3d6000fd5b505050506040513d601f19601f82011682018060405250810190610ff1919061328a565b8460800151848151811061101557634e487b7160e01b600052603260045260246000fd5b60209081029190910101516001600160a01b039182169052604080860151905163c87b56dd60e01b81529183169163c87b56dd916110599160040190815260200190565b60006040518083038186803b15801561107157600080fd5b505afa158015611085573d6000803e3d6000fd5b505050506040513d6000823e601f3d908101601f191682016040526110ad91908101906133bc565b610180850152508190506110c081613cc0565b915050610f5a565b50808486815181106110ea57634e487b7160e01b600052603260045260246000fd5b6020908102919091010152611100600186613ae6565b945050505b8061110f81613cc0565b915050610d08565b606060008290506000816001600160a01b03166318160ddd6040518163ffffffff1660e01b815260040160206040518083038186803b15801561115957600080fd5b505afa15801561116d573d6000803e3d6000fd5b505050506040513d601f19601f820116820180604052508101906111919190613526565b90506000808267ffffffffffffffff8111156111bd57634e487b7160e01b600052604160045260246000fd5b6040519080825280602002602001820160405280156111f657816020015b6111e3613190565b8152602001906001900390816111db5790505b50905060005b8381101561154757604080516001808252818301909252600091816020015b6112586040518060a0016040528060006001600160a01b031681526020016000815260200160008152602001600081526020016000151581525090565b81526020019060019003908161121b57905050604051634f6ccce760e01b8152600481018490529091506000906001600160a01b03881690634f6ccce79060240160206040518083038186803b1580156112b157600080fd5b505afa1580156112c5573d6000803e3d6000fd5b505050506040513d601f19601f820116820180604052508101906112e99190613526565b6040516331a9108f60e11b815260048101829052909150899081906000906001600160a01b03831690636352211e9060240160206040518083038186803b15801561133357600080fd5b505afa158015611347573d6000803e3d6000fd5b505050506040513d601f19601f8201168201806040525081019061136b919061328a565b60405163c87b56dd60e01b8152600481018690529091506000906001600160a01b0384169063c87b56dd9060240160006040518083038186803b1580156113b157600080fd5b505afa1580156113c5573d6000803e3d6000fd5b505050506040513d6000823e601f3d908101601f191682016040526113ed91908101906133bc565b90506040518060a00160405280836001600160a01b03168152602001600081526020016000815260200160008152602001600015158152508660008151811061144657634e487b7160e01b600052603260045260246000fd5b60200260200101819052506000604051806101a00160405280600081526020018f6001600160a01b03168152602001878152602001846001600160a01b0316815260200188815260200160006001600160601b0316815260200160006001600160a01b031681526020016001151581526020016001151581526020016001815260200160cb604051806020016040529081600082015481525050815260200160001515815260200183815250905080898b8151811061151557634e487b7160e01b600052603260045260246000fd5b602090810291909101015261152b60018b613ae6565b995050505050505050808061153f90613cc0565b9150506111fc565b5095945050505050565b60008061155d836124ed565b90506115aa8161157060e0860186613a48565b8080601f0160208091040260200160405190810160405280939291908181526020018383808284376000920191909152506125db92505050565b9392505050565b6000600260015414156115d65760405162461bcd60e51b8152600401610891906139da565b600260015560cd546001600160a01b031633146116265760405162461bcd60e51b815260206004820152600e60248201526d139bdd08105d5d1a1bdc9a5e995960921b6044820152606401610891565b611632858584866125ff565b6001805595945050505050565b6000600260015414156116645760405162461bcd60e51b8152600401610891906139da565b6002600155602083013561168a5760405162461bcd60e51b815260040161089190613a11565b600061169560cb5490565b6116a0906001613ae6565b90506116ad8484836127f9565b60018055949350505050565b600084815260cc60205260408120600981015482919060ff16156117e2578054600090815260cc602052604080822060018101546002909101549151627eeac760e11b815233600482015260248101929092526001600160a01b03169190829062fdd58e9060440160206040518083038186803b15801561173957600080fd5b505afa15801561174d573d6000803e3d6000fd5b505050506040513d601f19601f820116820180604052508101906117719190613526565b1161178e5760405162461bcd60e51b8152600401610891906138e1565b600088815260cc602052604090206004018054889081106117bf57634e487b7160e01b600052603260045260246000fd5b60009182526020909120600590910201546001600160a01b0316925061187c9050565b8054600090815260cc602052604090819020600181015460029091015491516331a9108f60e11b815260048101929092526001600160a01b0316908190636352211e9060240160206040518083038186803b15801561184057600080fd5b505afa158015611854573d6000803e3d6000fd5b505050506040513d601f19601f82011682018060405250810190611878919061328a565b9250505b336001600160a01b038316146118a45760405162461bcd60e51b8152600401610891906138e1565b600084116118c45760405162461bcd60e51b815260040161089190613a11565b600087815260cc602052604090206004018054859190889081106118f857634e487b7160e01b600052603260045260246000fd5b9060005260206000209060050201600101819055508460cc6000898152602001908152602001600020600401878154811061194357634e487b7160e01b600052603260045260246000fd5b6000918252602080832060046005909302018201805494151560ff199095169490941790935589825260cc909252604090200180548391908890811061199957634e487b7160e01b600052603260045260246000fd5b6000918252602090912060059091020180546001600160a01b0319166001600160a01b039290921691909117905584151560011415611a05578054600090815260cc602052604090206001810154600290910154611a03916001600160a01b031690869033612b05565b505b5060019695505050505050565b60008054610100900460ff1615611a59578160ff166001148015611a355750303b155b611a515760405162461bcd60e51b815260040161089190613941565b506000610c83565b60005460ff808416911610611a805760405162461bcd60e51b815260040161089190613941565b506000805460ff191660ff83161790556001610c83565b600054610100900460ff16611abe5760405162461bcd60e51b81526004016108919061398f565b611ac88282612bb5565b5050565b600054610100900460ff16611af35760405162461bcd60e51b81526004016108919061398f565b61086a612bf6565b600054610100900460ff16611b225760405162461bcd60e51b81526004016108919061398f565b61086a612c23565b60995460ff16611b735760405162461bcd60e51b815260206004820152601460248201527314185d5cd8589b194e881b9bdd081c185d5cd95960621b6044820152606401610891565b6099805460ff191690557f5db9ee0a495bf2e6ff9c91a7834c1ba4fdd244a5e8aa4e537bd38aeae4b073aa335b6040516001600160a01b03909116815260200160405180910390a1565b600080836020013511611be25760405162461bcd60e51b815260040161089190613a11565b6000611bed60cb5490565b611bf8906001613ae6565b90506000611c078585846127f9565b905080611c4b5760405162461bcd60e51b815260206004820152601260248201527111985a5b1959081d1bc8135a5b9d0813919560721b6044820152606401610891565b600082815260cc6020526040812060080154611c6990600190613c48565b9050611c758382611e88565b9695505050505050565b600080836020013511611ca45760405162461bcd60e51b815260040161089190613a11565b600082815260cc6020526040908190208381556001810180546001600160a01b03808a166001600160a01b0319928316179092558635600284015560039092018054918b1691909216179055611d0090606085019085016135e6565b600083815260cc602052604090206001600160601b0391909116600160601b6001600160a01b0387160217600590910155611d416080840160608501613384565b600083815260cc6020526040902060068101805461ff00199315159390931661ffff1990931692909217610100179091556080840135600790910155611d8d60c0840160a08501613384565b600083815260cc6020818152604080842060098101805460ff191696151596909617909555805160a0810182526001600160a01b038c168152888301358184015293879052919052600483019290820190611de9906008015490565b8152602080820186905260016040928301819052845480820186556000958652828620855160059092020180546001600160a01b0319166001600160a01b039092169190911781558483015181830155848401516002820155606085015160038201556080909401516004909401805460ff19169415159490941790935585845260cc9052909120600801805490910190555060019695505050505050565b600082815260cc60205260408120600481018054839291839186908110611ebf57634e487b7160e01b600052603260045260246000fd5b6000918252602090912060046005909202019081015490915060ff161515600114611f1b5760405162461bcd60e51b815260206004820152600c60248201526b4e6f7420666f722073616c6560a01b6044820152606401610891565b8060010154925060008311611f425760405162461bcd60e51b815260040161089190613a11565b80546001600160a01b03166000611f5a856003612c56565b6001850154600286015460405163152a902d60e11b81526004810191909152602481018890529192506001600160a01b03169060009081908390632a55205a90604401604080518083038186803b158015611fb457600080fd5b505afa158015611fc8573d6000803e3d6000fd5b505050506040513d601f19601f82011682018060405250810190611fec9190613357565b90925090506000612007826120018b88612c9b565b90612c9b565b600989015490915060ff16156120c6576001880154600789015460028a0154604051627eeac760e11b815233600482015260248101919091526001600160a01b0390921691829062fdd58e9060440160206040518083038186803b15801561206e57600080fd5b505afa158015612082573d6000803e3d6000fd5b505050506040513d601f19601f820116820180604052508101906120a69190613526565b10156120c45760405162461bcd60e51b8152600401610891906138e1565b505b600688015460ff16806120eb57506005880154600160601b90046001600160a01b0316155b1561219e576040516001600160a01b0387169082156108fc029083906000818181858888f19350505050158015612126573d6000803e3d6000fd5b5060cd546040516001600160a01b039091169086156108fc029087906000818181858888f19350505050158015612161573d6000803e3d6000fd5b506040516001600160a01b0384169083156108fc029084906000818181858888f19350505050158015612198573d6000803e3d6000fd5b50612456565b6005880154604051636eb1769f60e11b8152336004820152306024820152600160601b9091046001600160a01b0316908a90829063dd62ed3e9060440160206040518083038186803b1580156121f357600080fd5b505afa158015612207573d6000803e3d6000fd5b505050506040513d601f19601f8201168201806040525081019061222b9190613526565b10612413576040516323b872dd60e01b81526001600160a01b038216906323b872dd906122609033908b9087906004016136fe565b602060405180830381600087803b15801561227a57600080fd5b505af115801561228e573d6000803e3d6000fd5b505050506040513d601f19601f820116820180604052508101906122b291906133a0565b6122ce5760405162461bcd60e51b815260040161089190613918565b60cd546040516323b872dd60e01b81526001600160a01b03808416926323b872dd9261230292339216908b906004016136fe565b602060405180830381600087803b15801561231c57600080fd5b505af1158015612330573d6000803e3d6000fd5b505050506040513d601f19601f8201168201806040525081019061235491906133a0565b6123705760405162461bcd60e51b815260040161089190613918565b6040516323b872dd60e01b81526001600160a01b038216906323b872dd906123a0903390889088906004016136fe565b602060405180830381600087803b1580156123ba57600080fd5b505af11580156123ce573d6000803e3d6000fd5b505050506040513d601f19601f820116820180604052508101906123f291906133a0565b61240e5760405162461bcd60e51b815260040161089190613918565b612454565b60405162461bcd60e51b8152602060048201526016602482015275496e73756666696369656e7420416c6c6f77616e636560501b6044820152606401610891565b505b6124628c8c88336125ff565b9c9b505050505050505050505050565b60995460ff16156124b85760405162461bcd60e51b815260206004820152601060248201526f14185d5cd8589b194e881c185d5cd95960821b6044820152606401610891565b6099805460ff191660011790557f62e78cea01bee320cd4e420270b5ea74000d11b0c9f74754ebdbfc544b05a258611ba03390565b60006125d57f9f1b4f1ae6f22c440250f116238e331a00e9e0958ff40b35a30f5bd632c98b518335602085013561252a60608701604088016135e6565b61253a6080880160608901613384565b608088013561254f60c08a0160a08b01613384565b61255c60c08b018b613a48565b60405161256a9291906136d2565b60408051918290038220602083019990995281019690965260608601949094526001600160601b039092166080850152151560a084015260c0830152151560e08201526101008101919091526101200160405160208183030381529060405280519060200120612ca7565b92915050565b60008060006125ea8585612cf5565b915091506125f781612d65565b509392505050565b600084815260cc602052604081206004810180548391908790811061263457634e487b7160e01b600052603260045260246000fd5b6000918252602090912060046005909202019081015490915060ff1615156001146126905760405162461bcd60e51b815260206004820152600c60248201526b4e6f7420666f722073616c6560a01b6044820152606401610891565b6001808301549082015460028401546126b5926001600160a01b031691908890612f6b565b50600982015460ff1615612756576001828101546002840154604051637921219560e11b81526001600160a01b03898116600483015288811660248301526044820192909252606481019390935260a06084840152600060a48401521690819063f242432a9060c401600060405180830381600087803b15801561273857600080fd5b505af115801561274c573d6000803e3d6000fd5b50505050506127c6565b600182015460028301546040516323b872dd60e01b81526001600160a01b039092169182916323b872dd91612792918a918a91906004016136fe565b600060405180830381600087803b1580156127ac57600080fd5b505af11580156127c0573d6000803e3d6000fd5b50505050505b80546001600160a01b0385166001600160a01b0319909116178155600401805460ff191690555060019050949350505050565b600081815260cc60205260408120600781015460089091015411156128505760405162461bcd60e51b815260206004820152600d60248201526c4d696e74204f766572666c6f7760981b6044820152606401610891565b600061285b85611551565b9050600061286f60c0870160a08801613384565b1561299657846001600160a01b038116633ef1f7a684893561289460c08c018c613a48565b6128a460608e0160408f016135e6565b8d608001356040518763ffffffff1660e01b81526004016128ca96959493929190613765565b602060405180830381600087803b1580156128e457600080fd5b505af11580156128f8573d6000803e3d6000fd5b505050506040513d601f19601f8201168201806040525081019061291c91906133a0565b50806001600160a01b031663899e31066040518163ffffffff1660e01b815260040160206040518083038186803b15801561295657600080fd5b505afa15801561296a573d6000803e3d6000fd5b505050506040513d601f19601f8201168201806040525081019061298e919061328a565b915050612aae565b846001600160a01b03811663a2b929ea8489356129b660c08c018c613a48565b6129c660608e0160408f016135e6565b6040518663ffffffff1660e01b81526004016129e6959493929190613722565b602060405180830381600087803b158015612a0057600080fd5b505af1158015612a14573d6000803e3d6000fd5b505050506040513d601f19601f82011682018060405250810190612a3891906133a0565b50806001600160a01b031663899e31066040518163ffffffff1660e01b815260040160206040518083038186803b158015612a7257600080fd5b505afa158015612a86573d6000803e3d6000fd5b505050506040513d601f19601f82011682018060405250810190612aaa919061328a565b9150505b6000612abe838488858b8a611c7f565b90508015611c7557612ad460cb80546001019055565b612afa86886020013560cc60008981526020019081526020016000206002015486612b05565b509695505050505050565b604051602481018490526001600160a01b03828116604483015260648201849052600091829187169060840160408051601f198184030181529181526020820180516001600160e01b0316633f2c55ab60e21b17905251612b6691906136e2565b6000604051808303816000865af19150503d8060008114612ba3576040519150601f19603f3d011682016040523d82523d6000602084013e612ba8565b606091505b5090979650505050505050565b600054610100900460ff16612bdc5760405162461bcd60e51b81526004016108919061398f565b815160209283012081519190920120603391909155603455565b600054610100900460ff16612c1d5760405162461bcd60e51b81526004016108919061398f565b60018055565b600054610100900460ff16612c4a5760405162461bcd60e51b81526004016108919061398f565b6099805460ff19169055565b600080612c84612c686002600a613b5b565b612c73906064613c29565b612c7e866064612fd2565b90612fde565b90506000612c928285612fd2565b95945050505050565b60006115aa8284613c48565b60006125d5612cb4612fea565b8360405161190160f01b6020820152602281018390526042810182905260009060620160405160208183030381529060405280519060200120905092915050565b600080825160411415612d2c5760208301516040840151606085015160001a612d208782858561306a565b94509450505050612d5e565b825160401415612d565760208301516040840151612d4b868383613157565b935093505050612d5e565b506000905060025b9250929050565b6000816004811115612d8757634e487b7160e01b600052602160045260246000fd5b1415612d9257612f68565b6001816004811115612db457634e487b7160e01b600052602160045260246000fd5b1415612e025760405162461bcd60e51b815260206004820152601860248201527f45434453413a20696e76616c6964207369676e617475726500000000000000006044820152606401610891565b6002816004811115612e2457634e487b7160e01b600052602160045260246000fd5b1415612e725760405162461bcd60e51b815260206004820152601f60248201527f45434453413a20696e76616c6964207369676e6174757265206c656e677468006044820152606401610891565b6003816004811115612e9457634e487b7160e01b600052602160045260246000fd5b1415612eed5760405162461bcd60e51b815260206004820152602260248201527f45434453413a20696e76616c6964207369676e6174757265202773272076616c604482015261756560f01b6064820152608401610891565b6004816004811115612f0f57634e487b7160e01b600052602160045260246000fd5b1415612f685760405162461bcd60e51b815260206004820152602260248201527f45434453413a20696e76616c6964207369676e6174757265202776272076616c604482015261756560f01b6064820152608401610891565b50565b604051602481018490523360448201526001600160a01b03838116606483015260848201839052600091829187169060a40160408051601f198184030181529181526020820180516001600160e01b0316639841aa7560e01b17905251612b6691906136e2565b60006115aa8284613c29565b60006115aa8284613afe565b60006130657f8b73c3c69bb8fe3d512ecc4cf759cc79239f7b179b0ffacaa9a75d522b39400f61301960335490565b6034546040805160208101859052908101839052606081018290524660808201523060a082015260009060c0016040516020818303038152906040528051906020012090509392505050565b905090565b6000807f7fffffffffffffffffffffffffffffff5d576e7357a4501ddfe92f46681b20a08311156130a1575060009050600361314e565b8460ff16601b141580156130b957508460ff16601c14155b156130ca575060009050600461314e565b6040805160008082526020820180845289905260ff881692820192909252606081018690526080810185905260019060a0016020604051602081039080840390855afa15801561311e573d6000803e3d6000fd5b5050604051601f1901519150506001600160a01b0381166131475760006001925092505061314e565b9150600090505b94509492505050565b6000806001600160ff1b0383168161317460ff86901c601b613ae6565b90506131828782888561306a565b935093505050935093915050565b604080516101a081018252600080825260208083018290528284018290526060808401839052608084015260a0830182905260c0830182905260e08301829052610100830182905261012083018290528351908101909352825290610140820190815260006020820152606060409091015290565b600082601f830112613215578081fd5b813561322861322382613abe565b613a8d565b81815284602083860101111561323c578283fd5b816020850160208301379081016020019190915292915050565b60006101008284031215613268578081fd5b50919050565b60006020828403121561327f578081fd5b81356115aa81613d07565b60006020828403121561329b578081fd5b81516115aa81613d07565b600080600080600060a086880312156132bd578081fd5b85356132c881613d07565b945060208601356132d881613d07565b935060408601356132e881613d07565b925060608601356132f881613d07565b9150608086013567ffffffffffffffff811115613313578182fd5b61331f88828901613256565b9150509295509295909350565b6000806040838503121561333e578182fd5b823561334981613d07565b946020939093013593505050565b60008060408385031215613369578182fd5b825161337481613d07565b6020939093015192949293505050565b600060208284031215613395578081fd5b81356115aa81613d1c565b6000602082840312156133b1578081fd5b81516115aa81613d1c565b6000602082840312156133cd578081fd5b815167ffffffffffffffff8111156133e3578182fd5b8201601f810184136133f3578182fd5b805161340161322382613abe565b818152856020838501011115613415578384fd5b612c92826020830160208601613c5f565b60008060006060848603121561343a578283fd5b833567ffffffffffffffff80821115613451578485fd5b61345d87838801613205565b94506020860135915080821115613472578384fd5b5061347f86828701613205565b925050604084013561349081613d07565b809150509250925092565b6000602082840312156134ac578081fd5b813567ffffffffffffffff8111156134c2578182fd5b6134ce84828501613256565b949350505050565b600080604083850312156134e8578182fd5b823567ffffffffffffffff8111156134fe578283fd5b61350a85828601613256565b925050602083013561351b81613d07565b809150509250929050565b600060208284031215613537578081fd5b5051919050565b60008060408385031215613550578182fd5b50508035926020909101359150565b60008060008060808587031215613574578182fd5b8435935060208501359250604085013561358d81613d07565b9150606085013561359d81613d07565b939692955090935050565b600080600080608085870312156135bd578182fd5b843593506020850135925060408501356135d681613d1c565b9396929550929360600135925050565b6000602082840312156135f7578081fd5b81356001600160601b03811681146115aa578182fd5b6000815180845260208085019450808401835b8381101561367157815180516001600160a01b031688528381015184890152604080820151908901526060808201519089015260809081015115159088015260a09096019590820190600101613620565b509495945050505050565b60008284528282602086013780602084860101526020601f19601f85011685010190509392505050565b600081518084526136be816020860160208601613c5f565b601f01601f19169290920160200192915050565b6000828483379101908152919050565b600082516136f4818460208701613c5f565b9190910192915050565b6001600160a01b039384168152919092166020820152604081019190915260600190565b600060018060a01b03871682528560208301526080604083015261374a60808301858761367c565b90506001600160601b03831660608301529695505050505050565b600060018060a01b038816825286602083015260a0604083015261378d60a08301868861367c565b6001600160601b039490941660608301525060800152949350505050565b60006020808301818452808551808352604092508286019150828160051b870101848801865b838110156138d357888303603f19018552815180518452878101516001600160a01b038116898601526101a0905081880151858901526060808301516001600160a01b03811682880152505060808083015182828801526138348388018261360d565b9250505060a080830151613852828801826001600160601b03169052565b505060c0828101516001600160a01b03169086015260e0808301511515908601526101008083015115159086015261012080830151908601526101408083015151908601526101608083015115159086015261018091820151858203928601929092526138bf81836136a6565b9689019694505050908601906001016137d1565b509098975050505050505050565b60208082526019908201527f73656e64657220646f6573206e6f74206f776e20746f6b656e00000000000000604082015260600190565b6020808252600f908201526e1d1c985b9cd9995c8811985a5b1959608a1b604082015260600190565b6020808252602e908201527f496e697469616c697a61626c653a20636f6e747261637420697320616c72656160408201526d191e481a5b9a5d1a585b1a5e995960921b606082015260800190565b6020808252602b908201527f496e697469616c697a61626c653a20636f6e7472616374206973206e6f74206960408201526a6e697469616c697a696e6760a81b606082015260800190565b6020808252601f908201527f5265656e7472616e637947756172643a207265656e7472616e742063616c6c00604082015260600190565b6020808252601c908201527f5072696365206d757374206265206174206c6561737420312077656900000000604082015260600190565b6000808335601e19843603018112613a5e578283fd5b83018035915067ffffffffffffffff821115613a78578283fd5b602001915036819003821315612d5e57600080fd5b604051601f8201601f1916810167ffffffffffffffff81118282101715613ab657613ab6613cf1565b604052919050565b600067ffffffffffffffff821115613ad857613ad8613cf1565b50601f01601f191660200190565b60008219821115613af957613af9613cdb565b500190565b600082613b1957634e487b7160e01b81526012600452602481fd5b500490565b80825b6001808611613b30575061314e565b818704821115613b4257613b42613cdb565b80861615613b4f57918102915b9490941c938002613b21565b60006115aa6000198484600082613b74575060016115aa565b81613b81575060006115aa565b8160018114613b975760028114613ba157613bce565b60019150506115aa565b60ff841115613bb257613bb2613cdb565b6001841b915084821115613bc857613bc8613cdb565b506115aa565b5060208310610133831016604e8410600b8410161715613c01575081810a83811115613bfc57613bfc613cdb565b6115aa565b613c0e8484846001613b1e565b808604821115613c2057613c20613cdb565b02949350505050565b6000816000190483118215151615613c4357613c43613cdb565b500290565b600082821015613c5a57613c5a613cdb565b500390565b60005b83811015613c7a578181015183820152602001613c62565b838111156103d95750506000910152565b600181811c90821680613c9f57607f821691505b6020821081141561326857634e487b7160e01b600052602260045260246000fd5b6000600019821415613cd457613cd4613cdb565b5060010190565b634e487b7160e01b600052601160045260246000fd5b634e487b7160e01b600052604160045260246000fd5b6001600160a01b0381168114612f6857600080fd5b8015158114612f6857600080fdfea264697066735822122016f46028259b8452eddd90942b56c8bd633f6b9dca55329dfa9f5b76531b65a664736f6c63430008030033",
  "abi": [
    {
      "anonymous": false,
      "inputs": [
        {
          "indexed": true,
          "internalType": "address",
          "name": "sender",
          "type": "address"
        },
        {
          "indexed": false,
          "internalType": "uint256",
          "name": "amount",
          "type": "uint256"
        }
      ],
      "name": "Bid",
      "type": "event"
    },
    {
      "anonymous": false,
      "inputs": [
        {
          "indexed": false,
          "internalType": "address",
          "name": "winner",
          "type": "address"
        },
        {
          "indexed": false,
          "internalType": "uint256",
          "name": "amount",
          "type": "uint256"
        }
      ],
      "name": "End",
      "type": "event"
    },
    {
      "anonymous": false,
      "inputs": [
        {
          "indexed": false,
          "internalType": "uint8",
          "name": "version",
          "type": "uint8"
        }
      ],
      "name": "Initialized",
      "type": "event"
    },
    {
      "anonymous": false,
      "inputs": [
        {
          "indexed": false,
          "internalType": "address",
          "name": "account",
          "type": "address"
        }
      ],
      "name": "Paused",
      "type": "event"
    },
    {
      "anonymous": false,
      "inputs": [],
      "name": "Start",
      "type": "event"
    },
    {
      "anonymous": false,
      "inputs": [
        {
          "indexed": false,
          "internalType": "address",
          "name": "account",
          "type": "address"
        }
      ],
      "name": "Unpaused",
      "type": "event"
    },
    {
      "anonymous": false,
      "inputs": [
        {
          "indexed": true,
          "internalType": "address",
          "name": "bidder",
          "type": "address"
        },
        {
          "indexed": false,
          "internalType": "uint256",
          "name": "amount",
          "type": "uint256"
        }
      ],
      "name": "Withdraw",
      "type": "event"
    },
    {
      "inputs": [
        {
          "internalType": "address payable",
          "name": "nftOwner",
          "type": "address"
        },
        {
          "internalType": "address payable",
          "name": "nftSeller",
          "type": "address"
        },
        {
          "internalType": "address",
          "name": "nftContract",
          "type": "address"
        },
        {
          "internalType": "address",
          "name": "token",
          "type": "address"
        },
        {
          "components": [
            {
              "internalType": "uint256",
              "name": "tokenId",
              "type": "uint256"
            },
            {
              "internalType": "uint256",
              "name": "minPrice",
              "type": "uint256"
            },
            {
              "internalType": "uint96",
              "name": "royalty",
              "type": "uint96"
            },
            {
              "internalType": "bool",
              "name": "isNative",
              "type": "bool"
            },
            {
              "internalType": "uint256",
              "name": "amount",
              "type": "uint256"
            },
            {
              "internalType": "bool",
              "name": "fungible",
              "type": "bool"
            },
            {
              "internalType": "string",
              "name": "uri",
              "type": "string"
            },
            {
              "internalType": "bytes",
              "name": "signature",
              "type": "bytes"
            }
          ],
          "internalType": "struct ThredMarketplace.NFTVoucher",
          "name": "voucher",
          "type": "tuple"
        }
      ],
      "name": "createMarketItem",
      "outputs": [
        {
          "internalType": "bool",
          "name": "",
          "type": "bool"
        }
      ],
      "stateMutability": "nonpayable",
      "type": "function"
    },
    {
      "inputs": [
        {
          "internalType": "uint256",
          "name": "item",
          "type": "uint256"
        },
        {
          "internalType": "uint256",
          "name": "variation",
          "type": "uint256"
        }
      ],
      "name": "createSale",
      "outputs": [
        {
          "internalType": "bool",
          "name": "",
          "type": "bool"
        }
      ],
      "stateMutability": "payable",
      "type": "function"
    },
    {
      "inputs": [
        {
          "internalType": "uint256",
          "name": "item",
          "type": "uint256"
        },
        {
          "internalType": "uint256",
          "name": "variation",
          "type": "uint256"
        }
      ],
      "name": "createSaleCustom",
      "outputs": [
        {
          "internalType": "bool",
          "name": "",
          "type": "bool"
        }
      ],
      "stateMutability": "nonpayable",
      "type": "function"
    },
    {
      "inputs": [
        {
          "internalType": "address",
          "name": "contractAddress",
          "type": "address"
        },
        {
          "internalType": "uint256",
          "name": "tokenId",
          "type": "uint256"
        }
      ],
      "name": "fetchCollectionAsset",
      "outputs": [
        {
          "components": [
            {
              "internalType": "uint256",
              "name": "itemId",
              "type": "uint256"
            },
            {
              "internalType": "address",
              "name": "nftContract",
              "type": "address"
            },
            {
              "internalType": "uint256",
              "name": "tokenId",
              "type": "uint256"
            },
            {
              "internalType": "address payable",
              "name": "owner",
              "type": "address"
            },
            {
              "components": [
                {
                  "internalType": "address payable",
                  "name": "seller",
                  "type": "address"
                },
                {
                  "internalType": "uint256",
                  "name": "price",
                  "type": "uint256"
                },
                {
                  "internalType": "uint256",
                  "name": "variationId",
                  "type": "uint256"
                },
                {
                  "internalType": "uint256",
                  "name": "itemId",
                  "type": "uint256"
                },
                {
                  "internalType": "bool",
                  "name": "forSale",
                  "type": "bool"
                }
              ],
              "internalType": "struct ThredMarketplace.Variation[]",
              "name": "variations",
              "type": "tuple[]"
            },
            {
              "internalType": "uint96",
              "name": "royalty",
              "type": "uint96"
            },
            {
              "internalType": "address",
              "name": "tokenContract",
              "type": "address"
            },
            {
              "internalType": "bool",
              "name": "isNative",
              "type": "bool"
            },
            {
              "internalType": "bool",
              "name": "minted",
              "type": "bool"
            },
            {
              "internalType": "uint256",
              "name": "amount",
              "type": "uint256"
            },
            {
              "components": [
                {
                  "internalType": "uint256",
                  "name": "_value",
                  "type": "uint256"
                }
              ],
              "internalType": "struct Counters.Counter",
              "name": "mintedVariations",
              "type": "tuple"
            },
            {
              "internalType": "bool",
              "name": "fungible",
              "type": "bool"
            },
            {
              "internalType": "string",
              "name": "tokenUri",
              "type": "string"
            }
          ],
          "internalType": "struct ThredMarketplace.MarketItem[]",
          "name": "",
          "type": "tuple[]"
        }
      ],
      "stateMutability": "view",
      "type": "function"
    },
    {
      "inputs": [
        {
          "internalType": "address",
          "name": "contractAddress",
          "type": "address"
        }
      ],
      "name": "fetchCollectionAssets",
      "outputs": [
        {
          "components": [
            {
              "internalType": "uint256",
              "name": "itemId",
              "type": "uint256"
            },
            {
              "internalType": "address",
              "name": "nftContract",
              "type": "address"
            },
            {
              "internalType": "uint256",
              "name": "tokenId",
              "type": "uint256"
            },
            {
              "internalType": "address payable",
              "name": "owner",
              "type": "address"
            },
            {
              "components": [
                {
                  "internalType": "address payable",
                  "name": "seller",
                  "type": "address"
                },
                {
                  "internalType": "uint256",
                  "name": "price",
                  "type": "uint256"
                },
                {
                  "internalType": "uint256",
                  "name": "variationId",
                  "type": "uint256"
                },
                {
                  "internalType": "uint256",
                  "name": "itemId",
                  "type": "uint256"
                },
                {
                  "internalType": "bool",
                  "name": "forSale",
                  "type": "bool"
                }
              ],
              "internalType": "struct ThredMarketplace.Variation[]",
              "name": "variations",
              "type": "tuple[]"
            },
            {
              "internalType": "uint96",
              "name": "royalty",
              "type": "uint96"
            },
            {
              "internalType": "address",
              "name": "tokenContract",
              "type": "address"
            },
            {
              "internalType": "bool",
              "name": "isNative",
              "type": "bool"
            },
            {
              "internalType": "bool",
              "name": "minted",
              "type": "bool"
            },
            {
              "internalType": "uint256",
              "name": "amount",
              "type": "uint256"
            },
            {
              "components": [
                {
                  "internalType": "uint256",
                  "name": "_value",
                  "type": "uint256"
                }
              ],
              "internalType": "struct Counters.Counter",
              "name": "mintedVariations",
              "type": "tuple"
            },
            {
              "internalType": "bool",
              "name": "fungible",
              "type": "bool"
            },
            {
              "internalType": "string",
              "name": "tokenUri",
              "type": "string"
            }
          ],
          "internalType": "struct ThredMarketplace.MarketItem[]",
          "name": "",
          "type": "tuple[]"
        }
      ],
      "stateMutability": "view",
      "type": "function"
    },
    {
      "inputs": [
        {
          "internalType": "address",
          "name": "contractAddress",
          "type": "address"
        }
      ],
      "name": "fetchCollectionAssetsOnMarket",
      "outputs": [
        {
          "components": [
            {
              "internalType": "uint256",
              "name": "itemId",
              "type": "uint256"
            },
            {
              "internalType": "address",
              "name": "nftContract",
              "type": "address"
            },
            {
              "internalType": "uint256",
              "name": "tokenId",
              "type": "uint256"
            },
            {
              "internalType": "address payable",
              "name": "owner",
              "type": "address"
            },
            {
              "components": [
                {
                  "internalType": "address payable",
                  "name": "seller",
                  "type": "address"
                },
                {
                  "internalType": "uint256",
                  "name": "price",
                  "type": "uint256"
                },
                {
                  "internalType": "uint256",
                  "name": "variationId",
                  "type": "uint256"
                },
                {
                  "internalType": "uint256",
                  "name": "itemId",
                  "type": "uint256"
                },
                {
                  "internalType": "bool",
                  "name": "forSale",
                  "type": "bool"
                }
              ],
              "internalType": "struct ThredMarketplace.Variation[]",
              "name": "variations",
              "type": "tuple[]"
            },
            {
              "internalType": "uint96",
              "name": "royalty",
              "type": "uint96"
            },
            {
              "internalType": "address",
              "name": "tokenContract",
              "type": "address"
            },
            {
              "internalType": "bool",
              "name": "isNative",
              "type": "bool"
            },
            {
              "internalType": "bool",
              "name": "minted",
              "type": "bool"
            },
            {
              "internalType": "uint256",
              "name": "amount",
              "type": "uint256"
            },
            {
              "components": [
                {
                  "internalType": "uint256",
                  "name": "_value",
                  "type": "uint256"
                }
              ],
              "internalType": "struct Counters.Counter",
              "name": "mintedVariations",
              "type": "tuple"
            },
            {
              "internalType": "bool",
              "name": "fungible",
              "type": "bool"
            },
            {
              "internalType": "string",
              "name": "tokenUri",
              "type": "string"
            }
          ],
          "internalType": "struct ThredMarketplace.MarketItem[]",
          "name": "",
          "type": "tuple[]"
        }
      ],
      "stateMutability": "view",
      "type": "function"
    },
    {
      "inputs": [
        {
          "internalType": "address",
          "name": "marketAddress",
          "type": "address"
        }
      ],
      "name": "fetchMarketAssets",
      "outputs": [
        {
          "components": [
            {
              "internalType": "uint256",
              "name": "itemId",
              "type": "uint256"
            },
            {
              "internalType": "address",
              "name": "nftContract",
              "type": "address"
            },
            {
              "internalType": "uint256",
              "name": "tokenId",
              "type": "uint256"
            },
            {
              "internalType": "address payable",
              "name": "owner",
              "type": "address"
            },
            {
              "components": [
                {
                  "internalType": "address payable",
                  "name": "seller",
                  "type": "address"
                },
                {
                  "internalType": "uint256",
                  "name": "price",
                  "type": "uint256"
                },
                {
                  "internalType": "uint256",
                  "name": "variationId",
                  "type": "uint256"
                },
                {
                  "internalType": "uint256",
                  "name": "itemId",
                  "type": "uint256"
                },
                {
                  "internalType": "bool",
                  "name": "forSale",
                  "type": "bool"
                }
              ],
              "internalType": "struct ThredMarketplace.Variation[]",
              "name": "variations",
              "type": "tuple[]"
            },
            {
              "internalType": "uint96",
              "name": "royalty",
              "type": "uint96"
            },
            {
              "internalType": "address",
              "name": "tokenContract",
              "type": "address"
            },
            {
              "internalType": "bool",
              "name": "isNative",
              "type": "bool"
            },
            {
              "internalType": "bool",
              "name": "minted",
              "type": "bool"
            },
            {
              "internalType": "uint256",
              "name": "amount",
              "type": "uint256"
            },
            {
              "components": [
                {
                  "internalType": "uint256",
                  "name": "_value",
                  "type": "uint256"
                }
              ],
              "internalType": "struct Counters.Counter",
              "name": "mintedVariations",
              "type": "tuple"
            },
            {
              "internalType": "bool",
              "name": "fungible",
              "type": "bool"
            },
            {
              "internalType": "string",
              "name": "tokenUri",
              "type": "string"
            }
          ],
          "internalType": "struct ThredMarketplace.MarketItem[]",
          "name": "",
          "type": "tuple[]"
        }
      ],
      "stateMutability": "view",
      "type": "function"
    },
    {
      "inputs": [],
      "name": "getChainID",
      "outputs": [
        {
          "internalType": "uint256",
          "name": "",
          "type": "uint256"
        }
      ],
      "stateMutability": "view",
      "type": "function"
    },
    {
      "inputs": [
        {
          "internalType": "string",
          "name": "domain",
          "type": "string"
        },
        {
          "internalType": "string",
          "name": "version",
          "type": "string"
        },
        {
          "internalType": "address",
          "name": "marketplaceAddress",
          "type": "address"
        }
      ],
      "name": "initialize",
      "outputs": [],
      "stateMutability": "nonpayable",
      "type": "function"
    },
    {
      "inputs": [
        {
          "components": [
            {
              "internalType": "uint256",
              "name": "tokenId",
              "type": "uint256"
            },
            {
              "internalType": "uint256",
              "name": "minPrice",
              "type": "uint256"
            },
            {
              "internalType": "uint96",
              "name": "royalty",
              "type": "uint96"
            },
            {
              "internalType": "bool",
              "name": "isNative",
              "type": "bool"
            },
            {
              "internalType": "uint256",
              "name": "amount",
              "type": "uint256"
            },
            {
              "internalType": "bool",
              "name": "fungible",
              "type": "bool"
            },
            {
              "internalType": "string",
              "name": "uri",
              "type": "string"
            },
            {
              "internalType": "bytes",
              "name": "signature",
              "type": "bytes"
            }
          ],
          "internalType": "struct ThredMarketplace.NFTVoucher",
          "name": "voucher",
          "type": "tuple"
        },
        {
          "internalType": "address",
          "name": "contractAddress",
          "type": "address"
        }
      ],
      "name": "mintAndTransfer",
      "outputs": [
        {
          "internalType": "bool",
          "name": "",
          "type": "bool"
        }
      ],
      "stateMutability": "payable",
      "type": "function"
    },
    {
      "inputs": [
        {
          "components": [
            {
              "internalType": "uint256",
              "name": "tokenId",
              "type": "uint256"
            },
            {
              "internalType": "uint256",
              "name": "minPrice",
              "type": "uint256"
            },
            {
              "internalType": "uint96",
              "name": "royalty",
              "type": "uint96"
            },
            {
              "internalType": "bool",
              "name": "isNative",
              "type": "bool"
            },
            {
              "internalType": "uint256",
              "name": "amount",
              "type": "uint256"
            },
            {
              "internalType": "bool",
              "name": "fungible",
              "type": "bool"
            },
            {
              "internalType": "string",
              "name": "uri",
              "type": "string"
            },
            {
              "internalType": "bytes",
              "name": "signature",
              "type": "bytes"
            }
          ],
          "internalType": "struct ThredMarketplace.NFTVoucher",
          "name": "voucher",
          "type": "tuple"
        },
        {
          "internalType": "address",
          "name": "contractAddress",
          "type": "address"
        }
      ],
      "name": "mintAndTransferCustom",
      "outputs": [
        {
          "internalType": "bool",
          "name": "",
          "type": "bool"
        }
      ],
      "stateMutability": "nonpayable",
      "type": "function"
    },
    {
      "inputs": [
        {
          "components": [
            {
              "internalType": "uint256",
              "name": "tokenId",
              "type": "uint256"
            },
            {
              "internalType": "uint256",
              "name": "minPrice",
              "type": "uint256"
            },
            {
              "internalType": "uint96",
              "name": "royalty",
              "type": "uint96"
            },
            {
              "internalType": "bool",
              "name": "isNative",
              "type": "bool"
            },
            {
              "internalType": "uint256",
              "name": "amount",
              "type": "uint256"
            },
            {
              "internalType": "bool",
              "name": "fungible",
              "type": "bool"
            },
            {
              "internalType": "string",
              "name": "uri",
              "type": "string"
            },
            {
              "internalType": "bytes",
              "name": "signature",
              "type": "bytes"
            }
          ],
          "internalType": "struct ThredMarketplace.NFTVoucher",
          "name": "voucher",
          "type": "tuple"
        },
        {
          "internalType": "address",
          "name": "nftContract",
          "type": "address"
        }
      ],
      "name": "mintNFT",
      "outputs": [
        {
          "internalType": "bool",
          "name": "",
          "type": "bool"
        }
      ],
      "stateMutability": "nonpayable",
      "type": "function"
    },
    {
      "inputs": [],
      "name": "pause",
      "outputs": [],
      "stateMutability": "nonpayable",
      "type": "function"
    },
    {
      "inputs": [],
      "name": "paused",
      "outputs": [
        {
          "internalType": "bool",
          "name": "",
          "type": "bool"
        }
      ],
      "stateMutability": "view",
      "type": "function"
    },
    {
      "inputs": [
        {
          "internalType": "uint256",
          "name": "itemId",
          "type": "uint256"
        },
        {
          "internalType": "uint256",
          "name": "v",
          "type": "uint256"
        },
        {
          "internalType": "address",
          "name": "from",
          "type": "address"
        },
        {
          "internalType": "address",
          "name": "to",
          "type": "address"
        }
      ],
      "name": "transferNFTSale",
      "outputs": [
        {
          "internalType": "bool",
          "name": "",
          "type": "bool"
        }
      ],
      "stateMutability": "payable",
      "type": "function"
    },
    {
      "inputs": [],
      "name": "unpause",
      "outputs": [],
      "stateMutability": "nonpayable",
      "type": "function"
    },
    {
      "inputs": [
        {
          "internalType": "uint256",
          "name": "itemId",
          "type": "uint256"
        },
        {
          "internalType": "uint256",
          "name": "variation",
          "type": "uint256"
        },
        {
          "internalType": "bool",
          "name": "forSale",
          "type": "bool"
        },
        {
          "internalType": "uint256",
          "name": "price",
          "type": "uint256"
        }
      ],
      "name": "updateItem",
      "outputs": [
        {
          "internalType": "bool",
          "name": "",
          "type": "bool"
        }
      ],
      "stateMutability": "nonpayable",
      "type": "function"
    },
    {
      "inputs": [
        {
          "components": [
            {
              "internalType": "uint256",
              "name": "tokenId",
              "type": "uint256"
            },
            {
              "internalType": "uint256",
              "name": "minPrice",
              "type": "uint256"
            },
            {
              "internalType": "uint96",
              "name": "royalty",
              "type": "uint96"
            },
            {
              "internalType": "bool",
              "name": "isNative",
              "type": "bool"
            },
            {
              "internalType": "uint256",
              "name": "amount",
              "type": "uint256"
            },
            {
              "internalType": "bool",
              "name": "fungible",
              "type": "bool"
            },
            {
              "internalType": "string",
              "name": "uri",
              "type": "string"
            },
            {
              "internalType": "bytes",
              "name": "signature",
              "type": "bytes"
            }
          ],
          "internalType": "struct ThredMarketplace.NFTVoucher",
          "name": "voucher",
          "type": "tuple"
        }
      ],
      "name": "verify",
      "outputs": [
        {
          "internalType": "address",
          "name": "",
          "type": "address"
        }
      ],
      "stateMutability": "view",
      "type": "function"
    }
  ],
  "linkReferences": {},
  "deployedLinkReferences": {}
}