{
  "_format": "hh-sol-artifact-1",
  "contractName": "ERC1155Merchant",
  "sourceName": "contracts/ERC1155Merchant/ERC1155Merchant.sol",
  "abi": [
    {
      "inputs": [
        {
          "internalType": "address[]",
          "name": "minters",
          "type": "address[]"
        },
        {
          "internalType": "address[]",
          "name": "admins",
          "type": "address[]"
        }
      ],
      "stateMutability": "nonpayable",
      "type": "constructor"
    },
    {
      "anonymous": false,
      "inputs": [
        {
          "indexed": true,
          "internalType": "address",
          "name": "account",
          "type": "address"
        },
        {
          "indexed": true,
          "internalType": "address",
          "name": "operator",
          "type": "address"
        },
        {
          "indexed": false,
          "internalType": "bool",
          "name": "approved",
          "type": "bool"
        }
      ],
      "name": "ApprovalForAll",
      "type": "event"
    },
    {
      "anonymous": true,
      "inputs": [
        {
          "indexed": true,
          "internalType": "address",
          "name": "contractId",
          "type": "address"
        },
        {
          "indexed": true,
          "internalType": "uint256",
          "name": "price",
          "type": "uint256"
        },
        {
          "indexed": true,
          "internalType": "address",
          "name": "from",
          "type": "address"
        },
        {
          "indexed": true,
          "internalType": "uint256",
          "name": "tokenId",
          "type": "uint256"
        }
      ],
      "name": "Listed",
      "type": "event"
    },
    {
      "anonymous": false,
      "inputs": [
        {
          "indexed": true,
          "internalType": "bytes32",
          "name": "role",
          "type": "bytes32"
        },
        {
          "indexed": true,
          "internalType": "bytes32",
          "name": "previousAdminRole",
          "type": "bytes32"
        },
        {
          "indexed": true,
          "internalType": "bytes32",
          "name": "newAdminRole",
          "type": "bytes32"
        }
      ],
      "name": "RoleAdminChanged",
      "type": "event"
    },
    {
      "anonymous": false,
      "inputs": [
        {
          "indexed": true,
          "internalType": "bytes32",
          "name": "role",
          "type": "bytes32"
        },
        {
          "indexed": true,
          "internalType": "address",
          "name": "account",
          "type": "address"
        },
        {
          "indexed": true,
          "internalType": "address",
          "name": "sender",
          "type": "address"
        }
      ],
      "name": "RoleGranted",
      "type": "event"
    },
    {
      "anonymous": false,
      "inputs": [
        {
          "indexed": true,
          "internalType": "bytes32",
          "name": "role",
          "type": "bytes32"
        },
        {
          "indexed": true,
          "internalType": "address",
          "name": "account",
          "type": "address"
        },
        {
          "indexed": true,
          "internalType": "address",
          "name": "sender",
          "type": "address"
        }
      ],
      "name": "RoleRevoked",
      "type": "event"
    },
    {
      "anonymous": true,
      "inputs": [
        {
          "indexed": true,
          "internalType": "uint256",
          "name": "price",
          "type": "uint256"
        },
        {
          "indexed": true,
          "internalType": "address",
          "name": "from",
          "type": "address"
        },
        {
          "indexed": true,
          "internalType": "address",
          "name": "to",
          "type": "address"
        },
        {
          "indexed": true,
          "internalType": "uint256",
          "name": "tokenId",
          "type": "uint256"
        }
      ],
      "name": "Sale",
      "type": "event"
    },
    {
      "anonymous": false,
      "inputs": [
        {
          "indexed": true,
          "internalType": "address",
          "name": "operator",
          "type": "address"
        },
        {
          "indexed": true,
          "internalType": "address",
          "name": "from",
          "type": "address"
        },
        {
          "indexed": true,
          "internalType": "address",
          "name": "to",
          "type": "address"
        },
        {
          "indexed": false,
          "internalType": "uint256[]",
          "name": "ids",
          "type": "uint256[]"
        },
        {
          "indexed": false,
          "internalType": "uint256[]",
          "name": "values",
          "type": "uint256[]"
        }
      ],
      "name": "TransferBatch",
      "type": "event"
    },
    {
      "anonymous": false,
      "inputs": [
        {
          "indexed": true,
          "internalType": "address",
          "name": "operator",
          "type": "address"
        },
        {
          "indexed": true,
          "internalType": "address",
          "name": "from",
          "type": "address"
        },
        {
          "indexed": true,
          "internalType": "address",
          "name": "to",
          "type": "address"
        },
        {
          "indexed": false,
          "internalType": "uint256",
          "name": "id",
          "type": "uint256"
        },
        {
          "indexed": false,
          "internalType": "uint256",
          "name": "value",
          "type": "uint256"
        }
      ],
      "name": "TransferSingle",
      "type": "event"
    },
    {
      "anonymous": false,
      "inputs": [
        {
          "indexed": false,
          "internalType": "string",
          "name": "value",
          "type": "string"
        },
        {
          "indexed": true,
          "internalType": "uint256",
          "name": "id",
          "type": "uint256"
        }
      ],
      "name": "URI",
      "type": "event"
    },
    {
      "inputs": [],
      "name": "DEFAULT_ADMIN_ROLE",
      "outputs": [
        {
          "internalType": "bytes32",
          "name": "",
          "type": "bytes32"
        }
      ],
      "stateMutability": "view",
      "type": "function"
    },
    {
      "inputs": [],
      "name": "MINTER_ROLE",
      "outputs": [
        {
          "internalType": "bytes32",
          "name": "",
          "type": "bytes32"
        }
      ],
      "stateMutability": "view",
      "type": "function"
    },
    {
      "inputs": [
        {
          "internalType": "address",
          "name": "account",
          "type": "address"
        },
        {
          "internalType": "uint256",
          "name": "id",
          "type": "uint256"
        }
      ],
      "name": "balanceOf",
      "outputs": [
        {
          "internalType": "uint256",
          "name": "",
          "type": "uint256"
        }
      ],
      "stateMutability": "view",
      "type": "function"
    },
    {
      "inputs": [
        {
          "internalType": "address[]",
          "name": "accounts",
          "type": "address[]"
        },
        {
          "internalType": "uint256[]",
          "name": "ids",
          "type": "uint256[]"
        }
      ],
      "name": "balanceOfBatch",
      "outputs": [
        {
          "internalType": "uint256[]",
          "name": "",
          "type": "uint256[]"
        }
      ],
      "stateMutability": "view",
      "type": "function"
    },
    {
      "inputs": [
        {
          "internalType": "address",
          "name": "account",
          "type": "address"
        },
        {
          "internalType": "uint256",
          "name": "id",
          "type": "uint256"
        },
        {
          "internalType": "uint256",
          "name": "value",
          "type": "uint256"
        }
      ],
      "name": "burn",
      "outputs": [],
      "stateMutability": "nonpayable",
      "type": "function"
    },
    {
      "inputs": [
        {
          "internalType": "address",
          "name": "account",
          "type": "address"
        },
        {
          "internalType": "uint256[]",
          "name": "ids",
          "type": "uint256[]"
        },
        {
          "internalType": "uint256[]",
          "name": "values",
          "type": "uint256[]"
        }
      ],
      "name": "burnBatch",
      "outputs": [],
      "stateMutability": "nonpayable",
      "type": "function"
    },
    {
      "inputs": [
        {
          "internalType": "uint256",
          "name": "price",
          "type": "uint256"
        },
        {
          "internalType": "address",
          "name": "from",
          "type": "address"
        },
        {
          "internalType": "uint256",
          "name": "tokenId",
          "type": "uint256"
        }
      ],
      "name": "emitListing",
      "outputs": [],
      "stateMutability": "nonpayable",
      "type": "function"
    },
    {
      "inputs": [
        {
          "internalType": "uint256",
          "name": "price",
          "type": "uint256"
        },
        {
          "internalType": "address",
          "name": "from",
          "type": "address"
        },
        {
          "internalType": "address",
          "name": "to",
          "type": "address"
        },
        {
          "internalType": "uint256",
          "name": "tokenId",
          "type": "uint256"
        }
      ],
      "name": "emitSale",
      "outputs": [],
      "stateMutability": "nonpayable",
      "type": "function"
    },
    {
      "inputs": [
        {
          "internalType": "uint256",
          "name": "id",
          "type": "uint256"
        }
      ],
      "name": "exists",
      "outputs": [
        {
          "internalType": "bool",
          "name": "",
          "type": "bool"
        }
      ],
      "stateMutability": "view",
      "type": "function"
    },
    {
      "inputs": [
        {
          "internalType": "bytes32",
          "name": "role",
          "type": "bytes32"
        }
      ],
      "name": "getRoleAdmin",
      "outputs": [
        {
          "internalType": "bytes32",
          "name": "",
          "type": "bytes32"
        }
      ],
      "stateMutability": "view",
      "type": "function"
    },
    {
      "inputs": [
        {
          "internalType": "bytes32",
          "name": "role",
          "type": "bytes32"
        },
        {
          "internalType": "address",
          "name": "account",
          "type": "address"
        }
      ],
      "name": "grantRole",
      "outputs": [],
      "stateMutability": "nonpayable",
      "type": "function"
    },
    {
      "inputs": [
        {
          "internalType": "bytes32",
          "name": "role",
          "type": "bytes32"
        },
        {
          "internalType": "address",
          "name": "account",
          "type": "address"
        }
      ],
      "name": "hasRole",
      "outputs": [
        {
          "internalType": "bool",
          "name": "",
          "type": "bool"
        }
      ],
      "stateMutability": "view",
      "type": "function"
    },
    {
      "inputs": [
        {
          "internalType": "address",
          "name": "account",
          "type": "address"
        },
        {
          "internalType": "address",
          "name": "operator",
          "type": "address"
        }
      ],
      "name": "isApprovedForAll",
      "outputs": [
        {
          "internalType": "bool",
          "name": "",
          "type": "bool"
        }
      ],
      "stateMutability": "view",
      "type": "function"
    },
    {
      "inputs": [
        {
          "internalType": "address",
          "name": "minter",
          "type": "address"
        },
        {
          "internalType": "uint256",
          "name": "tokenId",
          "type": "uint256"
        },
        {
          "internalType": "string",
          "name": "tokenUri",
          "type": "string"
        },
        {
          "internalType": "uint96",
          "name": "royalty",
          "type": "uint96"
        },
        {
          "internalType": "uint256",
          "name": "amount",
          "type": "uint256"
        }
      ],
      "name": "mint",
      "outputs": [
        {
          "internalType": "bool",
          "name": "",
          "type": "bool"
        }
      ],
      "stateMutability": "nonpayable",
      "type": "function"
    },
    {
      "inputs": [
        {
          "internalType": "bytes32",
          "name": "role",
          "type": "bytes32"
        },
        {
          "internalType": "address",
          "name": "account",
          "type": "address"
        }
      ],
      "name": "renounceRole",
      "outputs": [],
      "stateMutability": "nonpayable",
      "type": "function"
    },
    {
      "inputs": [
        {
          "internalType": "bytes32",
          "name": "role",
          "type": "bytes32"
        },
        {
          "internalType": "address",
          "name": "account",
          "type": "address"
        }
      ],
      "name": "revokeRole",
      "outputs": [],
      "stateMutability": "nonpayable",
      "type": "function"
    },
    {
      "inputs": [
        {
          "internalType": "uint256",
          "name": "_tokenId",
          "type": "uint256"
        },
        {
          "internalType": "uint256",
          "name": "_salePrice",
          "type": "uint256"
        }
      ],
      "name": "royaltyInfo",
      "outputs": [
        {
          "internalType": "address",
          "name": "",
          "type": "address"
        },
        {
          "internalType": "uint256",
          "name": "",
          "type": "uint256"
        }
      ],
      "stateMutability": "view",
      "type": "function"
    },
    {
      "inputs": [
        {
          "internalType": "address",
          "name": "from",
          "type": "address"
        },
        {
          "internalType": "address",
          "name": "to",
          "type": "address"
        },
        {
          "internalType": "uint256[]",
          "name": "ids",
          "type": "uint256[]"
        },
        {
          "internalType": "uint256[]",
          "name": "amounts",
          "type": "uint256[]"
        },
        {
          "internalType": "bytes",
          "name": "data",
          "type": "bytes"
        }
      ],
      "name": "safeBatchTransferFrom",
      "outputs": [],
      "stateMutability": "nonpayable",
      "type": "function"
    },
    {
      "inputs": [
        {
          "internalType": "address",
          "name": "from",
          "type": "address"
        },
        {
          "internalType": "address",
          "name": "to",
          "type": "address"
        },
        {
          "internalType": "uint256",
          "name": "id",
          "type": "uint256"
        },
        {
          "internalType": "uint256",
          "name": "amount",
          "type": "uint256"
        },
        {
          "internalType": "bytes",
          "name": "data",
          "type": "bytes"
        }
      ],
      "name": "safeTransferFrom",
      "outputs": [],
      "stateMutability": "nonpayable",
      "type": "function"
    },
    {
      "inputs": [
        {
          "internalType": "address",
          "name": "operator",
          "type": "address"
        },
        {
          "internalType": "bool",
          "name": "approved",
          "type": "bool"
        }
      ],
      "name": "setApprovalForAll",
      "outputs": [],
      "stateMutability": "nonpayable",
      "type": "function"
    },
    {
      "inputs": [
        {
          "internalType": "bytes4",
          "name": "interfaceId",
          "type": "bytes4"
        }
      ],
      "name": "supportsInterface",
      "outputs": [
        {
          "internalType": "bool",
          "name": "",
          "type": "bool"
        }
      ],
      "stateMutability": "view",
      "type": "function"
    },
    {
      "inputs": [
        {
          "internalType": "uint256",
          "name": "id",
          "type": "uint256"
        }
      ],
      "name": "totalSupply",
      "outputs": [
        {
          "internalType": "uint256",
          "name": "",
          "type": "uint256"
        }
      ],
      "stateMutability": "view",
      "type": "function"
    },
    {
      "inputs": [
        {
          "internalType": "uint256",
          "name": "tokenId",
          "type": "uint256"
        }
      ],
      "name": "uri",
      "outputs": [
        {
          "internalType": "string",
          "name": "",
          "type": "string"
        }
      ],
      "stateMutability": "view",
      "type": "function"
    }
  ],
  "bytecode": "0x60806040526008805460ff191690553480156200001b57600080fd5b5060405162002e5438038062002e548339810160408190526200003e9162000486565b604080516020810190915260008152620000588162000157565b50815162000073576008805460ff19166001179055620000f1565b60005b8251811015620000ef57620000da7f9f2df0fed2c77648de5860a4cc508cd0818c85b8b8a1ab4ceeef8d981c8956a6848381518110620000c657634e487b7160e01b600052603260045260246000fd5b60200260200101516200017060201b60201c565b80620000e6816200052a565b91505062000076565b505b60005b81518110156200014e57620001398282815181106200012357634e487b7160e01b600052603260045260246000fd5b602002602001015160016200017c60201b60201c565b8062000145816200052a565b915050620000f4565b50505062000568565b80516200016c90600290602084019062000313565b5050565b6200016c828262000189565b6200016c3383836200022d565b60008281526006602090815260408083206001600160a01b038516845290915290205460ff166200016c5760008281526006602090815260408083206001600160a01b03851684529091529020805460ff19166001179055620001e93390565b6001600160a01b0316816001600160a01b0316837f2f8788117e7eff1d82e926ec794901d17c78024a50270940304540a733656f0d60405160405180910390a45050565b816001600160a01b0316836001600160a01b03161415620002a65760405162461bcd60e51b815260206004820152602960248201527f455243313135353a2073657474696e6720617070726f76616c20737461747573604482015268103337b91039b2b63360b91b606482015260840160405180910390fd5b6001600160a01b03838116600081815260016020908152604080832094871680845294825291829020805460ff191686151590811790915591519182527f17307eab39ab6107e8899845ad3d59bd9653f200f220920489ca2b5937696c31910160405180910390a3505050565b8280546200032190620004ed565b90600052602060002090601f01602090048101928262000345576000855562000390565b82601f106200036057805160ff191683800117855562000390565b8280016001018555821562000390579182015b828111156200039057825182559160200191906001019062000373565b506200039e929150620003a2565b5090565b5b808211156200039e5760008155600101620003a3565b80516001600160a01b0381168114620003d157600080fd5b919050565b600082601f830112620003e7578081fd5b815160206001600160401b038083111562000406576200040662000552565b8260051b604051601f19603f830116810181811084821117156200042e576200042e62000552565b604052848152838101925086840182880185018910156200044d578687fd5b8692505b858310156200047a576200046581620003b9565b84529284019260019290920191840162000451565b50979650505050505050565b6000806040838503121562000499578182fd5b82516001600160401b0380821115620004b0578384fd5b620004be86838701620003d6565b93506020850151915080821115620004d4578283fd5b50620004e385828601620003d6565b9150509250929050565b600181811c908216806200050257607f821691505b602082108114156200052457634e487b7160e01b600052602260045260246000fd5b50919050565b60006000198214156200054b57634e487b7160e01b81526011600452602481fd5b5060010190565b634e487b7160e01b600052604160045260246000fd5b6128dc80620005786000396000f3fe608060405234801561001057600080fd5b506004361061014c5760003560e01c80636b20c454116100c3578063d53913931161007c578063d539139314610313578063d547741f1461033a578063e985e9c51461034d578063f242432a14610360578063f5298aca14610373578063fcb156ac146103865761014c565b80636b20c4541461029f57806391d14854146102b25780639841aa75146102c5578063a217fddf146102d8578063a22cb465146102e0578063bd85b039146102f35761014c565b80632eb2c2d6116101155780632eb2c2d61461020f5780632f2ff15d1461022457806336568abe146102375780633ef1f7a61461024a5780634e1273f41461025d5780634f558e791461027d5761014c565b8062fdd58e1461015157806301ffc9a7146101775780630e89341c1461019a578063248a9ca3146101ba5780632a55205a146101dd575b600080fd5b61016461015f366004611fdd565b610399565b6040519081526020015b60405180910390f35b61018a6101853660046121cb565b610430565b604051901515815260200161016e565b6101ad6101a8366004612191565b610452565b60405161016e919061245a565b6101646101c8366004612191565b60009081526006602052604090206001015490565b6101f06101eb36600461227a565b6104f4565b604080516001600160a01b03909316835260208301919091520161016e565b61022261021d366004611e29565b6105ad565b005b6102226102323660046121a9565b610644565b6102226102453660046121a9565b610670565b61018a610258366004612006565b6106ee565b61027061026b3660046120c6565b610823565b60405161016e9190612419565b61018a61028b366004612191565b600090815260036020526040902054151590565b6102226102ad366004611f32565b610985565b61018a6102c03660046121a9565b6109c8565b6102226102d3366004612203565b6109f3565b610164600081565b6102226102ee366004611fa3565b610a6c565b610164610301366004612191565b60009081526003602052604090205490565b6101647f9f2df0fed2c77648de5860a4cc508cd0818c85b8b8a1ab4ceeef8d981c8956a681565b6102226103483660046121a9565b610a77565b61018a61035b366004611df7565b610a9d565b61022261036e366004611ecf565b610acb565b610222610381366004612094565b610b10565b610222610394366004612246565b610b53565b60006001600160a01b03831661040a5760405162461bcd60e51b815260206004820152602b60248201527f455243313135353a2062616c616e636520717565727920666f7220746865207a60448201526a65726f206164647265737360a81b60648201526084015b60405180910390fd5b506000908152602081815260408083206001600160a01b03949094168352929052205490565b600061043b82610bc2565b8061044a575061044a82610c12565b90505b919050565b600081815260096020526040902080546060919061046f90612735565b80601f016020809104026020016040519081016040528092919081815260200182805461049b90612735565b80156104e85780601f106104bd576101008083540402835291602001916104e8565b820191906000526020600020905b8154815290600101906020018083116104cb57829003601f168201915b50505050509050919050565b60008281526005602090815260408083208151808301909252546001600160a01b038116808352600160a01b9091046001600160601b03169282019290925282916105695750604080518082019091526004546001600160a01b0381168252600160a01b90046001600160601b031660208201525b6000610573610c37565b6001600160601b031682602001516001600160601b03168661059591906126b8565b61059f9190612698565b915196919550909350505050565b6001600160a01b0385163314806105c957506105c9853361035b565b6106305760405162461bcd60e51b815260206004820152603260248201527f455243313135353a207472616e736665722063616c6c6572206973206e6f74206044820152711bdddb995c881b9bdc88185c1c1c9bdd995960721b6064820152608401610401565b61063d8585858585610c3e565b5050505050565b60008281526006602052604090206001015461066181335b610e04565b61066b8383610e68565b505050565b6001600160a01b03811633146106e05760405162461bcd60e51b815260206004820152602f60248201527f416363657373436f6e74726f6c3a2063616e206f6e6c792072656e6f756e636560448201526e103937b632b9903337b91039b2b63360891b6064820152608401610401565b6106ea8282610eee565b5050565b60085460009060ff166107e7576107257f9f2df0fed2c77648de5860a4cc508cd0818c85b8b8a1ab4ceeef8d981c8956a6336109c8565b6107715760405162461bcd60e51b815260206004820152601e60248201527f696e76616c6964206f7220756e617574686f72697a65642063616c6c657200006044820152606401610401565b61079b7f9f2df0fed2c77648de5860a4cc508cd0818c85b8b8a1ab4ceeef8d981c8956a6876109c8565b6107e75760405162461bcd60e51b815260206004820152601e60248201527f696e76616c6964206f7220756e617574686f72697a6564206d696e74657200006044820152606401610401565b61080286868460405180602001604052806000815250610f55565b61080c8585611065565b610817858785611084565b50600195945050505050565b606081518351146108885760405162461bcd60e51b815260206004820152602960248201527f455243313135353a206163636f756e747320616e6420696473206c656e677468604482015268040dad2e6dac2e8c6d60bb1b6064820152608401610401565b6000835167ffffffffffffffff8111156108b257634e487b7160e01b600052604160045260246000fd5b6040519080825280602002602001820160405280156108db578160200160208202803683370190505b50905060005b845181101561097d5761094285828151811061090d57634e487b7160e01b600052603260045260246000fd5b602002602001015185838151811061093557634e487b7160e01b600052603260045260246000fd5b6020026020010151610399565b82828151811061096257634e487b7160e01b600052603260045260246000fd5b60209081029190910101526109768161279d565b90506108e1565b509392505050565b6001600160a01b0383163314806109a157506109a1833361035b565b6109bd5760405162461bcd60e51b8152600401610401906124f9565b61066b8383836111a0565b60009182526006602090815260408084206001600160a01b0393909316845291905290205460ff1690565b6109fd8233610a9d565b610a455760405162461bcd60e51b8152602060048201526019602482015278139bdd08105c1c1c9bdd9959081d1bc81b1bd9c8195d995b9d603a1b6044820152606401610401565b80836001600160a01b0316836001600160a01b03168660405160405180910390a450505050565b6106ea33838361134a565b600082815260066020526040902060010154610a93813361065c565b61066b8383610eee565b6001600160a01b03918216600090815260016020908152604080832093909416825291909152205460ff1690565b6001600160a01b038516331480610ae75750610ae7853361035b565b610b035760405162461bcd60e51b8152600401610401906124f9565b61063d858585858561142b565b6001600160a01b038316331480610b2c5750610b2c833361035b565b610b485760405162461bcd60e51b8152600401610401906124f9565b61066b838383611548565b610b5d8233610a9d565b610ba55760405162461bcd60e51b8152602060048201526019602482015278139bdd08105c1c1c9bdd9959081d1bc81b1bd9c8195d995b9d603a1b6044820152606401610401565b60405181906001600160a01b0384169085903090600090a4505050565b60006001600160e01b03198216636cdb3d1360e11b1480610bf357506001600160e01b031982166303a24d0760e21b145b8061044a57506301ffc9a760e01b6001600160e01b031983161461044a565b60006001600160e01b03198216637965db0b60e01b148061044a575061044a82611567565b6127105b90565b8151835114610c5f5760405162461bcd60e51b815260040161040190612614565b6001600160a01b038416610c855760405162461bcd60e51b815260040161040190612542565b33610c9481878787878761158c565b60005b8451811015610d96576000858281518110610cc257634e487b7160e01b600052603260045260246000fd5b602002602001015190506000858381518110610cee57634e487b7160e01b600052603260045260246000fd5b602090810291909101810151600084815280835260408082206001600160a01b038e168352909352919091205490915081811015610d3e5760405162461bcd60e51b8152600401610401906125ca565b6000838152602081815260408083206001600160a01b038e8116855292528083208585039055908b16825281208054849290610d7b908490612680565b9250508190555050505080610d8f9061279d565b9050610c97565b50846001600160a01b0316866001600160a01b0316826001600160a01b03167f4a39dc06d4c0dbc64b70af90fd698a233a518aa5d07e595d983b8c0526c8f7fb8787604051610de692919061242c565b60405180910390a4610dfc81878787878761159a565b505050505050565b610e0e82826109c8565b6106ea57610e26816001600160a01b03166014611705565b610e31836020611705565b604051602001610e42929190612301565b60408051601f198184030181529082905262461bcd60e51b82526104019160040161245a565b610e7282826109c8565b6106ea5760008281526006602090815260408083206001600160a01b03851684529091529020805460ff19166001179055610eaa3390565b6001600160a01b0316816001600160a01b0316837f2f8788117e7eff1d82e926ec794901d17c78024a50270940304540a733656f0d60405160405180910390a45050565b610ef882826109c8565b156106ea5760008281526006602090815260408083206001600160a01b0385168085529252808320805460ff1916905551339285917ff6391f5c32d9c69d2a47ea670b442974b53935d1edc7fd64eb21e047a839171b9190a45050565b6001600160a01b038416610fb55760405162461bcd60e51b815260206004820152602160248201527f455243313135353a206d696e7420746f20746865207a65726f206164647265736044820152607360f81b6064820152608401610401565b33610fd581600087610fc6886118ee565b610fcf886118ee565b8761158c565b6000848152602081815260408083206001600160a01b038916845290915281208054859290611005908490612680565b909155505060408051858152602081018590526001600160a01b0380881692600092918516917fc3d58168c5ae7397731d063d5bbf3d657854427343f4c083240f7aacaa2d0f62910160405180910390a461063d81600087878787611947565b6000828152600960209081526040909120825161066b92840190611c56565b61108c610c37565b6001600160601b0316816001600160601b031611156111005760405162461bcd60e51b815260206004820152602a60248201527f455243323938313a20726f79616c7479206665652077696c6c206578636565646044820152692073616c65507269636560b01b6064820152608401610401565b6001600160a01b0382166111565760405162461bcd60e51b815260206004820152601b60248201527f455243323938313a20496e76616c696420706172616d657465727300000000006044820152606401610401565b6040805180820182526001600160a01b0393841681526001600160601b0392831660208083019182526000968752600590529190942093519051909116600160a01b029116179055565b6001600160a01b0383166111c65760405162461bcd60e51b815260040161040190612587565b80518251146111e75760405162461bcd60e51b815260040161040190612614565b600033905061120a8185600086866040518060200160405280600081525061158c565b60005b83518110156112eb57600084828151811061123857634e487b7160e01b600052603260045260246000fd5b60200260200101519050600084838151811061126457634e487b7160e01b600052603260045260246000fd5b602090810291909101810151600084815280835260408082206001600160a01b038c1683529093529190912054909150818110156112b45760405162461bcd60e51b8152600401610401906124b5565b6000928352602083815260408085206001600160a01b038b16865290915290922091039055806112e38161279d565b91505061120d565b5060006001600160a01b0316846001600160a01b0316826001600160a01b03167f4a39dc06d4c0dbc64b70af90fd698a233a518aa5d07e595d983b8c0526c8f7fb868660405161133c92919061242c565b60405180910390a450505050565b816001600160a01b0316836001600160a01b031614156113be5760405162461bcd60e51b815260206004820152602960248201527f455243313135353a2073657474696e6720617070726f76616c20737461747573604482015268103337b91039b2b63360b91b6064820152608401610401565b6001600160a01b03838116600081815260016020908152604080832094871680845294825291829020805460ff191686151590811790915591519182527f17307eab39ab6107e8899845ad3d59bd9653f200f220920489ca2b5937696c31910160405180910390a3505050565b6001600160a01b0384166114515760405162461bcd60e51b815260040161040190612542565b33611461818787610fc6886118ee565b6000848152602081815260408083206001600160a01b038a168452909152902054838110156114a25760405162461bcd60e51b8152600401610401906125ca565b6000858152602081815260408083206001600160a01b038b81168552925280832087850390559088168252812080548692906114df908490612680565b909155505060408051868152602081018690526001600160a01b03808916928a821692918616917fc3d58168c5ae7397731d063d5bbf3d657854427343f4c083240f7aacaa2d0f62910160405180910390a461153f828888888888611947565b50505050505050565b611553838383611a11565b60008281526005602052604081205561066b565b60006001600160e01b0319821663152a902d60e11b148061044a575061044a82610bc2565b610dfc868686868686611b12565b6001600160a01b0384163b15610dfc5760405163bc197c8160e01b81526001600160a01b0385169063bc197c81906115de9089908990889088908890600401612376565b602060405180830381600087803b1580156115f857600080fd5b505af1925050508015611628575060408051601f3d908101601f19168201909252611625918101906121e7565b60015b6116d5576116346127e4565b806308c379a0141561166e57506116496127fb565b806116545750611670565b8060405162461bcd60e51b8152600401610401919061245a565b505b60405162461bcd60e51b815260206004820152603460248201527f455243313135353a207472616e7366657220746f206e6f6e20455243313135356044820152732932b1b2b4bb32b91034b6b83632b6b2b73a32b960611b6064820152608401610401565b6001600160e01b0319811663bc197c8160e01b1461153f5760405162461bcd60e51b81526004016104019061246d565b606060006117148360026126b8565b61171f906002612680565b67ffffffffffffffff81111561174557634e487b7160e01b600052604160045260246000fd5b6040519080825280601f01601f19166020018201604052801561176f576020820181803683370190505b509050600360fc1b8160008151811061179857634e487b7160e01b600052603260045260246000fd5b60200101906001600160f81b031916908160001a905350600f60fb1b816001815181106117d557634e487b7160e01b600052603260045260246000fd5b60200101906001600160f81b031916908160001a90535060006117f98460026126b8565b611804906001612680565b90505b6001811115611898576f181899199a1a9b1b9c1cb0b131b232b360811b85600f166010811061184657634e487b7160e01b600052603260045260246000fd5b1a60f81b82828151811061186a57634e487b7160e01b600052603260045260246000fd5b60200101906001600160f81b031916908160001a90535060049490941c936118918161271e565b9050611807565b5083156118e75760405162461bcd60e51b815260206004820181905260248201527f537472696e67733a20686578206c656e67746820696e73756666696369656e746044820152606401610401565b9392505050565b6040805160018082528183019092526060916000919060208083019080368337019050509050828160008151811061193657634e487b7160e01b600052603260045260246000fd5b602090810291909101015292915050565b6001600160a01b0384163b15610dfc5760405163f23a6e6160e01b81526001600160a01b0385169063f23a6e619061198b90899089908890889088906004016123d4565b602060405180830381600087803b1580156119a557600080fd5b505af19250505080156119d5575060408051601f3d908101601f191682019092526119d2918101906121e7565b60015b6119e1576116346127e4565b6001600160e01b0319811663f23a6e6160e01b1461153f5760405162461bcd60e51b81526004016104019061246d565b6001600160a01b038316611a375760405162461bcd60e51b815260040161040190612587565b33611a6681856000611a48876118ee565b611a51876118ee565b6040518060200160405280600081525061158c565b6000838152602081815260408083206001600160a01b038816845290915290205482811015611aa75760405162461bcd60e51b8152600401610401906124b5565b6000848152602081815260408083206001600160a01b03898116808652918452828520888703905582518981529384018890529092908616917fc3d58168c5ae7397731d063d5bbf3d657854427343f4c083240f7aacaa2d0f62910160405180910390a45050505050565b6001600160a01b038516611bb55760005b8351811015611bb357828181518110611b4c57634e487b7160e01b600052603260045260246000fd5b602002602001015160036000868481518110611b7857634e487b7160e01b600052603260045260246000fd5b602002602001015181526020019081526020016000206000828254611b9d9190612680565b90915550611bac90508161279d565b9050611b23565b505b6001600160a01b038416610dfc5760005b835181101561153f57828181518110611bef57634e487b7160e01b600052603260045260246000fd5b602002602001015160036000868481518110611c1b57634e487b7160e01b600052603260045260246000fd5b602002602001015181526020019081526020016000206000828254611c4091906126d7565b90915550611c4f90508161279d565b9050611bc6565b828054611c6290612735565b90600052602060002090601f016020900481019282611c845760008555611cca565b82601f10611c9d57805160ff1916838001178555611cca565b82800160010185558215611cca579182015b82811115611cca578251825591602001919060010190611caf565b50611cd6929150611cda565b5090565b5b80821115611cd65760008155600101611cdb565b600067ffffffffffffffff831115611d0957611d096127ce565b604051611d20601f8501601f191660200182612770565b809150838152848484011115611d3557600080fd5b83836020830137600060208583010152509392505050565b80356001600160a01b038116811461044d57600080fd5b600082601f830112611d74578081fd5b81356020611d818261265c565b604051611d8e8282612770565b8381528281019150858301600585901b87018401881015611dad578586fd5b855b85811015611dcb57813584529284019290840190600101611daf565b5090979650505050505050565b600082601f830112611de8578081fd5b6118e783833560208501611cef565b60008060408385031215611e09578182fd5b611e1283611d4d565b9150611e2060208401611d4d565b90509250929050565b600080600080600060a08688031215611e40578081fd5b611e4986611d4d565b9450611e5760208701611d4d565b9350604086013567ffffffffffffffff80821115611e73578283fd5b611e7f89838a01611d64565b94506060880135915080821115611e94578283fd5b611ea089838a01611d64565b93506080880135915080821115611eb5578283fd5b50611ec288828901611dd8565b9150509295509295909350565b600080600080600060a08688031215611ee6578081fd5b611eef86611d4d565b9450611efd60208701611d4d565b93506040860135925060608601359150608086013567ffffffffffffffff811115611f26578182fd5b611ec288828901611dd8565b600080600060608486031215611f46578283fd5b611f4f84611d4d565b9250602084013567ffffffffffffffff80821115611f6b578384fd5b611f7787838801611d64565b93506040860135915080821115611f8c578283fd5b50611f9986828701611d64565b9150509250925092565b60008060408385031215611fb5578182fd5b611fbe83611d4d565b915060208301358015158114611fd2578182fd5b809150509250929050565b60008060408385031215611fef578182fd5b611ff883611d4d565b946020939093013593505050565b600080600080600060a0868803121561201d578283fd5b61202686611d4d565b945060208601359350604086013567ffffffffffffffff811115612048578384fd5b8601601f81018813612058578384fd5b61206788823560208401611cef565b93505060608601356001600160601b0381168114612083578182fd5b949793965091946080013592915050565b6000806000606084860312156120a8578081fd5b6120b184611d4d565b95602085013595506040909401359392505050565b600080604083850312156120d8578182fd5b823567ffffffffffffffff808211156120ef578384fd5b818501915085601f830112612102578384fd5b8135602061210f8261265c565b60405161211c8282612770565b8381528281019150858301600585901b870184018b101561213b578889fd5b8896505b848710156121645761215081611d4d565b83526001969096019591830191830161213f565b509650508601359250508082111561217a578283fd5b5061218785828601611d64565b9150509250929050565b6000602082840312156121a2578081fd5b5035919050565b600080604083850312156121bb578182fd5b82359150611e2060208401611d4d565b6000602082840312156121dc578081fd5b81356118e78161288d565b6000602082840312156121f8578081fd5b81516118e78161288d565b60008060008060808587031215612218578182fd5b8435935061222860208601611d4d565b925061223660408601611d4d565b9396929550929360600135925050565b60008060006060848603121561225a578081fd5b8335925061226a60208501611d4d565b9150604084013590509250925092565b6000806040838503121561228c578182fd5b50508035926020909101359150565b6000815180845260208085019450808401835b838110156122ca578151875295820195908201906001016122ae565b509495945050505050565b600081518084526122ed8160208601602086016126ee565b601f01601f19169290920160200192915050565b60007f416363657373436f6e74726f6c3a206163636f756e7420000000000000000000825283516123398160178501602088016126ee565b7001034b99036b4b9b9b4b733903937b6329607d1b601791840191820152835161236a8160288401602088016126ee565b01602801949350505050565b6001600160a01b0386811682528516602082015260a0604082018190526000906123a29083018661229b565b82810360608401526123b4818661229b565b905082810360808401526123c881856122d5565b98975050505050505050565b6001600160a01b03868116825285166020820152604081018490526060810183905260a06080820181905260009061240e908301846122d5565b979650505050505050565b6000602082526118e7602083018461229b565b60006040825261243f604083018561229b565b8281036020840152612451818561229b565b95945050505050565b6000602082526118e760208301846122d5565b60208082526028908201527f455243313135353a204552433131353552656365697665722072656a656374656040820152676420746f6b656e7360c01b606082015260800190565b60208082526024908201527f455243313135353a206275726e20616d6f756e7420657863656564732062616c604082015263616e636560e01b606082015260800190565b60208082526029908201527f455243313135353a2063616c6c6572206973206e6f74206f776e6572206e6f7260408201526808185c1c1c9bdd995960ba1b606082015260800190565b60208082526025908201527f455243313135353a207472616e7366657220746f20746865207a65726f206164604082015264647265737360d81b606082015260800190565b60208082526023908201527f455243313135353a206275726e2066726f6d20746865207a65726f206164647260408201526265737360e81b606082015260800190565b6020808252602a908201527f455243313135353a20696e73756666696369656e742062616c616e636520666f60408201526939103a3930b739b332b960b11b606082015260800190565b60208082526028908201527f455243313135353a2069647320616e6420616d6f756e7473206c656e677468206040820152670dad2e6dac2e8c6d60c31b606082015260800190565b600067ffffffffffffffff821115612676576126766127ce565b5060051b60200190565b60008219821115612693576126936127b8565b500190565b6000826126b357634e487b7160e01b81526012600452602481fd5b500490565b60008160001904831182151516156126d2576126d26127b8565b500290565b6000828210156126e9576126e96127b8565b500390565b60005b838110156127095781810151838201526020016126f1565b83811115612718576000848401525b50505050565b60008161272d5761272d6127b8565b506000190190565b600181811c9082168061274957607f821691505b6020821081141561276a57634e487b7160e01b600052602260045260246000fd5b50919050565b601f8201601f1916810167ffffffffffffffff81118282101715612796576127966127ce565b6040525050565b60006000198214156127b1576127b16127b8565b5060010190565b634e487b7160e01b600052601160045260246000fd5b634e487b7160e01b600052604160045260246000fd5b600060033d1115610c3b57600481823e5160e01c90565b600060443d101561280b57610c3b565b6040516003193d81016004833e81513d67ffffffffffffffff816024840111818411171561283d575050505050610c3b565b828501915081518181111561285757505050505050610c3b565b843d870101602082850101111561287357505050505050610c3b565b61288260208286010187612770565b509094505050505090565b6001600160e01b0319811681146128a357600080fd5b5056fea26469706673582212206baf3691964c64548ab8e022c3fcb8333745ff28499201ade836eda4c617b01864736f6c63430008030033",
  "linkReferences": {},
  "deployedLinkReferences": {}
}