{
  "_format": "hh-sol-artifact-1",
  "contractName": "ERC1155Merchant",
  "sourceName": "contracts/ERC1155Merchant/ERC1155Merchant.sol",
  "abi": [
    {
      "inputs": [
        {
          "internalType": "address",
          "name": "tokenAddress",
          "type": "address"
        },
        {
          "internalType": "address[]",
          "name": "minters",
          "type": "address[]"
        },
        {
          "internalType": "address[]",
          "name": "admins",
          "type": "address[]"
        }
      ],
      "stateMutability": "nonpayable",
      "type": "constructor"
    },
    {
      "anonymous": false,
      "inputs": [
        {
          "indexed": true,
          "internalType": "address",
          "name": "account",
          "type": "address"
        },
        {
          "indexed": true,
          "internalType": "address",
          "name": "operator",
          "type": "address"
        },
        {
          "indexed": false,
          "internalType": "bool",
          "name": "approved",
          "type": "bool"
        }
      ],
      "name": "ApprovalForAll",
      "type": "event"
    },
    {
      "anonymous": true,
      "inputs": [
        {
          "indexed": true,
          "internalType": "address",
          "name": "contractId",
          "type": "address"
        },
        {
          "indexed": true,
          "internalType": "uint256",
          "name": "price",
          "type": "uint256"
        },
        {
          "indexed": true,
          "internalType": "address",
          "name": "from",
          "type": "address"
        },
        {
          "indexed": true,
          "internalType": "uint256",
          "name": "tokenId",
          "type": "uint256"
        }
      ],
      "name": "Listed",
      "type": "event"
    },
    {
      "anonymous": false,
      "inputs": [
        {
          "indexed": true,
          "internalType": "bytes32",
          "name": "role",
          "type": "bytes32"
        },
        {
          "indexed": true,
          "internalType": "bytes32",
          "name": "previousAdminRole",
          "type": "bytes32"
        },
        {
          "indexed": true,
          "internalType": "bytes32",
          "name": "newAdminRole",
          "type": "bytes32"
        }
      ],
      "name": "RoleAdminChanged",
      "type": "event"
    },
    {
      "anonymous": false,
      "inputs": [
        {
          "indexed": true,
          "internalType": "bytes32",
          "name": "role",
          "type": "bytes32"
        },
        {
          "indexed": true,
          "internalType": "address",
          "name": "account",
          "type": "address"
        },
        {
          "indexed": true,
          "internalType": "address",
          "name": "sender",
          "type": "address"
        }
      ],
      "name": "RoleGranted",
      "type": "event"
    },
    {
      "anonymous": false,
      "inputs": [
        {
          "indexed": true,
          "internalType": "bytes32",
          "name": "role",
          "type": "bytes32"
        },
        {
          "indexed": true,
          "internalType": "address",
          "name": "account",
          "type": "address"
        },
        {
          "indexed": true,
          "internalType": "address",
          "name": "sender",
          "type": "address"
        }
      ],
      "name": "RoleRevoked",
      "type": "event"
    },
    {
      "anonymous": true,
      "inputs": [
        {
          "indexed": true,
          "internalType": "uint256",
          "name": "price",
          "type": "uint256"
        },
        {
          "indexed": true,
          "internalType": "address",
          "name": "from",
          "type": "address"
        },
        {
          "indexed": true,
          "internalType": "address",
          "name": "to",
          "type": "address"
        },
        {
          "indexed": true,
          "internalType": "uint256",
          "name": "tokenId",
          "type": "uint256"
        }
      ],
      "name": "Sale",
      "type": "event"
    },
    {
      "anonymous": false,
      "inputs": [
        {
          "indexed": true,
          "internalType": "address",
          "name": "operator",
          "type": "address"
        },
        {
          "indexed": true,
          "internalType": "address",
          "name": "from",
          "type": "address"
        },
        {
          "indexed": true,
          "internalType": "address",
          "name": "to",
          "type": "address"
        },
        {
          "indexed": false,
          "internalType": "uint256[]",
          "name": "ids",
          "type": "uint256[]"
        },
        {
          "indexed": false,
          "internalType": "uint256[]",
          "name": "values",
          "type": "uint256[]"
        }
      ],
      "name": "TransferBatch",
      "type": "event"
    },
    {
      "anonymous": false,
      "inputs": [
        {
          "indexed": true,
          "internalType": "address",
          "name": "operator",
          "type": "address"
        },
        {
          "indexed": true,
          "internalType": "address",
          "name": "from",
          "type": "address"
        },
        {
          "indexed": true,
          "internalType": "address",
          "name": "to",
          "type": "address"
        },
        {
          "indexed": false,
          "internalType": "uint256",
          "name": "id",
          "type": "uint256"
        },
        {
          "indexed": false,
          "internalType": "uint256",
          "name": "value",
          "type": "uint256"
        }
      ],
      "name": "TransferSingle",
      "type": "event"
    },
    {
      "anonymous": false,
      "inputs": [
        {
          "indexed": false,
          "internalType": "string",
          "name": "value",
          "type": "string"
        },
        {
          "indexed": true,
          "internalType": "uint256",
          "name": "id",
          "type": "uint256"
        }
      ],
      "name": "URI",
      "type": "event"
    },
    {
      "inputs": [],
      "name": "DEFAULT_ADMIN_ROLE",
      "outputs": [
        {
          "internalType": "bytes32",
          "name": "",
          "type": "bytes32"
        }
      ],
      "stateMutability": "view",
      "type": "function"
    },
    {
      "inputs": [],
      "name": "MINTER_ROLE",
      "outputs": [
        {
          "internalType": "bytes32",
          "name": "",
          "type": "bytes32"
        }
      ],
      "stateMutability": "view",
      "type": "function"
    },
    {
      "inputs": [
        {
          "internalType": "address",
          "name": "account",
          "type": "address"
        },
        {
          "internalType": "uint256",
          "name": "id",
          "type": "uint256"
        }
      ],
      "name": "balanceOf",
      "outputs": [
        {
          "internalType": "uint256",
          "name": "",
          "type": "uint256"
        }
      ],
      "stateMutability": "view",
      "type": "function"
    },
    {
      "inputs": [
        {
          "internalType": "address[]",
          "name": "accounts",
          "type": "address[]"
        },
        {
          "internalType": "uint256[]",
          "name": "ids",
          "type": "uint256[]"
        }
      ],
      "name": "balanceOfBatch",
      "outputs": [
        {
          "internalType": "uint256[]",
          "name": "",
          "type": "uint256[]"
        }
      ],
      "stateMutability": "view",
      "type": "function"
    },
    {
      "inputs": [
        {
          "internalType": "address",
          "name": "account",
          "type": "address"
        },
        {
          "internalType": "uint256",
          "name": "id",
          "type": "uint256"
        },
        {
          "internalType": "uint256",
          "name": "value",
          "type": "uint256"
        }
      ],
      "name": "burn",
      "outputs": [],
      "stateMutability": "nonpayable",
      "type": "function"
    },
    {
      "inputs": [
        {
          "internalType": "address",
          "name": "account",
          "type": "address"
        },
        {
          "internalType": "uint256[]",
          "name": "ids",
          "type": "uint256[]"
        },
        {
          "internalType": "uint256[]",
          "name": "values",
          "type": "uint256[]"
        }
      ],
      "name": "burnBatch",
      "outputs": [],
      "stateMutability": "nonpayable",
      "type": "function"
    },
    {
      "inputs": [],
      "name": "customToken",
      "outputs": [
        {
          "internalType": "address",
          "name": "",
          "type": "address"
        }
      ],
      "stateMutability": "view",
      "type": "function"
    },
    {
      "inputs": [
        {
          "internalType": "uint256",
          "name": "price",
          "type": "uint256"
        },
        {
          "internalType": "address",
          "name": "from",
          "type": "address"
        },
        {
          "internalType": "uint256",
          "name": "tokenId",
          "type": "uint256"
        }
      ],
      "name": "emitListing",
      "outputs": [],
      "stateMutability": "nonpayable",
      "type": "function"
    },
    {
      "inputs": [
        {
          "internalType": "uint256",
          "name": "price",
          "type": "uint256"
        },
        {
          "internalType": "address",
          "name": "from",
          "type": "address"
        },
        {
          "internalType": "address",
          "name": "to",
          "type": "address"
        },
        {
          "internalType": "uint256",
          "name": "tokenId",
          "type": "uint256"
        }
      ],
      "name": "emitSale",
      "outputs": [],
      "stateMutability": "nonpayable",
      "type": "function"
    },
    {
      "inputs": [
        {
          "internalType": "uint256",
          "name": "id",
          "type": "uint256"
        }
      ],
      "name": "exists",
      "outputs": [
        {
          "internalType": "bool",
          "name": "",
          "type": "bool"
        }
      ],
      "stateMutability": "view",
      "type": "function"
    },
    {
      "inputs": [
        {
          "internalType": "bytes32",
          "name": "role",
          "type": "bytes32"
        }
      ],
      "name": "getRoleAdmin",
      "outputs": [
        {
          "internalType": "bytes32",
          "name": "",
          "type": "bytes32"
        }
      ],
      "stateMutability": "view",
      "type": "function"
    },
    {
      "inputs": [
        {
          "internalType": "bytes32",
          "name": "role",
          "type": "bytes32"
        },
        {
          "internalType": "address",
          "name": "account",
          "type": "address"
        }
      ],
      "name": "grantRole",
      "outputs": [],
      "stateMutability": "nonpayable",
      "type": "function"
    },
    {
      "inputs": [
        {
          "internalType": "bytes32",
          "name": "role",
          "type": "bytes32"
        },
        {
          "internalType": "address",
          "name": "account",
          "type": "address"
        }
      ],
      "name": "hasRole",
      "outputs": [
        {
          "internalType": "bool",
          "name": "",
          "type": "bool"
        }
      ],
      "stateMutability": "view",
      "type": "function"
    },
    {
      "inputs": [
        {
          "internalType": "address",
          "name": "account",
          "type": "address"
        },
        {
          "internalType": "address",
          "name": "operator",
          "type": "address"
        }
      ],
      "name": "isApprovedForAll",
      "outputs": [
        {
          "internalType": "bool",
          "name": "",
          "type": "bool"
        }
      ],
      "stateMutability": "view",
      "type": "function"
    },
    {
      "inputs": [
        {
          "internalType": "address",
          "name": "minter",
          "type": "address"
        },
        {
          "internalType": "uint256",
          "name": "tokenId",
          "type": "uint256"
        },
        {
          "internalType": "string",
          "name": "tokenUri",
          "type": "string"
        },
        {
          "internalType": "uint96",
          "name": "royalty",
          "type": "uint96"
        },
        {
          "internalType": "uint256",
          "name": "amount",
          "type": "uint256"
        }
      ],
      "name": "mint",
      "outputs": [
        {
          "internalType": "bool",
          "name": "",
          "type": "bool"
        }
      ],
      "stateMutability": "nonpayable",
      "type": "function"
    },
    {
      "inputs": [
        {
          "internalType": "bytes32",
          "name": "role",
          "type": "bytes32"
        },
        {
          "internalType": "address",
          "name": "account",
          "type": "address"
        }
      ],
      "name": "renounceRole",
      "outputs": [],
      "stateMutability": "nonpayable",
      "type": "function"
    },
    {
      "inputs": [
        {
          "internalType": "bytes32",
          "name": "role",
          "type": "bytes32"
        },
        {
          "internalType": "address",
          "name": "account",
          "type": "address"
        }
      ],
      "name": "revokeRole",
      "outputs": [],
      "stateMutability": "nonpayable",
      "type": "function"
    },
    {
      "inputs": [
        {
          "internalType": "uint256",
          "name": "_tokenId",
          "type": "uint256"
        },
        {
          "internalType": "uint256",
          "name": "_salePrice",
          "type": "uint256"
        }
      ],
      "name": "royaltyInfo",
      "outputs": [
        {
          "internalType": "address",
          "name": "",
          "type": "address"
        },
        {
          "internalType": "uint256",
          "name": "",
          "type": "uint256"
        }
      ],
      "stateMutability": "view",
      "type": "function"
    },
    {
      "inputs": [
        {
          "internalType": "address",
          "name": "from",
          "type": "address"
        },
        {
          "internalType": "address",
          "name": "to",
          "type": "address"
        },
        {
          "internalType": "uint256[]",
          "name": "ids",
          "type": "uint256[]"
        },
        {
          "internalType": "uint256[]",
          "name": "amounts",
          "type": "uint256[]"
        },
        {
          "internalType": "bytes",
          "name": "data",
          "type": "bytes"
        }
      ],
      "name": "safeBatchTransferFrom",
      "outputs": [],
      "stateMutability": "nonpayable",
      "type": "function"
    },
    {
      "inputs": [
        {
          "internalType": "address",
          "name": "from",
          "type": "address"
        },
        {
          "internalType": "address",
          "name": "to",
          "type": "address"
        },
        {
          "internalType": "uint256",
          "name": "id",
          "type": "uint256"
        },
        {
          "internalType": "uint256",
          "name": "amount",
          "type": "uint256"
        },
        {
          "internalType": "bytes",
          "name": "data",
          "type": "bytes"
        }
      ],
      "name": "safeTransferFrom",
      "outputs": [],
      "stateMutability": "nonpayable",
      "type": "function"
    },
    {
      "inputs": [
        {
          "internalType": "address",
          "name": "operator",
          "type": "address"
        },
        {
          "internalType": "bool",
          "name": "approved",
          "type": "bool"
        }
      ],
      "name": "setApprovalForAll",
      "outputs": [],
      "stateMutability": "nonpayable",
      "type": "function"
    },
    {
      "inputs": [
        {
          "internalType": "bytes4",
          "name": "interfaceId",
          "type": "bytes4"
        }
      ],
      "name": "supportsInterface",
      "outputs": [
        {
          "internalType": "bool",
          "name": "",
          "type": "bool"
        }
      ],
      "stateMutability": "view",
      "type": "function"
    },
    {
      "inputs": [
        {
          "internalType": "uint256",
          "name": "id",
          "type": "uint256"
        }
      ],
      "name": "totalSupply",
      "outputs": [
        {
          "internalType": "uint256",
          "name": "",
          "type": "uint256"
        }
      ],
      "stateMutability": "view",
      "type": "function"
    },
    {
      "inputs": [
        {
          "internalType": "uint256",
          "name": "tokenId",
          "type": "uint256"
        }
      ],
      "name": "uri",
      "outputs": [
        {
          "internalType": "string",
          "name": "",
          "type": "string"
        }
      ],
      "stateMutability": "view",
      "type": "function"
    }
  ],
  "bytecode": "0x60806040526008805460ff191690553480156200001b57600080fd5b5060405162002ea638038062002ea68339810160408190526200003e91620004a7565b604080516020810190915260008152620000588162000178565b5060088054610100600160a81b0319166101006001600160a01b03861602179055815162000093576008805460ff1916600117905562000111565b60005b82518110156200010f57620000fa7f9f2df0fed2c77648de5860a4cc508cd0818c85b8b8a1ab4ceeef8d981c8956a6848381518110620000e657634e487b7160e01b600052603260045260246000fd5b60200260200101516200019160201b60201c565b8062000106816200055e565b91505062000096565b505b60005b81518110156200016e57620001598282815181106200014357634e487b7160e01b600052603260045260246000fd5b602002602001015160016200019d60201b60201c565b8062000165816200055e565b91505062000114565b505050506200059c565b80516200018d90600290602084019062000334565b5050565b6200018d8282620001aa565b6200018d3383836200024e565b60008281526006602090815260408083206001600160a01b038516845290915290205460ff166200018d5760008281526006602090815260408083206001600160a01b03851684529091529020805460ff191660011790556200020a3390565b6001600160a01b0316816001600160a01b0316837f2f8788117e7eff1d82e926ec794901d17c78024a50270940304540a733656f0d60405160405180910390a45050565b816001600160a01b0316836001600160a01b03161415620002c75760405162461bcd60e51b815260206004820152602960248201527f455243313135353a2073657474696e6720617070726f76616c20737461747573604482015268103337b91039b2b63360b91b606482015260840160405180910390fd5b6001600160a01b03838116600081815260016020908152604080832094871680845294825291829020805460ff191686151590811790915591519182527f17307eab39ab6107e8899845ad3d59bd9653f200f220920489ca2b5937696c31910160405180910390a3505050565b828054620003429062000521565b90600052602060002090601f016020900481019282620003665760008555620003b1565b82601f106200038157805160ff1916838001178555620003b1565b82800160010185558215620003b1579182015b82811115620003b157825182559160200191906001019062000394565b50620003bf929150620003c3565b5090565b5b80821115620003bf5760008155600101620003c4565b80516001600160a01b0381168114620003f257600080fd5b919050565b600082601f83011262000408578081fd5b815160206001600160401b038083111562000427576200042762000586565b8260051b604051601f19603f830116810181811084821117156200044f576200044f62000586565b604052848152838101925086840182880185018910156200046e578687fd5b8692505b858310156200049b576200048681620003da565b84529284019260019290920191840162000472565b50979650505050505050565b600080600060608486031215620004bc578283fd5b620004c784620003da565b60208501519093506001600160401b0380821115620004e4578384fd5b620004f287838801620003f7565b9350604086015191508082111562000508578283fd5b506200051786828701620003f7565b9150509250925092565b600181811c908216806200053657607f821691505b602082108114156200055857634e487b7160e01b600052602260045260246000fd5b50919050565b60006000198214156200057f57634e487b7160e01b81526011600452602481fd5b5060010190565b634e487b7160e01b600052604160045260246000fd5b6128fa80620005ac6000396000f3fe608060405234801561001057600080fd5b50600436106101575760003560e01c8063899e3106116100c3578063d53913931161007c578063d53913931461033e578063d547741f14610365578063e985e9c514610378578063f242432a1461038b578063f5298aca1461039e578063fcb156ac146103b157610157565b8063899e3106146102bd57806391d14854146102dd5780639841aa75146102f0578063a217fddf14610303578063a22cb4651461030b578063bd85b0391461031e57610157565b80632f2ff15d116101155780632f2ff15d1461022f57806336568abe146102425780633ef1f7a6146102555780634e1273f4146102685780634f558e79146102885780636b20c454146102aa57610157565b8062fdd58e1461015c57806301ffc9a7146101825780630e89341c146101a5578063248a9ca3146101c55780632a55205a146101e85780632eb2c2d61461021a575b600080fd5b61016f61016a366004611ffb565b6103c4565b6040519081526020015b60405180910390f35b6101956101903660046121e9565b61045b565b6040519015158152602001610179565b6101b86101b33660046121af565b61047d565b6040516101799190612478565b61016f6101d33660046121af565b60009081526006602052604090206001015490565b6101fb6101f6366004612298565b61051f565b604080516001600160a01b039093168352602083019190915201610179565b61022d610228366004611e47565b6105cb565b005b61022d61023d3660046121c7565b610662565b61022d6102503660046121c7565b61068e565b610195610263366004612024565b61070c565b61027b6102763660046120e4565b610841565b6040516101799190612437565b6101956102963660046121af565b600090815260036020526040902054151590565b61022d6102b8366004611f50565b6109a3565b6102c56109e6565b6040516001600160a01b039091168152602001610179565b6101956102eb3660046121c7565b6109fb565b61022d6102fe366004612221565b610a26565b61016f600081565b61022d610319366004611fc1565b610a9f565b61016f61032c3660046121af565b60009081526003602052604090205490565b61016f7f9f2df0fed2c77648de5860a4cc508cd0818c85b8b8a1ab4ceeef8d981c8956a681565b61022d6103733660046121c7565b610aaa565b610195610386366004611e15565b610ad0565b61022d610399366004611eed565b610afe565b61022d6103ac3660046120b2565b610b43565b61022d6103bf366004612264565b610b86565b60006001600160a01b0383166104355760405162461bcd60e51b815260206004820152602b60248201527f455243313135353a2062616c616e636520717565727920666f7220746865207a60448201526a65726f206164647265737360a81b60648201526084015b60405180910390fd5b506000908152602081815260408083206001600160a01b03949094168352929052205490565b600061046682610bf5565b80610475575061047582610c45565b90505b919050565b600081815260096020526040902080546060919061049a90612753565b80601f01602080910402602001604051908101604052809291908181526020018280546104c690612753565b80156105135780601f106104e857610100808354040283529160200191610513565b820191906000526020600020905b8154815290600101906020018083116104f657829003601f168201915b50505050509050919050565b60008281526005602090815260408083208151808301909252546001600160a01b038116808352600160a01b9091046001600160601b03169282019290925282916105945750604080518082019091526004546001600160a01b0381168252600160a01b90046001600160601b031660208201525b6020810151600090612710906105b3906001600160601b0316876126d6565b6105bd91906126b6565b915196919550909350505050565b6001600160a01b0385163314806105e757506105e78533610386565b61064e5760405162461bcd60e51b815260206004820152603260248201527f455243313135353a207472616e736665722063616c6c6572206973206e6f74206044820152711bdddb995c881b9bdc88185c1c1c9bdd995960721b606482015260840161042c565b61065b8585858585610c6a565b5050505050565b60008281526006602052604090206001015461067f81335b610e30565b6106898383610e94565b505050565b6001600160a01b03811633146106fe5760405162461bcd60e51b815260206004820152602f60248201527f416363657373436f6e74726f6c3a2063616e206f6e6c792072656e6f756e636560448201526e103937b632b9903337b91039b2b63360891b606482015260840161042c565b6107088282610f1a565b5050565b60085460009060ff16610805576107437f9f2df0fed2c77648de5860a4cc508cd0818c85b8b8a1ab4ceeef8d981c8956a6336109fb565b61078f5760405162461bcd60e51b815260206004820152601e60248201527f696e76616c6964206f7220756e617574686f72697a65642063616c6c65720000604482015260640161042c565b6107b97f9f2df0fed2c77648de5860a4cc508cd0818c85b8b8a1ab4ceeef8d981c8956a6876109fb565b6108055760405162461bcd60e51b815260206004820152601e60248201527f696e76616c6964206f7220756e617574686f72697a6564206d696e7465720000604482015260640161042c565b61082086868460405180602001604052806000815250610f81565b61082a8585611091565b6108358587856110b0565b50600195945050505050565b606081518351146108a65760405162461bcd60e51b815260206004820152602960248201527f455243313135353a206163636f756e747320616e6420696473206c656e677468604482015268040dad2e6dac2e8c6d60bb1b606482015260840161042c565b6000835167ffffffffffffffff8111156108d057634e487b7160e01b600052604160045260246000fd5b6040519080825280602002602001820160405280156108f9578160200160208202803683370190505b50905060005b845181101561099b5761096085828151811061092b57634e487b7160e01b600052603260045260246000fd5b602002602001015185838151811061095357634e487b7160e01b600052603260045260246000fd5b60200260200101516103c4565b82828151811061098057634e487b7160e01b600052603260045260246000fd5b6020908102919091010152610994816127bb565b90506108ff565b509392505050565b6001600160a01b0383163314806109bf57506109bf8333610386565b6109db5760405162461bcd60e51b815260040161042c90612517565b6106898383836111be565b60085461010090046001600160a01b03165b90565b60009182526006602090815260408084206001600160a01b0393909316845291905290205460ff1690565b610a308233610ad0565b610a785760405162461bcd60e51b8152602060048201526019602482015278139bdd08105c1c1c9bdd9959081d1bc81b1bd9c8195d995b9d603a1b604482015260640161042c565b80836001600160a01b0316836001600160a01b03168660405160405180910390a450505050565b610708338383611368565b600082815260066020526040902060010154610ac6813361067a565b6106898383610f1a565b6001600160a01b03918216600090815260016020908152604080832093909416825291909152205460ff1690565b6001600160a01b038516331480610b1a5750610b1a8533610386565b610b365760405162461bcd60e51b815260040161042c90612517565b61065b8585858585611449565b6001600160a01b038316331480610b5f5750610b5f8333610386565b610b7b5760405162461bcd60e51b815260040161042c90612517565b610689838383611566565b610b908233610ad0565b610bd85760405162461bcd60e51b8152602060048201526019602482015278139bdd08105c1c1c9bdd9959081d1bc81b1bd9c8195d995b9d603a1b604482015260640161042c565b60405181906001600160a01b0384169085903090600090a4505050565b60006001600160e01b03198216636cdb3d1360e11b1480610c2657506001600160e01b031982166303a24d0760e21b145b8061047557506301ffc9a760e01b6001600160e01b0319831614610475565b60006001600160e01b03198216637965db0b60e01b1480610475575061047582611585565b8151835114610c8b5760405162461bcd60e51b815260040161042c90612632565b6001600160a01b038416610cb15760405162461bcd60e51b815260040161042c90612560565b33610cc08187878787876115aa565b60005b8451811015610dc2576000858281518110610cee57634e487b7160e01b600052603260045260246000fd5b602002602001015190506000858381518110610d1a57634e487b7160e01b600052603260045260246000fd5b602090810291909101810151600084815280835260408082206001600160a01b038e168352909352919091205490915081811015610d6a5760405162461bcd60e51b815260040161042c906125e8565b6000838152602081815260408083206001600160a01b038e8116855292528083208585039055908b16825281208054849290610da790849061269e565b9250508190555050505080610dbb906127bb565b9050610cc3565b50846001600160a01b0316866001600160a01b0316826001600160a01b03167f4a39dc06d4c0dbc64b70af90fd698a233a518aa5d07e595d983b8c0526c8f7fb8787604051610e1292919061244a565b60405180910390a4610e288187878787876115b8565b505050505050565b610e3a82826109fb565b61070857610e52816001600160a01b03166014611723565b610e5d836020611723565b604051602001610e6e92919061231f565b60408051601f198184030181529082905262461bcd60e51b825261042c91600401612478565b610e9e82826109fb565b6107085760008281526006602090815260408083206001600160a01b03851684529091529020805460ff19166001179055610ed63390565b6001600160a01b0316816001600160a01b0316837f2f8788117e7eff1d82e926ec794901d17c78024a50270940304540a733656f0d60405160405180910390a45050565b610f2482826109fb565b156107085760008281526006602090815260408083206001600160a01b0385168085529252808320805460ff1916905551339285917ff6391f5c32d9c69d2a47ea670b442974b53935d1edc7fd64eb21e047a839171b9190a45050565b6001600160a01b038416610fe15760405162461bcd60e51b815260206004820152602160248201527f455243313135353a206d696e7420746f20746865207a65726f206164647265736044820152607360f81b606482015260840161042c565b3361100181600087610ff28861190c565b610ffb8861190c565b876115aa565b6000848152602081815260408083206001600160a01b03891684529091528120805485929061103190849061269e565b909155505060408051858152602081018590526001600160a01b0380881692600092918516917fc3d58168c5ae7397731d063d5bbf3d657854427343f4c083240f7aacaa2d0f62910160405180910390a461065b81600087878787611965565b6000828152600960209081526040909120825161068992840190611c74565b6127106001600160601b038216111561111e5760405162461bcd60e51b815260206004820152602a60248201527f455243323938313a20726f79616c7479206665652077696c6c206578636565646044820152692073616c65507269636560b01b606482015260840161042c565b6001600160a01b0382166111745760405162461bcd60e51b815260206004820152601b60248201527f455243323938313a20496e76616c696420706172616d65746572730000000000604482015260640161042c565b6040805180820182526001600160a01b0393841681526001600160601b0392831660208083019182526000968752600590529190942093519051909116600160a01b029116179055565b6001600160a01b0383166111e45760405162461bcd60e51b815260040161042c906125a5565b80518251146112055760405162461bcd60e51b815260040161042c90612632565b6000339050611228818560008686604051806020016040528060008152506115aa565b60005b835181101561130957600084828151811061125657634e487b7160e01b600052603260045260246000fd5b60200260200101519050600084838151811061128257634e487b7160e01b600052603260045260246000fd5b602090810291909101810151600084815280835260408082206001600160a01b038c1683529093529190912054909150818110156112d25760405162461bcd60e51b815260040161042c906124d3565b6000928352602083815260408085206001600160a01b038b1686529091529092209103905580611301816127bb565b91505061122b565b5060006001600160a01b0316846001600160a01b0316826001600160a01b03167f4a39dc06d4c0dbc64b70af90fd698a233a518aa5d07e595d983b8c0526c8f7fb868660405161135a92919061244a565b60405180910390a450505050565b816001600160a01b0316836001600160a01b031614156113dc5760405162461bcd60e51b815260206004820152602960248201527f455243313135353a2073657474696e6720617070726f76616c20737461747573604482015268103337b91039b2b63360b91b606482015260840161042c565b6001600160a01b03838116600081815260016020908152604080832094871680845294825291829020805460ff191686151590811790915591519182527f17307eab39ab6107e8899845ad3d59bd9653f200f220920489ca2b5937696c31910160405180910390a3505050565b6001600160a01b03841661146f5760405162461bcd60e51b815260040161042c90612560565b3361147f818787610ff28861190c565b6000848152602081815260408083206001600160a01b038a168452909152902054838110156114c05760405162461bcd60e51b815260040161042c906125e8565b6000858152602081815260408083206001600160a01b038b81168552925280832087850390559088168252812080548692906114fd90849061269e565b909155505060408051868152602081018690526001600160a01b03808916928a821692918616917fc3d58168c5ae7397731d063d5bbf3d657854427343f4c083240f7aacaa2d0f62910160405180910390a461155d828888888888611965565b50505050505050565b611571838383611a2f565b600082815260056020526040812055610689565b60006001600160e01b0319821663152a902d60e11b1480610475575061047582610bf5565b610e28868686868686611b30565b6001600160a01b0384163b15610e285760405163bc197c8160e01b81526001600160a01b0385169063bc197c81906115fc9089908990889088908890600401612394565b602060405180830381600087803b15801561161657600080fd5b505af1925050508015611646575060408051601f3d908101601f1916820190925261164391810190612205565b60015b6116f357611652612802565b806308c379a0141561168c5750611667612819565b80611672575061168e565b8060405162461bcd60e51b815260040161042c9190612478565b505b60405162461bcd60e51b815260206004820152603460248201527f455243313135353a207472616e7366657220746f206e6f6e20455243313135356044820152732932b1b2b4bb32b91034b6b83632b6b2b73a32b960611b606482015260840161042c565b6001600160e01b0319811663bc197c8160e01b1461155d5760405162461bcd60e51b815260040161042c9061248b565b606060006117328360026126d6565b61173d90600261269e565b67ffffffffffffffff81111561176357634e487b7160e01b600052604160045260246000fd5b6040519080825280601f01601f19166020018201604052801561178d576020820181803683370190505b509050600360fc1b816000815181106117b657634e487b7160e01b600052603260045260246000fd5b60200101906001600160f81b031916908160001a905350600f60fb1b816001815181106117f357634e487b7160e01b600052603260045260246000fd5b60200101906001600160f81b031916908160001a90535060006118178460026126d6565b61182290600161269e565b90505b60018111156118b6576f181899199a1a9b1b9c1cb0b131b232b360811b85600f166010811061186457634e487b7160e01b600052603260045260246000fd5b1a60f81b82828151811061188857634e487b7160e01b600052603260045260246000fd5b60200101906001600160f81b031916908160001a90535060049490941c936118af8161273c565b9050611825565b5083156119055760405162461bcd60e51b815260206004820181905260248201527f537472696e67733a20686578206c656e67746820696e73756666696369656e74604482015260640161042c565b9392505050565b6040805160018082528183019092526060916000919060208083019080368337019050509050828160008151811061195457634e487b7160e01b600052603260045260246000fd5b602090810291909101015292915050565b6001600160a01b0384163b15610e285760405163f23a6e6160e01b81526001600160a01b0385169063f23a6e61906119a990899089908890889088906004016123f2565b602060405180830381600087803b1580156119c357600080fd5b505af19250505080156119f3575060408051601f3d908101601f191682019092526119f091810190612205565b60015b6119ff57611652612802565b6001600160e01b0319811663f23a6e6160e01b1461155d5760405162461bcd60e51b815260040161042c9061248b565b6001600160a01b038316611a555760405162461bcd60e51b815260040161042c906125a5565b33611a8481856000611a668761190c565b611a6f8761190c565b604051806020016040528060008152506115aa565b6000838152602081815260408083206001600160a01b038816845290915290205482811015611ac55760405162461bcd60e51b815260040161042c906124d3565b6000848152602081815260408083206001600160a01b03898116808652918452828520888703905582518981529384018890529092908616917fc3d58168c5ae7397731d063d5bbf3d657854427343f4c083240f7aacaa2d0f62910160405180910390a45050505050565b6001600160a01b038516611bd35760005b8351811015611bd157828181518110611b6a57634e487b7160e01b600052603260045260246000fd5b602002602001015160036000868481518110611b9657634e487b7160e01b600052603260045260246000fd5b602002602001015181526020019081526020016000206000828254611bbb919061269e565b90915550611bca9050816127bb565b9050611b41565b505b6001600160a01b038416610e285760005b835181101561155d57828181518110611c0d57634e487b7160e01b600052603260045260246000fd5b602002602001015160036000868481518110611c3957634e487b7160e01b600052603260045260246000fd5b602002602001015181526020019081526020016000206000828254611c5e91906126f5565b90915550611c6d9050816127bb565b9050611be4565b828054611c8090612753565b90600052602060002090601f016020900481019282611ca25760008555611ce8565b82601f10611cbb57805160ff1916838001178555611ce8565b82800160010185558215611ce8579182015b82811115611ce8578251825591602001919060010190611ccd565b50611cf4929150611cf8565b5090565b5b80821115611cf45760008155600101611cf9565b600067ffffffffffffffff831115611d2757611d276127ec565b604051611d3e601f8501601f19166020018261278e565b809150838152848484011115611d5357600080fd5b83836020830137600060208583010152509392505050565b80356001600160a01b038116811461047857600080fd5b600082601f830112611d92578081fd5b81356020611d9f8261267a565b604051611dac828261278e565b8381528281019150858301600585901b87018401881015611dcb578586fd5b855b85811015611de957813584529284019290840190600101611dcd565b5090979650505050505050565b600082601f830112611e06578081fd5b61190583833560208501611d0d565b60008060408385031215611e27578182fd5b611e3083611d6b565b9150611e3e60208401611d6b565b90509250929050565b600080600080600060a08688031215611e5e578081fd5b611e6786611d6b565b9450611e7560208701611d6b565b9350604086013567ffffffffffffffff80821115611e91578283fd5b611e9d89838a01611d82565b94506060880135915080821115611eb2578283fd5b611ebe89838a01611d82565b93506080880135915080821115611ed3578283fd5b50611ee088828901611df6565b9150509295509295909350565b600080600080600060a08688031215611f04578081fd5b611f0d86611d6b565b9450611f1b60208701611d6b565b93506040860135925060608601359150608086013567ffffffffffffffff811115611f44578182fd5b611ee088828901611df6565b600080600060608486031215611f64578283fd5b611f6d84611d6b565b9250602084013567ffffffffffffffff80821115611f89578384fd5b611f9587838801611d82565b93506040860135915080821115611faa578283fd5b50611fb786828701611d82565b9150509250925092565b60008060408385031215611fd3578182fd5b611fdc83611d6b565b915060208301358015158114611ff0578182fd5b809150509250929050565b6000806040838503121561200d578182fd5b61201683611d6b565b946020939093013593505050565b600080600080600060a0868803121561203b578283fd5b61204486611d6b565b945060208601359350604086013567ffffffffffffffff811115612066578384fd5b8601601f81018813612076578384fd5b61208588823560208401611d0d565b93505060608601356001600160601b03811681146120a1578182fd5b949793965091946080013592915050565b6000806000606084860312156120c6578081fd5b6120cf84611d6b565b95602085013595506040909401359392505050565b600080604083850312156120f6578182fd5b823567ffffffffffffffff8082111561210d578384fd5b818501915085601f830112612120578384fd5b8135602061212d8261267a565b60405161213a828261278e565b8381528281019150858301600585901b870184018b1015612159578889fd5b8896505b848710156121825761216e81611d6b565b83526001969096019591830191830161215d565b5096505086013592505080821115612198578283fd5b506121a585828601611d82565b9150509250929050565b6000602082840312156121c0578081fd5b5035919050565b600080604083850312156121d9578182fd5b82359150611e3e60208401611d6b565b6000602082840312156121fa578081fd5b8135611905816128ab565b600060208284031215612216578081fd5b8151611905816128ab565b60008060008060808587031215612236578182fd5b8435935061224660208601611d6b565b925061225460408601611d6b565b9396929550929360600135925050565b600080600060608486031215612278578081fd5b8335925061228860208501611d6b565b9150604084013590509250925092565b600080604083850312156122aa578182fd5b50508035926020909101359150565b6000815180845260208085019450808401835b838110156122e8578151875295820195908201906001016122cc565b509495945050505050565b6000815180845261230b81602086016020860161270c565b601f01601f19169290920160200192915050565b60007f416363657373436f6e74726f6c3a206163636f756e74200000000000000000008252835161235781601785016020880161270c565b7001034b99036b4b9b9b4b733903937b6329607d1b601791840191820152835161238881602884016020880161270c565b01602801949350505050565b6001600160a01b0386811682528516602082015260a0604082018190526000906123c0908301866122b9565b82810360608401526123d281866122b9565b905082810360808401526123e681856122f3565b98975050505050505050565b6001600160a01b03868116825285166020820152604081018490526060810183905260a06080820181905260009061242c908301846122f3565b979650505050505050565b60006020825261190560208301846122b9565b60006040825261245d60408301856122b9565b828103602084015261246f81856122b9565b95945050505050565b60006020825261190560208301846122f3565b60208082526028908201527f455243313135353a204552433131353552656365697665722072656a656374656040820152676420746f6b656e7360c01b606082015260800190565b60208082526024908201527f455243313135353a206275726e20616d6f756e7420657863656564732062616c604082015263616e636560e01b606082015260800190565b60208082526029908201527f455243313135353a2063616c6c6572206973206e6f74206f776e6572206e6f7260408201526808185c1c1c9bdd995960ba1b606082015260800190565b60208082526025908201527f455243313135353a207472616e7366657220746f20746865207a65726f206164604082015264647265737360d81b606082015260800190565b60208082526023908201527f455243313135353a206275726e2066726f6d20746865207a65726f206164647260408201526265737360e81b606082015260800190565b6020808252602a908201527f455243313135353a20696e73756666696369656e742062616c616e636520666f60408201526939103a3930b739b332b960b11b606082015260800190565b60208082526028908201527f455243313135353a2069647320616e6420616d6f756e7473206c656e677468206040820152670dad2e6dac2e8c6d60c31b606082015260800190565b600067ffffffffffffffff821115612694576126946127ec565b5060051b60200190565b600082198211156126b1576126b16127d6565b500190565b6000826126d157634e487b7160e01b81526012600452602481fd5b500490565b60008160001904831182151516156126f0576126f06127d6565b500290565b600082821015612707576127076127d6565b500390565b60005b8381101561272757818101518382015260200161270f565b83811115612736576000848401525b50505050565b60008161274b5761274b6127d6565b506000190190565b600181811c9082168061276757607f821691505b6020821081141561278857634e487b7160e01b600052602260045260246000fd5b50919050565b601f8201601f1916810167ffffffffffffffff811182821017156127b4576127b46127ec565b6040525050565b60006000198214156127cf576127cf6127d6565b5060010190565b634e487b7160e01b600052601160045260246000fd5b634e487b7160e01b600052604160045260246000fd5b600060033d11156109f857600481823e5160e01c90565b600060443d1015612829576109f8565b6040516003193d81016004833e81513d67ffffffffffffffff816024840111818411171561285b5750505050506109f8565b8285019150815181811115612875575050505050506109f8565b843d8701016020828501011115612891575050505050506109f8565b6128a06020828601018761278e565b509094505050505090565b6001600160e01b0319811681146128c157600080fd5b5056fea26469706673582212200266b83c5912c7dc2ad3315366f35c2d6951fb34f458073801e6eb1b733f676064736f6c63430008030033",
  "linkReferences": {},
  "deployedLinkReferences": {}
}