{
  "_format": "hh-sol-artifact-1",
  "contractName": "ERC721Merchant",
  "sourceName": "contracts/ERC721Merchant.sol",
  "abi": [
    {
      "inputs": [
        {
          "internalType": "string",
          "name": "tknName",
          "type": "string"
        },
        {
          "internalType": "string",
          "name": "tknSymbol",
          "type": "string"
        },
        {
          "internalType": "string",
          "name": "domain",
          "type": "string"
        },
        {
          "internalType": "string",
          "name": "version",
          "type": "string"
        },
        {
          "internalType": "address",
          "name": "minter",
          "type": "address"
        }
      ],
      "stateMutability": "nonpayable",
      "type": "constructor"
    },
    {
      "anonymous": false,
      "inputs": [
        {
          "indexed": true,
          "internalType": "address",
          "name": "owner",
          "type": "address"
        },
        {
          "indexed": true,
          "internalType": "address",
          "name": "approved",
          "type": "address"
        },
        {
          "indexed": true,
          "internalType": "uint256",
          "name": "tokenId",
          "type": "uint256"
        }
      ],
      "name": "Approval",
      "type": "event"
    },
    {
      "anonymous": false,
      "inputs": [
        {
          "indexed": true,
          "internalType": "address",
          "name": "owner",
          "type": "address"
        },
        {
          "indexed": true,
          "internalType": "address",
          "name": "operator",
          "type": "address"
        },
        {
          "indexed": false,
          "internalType": "bool",
          "name": "approved",
          "type": "bool"
        }
      ],
      "name": "ApprovalForAll",
      "type": "event"
    },
    {
      "anonymous": true,
      "inputs": [
        {
          "indexed": true,
          "internalType": "bool",
          "name": "listed",
          "type": "bool"
        },
        {
          "indexed": true,
          "internalType": "uint256",
          "name": "price",
          "type": "uint256"
        },
        {
          "indexed": true,
          "internalType": "address",
          "name": "from",
          "type": "address"
        },
        {
          "indexed": true,
          "internalType": "uint256",
          "name": "tokenId",
          "type": "uint256"
        }
      ],
      "name": "ListedNFT",
      "type": "event"
    },
    {
      "anonymous": false,
      "inputs": [
        {
          "indexed": true,
          "internalType": "address",
          "name": "previousOwner",
          "type": "address"
        },
        {
          "indexed": true,
          "internalType": "address",
          "name": "newOwner",
          "type": "address"
        }
      ],
      "name": "OwnershipTransferred",
      "type": "event"
    },
    {
      "anonymous": false,
      "inputs": [
        {
          "indexed": true,
          "internalType": "bytes32",
          "name": "role",
          "type": "bytes32"
        },
        {
          "indexed": true,
          "internalType": "bytes32",
          "name": "previousAdminRole",
          "type": "bytes32"
        },
        {
          "indexed": true,
          "internalType": "bytes32",
          "name": "newAdminRole",
          "type": "bytes32"
        }
      ],
      "name": "RoleAdminChanged",
      "type": "event"
    },
    {
      "anonymous": false,
      "inputs": [
        {
          "indexed": true,
          "internalType": "bytes32",
          "name": "role",
          "type": "bytes32"
        },
        {
          "indexed": true,
          "internalType": "address",
          "name": "account",
          "type": "address"
        },
        {
          "indexed": true,
          "internalType": "address",
          "name": "sender",
          "type": "address"
        }
      ],
      "name": "RoleGranted",
      "type": "event"
    },
    {
      "anonymous": false,
      "inputs": [
        {
          "indexed": true,
          "internalType": "bytes32",
          "name": "role",
          "type": "bytes32"
        },
        {
          "indexed": true,
          "internalType": "address",
          "name": "account",
          "type": "address"
        },
        {
          "indexed": true,
          "internalType": "address",
          "name": "sender",
          "type": "address"
        }
      ],
      "name": "RoleRevoked",
      "type": "event"
    },
    {
      "anonymous": true,
      "inputs": [
        {
          "indexed": true,
          "internalType": "uint256",
          "name": "price",
          "type": "uint256"
        },
        {
          "indexed": true,
          "internalType": "address",
          "name": "from",
          "type": "address"
        },
        {
          "indexed": true,
          "internalType": "address",
          "name": "to",
          "type": "address"
        },
        {
          "indexed": true,
          "internalType": "uint256",
          "name": "tokenId",
          "type": "uint256"
        }
      ],
      "name": "Sale",
      "type": "event"
    },
    {
      "anonymous": false,
      "inputs": [
        {
          "indexed": true,
          "internalType": "address",
          "name": "from",
          "type": "address"
        },
        {
          "indexed": true,
          "internalType": "address",
          "name": "to",
          "type": "address"
        },
        {
          "indexed": true,
          "internalType": "uint256",
          "name": "tokenId",
          "type": "uint256"
        }
      ],
      "name": "Transfer",
      "type": "event"
    },
    {
      "inputs": [],
      "name": "DEFAULT_ADMIN_ROLE",
      "outputs": [
        {
          "internalType": "bytes32",
          "name": "",
          "type": "bytes32"
        }
      ],
      "stateMutability": "view",
      "type": "function"
    },
    {
      "inputs": [],
      "name": "MINTER_ROLE",
      "outputs": [
        {
          "internalType": "bytes32",
          "name": "",
          "type": "bytes32"
        }
      ],
      "stateMutability": "view",
      "type": "function"
    },
    {
      "inputs": [
        {
          "internalType": "address",
          "name": "to",
          "type": "address"
        },
        {
          "internalType": "uint256",
          "name": "tokenId",
          "type": "uint256"
        }
      ],
      "name": "approve",
      "outputs": [],
      "stateMutability": "nonpayable",
      "type": "function"
    },
    {
      "inputs": [
        {
          "internalType": "address",
          "name": "owner",
          "type": "address"
        }
      ],
      "name": "balanceOf",
      "outputs": [
        {
          "internalType": "uint256",
          "name": "",
          "type": "uint256"
        }
      ],
      "stateMutability": "view",
      "type": "function"
    },
    {
      "inputs": [
        {
          "internalType": "address payable",
          "name": "nftOwner",
          "type": "address"
        },
        {
          "internalType": "address payable",
          "name": "nftSeller",
          "type": "address"
        },
        {
          "components": [
            {
              "internalType": "uint256",
              "name": "tokenId",
              "type": "uint256"
            },
            {
              "internalType": "uint256",
              "name": "minPrice",
              "type": "uint256"
            },
            {
              "internalType": "uint256",
              "name": "royalty",
              "type": "uint256"
            },
            {
              "internalType": "address",
              "name": "token",
              "type": "address"
            },
            {
              "internalType": "bool",
              "name": "isNative",
              "type": "bool"
            },
            {
              "internalType": "string",
              "name": "uri",
              "type": "string"
            },
            {
              "internalType": "bytes",
              "name": "signature",
              "type": "bytes"
            }
          ],
          "internalType": "struct ERC721Merchant.NFTVoucher",
          "name": "voucher",
          "type": "tuple"
        }
      ],
      "name": "createMarketItem",
      "outputs": [
        {
          "internalType": "bool",
          "name": "",
          "type": "bool"
        }
      ],
      "stateMutability": "nonpayable",
      "type": "function"
    },
    {
      "inputs": [
        {
          "components": [
            {
              "internalType": "uint256",
              "name": "itemId",
              "type": "uint256"
            },
            {
              "internalType": "address",
              "name": "nftContract",
              "type": "address"
            },
            {
              "internalType": "uint256",
              "name": "tokenId",
              "type": "uint256"
            },
            {
              "internalType": "address payable",
              "name": "seller",
              "type": "address"
            },
            {
              "internalType": "address payable",
              "name": "owner",
              "type": "address"
            },
            {
              "internalType": "uint256",
              "name": "price",
              "type": "uint256"
            },
            {
              "internalType": "bool",
              "name": "forSale",
              "type": "bool"
            },
            {
              "internalType": "uint256",
              "name": "royalty",
              "type": "uint256"
            },
            {
              "internalType": "address",
              "name": "tokenContract",
              "type": "address"
            },
            {
              "internalType": "bool",
              "name": "isNative",
              "type": "bool"
            },
            {
              "internalType": "bool",
              "name": "minted",
              "type": "bool"
            }
          ],
          "internalType": "struct ERC721Merchant.MarketItem",
          "name": "item",
          "type": "tuple"
        }
      ],
      "name": "createSale",
      "outputs": [
        {
          "internalType": "bool",
          "name": "",
          "type": "bool"
        }
      ],
      "stateMutability": "payable",
      "type": "function"
    },
    {
      "inputs": [],
      "name": "fetchMarketItems",
      "outputs": [
        {
          "components": [
            {
              "internalType": "uint256",
              "name": "itemId",
              "type": "uint256"
            },
            {
              "internalType": "address",
              "name": "nftContract",
              "type": "address"
            },
            {
              "internalType": "uint256",
              "name": "tokenId",
              "type": "uint256"
            },
            {
              "internalType": "address payable",
              "name": "seller",
              "type": "address"
            },
            {
              "internalType": "address payable",
              "name": "owner",
              "type": "address"
            },
            {
              "internalType": "uint256",
              "name": "price",
              "type": "uint256"
            },
            {
              "internalType": "bool",
              "name": "forSale",
              "type": "bool"
            },
            {
              "internalType": "uint256",
              "name": "royalty",
              "type": "uint256"
            },
            {
              "internalType": "address",
              "name": "tokenContract",
              "type": "address"
            },
            {
              "internalType": "bool",
              "name": "isNative",
              "type": "bool"
            },
            {
              "internalType": "bool",
              "name": "minted",
              "type": "bool"
            }
          ],
          "internalType": "struct ERC721Merchant.MarketItem[]",
          "name": "",
          "type": "tuple[]"
        }
      ],
      "stateMutability": "view",
      "type": "function"
    },
    {
      "inputs": [
        {
          "internalType": "uint256",
          "name": "tokenId",
          "type": "uint256"
        }
      ],
      "name": "getApproved",
      "outputs": [
        {
          "internalType": "address",
          "name": "",
          "type": "address"
        }
      ],
      "stateMutability": "view",
      "type": "function"
    },
    {
      "inputs": [],
      "name": "getChainID",
      "outputs": [
        {
          "internalType": "uint256",
          "name": "",
          "type": "uint256"
        }
      ],
      "stateMutability": "view",
      "type": "function"
    },
    {
      "inputs": [
        {
          "internalType": "bytes32",
          "name": "role",
          "type": "bytes32"
        }
      ],
      "name": "getRoleAdmin",
      "outputs": [
        {
          "internalType": "bytes32",
          "name": "",
          "type": "bytes32"
        }
      ],
      "stateMutability": "view",
      "type": "function"
    },
    {
      "inputs": [
        {
          "internalType": "bytes32",
          "name": "role",
          "type": "bytes32"
        },
        {
          "internalType": "address",
          "name": "account",
          "type": "address"
        }
      ],
      "name": "grantRole",
      "outputs": [],
      "stateMutability": "nonpayable",
      "type": "function"
    },
    {
      "inputs": [
        {
          "internalType": "bytes32",
          "name": "role",
          "type": "bytes32"
        },
        {
          "internalType": "address",
          "name": "account",
          "type": "address"
        }
      ],
      "name": "hasRole",
      "outputs": [
        {
          "internalType": "bool",
          "name": "",
          "type": "bool"
        }
      ],
      "stateMutability": "view",
      "type": "function"
    },
    {
      "inputs": [
        {
          "internalType": "address",
          "name": "owner",
          "type": "address"
        },
        {
          "internalType": "address",
          "name": "operator",
          "type": "address"
        }
      ],
      "name": "isApprovedForAll",
      "outputs": [
        {
          "internalType": "bool",
          "name": "",
          "type": "bool"
        }
      ],
      "stateMutability": "view",
      "type": "function"
    },
    {
      "inputs": [
        {
          "components": [
            {
              "internalType": "uint256",
              "name": "tokenId",
              "type": "uint256"
            },
            {
              "internalType": "uint256",
              "name": "minPrice",
              "type": "uint256"
            },
            {
              "internalType": "uint256",
              "name": "royalty",
              "type": "uint256"
            },
            {
              "internalType": "address",
              "name": "token",
              "type": "address"
            },
            {
              "internalType": "bool",
              "name": "isNative",
              "type": "bool"
            },
            {
              "internalType": "string",
              "name": "uri",
              "type": "string"
            },
            {
              "internalType": "bytes",
              "name": "signature",
              "type": "bytes"
            }
          ],
          "internalType": "struct ERC721Merchant.NFTVoucher",
          "name": "voucher",
          "type": "tuple"
        }
      ],
      "name": "mintAndTransfer",
      "outputs": [
        {
          "internalType": "bool",
          "name": "",
          "type": "bool"
        }
      ],
      "stateMutability": "payable",
      "type": "function"
    },
    {
      "inputs": [
        {
          "components": [
            {
              "internalType": "uint256",
              "name": "tokenId",
              "type": "uint256"
            },
            {
              "internalType": "uint256",
              "name": "minPrice",
              "type": "uint256"
            },
            {
              "internalType": "uint256",
              "name": "royalty",
              "type": "uint256"
            },
            {
              "internalType": "address",
              "name": "token",
              "type": "address"
            },
            {
              "internalType": "bool",
              "name": "isNative",
              "type": "bool"
            },
            {
              "internalType": "string",
              "name": "uri",
              "type": "string"
            },
            {
              "internalType": "bytes",
              "name": "signature",
              "type": "bytes"
            }
          ],
          "internalType": "struct ERC721Merchant.NFTVoucher",
          "name": "voucher",
          "type": "tuple"
        }
      ],
      "name": "mintNFT",
      "outputs": [
        {
          "internalType": "bool",
          "name": "",
          "type": "bool"
        }
      ],
      "stateMutability": "nonpayable",
      "type": "function"
    },
    {
      "inputs": [],
      "name": "name",
      "outputs": [
        {
          "internalType": "string",
          "name": "",
          "type": "string"
        }
      ],
      "stateMutability": "view",
      "type": "function"
    },
    {
      "inputs": [],
      "name": "owner",
      "outputs": [
        {
          "internalType": "address",
          "name": "",
          "type": "address"
        }
      ],
      "stateMutability": "view",
      "type": "function"
    },
    {
      "inputs": [
        {
          "internalType": "uint256",
          "name": "tokenId",
          "type": "uint256"
        }
      ],
      "name": "ownerOf",
      "outputs": [
        {
          "internalType": "address",
          "name": "",
          "type": "address"
        }
      ],
      "stateMutability": "view",
      "type": "function"
    },
    {
      "inputs": [],
      "name": "renounceOwnership",
      "outputs": [],
      "stateMutability": "nonpayable",
      "type": "function"
    },
    {
      "inputs": [
        {
          "internalType": "bytes32",
          "name": "role",
          "type": "bytes32"
        },
        {
          "internalType": "address",
          "name": "account",
          "type": "address"
        }
      ],
      "name": "renounceRole",
      "outputs": [],
      "stateMutability": "nonpayable",
      "type": "function"
    },
    {
      "inputs": [
        {
          "internalType": "bytes32",
          "name": "role",
          "type": "bytes32"
        },
        {
          "internalType": "address",
          "name": "account",
          "type": "address"
        }
      ],
      "name": "revokeRole",
      "outputs": [],
      "stateMutability": "nonpayable",
      "type": "function"
    },
    {
      "inputs": [
        {
          "internalType": "address",
          "name": "from",
          "type": "address"
        },
        {
          "internalType": "address",
          "name": "to",
          "type": "address"
        },
        {
          "internalType": "uint256",
          "name": "tokenId",
          "type": "uint256"
        }
      ],
      "name": "safeTransferFrom",
      "outputs": [],
      "stateMutability": "nonpayable",
      "type": "function"
    },
    {
      "inputs": [
        {
          "internalType": "address",
          "name": "from",
          "type": "address"
        },
        {
          "internalType": "address",
          "name": "to",
          "type": "address"
        },
        {
          "internalType": "uint256",
          "name": "tokenId",
          "type": "uint256"
        },
        {
          "internalType": "bytes",
          "name": "_data",
          "type": "bytes"
        }
      ],
      "name": "safeTransferFrom",
      "outputs": [],
      "stateMutability": "nonpayable",
      "type": "function"
    },
    {
      "inputs": [
        {
          "internalType": "address",
          "name": "operator",
          "type": "address"
        },
        {
          "internalType": "bool",
          "name": "approved",
          "type": "bool"
        }
      ],
      "name": "setApprovalForAll",
      "outputs": [],
      "stateMutability": "nonpayable",
      "type": "function"
    },
    {
      "inputs": [
        {
          "internalType": "bytes4",
          "name": "interfaceId",
          "type": "bytes4"
        }
      ],
      "name": "supportsInterface",
      "outputs": [
        {
          "internalType": "bool",
          "name": "",
          "type": "bool"
        }
      ],
      "stateMutability": "view",
      "type": "function"
    },
    {
      "inputs": [],
      "name": "symbol",
      "outputs": [
        {
          "internalType": "string",
          "name": "",
          "type": "string"
        }
      ],
      "stateMutability": "view",
      "type": "function"
    },
    {
      "inputs": [
        {
          "internalType": "uint256",
          "name": "tokenId",
          "type": "uint256"
        }
      ],
      "name": "tokenURI",
      "outputs": [
        {
          "internalType": "string",
          "name": "",
          "type": "string"
        }
      ],
      "stateMutability": "view",
      "type": "function"
    },
    {
      "inputs": [
        {
          "internalType": "address",
          "name": "from",
          "type": "address"
        },
        {
          "internalType": "address",
          "name": "to",
          "type": "address"
        },
        {
          "internalType": "uint256",
          "name": "tokenId",
          "type": "uint256"
        }
      ],
      "name": "transferFrom",
      "outputs": [],
      "stateMutability": "nonpayable",
      "type": "function"
    },
    {
      "inputs": [
        {
          "internalType": "address",
          "name": "newOwner",
          "type": "address"
        }
      ],
      "name": "transferOwnership",
      "outputs": [],
      "stateMutability": "nonpayable",
      "type": "function"
    },
    {
      "inputs": [
        {
          "components": [
            {
              "internalType": "uint256",
              "name": "itemId",
              "type": "uint256"
            },
            {
              "internalType": "address",
              "name": "nftContract",
              "type": "address"
            },
            {
              "internalType": "uint256",
              "name": "tokenId",
              "type": "uint256"
            },
            {
              "internalType": "address payable",
              "name": "seller",
              "type": "address"
            },
            {
              "internalType": "address payable",
              "name": "owner",
              "type": "address"
            },
            {
              "internalType": "uint256",
              "name": "price",
              "type": "uint256"
            },
            {
              "internalType": "bool",
              "name": "forSale",
              "type": "bool"
            },
            {
              "internalType": "uint256",
              "name": "royalty",
              "type": "uint256"
            },
            {
              "internalType": "address",
              "name": "tokenContract",
              "type": "address"
            },
            {
              "internalType": "bool",
              "name": "isNative",
              "type": "bool"
            },
            {
              "internalType": "bool",
              "name": "minted",
              "type": "bool"
            }
          ],
          "internalType": "struct ERC721Merchant.MarketItem",
          "name": "item",
          "type": "tuple"
        },
        {
          "internalType": "bool",
          "name": "forSale",
          "type": "bool"
        },
        {
          "internalType": "uint256",
          "name": "price",
          "type": "uint256"
        }
      ],
      "name": "updateItem",
      "outputs": [
        {
          "internalType": "bool",
          "name": "",
          "type": "bool"
        }
      ],
      "stateMutability": "nonpayable",
      "type": "function"
    }
  ],
  "bytecode": "0x6101406040526009805460ff60a01b191690553480156200001f57600080fd5b5060405162004079380380620040798339810160408190526200004291620003e5565b600160008190558551849184918891889162000064919060208501906200028c565b5080516200007a9060029060208401906200028c565b5050825160208085019190912083518483012060e08290526101008190524660a0818152604080517f8b73c3c69bb8fe3d512ecc4cf759cc79239f7b179b0ffacaa9a75d522b39400f81880181905281830187905260608201869052608082019490945230818401528151808203909301835260c0019052805194019390932091935091906080523060601b60c05261012052506200012592506200011f9150503390565b62000186565b6001600160a01b038116156200016757620001617f9f2df0fed2c77648de5860a4cc508cd0818c85b8b8a1ab4ceeef8d981c8956a682620001d8565b6200017b565b6009805460ff60a01b1916600160a01b1790555b50505050506200050f565b600980546001600160a01b038381166001600160a01b0319831681179093556040519116919082907f8be0079c531659141344cd1fd0a4f28419497f9722a3daafe3b4186f6b6457e090600090a35050565b620001e48282620001e8565b5050565b60008281526008602090815260408083206001600160a01b038516845290915290205460ff16620001e45760008281526008602090815260408083206001600160a01b03851684529091529020805460ff19166001179055620002483390565b6001600160a01b0316816001600160a01b0316837f2f8788117e7eff1d82e926ec794901d17c78024a50270940304540a733656f0d60405160405180910390a45050565b8280546200029a90620004bc565b90600052602060002090601f016020900481019282620002be576000855562000309565b82601f10620002d957805160ff191683800117855562000309565b8280016001018555821562000309579182015b8281111562000309578251825591602001919060010190620002ec565b50620003179291506200031b565b5090565b5b808211156200031757600081556001016200031c565b600082601f83011262000343578081fd5b81516001600160401b0380821115620003605762000360620004f9565b604051601f8301601f19908116603f011681019082821181831017156200038b576200038b620004f9565b81604052838152602092508683858801011115620003a7578485fd5b8491505b83821015620003ca5785820183015181830184015290820190620003ab565b83821115620003db57848385830101525b9695505050505050565b600080600080600060a08688031215620003fd578081fd5b85516001600160401b038082111562000414578283fd5b6200042289838a0162000332565b9650602088015191508082111562000438578283fd5b6200044689838a0162000332565b955060408801519150808211156200045c578283fd5b6200046a89838a0162000332565b9450606088015191508082111562000480578283fd5b506200048f8882890162000332565b608088015190935090506001600160a01b0381168114620004ae578182fd5b809150509295509295909350565b600181811c90821680620004d157607f821691505b60208210811415620004f357634e487b7160e01b600052602260045260246000fd5b50919050565b634e487b7160e01b600052604160045260246000fd5b60805160a05160c05160601c60e0516101005161012051613b17620005626000396000612e8c01526000612edb01526000612eb601526000612e0d01526000612e3701526000612e610152613b176000f3fe6080604052600436106101cd5760003560e01c8063715018a6116100f7578063b88d4fde11610095578063d547741f11610064578063d547741f1461053a578063e67b91481461055a578063e985e9c51461056d578063f2fde38b146105b6576101cd565b8063b88d4fde146104b3578063c87b56dd146104d3578063d1132a7e146104f3578063d539139314610506576101cd565b806395d89b41116100d157806395d89b4114610449578063a217fddf1461045e578063a22cb46514610473578063b51b9db314610493576101cd565b8063715018a6146103f65780638da5cb5b1461040b57806391d1485414610429576101cd565b80632f2ff15d1161016f5780635cd74d021161013e5780635cd74d021461037657806360091f8f146103965780636352211e146103b657806370a08231146103d6576101cd565b80632f2ff15d1461030357806336568abe1461032357806342842e0e14610343578063564b81ef14610363576101cd565b8063095ea7b3116101ab578063095ea7b3146102615780630f08efe01461028357806323b872dd146102a5578063248a9ca3146102c5576101cd565b806301ffc9a7146101d257806306fdde0314610207578063081812fc14610229575b600080fd5b3480156101de57600080fd5b506101f26101ed366004613389565b6105d6565b60405190151581526020015b60405180910390f35b34801561021357600080fd5b5061021c6105f8565b6040516101fe91906136ef565b34801561023557600080fd5b5061024961024436600461334d565b61068b565b6040516001600160a01b0390911681526020016101fe565b34801561026d57600080fd5b5061028161027c3660046132ea565b610718565b005b34801561028f57600080fd5b5061029861082e565b6040516101fe9190613629565b3480156102b157600080fd5b506102816102c03660046131c1565b610a15565b3480156102d157600080fd5b506102f56102e036600461334d565b60009081526008602052604090206001015490565b6040519081526020016101fe565b34801561030f57600080fd5b5061028161031e366004613365565b610a46565b34801561032f57600080fd5b5061028161033e366004613365565b610a6d565b34801561034f57600080fd5b5061028161035e3660046131c1565b610aeb565b34801561036f57600080fd5b50466102f5565b34801561038257600080fd5b506101f2610391366004613129565b610b06565b3480156103a257600080fd5b506101f26103b13660046133d3565b610ce1565b3480156103c257600080fd5b506102496103d136600461334d565b610e4c565b3480156103e257600080fd5b506102f56103f136600461310d565b610ec3565b34801561040257600080fd5b50610281610f4a565b34801561041757600080fd5b506009546001600160a01b0316610249565b34801561043557600080fd5b506101f2610444366004613365565b610fb0565b34801561045557600080fd5b5061021c610fdb565b34801561046a57600080fd5b506102f5600081565b34801561047f57600080fd5b5061028161048e3660046132bd565b610fea565b34801561049f57600080fd5b506101f26104ae3660046134c1565b610ff5565b3480156104bf57600080fd5b506102816104ce366004613201565b611158565b3480156104df57600080fd5b5061021c6104ee36600461334d565b611190565b6101f26105013660046133c1565b611308565b34801561051257600080fd5b506102f57f9f2df0fed2c77648de5860a4cc508cd0818c85b8b8a1ab4ceeef8d981c8956a681565b34801561054657600080fd5b50610281610555366004613365565b61160b565b6101f26105683660046134c1565b611631565b34801561057957600080fd5b506101f2610588366004613189565b6001600160a01b03918216600090815260066020908152604080832093909416825291909152205460ff1690565b3480156105c257600080fd5b506102816105d136600461310d565b611726565b60006105e1826117f1565b806105f057506105f082611841565b90505b919050565b60606001805461060790613a02565b80601f016020809104026020016040519081016040528092919081815260200182805461063390613a02565b80156106805780601f1061065557610100808354040283529160200191610680565b820191906000526020600020905b81548152906001019060200180831161066357829003601f168201915b505050505090505b90565b600061069682611866565b6106fc5760405162461bcd60e51b815260206004820152602c60248201527f4552433732313a20617070726f76656420717565727920666f72206e6f6e657860448201526b34b9ba32b73a103a37b5b2b760a11b60648201526084015b60405180910390fd5b506000908152600560205260409020546001600160a01b031690565b600061072382610e4c565b9050806001600160a01b0316836001600160a01b031614156107915760405162461bcd60e51b815260206004820152602160248201527f4552433732313a20617070726f76616c20746f2063757272656e74206f776e656044820152603960f91b60648201526084016106f3565b336001600160a01b03821614806107ad57506107ad8133610588565b61081f5760405162461bcd60e51b815260206004820152603860248201527f4552433732313a20617070726f76652063616c6c6572206973206e6f74206f7760448201527f6e6572206e6f7220617070726f76656420666f7220616c6c000000000000000060648201526084016106f3565b6108298383611883565b505050565b6060600061083b600a5490565b90506000808267ffffffffffffffff81111561086757634e487b7160e01b600052604160045260246000fd5b6040519080825280602002602001820160405280156108ee57816020015b604080516101608101825260008082526020808301829052928201819052606082018190526080820181905260a0820181905260c0820181905260e082018190526101008201819052610120820181905261014082015282526000199092019101816108855790505b50905060005b83811015610a0d576000610909826001613852565b6000818152600b60209081526040918290208251610160810184528154815260018201546001600160a01b0390811693820193909352600282015493810193909352600381015482166060840152600481015482166080840152600581015460a0840152600681015460ff908116151560c0850152600782015460e08501526008820154928316610100850152600160a01b830481161515610120850152600160a81b90920490911615156101408301528551929350918590879081106109e057634e487b7160e01b600052603260045260246000fd5b60209081029190910101526109f6600186613852565b945050508080610a0590613a37565b9150506108f4565b509250505090565b610a1f33826118f1565b610a3b5760405162461bcd60e51b81526004016106f390613754565b6108298383836119d7565b600082815260086020526040902060010154610a6381335b611b77565b6108298383611bdb565b6001600160a01b0381163314610add5760405162461bcd60e51b815260206004820152602f60248201527f416363657373436f6e74726f6c3a2063616e206f6e6c792072656e6f756e636560448201526e103937b632b9903337b91039b2b63360891b60648201526084016106f3565b610ae78282611c61565b5050565b61082983838360405180602001604052806000815250611158565b600080826020013511610b2b5760405162461bcd60e51b81526004016106f3906137a5565b610b39600a80546001019055565b6000610b44600a5490565b9050604051806101600160405280828152602001306001600160a01b0316815260200184600001358152602001856001600160a01b03168152602001866001600160a01b031681526020018460200135815260200160001515815260200184604001358152602001846060016020810190610bbf919061310d565b6001600160a01b03168152602001610bdd60a0860160808701613315565b15158152600160209182018190526000938452600b8252604093849020835181559183015182820180546001600160a01b03199081166001600160a01b03938416179091559484015160028401556060840151600384018054871691831691909117905560808401516004840180549096169082161790945560a0830151600583015560c083015160068301805460ff191691151591909117905560e083015160078301556101008301516008909201805461012085015161014090950151939095166001600160a81b031990951694909417600160a01b931515939093029290921760ff60a81b1916600160a81b911515919091021790915590505b9392505050565b82516000908152600b6020526040808220600201549085015114610d3c5760405162461bcd60e51b81526020600482015260126024820152710e8ded6cadc92c840daeae6e840dac2e8c6d60731b60448201526064016106f3565b83516000908152600b6020526040812060020154610d5990610e4c565b9050336001600160a01b03821614610db35760405162461bcd60e51b815260206004820152601860248201527f73656e646572206e6f742070726f7065722073656c6c6572000000000000000060448201526064016106f3565b60008311610dd35760405162461bcd60e51b81526004016106f3906137a5565b84516000908152600b602052604080822060050185905586518252808220600601805460ff191687151590811790915587518352912060030180546001600160a01b0319166001600160a01b03841617905560011415610e4157604080860151905133908590600190600090a45b506001949350505050565b6000818152600360205260408120546001600160a01b0316806105f05760405162461bcd60e51b815260206004820152602960248201527f4552433732313a206f776e657220717565727920666f72206e6f6e657869737460448201526832b73a103a37b5b2b760b91b60648201526084016106f3565b60006001600160a01b038216610f2e5760405162461bcd60e51b815260206004820152602a60248201527f4552433732313a2062616c616e636520717565727920666f7220746865207a65604482015269726f206164647265737360b01b60648201526084016106f3565b506001600160a01b031660009081526004602052604090205490565b6009546001600160a01b03163314610fa45760405162461bcd60e51b815260206004820181905260248201527f4f776e61626c653a2063616c6c6572206973206e6f7420746865206f776e657260448201526064016106f3565b610fae6000611cc8565b565b60009182526008602090815260408084206001600160a01b0393909316845291905290205460ff1690565b60606002805461060790613a02565b610ae7338383611d1a565b600954600090600160a01b900460ff1661107f576110337f9f2df0fed2c77648de5860a4cc508cd0818c85b8b8a1ab4ceeef8d981c8956a633610fb0565b61107f5760405162461bcd60e51b815260206004820152601760248201527f696e76616c6964206f7220756e617574686f72697a656400000000000000000060448201526064016106f3565b60008260200135116110a35760405162461bcd60e51b81526004016106f3906137a5565b6110ae338335611de9565b6110fa82356110c060a08501856137dc565b8080601f016020809104026020016040519081016040528093929190818152602001838380828437600092019190915250611f1c92505050565b6000611107333385610b06565b9050801561114f57600061111a600a5490565b6000818152600b60209081526040808320600601805460ff1916600190811790915590519394508735933393928901359290a4505b50600192915050565b61116233836118f1565b61117e5760405162461bcd60e51b81526004016106f390613754565b61118a84848484611fa7565b50505050565b606061119b82611866565b6112015760405162461bcd60e51b815260206004820152603160248201527f45524337323155524953746f726167653a2055524920717565727920666f72206044820152703737b732bc34b9ba32b73a103a37b5b2b760791b60648201526084016106f3565b6000828152600760205260408120805461121a90613a02565b80601f016020809104026020016040519081016040528092919081815260200182805461124690613a02565b80156112935780601f1061126857610100808354040283529160200191611293565b820191906000526020600020905b81548152906001019060200180831161127657829003601f168201915b5050505050905060006112b160408051602081019091526000815290565b90508051600014156112c5575090506105f3565b8151156112f75780826040516020016112df929190613548565b604051602081830303815290604052925050506105f3565b61130084611fda565b949350505050565b60006002600054141561135d5760405162461bcd60e51b815260206004820152601f60248201527f5265656e7472616e637947756172643a207265656e7472616e742063616c6c0060448201526064016106f3565b600260005560a08201356113835760405162461bcd60e51b81526004016106f3906137a5565b8160a0013534146113c95760405162461bcd60e51b815260206004820152601060248201526f0a0e4d2c6ca40daeae6e840dac2e8c6d60831b60448201526064016106f3565b81356000908152600b602052604090206005015460a0830135146114225760405162461bcd60e51b815260206004820152601060248201526f0a0e4d2c6ca40daeae6e840dac2e8c6d60831b60448201526064016106f3565b81356000908152600b60205260409020600681015460ff16151560011461147a5760405162461bcd60e51b815260206004820152600c60248201526b4e6f7420666f722073616c6560a01b60448201526064016106f3565b600073d31c54efd3a4b5e6a993aaa4618d3700a12ff752905060006114a28360020154610e4c565b6004840154600585015460078601549293506001600160a01b039091169160006114cd8360036120b1565b905060006114db84846120b1565b905060006114f3856114ee8660616139a8565b6120b1565b6040519091506001600160a01b0388169082156108fc029083906000818181858888f1935050505015801561152c573d6000803e3d6000fd5b506040516001600160a01b0387169083156108fc029084906000818181858888f19350505050158015611563573d6000803e3d6000fd5b506040516001600160a01b0389169084156108fc029085906000818181858888f1935050505015801561159a573d6000803e3d6000fd5b50600289015460405133906001600160a01b038a16908890600090a46115c587338b600201546119d7565b50505087356000908152600b602052604090206003810180546001600160a01b03191633179055600601805460ff19169055506001955050505050506001600055919050565b6000828152600860205260409020600101546116278133610a5e565b6108298383611c61565b6000600260005414156116865760405162461bcd60e51b815260206004820152601f60248201527f5265656e7472616e637947756172643a207265656e7472616e742063616c6c0060448201526064016106f3565b600260005560208201356116ac5760405162461bcd60e51b81526004016106f3906137a5565b81602001353410156117005760405162461bcd60e51b815260206004820152601c60248201527f496e73756666696369656e742066756e647320746f2072656465656d0000000060448201526064016106f3565b600061170d3334856120f6565b905061171a813385610b06565b60016000559392505050565b6009546001600160a01b031633146117805760405162461bcd60e51b815260206004820181905260248201527f4f776e61626c653a2063616c6c6572206973206e6f7420746865206f776e657260448201526064016106f3565b6001600160a01b0381166117e55760405162461bcd60e51b815260206004820152602660248201527f4f776e61626c653a206e6577206f776e657220697320746865207a65726f206160448201526564647265737360d01b60648201526084016106f3565b6117ee81611cc8565b50565b60006001600160e01b031982166380ac58cd60e01b148061182257506001600160e01b03198216635b5e139f60e01b145b806105f057506301ffc9a760e01b6001600160e01b03198316146105f0565b60006001600160e01b03198216637965db0b60e01b14806105f057506105f0826117f1565b6000908152600360205260409020546001600160a01b0316151590565b600081815260056020526040902080546001600160a01b0319166001600160a01b03841690811790915581906118b882610e4c565b6001600160a01b03167f8c5be1e5ebec7d5bd14f71427d1e84f3dd0314c0f7b2291e5b200ac8c7c3b92560405160405180910390a45050565b60006118fc82611866565b61195d5760405162461bcd60e51b815260206004820152602c60248201527f4552433732313a206f70657261746f7220717565727920666f72206e6f6e657860448201526b34b9ba32b73a103a37b5b2b760a11b60648201526084016106f3565b600061196883610e4c565b9050806001600160a01b0316846001600160a01b031614806119a35750836001600160a01b03166119988461068b565b6001600160a01b0316145b8061130057506001600160a01b0380821660009081526006602090815260408083209388168352929052205460ff16611300565b826001600160a01b03166119ea82610e4c565b6001600160a01b031614611a525760405162461bcd60e51b815260206004820152602960248201527f4552433732313a207472616e73666572206f6620746f6b656e2074686174206960448201526839903737ba1037bbb760b91b60648201526084016106f3565b6001600160a01b038216611ab45760405162461bcd60e51b8152602060048201526024808201527f4552433732313a207472616e7366657220746f20746865207a65726f206164646044820152637265737360e01b60648201526084016106f3565b611abf600082611883565b6001600160a01b0383166000908152600460205260408120805460019290611ae89084906139a8565b90915550506001600160a01b0382166000908152600460205260408120805460019290611b16908490613852565b909155505060008181526003602052604080822080546001600160a01b0319166001600160a01b0386811691821790925591518493918716917fddf252ad1be2c89b69c2b068fc378daa952ba7f163c4a11628f55a4df523b3ef91a4505050565b611b818282610fb0565b610ae757611b99816001600160a01b031660146125da565b611ba48360206125da565b604051602001611bb5929190613577565b60408051601f198184030181529082905262461bcd60e51b82526106f3916004016136ef565b611be58282610fb0565b610ae75760008281526008602090815260408083206001600160a01b03851684529091529020805460ff19166001179055611c1d3390565b6001600160a01b0316816001600160a01b0316837f2f8788117e7eff1d82e926ec794901d17c78024a50270940304540a733656f0d60405160405180910390a45050565b611c6b8282610fb0565b15610ae75760008281526008602090815260408083206001600160a01b0385168085529252808320805460ff1916905551339285917ff6391f5c32d9c69d2a47ea670b442974b53935d1edc7fd64eb21e047a839171b9190a45050565b600980546001600160a01b038381166001600160a01b0319831681179093556040519116919082907f8be0079c531659141344cd1fd0a4f28419497f9722a3daafe3b4186f6b6457e090600090a35050565b816001600160a01b0316836001600160a01b03161415611d7c5760405162461bcd60e51b815260206004820152601960248201527f4552433732313a20617070726f766520746f2063616c6c65720000000000000060448201526064016106f3565b6001600160a01b03838116600081815260066020908152604080832094871680845294825291829020805460ff191686151590811790915591519182527f17307eab39ab6107e8899845ad3d59bd9653f200f220920489ca2b5937696c31910160405180910390a3505050565b6001600160a01b038216611e3f5760405162461bcd60e51b815260206004820181905260248201527f4552433732313a206d696e7420746f20746865207a65726f206164647265737360448201526064016106f3565b611e4881611866565b15611e955760405162461bcd60e51b815260206004820152601c60248201527f4552433732313a20746f6b656e20616c7265616479206d696e7465640000000060448201526064016106f3565b6001600160a01b0382166000908152600460205260408120805460019290611ebe908490613852565b909155505060008181526003602052604080822080546001600160a01b0319166001600160a01b03861690811790915590518392907fddf252ad1be2c89b69c2b068fc378daa952ba7f163c4a11628f55a4df523b3ef908290a45050565b611f2582611866565b611f885760405162461bcd60e51b815260206004820152602e60248201527f45524337323155524953746f726167653a2055524920736574206f66206e6f6e60448201526d32bc34b9ba32b73a103a37b5b2b760911b60648201526084016106f3565b6000828152600760209081526040909120825161082992840190613047565b611fb28484846119d7565b611fbe848484846127bc565b61118a5760405162461bcd60e51b81526004016106f390613702565b6060611fe582611866565b6120495760405162461bcd60e51b815260206004820152602f60248201527f4552433732314d657461646174613a2055524920717565727920666f72206e6f60448201526e3732bc34b9ba32b73a103a37b5b2b760891b60648201526084016106f3565b600061206060408051602081019091526000815290565b905060008151116120805760405180602001604052806000815250610cda565b8061208a846128be565b60405160200161209b929190613548565b6040516020818303038152906040529392505050565b6000806120df6120c36002600a6138bb565b6120ce906064613989565b6120d98660646129d9565b906129e5565b905060006120ed82856129d9565b95945050505050565b60008082602001351161211b5760405162461bcd60e51b81526004016106f3906137a5565b816020013583101561216f5760405162461bcd60e51b815260206004820152601c60248201527f496e73756666696369656e742066756e647320746f2072656465656d0000000060448201526064016106f3565b73d31c54efd3a4b5e6a993aaa4618d3700a12ff752600061218f846129f1565b600954909150600160a01b900460ff16612223576121cd7f9f2df0fed2c77648de5860a4cc508cd0818c85b8b8a1ab4ceeef8d981c8956a682610fb0565b6122235760405162461bcd60e51b815260206004820152602160248201527f5369676e617475726520696e76616c6964206f7220756e617574686f72697a656044820152601960fa1b60648201526084016106f3565b61222e818535611de9565b61224084356110c060a08701876137dc565b6040518435906001600160a01b038316908790600190600090a4600061226b856020013560616120b1565b9050600061227e866020013560036120b1565b905061229060a0870160808801613315565b806122b3575060006122a8608088016060890161310d565b6001600160a01b0316145b1561232b576040516001600160a01b0384169083156108fc029084906000818181858888f193505050501580156122ee573d6000803e3d6000fd5b506040516001600160a01b0385169082156108fc029083906000818181858888f19350505050158015612325573d6000803e3d6000fd5b506125a2565b600061233d608088016060890161310d565b604051636eb1769f60e11b81526001600160a01b038b8116600483015230602483015291925060208901359183169063dd62ed3e9060440160206040518083038186803b15801561238d57600080fd5b505afa1580156123a1573d6000803e3d6000fd5b505050506040513d601f19601f820116820180604052508101906123c591906134f4565b1061255f576040516323b872dd60e01b81526001600160a01b038a811660048301528581166024830152604482018590528216906323b872dd90606401602060405180830381600087803b15801561241c57600080fd5b505af1158015612430573d6000803e3d6000fd5b505050506040513d601f19601f820116820180604052508101906124549190613331565b6124925760405162461bcd60e51b815260206004820152600f60248201526e1d1c985b9cd9995c8811985a5b1959608a1b60448201526064016106f3565b6040516323b872dd60e01b81526001600160a01b038a811660048301528681166024830152604482018490528216906323b872dd90606401602060405180830381600087803b1580156124e457600080fd5b505af11580156124f8573d6000803e3d6000fd5b505050506040513d601f19601f8201168201806040525081019061251c9190613331565b61255a5760405162461bcd60e51b815260206004820152600f60248201526e1d1c985b9cd9995c8811985a5b1959608a1b60448201526064016106f3565b6125a0565b60405162461bcd60e51b8152602060048201526016602482015275496e73756666696369656e7420416c6c6f77616e636560501b60448201526064016106f3565b505b6040518635906001600160a01b03808b16919086169060208a013590600090a46125ce838988356119d7565b50909695505050505050565b606060006125e9836002613989565b6125f4906002613852565b67ffffffffffffffff81111561261a57634e487b7160e01b600052604160045260246000fd5b6040519080825280601f01601f191660200182016040528015612644576020820181803683370190505b509050600360fc1b8160008151811061266d57634e487b7160e01b600052603260045260246000fd5b60200101906001600160f81b031916908160001a905350600f60fb1b816001815181106126aa57634e487b7160e01b600052603260045260246000fd5b60200101906001600160f81b031916908160001a90535060006126ce846002613989565b6126d9906001613852565b90505b600181111561276d576f181899199a1a9b1b9c1cb0b131b232b360811b85600f166010811061271b57634e487b7160e01b600052603260045260246000fd5b1a60f81b82828151811061273f57634e487b7160e01b600052603260045260246000fd5b60200101906001600160f81b031916908160001a90535060049490941c93612766816139eb565b90506126dc565b508315610cda5760405162461bcd60e51b815260206004820181905260248201527f537472696e67733a20686578206c656e67746820696e73756666696369656e7460448201526064016106f3565b60006001600160a01b0384163b15610e4157604051630a85bd0160e11b81526001600160a01b0385169063150b7a02906128009033908990889088906004016135ec565b602060405180830381600087803b15801561281a57600080fd5b505af192505050801561284a575060408051601f3d908101601f19168201909252612847918101906133a5565b60015b6128a4573d808015612878576040519150601f19603f3d011682016040523d82523d6000602084013e61287d565b606091505b50805161289c5760405162461bcd60e51b81526004016106f390613702565b805181602001fd5b6001600160e01b031916630a85bd0160e11b149050611300565b6060816128e357506040805180820190915260018152600360fc1b60208201526105f3565b8160005b811561290d57806128f781613a37565b91506129069050600a8361386a565b91506128e7565b60008167ffffffffffffffff81111561293657634e487b7160e01b600052604160045260246000fd5b6040519080825280601f01601f191660200182016040528015612960576020820181803683370190505b5090505b8415611300576129756001836139a8565b9150612982600a86613a52565b61298d906030613852565b60f81b8183815181106129b057634e487b7160e01b600052603260045260246000fd5b60200101906001600160f81b031916908160001a9053506129d2600a8661386a565b9450612964565b6000610cda8284613989565b6000610cda828461386a565b6000806129fd83612a4a565b9050610cda81612a1060c08601866137dc565b8080601f016020809104026020016040519081016040528093929190818152602001838380828437600092019190915250612b1b92505050565b60006105f07f66a9f3ee8886973761b2ebb7846666307aadbd0f7882fe4a4800bdd66b397130833560208501356040860135612a8c608088016060890161310d565b612a9c60a0890160808a01613315565b612aa960a08a018a6137dc565b604051612ab7929190613538565b604080519182900382206020830198909852810195909552606085019390935260808401919091526001600160a01b031660a0830152151560c082015260e08101919091526101000160405160208183030381529060405280519060200120612b3f565b6000806000612b2a8585612b8d565b91509150612b3781612bfd565b509392505050565b60006105f0612b4c612e00565b8360405161190160f01b6020820152602281018390526042810182905260009060620160405160208183030381529060405280519060200120905092915050565b600080825160411415612bc45760208301516040840151606085015160001a612bb887828585612f2b565b94509450505050612bf6565b825160401415612bee5760208301516040840151612be3868383613018565b935093505050612bf6565b506000905060025b9250929050565b6000816004811115612c1f57634e487b7160e01b600052602160045260246000fd5b1415612c2a576117ee565b6001816004811115612c4c57634e487b7160e01b600052602160045260246000fd5b1415612c9a5760405162461bcd60e51b815260206004820152601860248201527f45434453413a20696e76616c6964207369676e6174757265000000000000000060448201526064016106f3565b6002816004811115612cbc57634e487b7160e01b600052602160045260246000fd5b1415612d0a5760405162461bcd60e51b815260206004820152601f60248201527f45434453413a20696e76616c6964207369676e6174757265206c656e6774680060448201526064016106f3565b6003816004811115612d2c57634e487b7160e01b600052602160045260246000fd5b1415612d855760405162461bcd60e51b815260206004820152602260248201527f45434453413a20696e76616c6964207369676e6174757265202773272076616c604482015261756560f01b60648201526084016106f3565b6004816004811115612da757634e487b7160e01b600052602160045260246000fd5b14156117ee5760405162461bcd60e51b815260206004820152602260248201527f45434453413a20696e76616c6964207369676e6174757265202776272076616c604482015261756560f01b60648201526084016106f3565b6000306001600160a01b037f000000000000000000000000000000000000000000000000000000000000000016148015612e5957507f000000000000000000000000000000000000000000000000000000000000000046145b15612e8557507f0000000000000000000000000000000000000000000000000000000000000000610688565b50604080517f00000000000000000000000000000000000000000000000000000000000000006020808301919091527f0000000000000000000000000000000000000000000000000000000000000000828401527f000000000000000000000000000000000000000000000000000000000000000060608301524660808301523060a0808401919091528351808403909101815260c09092019092528051910120610688565b6000807f7fffffffffffffffffffffffffffffff5d576e7357a4501ddfe92f46681b20a0831115612f62575060009050600361300f565b8460ff16601b14158015612f7a57508460ff16601c14155b15612f8b575060009050600461300f565b6040805160008082526020820180845289905260ff881692820192909252606081018690526080810185905260019060a0016020604051602081039080840390855afa158015612fdf573d6000803e3d6000fd5b5050604051601f1901519150506001600160a01b0381166130085760006001925092505061300f565b9150600090505b94509492505050565b6000806001600160ff1b03831660ff84901c601b0161303987828885612f2b565b935093505050935093915050565b82805461305390613a02565b90600052602060002090601f01602090048101928261307557600085556130bb565b82601f1061308e57805160ff19168380011785556130bb565b828001600101855582156130bb579182015b828111156130bb5782518255916020019190600101906130a0565b506130c79291506130cb565b5090565b5b808211156130c757600081556001016130cc565b80356105f381613aa8565b80356105f381613abd565b600060e08284031215613107578081fd5b50919050565b60006020828403121561311e578081fd5b8135610cda81613aa8565b60008060006060848603121561313d578182fd5b833561314881613aa8565b9250602084013561315881613aa8565b9150604084013567ffffffffffffffff811115613173578182fd5b61317f868287016130f6565b9150509250925092565b6000806040838503121561319b578182fd5b82356131a681613aa8565b915060208301356131b681613aa8565b809150509250929050565b6000806000606084860312156131d5578283fd5b83356131e081613aa8565b925060208401356131f081613aa8565b929592945050506040919091013590565b60008060008060808587031215613216578081fd5b843561322181613aa8565b935060208581013561323281613aa8565b935060408601359250606086013567ffffffffffffffff80821115613255578384fd5b818801915088601f830112613268578384fd5b81358181111561327a5761327a613a92565b61328c601f8201601f19168501613821565b915080825289848285010111156132a1578485fd5b8084840185840137810190920192909252939692955090935050565b600080604083850312156132cf578182fd5b82356132da81613aa8565b915060208301356131b681613abd565b600080604083850312156132fc578182fd5b823561330781613aa8565b946020939093013593505050565b600060208284031215613326578081fd5b8135610cda81613abd565b600060208284031215613342578081fd5b8151610cda81613abd565b60006020828403121561335e578081fd5b5035919050565b60008060408385031215613377578182fd5b8235915060208301356131b681613aa8565b60006020828403121561339a578081fd5b8135610cda81613acb565b6000602082840312156133b6578081fd5b8151610cda81613acb565b60006101608284031215613107578081fd5b60008060008385036101a08112156133e9578182fd5b610160808212156133f8578283fd5b61340181613821565b915085358252613413602087016130e0565b60208301526040860135604083015261342e606087016130e0565b606083015261343f608087016130e0565b608083015260a086013560a083015261345a60c087016130eb565b60c083015260e086013560e08301526101006134778188016130e0565b908301526101206134898782016130eb565b9083015261014061349b8782016130eb565b81840152508194506134ae8187016130eb565b9350505061018084013590509250925092565b6000602082840312156134d2578081fd5b813567ffffffffffffffff8111156134e8578182fd5b611300848285016130f6565b600060208284031215613505578081fd5b5051919050565b600081518084526135248160208601602086016139bf565b601f01601f19169290920160200192915050565b6000828483379101908152919050565b6000835161355a8184602088016139bf565b83519083019061356e8183602088016139bf565b01949350505050565b60007f416363657373436f6e74726f6c3a206163636f756e7420000000000000000000825283516135af8160178501602088016139bf565b7001034b99036b4b9b9b4b733903937b6329607d1b60179184019182015283516135e08160288401602088016139bf565b01602801949350505050565b6001600160a01b038581168252841660208201526040810183905260806060820181905260009061361f9083018461350c565b9695505050505050565b602080825282518282018190526000919060409081850190868401855b828110156136e257815180518552868101516001600160a01b0390811688870152868201518787015260608083015182169087015260808083015182169087015260a0808301519087015260c08083015115159087015260e08083015190870152610100808301519091169086015261012080820151151590860152610140908101511515908501526101609093019290850190600101613646565b5091979650505050505050565b600060208252610cda602083018461350c565b60208082526032908201527f4552433732313a207472616e7366657220746f206e6f6e20455243373231526560408201527131b2b4bb32b91034b6b83632b6b2b73a32b960711b606082015260800190565b60208082526031908201527f4552433732313a207472616e736665722063616c6c6572206973206e6f74206f6040820152701ddb995c881b9bdc88185c1c1c9bdd9959607a1b606082015260800190565b6020808252601c908201527f5072696365206d757374206265206174206c6561737420312077656900000000604082015260600190565b6000808335601e198436030181126137f2578283fd5b83018035915067ffffffffffffffff82111561380c578283fd5b602001915036819003821315612bf657600080fd5b604051601f8201601f1916810167ffffffffffffffff8111828210171561384a5761384a613a92565b604052919050565b6000821982111561386557613865613a66565b500190565b60008261387957613879613a7c565b500490565b80825b6001808611613890575061300f565b8187048211156138a2576138a2613a66565b808616156138af57918102915b9490941c938002613881565b6000610cda60001984846000826138d457506001610cda565b816138e157506000610cda565b81600181146138f757600281146139015761392e565b6001915050610cda565b60ff84111561391257613912613a66565b6001841b91508482111561392857613928613a66565b50610cda565b5060208310610133831016604e8410600b8410161715613961575081810a8381111561395c5761395c613a66565b610cda565b61396e848484600161387e565b80860482111561398057613980613a66565b02949350505050565b60008160001904831182151516156139a3576139a3613a66565b500290565b6000828210156139ba576139ba613a66565b500390565b60005b838110156139da5781810151838201526020016139c2565b8381111561118a5750506000910152565b6000816139fa576139fa613a66565b506000190190565b600181811c90821680613a1657607f821691505b6020821081141561310757634e487b7160e01b600052602260045260246000fd5b6000600019821415613a4b57613a4b613a66565b5060010190565b600082613a6157613a61613a7c565b500690565b634e487b7160e01b600052601160045260246000fd5b634e487b7160e01b600052601260045260246000fd5b634e487b7160e01b600052604160045260246000fd5b6001600160a01b03811681146117ee57600080fd5b80151581146117ee57600080fd5b6001600160e01b0319811681146117ee57600080fdfea2646970667358221220df449f52c53c22feb858c9d0967b752fb79614ac7faa7298a3e3d3c97a94e6fe64736f6c63430008030033",
  "linkReferences": {},
  "deployedLinkReferences": {}
}