{
  "_format": "hh-sol-artifact-1",
  "contractName": "ThredInfra",
  "sourceName": "contracts/ThredInfra/ThredInfra.sol",
  "abi": [
    {
      "anonymous": false,
      "inputs": [
        {
          "indexed": false,
          "internalType": "uint8",
          "name": "version",
          "type": "uint8"
        }
      ],
      "name": "Initialized",
      "type": "event"
    },
    {
      "anonymous": false,
      "inputs": [
        {
          "indexed": false,
          "internalType": "address",
          "name": "account",
          "type": "address"
        }
      ],
      "name": "Paused",
      "type": "event"
    },
    {
      "anonymous": false,
      "inputs": [
        {
          "indexed": false,
          "internalType": "address",
          "name": "account",
          "type": "address"
        }
      ],
      "name": "Unpaused",
      "type": "event"
    },
    {
      "inputs": [
        {
          "components": [
            {
              "internalType": "address",
              "name": "contractAddress",
              "type": "address"
            },
            {
              "internalType": "address",
              "name": "ownerAddress",
              "type": "address"
            },
            {
              "internalType": "uint256",
              "name": "tokenId",
              "type": "uint256"
            }
          ],
          "internalType": "struct ThredInfra.Item[]",
          "name": "items",
          "type": "tuple[]"
        },
        {
          "internalType": "address",
          "name": "callerAddress",
          "type": "address"
        }
      ],
      "name": "checkTokenGate",
      "outputs": [
        {
          "internalType": "bool",
          "name": "",
          "type": "bool"
        }
      ],
      "stateMutability": "view",
      "type": "function"
    },
    {
      "inputs": [],
      "name": "deployerAddress",
      "outputs": [
        {
          "internalType": "address",
          "name": "",
          "type": "address"
        }
      ],
      "stateMutability": "view",
      "type": "function"
    },
    {
      "inputs": [
        {
          "internalType": "address",
          "name": "deployAddress",
          "type": "address"
        }
      ],
      "name": "initialize",
      "outputs": [],
      "stateMutability": "nonpayable",
      "type": "function"
    },
    {
      "inputs": [],
      "name": "pause",
      "outputs": [],
      "stateMutability": "nonpayable",
      "type": "function"
    },
    {
      "inputs": [],
      "name": "paused",
      "outputs": [
        {
          "internalType": "bool",
          "name": "",
          "type": "bool"
        }
      ],
      "stateMutability": "view",
      "type": "function"
    },
    {
      "inputs": [],
      "name": "unpause",
      "outputs": [],
      "stateMutability": "nonpayable",
      "type": "function"
    }
  ],
  "bytecode": "0x608060405234801561001057600080fd5b506108e1806100206000396000f3fe608060405234801561001057600080fd5b50600436106100625760003560e01c80630a35ecc5146100675780633f4ba83a1461008f5780635c975abb146100995780638456cb59146100a4578063c4d66de8146100ac578063efdee94f146100bf575b600080fd5b61007a6100753660046106dc565b6100ea565b60405190151581526020015b60405180910390f35b61009761015d565b005b60655460ff1661007a565b610097610167565b6100976100ba36600461069d565b61016f565b6098546100d2906001600160a01b031681565b6040516001600160a01b039091168152602001610086565b6000806101488585808060200260200160405190810160405280939291908181526020016000905b8282101561013e5761012f6060830286013681900381019061075d565b81526020019060010190610112565b5050505050610208565b905061015481846103d5565b95945050505050565b610165610447565b565b6101656104df565b600061017b600161055a565b90508015610193576000805461ff0019166101001790555b61019b6105df565b6101a361060e565b609880546001600160a01b0319166001600160a01b0384161790558015610204576000805461ff0019169055604051600181527f7f26b83ff96e1f2b6a682f133852f6798a09c465da95921460cefb38474024989060200160405180910390a15b5050565b805160609060008167ffffffffffffffff81111561023657634e487b7160e01b600052604160045260246000fd5b60405190808252806020026020018201604052801561028157816020015b60408051606081018252600080825260208083018290529282015282526000199092019101816102545790505b50905060005b828110156103cb5760008582815181106102b157634e487b7160e01b600052603260045260246000fd5b602002602001015190506000816000015190506000816001600160a01b0316636352211e84604001516040518263ffffffff1660e01b81526004016102f891815260200190565b60206040518083038186803b15801561031057600080fd5b505afa925050508015610340575060408051601f3d908101601f1916820190925261033d918101906106c0565b60015b61034c5750600061034f565b90505b6000604051806060016040528085600001516001600160a01b03168152602001836001600160a01b0316815260200185604001518152509050808686815181106103a957634e487b7160e01b600052603260045260246000fd5b60200260200101819052505050505080806103c39061086c565b915050610287565b509150505b919050565b600080805b845181101561043f5784818151811061040357634e487b7160e01b600052603260045260246000fd5b6020026020010151602001516001600160a01b0316846001600160a01b0316141561042d57600191505b806104378161086c565b9150506103da565b509392505050565b60655460ff166104955760405162461bcd60e51b815260206004820152601460248201527314185d5cd8589b194e881b9bdd081c185d5cd95960621b60448201526064015b60405180910390fd5b6065805460ff191690557f5db9ee0a495bf2e6ff9c91a7834c1ba4fdd244a5e8aa4e537bd38aeae4b073aa335b6040516001600160a01b03909116815260200160405180910390a1565b60655460ff16156105255760405162461bcd60e51b815260206004820152601060248201526f14185d5cd8589b194e881c185d5cd95960821b604482015260640161048c565b6065805460ff191660011790557f62e78cea01bee320cd4e420270b5ea74000d11b0c9f74754ebdbfc544b05a2586104c23390565b60008054610100900460ff16156105a1578160ff16600114801561057d5750303b155b6105995760405162461bcd60e51b815260040161048c906107d3565b5060006103d0565b60005460ff8084169116106105c85760405162461bcd60e51b815260040161048c906107d3565b506000805460ff191660ff831617905560016103d0565b600054610100900460ff166106065760405162461bcd60e51b815260040161048c90610821565b61016561063d565b600054610100900460ff166106355760405162461bcd60e51b815260040161048c90610821565b61016561066a565b600054610100900460ff166106645760405162461bcd60e51b815260040161048c90610821565b60018055565b600054610100900460ff166106915760405162461bcd60e51b815260040161048c90610821565b6065805460ff19169055565b6000602082840312156106ae578081fd5b81356106b981610893565b9392505050565b6000602082840312156106d1578081fd5b81516106b981610893565b6000806000604084860312156106f0578182fd5b833567ffffffffffffffff80821115610707578384fd5b818601915086601f83011261071a578384fd5b813581811115610728578485fd5b87602060608302850101111561073c578485fd5b6020928301955093505084013561075281610893565b809150509250925092565b60006060828403121561076e578081fd5b6040516060810181811067ffffffffffffffff8211171561079d57634e487b7160e01b83526041600452602483fd5b60405282356107ab81610893565b815260208301356107bb81610893565b60208201526040928301359281019290925250919050565b6020808252602e908201527f496e697469616c697a61626c653a20636f6e747261637420697320616c72656160408201526d191e481a5b9a5d1a585b1a5e995960921b606082015260800190565b6020808252602b908201527f496e697469616c697a61626c653a20636f6e7472616374206973206e6f74206960408201526a6e697469616c697a696e6760a81b606082015260800190565b600060001982141561088c57634e487b7160e01b81526011600452602481fd5b5060010190565b6001600160a01b03811681146108a857600080fd5b5056fea2646970667358221220e891d5fc58406538dcffcd7dc1458c83daf1464f91f5cc59fc0eb475cb4e918c64736f6c63430008030033",
  "linkReferences": {},
  "deployedLinkReferences": {}
}