{
  "_format": "hh-sol-artifact-1",
  "contractName": "NFT",
  "sourceName": "contracts/Market.sol",
  "abi": [
    {
      "inputs": [
        {
          "internalType": "string",
          "name": "tknName",
          "type": "string"
        },
        {
          "internalType": "string",
          "name": "tknSymbol",
          "type": "string"
        },
        {
          "internalType": "string",
          "name": "domain",
          "type": "string"
        },
        {
          "internalType": "string",
          "name": "version",
          "type": "string"
        },
        {
          "internalType": "address",
          "name": "minter",
          "type": "address"
        }
      ],
      "stateMutability": "nonpayable",
      "type": "constructor"
    },
    {
      "anonymous": false,
      "inputs": [
        {
          "indexed": true,
          "internalType": "address",
          "name": "owner",
          "type": "address"
        },
        {
          "indexed": true,
          "internalType": "address",
          "name": "approved",
          "type": "address"
        },
        {
          "indexed": true,
          "internalType": "uint256",
          "name": "tokenId",
          "type": "uint256"
        }
      ],
      "name": "Approval",
      "type": "event"
    },
    {
      "anonymous": false,
      "inputs": [
        {
          "indexed": true,
          "internalType": "address",
          "name": "owner",
          "type": "address"
        },
        {
          "indexed": true,
          "internalType": "address",
          "name": "operator",
          "type": "address"
        },
        {
          "indexed": false,
          "internalType": "bool",
          "name": "approved",
          "type": "bool"
        }
      ],
      "name": "ApprovalForAll",
      "type": "event"
    },
    {
      "anonymous": true,
      "inputs": [
        {
          "indexed": true,
          "internalType": "bool",
          "name": "listed",
          "type": "bool"
        },
        {
          "indexed": true,
          "internalType": "uint256",
          "name": "price",
          "type": "uint256"
        },
        {
          "indexed": true,
          "internalType": "address",
          "name": "from",
          "type": "address"
        },
        {
          "indexed": true,
          "internalType": "uint256",
          "name": "tokenId",
          "type": "uint256"
        }
      ],
      "name": "ListedNFT",
      "type": "event"
    },
    {
      "anonymous": false,
      "inputs": [
        {
          "indexed": true,
          "internalType": "address",
          "name": "previousOwner",
          "type": "address"
        },
        {
          "indexed": true,
          "internalType": "address",
          "name": "newOwner",
          "type": "address"
        }
      ],
      "name": "OwnershipTransferred",
      "type": "event"
    },
    {
      "anonymous": false,
      "inputs": [
        {
          "indexed": true,
          "internalType": "bytes32",
          "name": "role",
          "type": "bytes32"
        },
        {
          "indexed": true,
          "internalType": "bytes32",
          "name": "previousAdminRole",
          "type": "bytes32"
        },
        {
          "indexed": true,
          "internalType": "bytes32",
          "name": "newAdminRole",
          "type": "bytes32"
        }
      ],
      "name": "RoleAdminChanged",
      "type": "event"
    },
    {
      "anonymous": false,
      "inputs": [
        {
          "indexed": true,
          "internalType": "bytes32",
          "name": "role",
          "type": "bytes32"
        },
        {
          "indexed": true,
          "internalType": "address",
          "name": "account",
          "type": "address"
        },
        {
          "indexed": true,
          "internalType": "address",
          "name": "sender",
          "type": "address"
        }
      ],
      "name": "RoleGranted",
      "type": "event"
    },
    {
      "anonymous": false,
      "inputs": [
        {
          "indexed": true,
          "internalType": "bytes32",
          "name": "role",
          "type": "bytes32"
        },
        {
          "indexed": true,
          "internalType": "address",
          "name": "account",
          "type": "address"
        },
        {
          "indexed": true,
          "internalType": "address",
          "name": "sender",
          "type": "address"
        }
      ],
      "name": "RoleRevoked",
      "type": "event"
    },
    {
      "anonymous": true,
      "inputs": [
        {
          "indexed": true,
          "internalType": "uint256",
          "name": "price",
          "type": "uint256"
        },
        {
          "indexed": true,
          "internalType": "address",
          "name": "from",
          "type": "address"
        },
        {
          "indexed": true,
          "internalType": "address",
          "name": "to",
          "type": "address"
        },
        {
          "indexed": true,
          "internalType": "uint256",
          "name": "tokenId",
          "type": "uint256"
        }
      ],
      "name": "Sale",
      "type": "event"
    },
    {
      "anonymous": false,
      "inputs": [
        {
          "indexed": true,
          "internalType": "address",
          "name": "from",
          "type": "address"
        },
        {
          "indexed": true,
          "internalType": "address",
          "name": "to",
          "type": "address"
        },
        {
          "indexed": true,
          "internalType": "uint256",
          "name": "tokenId",
          "type": "uint256"
        }
      ],
      "name": "Transfer",
      "type": "event"
    },
    {
      "inputs": [],
      "name": "DEFAULT_ADMIN_ROLE",
      "outputs": [
        {
          "internalType": "bytes32",
          "name": "",
          "type": "bytes32"
        }
      ],
      "stateMutability": "view",
      "type": "function"
    },
    {
      "inputs": [],
      "name": "MINTER_ROLE",
      "outputs": [
        {
          "internalType": "bytes32",
          "name": "",
          "type": "bytes32"
        }
      ],
      "stateMutability": "view",
      "type": "function"
    },
    {
      "inputs": [
        {
          "internalType": "address",
          "name": "to",
          "type": "address"
        },
        {
          "internalType": "uint256",
          "name": "tokenId",
          "type": "uint256"
        }
      ],
      "name": "approve",
      "outputs": [],
      "stateMutability": "nonpayable",
      "type": "function"
    },
    {
      "inputs": [
        {
          "internalType": "address",
          "name": "owner",
          "type": "address"
        }
      ],
      "name": "balanceOf",
      "outputs": [
        {
          "internalType": "uint256",
          "name": "",
          "type": "uint256"
        }
      ],
      "stateMutability": "view",
      "type": "function"
    },
    {
      "inputs": [
        {
          "internalType": "address payable",
          "name": "nftOwner",
          "type": "address"
        },
        {
          "internalType": "address payable",
          "name": "nftSeller",
          "type": "address"
        },
        {
          "components": [
            {
              "internalType": "uint256",
              "name": "tokenId",
              "type": "uint256"
            },
            {
              "internalType": "uint256",
              "name": "minPrice",
              "type": "uint256"
            },
            {
              "internalType": "uint256",
              "name": "royalty",
              "type": "uint256"
            },
            {
              "internalType": "address",
              "name": "token",
              "type": "address"
            },
            {
              "internalType": "bool",
              "name": "isNative",
              "type": "bool"
            },
            {
              "internalType": "string",
              "name": "uri",
              "type": "string"
            },
            {
              "internalType": "bytes",
              "name": "signature",
              "type": "bytes"
            }
          ],
          "internalType": "struct NFT.NFTVoucher",
          "name": "voucher",
          "type": "tuple"
        }
      ],
      "name": "createMarketItem",
      "outputs": [
        {
          "internalType": "bool",
          "name": "",
          "type": "bool"
        }
      ],
      "stateMutability": "nonpayable",
      "type": "function"
    },
    {
      "inputs": [
        {
          "components": [
            {
              "internalType": "uint256",
              "name": "itemId",
              "type": "uint256"
            },
            {
              "internalType": "address",
              "name": "nftContract",
              "type": "address"
            },
            {
              "internalType": "uint256",
              "name": "tokenId",
              "type": "uint256"
            },
            {
              "internalType": "address payable",
              "name": "seller",
              "type": "address"
            },
            {
              "internalType": "address payable",
              "name": "owner",
              "type": "address"
            },
            {
              "internalType": "uint256",
              "name": "price",
              "type": "uint256"
            },
            {
              "internalType": "bool",
              "name": "forSale",
              "type": "bool"
            },
            {
              "internalType": "uint256",
              "name": "royalty",
              "type": "uint256"
            },
            {
              "internalType": "address",
              "name": "tokenContract",
              "type": "address"
            },
            {
              "internalType": "bool",
              "name": "isNative",
              "type": "bool"
            },
            {
              "internalType": "bool",
              "name": "minted",
              "type": "bool"
            }
          ],
          "internalType": "struct NFT.MarketItem",
          "name": "item",
          "type": "tuple"
        }
      ],
      "name": "createSale",
      "outputs": [
        {
          "internalType": "bool",
          "name": "",
          "type": "bool"
        }
      ],
      "stateMutability": "payable",
      "type": "function"
    },
    {
      "inputs": [
        {
          "components": [
            {
              "internalType": "uint256",
              "name": "itemId",
              "type": "uint256"
            },
            {
              "internalType": "address",
              "name": "nftContract",
              "type": "address"
            },
            {
              "internalType": "uint256",
              "name": "tokenId",
              "type": "uint256"
            },
            {
              "internalType": "address payable",
              "name": "seller",
              "type": "address"
            },
            {
              "internalType": "address payable",
              "name": "owner",
              "type": "address"
            },
            {
              "internalType": "uint256",
              "name": "price",
              "type": "uint256"
            },
            {
              "internalType": "bool",
              "name": "forSale",
              "type": "bool"
            },
            {
              "internalType": "uint256",
              "name": "royalty",
              "type": "uint256"
            },
            {
              "internalType": "address",
              "name": "tokenContract",
              "type": "address"
            },
            {
              "internalType": "bool",
              "name": "isNative",
              "type": "bool"
            },
            {
              "internalType": "bool",
              "name": "minted",
              "type": "bool"
            }
          ],
          "internalType": "struct NFT.MarketItem",
          "name": "item",
          "type": "tuple"
        }
      ],
      "name": "createSaleCustom",
      "outputs": [
        {
          "internalType": "bool",
          "name": "",
          "type": "bool"
        }
      ],
      "stateMutability": "nonpayable",
      "type": "function"
    },
    {
      "inputs": [],
      "name": "fetchMarketItems",
      "outputs": [
        {
          "components": [
            {
              "internalType": "uint256",
              "name": "itemId",
              "type": "uint256"
            },
            {
              "internalType": "address",
              "name": "nftContract",
              "type": "address"
            },
            {
              "internalType": "uint256",
              "name": "tokenId",
              "type": "uint256"
            },
            {
              "internalType": "address payable",
              "name": "seller",
              "type": "address"
            },
            {
              "internalType": "address payable",
              "name": "owner",
              "type": "address"
            },
            {
              "internalType": "uint256",
              "name": "price",
              "type": "uint256"
            },
            {
              "internalType": "bool",
              "name": "forSale",
              "type": "bool"
            },
            {
              "internalType": "uint256",
              "name": "royalty",
              "type": "uint256"
            },
            {
              "internalType": "address",
              "name": "tokenContract",
              "type": "address"
            },
            {
              "internalType": "bool",
              "name": "isNative",
              "type": "bool"
            },
            {
              "internalType": "bool",
              "name": "minted",
              "type": "bool"
            }
          ],
          "internalType": "struct NFT.MarketItem[]",
          "name": "",
          "type": "tuple[]"
        }
      ],
      "stateMutability": "view",
      "type": "function"
    },
    {
      "inputs": [
        {
          "internalType": "uint256",
          "name": "tokenId",
          "type": "uint256"
        }
      ],
      "name": "getApproved",
      "outputs": [
        {
          "internalType": "address",
          "name": "",
          "type": "address"
        }
      ],
      "stateMutability": "view",
      "type": "function"
    },
    {
      "inputs": [],
      "name": "getChainID",
      "outputs": [
        {
          "internalType": "uint256",
          "name": "",
          "type": "uint256"
        }
      ],
      "stateMutability": "view",
      "type": "function"
    },
    {
      "inputs": [
        {
          "internalType": "bytes32",
          "name": "role",
          "type": "bytes32"
        }
      ],
      "name": "getRoleAdmin",
      "outputs": [
        {
          "internalType": "bytes32",
          "name": "",
          "type": "bytes32"
        }
      ],
      "stateMutability": "view",
      "type": "function"
    },
    {
      "inputs": [
        {
          "internalType": "bytes32",
          "name": "role",
          "type": "bytes32"
        },
        {
          "internalType": "address",
          "name": "account",
          "type": "address"
        }
      ],
      "name": "grantRole",
      "outputs": [],
      "stateMutability": "nonpayable",
      "type": "function"
    },
    {
      "inputs": [
        {
          "internalType": "bytes32",
          "name": "role",
          "type": "bytes32"
        },
        {
          "internalType": "address",
          "name": "account",
          "type": "address"
        }
      ],
      "name": "hasRole",
      "outputs": [
        {
          "internalType": "bool",
          "name": "",
          "type": "bool"
        }
      ],
      "stateMutability": "view",
      "type": "function"
    },
    {
      "inputs": [
        {
          "internalType": "address",
          "name": "owner",
          "type": "address"
        },
        {
          "internalType": "address",
          "name": "operator",
          "type": "address"
        }
      ],
      "name": "isApprovedForAll",
      "outputs": [
        {
          "internalType": "bool",
          "name": "",
          "type": "bool"
        }
      ],
      "stateMutability": "view",
      "type": "function"
    },
    {
      "inputs": [
        {
          "components": [
            {
              "internalType": "uint256",
              "name": "tokenId",
              "type": "uint256"
            },
            {
              "internalType": "uint256",
              "name": "minPrice",
              "type": "uint256"
            },
            {
              "internalType": "uint256",
              "name": "royalty",
              "type": "uint256"
            },
            {
              "internalType": "address",
              "name": "token",
              "type": "address"
            },
            {
              "internalType": "bool",
              "name": "isNative",
              "type": "bool"
            },
            {
              "internalType": "string",
              "name": "uri",
              "type": "string"
            },
            {
              "internalType": "bytes",
              "name": "signature",
              "type": "bytes"
            }
          ],
          "internalType": "struct NFT.NFTVoucher",
          "name": "voucher",
          "type": "tuple"
        }
      ],
      "name": "mintAndTransfer",
      "outputs": [
        {
          "internalType": "bool",
          "name": "",
          "type": "bool"
        }
      ],
      "stateMutability": "payable",
      "type": "function"
    },
    {
      "inputs": [
        {
          "components": [
            {
              "internalType": "uint256",
              "name": "tokenId",
              "type": "uint256"
            },
            {
              "internalType": "uint256",
              "name": "minPrice",
              "type": "uint256"
            },
            {
              "internalType": "uint256",
              "name": "royalty",
              "type": "uint256"
            },
            {
              "internalType": "address",
              "name": "token",
              "type": "address"
            },
            {
              "internalType": "bool",
              "name": "isNative",
              "type": "bool"
            },
            {
              "internalType": "string",
              "name": "uri",
              "type": "string"
            },
            {
              "internalType": "bytes",
              "name": "signature",
              "type": "bytes"
            }
          ],
          "internalType": "struct NFT.NFTVoucher",
          "name": "voucher",
          "type": "tuple"
        }
      ],
      "name": "mintAndTransferCustom",
      "outputs": [
        {
          "internalType": "bool",
          "name": "",
          "type": "bool"
        }
      ],
      "stateMutability": "nonpayable",
      "type": "function"
    },
    {
      "inputs": [
        {
          "components": [
            {
              "internalType": "uint256",
              "name": "tokenId",
              "type": "uint256"
            },
            {
              "internalType": "uint256",
              "name": "minPrice",
              "type": "uint256"
            },
            {
              "internalType": "uint256",
              "name": "royalty",
              "type": "uint256"
            },
            {
              "internalType": "address",
              "name": "token",
              "type": "address"
            },
            {
              "internalType": "bool",
              "name": "isNative",
              "type": "bool"
            },
            {
              "internalType": "string",
              "name": "uri",
              "type": "string"
            },
            {
              "internalType": "bytes",
              "name": "signature",
              "type": "bytes"
            }
          ],
          "internalType": "struct NFT.NFTVoucher",
          "name": "voucher",
          "type": "tuple"
        }
      ],
      "name": "mintNFT",
      "outputs": [
        {
          "internalType": "bool",
          "name": "",
          "type": "bool"
        }
      ],
      "stateMutability": "nonpayable",
      "type": "function"
    },
    {
      "inputs": [],
      "name": "name",
      "outputs": [
        {
          "internalType": "string",
          "name": "",
          "type": "string"
        }
      ],
      "stateMutability": "view",
      "type": "function"
    },
    {
      "inputs": [],
      "name": "owner",
      "outputs": [
        {
          "internalType": "address",
          "name": "",
          "type": "address"
        }
      ],
      "stateMutability": "view",
      "type": "function"
    },
    {
      "inputs": [
        {
          "internalType": "uint256",
          "name": "tokenId",
          "type": "uint256"
        }
      ],
      "name": "ownerOf",
      "outputs": [
        {
          "internalType": "address",
          "name": "",
          "type": "address"
        }
      ],
      "stateMutability": "view",
      "type": "function"
    },
    {
      "inputs": [],
      "name": "renounceOwnership",
      "outputs": [],
      "stateMutability": "nonpayable",
      "type": "function"
    },
    {
      "inputs": [
        {
          "internalType": "bytes32",
          "name": "role",
          "type": "bytes32"
        },
        {
          "internalType": "address",
          "name": "account",
          "type": "address"
        }
      ],
      "name": "renounceRole",
      "outputs": [],
      "stateMutability": "nonpayable",
      "type": "function"
    },
    {
      "inputs": [
        {
          "internalType": "bytes32",
          "name": "role",
          "type": "bytes32"
        },
        {
          "internalType": "address",
          "name": "account",
          "type": "address"
        }
      ],
      "name": "revokeRole",
      "outputs": [],
      "stateMutability": "nonpayable",
      "type": "function"
    },
    {
      "inputs": [
        {
          "internalType": "address",
          "name": "from",
          "type": "address"
        },
        {
          "internalType": "address",
          "name": "to",
          "type": "address"
        },
        {
          "internalType": "uint256",
          "name": "tokenId",
          "type": "uint256"
        }
      ],
      "name": "safeTransferFrom",
      "outputs": [],
      "stateMutability": "nonpayable",
      "type": "function"
    },
    {
      "inputs": [
        {
          "internalType": "address",
          "name": "from",
          "type": "address"
        },
        {
          "internalType": "address",
          "name": "to",
          "type": "address"
        },
        {
          "internalType": "uint256",
          "name": "tokenId",
          "type": "uint256"
        },
        {
          "internalType": "bytes",
          "name": "_data",
          "type": "bytes"
        }
      ],
      "name": "safeTransferFrom",
      "outputs": [],
      "stateMutability": "nonpayable",
      "type": "function"
    },
    {
      "inputs": [
        {
          "internalType": "address",
          "name": "operator",
          "type": "address"
        },
        {
          "internalType": "bool",
          "name": "approved",
          "type": "bool"
        }
      ],
      "name": "setApprovalForAll",
      "outputs": [],
      "stateMutability": "nonpayable",
      "type": "function"
    },
    {
      "inputs": [
        {
          "internalType": "bytes4",
          "name": "interfaceId",
          "type": "bytes4"
        }
      ],
      "name": "supportsInterface",
      "outputs": [
        {
          "internalType": "bool",
          "name": "",
          "type": "bool"
        }
      ],
      "stateMutability": "view",
      "type": "function"
    },
    {
      "inputs": [],
      "name": "symbol",
      "outputs": [
        {
          "internalType": "string",
          "name": "",
          "type": "string"
        }
      ],
      "stateMutability": "view",
      "type": "function"
    },
    {
      "inputs": [
        {
          "internalType": "uint256",
          "name": "tokenId",
          "type": "uint256"
        }
      ],
      "name": "tokenURI",
      "outputs": [
        {
          "internalType": "string",
          "name": "",
          "type": "string"
        }
      ],
      "stateMutability": "view",
      "type": "function"
    },
    {
      "inputs": [
        {
          "internalType": "address",
          "name": "from",
          "type": "address"
        },
        {
          "internalType": "address",
          "name": "to",
          "type": "address"
        },
        {
          "internalType": "uint256",
          "name": "tokenId",
          "type": "uint256"
        }
      ],
      "name": "transferFrom",
      "outputs": [],
      "stateMutability": "nonpayable",
      "type": "function"
    },
    {
      "inputs": [
        {
          "internalType": "address",
          "name": "newOwner",
          "type": "address"
        }
      ],
      "name": "transferOwnership",
      "outputs": [],
      "stateMutability": "nonpayable",
      "type": "function"
    },
    {
      "inputs": [
        {
          "components": [
            {
              "internalType": "uint256",
              "name": "itemId",
              "type": "uint256"
            },
            {
              "internalType": "address",
              "name": "nftContract",
              "type": "address"
            },
            {
              "internalType": "uint256",
              "name": "tokenId",
              "type": "uint256"
            },
            {
              "internalType": "address payable",
              "name": "seller",
              "type": "address"
            },
            {
              "internalType": "address payable",
              "name": "owner",
              "type": "address"
            },
            {
              "internalType": "uint256",
              "name": "price",
              "type": "uint256"
            },
            {
              "internalType": "bool",
              "name": "forSale",
              "type": "bool"
            },
            {
              "internalType": "uint256",
              "name": "royalty",
              "type": "uint256"
            },
            {
              "internalType": "address",
              "name": "tokenContract",
              "type": "address"
            },
            {
              "internalType": "bool",
              "name": "isNative",
              "type": "bool"
            },
            {
              "internalType": "bool",
              "name": "minted",
              "type": "bool"
            }
          ],
          "internalType": "struct NFT.MarketItem",
          "name": "item",
          "type": "tuple"
        },
        {
          "internalType": "bool",
          "name": "forSale",
          "type": "bool"
        },
        {
          "internalType": "uint256",
          "name": "price",
          "type": "uint256"
        }
      ],
      "name": "updateItem",
      "outputs": [
        {
          "internalType": "bool",
          "name": "",
          "type": "bool"
        }
      ],
      "stateMutability": "nonpayable",
      "type": "function"
    }
  ],
  "bytecode": "0x6101406040526009805460ff60a01b191690553480156200001f57600080fd5b506040516200455a3803806200455a8339810160408190526200004291620003e5565b600160008190558551849184918891889162000064919060208501906200028c565b5080516200007a9060029060208401906200028c565b5050825160208085019190912083518483012060e08290526101008190524660a0818152604080517f8b73c3c69bb8fe3d512ecc4cf759cc79239f7b179b0ffacaa9a75d522b39400f81880181905281830187905260608201869052608082019490945230818401528151808203909301835260c0019052805194019390932091935091906080523060601b60c05261012052506200012592506200011f9150503390565b62000186565b6001600160a01b038116156200016757620001617f9f2df0fed2c77648de5860a4cc508cd0818c85b8b8a1ab4ceeef8d981c8956a682620001d8565b6200017b565b6009805460ff60a01b1916600160a01b1790555b50505050506200050f565b600980546001600160a01b038381166001600160a01b0319831681179093556040519116919082907f8be0079c531659141344cd1fd0a4f28419497f9722a3daafe3b4186f6b6457e090600090a35050565b620001e48282620001e8565b5050565b60008281526008602090815260408083206001600160a01b038516845290915290205460ff16620001e45760008281526008602090815260408083206001600160a01b03851684529091529020805460ff19166001179055620002483390565b6001600160a01b0316816001600160a01b0316837f2f8788117e7eff1d82e926ec794901d17c78024a50270940304540a733656f0d60405160405180910390a45050565b8280546200029a90620004bc565b90600052602060002090601f016020900481019282620002be576000855562000309565b82601f10620002d957805160ff191683800117855562000309565b8280016001018555821562000309579182015b8281111562000309578251825591602001919060010190620002ec565b50620003179291506200031b565b5090565b5b808211156200031757600081556001016200031c565b600082601f83011262000343578081fd5b81516001600160401b0380821115620003605762000360620004f9565b604051601f8301601f19908116603f011681019082821181831017156200038b576200038b620004f9565b81604052838152602092508683858801011115620003a7578485fd5b8491505b83821015620003ca5785820183015181830184015290820190620003ab565b83821115620003db57848385830101525b9695505050505050565b600080600080600060a08688031215620003fd578081fd5b85516001600160401b038082111562000414578283fd5b6200042289838a0162000332565b9650602088015191508082111562000438578283fd5b6200044689838a0162000332565b955060408801519150808211156200045c578283fd5b6200046a89838a0162000332565b9450606088015191508082111562000480578283fd5b506200048f8882890162000332565b608088015190935090506001600160a01b0381168114620004ae578182fd5b809150509295509295909350565b600181811c90821680620004d157607f821691505b60208210811415620004f357634e487b7160e01b600052602260045260246000fd5b50919050565b634e487b7160e01b600052604160045260246000fd5b60805160a05160c05160601c60e0516101005161012051613ff862000562600039600061328e015260006132dd015260006132b80152600061320f01526000613239015260006132630152613ff86000f3fe6080604052600436106101e35760003560e01c8063715018a611610102578063b88d4fde11610095578063d547741f11610064578063d547741f14610590578063e67b9148146105b0578063e985e9c5146105c3578063f2fde38b1461060c576101e3565b8063b88d4fde14610509578063c87b56dd14610529578063d1132a7e14610549578063d53913931461055c576101e3565b80639a02079f116100d15780639a02079f14610494578063a217fddf146104b4578063a22cb465146104c9578063b51b9db3146104e9576101e3565b8063715018a61461042c5780638da5cb5b1461044157806391d148541461045f57806395d89b411461047f576101e3565b806336568abe1161017a5780635cd74d02116101495780635cd74d02146103ac57806360091f8f146103cc5780636352211e146103ec57806370a082311461040c576101e3565b806336568abe1461033957806337fa5d961461035957806342842e0e14610379578063564b81ef14610399576101e3565b80630f08efe0116101b65780630f08efe01461029957806323b872dd146102bb578063248a9ca3146102db5780632f2ff15d14610319576101e3565b806301ffc9a7146101e857806306fdde031461021d578063081812fc1461023f578063095ea7b314610277575b600080fd5b3480156101f457600080fd5b5061020861020336600461384c565b61062c565b60405190151581526020015b60405180910390f35b34801561022957600080fd5b5061023261064e565b6040516102149190613b46565b34801561024b57600080fd5b5061025f61025a366004613810565b6106e1565b6040516001600160a01b039091168152602001610214565b34801561028357600080fd5b506102976102923660046137ad565b61076e565b005b3480156102a557600080fd5b506102ae610884565b6040516102149190613a80565b3480156102c757600080fd5b506102976102d6366004613684565b610a6b565b3480156102e757600080fd5b5061030b6102f6366004613810565b60009081526008602052604090206001015490565b604051908152602001610214565b34801561032557600080fd5b50610297610334366004613828565b610a9c565b34801561034557600080fd5b50610297610354366004613828565b610ac3565b34801561036557600080fd5b50610208610374366004613896565b610b41565b34801561038557600080fd5b50610297610394366004613684565b610fba565b3480156103a557600080fd5b504661030b565b3480156103b857600080fd5b506102086103c73660046135ec565b610fd5565b3480156103d857600080fd5b506102086103e73660046138b2565b6111b0565b3480156103f857600080fd5b5061025f610407366004613810565b61131b565b34801561041857600080fd5b5061030b6104273660046135d0565b611392565b34801561043857600080fd5b50610297611419565b34801561044d57600080fd5b506009546001600160a01b031661025f565b34801561046b57600080fd5b5061020861047a366004613828565b61147f565b34801561048b57600080fd5b506102326114aa565b3480156104a057600080fd5b506102086104af3660046138f4565b6114b9565b3480156104c057600080fd5b5061030b600081565b3480156104d557600080fd5b506102976104e4366004613780565b61152e565b3480156104f557600080fd5b506102086105043660046138f4565b611539565b34801561051557600080fd5b506102976105243660046136c4565b611672565b34801561053557600080fd5b50610232610544366004613810565b6116aa565b610208610557366004613884565b611822565b34801561056857600080fd5b5061030b7f9f2df0fed2c77648de5860a4cc508cd0818c85b8b8a1ab4ceeef8d981c8956a681565b34801561059c57600080fd5b506102976105ab366004613828565b611aaa565b6102086105be3660046138f4565b611ad0565b3480156105cf57600080fd5b506102086105de36600461364c565b6001600160a01b03918216600090815260066020908152604080832093909416825291909152205460ff1690565b34801561061857600080fd5b506102976106273660046135d0565b611b7c565b600061063782611c47565b80610646575061064682611c97565b90505b919050565b60606001805461065d90613ee3565b80601f016020809104026020016040519081016040528092919081815260200182805461068990613ee3565b80156106d65780601f106106ab576101008083540402835291602001916106d6565b820191906000526020600020905b8154815290600101906020018083116106b957829003601f168201915b505050505090505b90565b60006106ec82611cbc565b6107525760405162461bcd60e51b815260206004820152602c60248201527f4552433732313a20617070726f76656420717565727920666f72206e6f6e657860448201526b34b9ba32b73a103a37b5b2b760a11b60648201526084015b60405180910390fd5b506000908152600560205260409020546001600160a01b031690565b60006107798261131b565b9050806001600160a01b0316836001600160a01b031614156107e75760405162461bcd60e51b815260206004820152602160248201527f4552433732313a20617070726f76616c20746f2063757272656e74206f776e656044820152603960f91b6064820152608401610749565b336001600160a01b0382161480610803575061080381336105de565b6108755760405162461bcd60e51b815260206004820152603860248201527f4552433732313a20617070726f76652063616c6c6572206973206e6f74206f7760448201527f6e6572206e6f7220617070726f76656420666f7220616c6c00000000000000006064820152608401610749565b61087f8383611cd9565b505050565b60606000610891600a5490565b90506000808267ffffffffffffffff8111156108bd57634e487b7160e01b600052604160045260246000fd5b60405190808252806020026020018201604052801561094457816020015b604080516101608101825260008082526020808301829052928201819052606082018190526080820181905260a0820181905260c0820181905260e082018190526101008201819052610120820181905261014082015282526000199092019101816108db5790505b50905060005b83811015610a6357600061095f826001613d33565b6000818152600b60209081526040918290208251610160810184528154815260018201546001600160a01b0390811693820193909352600282015493810193909352600381015482166060840152600481015482166080840152600581015460a0840152600681015460ff908116151560c0850152600782015460e08501526008820154928316610100850152600160a01b830481161515610120850152600160a81b9092049091161515610140830152855192935091859087908110610a3657634e487b7160e01b600052603260045260246000fd5b6020908102919091010152610a4c600186613d33565b945050508080610a5b90613f18565b91505061094a565b509250505090565b610a753382611d47565b610a915760405162461bcd60e51b815260040161074990613bfe565b61087f838383611e2d565b600082815260086020526040902060010154610ab981335b611fcd565b61087f8383612031565b6001600160a01b0381163314610b335760405162461bcd60e51b815260206004820152602f60248201527f416363657373436f6e74726f6c3a2063616e206f6e6c792072656e6f756e636560448201526e103937b632b9903337b91039b2b63360891b6064820152608401610749565b610b3d82826120b7565b5050565b600060026000541415610b665760405162461bcd60e51b815260040161074990613c4f565b600260005560a0820151610b8c5760405162461bcd60e51b815260040161074990613c86565b81516000908152600b602052604090206005015460a083015114610bc25760405162461bcd60e51b815260040161074990613b59565b81516000908152600b60205260409020600681015460ff161515600114610c1a5760405162461bcd60e51b815260206004820152600c60248201526b4e6f7420666f722073616c6560a01b6044820152606401610749565b600073d31c54efd3a4b5e6a993aaa4618d3700a12ff75290506000610c42836002015461131b565b60048401546008850154600586015460078701549394506001600160a01b039283169392909116916000610c7783600361211e565b90506000610c85848461211e565b90506000610c9d85610c98866061613e89565b61211e565b604051636eb1769f60e11b8152336004820152306024820152909150869086906001600160a01b0383169063dd62ed3e9060440160206040518083038186803b158015610ce957600080fd5b505afa158015610cfd573d6000803e3d6000fd5b505050506040513d601f19601f82011682018060405250810190610d219190613927565b1015610d685760405162461bcd60e51b8152602060048201526016602482015275496e73756666696369656e7420416c6c6f77616e636560501b6044820152606401610749565b6040516323b872dd60e01b81526001600160a01b038216906323b872dd90610d989033908d908790600401613a1f565b602060405180830381600087803b158015610db257600080fd5b505af1158015610dc6573d6000803e3d6000fd5b505050506040513d601f19601f82011682018060405250810190610dea91906137f4565b610e065760405162461bcd60e51b815260040161074990613bd5565b6040516323b872dd60e01b81526001600160a01b038216906323b872dd90610e369033908c908890600401613a1f565b602060405180830381600087803b158015610e5057600080fd5b505af1158015610e64573d6000803e3d6000fd5b505050506040513d601f19601f82011682018060405250810190610e8891906137f4565b610ea45760405162461bcd60e51b815260040161074990613bd5565b6040516323b872dd60e01b81526001600160a01b038216906323b872dd90610ed49033908e908990600401613a1f565b602060405180830381600087803b158015610eee57600080fd5b505af1158015610f02573d6000803e3d6000fd5b505050506040513d601f19601f82011682018060405250810190610f2691906137f4565b610f425760405162461bcd60e51b815260040161074990613bd5565b60028b015460405133906001600160a01b038c16908990600090a4610f6c89338d60020154611e2d565b50508a516000908152600b602052604080822060030180546001600160a01b031916331790558c5182529020600601805460ff19169055506001985050505050505050506001600055919050565b61087f83838360405180602001604052806000815250611672565b600080826020013511610ffa5760405162461bcd60e51b815260040161074990613c86565b611008600a80546001019055565b6000611013600a5490565b9050604051806101600160405280828152602001306001600160a01b0316815260200184600001358152602001856001600160a01b03168152602001866001600160a01b03168152602001846020013581526020016000151581526020018460400135815260200184606001602081019061108e91906135d0565b6001600160a01b031681526020016110ac60a08601608087016137d8565b15158152600160209182018190526000938452600b8252604093849020835181559183015182820180546001600160a01b03199081166001600160a01b03938416179091559484015160028401556060840151600384018054871691831691909117905560808401516004840180549096169082161790945560a0830151600583015560c083015160068301805460ff191691151591909117905560e083015160078301556101008301516008909201805461012085015161014090950151939095166001600160a81b031990951694909417600160a01b931515939093029290921760ff60a81b1916600160a81b911515919091021790915590505b9392505050565b82516000908152600b602052604080822060020154908501511461120b5760405162461bcd60e51b81526020600482015260126024820152710e8ded6cadc92c840daeae6e840dac2e8c6d60731b6044820152606401610749565b83516000908152600b60205260408120600201546112289061131b565b9050336001600160a01b038216146112825760405162461bcd60e51b815260206004820152601860248201527f73656e646572206e6f742070726f7065722073656c6c657200000000000000006044820152606401610749565b600083116112a25760405162461bcd60e51b815260040161074990613c86565b84516000908152600b602052604080822060050185905586518252808220600601805460ff191687151590811790915587518352912060030180546001600160a01b0319166001600160a01b0384161790556001141561131057604080860151905133908590600190600090a45b506001949350505050565b6000818152600360205260408120546001600160a01b0316806106465760405162461bcd60e51b815260206004820152602960248201527f4552433732313a206f776e657220717565727920666f72206e6f6e657869737460448201526832b73a103a37b5b2b760b91b6064820152608401610749565b60006001600160a01b0382166113fd5760405162461bcd60e51b815260206004820152602a60248201527f4552433732313a2062616c616e636520717565727920666f7220746865207a65604482015269726f206164647265737360b01b6064820152608401610749565b506001600160a01b031660009081526004602052604090205490565b6009546001600160a01b031633146114735760405162461bcd60e51b815260206004820181905260248201527f4f776e61626c653a2063616c6c6572206973206e6f7420746865206f776e65726044820152606401610749565b61147d6000612163565b565b60009182526008602090815260408084206001600160a01b0393909316845291905290205460ff1690565b60606002805461065d90613ee3565b6000600260005414156114de5760405162461bcd60e51b815260040161074990613c4f565b600260005560208201356115045760405162461bcd60e51b815260040161074990613c86565b6000611515338460200135856121b5565b9050611522813385610fd5565b60016000559392505050565b610b3d338383612645565b600954600090600160a01b900460ff166115c3576115777f9f2df0fed2c77648de5860a4cc508cd0818c85b8b8a1ab4ceeef8d981c8956a63361147f565b6115c35760405162461bcd60e51b815260206004820152601760248201527f696e76616c6964206f7220756e617574686f72697a65640000000000000000006044820152606401610749565b60008260200135116115e75760405162461bcd60e51b815260040161074990613c86565b6115f2338335612714565b61163e823561160460a0850185613cbd565b8080601f01602080910402602001604051908101604052809392919081815260200183838082843760009201919091525061284792505050565b600061164b333385610fd5565b90508015611669576040518335903390602086013590600190600090a45b50600192915050565b61167c3383611d47565b6116985760405162461bcd60e51b815260040161074990613bfe565b6116a4848484846128d2565b50505050565b60606116b582611cbc565b61171b5760405162461bcd60e51b815260206004820152603160248201527f45524337323155524953746f726167653a2055524920717565727920666f72206044820152703737b732bc34b9ba32b73a103a37b5b2b760791b6064820152608401610749565b6000828152600760205260408120805461173490613ee3565b80601f016020809104026020016040519081016040528092919081815260200182805461176090613ee3565b80156117ad5780601f10611782576101008083540402835291602001916117ad565b820191906000526020600020905b81548152906001019060200180831161179057829003601f168201915b5050505050905060006117cb60408051602081019091526000815290565b90508051600014156117df57509050610649565b8151156118115780826040516020016117f992919061397b565b60405160208183030381529060405292505050610649565b61181a84612905565b949350505050565b6000600260005414156118475760405162461bcd60e51b815260040161074990613c4f565b600260005560a082013561186d5760405162461bcd60e51b815260040161074990613c86565b8160a0013534146118905760405162461bcd60e51b815260040161074990613b59565b81356000908152600b602052604090206005015460a0830135146118c65760405162461bcd60e51b815260040161074990613b59565b81356000908152600b60205260409020600681015460ff16151560011461191e5760405162461bcd60e51b815260206004820152600c60248201526b4e6f7420666f722073616c6560a01b6044820152606401610749565b600073d31c54efd3a4b5e6a993aaa4618d3700a12ff75290506000611946836002015461131b565b6004840154600585015460078601549293506001600160a01b0390911691600061197183600361211e565b9050600061197f848461211e565b9050600061199285610c98866061613e89565b6040519091506001600160a01b0388169082156108fc029083906000818181858888f193505050501580156119cb573d6000803e3d6000fd5b506040516001600160a01b0387169083156108fc029084906000818181858888f19350505050158015611a02573d6000803e3d6000fd5b506040516001600160a01b0389169084156108fc029085906000818181858888f19350505050158015611a39573d6000803e3d6000fd5b50600289015460405133906001600160a01b038a16908890600090a4611a6487338b60020154611e2d565b50505087356000908152600b602052604090206003810180546001600160a01b03191633179055600601805460ff19169055506001955050505050506001600055919050565b600082815260086020526040902060010154611ac68133610ab4565b61087f83836120b7565b600060026000541415611af55760405162461bcd60e51b815260040161074990613c4f565b60026000556020820135611b1b5760405162461bcd60e51b815260040161074990613c86565b8160200135341015611b6f5760405162461bcd60e51b815260206004820152601c60248201527f496e73756666696369656e742066756e647320746f2072656465656d000000006044820152606401610749565b60006115153334856121b5565b6009546001600160a01b03163314611bd65760405162461bcd60e51b815260206004820181905260248201527f4f776e61626c653a2063616c6c6572206973206e6f7420746865206f776e65726044820152606401610749565b6001600160a01b038116611c3b5760405162461bcd60e51b815260206004820152602660248201527f4f776e61626c653a206e6577206f776e657220697320746865207a65726f206160448201526564647265737360d01b6064820152608401610749565b611c4481612163565b50565b60006001600160e01b031982166380ac58cd60e01b1480611c7857506001600160e01b03198216635b5e139f60e01b145b8061064657506301ffc9a760e01b6001600160e01b0319831614610646565b60006001600160e01b03198216637965db0b60e01b1480610646575061064682611c47565b6000908152600360205260409020546001600160a01b0316151590565b600081815260056020526040902080546001600160a01b0319166001600160a01b0384169081179091558190611d0e8261131b565b6001600160a01b03167f8c5be1e5ebec7d5bd14f71427d1e84f3dd0314c0f7b2291e5b200ac8c7c3b92560405160405180910390a45050565b6000611d5282611cbc565b611db35760405162461bcd60e51b815260206004820152602c60248201527f4552433732313a206f70657261746f7220717565727920666f72206e6f6e657860448201526b34b9ba32b73a103a37b5b2b760a11b6064820152608401610749565b6000611dbe8361131b565b9050806001600160a01b0316846001600160a01b03161480611df95750836001600160a01b0316611dee846106e1565b6001600160a01b0316145b8061181a57506001600160a01b0380821660009081526006602090815260408083209388168352929052205460ff1661181a565b826001600160a01b0316611e408261131b565b6001600160a01b031614611ea85760405162461bcd60e51b815260206004820152602960248201527f4552433732313a207472616e73666572206f6620746f6b656e2074686174206960448201526839903737ba1037bbb760b91b6064820152608401610749565b6001600160a01b038216611f0a5760405162461bcd60e51b8152602060048201526024808201527f4552433732313a207472616e7366657220746f20746865207a65726f206164646044820152637265737360e01b6064820152608401610749565b611f15600082611cd9565b6001600160a01b0383166000908152600460205260408120805460019290611f3e908490613e89565b90915550506001600160a01b0382166000908152600460205260408120805460019290611f6c908490613d33565b909155505060008181526003602052604080822080546001600160a01b0319166001600160a01b0386811691821790925591518493918716917fddf252ad1be2c89b69c2b068fc378daa952ba7f163c4a11628f55a4df523b3ef91a4505050565b611fd7828261147f565b610b3d57611fef816001600160a01b031660146129dc565b611ffa8360206129dc565b60405160200161200b9291906139aa565b60408051601f198184030181529082905262461bcd60e51b825261074991600401613b46565b61203b828261147f565b610b3d5760008281526008602090815260408083206001600160a01b03851684529091529020805460ff191660011790556120733390565b6001600160a01b0316816001600160a01b0316837f2f8788117e7eff1d82e926ec794901d17c78024a50270940304540a733656f0d60405160405180910390a45050565b6120c1828261147f565b15610b3d5760008281526008602090815260408083206001600160a01b0385168085529252808320805460ff1916905551339285917ff6391f5c32d9c69d2a47ea670b442974b53935d1edc7fd64eb21e047a839171b9190a45050565b60008061214c6121306002600a613d9c565b61213b906064613e6a565b612146866064612bbe565b90612bca565b9050600061215a8285612bbe565b95945050505050565b600980546001600160a01b038381166001600160a01b0319831681179093556040519116919082907f8be0079c531659141344cd1fd0a4f28419497f9722a3daafe3b4186f6b6457e090600090a35050565b6000808260200135116121da5760405162461bcd60e51b815260040161074990613c86565b816020013583101561222e5760405162461bcd60e51b815260206004820152601c60248201527f496e73756666696369656e742066756e647320746f2072656465656d000000006044820152606401610749565b73d31c54efd3a4b5e6a993aaa4618d3700a12ff752600061224e84612bd6565b600954909150600160a01b900460ff166122e25761228c7f9f2df0fed2c77648de5860a4cc508cd0818c85b8b8a1ab4ceeef8d981c8956a68261147f565b6122e25760405162461bcd60e51b815260206004820152602160248201527f5369676e617475726520696e76616c6964206f7220756e617574686f72697a656044820152601960fa1b6064820152608401610749565b6122ed818535612714565b6122ff843561160460a0870187613cbd565b6040518435906001600160a01b038316908790600190600090a4600061232a8560200135606161211e565b9050600061233d8660200135600361211e565b905061234f60a08701608088016137d8565b806123725750600061236760808801606089016135d0565b6001600160a01b0316145b156123ea576040516001600160a01b0384169083156108fc029084906000818181858888f193505050501580156123ad573d6000803e3d6000fd5b506040516001600160a01b0385169082156108fc029083906000818181858888f193505050501580156123e4573d6000803e3d6000fd5b5061260d565b60006123fc60808801606089016135d0565b604051636eb1769f60e11b81526001600160a01b038b8116600483015230602483015291925060208901359183169063dd62ed3e9060440160206040518083038186803b15801561244c57600080fd5b505afa158015612460573d6000803e3d6000fd5b505050506040513d601f19601f820116820180604052508101906124849190613927565b106125ca576040516323b872dd60e01b81526001600160a01b038216906323b872dd906124b9908c9088908890600401613a1f565b602060405180830381600087803b1580156124d357600080fd5b505af11580156124e7573d6000803e3d6000fd5b505050506040513d601f19601f8201168201806040525081019061250b91906137f4565b6125275760405162461bcd60e51b815260040161074990613bd5565b6040516323b872dd60e01b81526001600160a01b038216906323b872dd90612557908c9089908790600401613a1f565b602060405180830381600087803b15801561257157600080fd5b505af1158015612585573d6000803e3d6000fd5b505050506040513d601f19601f820116820180604052508101906125a991906137f4565b6125c55760405162461bcd60e51b815260040161074990613bd5565b61260b565b60405162461bcd60e51b8152602060048201526016602482015275496e73756666696369656e7420416c6c6f77616e636560501b6044820152606401610749565b505b6040518635906001600160a01b03808b16919086169060208a013590600090a461263983898835611e2d565b50909695505050505050565b816001600160a01b0316836001600160a01b031614156126a75760405162461bcd60e51b815260206004820152601960248201527f4552433732313a20617070726f766520746f2063616c6c6572000000000000006044820152606401610749565b6001600160a01b03838116600081815260066020908152604080832094871680845294825291829020805460ff191686151590811790915591519182527f17307eab39ab6107e8899845ad3d59bd9653f200f220920489ca2b5937696c31910160405180910390a3505050565b6001600160a01b03821661276a5760405162461bcd60e51b815260206004820181905260248201527f4552433732313a206d696e7420746f20746865207a65726f20616464726573736044820152606401610749565b61277381611cbc565b156127c05760405162461bcd60e51b815260206004820152601c60248201527f4552433732313a20746f6b656e20616c7265616479206d696e746564000000006044820152606401610749565b6001600160a01b03821660009081526004602052604081208054600192906127e9908490613d33565b909155505060008181526003602052604080822080546001600160a01b0319166001600160a01b03861690811790915590518392907fddf252ad1be2c89b69c2b068fc378daa952ba7f163c4a11628f55a4df523b3ef908290a45050565b61285082611cbc565b6128b35760405162461bcd60e51b815260206004820152602e60248201527f45524337323155524953746f726167653a2055524920736574206f66206e6f6e60448201526d32bc34b9ba32b73a103a37b5b2b760911b6064820152608401610749565b6000828152600760209081526040909120825161087f92840190613449565b6128dd848484611e2d565b6128e984848484612c2f565b6116a45760405162461bcd60e51b815260040161074990613b83565b606061291082611cbc565b6129745760405162461bcd60e51b815260206004820152602f60248201527f4552433732314d657461646174613a2055524920717565727920666f72206e6f60448201526e3732bc34b9ba32b73a103a37b5b2b760891b6064820152608401610749565b600061298b60408051602081019091526000815290565b905060008151116129ab57604051806020016040528060008152506111a9565b806129b584612d31565b6040516020016129c692919061397b565b6040516020818303038152906040529392505050565b606060006129eb836002613e6a565b6129f6906002613d33565b67ffffffffffffffff811115612a1c57634e487b7160e01b600052604160045260246000fd5b6040519080825280601f01601f191660200182016040528015612a46576020820181803683370190505b509050600360fc1b81600081518110612a6f57634e487b7160e01b600052603260045260246000fd5b60200101906001600160f81b031916908160001a905350600f60fb1b81600181518110612aac57634e487b7160e01b600052603260045260246000fd5b60200101906001600160f81b031916908160001a9053506000612ad0846002613e6a565b612adb906001613d33565b90505b6001811115612b6f576f181899199a1a9b1b9c1cb0b131b232b360811b85600f1660108110612b1d57634e487b7160e01b600052603260045260246000fd5b1a60f81b828281518110612b4157634e487b7160e01b600052603260045260246000fd5b60200101906001600160f81b031916908160001a90535060049490941c93612b6881613ecc565b9050612ade565b5083156111a95760405162461bcd60e51b815260206004820181905260248201527f537472696e67733a20686578206c656e67746820696e73756666696369656e746044820152606401610749565b60006111a98284613e6a565b60006111a98284613d4b565b600080612be283612e4c565b90506111a981612bf560c0860186613cbd565b8080601f016020809104026020016040519081016040528093929190818152602001838380828437600092019190915250612f1d92505050565b60006001600160a01b0384163b1561131057604051630a85bd0160e11b81526001600160a01b0385169063150b7a0290612c73903390899088908890600401613a43565b602060405180830381600087803b158015612c8d57600080fd5b505af1925050508015612cbd575060408051601f3d908101601f19168201909252612cba91810190613868565b60015b612d17573d808015612ceb576040519150601f19603f3d011682016040523d82523d6000602084013e612cf0565b606091505b508051612d0f5760405162461bcd60e51b815260040161074990613b83565b805181602001fd5b6001600160e01b031916630a85bd0160e11b14905061181a565b606081612d5657506040805180820190915260018152600360fc1b6020820152610649565b8160005b8115612d805780612d6a81613f18565b9150612d799050600a83613d4b565b9150612d5a565b60008167ffffffffffffffff811115612da957634e487b7160e01b600052604160045260246000fd5b6040519080825280601f01601f191660200182016040528015612dd3576020820181803683370190505b5090505b841561181a57612de8600183613e89565b9150612df5600a86613f33565b612e00906030613d33565b60f81b818381518110612e2357634e487b7160e01b600052603260045260246000fd5b60200101906001600160f81b031916908160001a905350612e45600a86613d4b565b9450612dd7565b60006106467f66a9f3ee8886973761b2ebb7846666307aadbd0f7882fe4a4800bdd66b397130833560208501356040860135612e8e60808801606089016135d0565b612e9e60a0890160808a016137d8565b612eab60a08a018a613cbd565b604051612eb992919061396b565b604080519182900382206020830198909852810195909552606085019390935260808401919091526001600160a01b031660a0830152151560c082015260e08101919091526101000160405160208183030381529060405280519060200120612f41565b6000806000612f2c8585612f8f565b91509150612f3981612fff565b509392505050565b6000610646612f4e613202565b8360405161190160f01b6020820152602281018390526042810182905260009060620160405160208183030381529060405280519060200120905092915050565b600080825160411415612fc65760208301516040840151606085015160001a612fba8782858561332d565b94509450505050612ff8565b825160401415612ff05760208301516040840151612fe586838361341a565b935093505050612ff8565b506000905060025b9250929050565b600081600481111561302157634e487b7160e01b600052602160045260246000fd5b141561302c57611c44565b600181600481111561304e57634e487b7160e01b600052602160045260246000fd5b141561309c5760405162461bcd60e51b815260206004820152601860248201527f45434453413a20696e76616c6964207369676e617475726500000000000000006044820152606401610749565b60028160048111156130be57634e487b7160e01b600052602160045260246000fd5b141561310c5760405162461bcd60e51b815260206004820152601f60248201527f45434453413a20696e76616c6964207369676e6174757265206c656e677468006044820152606401610749565b600381600481111561312e57634e487b7160e01b600052602160045260246000fd5b14156131875760405162461bcd60e51b815260206004820152602260248201527f45434453413a20696e76616c6964207369676e6174757265202773272076616c604482015261756560f01b6064820152608401610749565b60048160048111156131a957634e487b7160e01b600052602160045260246000fd5b1415611c445760405162461bcd60e51b815260206004820152602260248201527f45434453413a20696e76616c6964207369676e6174757265202776272076616c604482015261756560f01b6064820152608401610749565b6000306001600160a01b037f00000000000000000000000000000000000000000000000000000000000000001614801561325b57507f000000000000000000000000000000000000000000000000000000000000000046145b1561328757507f00000000000000000000000000000000000000000000000000000000000000006106de565b50604080517f00000000000000000000000000000000000000000000000000000000000000006020808301919091527f0000000000000000000000000000000000000000000000000000000000000000828401527f000000000000000000000000000000000000000000000000000000000000000060608301524660808301523060a0808401919091528351808403909101815260c090920190925280519101206106de565b6000807f7fffffffffffffffffffffffffffffff5d576e7357a4501ddfe92f46681b20a08311156133645750600090506003613411565b8460ff16601b1415801561337c57508460ff16601c14155b1561338d5750600090506004613411565b6040805160008082526020820180845289905260ff881692820192909252606081018690526080810185905260019060a0016020604051602081039080840390855afa1580156133e1573d6000803e3d6000fd5b5050604051601f1901519150506001600160a01b03811661340a57600060019250925050613411565b9150600090505b94509492505050565b6000806001600160ff1b03831660ff84901c601b0161343b8782888561332d565b935093505050935093915050565b82805461345590613ee3565b90600052602060002090601f01602090048101928261347757600085556134bd565b82601f1061349057805160ff19168380011785556134bd565b828001600101855582156134bd579182015b828111156134bd5782518255916020019190600101906134a2565b506134c99291506134cd565b5090565b5b808211156134c957600081556001016134ce565b803561064981613f89565b803561064981613f9e565b600061016080838503121561350b578182fd5b61351481613d02565b91505081358152613527602083016134e2565b602082015260408201356040820152613542606083016134e2565b6060820152613553608083016134e2565b608082015260a082013560a082015261356e60c083016134ed565b60c082015260e082013560e082015261010061358b8184016134e2565b9082015261012061359d8382016134ed565b908201526101406135af8382016134ed565b9082015292915050565b600060e082840312156135ca578081fd5b50919050565b6000602082840312156135e1578081fd5b81356111a981613f89565b600080600060608486031215613600578182fd5b833561360b81613f89565b9250602084013561361b81613f89565b9150604084013567ffffffffffffffff811115613636578182fd5b613642868287016135b9565b9150509250925092565b6000806040838503121561365e578182fd5b823561366981613f89565b9150602083013561367981613f89565b809150509250929050565b600080600060608486031215613698578283fd5b83356136a381613f89565b925060208401356136b381613f89565b929592945050506040919091013590565b600080600080608085870312156136d9578081fd5b84356136e481613f89565b93506020858101356136f581613f89565b935060408601359250606086013567ffffffffffffffff80821115613718578384fd5b818801915088601f83011261372b578384fd5b81358181111561373d5761373d613f73565b61374f601f8201601f19168501613d02565b91508082528984828501011115613764578485fd5b8084840185840137810190920192909252939692955090935050565b60008060408385031215613792578182fd5b823561379d81613f89565b9150602083013561367981613f9e565b600080604083850312156137bf578182fd5b82356137ca81613f89565b946020939093013593505050565b6000602082840312156137e9578081fd5b81356111a981613f9e565b600060208284031215613805578081fd5b81516111a981613f9e565b600060208284031215613821578081fd5b5035919050565b6000806040838503121561383a578182fd5b82359150602083013561367981613f89565b60006020828403121561385d578081fd5b81356111a981613fac565b600060208284031215613879578081fd5b81516111a981613fac565b600061016082840312156135ca578081fd5b600061016082840312156138a8578081fd5b6111a983836134f8565b60008060006101a084860312156138c7578081fd5b6138d185856134f8565b92506101608401356138e281613f9e565b92959294505050610180919091013590565b600060208284031215613905578081fd5b813567ffffffffffffffff81111561391b578182fd5b61181a848285016135b9565b600060208284031215613938578081fd5b5051919050565b60008151808452613957816020860160208601613ea0565b601f01601f19169290920160200192915050565b6000828483379101908152919050565b6000835161398d818460208801613ea0565b8351908301906139a1818360208801613ea0565b01949350505050565b60007f416363657373436f6e74726f6c3a206163636f756e7420000000000000000000825283516139e2816017850160208801613ea0565b7001034b99036b4b9b9b4b733903937b6329607d1b6017918401918201528351613a13816028840160208801613ea0565b01602801949350505050565b6001600160a01b039384168152919092166020820152604081019190915260600190565b6001600160a01b0385811682528416602082015260408101839052608060608201819052600090613a769083018461393f565b9695505050505050565b602080825282518282018190526000919060409081850190868401855b82811015613b3957815180518552868101516001600160a01b0390811688870152868201518787015260608083015182169087015260808083015182169087015260a0808301519087015260c08083015115159087015260e08083015190870152610100808301519091169086015261012080820151151590860152610140908101511515908501526101609093019290850190600101613a9d565b5091979650505050505050565b6000602082526111a9602083018461393f565b60208082526010908201526f0a0e4d2c6ca40daeae6e840dac2e8c6d60831b604082015260600190565b60208082526032908201527f4552433732313a207472616e7366657220746f206e6f6e20455243373231526560408201527131b2b4bb32b91034b6b83632b6b2b73a32b960711b606082015260800190565b6020808252600f908201526e1d1c985b9cd9995c8811985a5b1959608a1b604082015260600190565b60208082526031908201527f4552433732313a207472616e736665722063616c6c6572206973206e6f74206f6040820152701ddb995c881b9bdc88185c1c1c9bdd9959607a1b606082015260800190565b6020808252601f908201527f5265656e7472616e637947756172643a207265656e7472616e742063616c6c00604082015260600190565b6020808252601c908201527f5072696365206d757374206265206174206c6561737420312077656900000000604082015260600190565b6000808335601e19843603018112613cd3578283fd5b83018035915067ffffffffffffffff821115613ced578283fd5b602001915036819003821315612ff857600080fd5b604051601f8201601f1916810167ffffffffffffffff81118282101715613d2b57613d2b613f73565b604052919050565b60008219821115613d4657613d46613f47565b500190565b600082613d5a57613d5a613f5d565b500490565b80825b6001808611613d715750613411565b818704821115613d8357613d83613f47565b80861615613d9057918102915b9490941c938002613d62565b60006111a96000198484600082613db5575060016111a9565b81613dc2575060006111a9565b8160018114613dd85760028114613de257613e0f565b60019150506111a9565b60ff841115613df357613df3613f47565b6001841b915084821115613e0957613e09613f47565b506111a9565b5060208310610133831016604e8410600b8410161715613e42575081810a83811115613e3d57613e3d613f47565b6111a9565b613e4f8484846001613d5f565b808604821115613e6157613e61613f47565b02949350505050565b6000816000190483118215151615613e8457613e84613f47565b500290565b600082821015613e9b57613e9b613f47565b500390565b60005b83811015613ebb578181015183820152602001613ea3565b838111156116a45750506000910152565b600081613edb57613edb613f47565b506000190190565b600181811c90821680613ef757607f821691505b602082108114156135ca57634e487b7160e01b600052602260045260246000fd5b6000600019821415613f2c57613f2c613f47565b5060010190565b600082613f4257613f42613f5d565b500690565b634e487b7160e01b600052601160045260246000fd5b634e487b7160e01b600052601260045260246000fd5b634e487b7160e01b600052604160045260246000fd5b6001600160a01b0381168114611c4457600080fd5b8015158114611c4457600080fd5b6001600160e01b031981168114611c4457600080fdfea2646970667358221220c495a0f20d6cb2af471450be60437fc578fa915189b31983149b240b63817bc164736f6c63430008030033",
  "linkReferences": {},
  "deployedLinkReferences": {}
}