{
  "_format": "hh-sol-artifact-1",
  "contractName": "NFT",
  "sourceName": "contracts/Market.sol",
  "abi": [
    {
      "inputs": [
        {
          "internalType": "string",
          "name": "tknName",
          "type": "string"
        },
        {
          "internalType": "string",
          "name": "tknSymbol",
          "type": "string"
        },
        {
          "internalType": "string",
          "name": "domain",
          "type": "string"
        },
        {
          "internalType": "string",
          "name": "version",
          "type": "string"
        },
        {
          "internalType": "address",
          "name": "minter",
          "type": "address"
        }
      ],
      "stateMutability": "nonpayable",
      "type": "constructor"
    },
    {
      "anonymous": false,
      "inputs": [
        {
          "indexed": true,
          "internalType": "address",
          "name": "owner",
          "type": "address"
        },
        {
          "indexed": true,
          "internalType": "address",
          "name": "approved",
          "type": "address"
        },
        {
          "indexed": true,
          "internalType": "uint256",
          "name": "tokenId",
          "type": "uint256"
        }
      ],
      "name": "Approval",
      "type": "event"
    },
    {
      "anonymous": false,
      "inputs": [
        {
          "indexed": true,
          "internalType": "address",
          "name": "owner",
          "type": "address"
        },
        {
          "indexed": true,
          "internalType": "address",
          "name": "operator",
          "type": "address"
        },
        {
          "indexed": false,
          "internalType": "bool",
          "name": "approved",
          "type": "bool"
        }
      ],
      "name": "ApprovalForAll",
      "type": "event"
    },
    {
      "anonymous": true,
      "inputs": [
        {
          "indexed": true,
          "internalType": "bool",
          "name": "listed",
          "type": "bool"
        },
        {
          "indexed": true,
          "internalType": "uint256",
          "name": "price",
          "type": "uint256"
        },
        {
          "indexed": true,
          "internalType": "address",
          "name": "from",
          "type": "address"
        },
        {
          "indexed": true,
          "internalType": "uint256",
          "name": "tokenId",
          "type": "uint256"
        }
      ],
      "name": "ListedNFT",
      "type": "event"
    },
    {
      "anonymous": false,
      "inputs": [
        {
          "indexed": true,
          "internalType": "address",
          "name": "previousOwner",
          "type": "address"
        },
        {
          "indexed": true,
          "internalType": "address",
          "name": "newOwner",
          "type": "address"
        }
      ],
      "name": "OwnershipTransferred",
      "type": "event"
    },
    {
      "anonymous": false,
      "inputs": [
        {
          "indexed": true,
          "internalType": "bytes32",
          "name": "role",
          "type": "bytes32"
        },
        {
          "indexed": true,
          "internalType": "bytes32",
          "name": "previousAdminRole",
          "type": "bytes32"
        },
        {
          "indexed": true,
          "internalType": "bytes32",
          "name": "newAdminRole",
          "type": "bytes32"
        }
      ],
      "name": "RoleAdminChanged",
      "type": "event"
    },
    {
      "anonymous": false,
      "inputs": [
        {
          "indexed": true,
          "internalType": "bytes32",
          "name": "role",
          "type": "bytes32"
        },
        {
          "indexed": true,
          "internalType": "address",
          "name": "account",
          "type": "address"
        },
        {
          "indexed": true,
          "internalType": "address",
          "name": "sender",
          "type": "address"
        }
      ],
      "name": "RoleGranted",
      "type": "event"
    },
    {
      "anonymous": false,
      "inputs": [
        {
          "indexed": true,
          "internalType": "bytes32",
          "name": "role",
          "type": "bytes32"
        },
        {
          "indexed": true,
          "internalType": "address",
          "name": "account",
          "type": "address"
        },
        {
          "indexed": true,
          "internalType": "address",
          "name": "sender",
          "type": "address"
        }
      ],
      "name": "RoleRevoked",
      "type": "event"
    },
    {
      "anonymous": true,
      "inputs": [
        {
          "indexed": true,
          "internalType": "uint256",
          "name": "price",
          "type": "uint256"
        },
        {
          "indexed": true,
          "internalType": "address",
          "name": "from",
          "type": "address"
        },
        {
          "indexed": true,
          "internalType": "address",
          "name": "to",
          "type": "address"
        },
        {
          "indexed": true,
          "internalType": "uint256",
          "name": "tokenId",
          "type": "uint256"
        }
      ],
      "name": "Sale",
      "type": "event"
    },
    {
      "anonymous": false,
      "inputs": [
        {
          "indexed": true,
          "internalType": "address",
          "name": "from",
          "type": "address"
        },
        {
          "indexed": true,
          "internalType": "address",
          "name": "to",
          "type": "address"
        },
        {
          "indexed": true,
          "internalType": "uint256",
          "name": "tokenId",
          "type": "uint256"
        }
      ],
      "name": "Transfer",
      "type": "event"
    },
    {
      "inputs": [],
      "name": "DEFAULT_ADMIN_ROLE",
      "outputs": [
        {
          "internalType": "bytes32",
          "name": "",
          "type": "bytes32"
        }
      ],
      "stateMutability": "view",
      "type": "function"
    },
    {
      "inputs": [],
      "name": "MINTER_ROLE",
      "outputs": [
        {
          "internalType": "bytes32",
          "name": "",
          "type": "bytes32"
        }
      ],
      "stateMutability": "view",
      "type": "function"
    },
    {
      "inputs": [
        {
          "internalType": "address",
          "name": "to",
          "type": "address"
        },
        {
          "internalType": "uint256",
          "name": "tokenId",
          "type": "uint256"
        }
      ],
      "name": "approve",
      "outputs": [],
      "stateMutability": "nonpayable",
      "type": "function"
    },
    {
      "inputs": [
        {
          "internalType": "address",
          "name": "owner",
          "type": "address"
        }
      ],
      "name": "balanceOf",
      "outputs": [
        {
          "internalType": "uint256",
          "name": "",
          "type": "uint256"
        }
      ],
      "stateMutability": "view",
      "type": "function"
    },
    {
      "inputs": [
        {
          "internalType": "address payable",
          "name": "nftOwner",
          "type": "address"
        },
        {
          "internalType": "address payable",
          "name": "nftSeller",
          "type": "address"
        },
        {
          "components": [
            {
              "internalType": "uint256",
              "name": "tokenId",
              "type": "uint256"
            },
            {
              "internalType": "uint256",
              "name": "minPrice",
              "type": "uint256"
            },
            {
              "internalType": "uint256",
              "name": "royalty",
              "type": "uint256"
            },
            {
              "internalType": "address",
              "name": "token",
              "type": "address"
            },
            {
              "internalType": "bool",
              "name": "isNative",
              "type": "bool"
            },
            {
              "internalType": "string",
              "name": "uri",
              "type": "string"
            },
            {
              "internalType": "bytes",
              "name": "signature",
              "type": "bytes"
            }
          ],
          "internalType": "struct NFT.NFTVoucher",
          "name": "voucher",
          "type": "tuple"
        }
      ],
      "name": "createMarketItem",
      "outputs": [
        {
          "internalType": "bool",
          "name": "",
          "type": "bool"
        }
      ],
      "stateMutability": "nonpayable",
      "type": "function"
    },
    {
      "inputs": [
        {
          "components": [
            {
              "internalType": "uint256",
              "name": "itemId",
              "type": "uint256"
            },
            {
              "internalType": "address",
              "name": "nftContract",
              "type": "address"
            },
            {
              "internalType": "uint256",
              "name": "tokenId",
              "type": "uint256"
            },
            {
              "internalType": "address payable",
              "name": "seller",
              "type": "address"
            },
            {
              "internalType": "address payable",
              "name": "owner",
              "type": "address"
            },
            {
              "internalType": "uint256",
              "name": "price",
              "type": "uint256"
            },
            {
              "internalType": "bool",
              "name": "forSale",
              "type": "bool"
            },
            {
              "internalType": "uint256",
              "name": "royalty",
              "type": "uint256"
            },
            {
              "internalType": "address",
              "name": "tokenContract",
              "type": "address"
            },
            {
              "internalType": "bool",
              "name": "isNative",
              "type": "bool"
            },
            {
              "internalType": "bool",
              "name": "minted",
              "type": "bool"
            }
          ],
          "internalType": "struct NFT.MarketItem",
          "name": "item",
          "type": "tuple"
        }
      ],
      "name": "createSale",
      "outputs": [
        {
          "internalType": "bool",
          "name": "",
          "type": "bool"
        }
      ],
      "stateMutability": "payable",
      "type": "function"
    },
    {
      "inputs": [
        {
          "components": [
            {
              "internalType": "uint256",
              "name": "itemId",
              "type": "uint256"
            },
            {
              "internalType": "address",
              "name": "nftContract",
              "type": "address"
            },
            {
              "internalType": "uint256",
              "name": "tokenId",
              "type": "uint256"
            },
            {
              "internalType": "address payable",
              "name": "seller",
              "type": "address"
            },
            {
              "internalType": "address payable",
              "name": "owner",
              "type": "address"
            },
            {
              "internalType": "uint256",
              "name": "price",
              "type": "uint256"
            },
            {
              "internalType": "bool",
              "name": "forSale",
              "type": "bool"
            },
            {
              "internalType": "uint256",
              "name": "royalty",
              "type": "uint256"
            },
            {
              "internalType": "address",
              "name": "tokenContract",
              "type": "address"
            },
            {
              "internalType": "bool",
              "name": "isNative",
              "type": "bool"
            },
            {
              "internalType": "bool",
              "name": "minted",
              "type": "bool"
            }
          ],
          "internalType": "struct NFT.MarketItem",
          "name": "item",
          "type": "tuple"
        }
      ],
      "name": "createSaleCustom",
      "outputs": [
        {
          "internalType": "bool",
          "name": "",
          "type": "bool"
        }
      ],
      "stateMutability": "nonpayable",
      "type": "function"
    },
    {
      "inputs": [],
      "name": "fetchMarketItems",
      "outputs": [
        {
          "components": [
            {
              "internalType": "uint256",
              "name": "itemId",
              "type": "uint256"
            },
            {
              "internalType": "address",
              "name": "nftContract",
              "type": "address"
            },
            {
              "internalType": "uint256",
              "name": "tokenId",
              "type": "uint256"
            },
            {
              "internalType": "address payable",
              "name": "seller",
              "type": "address"
            },
            {
              "internalType": "address payable",
              "name": "owner",
              "type": "address"
            },
            {
              "internalType": "uint256",
              "name": "price",
              "type": "uint256"
            },
            {
              "internalType": "bool",
              "name": "forSale",
              "type": "bool"
            },
            {
              "internalType": "uint256",
              "name": "royalty",
              "type": "uint256"
            },
            {
              "internalType": "address",
              "name": "tokenContract",
              "type": "address"
            },
            {
              "internalType": "bool",
              "name": "isNative",
              "type": "bool"
            },
            {
              "internalType": "bool",
              "name": "minted",
              "type": "bool"
            }
          ],
          "internalType": "struct NFT.MarketItem[]",
          "name": "",
          "type": "tuple[]"
        }
      ],
      "stateMutability": "view",
      "type": "function"
    },
    {
      "inputs": [
        {
          "internalType": "uint256",
          "name": "tokenId",
          "type": "uint256"
        }
      ],
      "name": "getApproved",
      "outputs": [
        {
          "internalType": "address",
          "name": "",
          "type": "address"
        }
      ],
      "stateMutability": "view",
      "type": "function"
    },
    {
      "inputs": [],
      "name": "getChainID",
      "outputs": [
        {
          "internalType": "uint256",
          "name": "",
          "type": "uint256"
        }
      ],
      "stateMutability": "view",
      "type": "function"
    },
    {
      "inputs": [
        {
          "internalType": "bytes32",
          "name": "role",
          "type": "bytes32"
        }
      ],
      "name": "getRoleAdmin",
      "outputs": [
        {
          "internalType": "bytes32",
          "name": "",
          "type": "bytes32"
        }
      ],
      "stateMutability": "view",
      "type": "function"
    },
    {
      "inputs": [
        {
          "internalType": "bytes32",
          "name": "role",
          "type": "bytes32"
        },
        {
          "internalType": "address",
          "name": "account",
          "type": "address"
        }
      ],
      "name": "grantRole",
      "outputs": [],
      "stateMutability": "nonpayable",
      "type": "function"
    },
    {
      "inputs": [
        {
          "internalType": "bytes32",
          "name": "role",
          "type": "bytes32"
        },
        {
          "internalType": "address",
          "name": "account",
          "type": "address"
        }
      ],
      "name": "hasRole",
      "outputs": [
        {
          "internalType": "bool",
          "name": "",
          "type": "bool"
        }
      ],
      "stateMutability": "view",
      "type": "function"
    },
    {
      "inputs": [
        {
          "internalType": "address",
          "name": "owner",
          "type": "address"
        },
        {
          "internalType": "address",
          "name": "operator",
          "type": "address"
        }
      ],
      "name": "isApprovedForAll",
      "outputs": [
        {
          "internalType": "bool",
          "name": "",
          "type": "bool"
        }
      ],
      "stateMutability": "view",
      "type": "function"
    },
    {
      "inputs": [
        {
          "components": [
            {
              "internalType": "uint256",
              "name": "tokenId",
              "type": "uint256"
            },
            {
              "internalType": "uint256",
              "name": "minPrice",
              "type": "uint256"
            },
            {
              "internalType": "uint256",
              "name": "royalty",
              "type": "uint256"
            },
            {
              "internalType": "address",
              "name": "token",
              "type": "address"
            },
            {
              "internalType": "bool",
              "name": "isNative",
              "type": "bool"
            },
            {
              "internalType": "string",
              "name": "uri",
              "type": "string"
            },
            {
              "internalType": "bytes",
              "name": "signature",
              "type": "bytes"
            }
          ],
          "internalType": "struct NFT.NFTVoucher",
          "name": "voucher",
          "type": "tuple"
        }
      ],
      "name": "mintAndTransfer",
      "outputs": [
        {
          "internalType": "bool",
          "name": "",
          "type": "bool"
        }
      ],
      "stateMutability": "payable",
      "type": "function"
    },
    {
      "inputs": [
        {
          "components": [
            {
              "internalType": "uint256",
              "name": "tokenId",
              "type": "uint256"
            },
            {
              "internalType": "uint256",
              "name": "minPrice",
              "type": "uint256"
            },
            {
              "internalType": "uint256",
              "name": "royalty",
              "type": "uint256"
            },
            {
              "internalType": "address",
              "name": "token",
              "type": "address"
            },
            {
              "internalType": "bool",
              "name": "isNative",
              "type": "bool"
            },
            {
              "internalType": "string",
              "name": "uri",
              "type": "string"
            },
            {
              "internalType": "bytes",
              "name": "signature",
              "type": "bytes"
            }
          ],
          "internalType": "struct NFT.NFTVoucher",
          "name": "voucher",
          "type": "tuple"
        }
      ],
      "name": "mintAndTransferCustom",
      "outputs": [
        {
          "internalType": "bool",
          "name": "",
          "type": "bool"
        }
      ],
      "stateMutability": "nonpayable",
      "type": "function"
    },
    {
      "inputs": [
        {
          "components": [
            {
              "internalType": "uint256",
              "name": "tokenId",
              "type": "uint256"
            },
            {
              "internalType": "uint256",
              "name": "minPrice",
              "type": "uint256"
            },
            {
              "internalType": "uint256",
              "name": "royalty",
              "type": "uint256"
            },
            {
              "internalType": "address",
              "name": "token",
              "type": "address"
            },
            {
              "internalType": "bool",
              "name": "isNative",
              "type": "bool"
            },
            {
              "internalType": "string",
              "name": "uri",
              "type": "string"
            },
            {
              "internalType": "bytes",
              "name": "signature",
              "type": "bytes"
            }
          ],
          "internalType": "struct NFT.NFTVoucher",
          "name": "voucher",
          "type": "tuple"
        }
      ],
      "name": "mintNFT",
      "outputs": [
        {
          "internalType": "bool",
          "name": "",
          "type": "bool"
        }
      ],
      "stateMutability": "nonpayable",
      "type": "function"
    },
    {
      "inputs": [],
      "name": "name",
      "outputs": [
        {
          "internalType": "string",
          "name": "",
          "type": "string"
        }
      ],
      "stateMutability": "view",
      "type": "function"
    },
    {
      "inputs": [],
      "name": "owner",
      "outputs": [
        {
          "internalType": "address",
          "name": "",
          "type": "address"
        }
      ],
      "stateMutability": "view",
      "type": "function"
    },
    {
      "inputs": [
        {
          "internalType": "uint256",
          "name": "tokenId",
          "type": "uint256"
        }
      ],
      "name": "ownerOf",
      "outputs": [
        {
          "internalType": "address",
          "name": "",
          "type": "address"
        }
      ],
      "stateMutability": "view",
      "type": "function"
    },
    {
      "inputs": [],
      "name": "renounceOwnership",
      "outputs": [],
      "stateMutability": "nonpayable",
      "type": "function"
    },
    {
      "inputs": [
        {
          "internalType": "bytes32",
          "name": "role",
          "type": "bytes32"
        },
        {
          "internalType": "address",
          "name": "account",
          "type": "address"
        }
      ],
      "name": "renounceRole",
      "outputs": [],
      "stateMutability": "nonpayable",
      "type": "function"
    },
    {
      "inputs": [
        {
          "internalType": "bytes32",
          "name": "role",
          "type": "bytes32"
        },
        {
          "internalType": "address",
          "name": "account",
          "type": "address"
        }
      ],
      "name": "revokeRole",
      "outputs": [],
      "stateMutability": "nonpayable",
      "type": "function"
    },
    {
      "inputs": [
        {
          "internalType": "address",
          "name": "from",
          "type": "address"
        },
        {
          "internalType": "address",
          "name": "to",
          "type": "address"
        },
        {
          "internalType": "uint256",
          "name": "tokenId",
          "type": "uint256"
        }
      ],
      "name": "safeTransferFrom",
      "outputs": [],
      "stateMutability": "nonpayable",
      "type": "function"
    },
    {
      "inputs": [
        {
          "internalType": "address",
          "name": "from",
          "type": "address"
        },
        {
          "internalType": "address",
          "name": "to",
          "type": "address"
        },
        {
          "internalType": "uint256",
          "name": "tokenId",
          "type": "uint256"
        },
        {
          "internalType": "bytes",
          "name": "_data",
          "type": "bytes"
        }
      ],
      "name": "safeTransferFrom",
      "outputs": [],
      "stateMutability": "nonpayable",
      "type": "function"
    },
    {
      "inputs": [
        {
          "internalType": "address",
          "name": "operator",
          "type": "address"
        },
        {
          "internalType": "bool",
          "name": "approved",
          "type": "bool"
        }
      ],
      "name": "setApprovalForAll",
      "outputs": [],
      "stateMutability": "nonpayable",
      "type": "function"
    },
    {
      "inputs": [
        {
          "internalType": "bytes4",
          "name": "interfaceId",
          "type": "bytes4"
        }
      ],
      "name": "supportsInterface",
      "outputs": [
        {
          "internalType": "bool",
          "name": "",
          "type": "bool"
        }
      ],
      "stateMutability": "view",
      "type": "function"
    },
    {
      "inputs": [],
      "name": "symbol",
      "outputs": [
        {
          "internalType": "string",
          "name": "",
          "type": "string"
        }
      ],
      "stateMutability": "view",
      "type": "function"
    },
    {
      "inputs": [
        {
          "internalType": "uint256",
          "name": "tokenId",
          "type": "uint256"
        }
      ],
      "name": "tokenURI",
      "outputs": [
        {
          "internalType": "string",
          "name": "",
          "type": "string"
        }
      ],
      "stateMutability": "view",
      "type": "function"
    },
    {
      "inputs": [
        {
          "internalType": "address",
          "name": "from",
          "type": "address"
        },
        {
          "internalType": "address",
          "name": "to",
          "type": "address"
        },
        {
          "internalType": "uint256",
          "name": "tokenId",
          "type": "uint256"
        }
      ],
      "name": "transferFrom",
      "outputs": [],
      "stateMutability": "nonpayable",
      "type": "function"
    },
    {
      "inputs": [
        {
          "internalType": "address",
          "name": "newOwner",
          "type": "address"
        }
      ],
      "name": "transferOwnership",
      "outputs": [],
      "stateMutability": "nonpayable",
      "type": "function"
    },
    {
      "inputs": [
        {
          "components": [
            {
              "internalType": "uint256",
              "name": "itemId",
              "type": "uint256"
            },
            {
              "internalType": "address",
              "name": "nftContract",
              "type": "address"
            },
            {
              "internalType": "uint256",
              "name": "tokenId",
              "type": "uint256"
            },
            {
              "internalType": "address payable",
              "name": "seller",
              "type": "address"
            },
            {
              "internalType": "address payable",
              "name": "owner",
              "type": "address"
            },
            {
              "internalType": "uint256",
              "name": "price",
              "type": "uint256"
            },
            {
              "internalType": "bool",
              "name": "forSale",
              "type": "bool"
            },
            {
              "internalType": "uint256",
              "name": "royalty",
              "type": "uint256"
            },
            {
              "internalType": "address",
              "name": "tokenContract",
              "type": "address"
            },
            {
              "internalType": "bool",
              "name": "isNative",
              "type": "bool"
            },
            {
              "internalType": "bool",
              "name": "minted",
              "type": "bool"
            }
          ],
          "internalType": "struct NFT.MarketItem",
          "name": "item",
          "type": "tuple"
        },
        {
          "internalType": "bool",
          "name": "forSale",
          "type": "bool"
        },
        {
          "internalType": "uint256",
          "name": "price",
          "type": "uint256"
        }
      ],
      "name": "updateItem",
      "outputs": [
        {
          "internalType": "bool",
          "name": "",
          "type": "bool"
        }
      ],
      "stateMutability": "nonpayable",
      "type": "function"
    }
  ],
  "bytecode": "0x6101406040526009805460ff60a01b191690553480156200001f57600080fd5b5060405162004584380380620045848339810160408190526200004291620003e5565b600160008190558551849184918891889162000064919060208501906200028c565b5080516200007a9060029060208401906200028c565b5050825160208085019190912083518483012060e08290526101008190524660a0818152604080517f8b73c3c69bb8fe3d512ecc4cf759cc79239f7b179b0ffacaa9a75d522b39400f81880181905281830187905260608201869052608082019490945230818401528151808203909301835260c0019052805194019390932091935091906080523060601b60c05261012052506200012592506200011f9150503390565b62000186565b6001600160a01b038116156200016757620001617f9f2df0fed2c77648de5860a4cc508cd0818c85b8b8a1ab4ceeef8d981c8956a682620001d8565b6200017b565b6009805460ff60a01b1916600160a01b1790555b50505050506200050f565b600980546001600160a01b038381166001600160a01b0319831681179093556040519116919082907f8be0079c531659141344cd1fd0a4f28419497f9722a3daafe3b4186f6b6457e090600090a35050565b620001e48282620001e8565b5050565b60008281526008602090815260408083206001600160a01b038516845290915290205460ff16620001e45760008281526008602090815260408083206001600160a01b03851684529091529020805460ff19166001179055620002483390565b6001600160a01b0316816001600160a01b0316837f2f8788117e7eff1d82e926ec794901d17c78024a50270940304540a733656f0d60405160405180910390a45050565b8280546200029a90620004bc565b90600052602060002090601f016020900481019282620002be576000855562000309565b82601f10620002d957805160ff191683800117855562000309565b8280016001018555821562000309579182015b8281111562000309578251825591602001919060010190620002ec565b50620003179291506200031b565b5090565b5b808211156200031757600081556001016200031c565b600082601f83011262000343578081fd5b81516001600160401b0380821115620003605762000360620004f9565b604051601f8301601f19908116603f011681019082821181831017156200038b576200038b620004f9565b81604052838152602092508683858801011115620003a7578485fd5b8491505b83821015620003ca5785820183015181830184015290820190620003ab565b83821115620003db57848385830101525b9695505050505050565b600080600080600060a08688031215620003fd578081fd5b85516001600160401b038082111562000414578283fd5b6200042289838a0162000332565b9650602088015191508082111562000438578283fd5b6200044689838a0162000332565b955060408801519150808211156200045c578283fd5b6200046a89838a0162000332565b9450606088015191508082111562000480578283fd5b506200048f8882890162000332565b608088015190935090506001600160a01b0381168114620004ae578182fd5b809150509295509295909350565b600181811c90821680620004d157607f821691505b60208210811415620004f357634e487b7160e01b600052602260045260246000fd5b50919050565b634e487b7160e01b600052604160045260246000fd5b60805160a05160c05160601c60e05161010051610120516140226200056260003960006132b801526000613307015260006132e201526000613239015260006132630152600061328d01526140226000f3fe6080604052600436106101e35760003560e01c8063715018a611610102578063b88d4fde11610095578063d547741f11610064578063d547741f14610590578063e67b9148146105b0578063e985e9c5146105c3578063f2fde38b1461060c576101e3565b8063b88d4fde14610509578063c87b56dd14610529578063d1132a7e14610549578063d53913931461055c576101e3565b80639a02079f116100d15780639a02079f14610494578063a217fddf146104b4578063a22cb465146104c9578063b51b9db3146104e9576101e3565b8063715018a61461042c5780638da5cb5b1461044157806391d148541461045f57806395d89b411461047f576101e3565b806336568abe1161017a5780635cd74d02116101495780635cd74d02146103ac57806360091f8f146103cc5780636352211e146103ec57806370a082311461040c576101e3565b806336568abe1461033957806337fa5d961461035957806342842e0e14610379578063564b81ef14610399576101e3565b80630f08efe0116101b65780630f08efe01461029957806323b872dd146102bb578063248a9ca3146102db5780632f2ff15d14610319576101e3565b806301ffc9a7146101e857806306fdde031461021d578063081812fc1461023f578063095ea7b314610277575b600080fd5b3480156101f457600080fd5b50610208610203366004613876565b61062c565b60405190151581526020015b60405180910390f35b34801561022957600080fd5b5061023261064e565b6040516102149190613b70565b34801561024b57600080fd5b5061025f61025a36600461383a565b6106e1565b6040516001600160a01b039091168152602001610214565b34801561028357600080fd5b506102976102923660046137d7565b61076e565b005b3480156102a557600080fd5b506102ae610884565b6040516102149190613aaa565b3480156102c757600080fd5b506102976102d63660046136ae565b610a6b565b3480156102e757600080fd5b5061030b6102f636600461383a565b60009081526008602052604090206001015490565b604051908152602001610214565b34801561032557600080fd5b50610297610334366004613852565b610a9c565b34801561034557600080fd5b50610297610354366004613852565b610ac3565b34801561036557600080fd5b506102086103743660046138c0565b610b41565b34801561038557600080fd5b506102976103943660046136ae565b610fba565b3480156103a557600080fd5b504661030b565b3480156103b857600080fd5b506102086103c7366004613616565b610fd5565b3480156103d857600080fd5b506102086103e73660046138dc565b6111b0565b3480156103f857600080fd5b5061025f61040736600461383a565b61131b565b34801561041857600080fd5b5061030b6104273660046135fa565b611392565b34801561043857600080fd5b50610297611419565b34801561044d57600080fd5b506009546001600160a01b031661025f565b34801561046b57600080fd5b5061020861047a366004613852565b61147f565b34801561048b57600080fd5b506102326114aa565b3480156104a057600080fd5b506102086104af36600461391e565b6114b9565b3480156104c057600080fd5b5061030b600081565b3480156104d557600080fd5b506102976104e43660046137aa565b61152e565b3480156104f557600080fd5b5061020861050436600461391e565b611539565b34801561051557600080fd5b506102976105243660046136ee565b61169c565b34801561053557600080fd5b5061023261054436600461383a565b6116d4565b6102086105573660046138ae565b61184c565b34801561056857600080fd5b5061030b7f9f2df0fed2c77648de5860a4cc508cd0818c85b8b8a1ab4ceeef8d981c8956a681565b34801561059c57600080fd5b506102976105ab366004613852565b611ad4565b6102086105be36600461391e565b611afa565b3480156105cf57600080fd5b506102086105de366004613676565b6001600160a01b03918216600090815260066020908152604080832093909416825291909152205460ff1690565b34801561061857600080fd5b506102976106273660046135fa565b611ba6565b600061063782611c71565b80610646575061064682611cc1565b90505b919050565b60606001805461065d90613f0d565b80601f016020809104026020016040519081016040528092919081815260200182805461068990613f0d565b80156106d65780601f106106ab576101008083540402835291602001916106d6565b820191906000526020600020905b8154815290600101906020018083116106b957829003601f168201915b505050505090505b90565b60006106ec82611ce6565b6107525760405162461bcd60e51b815260206004820152602c60248201527f4552433732313a20617070726f76656420717565727920666f72206e6f6e657860448201526b34b9ba32b73a103a37b5b2b760a11b60648201526084015b60405180910390fd5b506000908152600560205260409020546001600160a01b031690565b60006107798261131b565b9050806001600160a01b0316836001600160a01b031614156107e75760405162461bcd60e51b815260206004820152602160248201527f4552433732313a20617070726f76616c20746f2063757272656e74206f776e656044820152603960f91b6064820152608401610749565b336001600160a01b0382161480610803575061080381336105de565b6108755760405162461bcd60e51b815260206004820152603860248201527f4552433732313a20617070726f76652063616c6c6572206973206e6f74206f7760448201527f6e6572206e6f7220617070726f76656420666f7220616c6c00000000000000006064820152608401610749565b61087f8383611d03565b505050565b60606000610891600a5490565b90506000808267ffffffffffffffff8111156108bd57634e487b7160e01b600052604160045260246000fd5b60405190808252806020026020018201604052801561094457816020015b604080516101608101825260008082526020808301829052928201819052606082018190526080820181905260a0820181905260c0820181905260e082018190526101008201819052610120820181905261014082015282526000199092019101816108db5790505b50905060005b83811015610a6357600061095f826001613d5d565b6000818152600b60209081526040918290208251610160810184528154815260018201546001600160a01b0390811693820193909352600282015493810193909352600381015482166060840152600481015482166080840152600581015460a0840152600681015460ff908116151560c0850152600782015460e08501526008820154928316610100850152600160a01b830481161515610120850152600160a81b9092049091161515610140830152855192935091859087908110610a3657634e487b7160e01b600052603260045260246000fd5b6020908102919091010152610a4c600186613d5d565b945050508080610a5b90613f42565b91505061094a565b509250505090565b610a753382611d71565b610a915760405162461bcd60e51b815260040161074990613c28565b61087f838383611e57565b600082815260086020526040902060010154610ab981335b611ff7565b61087f838361205b565b6001600160a01b0381163314610b335760405162461bcd60e51b815260206004820152602f60248201527f416363657373436f6e74726f6c3a2063616e206f6e6c792072656e6f756e636560448201526e103937b632b9903337b91039b2b63360891b6064820152608401610749565b610b3d82826120e1565b5050565b600060026000541415610b665760405162461bcd60e51b815260040161074990613c79565b600260005560a0820151610b8c5760405162461bcd60e51b815260040161074990613cb0565b81516000908152600b602052604090206005015460a083015114610bc25760405162461bcd60e51b815260040161074990613b83565b81516000908152600b60205260409020600681015460ff161515600114610c1a5760405162461bcd60e51b815260206004820152600c60248201526b4e6f7420666f722073616c6560a01b6044820152606401610749565b600073d31c54efd3a4b5e6a993aaa4618d3700a12ff75290506000610c42836002015461131b565b60048401546008850154600586015460078701549394506001600160a01b039283169392909116916000610c77836003612148565b90506000610c858484612148565b90506000610c9d85610c98866061613eb3565b612148565b604051636eb1769f60e11b8152336004820152306024820152909150869086906001600160a01b0383169063dd62ed3e9060440160206040518083038186803b158015610ce957600080fd5b505afa158015610cfd573d6000803e3d6000fd5b505050506040513d601f19601f82011682018060405250810190610d219190613951565b1015610d685760405162461bcd60e51b8152602060048201526016602482015275496e73756666696369656e7420416c6c6f77616e636560501b6044820152606401610749565b6040516323b872dd60e01b81526001600160a01b038216906323b872dd90610d989033908d908790600401613a49565b602060405180830381600087803b158015610db257600080fd5b505af1158015610dc6573d6000803e3d6000fd5b505050506040513d601f19601f82011682018060405250810190610dea919061381e565b610e065760405162461bcd60e51b815260040161074990613bff565b6040516323b872dd60e01b81526001600160a01b038216906323b872dd90610e369033908c908890600401613a49565b602060405180830381600087803b158015610e5057600080fd5b505af1158015610e64573d6000803e3d6000fd5b505050506040513d601f19601f82011682018060405250810190610e88919061381e565b610ea45760405162461bcd60e51b815260040161074990613bff565b6040516323b872dd60e01b81526001600160a01b038216906323b872dd90610ed49033908e908990600401613a49565b602060405180830381600087803b158015610eee57600080fd5b505af1158015610f02573d6000803e3d6000fd5b505050506040513d601f19601f82011682018060405250810190610f26919061381e565b610f425760405162461bcd60e51b815260040161074990613bff565b60028b015460405133906001600160a01b038c16908990600090a4610f6c89338d60020154611e57565b50508a516000908152600b602052604080822060030180546001600160a01b031916331790558c5182529020600601805460ff19169055506001985050505050505050506001600055919050565b61087f8383836040518060200160405280600081525061169c565b600080826020013511610ffa5760405162461bcd60e51b815260040161074990613cb0565b611008600a80546001019055565b6000611013600a5490565b9050604051806101600160405280828152602001306001600160a01b0316815260200184600001358152602001856001600160a01b03168152602001866001600160a01b03168152602001846020013581526020016000151581526020018460400135815260200184606001602081019061108e91906135fa565b6001600160a01b031681526020016110ac60a0860160808701613802565b15158152600160209182018190526000938452600b8252604093849020835181559183015182820180546001600160a01b03199081166001600160a01b03938416179091559484015160028401556060840151600384018054871691831691909117905560808401516004840180549096169082161790945560a0830151600583015560c083015160068301805460ff191691151591909117905560e083015160078301556101008301516008909201805461012085015161014090950151939095166001600160a81b031990951694909417600160a01b931515939093029290921760ff60a81b1916600160a81b911515919091021790915590505b9392505050565b82516000908152600b602052604080822060020154908501511461120b5760405162461bcd60e51b81526020600482015260126024820152710e8ded6cadc92c840daeae6e840dac2e8c6d60731b6044820152606401610749565b83516000908152600b60205260408120600201546112289061131b565b9050336001600160a01b038216146112825760405162461bcd60e51b815260206004820152601860248201527f73656e646572206e6f742070726f7065722073656c6c657200000000000000006044820152606401610749565b600083116112a25760405162461bcd60e51b815260040161074990613cb0565b84516000908152600b602052604080822060050185905586518252808220600601805460ff191687151590811790915587518352912060030180546001600160a01b0319166001600160a01b0384161790556001141561131057604080860151905133908590600190600090a45b506001949350505050565b6000818152600360205260408120546001600160a01b0316806106465760405162461bcd60e51b815260206004820152602960248201527f4552433732313a206f776e657220717565727920666f72206e6f6e657869737460448201526832b73a103a37b5b2b760b91b6064820152608401610749565b60006001600160a01b0382166113fd5760405162461bcd60e51b815260206004820152602a60248201527f4552433732313a2062616c616e636520717565727920666f7220746865207a65604482015269726f206164647265737360b01b6064820152608401610749565b506001600160a01b031660009081526004602052604090205490565b6009546001600160a01b031633146114735760405162461bcd60e51b815260206004820181905260248201527f4f776e61626c653a2063616c6c6572206973206e6f7420746865206f776e65726044820152606401610749565b61147d600061218d565b565b60009182526008602090815260408084206001600160a01b0393909316845291905290205460ff1690565b60606002805461065d90613f0d565b6000600260005414156114de5760405162461bcd60e51b815260040161074990613c79565b600260005560208201356115045760405162461bcd60e51b815260040161074990613cb0565b6000611515338460200135856121df565b9050611522813385610fd5565b60016000559392505050565b610b3d33838361266f565b600954600090600160a01b900460ff166115c3576115777f9f2df0fed2c77648de5860a4cc508cd0818c85b8b8a1ab4ceeef8d981c8956a63361147f565b6115c35760405162461bcd60e51b815260206004820152601760248201527f696e76616c6964206f7220756e617574686f72697a65640000000000000000006044820152606401610749565b60008260200135116115e75760405162461bcd60e51b815260040161074990613cb0565b6115f233833561273e565b61163e823561160460a0850185613ce7565b8080601f01602080910402602001604051908101604052809392919081815260200183838082843760009201919091525061287192505050565b600061164b333385610fd5565b9050801561169357600061165e600a5490565b6000818152600b60209081526040808320600601805460ff1916600190811790915590519394508735933393928901359290a4505b50600192915050565b6116a63383611d71565b6116c25760405162461bcd60e51b815260040161074990613c28565b6116ce848484846128fc565b50505050565b60606116df82611ce6565b6117455760405162461bcd60e51b815260206004820152603160248201527f45524337323155524953746f726167653a2055524920717565727920666f72206044820152703737b732bc34b9ba32b73a103a37b5b2b760791b6064820152608401610749565b6000828152600760205260408120805461175e90613f0d565b80601f016020809104026020016040519081016040528092919081815260200182805461178a90613f0d565b80156117d75780601f106117ac576101008083540402835291602001916117d7565b820191906000526020600020905b8154815290600101906020018083116117ba57829003601f168201915b5050505050905060006117f560408051602081019091526000815290565b905080516000141561180957509050610649565b81511561183b5780826040516020016118239291906139a5565b60405160208183030381529060405292505050610649565b6118448461292f565b949350505050565b6000600260005414156118715760405162461bcd60e51b815260040161074990613c79565b600260005560a08201356118975760405162461bcd60e51b815260040161074990613cb0565b8160a0013534146118ba5760405162461bcd60e51b815260040161074990613b83565b81356000908152600b602052604090206005015460a0830135146118f05760405162461bcd60e51b815260040161074990613b83565b81356000908152600b60205260409020600681015460ff1615156001146119485760405162461bcd60e51b815260206004820152600c60248201526b4e6f7420666f722073616c6560a01b6044820152606401610749565b600073d31c54efd3a4b5e6a993aaa4618d3700a12ff75290506000611970836002015461131b565b6004840154600585015460078601549293506001600160a01b0390911691600061199b836003612148565b905060006119a98484612148565b905060006119bc85610c98866061613eb3565b6040519091506001600160a01b0388169082156108fc029083906000818181858888f193505050501580156119f5573d6000803e3d6000fd5b506040516001600160a01b0387169083156108fc029084906000818181858888f19350505050158015611a2c573d6000803e3d6000fd5b506040516001600160a01b0389169084156108fc029085906000818181858888f19350505050158015611a63573d6000803e3d6000fd5b50600289015460405133906001600160a01b038a16908890600090a4611a8e87338b60020154611e57565b50505087356000908152600b602052604090206003810180546001600160a01b03191633179055600601805460ff19169055506001955050505050506001600055919050565b600082815260086020526040902060010154611af08133610ab4565b61087f83836120e1565b600060026000541415611b1f5760405162461bcd60e51b815260040161074990613c79565b60026000556020820135611b455760405162461bcd60e51b815260040161074990613cb0565b8160200135341015611b995760405162461bcd60e51b815260206004820152601c60248201527f496e73756666696369656e742066756e647320746f2072656465656d000000006044820152606401610749565b60006115153334856121df565b6009546001600160a01b03163314611c005760405162461bcd60e51b815260206004820181905260248201527f4f776e61626c653a2063616c6c6572206973206e6f7420746865206f776e65726044820152606401610749565b6001600160a01b038116611c655760405162461bcd60e51b815260206004820152602660248201527f4f776e61626c653a206e6577206f776e657220697320746865207a65726f206160448201526564647265737360d01b6064820152608401610749565b611c6e8161218d565b50565b60006001600160e01b031982166380ac58cd60e01b1480611ca257506001600160e01b03198216635b5e139f60e01b145b8061064657506301ffc9a760e01b6001600160e01b0319831614610646565b60006001600160e01b03198216637965db0b60e01b1480610646575061064682611c71565b6000908152600360205260409020546001600160a01b0316151590565b600081815260056020526040902080546001600160a01b0319166001600160a01b0384169081179091558190611d388261131b565b6001600160a01b03167f8c5be1e5ebec7d5bd14f71427d1e84f3dd0314c0f7b2291e5b200ac8c7c3b92560405160405180910390a45050565b6000611d7c82611ce6565b611ddd5760405162461bcd60e51b815260206004820152602c60248201527f4552433732313a206f70657261746f7220717565727920666f72206e6f6e657860448201526b34b9ba32b73a103a37b5b2b760a11b6064820152608401610749565b6000611de88361131b565b9050806001600160a01b0316846001600160a01b03161480611e235750836001600160a01b0316611e18846106e1565b6001600160a01b0316145b8061184457506001600160a01b0380821660009081526006602090815260408083209388168352929052205460ff16611844565b826001600160a01b0316611e6a8261131b565b6001600160a01b031614611ed25760405162461bcd60e51b815260206004820152602960248201527f4552433732313a207472616e73666572206f6620746f6b656e2074686174206960448201526839903737ba1037bbb760b91b6064820152608401610749565b6001600160a01b038216611f345760405162461bcd60e51b8152602060048201526024808201527f4552433732313a207472616e7366657220746f20746865207a65726f206164646044820152637265737360e01b6064820152608401610749565b611f3f600082611d03565b6001600160a01b0383166000908152600460205260408120805460019290611f68908490613eb3565b90915550506001600160a01b0382166000908152600460205260408120805460019290611f96908490613d5d565b909155505060008181526003602052604080822080546001600160a01b0319166001600160a01b0386811691821790925591518493918716917fddf252ad1be2c89b69c2b068fc378daa952ba7f163c4a11628f55a4df523b3ef91a4505050565b612001828261147f565b610b3d57612019816001600160a01b03166014612a06565b612024836020612a06565b6040516020016120359291906139d4565b60408051601f198184030181529082905262461bcd60e51b825261074991600401613b70565b612065828261147f565b610b3d5760008281526008602090815260408083206001600160a01b03851684529091529020805460ff1916600117905561209d3390565b6001600160a01b0316816001600160a01b0316837f2f8788117e7eff1d82e926ec794901d17c78024a50270940304540a733656f0d60405160405180910390a45050565b6120eb828261147f565b15610b3d5760008281526008602090815260408083206001600160a01b0385168085529252808320805460ff1916905551339285917ff6391f5c32d9c69d2a47ea670b442974b53935d1edc7fd64eb21e047a839171b9190a45050565b60008061217661215a6002600a613dc6565b612165906064613e94565b612170866064612be8565b90612bf4565b905060006121848285612be8565b95945050505050565b600980546001600160a01b038381166001600160a01b0319831681179093556040519116919082907f8be0079c531659141344cd1fd0a4f28419497f9722a3daafe3b4186f6b6457e090600090a35050565b6000808260200135116122045760405162461bcd60e51b815260040161074990613cb0565b81602001358310156122585760405162461bcd60e51b815260206004820152601c60248201527f496e73756666696369656e742066756e647320746f2072656465656d000000006044820152606401610749565b73d31c54efd3a4b5e6a993aaa4618d3700a12ff752600061227884612c00565b600954909150600160a01b900460ff1661230c576122b67f9f2df0fed2c77648de5860a4cc508cd0818c85b8b8a1ab4ceeef8d981c8956a68261147f565b61230c5760405162461bcd60e51b815260206004820152602160248201527f5369676e617475726520696e76616c6964206f7220756e617574686f72697a656044820152601960fa1b6064820152608401610749565b61231781853561273e565b612329843561160460a0870187613ce7565b6040518435906001600160a01b038316908790600190600090a4600061235485602001356061612148565b9050600061236786602001356003612148565b905061237960a0870160808801613802565b8061239c5750600061239160808801606089016135fa565b6001600160a01b0316145b15612414576040516001600160a01b0384169083156108fc029084906000818181858888f193505050501580156123d7573d6000803e3d6000fd5b506040516001600160a01b0385169082156108fc029083906000818181858888f1935050505015801561240e573d6000803e3d6000fd5b50612637565b600061242660808801606089016135fa565b604051636eb1769f60e11b81526001600160a01b038b8116600483015230602483015291925060208901359183169063dd62ed3e9060440160206040518083038186803b15801561247657600080fd5b505afa15801561248a573d6000803e3d6000fd5b505050506040513d601f19601f820116820180604052508101906124ae9190613951565b106125f4576040516323b872dd60e01b81526001600160a01b038216906323b872dd906124e3908c9088908890600401613a49565b602060405180830381600087803b1580156124fd57600080fd5b505af1158015612511573d6000803e3d6000fd5b505050506040513d601f19601f82011682018060405250810190612535919061381e565b6125515760405162461bcd60e51b815260040161074990613bff565b6040516323b872dd60e01b81526001600160a01b038216906323b872dd90612581908c9089908790600401613a49565b602060405180830381600087803b15801561259b57600080fd5b505af11580156125af573d6000803e3d6000fd5b505050506040513d601f19601f820116820180604052508101906125d3919061381e565b6125ef5760405162461bcd60e51b815260040161074990613bff565b612635565b60405162461bcd60e51b8152602060048201526016602482015275496e73756666696369656e7420416c6c6f77616e636560501b6044820152606401610749565b505b6040518635906001600160a01b03808b16919086169060208a013590600090a461266383898835611e57565b50909695505050505050565b816001600160a01b0316836001600160a01b031614156126d15760405162461bcd60e51b815260206004820152601960248201527f4552433732313a20617070726f766520746f2063616c6c6572000000000000006044820152606401610749565b6001600160a01b03838116600081815260066020908152604080832094871680845294825291829020805460ff191686151590811790915591519182527f17307eab39ab6107e8899845ad3d59bd9653f200f220920489ca2b5937696c31910160405180910390a3505050565b6001600160a01b0382166127945760405162461bcd60e51b815260206004820181905260248201527f4552433732313a206d696e7420746f20746865207a65726f20616464726573736044820152606401610749565b61279d81611ce6565b156127ea5760405162461bcd60e51b815260206004820152601c60248201527f4552433732313a20746f6b656e20616c7265616479206d696e746564000000006044820152606401610749565b6001600160a01b0382166000908152600460205260408120805460019290612813908490613d5d565b909155505060008181526003602052604080822080546001600160a01b0319166001600160a01b03861690811790915590518392907fddf252ad1be2c89b69c2b068fc378daa952ba7f163c4a11628f55a4df523b3ef908290a45050565b61287a82611ce6565b6128dd5760405162461bcd60e51b815260206004820152602e60248201527f45524337323155524953746f726167653a2055524920736574206f66206e6f6e60448201526d32bc34b9ba32b73a103a37b5b2b760911b6064820152608401610749565b6000828152600760209081526040909120825161087f92840190613473565b612907848484611e57565b61291384848484612c59565b6116ce5760405162461bcd60e51b815260040161074990613bad565b606061293a82611ce6565b61299e5760405162461bcd60e51b815260206004820152602f60248201527f4552433732314d657461646174613a2055524920717565727920666f72206e6f60448201526e3732bc34b9ba32b73a103a37b5b2b760891b6064820152608401610749565b60006129b560408051602081019091526000815290565b905060008151116129d557604051806020016040528060008152506111a9565b806129df84612d5b565b6040516020016129f09291906139a5565b6040516020818303038152906040529392505050565b60606000612a15836002613e94565b612a20906002613d5d565b67ffffffffffffffff811115612a4657634e487b7160e01b600052604160045260246000fd5b6040519080825280601f01601f191660200182016040528015612a70576020820181803683370190505b509050600360fc1b81600081518110612a9957634e487b7160e01b600052603260045260246000fd5b60200101906001600160f81b031916908160001a905350600f60fb1b81600181518110612ad657634e487b7160e01b600052603260045260246000fd5b60200101906001600160f81b031916908160001a9053506000612afa846002613e94565b612b05906001613d5d565b90505b6001811115612b99576f181899199a1a9b1b9c1cb0b131b232b360811b85600f1660108110612b4757634e487b7160e01b600052603260045260246000fd5b1a60f81b828281518110612b6b57634e487b7160e01b600052603260045260246000fd5b60200101906001600160f81b031916908160001a90535060049490941c93612b9281613ef6565b9050612b08565b5083156111a95760405162461bcd60e51b815260206004820181905260248201527f537472696e67733a20686578206c656e67746820696e73756666696369656e746044820152606401610749565b60006111a98284613e94565b60006111a98284613d75565b600080612c0c83612e76565b90506111a981612c1f60c0860186613ce7565b8080601f016020809104026020016040519081016040528093929190818152602001838380828437600092019190915250612f4792505050565b60006001600160a01b0384163b1561131057604051630a85bd0160e11b81526001600160a01b0385169063150b7a0290612c9d903390899088908890600401613a6d565b602060405180830381600087803b158015612cb757600080fd5b505af1925050508015612ce7575060408051601f3d908101601f19168201909252612ce491810190613892565b60015b612d41573d808015612d15576040519150601f19603f3d011682016040523d82523d6000602084013e612d1a565b606091505b508051612d395760405162461bcd60e51b815260040161074990613bad565b805181602001fd5b6001600160e01b031916630a85bd0160e11b149050611844565b606081612d8057506040805180820190915260018152600360fc1b6020820152610649565b8160005b8115612daa5780612d9481613f42565b9150612da39050600a83613d75565b9150612d84565b60008167ffffffffffffffff811115612dd357634e487b7160e01b600052604160045260246000fd5b6040519080825280601f01601f191660200182016040528015612dfd576020820181803683370190505b5090505b841561184457612e12600183613eb3565b9150612e1f600a86613f5d565b612e2a906030613d5d565b60f81b818381518110612e4d57634e487b7160e01b600052603260045260246000fd5b60200101906001600160f81b031916908160001a905350612e6f600a86613d75565b9450612e01565b60006106467f66a9f3ee8886973761b2ebb7846666307aadbd0f7882fe4a4800bdd66b397130833560208501356040860135612eb860808801606089016135fa565b612ec860a0890160808a01613802565b612ed560a08a018a613ce7565b604051612ee3929190613995565b604080519182900382206020830198909852810195909552606085019390935260808401919091526001600160a01b031660a0830152151560c082015260e08101919091526101000160405160208183030381529060405280519060200120612f6b565b6000806000612f568585612fb9565b91509150612f6381613029565b509392505050565b6000610646612f7861322c565b8360405161190160f01b6020820152602281018390526042810182905260009060620160405160208183030381529060405280519060200120905092915050565b600080825160411415612ff05760208301516040840151606085015160001a612fe487828585613357565b94509450505050613022565b82516040141561301a576020830151604084015161300f868383613444565b935093505050613022565b506000905060025b9250929050565b600081600481111561304b57634e487b7160e01b600052602160045260246000fd5b141561305657611c6e565b600181600481111561307857634e487b7160e01b600052602160045260246000fd5b14156130c65760405162461bcd60e51b815260206004820152601860248201527f45434453413a20696e76616c6964207369676e617475726500000000000000006044820152606401610749565b60028160048111156130e857634e487b7160e01b600052602160045260246000fd5b14156131365760405162461bcd60e51b815260206004820152601f60248201527f45434453413a20696e76616c6964207369676e6174757265206c656e677468006044820152606401610749565b600381600481111561315857634e487b7160e01b600052602160045260246000fd5b14156131b15760405162461bcd60e51b815260206004820152602260248201527f45434453413a20696e76616c6964207369676e6174757265202773272076616c604482015261756560f01b6064820152608401610749565b60048160048111156131d357634e487b7160e01b600052602160045260246000fd5b1415611c6e5760405162461bcd60e51b815260206004820152602260248201527f45434453413a20696e76616c6964207369676e6174757265202776272076616c604482015261756560f01b6064820152608401610749565b6000306001600160a01b037f00000000000000000000000000000000000000000000000000000000000000001614801561328557507f000000000000000000000000000000000000000000000000000000000000000046145b156132b157507f00000000000000000000000000000000000000000000000000000000000000006106de565b50604080517f00000000000000000000000000000000000000000000000000000000000000006020808301919091527f0000000000000000000000000000000000000000000000000000000000000000828401527f000000000000000000000000000000000000000000000000000000000000000060608301524660808301523060a0808401919091528351808403909101815260c090920190925280519101206106de565b6000807f7fffffffffffffffffffffffffffffff5d576e7357a4501ddfe92f46681b20a083111561338e575060009050600361343b565b8460ff16601b141580156133a657508460ff16601c14155b156133b7575060009050600461343b565b6040805160008082526020820180845289905260ff881692820192909252606081018690526080810185905260019060a0016020604051602081039080840390855afa15801561340b573d6000803e3d6000fd5b5050604051601f1901519150506001600160a01b0381166134345760006001925092505061343b565b9150600090505b94509492505050565b6000806001600160ff1b03831660ff84901c601b0161346587828885613357565b935093505050935093915050565b82805461347f90613f0d565b90600052602060002090601f0160209004810192826134a157600085556134e7565b82601f106134ba57805160ff19168380011785556134e7565b828001600101855582156134e7579182015b828111156134e75782518255916020019190600101906134cc565b506134f39291506134f7565b5090565b5b808211156134f357600081556001016134f8565b803561064981613fb3565b803561064981613fc8565b6000610160808385031215613535578182fd5b61353e81613d2c565b915050813581526135516020830161350c565b60208201526040820135604082015261356c6060830161350c565b606082015261357d6080830161350c565b608082015260a082013560a082015261359860c08301613517565b60c082015260e082013560e08201526101006135b581840161350c565b908201526101206135c7838201613517565b908201526101406135d9838201613517565b9082015292915050565b600060e082840312156135f4578081fd5b50919050565b60006020828403121561360b578081fd5b81356111a981613fb3565b60008060006060848603121561362a578182fd5b833561363581613fb3565b9250602084013561364581613fb3565b9150604084013567ffffffffffffffff811115613660578182fd5b61366c868287016135e3565b9150509250925092565b60008060408385031215613688578182fd5b823561369381613fb3565b915060208301356136a381613fb3565b809150509250929050565b6000806000606084860312156136c2578283fd5b83356136cd81613fb3565b925060208401356136dd81613fb3565b929592945050506040919091013590565b60008060008060808587031215613703578081fd5b843561370e81613fb3565b935060208581013561371f81613fb3565b935060408601359250606086013567ffffffffffffffff80821115613742578384fd5b818801915088601f830112613755578384fd5b81358181111561376757613767613f9d565b613779601f8201601f19168501613d2c565b9150808252898482850101111561378e578485fd5b8084840185840137810190920192909252939692955090935050565b600080604083850312156137bc578182fd5b82356137c781613fb3565b915060208301356136a381613fc8565b600080604083850312156137e9578182fd5b82356137f481613fb3565b946020939093013593505050565b600060208284031215613813578081fd5b81356111a981613fc8565b60006020828403121561382f578081fd5b81516111a981613fc8565b60006020828403121561384b578081fd5b5035919050565b60008060408385031215613864578182fd5b8235915060208301356136a381613fb3565b600060208284031215613887578081fd5b81356111a981613fd6565b6000602082840312156138a3578081fd5b81516111a981613fd6565b600061016082840312156135f4578081fd5b600061016082840312156138d2578081fd5b6111a98383613522565b60008060006101a084860312156138f1578081fd5b6138fb8585613522565b925061016084013561390c81613fc8565b92959294505050610180919091013590565b60006020828403121561392f578081fd5b813567ffffffffffffffff811115613945578182fd5b611844848285016135e3565b600060208284031215613962578081fd5b5051919050565b60008151808452613981816020860160208601613eca565b601f01601f19169290920160200192915050565b6000828483379101908152919050565b600083516139b7818460208801613eca565b8351908301906139cb818360208801613eca565b01949350505050565b60007f416363657373436f6e74726f6c3a206163636f756e742000000000000000000082528351613a0c816017850160208801613eca565b7001034b99036b4b9b9b4b733903937b6329607d1b6017918401918201528351613a3d816028840160208801613eca565b01602801949350505050565b6001600160a01b039384168152919092166020820152604081019190915260600190565b6001600160a01b0385811682528416602082015260408101839052608060608201819052600090613aa090830184613969565b9695505050505050565b602080825282518282018190526000919060409081850190868401855b82811015613b6357815180518552868101516001600160a01b0390811688870152868201518787015260608083015182169087015260808083015182169087015260a0808301519087015260c08083015115159087015260e08083015190870152610100808301519091169086015261012080820151151590860152610140908101511515908501526101609093019290850190600101613ac7565b5091979650505050505050565b6000602082526111a96020830184613969565b60208082526010908201526f0a0e4d2c6ca40daeae6e840dac2e8c6d60831b604082015260600190565b60208082526032908201527f4552433732313a207472616e7366657220746f206e6f6e20455243373231526560408201527131b2b4bb32b91034b6b83632b6b2b73a32b960711b606082015260800190565b6020808252600f908201526e1d1c985b9cd9995c8811985a5b1959608a1b604082015260600190565b60208082526031908201527f4552433732313a207472616e736665722063616c6c6572206973206e6f74206f6040820152701ddb995c881b9bdc88185c1c1c9bdd9959607a1b606082015260800190565b6020808252601f908201527f5265656e7472616e637947756172643a207265656e7472616e742063616c6c00604082015260600190565b6020808252601c908201527f5072696365206d757374206265206174206c6561737420312077656900000000604082015260600190565b6000808335601e19843603018112613cfd578283fd5b83018035915067ffffffffffffffff821115613d17578283fd5b60200191503681900382131561302257600080fd5b604051601f8201601f1916810167ffffffffffffffff81118282101715613d5557613d55613f9d565b604052919050565b60008219821115613d7057613d70613f71565b500190565b600082613d8457613d84613f87565b500490565b80825b6001808611613d9b575061343b565b818704821115613dad57613dad613f71565b80861615613dba57918102915b9490941c938002613d8c565b60006111a96000198484600082613ddf575060016111a9565b81613dec575060006111a9565b8160018114613e025760028114613e0c57613e39565b60019150506111a9565b60ff841115613e1d57613e1d613f71565b6001841b915084821115613e3357613e33613f71565b506111a9565b5060208310610133831016604e8410600b8410161715613e6c575081810a83811115613e6757613e67613f71565b6111a9565b613e798484846001613d89565b808604821115613e8b57613e8b613f71565b02949350505050565b6000816000190483118215151615613eae57613eae613f71565b500290565b600082821015613ec557613ec5613f71565b500390565b60005b83811015613ee5578181015183820152602001613ecd565b838111156116ce5750506000910152565b600081613f0557613f05613f71565b506000190190565b600181811c90821680613f2157607f821691505b602082108114156135f457634e487b7160e01b600052602260045260246000fd5b6000600019821415613f5657613f56613f71565b5060010190565b600082613f6c57613f6c613f87565b500690565b634e487b7160e01b600052601160045260246000fd5b634e487b7160e01b600052601260045260246000fd5b634e487b7160e01b600052604160045260246000fd5b6001600160a01b0381168114611c6e57600080fd5b8015158114611c6e57600080fd5b6001600160e01b031981168114611c6e57600080fdfea264697066735822122080c38c61f7b7a333bde93c45e06402c180a1c82ec21cb065d4e71ee6bda1ea9664736f6c63430008030033",
  "linkReferences": {},
  "deployedLinkReferences": {}
}