{
  "_format": "hh-sol-artifact-1",
  "contractName": "ERC721FancyMerchant",
  "sourceName": "contracts/ERC721FancyMerchant.sol",
  "abi": [
    {
      "inputs": [
        {
          "internalType": "string",
          "name": "tknName",
          "type": "string"
        },
        {
          "internalType": "string",
          "name": "tknSymbol",
          "type": "string"
        },
        {
          "internalType": "string",
          "name": "domain",
          "type": "string"
        },
        {
          "internalType": "string",
          "name": "version",
          "type": "string"
        },
        {
          "internalType": "address",
          "name": "minter",
          "type": "address"
        }
      ],
      "stateMutability": "nonpayable",
      "type": "constructor"
    },
    {
      "anonymous": false,
      "inputs": [
        {
          "indexed": true,
          "internalType": "address",
          "name": "owner",
          "type": "address"
        },
        {
          "indexed": true,
          "internalType": "address",
          "name": "approved",
          "type": "address"
        },
        {
          "indexed": true,
          "internalType": "uint256",
          "name": "tokenId",
          "type": "uint256"
        }
      ],
      "name": "Approval",
      "type": "event"
    },
    {
      "anonymous": false,
      "inputs": [
        {
          "indexed": true,
          "internalType": "address",
          "name": "owner",
          "type": "address"
        },
        {
          "indexed": true,
          "internalType": "address",
          "name": "operator",
          "type": "address"
        },
        {
          "indexed": false,
          "internalType": "bool",
          "name": "approved",
          "type": "bool"
        }
      ],
      "name": "ApprovalForAll",
      "type": "event"
    },
    {
      "anonymous": true,
      "inputs": [
        {
          "indexed": true,
          "internalType": "bool",
          "name": "listed",
          "type": "bool"
        },
        {
          "indexed": true,
          "internalType": "uint256",
          "name": "price",
          "type": "uint256"
        },
        {
          "indexed": true,
          "internalType": "address",
          "name": "from",
          "type": "address"
        },
        {
          "indexed": true,
          "internalType": "uint256",
          "name": "tokenId",
          "type": "uint256"
        }
      ],
      "name": "ListedNFT",
      "type": "event"
    },
    {
      "anonymous": false,
      "inputs": [
        {
          "indexed": true,
          "internalType": "address",
          "name": "previousOwner",
          "type": "address"
        },
        {
          "indexed": true,
          "internalType": "address",
          "name": "newOwner",
          "type": "address"
        }
      ],
      "name": "OwnershipTransferred",
      "type": "event"
    },
    {
      "anonymous": false,
      "inputs": [
        {
          "indexed": true,
          "internalType": "bytes32",
          "name": "role",
          "type": "bytes32"
        },
        {
          "indexed": true,
          "internalType": "bytes32",
          "name": "previousAdminRole",
          "type": "bytes32"
        },
        {
          "indexed": true,
          "internalType": "bytes32",
          "name": "newAdminRole",
          "type": "bytes32"
        }
      ],
      "name": "RoleAdminChanged",
      "type": "event"
    },
    {
      "anonymous": false,
      "inputs": [
        {
          "indexed": true,
          "internalType": "bytes32",
          "name": "role",
          "type": "bytes32"
        },
        {
          "indexed": true,
          "internalType": "address",
          "name": "account",
          "type": "address"
        },
        {
          "indexed": true,
          "internalType": "address",
          "name": "sender",
          "type": "address"
        }
      ],
      "name": "RoleGranted",
      "type": "event"
    },
    {
      "anonymous": false,
      "inputs": [
        {
          "indexed": true,
          "internalType": "bytes32",
          "name": "role",
          "type": "bytes32"
        },
        {
          "indexed": true,
          "internalType": "address",
          "name": "account",
          "type": "address"
        },
        {
          "indexed": true,
          "internalType": "address",
          "name": "sender",
          "type": "address"
        }
      ],
      "name": "RoleRevoked",
      "type": "event"
    },
    {
      "anonymous": true,
      "inputs": [
        {
          "indexed": true,
          "internalType": "uint256",
          "name": "price",
          "type": "uint256"
        },
        {
          "indexed": true,
          "internalType": "address",
          "name": "from",
          "type": "address"
        },
        {
          "indexed": true,
          "internalType": "address",
          "name": "to",
          "type": "address"
        },
        {
          "indexed": true,
          "internalType": "uint256",
          "name": "tokenId",
          "type": "uint256"
        }
      ],
      "name": "Sale",
      "type": "event"
    },
    {
      "anonymous": false,
      "inputs": [
        {
          "indexed": true,
          "internalType": "address",
          "name": "from",
          "type": "address"
        },
        {
          "indexed": true,
          "internalType": "address",
          "name": "to",
          "type": "address"
        },
        {
          "indexed": true,
          "internalType": "uint256",
          "name": "tokenId",
          "type": "uint256"
        }
      ],
      "name": "Transfer",
      "type": "event"
    },
    {
      "inputs": [],
      "name": "DEFAULT_ADMIN_ROLE",
      "outputs": [
        {
          "internalType": "bytes32",
          "name": "",
          "type": "bytes32"
        }
      ],
      "stateMutability": "view",
      "type": "function"
    },
    {
      "inputs": [],
      "name": "MINTER_ROLE",
      "outputs": [
        {
          "internalType": "bytes32",
          "name": "",
          "type": "bytes32"
        }
      ],
      "stateMutability": "view",
      "type": "function"
    },
    {
      "inputs": [
        {
          "internalType": "address",
          "name": "to",
          "type": "address"
        },
        {
          "internalType": "uint256",
          "name": "tokenId",
          "type": "uint256"
        }
      ],
      "name": "approve",
      "outputs": [],
      "stateMutability": "nonpayable",
      "type": "function"
    },
    {
      "inputs": [
        {
          "internalType": "address",
          "name": "owner",
          "type": "address"
        }
      ],
      "name": "balanceOf",
      "outputs": [
        {
          "internalType": "uint256",
          "name": "",
          "type": "uint256"
        }
      ],
      "stateMutability": "view",
      "type": "function"
    },
    {
      "inputs": [
        {
          "internalType": "address payable",
          "name": "nftOwner",
          "type": "address"
        },
        {
          "internalType": "address payable",
          "name": "nftSeller",
          "type": "address"
        },
        {
          "components": [
            {
              "internalType": "uint256",
              "name": "tokenId",
              "type": "uint256"
            },
            {
              "internalType": "uint256",
              "name": "minPrice",
              "type": "uint256"
            },
            {
              "internalType": "uint256",
              "name": "royalty",
              "type": "uint256"
            },
            {
              "internalType": "address",
              "name": "token",
              "type": "address"
            },
            {
              "internalType": "bool",
              "name": "isNative",
              "type": "bool"
            },
            {
              "internalType": "string",
              "name": "uri",
              "type": "string"
            },
            {
              "internalType": "bytes",
              "name": "signature",
              "type": "bytes"
            }
          ],
          "internalType": "struct ERC721FancyMerchant.NFTVoucher",
          "name": "voucher",
          "type": "tuple"
        }
      ],
      "name": "createMarketItem",
      "outputs": [
        {
          "internalType": "bool",
          "name": "",
          "type": "bool"
        }
      ],
      "stateMutability": "nonpayable",
      "type": "function"
    },
    {
      "inputs": [
        {
          "components": [
            {
              "internalType": "uint256",
              "name": "itemId",
              "type": "uint256"
            },
            {
              "internalType": "address",
              "name": "nftContract",
              "type": "address"
            },
            {
              "internalType": "uint256",
              "name": "tokenId",
              "type": "uint256"
            },
            {
              "internalType": "address payable",
              "name": "seller",
              "type": "address"
            },
            {
              "internalType": "address payable",
              "name": "owner",
              "type": "address"
            },
            {
              "internalType": "uint256",
              "name": "price",
              "type": "uint256"
            },
            {
              "internalType": "bool",
              "name": "forSale",
              "type": "bool"
            },
            {
              "internalType": "uint256",
              "name": "royalty",
              "type": "uint256"
            },
            {
              "internalType": "address",
              "name": "tokenContract",
              "type": "address"
            },
            {
              "internalType": "bool",
              "name": "isNative",
              "type": "bool"
            },
            {
              "internalType": "bool",
              "name": "minted",
              "type": "bool"
            }
          ],
          "internalType": "struct ERC721FancyMerchant.MarketItem",
          "name": "item",
          "type": "tuple"
        }
      ],
      "name": "createSaleCustom",
      "outputs": [
        {
          "internalType": "bool",
          "name": "",
          "type": "bool"
        }
      ],
      "stateMutability": "nonpayable",
      "type": "function"
    },
    {
      "inputs": [],
      "name": "fetchMarketItems",
      "outputs": [
        {
          "components": [
            {
              "internalType": "uint256",
              "name": "itemId",
              "type": "uint256"
            },
            {
              "internalType": "address",
              "name": "nftContract",
              "type": "address"
            },
            {
              "internalType": "uint256",
              "name": "tokenId",
              "type": "uint256"
            },
            {
              "internalType": "address payable",
              "name": "seller",
              "type": "address"
            },
            {
              "internalType": "address payable",
              "name": "owner",
              "type": "address"
            },
            {
              "internalType": "uint256",
              "name": "price",
              "type": "uint256"
            },
            {
              "internalType": "bool",
              "name": "forSale",
              "type": "bool"
            },
            {
              "internalType": "uint256",
              "name": "royalty",
              "type": "uint256"
            },
            {
              "internalType": "address",
              "name": "tokenContract",
              "type": "address"
            },
            {
              "internalType": "bool",
              "name": "isNative",
              "type": "bool"
            },
            {
              "internalType": "bool",
              "name": "minted",
              "type": "bool"
            }
          ],
          "internalType": "struct ERC721FancyMerchant.MarketItem[]",
          "name": "",
          "type": "tuple[]"
        }
      ],
      "stateMutability": "view",
      "type": "function"
    },
    {
      "inputs": [
        {
          "internalType": "uint256",
          "name": "tokenId",
          "type": "uint256"
        }
      ],
      "name": "getApproved",
      "outputs": [
        {
          "internalType": "address",
          "name": "",
          "type": "address"
        }
      ],
      "stateMutability": "view",
      "type": "function"
    },
    {
      "inputs": [],
      "name": "getChainID",
      "outputs": [
        {
          "internalType": "uint256",
          "name": "",
          "type": "uint256"
        }
      ],
      "stateMutability": "view",
      "type": "function"
    },
    {
      "inputs": [
        {
          "internalType": "bytes32",
          "name": "role",
          "type": "bytes32"
        }
      ],
      "name": "getRoleAdmin",
      "outputs": [
        {
          "internalType": "bytes32",
          "name": "",
          "type": "bytes32"
        }
      ],
      "stateMutability": "view",
      "type": "function"
    },
    {
      "inputs": [
        {
          "internalType": "bytes32",
          "name": "role",
          "type": "bytes32"
        },
        {
          "internalType": "address",
          "name": "account",
          "type": "address"
        }
      ],
      "name": "grantRole",
      "outputs": [],
      "stateMutability": "nonpayable",
      "type": "function"
    },
    {
      "inputs": [
        {
          "internalType": "bytes32",
          "name": "role",
          "type": "bytes32"
        },
        {
          "internalType": "address",
          "name": "account",
          "type": "address"
        }
      ],
      "name": "hasRole",
      "outputs": [
        {
          "internalType": "bool",
          "name": "",
          "type": "bool"
        }
      ],
      "stateMutability": "view",
      "type": "function"
    },
    {
      "inputs": [
        {
          "internalType": "address",
          "name": "owner",
          "type": "address"
        },
        {
          "internalType": "address",
          "name": "operator",
          "type": "address"
        }
      ],
      "name": "isApprovedForAll",
      "outputs": [
        {
          "internalType": "bool",
          "name": "",
          "type": "bool"
        }
      ],
      "stateMutability": "view",
      "type": "function"
    },
    {
      "inputs": [
        {
          "components": [
            {
              "internalType": "uint256",
              "name": "tokenId",
              "type": "uint256"
            },
            {
              "internalType": "uint256",
              "name": "minPrice",
              "type": "uint256"
            },
            {
              "internalType": "uint256",
              "name": "royalty",
              "type": "uint256"
            },
            {
              "internalType": "address",
              "name": "token",
              "type": "address"
            },
            {
              "internalType": "bool",
              "name": "isNative",
              "type": "bool"
            },
            {
              "internalType": "string",
              "name": "uri",
              "type": "string"
            },
            {
              "internalType": "bytes",
              "name": "signature",
              "type": "bytes"
            }
          ],
          "internalType": "struct ERC721FancyMerchant.NFTVoucher",
          "name": "voucher",
          "type": "tuple"
        }
      ],
      "name": "mintAndTransferCustom",
      "outputs": [
        {
          "internalType": "bool",
          "name": "",
          "type": "bool"
        }
      ],
      "stateMutability": "nonpayable",
      "type": "function"
    },
    {
      "inputs": [
        {
          "components": [
            {
              "internalType": "uint256",
              "name": "tokenId",
              "type": "uint256"
            },
            {
              "internalType": "uint256",
              "name": "minPrice",
              "type": "uint256"
            },
            {
              "internalType": "uint256",
              "name": "royalty",
              "type": "uint256"
            },
            {
              "internalType": "address",
              "name": "token",
              "type": "address"
            },
            {
              "internalType": "bool",
              "name": "isNative",
              "type": "bool"
            },
            {
              "internalType": "string",
              "name": "uri",
              "type": "string"
            },
            {
              "internalType": "bytes",
              "name": "signature",
              "type": "bytes"
            }
          ],
          "internalType": "struct ERC721FancyMerchant.NFTVoucher",
          "name": "voucher",
          "type": "tuple"
        }
      ],
      "name": "mintNFT",
      "outputs": [
        {
          "internalType": "bool",
          "name": "",
          "type": "bool"
        }
      ],
      "stateMutability": "nonpayable",
      "type": "function"
    },
    {
      "inputs": [],
      "name": "name",
      "outputs": [
        {
          "internalType": "string",
          "name": "",
          "type": "string"
        }
      ],
      "stateMutability": "view",
      "type": "function"
    },
    {
      "inputs": [],
      "name": "owner",
      "outputs": [
        {
          "internalType": "address",
          "name": "",
          "type": "address"
        }
      ],
      "stateMutability": "view",
      "type": "function"
    },
    {
      "inputs": [
        {
          "internalType": "uint256",
          "name": "tokenId",
          "type": "uint256"
        }
      ],
      "name": "ownerOf",
      "outputs": [
        {
          "internalType": "address",
          "name": "",
          "type": "address"
        }
      ],
      "stateMutability": "view",
      "type": "function"
    },
    {
      "inputs": [],
      "name": "renounceOwnership",
      "outputs": [],
      "stateMutability": "nonpayable",
      "type": "function"
    },
    {
      "inputs": [
        {
          "internalType": "bytes32",
          "name": "role",
          "type": "bytes32"
        },
        {
          "internalType": "address",
          "name": "account",
          "type": "address"
        }
      ],
      "name": "renounceRole",
      "outputs": [],
      "stateMutability": "nonpayable",
      "type": "function"
    },
    {
      "inputs": [
        {
          "internalType": "bytes32",
          "name": "role",
          "type": "bytes32"
        },
        {
          "internalType": "address",
          "name": "account",
          "type": "address"
        }
      ],
      "name": "revokeRole",
      "outputs": [],
      "stateMutability": "nonpayable",
      "type": "function"
    },
    {
      "inputs": [
        {
          "internalType": "address",
          "name": "from",
          "type": "address"
        },
        {
          "internalType": "address",
          "name": "to",
          "type": "address"
        },
        {
          "internalType": "uint256",
          "name": "tokenId",
          "type": "uint256"
        }
      ],
      "name": "safeTransferFrom",
      "outputs": [],
      "stateMutability": "nonpayable",
      "type": "function"
    },
    {
      "inputs": [
        {
          "internalType": "address",
          "name": "from",
          "type": "address"
        },
        {
          "internalType": "address",
          "name": "to",
          "type": "address"
        },
        {
          "internalType": "uint256",
          "name": "tokenId",
          "type": "uint256"
        },
        {
          "internalType": "bytes",
          "name": "_data",
          "type": "bytes"
        }
      ],
      "name": "safeTransferFrom",
      "outputs": [],
      "stateMutability": "nonpayable",
      "type": "function"
    },
    {
      "inputs": [
        {
          "internalType": "address",
          "name": "operator",
          "type": "address"
        },
        {
          "internalType": "bool",
          "name": "approved",
          "type": "bool"
        }
      ],
      "name": "setApprovalForAll",
      "outputs": [],
      "stateMutability": "nonpayable",
      "type": "function"
    },
    {
      "inputs": [
        {
          "internalType": "bytes4",
          "name": "interfaceId",
          "type": "bytes4"
        }
      ],
      "name": "supportsInterface",
      "outputs": [
        {
          "internalType": "bool",
          "name": "",
          "type": "bool"
        }
      ],
      "stateMutability": "view",
      "type": "function"
    },
    {
      "inputs": [],
      "name": "symbol",
      "outputs": [
        {
          "internalType": "string",
          "name": "",
          "type": "string"
        }
      ],
      "stateMutability": "view",
      "type": "function"
    },
    {
      "inputs": [
        {
          "internalType": "uint256",
          "name": "tokenId",
          "type": "uint256"
        }
      ],
      "name": "tokenURI",
      "outputs": [
        {
          "internalType": "string",
          "name": "",
          "type": "string"
        }
      ],
      "stateMutability": "view",
      "type": "function"
    },
    {
      "inputs": [
        {
          "internalType": "address",
          "name": "from",
          "type": "address"
        },
        {
          "internalType": "address",
          "name": "to",
          "type": "address"
        },
        {
          "internalType": "uint256",
          "name": "tokenId",
          "type": "uint256"
        }
      ],
      "name": "transferFrom",
      "outputs": [],
      "stateMutability": "nonpayable",
      "type": "function"
    },
    {
      "inputs": [
        {
          "internalType": "address",
          "name": "newOwner",
          "type": "address"
        }
      ],
      "name": "transferOwnership",
      "outputs": [],
      "stateMutability": "nonpayable",
      "type": "function"
    },
    {
      "inputs": [
        {
          "components": [
            {
              "internalType": "uint256",
              "name": "itemId",
              "type": "uint256"
            },
            {
              "internalType": "address",
              "name": "nftContract",
              "type": "address"
            },
            {
              "internalType": "uint256",
              "name": "tokenId",
              "type": "uint256"
            },
            {
              "internalType": "address payable",
              "name": "seller",
              "type": "address"
            },
            {
              "internalType": "address payable",
              "name": "owner",
              "type": "address"
            },
            {
              "internalType": "uint256",
              "name": "price",
              "type": "uint256"
            },
            {
              "internalType": "bool",
              "name": "forSale",
              "type": "bool"
            },
            {
              "internalType": "uint256",
              "name": "royalty",
              "type": "uint256"
            },
            {
              "internalType": "address",
              "name": "tokenContract",
              "type": "address"
            },
            {
              "internalType": "bool",
              "name": "isNative",
              "type": "bool"
            },
            {
              "internalType": "bool",
              "name": "minted",
              "type": "bool"
            }
          ],
          "internalType": "struct ERC721FancyMerchant.MarketItem",
          "name": "item",
          "type": "tuple"
        },
        {
          "internalType": "bool",
          "name": "forSale",
          "type": "bool"
        },
        {
          "internalType": "uint256",
          "name": "price",
          "type": "uint256"
        }
      ],
      "name": "updateItem",
      "outputs": [
        {
          "internalType": "bool",
          "name": "",
          "type": "bool"
        }
      ],
      "stateMutability": "nonpayable",
      "type": "function"
    }
  ],
  "bytecode": "0x6101406040526009805460ff60a01b191690553480156200001f57600080fd5b50604051620040ab380380620040ab8339810160408190526200004291620003e5565b600160008190558551849184918891889162000064919060208501906200028c565b5080516200007a9060029060208401906200028c565b5050825160208085019190912083518483012060e08290526101008190524660a0818152604080517f8b73c3c69bb8fe3d512ecc4cf759cc79239f7b179b0ffacaa9a75d522b39400f81880181905281830187905260608201869052608082019490945230818401528151808203909301835260c0019052805194019390932091935091906080523060601b60c05261012052506200012592506200011f9150503390565b62000186565b6001600160a01b038116156200016757620001617f9f2df0fed2c77648de5860a4cc508cd0818c85b8b8a1ab4ceeef8d981c8956a682620001d8565b6200017b565b6009805460ff60a01b1916600160a01b1790555b50505050506200050f565b600980546001600160a01b038381166001600160a01b0319831681179093556040519116919082907f8be0079c531659141344cd1fd0a4f28419497f9722a3daafe3b4186f6b6457e090600090a35050565b620001e48282620001e8565b5050565b60008281526008602090815260408083206001600160a01b038516845290915290205460ff16620001e45760008281526008602090815260408083206001600160a01b03851684529091529020805460ff19166001179055620002483390565b6001600160a01b0316816001600160a01b0316837f2f8788117e7eff1d82e926ec794901d17c78024a50270940304540a733656f0d60405160405180910390a45050565b8280546200029a90620004bc565b90600052602060002090601f016020900481019282620002be576000855562000309565b82601f10620002d957805160ff191683800117855562000309565b8280016001018555821562000309579182015b8281111562000309578251825591602001919060010190620002ec565b50620003179291506200031b565b5090565b5b808211156200031757600081556001016200031c565b600082601f83011262000343578081fd5b81516001600160401b0380821115620003605762000360620004f9565b604051601f8301601f19908116603f011681019082821181831017156200038b576200038b620004f9565b81604052838152602092508683858801011115620003a7578485fd5b8491505b83821015620003ca5785820183015181830184015290820190620003ab565b83821115620003db57848385830101525b9695505050505050565b600080600080600060a08688031215620003fd578081fd5b85516001600160401b038082111562000414578283fd5b6200042289838a0162000332565b9650602088015191508082111562000438578283fd5b6200044689838a0162000332565b955060408801519150808211156200045c578283fd5b6200046a89838a0162000332565b9450606088015191508082111562000480578283fd5b506200048f8882890162000332565b608088015190935090506001600160a01b0381168114620004ae578182fd5b809150509295509295909350565b600181811c90821680620004d157607f821691505b60208210811415620004f357634e487b7160e01b600052602260045260246000fd5b50919050565b634e487b7160e01b600052604160045260246000fd5b60805160a05160c05160601c60e0516101005161012051613b49620005626000396000612e5201526000612ea101526000612e7c01526000612dd301526000612dfd01526000612e270152613b496000f3fe608060405234801561001057600080fd5b50600436106101da5760003560e01c806370a0823111610104578063a22cb465116100a2578063d539139311610071578063d5391393146103ee578063d547741f14610415578063e985e9c514610428578063f2fde38b14610464576101da565b8063a22cb465146103a2578063b51b9db3146103b5578063b88d4fde146103c8578063c87b56dd146103db576101da565b806391d14854116100de57806391d148541461036c57806395d89b411461037f5780639a02079f14610387578063a217fddf1461039a576101da565b806370a0823114610340578063715018a6146103535780638da5cb5b1461035b576101da565b80632f2ff15d1161017c578063564b81ef1161014b578063564b81ef146103015780635cd74d021461030757806360091f8f1461031a5780636352211e1461032d576101da565b80632f2ff15d146102b557806336568abe146102c857806337fa5d96146102db57806342842e0e146102ee576101da565b8063095ea7b3116101b8578063095ea7b3146102475780630f08efe01461025c57806323b872dd14610271578063248a9ca314610284576101da565b806301ffc9a7146101df57806306fdde0314610207578063081812fc1461021c575b600080fd5b6101f26101ed366004613410565b610477565b60405190151581526020015b60405180910390f35b61020f610499565b6040516101fe91906136f8565b61022f61022a3660046133d4565b61052c565b6040516001600160a01b0390911681526020016101fe565b61025a610255366004613371565b6105b9565b005b6102646106cf565b6040516101fe9190613632565b61025a61027f366004613248565b6108b6565b6102a76102923660046133d4565b60009081526008602052604090206001015490565b6040519081526020016101fe565b61025a6102c33660046133ec565b6108e7565b61025a6102d63660046133ec565b61090e565b6101f26102e9366004613448565b61098c565b61025a6102fc366004613248565b610e58565b466102a7565b6101f26103153660046131b0565b610e73565b6101f2610328366004613464565b61104e565b61022f61033b3660046133d4565b6111b9565b6102a761034e366004613194565b611230565b61025a6112b7565b6009546001600160a01b031661022f565b6101f261037a3660046133ec565b61131d565b61020f611348565b6101f26103953660046134a6565b611357565b6102a7600081565b61025a6103b0366004613344565b6113fc565b6101f26103c33660046134a6565b611407565b61025a6103d6366004613288565b61156a565b61020f6103e93660046133d4565b6115a2565b6102a77f9f2df0fed2c77648de5860a4cc508cd0818c85b8b8a1ab4ceeef8d981c8956a681565b61025a6104233660046133ec565b61171a565b6101f2610436366004613210565b6001600160a01b03918216600090815260066020908152604080832093909416825291909152205460ff1690565b61025a610472366004613194565b611740565b60006104828261180b565b8061049157506104918261185b565b90505b919050565b6060600180546104a890613a34565b80601f01602080910402602001604051908101604052809291908181526020018280546104d490613a34565b80156105215780601f106104f657610100808354040283529160200191610521565b820191906000526020600020905b81548152906001019060200180831161050457829003601f168201915b505050505090505b90565b600061053782611880565b61059d5760405162461bcd60e51b815260206004820152602c60248201527f4552433732313a20617070726f76656420717565727920666f72206e6f6e657860448201526b34b9ba32b73a103a37b5b2b760a11b60648201526084015b60405180910390fd5b506000908152600560205260409020546001600160a01b031690565b60006105c4826111b9565b9050806001600160a01b0316836001600160a01b031614156106325760405162461bcd60e51b815260206004820152602160248201527f4552433732313a20617070726f76616c20746f2063757272656e74206f776e656044820152603960f91b6064820152608401610594565b336001600160a01b038216148061064e575061064e8133610436565b6106c05760405162461bcd60e51b815260206004820152603860248201527f4552433732313a20617070726f76652063616c6c6572206973206e6f74206f7760448201527f6e6572206e6f7220617070726f76656420666f7220616c6c00000000000000006064820152608401610594565b6106ca838361189d565b505050565b606060006106dc600a5490565b90506000808267ffffffffffffffff81111561070857634e487b7160e01b600052604160045260246000fd5b60405190808252806020026020018201604052801561078f57816020015b604080516101608101825260008082526020808301829052928201819052606082018190526080820181905260a0820181905260c0820181905260e082018190526101008201819052610120820181905261014082015282526000199092019101816107265790505b50905060005b838110156108ae5760006107aa826001613884565b6000818152600b60209081526040918290208251610160810184528154815260018201546001600160a01b0390811693820193909352600282015493810193909352600381015482166060840152600481015482166080840152600581015460a0840152600681015460ff908116151560c0850152600782015460e08501526008820154928316610100850152600160a01b830481161515610120850152600160a81b909204909116151561014083015285519293509185908790811061088157634e487b7160e01b600052603260045260246000fd5b6020908102919091010152610897600186613884565b9450505080806108a690613a69565b915050610795565b509250505090565b6108c0338261190b565b6108dc5760405162461bcd60e51b815260040161059490613786565b6106ca8383836119f1565b60008281526008602052604090206001015461090481335b611b91565b6106ca8383611bf5565b6001600160a01b038116331461097e5760405162461bcd60e51b815260206004820152602f60248201527f416363657373436f6e74726f6c3a2063616e206f6e6c792072656e6f756e636560448201526e103937b632b9903337b91039b2b63360891b6064820152608401610594565b6109888282611c7b565b5050565b6000600260005414156109e15760405162461bcd60e51b815260206004820152601f60248201527f5265656e7472616e637947756172643a207265656e7472616e742063616c6c006044820152606401610594565b600260005560a0820151610a075760405162461bcd60e51b8152600401610594906137d7565b81516000908152600b602052604090206005015460a083015114610a605760405162461bcd60e51b815260206004820152601060248201526f0a0e4d2c6ca40daeae6e840dac2e8c6d60831b6044820152606401610594565b81516000908152600b60205260409020600681015460ff161515600114610ab85760405162461bcd60e51b815260206004820152600c60248201526b4e6f7420666f722073616c6560a01b6044820152606401610594565b600073d31c54efd3a4b5e6a993aaa4618d3700a12ff75290506000610ae083600201546111b9565b60048401546008850154600586015460078701549394506001600160a01b039283169392909116916000610b15836003611ce2565b90506000610b238484611ce2565b90506000610b3b85610b368660616139da565b611ce2565b604051636eb1769f60e11b8152336004820152306024820152909150869086906001600160a01b0383169063dd62ed3e9060440160206040518083038186803b158015610b8757600080fd5b505afa158015610b9b573d6000803e3d6000fd5b505050506040513d601f19601f82011682018060405250810190610bbf91906134d9565b1015610c065760405162461bcd60e51b8152602060048201526016602482015275496e73756666696369656e7420416c6c6f77616e636560501b6044820152606401610594565b6040516323b872dd60e01b81526001600160a01b038216906323b872dd90610c369033908d9087906004016135d1565b602060405180830381600087803b158015610c5057600080fd5b505af1158015610c64573d6000803e3d6000fd5b505050506040513d601f19601f82011682018060405250810190610c8891906133b8565b610ca45760405162461bcd60e51b81526004016105949061375d565b6040516323b872dd60e01b81526001600160a01b038216906323b872dd90610cd49033908c9088906004016135d1565b602060405180830381600087803b158015610cee57600080fd5b505af1158015610d02573d6000803e3d6000fd5b505050506040513d601f19601f82011682018060405250810190610d2691906133b8565b610d425760405162461bcd60e51b81526004016105949061375d565b6040516323b872dd60e01b81526001600160a01b038216906323b872dd90610d729033908e9089906004016135d1565b602060405180830381600087803b158015610d8c57600080fd5b505af1158015610da0573d6000803e3d6000fd5b505050506040513d601f19601f82011682018060405250810190610dc491906133b8565b610de05760405162461bcd60e51b81526004016105949061375d565b60028b015460405133906001600160a01b038c16908990600090a4610e0a89338d600201546119f1565b50508a516000908152600b602052604080822060030180546001600160a01b031916331790558c5182529020600601805460ff19169055506001985050505050505050506001600055919050565b6106ca8383836040518060200160405280600081525061156a565b600080826020013511610e985760405162461bcd60e51b8152600401610594906137d7565b610ea6600a80546001019055565b6000610eb1600a5490565b9050604051806101600160405280828152602001306001600160a01b0316815260200184600001358152602001856001600160a01b03168152602001866001600160a01b031681526020018460200135815260200160001515815260200184604001358152602001846060016020810190610f2c9190613194565b6001600160a01b03168152602001610f4a60a086016080870161339c565b15158152600160209182018190526000938452600b8252604093849020835181559183015182820180546001600160a01b03199081166001600160a01b03938416179091559484015160028401556060840151600384018054871691831691909117905560808401516004840180549096169082161790945560a0830151600583015560c083015160068301805460ff191691151591909117905560e083015160078301556101008301516008909201805461012085015161014090950151939095166001600160a81b031990951694909417600160a01b931515939093029290921760ff60a81b1916600160a81b911515919091021790915590505b9392505050565b82516000908152600b60205260408082206002015490850151146110a95760405162461bcd60e51b81526020600482015260126024820152710e8ded6cadc92c840daeae6e840dac2e8c6d60731b6044820152606401610594565b83516000908152600b60205260408120600201546110c6906111b9565b9050336001600160a01b038216146111205760405162461bcd60e51b815260206004820152601860248201527f73656e646572206e6f742070726f7065722073656c6c657200000000000000006044820152606401610594565b600083116111405760405162461bcd60e51b8152600401610594906137d7565b84516000908152600b602052604080822060050185905586518252808220600601805460ff191687151590811790915587518352912060030180546001600160a01b0319166001600160a01b038416179055600114156111ae57604080860151905133908590600190600090a45b506001949350505050565b6000818152600360205260408120546001600160a01b0316806104915760405162461bcd60e51b815260206004820152602960248201527f4552433732313a206f776e657220717565727920666f72206e6f6e657869737460448201526832b73a103a37b5b2b760b91b6064820152608401610594565b60006001600160a01b03821661129b5760405162461bcd60e51b815260206004820152602a60248201527f4552433732313a2062616c616e636520717565727920666f7220746865207a65604482015269726f206164647265737360b01b6064820152608401610594565b506001600160a01b031660009081526004602052604090205490565b6009546001600160a01b031633146113115760405162461bcd60e51b815260206004820181905260248201527f4f776e61626c653a2063616c6c6572206973206e6f7420746865206f776e65726044820152606401610594565b61131b6000611d27565b565b60009182526008602090815260408084206001600160a01b0393909316845291905290205460ff1690565b6060600280546104a890613a34565b6000600260005414156113ac5760405162461bcd60e51b815260206004820152601f60248201527f5265656e7472616e637947756172643a207265656e7472616e742063616c6c006044820152606401610594565b600260005560208201356113d25760405162461bcd60e51b8152600401610594906137d7565b60006113e333846020013585611d79565b90506113f0813385610e73565b60016000559392505050565b610988338383612209565b600954600090600160a01b900460ff16611491576114457f9f2df0fed2c77648de5860a4cc508cd0818c85b8b8a1ab4ceeef8d981c8956a63361131d565b6114915760405162461bcd60e51b815260206004820152601760248201527f696e76616c6964206f7220756e617574686f72697a65640000000000000000006044820152606401610594565b60008260200135116114b55760405162461bcd60e51b8152600401610594906137d7565b6114c03383356122d8565b61150c82356114d260a085018561380e565b8080601f01602080910402602001604051908101604052809392919081815260200183838082843760009201919091525061240b92505050565b6000611519333385610e73565b9050801561156157600061152c600a5490565b6000818152600b60209081526040808320600601805460ff1916600190811790915590519394508735933393928901359290a4505b50600192915050565b611574338361190b565b6115905760405162461bcd60e51b815260040161059490613786565b61159c84848484612496565b50505050565b60606115ad82611880565b6116135760405162461bcd60e51b815260206004820152603160248201527f45524337323155524953746f726167653a2055524920717565727920666f72206044820152703737b732bc34b9ba32b73a103a37b5b2b760791b6064820152608401610594565b6000828152600760205260408120805461162c90613a34565b80601f016020809104026020016040519081016040528092919081815260200182805461165890613a34565b80156116a55780601f1061167a576101008083540402835291602001916116a5565b820191906000526020600020905b81548152906001019060200180831161168857829003601f168201915b5050505050905060006116c360408051602081019091526000815290565b90508051600014156116d757509050610494565b8151156117095780826040516020016116f192919061352d565b60405160208183030381529060405292505050610494565b611712846124c9565b949350505050565b60008281526008602052604090206001015461173681336108ff565b6106ca8383611c7b565b6009546001600160a01b0316331461179a5760405162461bcd60e51b815260206004820181905260248201527f4f776e61626c653a2063616c6c6572206973206e6f7420746865206f776e65726044820152606401610594565b6001600160a01b0381166117ff5760405162461bcd60e51b815260206004820152602660248201527f4f776e61626c653a206e6577206f776e657220697320746865207a65726f206160448201526564647265737360d01b6064820152608401610594565b61180881611d27565b50565b60006001600160e01b031982166380ac58cd60e01b148061183c57506001600160e01b03198216635b5e139f60e01b145b8061049157506301ffc9a760e01b6001600160e01b0319831614610491565b60006001600160e01b03198216637965db0b60e01b148061049157506104918261180b565b6000908152600360205260409020546001600160a01b0316151590565b600081815260056020526040902080546001600160a01b0319166001600160a01b03841690811790915581906118d2826111b9565b6001600160a01b03167f8c5be1e5ebec7d5bd14f71427d1e84f3dd0314c0f7b2291e5b200ac8c7c3b92560405160405180910390a45050565b600061191682611880565b6119775760405162461bcd60e51b815260206004820152602c60248201527f4552433732313a206f70657261746f7220717565727920666f72206e6f6e657860448201526b34b9ba32b73a103a37b5b2b760a11b6064820152608401610594565b6000611982836111b9565b9050806001600160a01b0316846001600160a01b031614806119bd5750836001600160a01b03166119b28461052c565b6001600160a01b0316145b8061171257506001600160a01b0380821660009081526006602090815260408083209388168352929052205460ff16611712565b826001600160a01b0316611a04826111b9565b6001600160a01b031614611a6c5760405162461bcd60e51b815260206004820152602960248201527f4552433732313a207472616e73666572206f6620746f6b656e2074686174206960448201526839903737ba1037bbb760b91b6064820152608401610594565b6001600160a01b038216611ace5760405162461bcd60e51b8152602060048201526024808201527f4552433732313a207472616e7366657220746f20746865207a65726f206164646044820152637265737360e01b6064820152608401610594565b611ad960008261189d565b6001600160a01b0383166000908152600460205260408120805460019290611b029084906139da565b90915550506001600160a01b0382166000908152600460205260408120805460019290611b30908490613884565b909155505060008181526003602052604080822080546001600160a01b0319166001600160a01b0386811691821790925591518493918716917fddf252ad1be2c89b69c2b068fc378daa952ba7f163c4a11628f55a4df523b3ef91a4505050565b611b9b828261131d565b61098857611bb3816001600160a01b031660146125a0565b611bbe8360206125a0565b604051602001611bcf92919061355c565b60408051601f198184030181529082905262461bcd60e51b8252610594916004016136f8565b611bff828261131d565b6109885760008281526008602090815260408083206001600160a01b03851684529091529020805460ff19166001179055611c373390565b6001600160a01b0316816001600160a01b0316837f2f8788117e7eff1d82e926ec794901d17c78024a50270940304540a733656f0d60405160405180910390a45050565b611c85828261131d565b156109885760008281526008602090815260408083206001600160a01b0385168085529252808320805460ff1916905551339285917ff6391f5c32d9c69d2a47ea670b442974b53935d1edc7fd64eb21e047a839171b9190a45050565b600080611d10611cf46002600a6138ed565b611cff9060646139bb565b611d0a866064612782565b9061278e565b90506000611d1e8285612782565b95945050505050565b600980546001600160a01b038381166001600160a01b0319831681179093556040519116919082907f8be0079c531659141344cd1fd0a4f28419497f9722a3daafe3b4186f6b6457e090600090a35050565b600080826020013511611d9e5760405162461bcd60e51b8152600401610594906137d7565b8160200135831015611df25760405162461bcd60e51b815260206004820152601c60248201527f496e73756666696369656e742066756e647320746f2072656465656d000000006044820152606401610594565b73d31c54efd3a4b5e6a993aaa4618d3700a12ff7526000611e128461279a565b600954909150600160a01b900460ff16611ea657611e507f9f2df0fed2c77648de5860a4cc508cd0818c85b8b8a1ab4ceeef8d981c8956a68261131d565b611ea65760405162461bcd60e51b815260206004820152602160248201527f5369676e617475726520696e76616c6964206f7220756e617574686f72697a656044820152601960fa1b6064820152608401610594565b611eb18185356122d8565b611ec384356114d260a087018761380e565b6040518435906001600160a01b038316908790600190600090a46000611eee85602001356061611ce2565b90506000611f0186602001356003611ce2565b9050611f1360a087016080880161339c565b80611f3657506000611f2b6080880160608901613194565b6001600160a01b0316145b15611fae576040516001600160a01b0384169083156108fc029084906000818181858888f19350505050158015611f71573d6000803e3d6000fd5b506040516001600160a01b0385169082156108fc029083906000818181858888f19350505050158015611fa8573d6000803e3d6000fd5b506121d1565b6000611fc06080880160608901613194565b604051636eb1769f60e11b81526001600160a01b038b8116600483015230602483015291925060208901359183169063dd62ed3e9060440160206040518083038186803b15801561201057600080fd5b505afa158015612024573d6000803e3d6000fd5b505050506040513d601f19601f8201168201806040525081019061204891906134d9565b1061218e576040516323b872dd60e01b81526001600160a01b038216906323b872dd9061207d908c90889088906004016135d1565b602060405180830381600087803b15801561209757600080fd5b505af11580156120ab573d6000803e3d6000fd5b505050506040513d601f19601f820116820180604052508101906120cf91906133b8565b6120eb5760405162461bcd60e51b81526004016105949061375d565b6040516323b872dd60e01b81526001600160a01b038216906323b872dd9061211b908c90899087906004016135d1565b602060405180830381600087803b15801561213557600080fd5b505af1158015612149573d6000803e3d6000fd5b505050506040513d601f19601f8201168201806040525081019061216d91906133b8565b6121895760405162461bcd60e51b81526004016105949061375d565b6121cf565b60405162461bcd60e51b8152602060048201526016602482015275496e73756666696369656e7420416c6c6f77616e636560501b6044820152606401610594565b505b6040518635906001600160a01b03808b16919086169060208a013590600090a46121fd838988356119f1565b50909695505050505050565b816001600160a01b0316836001600160a01b0316141561226b5760405162461bcd60e51b815260206004820152601960248201527f4552433732313a20617070726f766520746f2063616c6c6572000000000000006044820152606401610594565b6001600160a01b03838116600081815260066020908152604080832094871680845294825291829020805460ff191686151590811790915591519182527f17307eab39ab6107e8899845ad3d59bd9653f200f220920489ca2b5937696c31910160405180910390a3505050565b6001600160a01b03821661232e5760405162461bcd60e51b815260206004820181905260248201527f4552433732313a206d696e7420746f20746865207a65726f20616464726573736044820152606401610594565b61233781611880565b156123845760405162461bcd60e51b815260206004820152601c60248201527f4552433732313a20746f6b656e20616c7265616479206d696e746564000000006044820152606401610594565b6001600160a01b03821660009081526004602052604081208054600192906123ad908490613884565b909155505060008181526003602052604080822080546001600160a01b0319166001600160a01b03861690811790915590518392907fddf252ad1be2c89b69c2b068fc378daa952ba7f163c4a11628f55a4df523b3ef908290a45050565b61241482611880565b6124775760405162461bcd60e51b815260206004820152602e60248201527f45524337323155524953746f726167653a2055524920736574206f66206e6f6e60448201526d32bc34b9ba32b73a103a37b5b2b760911b6064820152608401610594565b600082815260076020908152604090912082516106ca9284019061300d565b6124a18484846119f1565b6124ad848484846127f3565b61159c5760405162461bcd60e51b81526004016105949061370b565b60606124d482611880565b6125385760405162461bcd60e51b815260206004820152602f60248201527f4552433732314d657461646174613a2055524920717565727920666f72206e6f60448201526e3732bc34b9ba32b73a103a37b5b2b760891b6064820152608401610594565b600061254f60408051602081019091526000815290565b9050600081511161256f5760405180602001604052806000815250611047565b80612579846128f5565b60405160200161258a92919061352d565b6040516020818303038152906040529392505050565b606060006125af8360026139bb565b6125ba906002613884565b67ffffffffffffffff8111156125e057634e487b7160e01b600052604160045260246000fd5b6040519080825280601f01601f19166020018201604052801561260a576020820181803683370190505b509050600360fc1b8160008151811061263357634e487b7160e01b600052603260045260246000fd5b60200101906001600160f81b031916908160001a905350600f60fb1b8160018151811061267057634e487b7160e01b600052603260045260246000fd5b60200101906001600160f81b031916908160001a90535060006126948460026139bb565b61269f906001613884565b90505b6001811115612733576f181899199a1a9b1b9c1cb0b131b232b360811b85600f16601081106126e157634e487b7160e01b600052603260045260246000fd5b1a60f81b82828151811061270557634e487b7160e01b600052603260045260246000fd5b60200101906001600160f81b031916908160001a90535060049490941c9361272c81613a1d565b90506126a2565b5083156110475760405162461bcd60e51b815260206004820181905260248201527f537472696e67733a20686578206c656e67746820696e73756666696369656e746044820152606401610594565b600061104782846139bb565b6000611047828461389c565b6000806127a683612a10565b9050611047816127b960c086018661380e565b8080601f016020809104026020016040519081016040528093929190818152602001838380828437600092019190915250612ae192505050565b60006001600160a01b0384163b156111ae57604051630a85bd0160e11b81526001600160a01b0385169063150b7a02906128379033908990889088906004016135f5565b602060405180830381600087803b15801561285157600080fd5b505af1925050508015612881575060408051601f3d908101601f1916820190925261287e9181019061342c565b60015b6128db573d8080156128af576040519150601f19603f3d011682016040523d82523d6000602084013e6128b4565b606091505b5080516128d35760405162461bcd60e51b81526004016105949061370b565b805181602001fd5b6001600160e01b031916630a85bd0160e11b149050611712565b60608161291a57506040805180820190915260018152600360fc1b6020820152610494565b8160005b8115612944578061292e81613a69565b915061293d9050600a8361389c565b915061291e565b60008167ffffffffffffffff81111561296d57634e487b7160e01b600052604160045260246000fd5b6040519080825280601f01601f191660200182016040528015612997576020820181803683370190505b5090505b8415611712576129ac6001836139da565b91506129b9600a86613a84565b6129c4906030613884565b60f81b8183815181106129e757634e487b7160e01b600052603260045260246000fd5b60200101906001600160f81b031916908160001a905350612a09600a8661389c565b945061299b565b60006104917f66a9f3ee8886973761b2ebb7846666307aadbd0f7882fe4a4800bdd66b397130833560208501356040860135612a526080880160608901613194565b612a6260a0890160808a0161339c565b612a6f60a08a018a61380e565b604051612a7d92919061351d565b604080519182900382206020830198909852810195909552606085019390935260808401919091526001600160a01b031660a0830152151560c082015260e08101919091526101000160405160208183030381529060405280519060200120612b05565b6000806000612af08585612b53565b91509150612afd81612bc3565b509392505050565b6000610491612b12612dc6565b8360405161190160f01b6020820152602281018390526042810182905260009060620160405160208183030381529060405280519060200120905092915050565b600080825160411415612b8a5760208301516040840151606085015160001a612b7e87828585612ef1565b94509450505050612bbc565b825160401415612bb45760208301516040840151612ba9868383612fde565b935093505050612bbc565b506000905060025b9250929050565b6000816004811115612be557634e487b7160e01b600052602160045260246000fd5b1415612bf057611808565b6001816004811115612c1257634e487b7160e01b600052602160045260246000fd5b1415612c605760405162461bcd60e51b815260206004820152601860248201527f45434453413a20696e76616c6964207369676e617475726500000000000000006044820152606401610594565b6002816004811115612c8257634e487b7160e01b600052602160045260246000fd5b1415612cd05760405162461bcd60e51b815260206004820152601f60248201527f45434453413a20696e76616c6964207369676e6174757265206c656e677468006044820152606401610594565b6003816004811115612cf257634e487b7160e01b600052602160045260246000fd5b1415612d4b5760405162461bcd60e51b815260206004820152602260248201527f45434453413a20696e76616c6964207369676e6174757265202773272076616c604482015261756560f01b6064820152608401610594565b6004816004811115612d6d57634e487b7160e01b600052602160045260246000fd5b14156118085760405162461bcd60e51b815260206004820152602260248201527f45434453413a20696e76616c6964207369676e6174757265202776272076616c604482015261756560f01b6064820152608401610594565b6000306001600160a01b037f000000000000000000000000000000000000000000000000000000000000000016148015612e1f57507f000000000000000000000000000000000000000000000000000000000000000046145b15612e4b57507f0000000000000000000000000000000000000000000000000000000000000000610529565b50604080517f00000000000000000000000000000000000000000000000000000000000000006020808301919091527f0000000000000000000000000000000000000000000000000000000000000000828401527f000000000000000000000000000000000000000000000000000000000000000060608301524660808301523060a0808401919091528351808403909101815260c09092019092528051910120610529565b6000807f7fffffffffffffffffffffffffffffff5d576e7357a4501ddfe92f46681b20a0831115612f285750600090506003612fd5565b8460ff16601b14158015612f4057508460ff16601c14155b15612f515750600090506004612fd5565b6040805160008082526020820180845289905260ff881692820192909252606081018690526080810185905260019060a0016020604051602081039080840390855afa158015612fa5573d6000803e3d6000fd5b5050604051601f1901519150506001600160a01b038116612fce57600060019250925050612fd5565b9150600090505b94509492505050565b6000806001600160ff1b03831660ff84901c601b01612fff87828885612ef1565b935093505050935093915050565b82805461301990613a34565b90600052602060002090601f01602090048101928261303b5760008555613081565b82601f1061305457805160ff1916838001178555613081565b82800160010185558215613081579182015b82811115613081578251825591602001919060010190613066565b5061308d929150613091565b5090565b5b8082111561308d5760008155600101613092565b803561049481613ada565b803561049481613aef565b60006101608083850312156130cf578182fd5b6130d881613853565b915050813581526130eb602083016130a6565b602082015260408201356040820152613106606083016130a6565b6060820152613117608083016130a6565b608082015260a082013560a082015261313260c083016130b1565b60c082015260e082013560e082015261010061314f8184016130a6565b908201526101206131618382016130b1565b908201526101406131738382016130b1565b9082015292915050565b600060e0828403121561318e578081fd5b50919050565b6000602082840312156131a5578081fd5b813561104781613ada565b6000806000606084860312156131c4578182fd5b83356131cf81613ada565b925060208401356131df81613ada565b9150604084013567ffffffffffffffff8111156131fa578182fd5b6132068682870161317d565b9150509250925092565b60008060408385031215613222578182fd5b823561322d81613ada565b9150602083013561323d81613ada565b809150509250929050565b60008060006060848603121561325c578283fd5b833561326781613ada565b9250602084013561327781613ada565b929592945050506040919091013590565b6000806000806080858703121561329d578081fd5b84356132a881613ada565b93506020858101356132b981613ada565b935060408601359250606086013567ffffffffffffffff808211156132dc578384fd5b818801915088601f8301126132ef578384fd5b81358181111561330157613301613ac4565b613313601f8201601f19168501613853565b91508082528984828501011115613328578485fd5b8084840185840137810190920192909252939692955090935050565b60008060408385031215613356578182fd5b823561336181613ada565b9150602083013561323d81613aef565b60008060408385031215613383578182fd5b823561338e81613ada565b946020939093013593505050565b6000602082840312156133ad578081fd5b813561104781613aef565b6000602082840312156133c9578081fd5b815161104781613aef565b6000602082840312156133e5578081fd5b5035919050565b600080604083850312156133fe578182fd5b82359150602083013561323d81613ada565b600060208284031215613421578081fd5b813561104781613afd565b60006020828403121561343d578081fd5b815161104781613afd565b6000610160828403121561345a578081fd5b61104783836130bc565b60008060006101a08486031215613479578081fd5b61348385856130bc565b925061016084013561349481613aef565b92959294505050610180919091013590565b6000602082840312156134b7578081fd5b813567ffffffffffffffff8111156134cd578182fd5b6117128482850161317d565b6000602082840312156134ea578081fd5b5051919050565b600081518084526135098160208601602086016139f1565b601f01601f19169290920160200192915050565b6000828483379101908152919050565b6000835161353f8184602088016139f1565b8351908301906135538183602088016139f1565b01949350505050565b60007f416363657373436f6e74726f6c3a206163636f756e7420000000000000000000825283516135948160178501602088016139f1565b7001034b99036b4b9b9b4b733903937b6329607d1b60179184019182015283516135c58160288401602088016139f1565b01602801949350505050565b6001600160a01b039384168152919092166020820152604081019190915260600190565b6001600160a01b0385811682528416602082015260408101839052608060608201819052600090613628908301846134f1565b9695505050505050565b602080825282518282018190526000919060409081850190868401855b828110156136eb57815180518552868101516001600160a01b0390811688870152868201518787015260608083015182169087015260808083015182169087015260a0808301519087015260c08083015115159087015260e0808301519087015261010080830151909116908601526101208082015115159086015261014090810151151590850152610160909301929085019060010161364f565b5091979650505050505050565b60006020825261104760208301846134f1565b60208082526032908201527f4552433732313a207472616e7366657220746f206e6f6e20455243373231526560408201527131b2b4bb32b91034b6b83632b6b2b73a32b960711b606082015260800190565b6020808252600f908201526e1d1c985b9cd9995c8811985a5b1959608a1b604082015260600190565b60208082526031908201527f4552433732313a207472616e736665722063616c6c6572206973206e6f74206f6040820152701ddb995c881b9bdc88185c1c1c9bdd9959607a1b606082015260800190565b6020808252601c908201527f5072696365206d757374206265206174206c6561737420312077656900000000604082015260600190565b6000808335601e19843603018112613824578283fd5b83018035915067ffffffffffffffff82111561383e578283fd5b602001915036819003821315612bbc57600080fd5b604051601f8201601f1916810167ffffffffffffffff8111828210171561387c5761387c613ac4565b604052919050565b6000821982111561389757613897613a98565b500190565b6000826138ab576138ab613aae565b500490565b80825b60018086116138c25750612fd5565b8187048211156138d4576138d4613a98565b808616156138e157918102915b9490941c9380026138b3565b6000611047600019848460008261390657506001611047565b8161391357506000611047565b8160018114613929576002811461393357613960565b6001915050611047565b60ff84111561394457613944613a98565b6001841b91508482111561395a5761395a613a98565b50611047565b5060208310610133831016604e8410600b8410161715613993575081810a8381111561398e5761398e613a98565b611047565b6139a084848460016138b0565b8086048211156139b2576139b2613a98565b02949350505050565b60008160001904831182151516156139d5576139d5613a98565b500290565b6000828210156139ec576139ec613a98565b500390565b60005b83811015613a0c5781810151838201526020016139f4565b8381111561159c5750506000910152565b600081613a2c57613a2c613a98565b506000190190565b600181811c90821680613a4857607f821691505b6020821081141561318e57634e487b7160e01b600052602260045260246000fd5b6000600019821415613a7d57613a7d613a98565b5060010190565b600082613a9357613a93613aae565b500690565b634e487b7160e01b600052601160045260246000fd5b634e487b7160e01b600052601260045260246000fd5b634e487b7160e01b600052604160045260246000fd5b6001600160a01b038116811461180857600080fd5b801515811461180857600080fd5b6001600160e01b03198116811461180857600080fdfea2646970667358221220a927dc4816531603f92f60a5d4b01945b6c0fe9f3cbfcd6485533dca1b8cd19964736f6c63430008030033",
  "linkReferences": {},
  "deployedLinkReferences": {}
}