{
  "_format": "hh-sol-artifact-1",
  "contractName": "ERC721Merchant",
  "sourceName": "contracts/ERC721Merchant/ERC721Merchant.sol",
  "abi": [
    {
      "inputs": [
        {
          "internalType": "string",
          "name": "tknName",
          "type": "string"
        },
        {
          "internalType": "string",
          "name": "tknSymbol",
          "type": "string"
        },
        {
          "internalType": "address",
          "name": "marketplace",
          "type": "address"
        },
        {
          "internalType": "address",
          "name": "royalty",
          "type": "address"
        }
      ],
      "stateMutability": "nonpayable",
      "type": "constructor"
    },
    {
      "anonymous": false,
      "inputs": [
        {
          "indexed": true,
          "internalType": "address",
          "name": "owner",
          "type": "address"
        },
        {
          "indexed": true,
          "internalType": "address",
          "name": "approved",
          "type": "address"
        },
        {
          "indexed": true,
          "internalType": "uint256",
          "name": "tokenId",
          "type": "uint256"
        }
      ],
      "name": "Approval",
      "type": "event"
    },
    {
      "anonymous": false,
      "inputs": [
        {
          "indexed": true,
          "internalType": "address",
          "name": "owner",
          "type": "address"
        },
        {
          "indexed": true,
          "internalType": "address",
          "name": "operator",
          "type": "address"
        },
        {
          "indexed": false,
          "internalType": "bool",
          "name": "approved",
          "type": "bool"
        }
      ],
      "name": "ApprovalForAll",
      "type": "event"
    },
    {
      "anonymous": true,
      "inputs": [
        {
          "indexed": true,
          "internalType": "address",
          "name": "contractId",
          "type": "address"
        },
        {
          "indexed": true,
          "internalType": "uint256",
          "name": "price",
          "type": "uint256"
        },
        {
          "indexed": true,
          "internalType": "address",
          "name": "from",
          "type": "address"
        },
        {
          "indexed": true,
          "internalType": "uint256",
          "name": "tokenId",
          "type": "uint256"
        }
      ],
      "name": "Listed",
      "type": "event"
    },
    {
      "anonymous": false,
      "inputs": [
        {
          "indexed": true,
          "internalType": "bytes32",
          "name": "role",
          "type": "bytes32"
        },
        {
          "indexed": true,
          "internalType": "bytes32",
          "name": "previousAdminRole",
          "type": "bytes32"
        },
        {
          "indexed": true,
          "internalType": "bytes32",
          "name": "newAdminRole",
          "type": "bytes32"
        }
      ],
      "name": "RoleAdminChanged",
      "type": "event"
    },
    {
      "anonymous": false,
      "inputs": [
        {
          "indexed": true,
          "internalType": "bytes32",
          "name": "role",
          "type": "bytes32"
        },
        {
          "indexed": true,
          "internalType": "address",
          "name": "account",
          "type": "address"
        },
        {
          "indexed": true,
          "internalType": "address",
          "name": "sender",
          "type": "address"
        }
      ],
      "name": "RoleGranted",
      "type": "event"
    },
    {
      "anonymous": false,
      "inputs": [
        {
          "indexed": true,
          "internalType": "bytes32",
          "name": "role",
          "type": "bytes32"
        },
        {
          "indexed": true,
          "internalType": "address",
          "name": "account",
          "type": "address"
        },
        {
          "indexed": true,
          "internalType": "address",
          "name": "sender",
          "type": "address"
        }
      ],
      "name": "RoleRevoked",
      "type": "event"
    },
    {
      "anonymous": true,
      "inputs": [
        {
          "indexed": true,
          "internalType": "uint256",
          "name": "price",
          "type": "uint256"
        },
        {
          "indexed": true,
          "internalType": "address",
          "name": "from",
          "type": "address"
        },
        {
          "indexed": true,
          "internalType": "address",
          "name": "to",
          "type": "address"
        },
        {
          "indexed": true,
          "internalType": "uint256",
          "name": "tokenId",
          "type": "uint256"
        }
      ],
      "name": "Sale",
      "type": "event"
    },
    {
      "anonymous": false,
      "inputs": [
        {
          "indexed": true,
          "internalType": "address",
          "name": "from",
          "type": "address"
        },
        {
          "indexed": true,
          "internalType": "address",
          "name": "to",
          "type": "address"
        },
        {
          "indexed": true,
          "internalType": "uint256",
          "name": "tokenId",
          "type": "uint256"
        }
      ],
      "name": "Transfer",
      "type": "event"
    },
    {
      "inputs": [],
      "name": "DEFAULT_ADMIN_ROLE",
      "outputs": [
        {
          "internalType": "bytes32",
          "name": "",
          "type": "bytes32"
        }
      ],
      "stateMutability": "view",
      "type": "function"
    },
    {
      "inputs": [],
      "name": "MINTER_ROLE",
      "outputs": [
        {
          "internalType": "bytes32",
          "name": "",
          "type": "bytes32"
        }
      ],
      "stateMutability": "view",
      "type": "function"
    },
    {
      "inputs": [
        {
          "internalType": "address",
          "name": "to",
          "type": "address"
        },
        {
          "internalType": "uint256",
          "name": "tokenId",
          "type": "uint256"
        }
      ],
      "name": "approve",
      "outputs": [],
      "stateMutability": "nonpayable",
      "type": "function"
    },
    {
      "inputs": [
        {
          "internalType": "address",
          "name": "owner",
          "type": "address"
        }
      ],
      "name": "balanceOf",
      "outputs": [
        {
          "internalType": "uint256",
          "name": "",
          "type": "uint256"
        }
      ],
      "stateMutability": "view",
      "type": "function"
    },
    {
      "inputs": [
        {
          "internalType": "uint256",
          "name": "price",
          "type": "uint256"
        },
        {
          "internalType": "address",
          "name": "from",
          "type": "address"
        },
        {
          "internalType": "uint256",
          "name": "tokenId",
          "type": "uint256"
        }
      ],
      "name": "emitListing",
      "outputs": [],
      "stateMutability": "nonpayable",
      "type": "function"
    },
    {
      "inputs": [
        {
          "internalType": "uint256",
          "name": "price",
          "type": "uint256"
        },
        {
          "internalType": "address",
          "name": "from",
          "type": "address"
        },
        {
          "internalType": "address",
          "name": "to",
          "type": "address"
        },
        {
          "internalType": "uint256",
          "name": "tokenId",
          "type": "uint256"
        }
      ],
      "name": "emitSale",
      "outputs": [],
      "stateMutability": "nonpayable",
      "type": "function"
    },
    {
      "inputs": [
        {
          "internalType": "uint256",
          "name": "tokenId",
          "type": "uint256"
        }
      ],
      "name": "getApproved",
      "outputs": [
        {
          "internalType": "address",
          "name": "",
          "type": "address"
        }
      ],
      "stateMutability": "view",
      "type": "function"
    },
    {
      "inputs": [
        {
          "internalType": "bytes32",
          "name": "role",
          "type": "bytes32"
        }
      ],
      "name": "getRoleAdmin",
      "outputs": [
        {
          "internalType": "bytes32",
          "name": "",
          "type": "bytes32"
        }
      ],
      "stateMutability": "view",
      "type": "function"
    },
    {
      "inputs": [
        {
          "internalType": "bytes32",
          "name": "role",
          "type": "bytes32"
        },
        {
          "internalType": "address",
          "name": "account",
          "type": "address"
        }
      ],
      "name": "grantRole",
      "outputs": [],
      "stateMutability": "nonpayable",
      "type": "function"
    },
    {
      "inputs": [
        {
          "internalType": "bytes32",
          "name": "role",
          "type": "bytes32"
        },
        {
          "internalType": "address",
          "name": "account",
          "type": "address"
        }
      ],
      "name": "hasRole",
      "outputs": [
        {
          "internalType": "bool",
          "name": "",
          "type": "bool"
        }
      ],
      "stateMutability": "view",
      "type": "function"
    },
    {
      "inputs": [
        {
          "internalType": "address",
          "name": "owner",
          "type": "address"
        },
        {
          "internalType": "address",
          "name": "operator",
          "type": "address"
        }
      ],
      "name": "isApprovedForAll",
      "outputs": [
        {
          "internalType": "bool",
          "name": "",
          "type": "bool"
        }
      ],
      "stateMutability": "view",
      "type": "function"
    },
    {
      "inputs": [
        {
          "internalType": "address",
          "name": "minter",
          "type": "address"
        },
        {
          "internalType": "uint256",
          "name": "tokenId",
          "type": "uint256"
        },
        {
          "internalType": "string",
          "name": "uri",
          "type": "string"
        },
        {
          "internalType": "uint96",
          "name": "royalty",
          "type": "uint96"
        }
      ],
      "name": "mint",
      "outputs": [
        {
          "internalType": "bool",
          "name": "",
          "type": "bool"
        }
      ],
      "stateMutability": "nonpayable",
      "type": "function"
    },
    {
      "inputs": [],
      "name": "name",
      "outputs": [
        {
          "internalType": "string",
          "name": "",
          "type": "string"
        }
      ],
      "stateMutability": "view",
      "type": "function"
    },
    {
      "inputs": [
        {
          "internalType": "uint256",
          "name": "tokenId",
          "type": "uint256"
        }
      ],
      "name": "ownerOf",
      "outputs": [
        {
          "internalType": "address",
          "name": "",
          "type": "address"
        }
      ],
      "stateMutability": "view",
      "type": "function"
    },
    {
      "inputs": [
        {
          "internalType": "bytes32",
          "name": "role",
          "type": "bytes32"
        },
        {
          "internalType": "address",
          "name": "account",
          "type": "address"
        }
      ],
      "name": "renounceRole",
      "outputs": [],
      "stateMutability": "nonpayable",
      "type": "function"
    },
    {
      "inputs": [
        {
          "internalType": "bytes32",
          "name": "role",
          "type": "bytes32"
        },
        {
          "internalType": "address",
          "name": "account",
          "type": "address"
        }
      ],
      "name": "revokeRole",
      "outputs": [],
      "stateMutability": "nonpayable",
      "type": "function"
    },
    {
      "inputs": [
        {
          "internalType": "uint256",
          "name": "_tokenId",
          "type": "uint256"
        },
        {
          "internalType": "uint256",
          "name": "_salePrice",
          "type": "uint256"
        }
      ],
      "name": "royaltyInfo",
      "outputs": [
        {
          "internalType": "address",
          "name": "",
          "type": "address"
        },
        {
          "internalType": "uint256",
          "name": "",
          "type": "uint256"
        }
      ],
      "stateMutability": "view",
      "type": "function"
    },
    {
      "inputs": [],
      "name": "royaltyReceiver",
      "outputs": [
        {
          "internalType": "address",
          "name": "",
          "type": "address"
        }
      ],
      "stateMutability": "view",
      "type": "function"
    },
    {
      "inputs": [
        {
          "internalType": "address",
          "name": "from",
          "type": "address"
        },
        {
          "internalType": "address",
          "name": "to",
          "type": "address"
        },
        {
          "internalType": "uint256",
          "name": "tokenId",
          "type": "uint256"
        }
      ],
      "name": "safeTransferFrom",
      "outputs": [],
      "stateMutability": "nonpayable",
      "type": "function"
    },
    {
      "inputs": [
        {
          "internalType": "address",
          "name": "from",
          "type": "address"
        },
        {
          "internalType": "address",
          "name": "to",
          "type": "address"
        },
        {
          "internalType": "uint256",
          "name": "tokenId",
          "type": "uint256"
        },
        {
          "internalType": "bytes",
          "name": "_data",
          "type": "bytes"
        }
      ],
      "name": "safeTransferFrom",
      "outputs": [],
      "stateMutability": "nonpayable",
      "type": "function"
    },
    {
      "inputs": [
        {
          "internalType": "address",
          "name": "operator",
          "type": "address"
        },
        {
          "internalType": "bool",
          "name": "approved",
          "type": "bool"
        }
      ],
      "name": "setApprovalForAll",
      "outputs": [],
      "stateMutability": "nonpayable",
      "type": "function"
    },
    {
      "inputs": [
        {
          "internalType": "bytes4",
          "name": "interfaceId",
          "type": "bytes4"
        }
      ],
      "name": "supportsInterface",
      "outputs": [
        {
          "internalType": "bool",
          "name": "",
          "type": "bool"
        }
      ],
      "stateMutability": "view",
      "type": "function"
    },
    {
      "inputs": [],
      "name": "symbol",
      "outputs": [
        {
          "internalType": "string",
          "name": "",
          "type": "string"
        }
      ],
      "stateMutability": "view",
      "type": "function"
    },
    {
      "inputs": [
        {
          "internalType": "uint256",
          "name": "index",
          "type": "uint256"
        }
      ],
      "name": "tokenByIndex",
      "outputs": [
        {
          "internalType": "uint256",
          "name": "",
          "type": "uint256"
        }
      ],
      "stateMutability": "view",
      "type": "function"
    },
    {
      "inputs": [
        {
          "internalType": "uint256",
          "name": "tokenId",
          "type": "uint256"
        }
      ],
      "name": "tokenURI",
      "outputs": [
        {
          "internalType": "string",
          "name": "",
          "type": "string"
        }
      ],
      "stateMutability": "view",
      "type": "function"
    },
    {
      "inputs": [],
      "name": "totalSupply",
      "outputs": [
        {
          "internalType": "uint256",
          "name": "",
          "type": "uint256"
        }
      ],
      "stateMutability": "view",
      "type": "function"
    },
    {
      "inputs": [
        {
          "internalType": "address",
          "name": "from",
          "type": "address"
        },
        {
          "internalType": "address",
          "name": "to",
          "type": "address"
        },
        {
          "internalType": "uint256",
          "name": "tokenId",
          "type": "uint256"
        }
      ],
      "name": "transferFrom",
      "outputs": [],
      "stateMutability": "nonpayable",
      "type": "function"
    }
  ],
  "bytecode": "0x60806040523480156200001157600080fd5b50604051620028a9380380620028a98339810160408190526200003491620003d9565b8351849084906200004d90600090602085019062000263565b5080516200006390600190602084019062000263565b5050600d80546001600160a01b0319166001600160a01b038416179055506200009c6000805160206200288983398151915233620000ce565b620000b76000805160206200288983398151915283620000ce565b620000c4826001620000de565b50505050620004b8565b620000da8282620000eb565b5050565b620000da3383836200018f565b60008281526009602090815260408083206001600160a01b038516845290915290205460ff16620000da5760008281526009602090815260408083206001600160a01b03851684529091529020805460ff191660011790556200014b3390565b6001600160a01b0316816001600160a01b0316837f2f8788117e7eff1d82e926ec794901d17c78024a50270940304540a733656f0d60405160405180910390a45050565b816001600160a01b0316836001600160a01b03161415620001f65760405162461bcd60e51b815260206004820152601960248201527f4552433732313a20617070726f766520746f2063616c6c657200000000000000604482015260640160405180910390fd5b6001600160a01b03838116600081815260056020908152604080832094871680845294825291829020805460ff191686151590811790915591519182527f17307eab39ab6107e8899845ad3d59bd9653f200f220920489ca2b5937696c31910160405180910390a3505050565b828054620002719062000465565b90600052602060002090601f016020900481019282620002955760008555620002e0565b82601f10620002b057805160ff1916838001178555620002e0565b82800160010185558215620002e0579182015b82811115620002e0578251825591602001919060010190620002c3565b50620002ee929150620002f2565b5090565b5b80821115620002ee5760008155600101620002f3565b80516001600160a01b03811681146200032157600080fd5b919050565b600082601f83011262000337578081fd5b81516001600160401b0380821115620003545762000354620004a2565b604051601f8301601f19908116603f011681019082821181831017156200037f576200037f620004a2565b816040528381526020925086838588010111156200039b578485fd5b8491505b83821015620003be57858201830151818301840152908201906200039f565b83821115620003cf57848385830101525b9695505050505050565b60008060008060808587031215620003ef578384fd5b84516001600160401b038082111562000406578586fd5b620004148883890162000326565b955060208701519150808211156200042a578485fd5b50620004398782880162000326565b9350506200044a6040860162000309565b91506200045a6060860162000309565b905092959194509250565b600181811c908216806200047a57607f821691505b602082108114156200049c57634e487b7160e01b600052602260045260246000fd5b50919050565b634e487b7160e01b600052604160045260246000fd5b6123c180620004c86000396000f3fe608060405234801561001057600080fd5b50600436106101a95760003560e01c806370a08231116100f9578063a2b929ea11610097578063d539139311610071578063d5391393146103aa578063d547741f146103d1578063e985e9c5146103e4578063fcb156ac146103f7576101a9565b8063a2b929ea14610371578063b88d4fde14610384578063c87b56dd14610397576101a9565b80639841aa75116100d35780639841aa75146103325780639fbc871314610345578063a217fddf14610356578063a22cb4651461035e576101a9565b806370a082311461030457806391d148541461031757806395d89b411461032a576101a9565b8063248a9ca31161016657806336568abe1161014057806336568abe146102b857806342842e0e146102cb5780634f6ccce7146102de5780636352211e146102f1576101a9565b8063248a9ca3146102505780632a55205a146102735780632f2ff15d146102a5576101a9565b806301ffc9a7146101ae57806306fdde03146101d6578063081812fc146101eb578063095ea7b31461021657806318160ddd1461022b57806323b872dd1461023d575b600080fd5b6101c16101bc366004611f9e565b61040a565b60405190151581526020015b60405180910390f35b6101de61042c565b6040516101cd919061216b565b6101fe6101f9366004611f64565b6104be565b6040516001600160a01b0390911681526020016101cd565b610229610224366004611eb5565b61054b565b005b600c545b6040519081526020016101cd565b61022961024b366004611dc7565b610661565b61022f61025e366004611f64565b60009081526009602052604090206001015490565b61028661028136600461203d565b610692565b604080516001600160a01b0390931683526020830191909152016101cd565b6102296102b3366004611f7c565b61073e565b6102296102c6366004611f7c565b610765565b6102296102d9366004611dc7565b6107e3565b61022f6102ec366004611f64565b6107fe565b6101fe6102ff366004611f64565b61089f565b61022f610312366004611d7b565b610916565b6101c1610325366004611f7c565b61099d565b6101de6109c8565b610229610340366004611fd6565b6109d7565b600d546001600160a01b03166101fe565b61022f600081565b61022961036c366004611e7b565b610a50565b6101c161037f366004611ede565b610a5b565b610229610392366004611e02565b610b0b565b6101de6103a5366004611f64565b610b43565b61022f7f9f2df0fed2c77648de5860a4cc508cd0818c85b8b8a1ab4ceeef8d981c8956a681565b6102296103df366004611f7c565b610cb3565b6101c16103f2366004611d95565b610cd9565b610229610405366004612019565b610d07565b600061041582610d76565b80610424575061042482610dc6565b90505b919050565b60606000805461043b906122c6565b80601f0160208091040260200160405190810160405280929190818152602001828054610467906122c6565b80156104b45780601f10610489576101008083540402835291602001916104b4565b820191906000526020600020905b81548152906001019060200180831161049757829003601f168201915b5050505050905090565b60006104c982610deb565b61052f5760405162461bcd60e51b815260206004820152602c60248201527f4552433732313a20617070726f76656420717565727920666f72206e6f6e657860448201526b34b9ba32b73a103a37b5b2b760a11b60648201526084015b60405180910390fd5b506000908152600460205260409020546001600160a01b031690565b60006105568261089f565b9050806001600160a01b0316836001600160a01b031614156105c45760405162461bcd60e51b815260206004820152602160248201527f4552433732313a20617070726f76616c20746f2063757272656e74206f776e656044820152603960f91b6064820152608401610526565b336001600160a01b03821614806105e057506105e081336103f2565b6106525760405162461bcd60e51b815260206004820152603860248201527f4552433732313a20617070726f76652063616c6c6572206973206e6f74206f7760448201527f6e6572206e6f7220617070726f76656420666f7220616c6c00000000000000006064820152608401610526565b61065c8383610e08565b505050565b61066b3382610e76565b6106875760405162461bcd60e51b8152600401610526906121d0565b61065c838383610f38565b60008281526008602090815260408083208151808301909252546001600160a01b038116808352600160a01b9091046001600160601b03169282019290925282916107075750604080518082019091526007546001600160a01b0381168252600160a01b90046001600160601b031660208201525b602081015160009061271090610726906001600160601b03168761224d565b6107309190612239565b915196919550909350505050565b60008281526009602052604090206001015461075b81335b6110df565b61065c8383611143565b6001600160a01b03811633146107d55760405162461bcd60e51b815260206004820152602f60248201527f416363657373436f6e74726f6c3a2063616e206f6e6c792072656e6f756e636560448201526e103937b632b9903337b91039b2b63360891b6064820152608401610526565b6107df82826111c9565b5050565b61065c83838360405180602001604052806000815250610b0b565b6000610809600c5490565b821061086c5760405162461bcd60e51b815260206004820152602c60248201527f455243373231456e756d657261626c653a20676c6f62616c20696e646578206f60448201526b7574206f6620626f756e647360a01b6064820152608401610526565b600c828154811061088d57634e487b7160e01b600052603260045260246000fd5b90600052602060002001549050919050565b6000818152600260205260408120546001600160a01b0316806104245760405162461bcd60e51b815260206004820152602960248201527f4552433732313a206f776e657220717565727920666f72206e6f6e657869737460448201526832b73a103a37b5b2b760b91b6064820152608401610526565b60006001600160a01b0382166109815760405162461bcd60e51b815260206004820152602a60248201527f4552433732313a2062616c616e636520717565727920666f7220746865207a65604482015269726f206164647265737360b01b6064820152608401610526565b506001600160a01b031660009081526003602052604090205490565b60009182526009602090815260408084206001600160a01b0393909316845291905290205460ff1690565b60606001805461043b906122c6565b6109e18233610cd9565b610a295760405162461bcd60e51b8152602060048201526019602482015278139bdd08105c1c1c9bdd9959081d1bc81b1bd9c8195d995b9d603a1b6044820152606401610526565b80826001600160a01b0316846001600160a01b03168660405160405180910390a450505050565b6107df338383611230565b6000610a877f9f2df0fed2c77648de5860a4cc508cd0818c85b8b8a1ab4ceeef8d981c8956a63361099d565b610ad35760405162461bcd60e51b815260206004820152601e60248201527f696e76616c6964206f7220756e617574686f72697a65642063616c6c657200006044820152606401610526565b610add85856112ff565b610ae7848461143f565b600d54610aff9085906001600160a01b0316846114ca565b5060015b949350505050565b610b153383610e76565b610b315760405162461bcd60e51b8152600401610526906121d0565b610b3d848484846115d8565b50505050565b6060610b4e82610deb565b610bb45760405162461bcd60e51b815260206004820152603160248201527f45524337323155524953746f726167653a2055524920717565727920666f72206044820152703737b732bc34b9ba32b73a103a37b5b2b760791b6064820152608401610526565b60008281526006602052604081208054610bcd906122c6565b80601f0160208091040260200160405190810160405280929190818152602001828054610bf9906122c6565b8015610c465780601f10610c1b57610100808354040283529160200191610c46565b820191906000526020600020905b815481529060010190602001808311610c2957829003601f168201915b505050505090506000610c6460408051602081019091526000815290565b9050805160001415610c7857509050610427565b815115610caa578082604051602001610c9292919061208a565b60405160208183030381529060405292505050610427565b610b038461160b565b600082815260096020526040902060010154610ccf8133610756565b61065c83836111c9565b6001600160a01b03918216600090815260056020908152604080832093909416825291909152205460ff1690565b610d118233610cd9565b610d595760405162461bcd60e51b8152602060048201526019602482015278139bdd08105c1c1c9bdd9959081d1bc81b1bd9c8195d995b9d603a1b6044820152606401610526565b60405181906001600160a01b0384169085903090600090a4505050565b60006001600160e01b031982166380ac58cd60e01b1480610da757506001600160e01b03198216635b5e139f60e01b145b8061042457506301ffc9a760e01b6001600160e01b0319831614610424565b60006001600160e01b03198216637965db0b60e01b14806104245750610424826116e3565b6000908152600260205260409020546001600160a01b0316151590565b600081815260046020526040902080546001600160a01b0319166001600160a01b0384169081179091558190610e3d8261089f565b6001600160a01b03167f8c5be1e5ebec7d5bd14f71427d1e84f3dd0314c0f7b2291e5b200ac8c7c3b92560405160405180910390a45050565b6000610e8182610deb565b610ee25760405162461bcd60e51b815260206004820152602c60248201527f4552433732313a206f70657261746f7220717565727920666f72206e6f6e657860448201526b34b9ba32b73a103a37b5b2b760a11b6064820152608401610526565b6000610eed8361089f565b9050806001600160a01b0316846001600160a01b03161480610f285750836001600160a01b0316610f1d846104be565b6001600160a01b0316145b80610b035750610b038185610cd9565b826001600160a01b0316610f4b8261089f565b6001600160a01b031614610faf5760405162461bcd60e51b815260206004820152602560248201527f4552433732313a207472616e736665722066726f6d20696e636f72726563742060448201526437bbb732b960d91b6064820152608401610526565b6001600160a01b0382166110115760405162461bcd60e51b8152602060048201526024808201527f4552433732313a207472616e7366657220746f20746865207a65726f206164646044820152637265737360e01b6064820152608401610526565b61101c838383611708565b611027600082610e08565b6001600160a01b038316600090815260036020526040812080546001929061105090849061226c565b90915550506001600160a01b038216600090815260036020526040812080546001929061107e908490612221565b909155505060008181526002602052604080822080546001600160a01b0319166001600160a01b0386811691821790925591518493918716917fddf252ad1be2c89b69c2b068fc378daa952ba7f163c4a11628f55a4df523b3ef91a461065c565b6110e9828261099d565b6107df57611101816001600160a01b03166014611775565b61110c836020611775565b60405160200161111d9291906120b9565b60408051601f198184030181529082905262461bcd60e51b82526105269160040161216b565b61114d828261099d565b6107df5760008281526009602090815260408083206001600160a01b03851684529091529020805460ff191660011790556111853390565b6001600160a01b0316816001600160a01b0316837f2f8788117e7eff1d82e926ec794901d17c78024a50270940304540a733656f0d60405160405180910390a45050565b6111d3828261099d565b156107df5760008281526009602090815260408083206001600160a01b0385168085529252808320805460ff1916905551339285917ff6391f5c32d9c69d2a47ea670b442974b53935d1edc7fd64eb21e047a839171b9190a45050565b816001600160a01b0316836001600160a01b031614156112925760405162461bcd60e51b815260206004820152601960248201527f4552433732313a20617070726f766520746f2063616c6c6572000000000000006044820152606401610526565b6001600160a01b03838116600081815260056020908152604080832094871680845294825291829020805460ff191686151590811790915591519182527f17307eab39ab6107e8899845ad3d59bd9653f200f220920489ca2b5937696c31910160405180910390a3505050565b6001600160a01b0382166113555760405162461bcd60e51b815260206004820181905260248201527f4552433732313a206d696e7420746f20746865207a65726f20616464726573736044820152606401610526565b61135e81610deb565b156113ab5760405162461bcd60e51b815260206004820152601c60248201527f4552433732313a20746f6b656e20616c7265616479206d696e746564000000006044820152606401610526565b6113b760008383611708565b6001600160a01b03821660009081526003602052604081208054600192906113e0908490612221565b909155505060008181526002602052604080822080546001600160a01b0319166001600160a01b03861690811790915590518392907fddf252ad1be2c89b69c2b068fc378daa952ba7f163c4a11628f55a4df523b3ef908290a46107df565b61144882610deb565b6114ab5760405162461bcd60e51b815260206004820152602e60248201527f45524337323155524953746f726167653a2055524920736574206f66206e6f6e60448201526d32bc34b9ba32b73a103a37b5b2b760911b6064820152608401610526565b6000828152600660209081526040909120825161065c92840190611c55565b6127106001600160601b03821611156115385760405162461bcd60e51b815260206004820152602a60248201527f455243323938313a20726f79616c7479206665652077696c6c206578636565646044820152692073616c65507269636560b01b6064820152608401610526565b6001600160a01b03821661158e5760405162461bcd60e51b815260206004820152601b60248201527f455243323938313a20496e76616c696420706172616d657465727300000000006044820152606401610526565b6040805180820182526001600160a01b0393841681526001600160601b0392831660208083019182526000968752600890529190942093519051909116600160a01b029116179055565b6115e3848484610f38565b6115ef84848484611957565b610b3d5760405162461bcd60e51b81526004016105269061217e565b606061161682610deb565b61167a5760405162461bcd60e51b815260206004820152602f60248201527f4552433732314d657461646174613a2055524920717565727920666f72206e6f60448201526e3732bc34b9ba32b73a103a37b5b2b760891b6064820152608401610526565b600061169160408051602081019091526000815290565b905060008151116116b157604051806020016040528060008152506116dc565b806116bb84611a61565b6040516020016116cc92919061208a565b6040516020818303038152906040525b9392505050565b60006001600160e01b0319821663152a902d60e11b1480610424575061042482610d76565b6001600160a01b03831661175e5761175e81600c80546000838152600b60205260408120829055600182018355919091527fdf6966c971051c3d54ec59162606531493a51404a002842f56009d7e5cf4a8c70155565b6001600160a01b03821661065c5761065c81611b7c565b6060600061178483600261224d565b61178f906002612221565b67ffffffffffffffff8111156117b557634e487b7160e01b600052604160045260246000fd5b6040519080825280601f01601f1916602001820160405280156117df576020820181803683370190505b509050600360fc1b8160008151811061180857634e487b7160e01b600052603260045260246000fd5b60200101906001600160f81b031916908160001a905350600f60fb1b8160018151811061184557634e487b7160e01b600052603260045260246000fd5b60200101906001600160f81b031916908160001a905350600061186984600261224d565b611874906001612221565b90505b6001811115611908576f181899199a1a9b1b9c1cb0b131b232b360811b85600f16601081106118b657634e487b7160e01b600052603260045260246000fd5b1a60f81b8282815181106118da57634e487b7160e01b600052603260045260246000fd5b60200101906001600160f81b031916908160001a90535060049490941c93611901816122af565b9050611877565b5083156116dc5760405162461bcd60e51b815260206004820181905260248201527f537472696e67733a20686578206c656e67746820696e73756666696369656e746044820152606401610526565b60006001600160a01b0384163b15611a5957604051630a85bd0160e11b81526001600160a01b0385169063150b7a029061199b90339089908890889060040161212e565b602060405180830381600087803b1580156119b557600080fd5b505af19250505080156119e5575060408051601f3d908101601f191682019092526119e291810190611fba565b60015b611a3f573d808015611a13576040519150601f19603f3d011682016040523d82523d6000602084013e611a18565b606091505b508051611a375760405162461bcd60e51b81526004016105269061217e565b805181602001fd5b6001600160e01b031916630a85bd0160e11b149050610b03565b506001610b03565b606081611a8657506040805180820190915260018152600360fc1b6020820152610427565b8160005b8115611ab05780611a9a81612301565b9150611aa99050600a83612239565b9150611a8a565b60008167ffffffffffffffff811115611ad957634e487b7160e01b600052604160045260246000fd5b6040519080825280601f01601f191660200182016040528015611b03576020820181803683370190505b5090505b8415610b0357611b1860018361226c565b9150611b25600a8661231c565b611b30906030612221565b60f81b818381518110611b5357634e487b7160e01b600052603260045260246000fd5b60200101906001600160f81b031916908160001a905350611b75600a86612239565b9450611b07565b600c54600090611b8e9060019061226c565b6000838152600b6020526040812054600c8054939450909284908110611bc457634e487b7160e01b600052603260045260246000fd5b9060005260206000200154905080600c8381548110611bf357634e487b7160e01b600052603260045260246000fd5b6000918252602080832090910192909255828152600b9091526040808220849055858252812055600c805480611c3957634e487b7160e01b600052603160045260246000fd5b6001900381819060005260206000200160009055905550505050565b828054611c61906122c6565b90600052602060002090601f016020900481019282611c835760008555611cc9565b82601f10611c9c57805160ff1916838001178555611cc9565b82800160010185558215611cc9579182015b82811115611cc9578251825591602001919060010190611cae565b50611cd5929150611cd9565b5090565b5b80821115611cd55760008155600101611cda565b600067ffffffffffffffff80841115611d0957611d0961235c565b604051601f8501601f19908116603f01168101908282118183101715611d3157611d3161235c565b81604052809350858152868686011115611d4a57600080fd5b858560208301376000602087830101525050509392505050565b80356001600160a01b038116811461042757600080fd5b600060208284031215611d8c578081fd5b6116dc82611d64565b60008060408385031215611da7578081fd5b611db083611d64565b9150611dbe60208401611d64565b90509250929050565b600080600060608486031215611ddb578081fd5b611de484611d64565b9250611df260208501611d64565b9150604084013590509250925092565b60008060008060808587031215611e17578081fd5b611e2085611d64565b9350611e2e60208601611d64565b925060408501359150606085013567ffffffffffffffff811115611e50578182fd5b8501601f81018713611e60578182fd5b611e6f87823560208401611cee565b91505092959194509250565b60008060408385031215611e8d578182fd5b611e9683611d64565b915060208301358015158114611eaa578182fd5b809150509250929050565b60008060408385031215611ec7578182fd5b611ed083611d64565b946020939093013593505050565b60008060008060808587031215611ef3578384fd5b611efc85611d64565b935060208501359250604085013567ffffffffffffffff811115611f1e578283fd5b8501601f81018713611f2e578283fd5b611f3d87823560208401611cee565b92505060608501356001600160601b0381168114611f59578182fd5b939692955090935050565b600060208284031215611f75578081fd5b5035919050565b60008060408385031215611f8e578182fd5b82359150611dbe60208401611d64565b600060208284031215611faf578081fd5b81356116dc81612372565b600060208284031215611fcb578081fd5b81516116dc81612372565b60008060008060808587031215611feb578182fd5b84359350611ffb60208601611d64565b925061200960408601611d64565b9396929550929360600135925050565b60008060006060848603121561202d578081fd5b83359250611df260208501611d64565b6000806040838503121561204f578182fd5b50508035926020909101359150565b60008151808452612076816020860160208601612283565b601f01601f19169290920160200192915050565b6000835161209c818460208801612283565b8351908301906120b0818360208801612283565b01949350505050565b60007f416363657373436f6e74726f6c3a206163636f756e7420000000000000000000825283516120f1816017850160208801612283565b7001034b99036b4b9b9b4b733903937b6329607d1b6017918401918201528351612122816028840160208801612283565b01602801949350505050565b6001600160a01b03858116825284166020820152604081018390526080606082018190526000906121619083018461205e565b9695505050505050565b6000602082526116dc602083018461205e565b60208082526032908201527f4552433732313a207472616e7366657220746f206e6f6e20455243373231526560408201527131b2b4bb32b91034b6b83632b6b2b73a32b960711b606082015260800190565b60208082526031908201527f4552433732313a207472616e736665722063616c6c6572206973206e6f74206f6040820152701ddb995c881b9bdc88185c1c1c9bdd9959607a1b606082015260800190565b6000821982111561223457612234612330565b500190565b60008261224857612248612346565b500490565b600081600019048311821515161561226757612267612330565b500290565b60008282101561227e5761227e612330565b500390565b60005b8381101561229e578181015183820152602001612286565b83811115610b3d5750506000910152565b6000816122be576122be612330565b506000190190565b600181811c908216806122da57607f821691505b602082108114156122fb57634e487b7160e01b600052602260045260246000fd5b50919050565b600060001982141561231557612315612330565b5060010190565b60008261232b5761232b612346565b500690565b634e487b7160e01b600052601160045260246000fd5b634e487b7160e01b600052601260045260246000fd5b634e487b7160e01b600052604160045260246000fd5b6001600160e01b03198116811461238857600080fd5b5056fea26469706673582212205bee85a3e0121fa6b12184f76945029cc57991926cc1cbb24d8f3f7f79d2fb6f64736f6c634300080300339f2df0fed2c77648de5860a4cc508cd0818c85b8b8a1ab4ceeef8d981c8956a6",
  "linkReferences": {},
  "deployedLinkReferences": {}
}