{
  "_format": "hh-sol-artifact-1",
  "contractName": "ERC721Merchant",
  "sourceName": "contracts/ERC721Merchant/ERC721Merchant.sol",
  "abi": [
    {
      "inputs": [
        {
          "internalType": "string",
          "name": "tknName",
          "type": "string"
        },
        {
          "internalType": "string",
          "name": "tknSymbol",
          "type": "string"
        },
        {
          "internalType": "address",
          "name": "marketplace",
          "type": "address"
        },
        {
          "internalType": "address",
          "name": "royalty",
          "type": "address"
        }
      ],
      "stateMutability": "nonpayable",
      "type": "constructor"
    },
    {
      "anonymous": false,
      "inputs": [
        {
          "indexed": true,
          "internalType": "address",
          "name": "owner",
          "type": "address"
        },
        {
          "indexed": true,
          "internalType": "address",
          "name": "approved",
          "type": "address"
        },
        {
          "indexed": true,
          "internalType": "uint256",
          "name": "tokenId",
          "type": "uint256"
        }
      ],
      "name": "Approval",
      "type": "event"
    },
    {
      "anonymous": false,
      "inputs": [
        {
          "indexed": true,
          "internalType": "address",
          "name": "owner",
          "type": "address"
        },
        {
          "indexed": true,
          "internalType": "address",
          "name": "operator",
          "type": "address"
        },
        {
          "indexed": false,
          "internalType": "bool",
          "name": "approved",
          "type": "bool"
        }
      ],
      "name": "ApprovalForAll",
      "type": "event"
    },
    {
      "anonymous": false,
      "inputs": [
        {
          "indexed": true,
          "internalType": "bytes32",
          "name": "role",
          "type": "bytes32"
        },
        {
          "indexed": true,
          "internalType": "bytes32",
          "name": "previousAdminRole",
          "type": "bytes32"
        },
        {
          "indexed": true,
          "internalType": "bytes32",
          "name": "newAdminRole",
          "type": "bytes32"
        }
      ],
      "name": "RoleAdminChanged",
      "type": "event"
    },
    {
      "anonymous": false,
      "inputs": [
        {
          "indexed": true,
          "internalType": "bytes32",
          "name": "role",
          "type": "bytes32"
        },
        {
          "indexed": true,
          "internalType": "address",
          "name": "account",
          "type": "address"
        },
        {
          "indexed": true,
          "internalType": "address",
          "name": "sender",
          "type": "address"
        }
      ],
      "name": "RoleGranted",
      "type": "event"
    },
    {
      "anonymous": false,
      "inputs": [
        {
          "indexed": true,
          "internalType": "bytes32",
          "name": "role",
          "type": "bytes32"
        },
        {
          "indexed": true,
          "internalType": "address",
          "name": "account",
          "type": "address"
        },
        {
          "indexed": true,
          "internalType": "address",
          "name": "sender",
          "type": "address"
        }
      ],
      "name": "RoleRevoked",
      "type": "event"
    },
    {
      "anonymous": false,
      "inputs": [
        {
          "indexed": true,
          "internalType": "address",
          "name": "from",
          "type": "address"
        },
        {
          "indexed": true,
          "internalType": "address",
          "name": "to",
          "type": "address"
        },
        {
          "indexed": true,
          "internalType": "uint256",
          "name": "tokenId",
          "type": "uint256"
        }
      ],
      "name": "Transfer",
      "type": "event"
    },
    {
      "inputs": [],
      "name": "DEFAULT_ADMIN_ROLE",
      "outputs": [
        {
          "internalType": "bytes32",
          "name": "",
          "type": "bytes32"
        }
      ],
      "stateMutability": "view",
      "type": "function"
    },
    {
      "inputs": [],
      "name": "MINTER_ROLE",
      "outputs": [
        {
          "internalType": "bytes32",
          "name": "",
          "type": "bytes32"
        }
      ],
      "stateMutability": "view",
      "type": "function"
    },
    {
      "inputs": [
        {
          "internalType": "address",
          "name": "to",
          "type": "address"
        },
        {
          "internalType": "uint256",
          "name": "tokenId",
          "type": "uint256"
        }
      ],
      "name": "approve",
      "outputs": [],
      "stateMutability": "nonpayable",
      "type": "function"
    },
    {
      "inputs": [
        {
          "internalType": "address",
          "name": "owner",
          "type": "address"
        }
      ],
      "name": "balanceOf",
      "outputs": [
        {
          "internalType": "uint256",
          "name": "",
          "type": "uint256"
        }
      ],
      "stateMutability": "view",
      "type": "function"
    },
    {
      "inputs": [
        {
          "internalType": "uint256",
          "name": "tokenId",
          "type": "uint256"
        }
      ],
      "name": "getApproved",
      "outputs": [
        {
          "internalType": "address",
          "name": "",
          "type": "address"
        }
      ],
      "stateMutability": "view",
      "type": "function"
    },
    {
      "inputs": [
        {
          "internalType": "uint256",
          "name": "tokenId",
          "type": "uint256"
        },
        {
          "internalType": "uint256",
          "name": "id",
          "type": "uint256"
        },
        {
          "internalType": "uint32",
          "name": "startDate",
          "type": "uint32"
        },
        {
          "internalType": "uint32",
          "name": "endDate",
          "type": "uint32"
        }
      ],
      "name": "getData",
      "outputs": [
        {
          "components": [
            {
              "internalType": "uint256",
              "name": "date",
              "type": "uint256"
            },
            {
              "internalType": "uint256[]",
              "name": "data",
              "type": "uint256[]"
            }
          ],
          "internalType": "struct IERC721Merchant.DataBlock[]",
          "name": "",
          "type": "tuple[]"
        }
      ],
      "stateMutability": "view",
      "type": "function"
    },
    {
      "inputs": [
        {
          "internalType": "bytes32",
          "name": "role",
          "type": "bytes32"
        }
      ],
      "name": "getRoleAdmin",
      "outputs": [
        {
          "internalType": "bytes32",
          "name": "",
          "type": "bytes32"
        }
      ],
      "stateMutability": "view",
      "type": "function"
    },
    {
      "inputs": [
        {
          "internalType": "bytes32",
          "name": "role",
          "type": "bytes32"
        },
        {
          "internalType": "address",
          "name": "account",
          "type": "address"
        }
      ],
      "name": "grantRole",
      "outputs": [],
      "stateMutability": "nonpayable",
      "type": "function"
    },
    {
      "inputs": [
        {
          "internalType": "bytes32",
          "name": "role",
          "type": "bytes32"
        },
        {
          "internalType": "address",
          "name": "account",
          "type": "address"
        }
      ],
      "name": "hasRole",
      "outputs": [
        {
          "internalType": "bool",
          "name": "",
          "type": "bool"
        }
      ],
      "stateMutability": "view",
      "type": "function"
    },
    {
      "inputs": [
        {
          "internalType": "address",
          "name": "customer",
          "type": "address"
        },
        {
          "internalType": "uint256",
          "name": "id",
          "type": "uint256"
        }
      ],
      "name": "hideData",
      "outputs": [
        {
          "internalType": "bool",
          "name": "",
          "type": "bool"
        }
      ],
      "stateMutability": "nonpayable",
      "type": "function"
    },
    {
      "inputs": [
        {
          "internalType": "address",
          "name": "owner",
          "type": "address"
        },
        {
          "internalType": "address",
          "name": "operator",
          "type": "address"
        }
      ],
      "name": "isApprovedForAll",
      "outputs": [
        {
          "internalType": "bool",
          "name": "",
          "type": "bool"
        }
      ],
      "stateMutability": "view",
      "type": "function"
    },
    {
      "inputs": [
        {
          "internalType": "address",
          "name": "minter",
          "type": "address"
        },
        {
          "internalType": "address",
          "name": "receiver",
          "type": "address"
        },
        {
          "internalType": "uint256",
          "name": "tokenId",
          "type": "uint256"
        },
        {
          "internalType": "string",
          "name": "uri",
          "type": "string"
        },
        {
          "internalType": "uint96",
          "name": "royalty",
          "type": "uint96"
        },
        {
          "internalType": "string",
          "name": "authCode",
          "type": "string"
        }
      ],
      "name": "mint",
      "outputs": [
        {
          "internalType": "bool",
          "name": "",
          "type": "bool"
        }
      ],
      "stateMutability": "nonpayable",
      "type": "function"
    },
    {
      "inputs": [],
      "name": "name",
      "outputs": [
        {
          "internalType": "string",
          "name": "",
          "type": "string"
        }
      ],
      "stateMutability": "view",
      "type": "function"
    },
    {
      "inputs": [
        {
          "internalType": "uint256",
          "name": "tokenId",
          "type": "uint256"
        }
      ],
      "name": "ownerOf",
      "outputs": [
        {
          "internalType": "address",
          "name": "",
          "type": "address"
        }
      ],
      "stateMutability": "view",
      "type": "function"
    },
    {
      "inputs": [
        {
          "internalType": "bytes32",
          "name": "role",
          "type": "bytes32"
        },
        {
          "internalType": "address",
          "name": "account",
          "type": "address"
        }
      ],
      "name": "renounceRole",
      "outputs": [],
      "stateMutability": "nonpayable",
      "type": "function"
    },
    {
      "inputs": [
        {
          "internalType": "bytes32",
          "name": "role",
          "type": "bytes32"
        },
        {
          "internalType": "address",
          "name": "account",
          "type": "address"
        }
      ],
      "name": "revokeRole",
      "outputs": [],
      "stateMutability": "nonpayable",
      "type": "function"
    },
    {
      "inputs": [
        {
          "internalType": "uint256",
          "name": "_tokenId",
          "type": "uint256"
        },
        {
          "internalType": "uint256",
          "name": "_salePrice",
          "type": "uint256"
        }
      ],
      "name": "royaltyInfo",
      "outputs": [
        {
          "internalType": "address",
          "name": "",
          "type": "address"
        },
        {
          "internalType": "uint256",
          "name": "",
          "type": "uint256"
        }
      ],
      "stateMutability": "view",
      "type": "function"
    },
    {
      "inputs": [],
      "name": "royaltyReceiver",
      "outputs": [
        {
          "internalType": "address",
          "name": "",
          "type": "address"
        }
      ],
      "stateMutability": "view",
      "type": "function"
    },
    {
      "inputs": [
        {
          "internalType": "address",
          "name": "from",
          "type": "address"
        },
        {
          "internalType": "address",
          "name": "to",
          "type": "address"
        },
        {
          "internalType": "uint256",
          "name": "tokenId",
          "type": "uint256"
        }
      ],
      "name": "safeTransferFrom",
      "outputs": [],
      "stateMutability": "nonpayable",
      "type": "function"
    },
    {
      "inputs": [
        {
          "internalType": "address",
          "name": "from",
          "type": "address"
        },
        {
          "internalType": "address",
          "name": "to",
          "type": "address"
        },
        {
          "internalType": "uint256",
          "name": "tokenId",
          "type": "uint256"
        },
        {
          "internalType": "bytes",
          "name": "_data",
          "type": "bytes"
        }
      ],
      "name": "safeTransferFrom",
      "outputs": [],
      "stateMutability": "nonpayable",
      "type": "function"
    },
    {
      "inputs": [
        {
          "internalType": "address",
          "name": "operator",
          "type": "address"
        },
        {
          "internalType": "bool",
          "name": "approved",
          "type": "bool"
        }
      ],
      "name": "setApprovalForAll",
      "outputs": [],
      "stateMutability": "nonpayable",
      "type": "function"
    },
    {
      "inputs": [
        {
          "internalType": "uint256[]",
          "name": "data",
          "type": "uint256[]"
        },
        {
          "internalType": "uint256[]",
          "name": "metadata",
          "type": "uint256[]"
        }
      ],
      "name": "setData",
      "outputs": [
        {
          "internalType": "bool",
          "name": "",
          "type": "bool"
        }
      ],
      "stateMutability": "nonpayable",
      "type": "function"
    },
    {
      "inputs": [
        {
          "internalType": "bytes4",
          "name": "interfaceId",
          "type": "bytes4"
        }
      ],
      "name": "supportsInterface",
      "outputs": [
        {
          "internalType": "bool",
          "name": "",
          "type": "bool"
        }
      ],
      "stateMutability": "view",
      "type": "function"
    },
    {
      "inputs": [],
      "name": "symbol",
      "outputs": [
        {
          "internalType": "string",
          "name": "",
          "type": "string"
        }
      ],
      "stateMutability": "view",
      "type": "function"
    },
    {
      "inputs": [
        {
          "internalType": "uint256",
          "name": "index",
          "type": "uint256"
        }
      ],
      "name": "tokenByIndex",
      "outputs": [
        {
          "internalType": "uint256",
          "name": "",
          "type": "uint256"
        }
      ],
      "stateMutability": "view",
      "type": "function"
    },
    {
      "inputs": [
        {
          "internalType": "uint256",
          "name": "tokenId",
          "type": "uint256"
        }
      ],
      "name": "tokenURI",
      "outputs": [
        {
          "internalType": "string",
          "name": "",
          "type": "string"
        }
      ],
      "stateMutability": "view",
      "type": "function"
    },
    {
      "inputs": [],
      "name": "totalSupply",
      "outputs": [
        {
          "internalType": "uint256",
          "name": "",
          "type": "uint256"
        }
      ],
      "stateMutability": "view",
      "type": "function"
    },
    {
      "inputs": [
        {
          "internalType": "address",
          "name": "customer",
          "type": "address"
        },
        {
          "internalType": "uint256",
          "name": "tokenId",
          "type": "uint256"
        },
        {
          "internalType": "string",
          "name": "authCode",
          "type": "string"
        }
      ],
      "name": "transfer",
      "outputs": [
        {
          "internalType": "bool",
          "name": "",
          "type": "bool"
        }
      ],
      "stateMutability": "nonpayable",
      "type": "function"
    },
    {
      "inputs": [
        {
          "internalType": "address",
          "name": "from",
          "type": "address"
        },
        {
          "internalType": "address",
          "name": "to",
          "type": "address"
        },
        {
          "internalType": "uint256",
          "name": "tokenId",
          "type": "uint256"
        }
      ],
      "name": "transferFrom",
      "outputs": [],
      "stateMutability": "nonpayable",
      "type": "function"
    },
    {
      "inputs": [
        {
          "internalType": "uint256",
          "name": "tokenId",
          "type": "uint256"
        },
        {
          "internalType": "string",
          "name": "authCode",
          "type": "string"
        }
      ],
      "name": "updateAuthCode",
      "outputs": [
        {
          "internalType": "bool",
          "name": "",
          "type": "bool"
        }
      ],
      "stateMutability": "nonpayable",
      "type": "function"
    }
  ],
  "bytecode": "0x60806040523480156200001157600080fd5b50604051620032c4380380620032c48339810160408190526200003491620003de565b8351849084906200004d90600090602085019062000268565b5080516200006390600190602084019062000268565b50506001600a5550601380546001600160a01b0319166001600160a01b038316179055620000a1600080516020620032a483398151915233620000d3565b620000bc600080516020620032a483398151915283620000d3565b620000c9826001620000e3565b50505050620004bd565b620000df8282620000f0565b5050565b620000df33838362000194565b60008281526009602090815260408083206001600160a01b038516845290915290205460ff16620000df5760008281526009602090815260408083206001600160a01b03851684529091529020805460ff19166001179055620001503390565b6001600160a01b0316816001600160a01b0316837f2f8788117e7eff1d82e926ec794901d17c78024a50270940304540a733656f0d60405160405180910390a45050565b816001600160a01b0316836001600160a01b03161415620001fb5760405162461bcd60e51b815260206004820152601960248201527f4552433732313a20617070726f766520746f2063616c6c657200000000000000604482015260640160405180910390fd5b6001600160a01b03838116600081815260056020908152604080832094871680845294825291829020805460ff191686151590811790915591519182527f17307eab39ab6107e8899845ad3d59bd9653f200f220920489ca2b5937696c31910160405180910390a3505050565b82805462000276906200046a565b90600052602060002090601f0160209004810192826200029a5760008555620002e5565b82601f10620002b557805160ff1916838001178555620002e5565b82800160010185558215620002e5579182015b82811115620002e5578251825591602001919060010190620002c8565b50620002f3929150620002f7565b5090565b5b80821115620002f35760008155600101620002f8565b80516001600160a01b03811681146200032657600080fd5b919050565b600082601f8301126200033c578081fd5b81516001600160401b0380821115620003595762000359620004a7565b604051601f8301601f19908116603f01168101908282118183101715620003845762000384620004a7565b81604052838152602092508683858801011115620003a0578485fd5b8491505b83821015620003c35785820183015181830184015290820190620003a4565b83821115620003d457848385830101525b9695505050505050565b60008060008060808587031215620003f4578384fd5b84516001600160401b03808211156200040b578586fd5b62000419888389016200032b565b955060208701519150808211156200042f578485fd5b506200043e878288016200032b565b9350506200044f604086016200030e565b91506200045f606086016200030e565b905092959194509250565b600181811c908216806200047f57607f821691505b60208210811415620004a157634e487b7160e01b600052602260045260246000fd5b50919050565b634e487b7160e01b600052604160045260246000fd5b612dd780620004cd6000396000f3fe608060405234801561001057600080fd5b50600436106101da5760003560e01c80636352211e11610104578063a217fddf116100a2578063c87b56dd11610071578063c87b56dd14610421578063d539139314610434578063d547741f14610449578063e985e9c51461045c576101da565b8063a217fddf146103d3578063a22cb465146103db578063b88d4fde146103ee578063bd22a2fa14610401576101da565b80637d35e9b1116100de5780637d35e9b11461039457806391d14854146103a757806395d89b41146103ba5780639fbc8713146103c2576101da565b80636352211e1461035b57806370a082311461036e57806377fbb78414610381576101da565b8063248a9ca31161017c57806342842e0e1161014b57806342842e0e1461030f5780634f6ccce71461032257806356b8c724146103355780635fd6e73314610348576101da565b8063248a9ca3146102945780632a55205a146102b75780632f2ff15d146102e957806336568abe146102fc576101da565b8063095ea7b3116101b8578063095ea7b31461024757806311f6c63a1461025c57806318160ddd1461026f57806323b872dd14610281576101da565b806301ffc9a7146101df57806306fdde0314610207578063081812fc1461021c575b600080fd5b6101f26101ed3660046127dc565b610498565b60405190151581526020015b60405180910390f35b61020f6104ba565b6040516101fe9190612b04565b61022f61022a3660046127a2565b61054c565b6040516001600160a01b0390911681526020016101fe565b61025a6102553660046126bb565b6105d9565b005b6101f261026a366004612814565b6106ef565b6012545b6040519081526020016101fe565b61025a61028f366004612523565b6107ef565b6102736102a23660046127a2565b60009081526009602052604090206001015490565b6102ca6102c5366004612859565b610820565b604080516001600160a01b0390931683526020830191909152016101fe565b61025a6102f73660046127ba565b6108ce565b61025a61030a3660046127ba565b6108f5565b61025a61031d366004612523565b610973565b6102736103303660046127a2565b61098e565b6101f26103433660046126e4565b610a2f565b6101f2610356366004612739565b610b28565b61022f6103693660046127a2565b610c47565b61027361037c3660046124d7565b610cbe565b6101f261038f3660046126bb565b610d45565b6101f26103a23660046125d7565b610de0565b6101f26103b53660046127ba565b610e7a565b61020f610ea5565b6013546001600160a01b031661022f565b610273600081565b61025a6103e9366004612681565b610eb4565b61025a6103fc36600461255e565b610ebf565b61041461040f36600461287a565b610ef7565b6040516101fe9190612a67565b61020f61042f3660046127a2565b611205565b610273600080516020612d8283398151915281565b61025a6104573660046127ba565b611375565b6101f261046a3660046124f1565b6001600160a01b03918216600090815260056020908152604080832093909416825291909152205460ff1690565b60006104a38261139b565b806104b257506104b2826113eb565b90505b919050565b6060600080546104c990612cbc565b80601f01602080910402602001604051908101604052809291908181526020018280546104f590612cbc565b80156105425780601f1061051757610100808354040283529160200191610542565b820191906000526020600020905b81548152906001019060200180831161052557829003601f168201915b5050505050905090565b600061055782611410565b6105bd5760405162461bcd60e51b815260206004820152602c60248201527f4552433732313a20617070726f76656420717565727920666f72206e6f6e657860448201526b34b9ba32b73a103a37b5b2b760a11b60648201526084015b60405180910390fd5b506000908152600460205260409020546001600160a01b031690565b60006105e482610c47565b9050806001600160a01b0316836001600160a01b031614156106525760405162461bcd60e51b815260206004820152602160248201527f4552433732313a20617070726f76616c20746f2063757272656e74206f776e656044820152603960f91b60648201526084016105b4565b336001600160a01b038216148061066e575061066e813361046a565b6106e05760405162461bcd60e51b815260206004820152603860248201527f4552433732313a20617070726f76652063616c6c6572206973206e6f74206f7760448201527f6e6572206e6f7220617070726f76656420666f7220616c6c000000000000000060648201526084016105b4565b6106ea838361142d565b505050565b60006002600a5414156107145760405162461bcd60e51b81526004016105b490612be0565b6002600a55610731600080516020612d8283398151915233610e7a565b61074d5760405162461bcd60e51b81526004016105b490612b17565b6000838152600d602052604090819020905161076991906128eb565b604080519182900382206020830190915260009091527fc5d2460186f7233c927e7db2dcc703c0e500b653ca82273b7bfad8045d85a470146107d95760405162461bcd60e51b81526020600482015260096024820152684175746820436f646560b81b60448201526064016105b4565b6107e3838361149b565b6001600a559392505050565b6107f933826114c3565b6108155760405162461bcd60e51b81526004016105b490612b8f565b6106ea8383836115a9565b60008281526008602090815260408083208151808301909252546001600160a01b038116808352600160a01b9091046001600160601b03169282019290925282916108955750604080518082019091526007546001600160a01b0381168252600160a01b90046001600160601b031660208201525b6020810151600090612710906108b4906001600160601b031687612c43565b6108be9190612c2f565b91519350909150505b9250929050565b6000828152600960205260409020600101546108eb81335b611750565b6106ea83836117b4565b6001600160a01b03811633146109655760405162461bcd60e51b815260206004820152602f60248201527f416363657373436f6e74726f6c3a2063616e206f6e6c792072656e6f756e636560448201526e103937b632b9903337b91039b2b63360891b60648201526084016105b4565b61096f828261183a565b5050565b6106ea83838360405180602001604052806000815250610ebf565b600061099960125490565b82106109fc5760405162461bcd60e51b815260206004820152602c60248201527f455243373231456e756d657261626c653a20676c6f62616c20696e646578206f60448201526b7574206f6620626f756e647360a01b60648201526084016105b4565b60128281548110610a1d57634e487b7160e01b600052603260045260246000fd5b90600052602060002001549050919050565b60006002600a541415610a545760405162461bcd60e51b81526004016105b490612be0565b6002600a55610a71600080516020612d8283398151915233610e7a565b610a8d5760405162461bcd60e51b81526004016105b490612b17565b6000838152600d6020526040908190209051610aa991906128eb565b6040518091039020828051906020012014610af35760405162461bcd60e51b815260206004820152600a60248201526957726f6e6720436f646560b01b60448201526064016105b4565b610afe338585610973565b610b17836040518060200160405280600081525061149b565b50600190506001600a559392505050565b60006002600a541415610b4d5760405162461bcd60e51b81526004016105b490612be0565b6002600a55610b6a600080516020612d8283398151915233610e7a565b610b865760405162461bcd60e51b81526004016105b490612b17565b604051806040016040528042815260200186868080602002602001604051908101604052809392919081815260200183836020028082843760009201829052509390945250506011548152600e6020908152604090912083518155838201518051919350610bfb9260018501929101906122c6565b509050508282600f6000610c0e60115490565b81526020019081526020016000209190610c29929190612311565b50610c38601180546001019055565b50600180600a55949350505050565b6000818152600260205260408120546001600160a01b0316806104b25760405162461bcd60e51b815260206004820152602960248201527f4552433732313a206f776e657220717565727920666f72206e6f6e657869737460448201526832b73a103a37b5b2b760b91b60648201526084016105b4565b60006001600160a01b038216610d295760405162461bcd60e51b815260206004820152602a60248201527f4552433732313a2062616c616e636520717565727920666f7220746865207a65604482015269726f206164647265737360b01b60648201526084016105b4565b506001600160a01b031660009081526003602052604090205490565b60006002600a541415610d6a5760405162461bcd60e51b81526004016105b490612be0565b6002600a55610d87600080516020612d8283398151915233610e7a565b610da35760405162461bcd60e51b81526004016105b490612b17565b600082815260106020526040902080546001600160a01b0319166001600160a01b03851617905560118054600101905550600180600a5592915050565b60006002600a541415610e055760405162461bcd60e51b81526004016105b490612be0565b6002600a55610e22600080516020612d8283398151915233610e7a565b610e3e5760405162461bcd60e51b81526004016105b490612b17565b610e4887866118a1565b610e5285856119e1565b610e5d858785611a6c565b6000610e69868461149b565b6001600a5598975050505050505050565b60009182526009602090815260408084206001600160a01b0393909316845291905290205460ff1690565b6060600180546104c990612cbc565b61096f338383611b7a565b610ec933836114c3565b610ee55760405162461bcd60e51b81526004016105b490612b8f565b610ef184848484611c49565b50505050565b606033610f0386610c47565b6001600160a01b031614610f295760405162461bcd60e51b81526004016105b490612b17565b6000610f3460115490565b90506000808267ffffffffffffffff811115610f6057634e487b7160e01b600052604160045260246000fd5b604051908082528060200260200182016040528015610fa657816020015b604080518082019091526000815260606020820152815260200190600190039081610f7e5790505b50905060005b838110156111f75763ffffffff8716600e6000610fca846001612c17565b81526020019081526020016000206000015410158015611010575063ffffffff8616600e6000610ffb846001612c17565b81526020019081526020016000206000015411155b156111e5576000611022826001612c17565b90506000600e6000838152602001908152602001600020604051806040016040529081600082015481526020016001820180548060200260200160405190810160405280929190818152602001828054801561109d57602002820191906000526020600020905b815481526020019060010190808311611089575b505050505081525050905060005b6000838152600f60205260409020548110156111a8576000838152600f6020526040812080546010918391859081106110f457634e487b7160e01b600052603260045260246000fd5b600091825260208083209091015483528201929092526040019020546001600160a01b031614158061116057506000838152600f6020526040902080548c91908390811061115257634e487b7160e01b600052603260045260246000fd5b906000526020600020015414155b15611196578160200151818151811061118957634e487b7160e01b600052603260045260246000fd5b6020026020010160008152505b806111a081612cf7565b9150506110ab565b50808486815181106111ca57634e487b7160e01b600052603260045260246000fd5b60209081029190910101526111e0600186612c17565b945050505b806111ef81612cf7565b915050610fac565b50925050505b949350505050565b606061121082611410565b6112765760405162461bcd60e51b815260206004820152603160248201527f45524337323155524953746f726167653a2055524920717565727920666f72206044820152703737b732bc34b9ba32b73a103a37b5b2b760791b60648201526084016105b4565b6000828152600660205260408120805461128f90612cbc565b80601f01602080910402602001604051908101604052809291908181526020018280546112bb90612cbc565b80156113085780601f106112dd57610100808354040283529160200191611308565b820191906000526020600020905b8154815290600101906020018083116112eb57829003601f168201915b50505050509050600061132660408051602081019091526000815290565b905080516000141561133a575090506104b5565b81511561136c578082604051602001611354929190612986565b604051602081830303815290604052925050506104b5565b6111fd84611c7c565b60008281526009602052604090206001015461139181336108e6565b6106ea838361183a565b60006001600160e01b031982166380ac58cd60e01b14806113cc57506001600160e01b03198216635b5e139f60e01b145b806104b257506301ffc9a760e01b6001600160e01b03198316146104b2565b60006001600160e01b03198216637965db0b60e01b14806104b257506104b282611d54565b6000908152600260205260409020546001600160a01b0316151590565b600081815260046020526040902080546001600160a01b0319166001600160a01b038416908117909155819061146282610c47565b6001600160a01b03167f8c5be1e5ebec7d5bd14f71427d1e84f3dd0314c0f7b2291e5b200ac8c7c3b92560405160405180910390a45050565b6000828152600d60209081526040822083516114b99285019061234c565b5060019392505050565b60006114ce82611410565b61152f5760405162461bcd60e51b815260206004820152602c60248201527f4552433732313a206f70657261746f7220717565727920666f72206e6f6e657860448201526b34b9ba32b73a103a37b5b2b760a11b60648201526084016105b4565b600061153a83610c47565b9050806001600160a01b0316846001600160a01b031614806115755750836001600160a01b031661156a8461054c565b6001600160a01b0316145b806111fd57506001600160a01b0380821660009081526005602090815260408083209388168352929052205460ff166111fd565b826001600160a01b03166115bc82610c47565b6001600160a01b0316146116205760405162461bcd60e51b815260206004820152602560248201527f4552433732313a207472616e736665722066726f6d20696e636f72726563742060448201526437bbb732b960d91b60648201526084016105b4565b6001600160a01b0382166116825760405162461bcd60e51b8152602060048201526024808201527f4552433732313a207472616e7366657220746f20746865207a65726f206164646044820152637265737360e01b60648201526084016105b4565b61168d838383611d79565b61169860008261142d565b6001600160a01b03831660009081526003602052604081208054600192906116c1908490612c62565b90915550506001600160a01b03821660009081526003602052604081208054600192906116ef908490612c17565b909155505060008181526002602052604080822080546001600160a01b0319166001600160a01b0386811691821790925591518493918716917fddf252ad1be2c89b69c2b068fc378daa952ba7f163c4a11628f55a4df523b3ef91a46106ea565b61175a8282610e7a565b61096f57611772816001600160a01b03166014611de6565b61177d836020611de6565b60405160200161178e9291906129b5565b60408051601f198184030181529082905262461bcd60e51b82526105b491600401612b04565b6117be8282610e7a565b61096f5760008281526009602090815260408083206001600160a01b03851684529091529020805460ff191660011790556117f63390565b6001600160a01b0316816001600160a01b0316837f2f8788117e7eff1d82e926ec794901d17c78024a50270940304540a733656f0d60405160405180910390a45050565b6118448282610e7a565b1561096f5760008281526009602090815260408083206001600160a01b0385168085529252808320805460ff1916905551339285917ff6391f5c32d9c69d2a47ea670b442974b53935d1edc7fd64eb21e047a839171b9190a45050565b6001600160a01b0382166118f75760405162461bcd60e51b815260206004820181905260248201527f4552433732313a206d696e7420746f20746865207a65726f206164647265737360448201526064016105b4565b61190081611410565b1561194d5760405162461bcd60e51b815260206004820152601c60248201527f4552433732313a20746f6b656e20616c7265616479206d696e7465640000000060448201526064016105b4565b61195960008383611d79565b6001600160a01b0382166000908152600360205260408120805460019290611982908490612c17565b909155505060008181526002602052604080822080546001600160a01b0319166001600160a01b03861690811790915590518392907fddf252ad1be2c89b69c2b068fc378daa952ba7f163c4a11628f55a4df523b3ef908290a461096f565b6119ea82611410565b611a4d5760405162461bcd60e51b815260206004820152602e60248201527f45524337323155524953746f726167653a2055524920736574206f66206e6f6e60448201526d32bc34b9ba32b73a103a37b5b2b760911b60648201526084016105b4565b600082815260066020908152604090912082516106ea9284019061234c565b6127106001600160601b0382161115611ada5760405162461bcd60e51b815260206004820152602a60248201527f455243323938313a20726f79616c7479206665652077696c6c206578636565646044820152692073616c65507269636560b01b60648201526084016105b4565b6001600160a01b038216611b305760405162461bcd60e51b815260206004820152601b60248201527f455243323938313a20496e76616c696420706172616d6574657273000000000060448201526064016105b4565b6040805180820182526001600160a01b0393841681526001600160601b0392831660208083019182526000968752600890529190942093519051909116600160a01b029116179055565b816001600160a01b0316836001600160a01b03161415611bdc5760405162461bcd60e51b815260206004820152601960248201527f4552433732313a20617070726f766520746f2063616c6c65720000000000000060448201526064016105b4565b6001600160a01b03838116600081815260056020908152604080832094871680845294825291829020805460ff191686151590811790915591519182527f17307eab39ab6107e8899845ad3d59bd9653f200f220920489ca2b5937696c31910160405180910390a3505050565b611c548484846115a9565b611c6084848484611fc8565b610ef15760405162461bcd60e51b81526004016105b490612b3d565b6060611c8782611410565b611ceb5760405162461bcd60e51b815260206004820152602f60248201527f4552433732314d657461646174613a2055524920717565727920666f72206e6f60448201526e3732bc34b9ba32b73a103a37b5b2b760891b60648201526084016105b4565b6000611d0260408051602081019091526000815290565b90506000815111611d225760405180602001604052806000815250611d4d565b80611d2c846120d2565b604051602001611d3d929190612986565b6040516020818303038152906040525b9392505050565b60006001600160e01b0319821663152a902d60e11b14806104b257506104b28261139b565b6001600160a01b038316611dcf57611dcf81601280546000838152600c60205260408120829055600182018355919091527fbb8a6a4669ba250d26cd7a459eca9d215f8307e33aebe50379bc5a3617ec34440155565b6001600160a01b0382166106ea576106ea816121ed565b60606000611df5836002612c43565b611e00906002612c17565b67ffffffffffffffff811115611e2657634e487b7160e01b600052604160045260246000fd5b6040519080825280601f01601f191660200182016040528015611e50576020820181803683370190505b509050600360fc1b81600081518110611e7957634e487b7160e01b600052603260045260246000fd5b60200101906001600160f81b031916908160001a905350600f60fb1b81600181518110611eb657634e487b7160e01b600052603260045260246000fd5b60200101906001600160f81b031916908160001a9053506000611eda846002612c43565b611ee5906001612c17565b90505b6001811115611f79576f181899199a1a9b1b9c1cb0b131b232b360811b85600f1660108110611f2757634e487b7160e01b600052603260045260246000fd5b1a60f81b828281518110611f4b57634e487b7160e01b600052603260045260246000fd5b60200101906001600160f81b031916908160001a90535060049490941c93611f7281612ca5565b9050611ee8565b508315611d4d5760405162461bcd60e51b815260206004820181905260248201527f537472696e67733a20686578206c656e67746820696e73756666696369656e7460448201526064016105b4565b60006001600160a01b0384163b156120ca57604051630a85bd0160e11b81526001600160a01b0385169063150b7a029061200c903390899088908890600401612a2a565b602060405180830381600087803b15801561202657600080fd5b505af1925050508015612056575060408051601f3d908101601f19168201909252612053918101906127f8565b60015b6120b0573d808015612084576040519150601f19603f3d011682016040523d82523d6000602084013e612089565b606091505b5080516120a85760405162461bcd60e51b81526004016105b490612b3d565b805181602001fd5b6001600160e01b031916630a85bd0160e11b1490506111fd565b5060016111fd565b6060816120f757506040805180820190915260018152600360fc1b60208201526104b5565b8160005b8115612121578061210b81612cf7565b915061211a9050600a83612c2f565b91506120fb565b60008167ffffffffffffffff81111561214a57634e487b7160e01b600052604160045260246000fd5b6040519080825280601f01601f191660200182016040528015612174576020820181803683370190505b5090505b84156111fd57612189600183612c62565b9150612196600a86612d12565b6121a1906030612c17565b60f81b8183815181106121c457634e487b7160e01b600052603260045260246000fd5b60200101906001600160f81b031916908160001a9053506121e6600a86612c2f565b9450612178565b6012546000906121ff90600190612c62565b6000838152600c60205260408120546012805493945090928490811061223557634e487b7160e01b600052603260045260246000fd5b90600052602060002001549050806012838154811061226457634e487b7160e01b600052603260045260246000fd5b6000918252602080832090910192909255828152600c909152604080822084905585825281205560128054806122aa57634e487b7160e01b600052603160045260246000fd5b6001900381819060005260206000200160009055905550505050565b828054828255906000526020600020908101928215612301579160200282015b828111156123015782518255916020019190600101906122e6565b5061230d9291506123bf565b5090565b828054828255906000526020600020908101928215612301579160200282015b82811115612301578235825591602001919060010190612331565b82805461235890612cbc565b90600052602060002090601f01602090048101928261237a5760008555612301565b82601f1061239357805160ff1916838001178555612301565b8280016001018555821561230157918201828111156123015782518255916020019190600101906122e6565b5b8082111561230d57600081556001016123c0565b600067ffffffffffffffff808411156123ef576123ef612d52565b604051601f8501601f19908116603f0116810190828211818310171561241757612417612d52565b8160405280935085815286868601111561243057600080fd5b858560208301376000602087830101525050509392505050565b80356001600160a01b03811681146104b557600080fd5b60008083601f840112612472578081fd5b50813567ffffffffffffffff811115612489578182fd5b6020830191508360208260051b85010111156108c757600080fd5b600082601f8301126124b4578081fd5b611d4d838335602085016123d4565b803563ffffffff811681146104b557600080fd5b6000602082840312156124e8578081fd5b611d4d8261244a565b60008060408385031215612503578081fd5b61250c8361244a565b915061251a6020840161244a565b90509250929050565b600080600060608486031215612537578081fd5b6125408461244a565b925061254e6020850161244a565b9150604084013590509250925092565b60008060008060808587031215612573578081fd5b61257c8561244a565b935061258a6020860161244a565b925060408501359150606085013567ffffffffffffffff8111156125ac578182fd5b8501601f810187136125bc578182fd5b6125cb878235602084016123d4565b91505092959194509250565b60008060008060008060c087890312156125ef578182fd5b6125f88761244a565b95506126066020880161244a565b945060408701359350606087013567ffffffffffffffff80821115612629578384fd5b6126358a838b016124a4565b9450608089013591506001600160601b0382168214612652578384fd5b90925060a08801359080821115612667578283fd5b5061267489828a016124a4565b9150509295509295509295565b60008060408385031215612693578182fd5b61269c8361244a565b9150602083013580151581146126b0578182fd5b809150509250929050565b600080604083850312156126cd578182fd5b6126d68361244a565b946020939093013593505050565b6000806000606084860312156126f8578283fd5b6127018461244a565b925060208401359150604084013567ffffffffffffffff811115612723578182fd5b61272f868287016124a4565b9150509250925092565b6000806000806040858703121561274e578384fd5b843567ffffffffffffffff80821115612765578586fd5b61277188838901612461565b90965094506020870135915080821115612789578384fd5b5061279687828801612461565b95989497509550505050565b6000602082840312156127b3578081fd5b5035919050565b600080604083850312156127cc578182fd5b8235915061251a6020840161244a565b6000602082840312156127ed578081fd5b8135611d4d81612d68565b600060208284031215612809578081fd5b8151611d4d81612d68565b60008060408385031215612826578182fd5b82359150602083013567ffffffffffffffff811115612843578182fd5b61284f858286016124a4565b9150509250929050565b6000806040838503121561286b578182fd5b50508035926020909101359150565b6000806000806080858703121561288f578182fd5b84359350602085013592506128a6604086016124c3565b91506128b4606086016124c3565b905092959194509250565b600081518084526128d7816020860160208601612c79565b601f01601f19169290920160200192915050565b600080835482600182811c91508083168061290757607f831692505b602080841082141561292757634e487b7160e01b87526022600452602487fd5b81801561293b576001811461294c57612978565b60ff19861689528489019650612978565b60008a815260209020885b868110156129705781548b820152908501908301612957565b505084890196505b509498975050505050505050565b60008351612998818460208801612c79565b8351908301906129ac818360208801612c79565b01949350505050565b60007f416363657373436f6e74726f6c3a206163636f756e7420000000000000000000825283516129ed816017850160208801612c79565b7001034b99036b4b9b9b4b733903937b6329607d1b6017918401918201528351612a1e816028840160208801612c79565b01602801949350505050565b6001600160a01b0385811682528416602082015260408101839052608060608201819052600090612a5d908301846128bf565b9695505050505050565b60006020808301818452808551808352604092508286019150828160051b870101848801865b83811015612af657888303603f19018552815180518452870151878401879052805187850181905290880190899060608601905b80831015612ae15783518252928a019260019290920191908a0190612ac1565b50968901969450505090860190600101612a8d565b509098975050505050505050565b600060208252611d4d60208301846128bf565b6020808252600c908201526b155b985d5d1a1bdc9a5e995960a21b604082015260600190565b60208082526032908201527f4552433732313a207472616e7366657220746f206e6f6e20455243373231526560408201527131b2b4bb32b91034b6b83632b6b2b73a32b960711b606082015260800190565b60208082526031908201527f4552433732313a207472616e736665722063616c6c6572206973206e6f74206f6040820152701ddb995c881b9bdc88185c1c1c9bdd9959607a1b606082015260800190565b6020808252601f908201527f5265656e7472616e637947756172643a207265656e7472616e742063616c6c00604082015260600190565b60008219821115612c2a57612c2a612d26565b500190565b600082612c3e57612c3e612d3c565b500490565b6000816000190483118215151615612c5d57612c5d612d26565b500290565b600082821015612c7457612c74612d26565b500390565b60005b83811015612c94578181015183820152602001612c7c565b83811115610ef15750506000910152565b600081612cb457612cb4612d26565b506000190190565b600181811c90821680612cd057607f821691505b60208210811415612cf157634e487b7160e01b600052602260045260246000fd5b50919050565b6000600019821415612d0b57612d0b612d26565b5060010190565b600082612d2157612d21612d3c565b500690565b634e487b7160e01b600052601160045260246000fd5b634e487b7160e01b600052601260045260246000fd5b634e487b7160e01b600052604160045260246000fd5b6001600160e01b031981168114612d7e57600080fd5b5056fe9f2df0fed2c77648de5860a4cc508cd0818c85b8b8a1ab4ceeef8d981c8956a6a26469706673582212203ba81a60ae84cb65586709817492f9e809ca129c3a85fdf705f6a0ae586de25464736f6c634300080300339f2df0fed2c77648de5860a4cc508cd0818c85b8b8a1ab4ceeef8d981c8956a6",
  "linkReferences": {},
  "deployedLinkReferences": {}
}