{
  "_format": "hh-sol-artifact-1",
  "contractName": "ERC721Merchant",
  "sourceName": "contracts/ERC721Merchant/ERC721Merchant.sol",
  "abi": [
    {
      "inputs": [
        {
          "internalType": "string",
          "name": "tknName",
          "type": "string"
        },
        {
          "internalType": "string",
          "name": "tknSymbol",
          "type": "string"
        },
        {
          "internalType": "address",
          "name": "tokenAddress",
          "type": "address"
        },
        {
          "internalType": "address[]",
          "name": "minters",
          "type": "address[]"
        },
        {
          "internalType": "address[]",
          "name": "admins",
          "type": "address[]"
        }
      ],
      "stateMutability": "nonpayable",
      "type": "constructor"
    },
    {
      "anonymous": false,
      "inputs": [
        {
          "indexed": true,
          "internalType": "address",
          "name": "owner",
          "type": "address"
        },
        {
          "indexed": true,
          "internalType": "address",
          "name": "approved",
          "type": "address"
        },
        {
          "indexed": true,
          "internalType": "uint256",
          "name": "tokenId",
          "type": "uint256"
        }
      ],
      "name": "Approval",
      "type": "event"
    },
    {
      "anonymous": false,
      "inputs": [
        {
          "indexed": true,
          "internalType": "address",
          "name": "owner",
          "type": "address"
        },
        {
          "indexed": true,
          "internalType": "address",
          "name": "operator",
          "type": "address"
        },
        {
          "indexed": false,
          "internalType": "bool",
          "name": "approved",
          "type": "bool"
        }
      ],
      "name": "ApprovalForAll",
      "type": "event"
    },
    {
      "anonymous": true,
      "inputs": [
        {
          "indexed": true,
          "internalType": "address",
          "name": "contractId",
          "type": "address"
        },
        {
          "indexed": true,
          "internalType": "uint256",
          "name": "price",
          "type": "uint256"
        },
        {
          "indexed": true,
          "internalType": "address",
          "name": "from",
          "type": "address"
        },
        {
          "indexed": true,
          "internalType": "uint256",
          "name": "tokenId",
          "type": "uint256"
        }
      ],
      "name": "Listed",
      "type": "event"
    },
    {
      "anonymous": false,
      "inputs": [
        {
          "indexed": true,
          "internalType": "bytes32",
          "name": "role",
          "type": "bytes32"
        },
        {
          "indexed": true,
          "internalType": "bytes32",
          "name": "previousAdminRole",
          "type": "bytes32"
        },
        {
          "indexed": true,
          "internalType": "bytes32",
          "name": "newAdminRole",
          "type": "bytes32"
        }
      ],
      "name": "RoleAdminChanged",
      "type": "event"
    },
    {
      "anonymous": false,
      "inputs": [
        {
          "indexed": true,
          "internalType": "bytes32",
          "name": "role",
          "type": "bytes32"
        },
        {
          "indexed": true,
          "internalType": "address",
          "name": "account",
          "type": "address"
        },
        {
          "indexed": true,
          "internalType": "address",
          "name": "sender",
          "type": "address"
        }
      ],
      "name": "RoleGranted",
      "type": "event"
    },
    {
      "anonymous": false,
      "inputs": [
        {
          "indexed": true,
          "internalType": "bytes32",
          "name": "role",
          "type": "bytes32"
        },
        {
          "indexed": true,
          "internalType": "address",
          "name": "account",
          "type": "address"
        },
        {
          "indexed": true,
          "internalType": "address",
          "name": "sender",
          "type": "address"
        }
      ],
      "name": "RoleRevoked",
      "type": "event"
    },
    {
      "anonymous": true,
      "inputs": [
        {
          "indexed": true,
          "internalType": "uint256",
          "name": "price",
          "type": "uint256"
        },
        {
          "indexed": true,
          "internalType": "address",
          "name": "from",
          "type": "address"
        },
        {
          "indexed": true,
          "internalType": "address",
          "name": "to",
          "type": "address"
        },
        {
          "indexed": true,
          "internalType": "uint256",
          "name": "tokenId",
          "type": "uint256"
        }
      ],
      "name": "Sale",
      "type": "event"
    },
    {
      "anonymous": false,
      "inputs": [
        {
          "indexed": true,
          "internalType": "address",
          "name": "from",
          "type": "address"
        },
        {
          "indexed": true,
          "internalType": "address",
          "name": "to",
          "type": "address"
        },
        {
          "indexed": true,
          "internalType": "uint256",
          "name": "tokenId",
          "type": "uint256"
        }
      ],
      "name": "Transfer",
      "type": "event"
    },
    {
      "inputs": [],
      "name": "DEFAULT_ADMIN_ROLE",
      "outputs": [
        {
          "internalType": "bytes32",
          "name": "",
          "type": "bytes32"
        }
      ],
      "stateMutability": "view",
      "type": "function"
    },
    {
      "inputs": [],
      "name": "MINTER_ROLE",
      "outputs": [
        {
          "internalType": "bytes32",
          "name": "",
          "type": "bytes32"
        }
      ],
      "stateMutability": "view",
      "type": "function"
    },
    {
      "inputs": [
        {
          "internalType": "address",
          "name": "to",
          "type": "address"
        },
        {
          "internalType": "uint256",
          "name": "tokenId",
          "type": "uint256"
        }
      ],
      "name": "approve",
      "outputs": [],
      "stateMutability": "nonpayable",
      "type": "function"
    },
    {
      "inputs": [
        {
          "internalType": "address",
          "name": "owner",
          "type": "address"
        }
      ],
      "name": "balanceOf",
      "outputs": [
        {
          "internalType": "uint256",
          "name": "",
          "type": "uint256"
        }
      ],
      "stateMutability": "view",
      "type": "function"
    },
    {
      "inputs": [],
      "name": "customToken",
      "outputs": [
        {
          "internalType": "address",
          "name": "",
          "type": "address"
        }
      ],
      "stateMutability": "view",
      "type": "function"
    },
    {
      "inputs": [
        {
          "internalType": "uint256",
          "name": "price",
          "type": "uint256"
        },
        {
          "internalType": "address",
          "name": "from",
          "type": "address"
        },
        {
          "internalType": "uint256",
          "name": "tokenId",
          "type": "uint256"
        }
      ],
      "name": "emitListing",
      "outputs": [],
      "stateMutability": "nonpayable",
      "type": "function"
    },
    {
      "inputs": [
        {
          "internalType": "uint256",
          "name": "price",
          "type": "uint256"
        },
        {
          "internalType": "address",
          "name": "from",
          "type": "address"
        },
        {
          "internalType": "address",
          "name": "to",
          "type": "address"
        },
        {
          "internalType": "uint256",
          "name": "tokenId",
          "type": "uint256"
        }
      ],
      "name": "emitSale",
      "outputs": [],
      "stateMutability": "nonpayable",
      "type": "function"
    },
    {
      "inputs": [
        {
          "internalType": "uint256",
          "name": "tokenId",
          "type": "uint256"
        }
      ],
      "name": "getApproved",
      "outputs": [
        {
          "internalType": "address",
          "name": "",
          "type": "address"
        }
      ],
      "stateMutability": "view",
      "type": "function"
    },
    {
      "inputs": [
        {
          "internalType": "bytes32",
          "name": "role",
          "type": "bytes32"
        }
      ],
      "name": "getRoleAdmin",
      "outputs": [
        {
          "internalType": "bytes32",
          "name": "",
          "type": "bytes32"
        }
      ],
      "stateMutability": "view",
      "type": "function"
    },
    {
      "inputs": [
        {
          "internalType": "bytes32",
          "name": "role",
          "type": "bytes32"
        },
        {
          "internalType": "address",
          "name": "account",
          "type": "address"
        }
      ],
      "name": "grantRole",
      "outputs": [],
      "stateMutability": "nonpayable",
      "type": "function"
    },
    {
      "inputs": [
        {
          "internalType": "bytes32",
          "name": "role",
          "type": "bytes32"
        },
        {
          "internalType": "address",
          "name": "account",
          "type": "address"
        }
      ],
      "name": "hasRole",
      "outputs": [
        {
          "internalType": "bool",
          "name": "",
          "type": "bool"
        }
      ],
      "stateMutability": "view",
      "type": "function"
    },
    {
      "inputs": [
        {
          "internalType": "address",
          "name": "owner",
          "type": "address"
        },
        {
          "internalType": "address",
          "name": "operator",
          "type": "address"
        }
      ],
      "name": "isApprovedForAll",
      "outputs": [
        {
          "internalType": "bool",
          "name": "",
          "type": "bool"
        }
      ],
      "stateMutability": "view",
      "type": "function"
    },
    {
      "inputs": [
        {
          "internalType": "address",
          "name": "minter",
          "type": "address"
        },
        {
          "internalType": "uint256",
          "name": "tokenId",
          "type": "uint256"
        },
        {
          "internalType": "string",
          "name": "uri",
          "type": "string"
        },
        {
          "internalType": "uint96",
          "name": "royalty",
          "type": "uint96"
        }
      ],
      "name": "mint",
      "outputs": [
        {
          "internalType": "bool",
          "name": "",
          "type": "bool"
        }
      ],
      "stateMutability": "nonpayable",
      "type": "function"
    },
    {
      "inputs": [],
      "name": "name",
      "outputs": [
        {
          "internalType": "string",
          "name": "",
          "type": "string"
        }
      ],
      "stateMutability": "view",
      "type": "function"
    },
    {
      "inputs": [
        {
          "internalType": "uint256",
          "name": "tokenId",
          "type": "uint256"
        }
      ],
      "name": "ownerOf",
      "outputs": [
        {
          "internalType": "address",
          "name": "",
          "type": "address"
        }
      ],
      "stateMutability": "view",
      "type": "function"
    },
    {
      "inputs": [
        {
          "internalType": "bytes32",
          "name": "role",
          "type": "bytes32"
        },
        {
          "internalType": "address",
          "name": "account",
          "type": "address"
        }
      ],
      "name": "renounceRole",
      "outputs": [],
      "stateMutability": "nonpayable",
      "type": "function"
    },
    {
      "inputs": [
        {
          "internalType": "bytes32",
          "name": "role",
          "type": "bytes32"
        },
        {
          "internalType": "address",
          "name": "account",
          "type": "address"
        }
      ],
      "name": "revokeRole",
      "outputs": [],
      "stateMutability": "nonpayable",
      "type": "function"
    },
    {
      "inputs": [
        {
          "internalType": "uint256",
          "name": "_tokenId",
          "type": "uint256"
        },
        {
          "internalType": "uint256",
          "name": "_salePrice",
          "type": "uint256"
        }
      ],
      "name": "royaltyInfo",
      "outputs": [
        {
          "internalType": "address",
          "name": "",
          "type": "address"
        },
        {
          "internalType": "uint256",
          "name": "",
          "type": "uint256"
        }
      ],
      "stateMutability": "view",
      "type": "function"
    },
    {
      "inputs": [
        {
          "internalType": "address",
          "name": "from",
          "type": "address"
        },
        {
          "internalType": "address",
          "name": "to",
          "type": "address"
        },
        {
          "internalType": "uint256",
          "name": "tokenId",
          "type": "uint256"
        }
      ],
      "name": "safeTransferFrom",
      "outputs": [],
      "stateMutability": "nonpayable",
      "type": "function"
    },
    {
      "inputs": [
        {
          "internalType": "address",
          "name": "from",
          "type": "address"
        },
        {
          "internalType": "address",
          "name": "to",
          "type": "address"
        },
        {
          "internalType": "uint256",
          "name": "tokenId",
          "type": "uint256"
        },
        {
          "internalType": "bytes",
          "name": "_data",
          "type": "bytes"
        }
      ],
      "name": "safeTransferFrom",
      "outputs": [],
      "stateMutability": "nonpayable",
      "type": "function"
    },
    {
      "inputs": [
        {
          "internalType": "address",
          "name": "operator",
          "type": "address"
        },
        {
          "internalType": "bool",
          "name": "approved",
          "type": "bool"
        }
      ],
      "name": "setApprovalForAll",
      "outputs": [],
      "stateMutability": "nonpayable",
      "type": "function"
    },
    {
      "inputs": [
        {
          "internalType": "bytes4",
          "name": "interfaceId",
          "type": "bytes4"
        }
      ],
      "name": "supportsInterface",
      "outputs": [
        {
          "internalType": "bool",
          "name": "",
          "type": "bool"
        }
      ],
      "stateMutability": "view",
      "type": "function"
    },
    {
      "inputs": [],
      "name": "symbol",
      "outputs": [
        {
          "internalType": "string",
          "name": "",
          "type": "string"
        }
      ],
      "stateMutability": "view",
      "type": "function"
    },
    {
      "inputs": [
        {
          "internalType": "uint256",
          "name": "index",
          "type": "uint256"
        }
      ],
      "name": "tokenByIndex",
      "outputs": [
        {
          "internalType": "uint256",
          "name": "",
          "type": "uint256"
        }
      ],
      "stateMutability": "view",
      "type": "function"
    },
    {
      "inputs": [
        {
          "internalType": "uint256",
          "name": "tokenId",
          "type": "uint256"
        }
      ],
      "name": "tokenURI",
      "outputs": [
        {
          "internalType": "string",
          "name": "",
          "type": "string"
        }
      ],
      "stateMutability": "view",
      "type": "function"
    },
    {
      "inputs": [],
      "name": "totalSupply",
      "outputs": [
        {
          "internalType": "uint256",
          "name": "",
          "type": "uint256"
        }
      ],
      "stateMutability": "view",
      "type": "function"
    },
    {
      "inputs": [
        {
          "internalType": "address",
          "name": "from",
          "type": "address"
        },
        {
          "internalType": "address",
          "name": "to",
          "type": "address"
        },
        {
          "internalType": "uint256",
          "name": "tokenId",
          "type": "uint256"
        }
      ],
      "name": "transferFrom",
      "outputs": [],
      "stateMutability": "nonpayable",
      "type": "function"
    }
  ],
  "bytecode": "0x6080604052600d805460ff191690553480156200001b57600080fd5b5060405162002ace38038062002ace8339810160408190526200003e916200050e565b8451859085906200005790600090602085019062000326565b5080516200006d90600190602084019062000326565b5050600d8054610100600160a81b0319166101006001600160a01b03871602179055508151620000aa57600d805460ff1916600117905562000128565b60005b82518110156200012657620001117f9f2df0fed2c77648de5860a4cc508cd0818c85b8b8a1ab4ceeef8d981c8956a6848381518110620000fd57634e487b7160e01b600052603260045260246000fd5b60200260200101516200019160201b60201c565b806200011d8162000645565b915050620000ad565b505b60005b81518110156200018557620001708282815181106200015a57634e487b7160e01b600052603260045260246000fd5b60200260200101516001620001a160201b60201c565b806200017c8162000645565b9150506200012b565b50505050505062000683565b6200019d8282620001ae565b5050565b6200019d33838362000252565b60008281526009602090815260408083206001600160a01b038516845290915290205460ff166200019d5760008281526009602090815260408083206001600160a01b03851684529091529020805460ff191660011790556200020e3390565b6001600160a01b0316816001600160a01b0316837f2f8788117e7eff1d82e926ec794901d17c78024a50270940304540a733656f0d60405160405180910390a45050565b816001600160a01b0316836001600160a01b03161415620002b95760405162461bcd60e51b815260206004820152601960248201527f4552433732313a20617070726f766520746f2063616c6c657200000000000000604482015260640160405180910390fd5b6001600160a01b03838116600081815260056020908152604080832094871680845294825291829020805460ff191686151590811790915591519182527f17307eab39ab6107e8899845ad3d59bd9653f200f220920489ca2b5937696c31910160405180910390a3505050565b828054620003349062000608565b90600052602060002090601f016020900481019282620003585760008555620003a3565b82601f106200037357805160ff1916838001178555620003a3565b82800160010185558215620003a3579182015b82811115620003a357825182559160200191906001019062000386565b50620003b1929150620003b5565b5090565b5b80821115620003b15760008155600101620003b6565b80516001600160a01b0381168114620003e457600080fd5b919050565b600082601f830112620003fa578081fd5b815160206001600160401b038211156200041857620004186200066d565b8160051b62000429828201620005d5565b83815282810190868401838801850189101562000444578687fd5b8693505b8584101562000471576200045c81620003cc565b83526001939093019291840191840162000448565b50979650505050505050565b600082601f8301126200048e578081fd5b81516001600160401b03811115620004aa57620004aa6200066d565b6020620004c0601f8301601f19168201620005d5565b8281528582848701011115620004d4578384fd5b835b83811015620004f3578581018301518282018401528201620004d6565b838111156200050457848385840101525b5095945050505050565b600080600080600060a0868803121562000526578081fd5b85516001600160401b03808211156200053d578283fd5b6200054b89838a016200047d565b9650602088015191508082111562000561578283fd5b6200056f89838a016200047d565b95506200057f60408901620003cc565b9450606088015191508082111562000595578283fd5b620005a389838a01620003e9565b93506080880151915080821115620005b9578283fd5b50620005c888828901620003e9565b9150509295509295909350565b604051601f8201601f191681016001600160401b03811182821017156200060057620006006200066d565b604052919050565b600181811c908216806200061d57607f821691505b602082108114156200063f57634e487b7160e01b600052602260045260246000fd5b50919050565b60006000198214156200066657634e487b7160e01b81526011600452602481fd5b5060010190565b634e487b7160e01b600052604160045260246000fd5b61243b80620006936000396000f3fe608060405234801561001057600080fd5b50600436106101a95760003560e01c806370a08231116100f9578063a2b929ea11610097578063d539139311610071578063d5391393146103b0578063d547741f146103d7578063e985e9c5146103ea578063fcb156ac146103fd576101a9565b8063a2b929ea14610377578063b88d4fde1461038a578063c87b56dd1461039d576101a9565b806395d89b41116100d357806395d89b41146103415780639841aa7514610349578063a217fddf1461035c578063a22cb46514610364576101a9565b806370a0823114610304578063899e31061461031757806391d148541461032e576101a9565b8063248a9ca31161016657806336568abe1161014057806336568abe146102b857806342842e0e146102cb5780634f6ccce7146102de5780636352211e146102f1576101a9565b8063248a9ca3146102505780632a55205a146102735780632f2ff15d146102a5576101a9565b806301ffc9a7146101ae57806306fdde03146101d6578063081812fc146101eb578063095ea7b31461021657806318160ddd1461022b57806323b872dd1461023d575b600080fd5b6101c16101bc366004612018565b610410565b60405190151581526020015b60405180910390f35b6101de610432565b6040516101cd91906121e5565b6101fe6101f9366004611fde565b6104c4565b6040516001600160a01b0390911681526020016101cd565b610229610224366004611f2f565b610551565b005b600c545b6040519081526020016101cd565b61022961024b366004611e41565b610667565b61022f61025e366004611fde565b60009081526009602052604090206001015490565b6102866102813660046120b7565b610698565b604080516001600160a01b0390931683526020830191909152016101cd565b6102296102b3366004611ff6565b610744565b6102296102c6366004611ff6565b61076b565b6102296102d9366004611e41565b6107e9565b61022f6102ec366004611fde565b610804565b6101fe6102ff366004611fde565b6108a5565b61022f610312366004611df5565b61091c565b6101fe600d5461010090046001600160a01b031690565b6101c161033c366004611ff6565b6109a3565b6101de6109ce565b610229610357366004612050565b6109dd565b61022f600081565b610229610372366004611ef5565b610a56565b6101c1610385366004611f58565b610a61565b610229610398366004611e7c565b610b85565b6101de6103ab366004611fde565b610bbd565b61022f7f9f2df0fed2c77648de5860a4cc508cd0818c85b8b8a1ab4ceeef8d981c8956a681565b6102296103e5366004611ff6565b610d2d565b6101c16103f8366004611e0f565b610d53565b61022961040b366004612093565b610d81565b600061041b82610df0565b8061042a575061042a82610e40565b90505b919050565b60606000805461044190612340565b80601f016020809104026020016040519081016040528092919081815260200182805461046d90612340565b80156104ba5780601f1061048f576101008083540402835291602001916104ba565b820191906000526020600020905b81548152906001019060200180831161049d57829003601f168201915b5050505050905090565b60006104cf82610e65565b6105355760405162461bcd60e51b815260206004820152602c60248201527f4552433732313a20617070726f76656420717565727920666f72206e6f6e657860448201526b34b9ba32b73a103a37b5b2b760a11b60648201526084015b60405180910390fd5b506000908152600460205260409020546001600160a01b031690565b600061055c826108a5565b9050806001600160a01b0316836001600160a01b031614156105ca5760405162461bcd60e51b815260206004820152602160248201527f4552433732313a20617070726f76616c20746f2063757272656e74206f776e656044820152603960f91b606482015260840161052c565b336001600160a01b03821614806105e657506105e681336103f8565b6106585760405162461bcd60e51b815260206004820152603860248201527f4552433732313a20617070726f76652063616c6c6572206973206e6f74206f7760448201527f6e6572206e6f7220617070726f76656420666f7220616c6c0000000000000000606482015260840161052c565b6106628383610e82565b505050565b6106713382610ef0565b61068d5760405162461bcd60e51b815260040161052c9061224a565b610662838383610fb2565b60008281526008602090815260408083208151808301909252546001600160a01b038116808352600160a01b9091046001600160601b031692820192909252829161070d5750604080518082019091526007546001600160a01b0381168252600160a01b90046001600160601b031660208201525b60208101516000906127109061072c906001600160601b0316876122c7565b61073691906122b3565b915196919550909350505050565b60008281526009602052604090206001015461076181335b611159565b61066283836111bd565b6001600160a01b03811633146107db5760405162461bcd60e51b815260206004820152602f60248201527f416363657373436f6e74726f6c3a2063616e206f6e6c792072656e6f756e636560448201526e103937b632b9903337b91039b2b63360891b606482015260840161052c565b6107e58282611243565b5050565b61066283838360405180602001604052806000815250610b85565b600061080f600c5490565b82106108725760405162461bcd60e51b815260206004820152602c60248201527f455243373231456e756d657261626c653a20676c6f62616c20696e646578206f60448201526b7574206f6620626f756e647360a01b606482015260840161052c565b600c828154811061089357634e487b7160e01b600052603260045260246000fd5b90600052602060002001549050919050565b6000818152600260205260408120546001600160a01b03168061042a5760405162461bcd60e51b815260206004820152602960248201527f4552433732313a206f776e657220717565727920666f72206e6f6e657869737460448201526832b73a103a37b5b2b760b91b606482015260840161052c565b60006001600160a01b0382166109875760405162461bcd60e51b815260206004820152602a60248201527f4552433732313a2062616c616e636520717565727920666f7220746865207a65604482015269726f206164647265737360b01b606482015260840161052c565b506001600160a01b031660009081526003602052604090205490565b60009182526009602090815260408084206001600160a01b0393909316845291905290205460ff1690565b60606001805461044190612340565b6109e78233610d53565b610a2f5760405162461bcd60e51b8152602060048201526019602482015278139bdd08105c1c1c9bdd9959081d1bc81b1bd9c8195d995b9d603a1b604482015260640161052c565b80826001600160a01b0316846001600160a01b03168660405160405180910390a450505050565b6107e53383836112aa565b600d5460009060ff16610b5a57610a987f9f2df0fed2c77648de5860a4cc508cd0818c85b8b8a1ab4ceeef8d981c8956a6336109a3565b610ae45760405162461bcd60e51b815260206004820152601e60248201527f696e76616c6964206f7220756e617574686f72697a65642063616c6c65720000604482015260640161052c565b610b0e7f9f2df0fed2c77648de5860a4cc508cd0818c85b8b8a1ab4ceeef8d981c8956a6866109a3565b610b5a5760405162461bcd60e51b815260206004820152601e60248201527f696e76616c6964206f7220756e617574686f72697a6564206d696e7465720000604482015260640161052c565b610b648585611379565b610b6e84846114b9565b610b79848684611544565b5060015b949350505050565b610b8f3383610ef0565b610bab5760405162461bcd60e51b815260040161052c9061224a565b610bb784848484611652565b50505050565b6060610bc882610e65565b610c2e5760405162461bcd60e51b815260206004820152603160248201527f45524337323155524953746f726167653a2055524920717565727920666f72206044820152703737b732bc34b9ba32b73a103a37b5b2b760791b606482015260840161052c565b60008281526006602052604081208054610c4790612340565b80601f0160208091040260200160405190810160405280929190818152602001828054610c7390612340565b8015610cc05780601f10610c9557610100808354040283529160200191610cc0565b820191906000526020600020905b815481529060010190602001808311610ca357829003601f168201915b505050505090506000610cde60408051602081019091526000815290565b9050805160001415610cf25750905061042d565b815115610d24578082604051602001610d0c929190612104565b6040516020818303038152906040529250505061042d565b610b7d84611685565b600082815260096020526040902060010154610d49813361075c565b6106628383611243565b6001600160a01b03918216600090815260056020908152604080832093909416825291909152205460ff1690565b610d8b8233610d53565b610dd35760405162461bcd60e51b8152602060048201526019602482015278139bdd08105c1c1c9bdd9959081d1bc81b1bd9c8195d995b9d603a1b604482015260640161052c565b60405181906001600160a01b0384169085903090600090a4505050565b60006001600160e01b031982166380ac58cd60e01b1480610e2157506001600160e01b03198216635b5e139f60e01b145b8061042a57506301ffc9a760e01b6001600160e01b031983161461042a565b60006001600160e01b03198216637965db0b60e01b148061042a575061042a8261175d565b6000908152600260205260409020546001600160a01b0316151590565b600081815260046020526040902080546001600160a01b0319166001600160a01b0384169081179091558190610eb7826108a5565b6001600160a01b03167f8c5be1e5ebec7d5bd14f71427d1e84f3dd0314c0f7b2291e5b200ac8c7c3b92560405160405180910390a45050565b6000610efb82610e65565b610f5c5760405162461bcd60e51b815260206004820152602c60248201527f4552433732313a206f70657261746f7220717565727920666f72206e6f6e657860448201526b34b9ba32b73a103a37b5b2b760a11b606482015260840161052c565b6000610f67836108a5565b9050806001600160a01b0316846001600160a01b03161480610fa25750836001600160a01b0316610f97846104c4565b6001600160a01b0316145b80610b7d5750610b7d8185610d53565b826001600160a01b0316610fc5826108a5565b6001600160a01b0316146110295760405162461bcd60e51b815260206004820152602560248201527f4552433732313a207472616e736665722066726f6d20696e636f72726563742060448201526437bbb732b960d91b606482015260840161052c565b6001600160a01b03821661108b5760405162461bcd60e51b8152602060048201526024808201527f4552433732313a207472616e7366657220746f20746865207a65726f206164646044820152637265737360e01b606482015260840161052c565b611096838383611782565b6110a1600082610e82565b6001600160a01b03831660009081526003602052604081208054600192906110ca9084906122e6565b90915550506001600160a01b03821660009081526003602052604081208054600192906110f890849061229b565b909155505060008181526002602052604080822080546001600160a01b0319166001600160a01b0386811691821790925591518493918716917fddf252ad1be2c89b69c2b068fc378daa952ba7f163c4a11628f55a4df523b3ef91a4610662565b61116382826109a3565b6107e55761117b816001600160a01b031660146117ef565b6111868360206117ef565b604051602001611197929190612133565b60408051601f198184030181529082905262461bcd60e51b825261052c916004016121e5565b6111c782826109a3565b6107e55760008281526009602090815260408083206001600160a01b03851684529091529020805460ff191660011790556111ff3390565b6001600160a01b0316816001600160a01b0316837f2f8788117e7eff1d82e926ec794901d17c78024a50270940304540a733656f0d60405160405180910390a45050565b61124d82826109a3565b156107e55760008281526009602090815260408083206001600160a01b0385168085529252808320805460ff1916905551339285917ff6391f5c32d9c69d2a47ea670b442974b53935d1edc7fd64eb21e047a839171b9190a45050565b816001600160a01b0316836001600160a01b0316141561130c5760405162461bcd60e51b815260206004820152601960248201527f4552433732313a20617070726f766520746f2063616c6c657200000000000000604482015260640161052c565b6001600160a01b03838116600081815260056020908152604080832094871680845294825291829020805460ff191686151590811790915591519182527f17307eab39ab6107e8899845ad3d59bd9653f200f220920489ca2b5937696c31910160405180910390a3505050565b6001600160a01b0382166113cf5760405162461bcd60e51b815260206004820181905260248201527f4552433732313a206d696e7420746f20746865207a65726f2061646472657373604482015260640161052c565b6113d881610e65565b156114255760405162461bcd60e51b815260206004820152601c60248201527f4552433732313a20746f6b656e20616c7265616479206d696e74656400000000604482015260640161052c565b61143160008383611782565b6001600160a01b038216600090815260036020526040812080546001929061145a90849061229b565b909155505060008181526002602052604080822080546001600160a01b0319166001600160a01b03861690811790915590518392907fddf252ad1be2c89b69c2b068fc378daa952ba7f163c4a11628f55a4df523b3ef908290a46107e5565b6114c282610e65565b6115255760405162461bcd60e51b815260206004820152602e60248201527f45524337323155524953746f726167653a2055524920736574206f66206e6f6e60448201526d32bc34b9ba32b73a103a37b5b2b760911b606482015260840161052c565b6000828152600660209081526040909120825161066292840190611ccf565b6127106001600160601b03821611156115b25760405162461bcd60e51b815260206004820152602a60248201527f455243323938313a20726f79616c7479206665652077696c6c206578636565646044820152692073616c65507269636560b01b606482015260840161052c565b6001600160a01b0382166116085760405162461bcd60e51b815260206004820152601b60248201527f455243323938313a20496e76616c696420706172616d65746572730000000000604482015260640161052c565b6040805180820182526001600160a01b0393841681526001600160601b0392831660208083019182526000968752600890529190942093519051909116600160a01b029116179055565b61165d848484610fb2565b611669848484846119d1565b610bb75760405162461bcd60e51b815260040161052c906121f8565b606061169082610e65565b6116f45760405162461bcd60e51b815260206004820152602f60248201527f4552433732314d657461646174613a2055524920717565727920666f72206e6f60448201526e3732bc34b9ba32b73a103a37b5b2b760891b606482015260840161052c565b600061170b60408051602081019091526000815290565b9050600081511161172b5760405180602001604052806000815250611756565b8061173584611adb565b604051602001611746929190612104565b6040516020818303038152906040525b9392505050565b60006001600160e01b0319821663152a902d60e11b148061042a575061042a82610df0565b6001600160a01b0383166117d8576117d881600c80546000838152600b60205260408120829055600182018355919091527fdf6966c971051c3d54ec59162606531493a51404a002842f56009d7e5cf4a8c70155565b6001600160a01b0382166106625761066281611bf6565b606060006117fe8360026122c7565b61180990600261229b565b67ffffffffffffffff81111561182f57634e487b7160e01b600052604160045260246000fd5b6040519080825280601f01601f191660200182016040528015611859576020820181803683370190505b509050600360fc1b8160008151811061188257634e487b7160e01b600052603260045260246000fd5b60200101906001600160f81b031916908160001a905350600f60fb1b816001815181106118bf57634e487b7160e01b600052603260045260246000fd5b60200101906001600160f81b031916908160001a90535060006118e38460026122c7565b6118ee90600161229b565b90505b6001811115611982576f181899199a1a9b1b9c1cb0b131b232b360811b85600f166010811061193057634e487b7160e01b600052603260045260246000fd5b1a60f81b82828151811061195457634e487b7160e01b600052603260045260246000fd5b60200101906001600160f81b031916908160001a90535060049490941c9361197b81612329565b90506118f1565b5083156117565760405162461bcd60e51b815260206004820181905260248201527f537472696e67733a20686578206c656e67746820696e73756666696369656e74604482015260640161052c565b60006001600160a01b0384163b15611ad357604051630a85bd0160e11b81526001600160a01b0385169063150b7a0290611a159033908990889088906004016121a8565b602060405180830381600087803b158015611a2f57600080fd5b505af1925050508015611a5f575060408051601f3d908101601f19168201909252611a5c91810190612034565b60015b611ab9573d808015611a8d576040519150601f19603f3d011682016040523d82523d6000602084013e611a92565b606091505b508051611ab15760405162461bcd60e51b815260040161052c906121f8565b805181602001fd5b6001600160e01b031916630a85bd0160e11b149050610b7d565b506001610b7d565b606081611b0057506040805180820190915260018152600360fc1b602082015261042d565b8160005b8115611b2a5780611b148161237b565b9150611b239050600a836122b3565b9150611b04565b60008167ffffffffffffffff811115611b5357634e487b7160e01b600052604160045260246000fd5b6040519080825280601f01601f191660200182016040528015611b7d576020820181803683370190505b5090505b8415610b7d57611b926001836122e6565b9150611b9f600a86612396565b611baa90603061229b565b60f81b818381518110611bcd57634e487b7160e01b600052603260045260246000fd5b60200101906001600160f81b031916908160001a905350611bef600a866122b3565b9450611b81565b600c54600090611c08906001906122e6565b6000838152600b6020526040812054600c8054939450909284908110611c3e57634e487b7160e01b600052603260045260246000fd5b9060005260206000200154905080600c8381548110611c6d57634e487b7160e01b600052603260045260246000fd5b6000918252602080832090910192909255828152600b9091526040808220849055858252812055600c805480611cb357634e487b7160e01b600052603160045260246000fd5b6001900381819060005260206000200160009055905550505050565b828054611cdb90612340565b90600052602060002090601f016020900481019282611cfd5760008555611d43565b82601f10611d1657805160ff1916838001178555611d43565b82800160010185558215611d43579182015b82811115611d43578251825591602001919060010190611d28565b50611d4f929150611d53565b5090565b5b80821115611d4f5760008155600101611d54565b600067ffffffffffffffff80841115611d8357611d836123d6565b604051601f8501601f19908116603f01168101908282118183101715611dab57611dab6123d6565b81604052809350858152868686011115611dc457600080fd5b858560208301376000602087830101525050509392505050565b80356001600160a01b038116811461042d57600080fd5b600060208284031215611e06578081fd5b61175682611dde565b60008060408385031215611e21578081fd5b611e2a83611dde565b9150611e3860208401611dde565b90509250929050565b600080600060608486031215611e55578081fd5b611e5e84611dde565b9250611e6c60208501611dde565b9150604084013590509250925092565b60008060008060808587031215611e91578081fd5b611e9a85611dde565b9350611ea860208601611dde565b925060408501359150606085013567ffffffffffffffff811115611eca578182fd5b8501601f81018713611eda578182fd5b611ee987823560208401611d68565b91505092959194509250565b60008060408385031215611f07578182fd5b611f1083611dde565b915060208301358015158114611f24578182fd5b809150509250929050565b60008060408385031215611f41578182fd5b611f4a83611dde565b946020939093013593505050565b60008060008060808587031215611f6d578384fd5b611f7685611dde565b935060208501359250604085013567ffffffffffffffff811115611f98578283fd5b8501601f81018713611fa8578283fd5b611fb787823560208401611d68565b92505060608501356001600160601b0381168114611fd3578182fd5b939692955090935050565b600060208284031215611fef578081fd5b5035919050565b60008060408385031215612008578182fd5b82359150611e3860208401611dde565b600060208284031215612029578081fd5b8135611756816123ec565b600060208284031215612045578081fd5b8151611756816123ec565b60008060008060808587031215612065578182fd5b8435935061207560208601611dde565b925061208360408601611dde565b9396929550929360600135925050565b6000806000606084860312156120a7578081fd5b83359250611e6c60208501611dde565b600080604083850312156120c9578182fd5b50508035926020909101359150565b600081518084526120f08160208601602086016122fd565b601f01601f19169290920160200192915050565b600083516121168184602088016122fd565b83519083019061212a8183602088016122fd565b01949350505050565b60007f416363657373436f6e74726f6c3a206163636f756e74200000000000000000008252835161216b8160178501602088016122fd565b7001034b99036b4b9b9b4b733903937b6329607d1b601791840191820152835161219c8160288401602088016122fd565b01602801949350505050565b6001600160a01b03858116825284166020820152604081018390526080606082018190526000906121db908301846120d8565b9695505050505050565b60006020825261175660208301846120d8565b60208082526032908201527f4552433732313a207472616e7366657220746f206e6f6e20455243373231526560408201527131b2b4bb32b91034b6b83632b6b2b73a32b960711b606082015260800190565b60208082526031908201527f4552433732313a207472616e736665722063616c6c6572206973206e6f74206f6040820152701ddb995c881b9bdc88185c1c1c9bdd9959607a1b606082015260800190565b600082198211156122ae576122ae6123aa565b500190565b6000826122c2576122c26123c0565b500490565b60008160001904831182151516156122e1576122e16123aa565b500290565b6000828210156122f8576122f86123aa565b500390565b60005b83811015612318578181015183820152602001612300565b83811115610bb75750506000910152565b600081612338576123386123aa565b506000190190565b600181811c9082168061235457607f821691505b6020821081141561237557634e487b7160e01b600052602260045260246000fd5b50919050565b600060001982141561238f5761238f6123aa565b5060010190565b6000826123a5576123a56123c0565b500690565b634e487b7160e01b600052601160045260246000fd5b634e487b7160e01b600052601260045260246000fd5b634e487b7160e01b600052604160045260246000fd5b6001600160e01b03198116811461240257600080fd5b5056fea2646970667358221220a9f3ff90fdd92a5fec6a3d393e4aa38532a00637abfaa872f836b003bb2f853864736f6c63430008030033",
  "linkReferences": {},
  "deployedLinkReferences": {}
}