{
  "_format": "hh-sol-artifact-1",
  "contractName": "ERC721Merchant",
  "sourceName": "contracts/ERC721Merchant/ERC721Merchant.sol",
  "abi": [
    {
      "inputs": [
        {
          "internalType": "string",
          "name": "tknName",
          "type": "string"
        },
        {
          "internalType": "string",
          "name": "tknSymbol",
          "type": "string"
        },
        {
          "internalType": "address",
          "name": "tokenAddress",
          "type": "address"
        },
        {
          "internalType": "address[]",
          "name": "minters",
          "type": "address[]"
        },
        {
          "internalType": "address[]",
          "name": "admins",
          "type": "address[]"
        }
      ],
      "stateMutability": "nonpayable",
      "type": "constructor"
    },
    {
      "anonymous": false,
      "inputs": [
        {
          "indexed": true,
          "internalType": "address",
          "name": "owner",
          "type": "address"
        },
        {
          "indexed": true,
          "internalType": "address",
          "name": "approved",
          "type": "address"
        },
        {
          "indexed": true,
          "internalType": "uint256",
          "name": "tokenId",
          "type": "uint256"
        }
      ],
      "name": "Approval",
      "type": "event"
    },
    {
      "anonymous": false,
      "inputs": [
        {
          "indexed": true,
          "internalType": "address",
          "name": "owner",
          "type": "address"
        },
        {
          "indexed": true,
          "internalType": "address",
          "name": "operator",
          "type": "address"
        },
        {
          "indexed": false,
          "internalType": "bool",
          "name": "approved",
          "type": "bool"
        }
      ],
      "name": "ApprovalForAll",
      "type": "event"
    },
    {
      "anonymous": true,
      "inputs": [
        {
          "indexed": true,
          "internalType": "address",
          "name": "contractId",
          "type": "address"
        },
        {
          "indexed": true,
          "internalType": "uint256",
          "name": "price",
          "type": "uint256"
        },
        {
          "indexed": true,
          "internalType": "address",
          "name": "from",
          "type": "address"
        },
        {
          "indexed": true,
          "internalType": "uint256",
          "name": "tokenId",
          "type": "uint256"
        }
      ],
      "name": "Listed",
      "type": "event"
    },
    {
      "anonymous": false,
      "inputs": [
        {
          "indexed": true,
          "internalType": "bytes32",
          "name": "role",
          "type": "bytes32"
        },
        {
          "indexed": true,
          "internalType": "bytes32",
          "name": "previousAdminRole",
          "type": "bytes32"
        },
        {
          "indexed": true,
          "internalType": "bytes32",
          "name": "newAdminRole",
          "type": "bytes32"
        }
      ],
      "name": "RoleAdminChanged",
      "type": "event"
    },
    {
      "anonymous": false,
      "inputs": [
        {
          "indexed": true,
          "internalType": "bytes32",
          "name": "role",
          "type": "bytes32"
        },
        {
          "indexed": true,
          "internalType": "address",
          "name": "account",
          "type": "address"
        },
        {
          "indexed": true,
          "internalType": "address",
          "name": "sender",
          "type": "address"
        }
      ],
      "name": "RoleGranted",
      "type": "event"
    },
    {
      "anonymous": false,
      "inputs": [
        {
          "indexed": true,
          "internalType": "bytes32",
          "name": "role",
          "type": "bytes32"
        },
        {
          "indexed": true,
          "internalType": "address",
          "name": "account",
          "type": "address"
        },
        {
          "indexed": true,
          "internalType": "address",
          "name": "sender",
          "type": "address"
        }
      ],
      "name": "RoleRevoked",
      "type": "event"
    },
    {
      "anonymous": true,
      "inputs": [
        {
          "indexed": true,
          "internalType": "uint256",
          "name": "price",
          "type": "uint256"
        },
        {
          "indexed": true,
          "internalType": "address",
          "name": "from",
          "type": "address"
        },
        {
          "indexed": true,
          "internalType": "address",
          "name": "to",
          "type": "address"
        },
        {
          "indexed": true,
          "internalType": "uint256",
          "name": "tokenId",
          "type": "uint256"
        }
      ],
      "name": "Sale",
      "type": "event"
    },
    {
      "anonymous": false,
      "inputs": [
        {
          "indexed": true,
          "internalType": "address",
          "name": "from",
          "type": "address"
        },
        {
          "indexed": true,
          "internalType": "address",
          "name": "to",
          "type": "address"
        },
        {
          "indexed": true,
          "internalType": "uint256",
          "name": "tokenId",
          "type": "uint256"
        }
      ],
      "name": "Transfer",
      "type": "event"
    },
    {
      "inputs": [],
      "name": "DEFAULT_ADMIN_ROLE",
      "outputs": [
        {
          "internalType": "bytes32",
          "name": "",
          "type": "bytes32"
        }
      ],
      "stateMutability": "view",
      "type": "function"
    },
    {
      "inputs": [],
      "name": "MINTER_ROLE",
      "outputs": [
        {
          "internalType": "bytes32",
          "name": "",
          "type": "bytes32"
        }
      ],
      "stateMutability": "view",
      "type": "function"
    },
    {
      "inputs": [
        {
          "internalType": "address",
          "name": "to",
          "type": "address"
        },
        {
          "internalType": "uint256",
          "name": "tokenId",
          "type": "uint256"
        }
      ],
      "name": "approve",
      "outputs": [],
      "stateMutability": "nonpayable",
      "type": "function"
    },
    {
      "inputs": [
        {
          "internalType": "address",
          "name": "owner",
          "type": "address"
        }
      ],
      "name": "balanceOf",
      "outputs": [
        {
          "internalType": "uint256",
          "name": "",
          "type": "uint256"
        }
      ],
      "stateMutability": "view",
      "type": "function"
    },
    {
      "inputs": [],
      "name": "customToken",
      "outputs": [
        {
          "internalType": "address",
          "name": "",
          "type": "address"
        }
      ],
      "stateMutability": "view",
      "type": "function"
    },
    {
      "inputs": [
        {
          "internalType": "uint256",
          "name": "price",
          "type": "uint256"
        },
        {
          "internalType": "address",
          "name": "from",
          "type": "address"
        },
        {
          "internalType": "uint256",
          "name": "tokenId",
          "type": "uint256"
        }
      ],
      "name": "emitListing",
      "outputs": [],
      "stateMutability": "nonpayable",
      "type": "function"
    },
    {
      "inputs": [
        {
          "internalType": "uint256",
          "name": "price",
          "type": "uint256"
        },
        {
          "internalType": "address",
          "name": "from",
          "type": "address"
        },
        {
          "internalType": "address",
          "name": "to",
          "type": "address"
        },
        {
          "internalType": "uint256",
          "name": "tokenId",
          "type": "uint256"
        }
      ],
      "name": "emitSale",
      "outputs": [],
      "stateMutability": "nonpayable",
      "type": "function"
    },
    {
      "inputs": [
        {
          "internalType": "uint256",
          "name": "tokenId",
          "type": "uint256"
        }
      ],
      "name": "getApproved",
      "outputs": [
        {
          "internalType": "address",
          "name": "",
          "type": "address"
        }
      ],
      "stateMutability": "view",
      "type": "function"
    },
    {
      "inputs": [
        {
          "internalType": "bytes32",
          "name": "role",
          "type": "bytes32"
        }
      ],
      "name": "getRoleAdmin",
      "outputs": [
        {
          "internalType": "bytes32",
          "name": "",
          "type": "bytes32"
        }
      ],
      "stateMutability": "view",
      "type": "function"
    },
    {
      "inputs": [
        {
          "internalType": "bytes32",
          "name": "role",
          "type": "bytes32"
        },
        {
          "internalType": "address",
          "name": "account",
          "type": "address"
        }
      ],
      "name": "grantRole",
      "outputs": [],
      "stateMutability": "nonpayable",
      "type": "function"
    },
    {
      "inputs": [
        {
          "internalType": "bytes32",
          "name": "role",
          "type": "bytes32"
        },
        {
          "internalType": "address",
          "name": "account",
          "type": "address"
        }
      ],
      "name": "hasRole",
      "outputs": [
        {
          "internalType": "bool",
          "name": "",
          "type": "bool"
        }
      ],
      "stateMutability": "view",
      "type": "function"
    },
    {
      "inputs": [
        {
          "internalType": "address",
          "name": "owner",
          "type": "address"
        },
        {
          "internalType": "address",
          "name": "operator",
          "type": "address"
        }
      ],
      "name": "isApprovedForAll",
      "outputs": [
        {
          "internalType": "bool",
          "name": "",
          "type": "bool"
        }
      ],
      "stateMutability": "view",
      "type": "function"
    },
    {
      "inputs": [
        {
          "internalType": "address",
          "name": "minter",
          "type": "address"
        },
        {
          "internalType": "uint256",
          "name": "tokenId",
          "type": "uint256"
        },
        {
          "internalType": "string",
          "name": "uri",
          "type": "string"
        },
        {
          "internalType": "uint96",
          "name": "royalty",
          "type": "uint96"
        }
      ],
      "name": "mint",
      "outputs": [
        {
          "internalType": "bool",
          "name": "",
          "type": "bool"
        }
      ],
      "stateMutability": "nonpayable",
      "type": "function"
    },
    {
      "inputs": [],
      "name": "name",
      "outputs": [
        {
          "internalType": "string",
          "name": "",
          "type": "string"
        }
      ],
      "stateMutability": "view",
      "type": "function"
    },
    {
      "inputs": [
        {
          "internalType": "uint256",
          "name": "tokenId",
          "type": "uint256"
        }
      ],
      "name": "ownerOf",
      "outputs": [
        {
          "internalType": "address",
          "name": "",
          "type": "address"
        }
      ],
      "stateMutability": "view",
      "type": "function"
    },
    {
      "inputs": [
        {
          "internalType": "bytes32",
          "name": "role",
          "type": "bytes32"
        },
        {
          "internalType": "address",
          "name": "account",
          "type": "address"
        }
      ],
      "name": "renounceRole",
      "outputs": [],
      "stateMutability": "nonpayable",
      "type": "function"
    },
    {
      "inputs": [
        {
          "internalType": "bytes32",
          "name": "role",
          "type": "bytes32"
        },
        {
          "internalType": "address",
          "name": "account",
          "type": "address"
        }
      ],
      "name": "revokeRole",
      "outputs": [],
      "stateMutability": "nonpayable",
      "type": "function"
    },
    {
      "inputs": [
        {
          "internalType": "uint256",
          "name": "_tokenId",
          "type": "uint256"
        },
        {
          "internalType": "uint256",
          "name": "_salePrice",
          "type": "uint256"
        }
      ],
      "name": "royaltyInfo",
      "outputs": [
        {
          "internalType": "address",
          "name": "",
          "type": "address"
        },
        {
          "internalType": "uint256",
          "name": "",
          "type": "uint256"
        }
      ],
      "stateMutability": "view",
      "type": "function"
    },
    {
      "inputs": [
        {
          "internalType": "address",
          "name": "from",
          "type": "address"
        },
        {
          "internalType": "address",
          "name": "to",
          "type": "address"
        },
        {
          "internalType": "uint256",
          "name": "tokenId",
          "type": "uint256"
        }
      ],
      "name": "safeTransferFrom",
      "outputs": [],
      "stateMutability": "nonpayable",
      "type": "function"
    },
    {
      "inputs": [
        {
          "internalType": "address",
          "name": "from",
          "type": "address"
        },
        {
          "internalType": "address",
          "name": "to",
          "type": "address"
        },
        {
          "internalType": "uint256",
          "name": "tokenId",
          "type": "uint256"
        },
        {
          "internalType": "bytes",
          "name": "_data",
          "type": "bytes"
        }
      ],
      "name": "safeTransferFrom",
      "outputs": [],
      "stateMutability": "nonpayable",
      "type": "function"
    },
    {
      "inputs": [
        {
          "internalType": "address",
          "name": "operator",
          "type": "address"
        },
        {
          "internalType": "bool",
          "name": "approved",
          "type": "bool"
        }
      ],
      "name": "setApprovalForAll",
      "outputs": [],
      "stateMutability": "nonpayable",
      "type": "function"
    },
    {
      "inputs": [
        {
          "internalType": "bytes4",
          "name": "interfaceId",
          "type": "bytes4"
        }
      ],
      "name": "supportsInterface",
      "outputs": [
        {
          "internalType": "bool",
          "name": "",
          "type": "bool"
        }
      ],
      "stateMutability": "view",
      "type": "function"
    },
    {
      "inputs": [],
      "name": "symbol",
      "outputs": [
        {
          "internalType": "string",
          "name": "",
          "type": "string"
        }
      ],
      "stateMutability": "view",
      "type": "function"
    },
    {
      "inputs": [
        {
          "internalType": "uint256",
          "name": "tokenId",
          "type": "uint256"
        }
      ],
      "name": "tokenURI",
      "outputs": [
        {
          "internalType": "string",
          "name": "",
          "type": "string"
        }
      ],
      "stateMutability": "view",
      "type": "function"
    },
    {
      "inputs": [
        {
          "internalType": "address",
          "name": "from",
          "type": "address"
        },
        {
          "internalType": "address",
          "name": "to",
          "type": "address"
        },
        {
          "internalType": "uint256",
          "name": "tokenId",
          "type": "uint256"
        }
      ],
      "name": "transferFrom",
      "outputs": [],
      "stateMutability": "nonpayable",
      "type": "function"
    }
  ],
  "bytecode": "0x6080604052600a805460ff191690553480156200001b57600080fd5b5060405162002883380380620028838339810160408190526200003e916200050e565b8451859085906200005790600090602085019062000326565b5080516200006d90600190602084019062000326565b5050600a8054610100600160a81b0319166101006001600160a01b03871602179055508151620000aa57600a805460ff1916600117905562000128565b60005b82518110156200012657620001117f9f2df0fed2c77648de5860a4cc508cd0818c85b8b8a1ab4ceeef8d981c8956a6848381518110620000fd57634e487b7160e01b600052603260045260246000fd5b60200260200101516200019160201b60201c565b806200011d8162000645565b915050620000ad565b505b60005b81518110156200018557620001708282815181106200015a57634e487b7160e01b600052603260045260246000fd5b60200260200101516001620001a160201b60201c565b806200017c8162000645565b9150506200012b565b50505050505062000683565b6200019d8282620001ae565b5050565b6200019d33838362000252565b60008281526009602090815260408083206001600160a01b038516845290915290205460ff166200019d5760008281526009602090815260408083206001600160a01b03851684529091529020805460ff191660011790556200020e3390565b6001600160a01b0316816001600160a01b0316837f2f8788117e7eff1d82e926ec794901d17c78024a50270940304540a733656f0d60405160405180910390a45050565b816001600160a01b0316836001600160a01b03161415620002b95760405162461bcd60e51b815260206004820152601960248201527f4552433732313a20617070726f766520746f2063616c6c657200000000000000604482015260640160405180910390fd5b6001600160a01b03838116600081815260056020908152604080832094871680845294825291829020805460ff191686151590811790915591519182527f17307eab39ab6107e8899845ad3d59bd9653f200f220920489ca2b5937696c31910160405180910390a3505050565b828054620003349062000608565b90600052602060002090601f016020900481019282620003585760008555620003a3565b82601f106200037357805160ff1916838001178555620003a3565b82800160010185558215620003a3579182015b82811115620003a357825182559160200191906001019062000386565b50620003b1929150620003b5565b5090565b5b80821115620003b15760008155600101620003b6565b80516001600160a01b0381168114620003e457600080fd5b919050565b600082601f830112620003fa578081fd5b815160206001600160401b038211156200041857620004186200066d565b8160051b62000429828201620005d5565b83815282810190868401838801850189101562000444578687fd5b8693505b8584101562000471576200045c81620003cc565b83526001939093019291840191840162000448565b50979650505050505050565b600082601f8301126200048e578081fd5b81516001600160401b03811115620004aa57620004aa6200066d565b6020620004c0601f8301601f19168201620005d5565b8281528582848701011115620004d4578384fd5b835b83811015620004f3578581018301518282018401528201620004d6565b838111156200050457848385840101525b5095945050505050565b600080600080600060a0868803121562000526578081fd5b85516001600160401b03808211156200053d578283fd5b6200054b89838a016200047d565b9650602088015191508082111562000561578283fd5b6200056f89838a016200047d565b95506200057f60408901620003cc565b9450606088015191508082111562000595578283fd5b620005a389838a01620003e9565b93506080880151915080821115620005b9578283fd5b50620005c888828901620003e9565b9150509295509295909350565b604051601f8201601f191681016001600160401b03811182821017156200060057620006006200066d565b604052919050565b600181811c908216806200061d57607f821691505b602082108114156200063f57634e487b7160e01b600052602260045260246000fd5b50919050565b60006000198214156200066657634e487b7160e01b81526011600452602481fd5b5060010190565b634e487b7160e01b600052604160045260246000fd5b6121f080620006936000396000f3fe608060405234801561001057600080fd5b50600436106101735760003560e01c8063899e3106116100de578063a2b929ea11610097578063d539139311610071578063d539139314610363578063d547741f1461038a578063e985e9c51461039d578063fcb156ac146103b057610173565b8063a2b929ea1461032a578063b88d4fde1461033d578063c87b56dd1461035057610173565b8063899e3106146102ca57806391d14854146102e157806395d89b41146102f45780639841aa75146102fc578063a217fddf1461030f578063a22cb4651461031757610173565b80632a55205a116101305780632a55205a146102395780632f2ff15d1461026b57806336568abe1461027e57806342842e0e146102915780636352211e146102a457806370a08231146102b757610173565b806301ffc9a71461017857806306fdde03146101a0578063081812fc146101b5578063095ea7b3146101e057806323b872dd146101f5578063248a9ca314610208575b600080fd5b61018b610186366004611dcd565b6103c3565b60405190151581526020015b60405180910390f35b6101a86103e5565b6040516101979190611f9a565b6101c86101c3366004611d93565b610477565b6040516001600160a01b039091168152602001610197565b6101f36101ee366004611ce4565b610504565b005b6101f3610203366004611bf6565b61061a565b61022b610216366004611d93565b60009081526009602052604090206001015490565b604051908152602001610197565b61024c610247366004611e6c565b61064b565b604080516001600160a01b039093168352602083019190915201610197565b6101f3610279366004611dab565b6106f7565b6101f361028c366004611dab565b61071e565b6101f361029f366004611bf6565b61079c565b6101c86102b2366004611d93565b6107b7565b61022b6102c5366004611baa565b61082e565b6101c8600a5461010090046001600160a01b031690565b61018b6102ef366004611dab565b6108b5565b6101a86108e0565b6101f361030a366004611e05565b6108ef565b61022b600081565b6101f3610325366004611caa565b610968565b61018b610338366004611d0d565b610973565b6101f361034b366004611c31565b610a97565b6101a861035e366004611d93565b610acf565b61022b7f9f2df0fed2c77648de5860a4cc508cd0818c85b8b8a1ab4ceeef8d981c8956a681565b6101f3610398366004611dab565b610c3f565b61018b6103ab366004611bc4565b610c65565b6101f36103be366004611e48565b610c93565b60006103ce82610d02565b806103dd57506103dd82610d52565b90505b919050565b6060600080546103f4906120f5565b80601f0160208091040260200160405190810160405280929190818152602001828054610420906120f5565b801561046d5780601f106104425761010080835404028352916020019161046d565b820191906000526020600020905b81548152906001019060200180831161045057829003601f168201915b5050505050905090565b600061048282610d77565b6104e85760405162461bcd60e51b815260206004820152602c60248201527f4552433732313a20617070726f76656420717565727920666f72206e6f6e657860448201526b34b9ba32b73a103a37b5b2b760a11b60648201526084015b60405180910390fd5b506000908152600460205260409020546001600160a01b031690565b600061050f826107b7565b9050806001600160a01b0316836001600160a01b0316141561057d5760405162461bcd60e51b815260206004820152602160248201527f4552433732313a20617070726f76616c20746f2063757272656e74206f776e656044820152603960f91b60648201526084016104df565b336001600160a01b0382161480610599575061059981336103ab565b61060b5760405162461bcd60e51b815260206004820152603860248201527f4552433732313a20617070726f76652063616c6c6572206973206e6f74206f7760448201527f6e6572206e6f7220617070726f76656420666f7220616c6c000000000000000060648201526084016104df565b6106158383610d94565b505050565b6106243382610e02565b6106405760405162461bcd60e51b81526004016104df90611fff565b610615838383610ec4565b60008281526008602090815260408083208151808301909252546001600160a01b038116808352600160a01b9091046001600160601b03169282019290925282916106c05750604080518082019091526007546001600160a01b0381168252600160a01b90046001600160601b031660208201525b6020810151600090612710906106df906001600160601b03168761207c565b6106e99190612068565b915196919550909350505050565b60008281526009602052604090206001015461071481335b611060565b61061583836110c4565b6001600160a01b038116331461078e5760405162461bcd60e51b815260206004820152602f60248201527f416363657373436f6e74726f6c3a2063616e206f6e6c792072656e6f756e636560448201526e103937b632b9903337b91039b2b63360891b60648201526084016104df565b610798828261114a565b5050565b61061583838360405180602001604052806000815250610a97565b6000818152600260205260408120546001600160a01b0316806103dd5760405162461bcd60e51b815260206004820152602960248201527f4552433732313a206f776e657220717565727920666f72206e6f6e657869737460448201526832b73a103a37b5b2b760b91b60648201526084016104df565b60006001600160a01b0382166108995760405162461bcd60e51b815260206004820152602a60248201527f4552433732313a2062616c616e636520717565727920666f7220746865207a65604482015269726f206164647265737360b01b60648201526084016104df565b506001600160a01b031660009081526003602052604090205490565b60009182526009602090815260408084206001600160a01b0393909316845291905290205460ff1690565b6060600180546103f4906120f5565b6108f98233610c65565b6109415760405162461bcd60e51b8152602060048201526019602482015278139bdd08105c1c1c9bdd9959081d1bc81b1bd9c8195d995b9d603a1b60448201526064016104df565b80826001600160a01b0316846001600160a01b03168660405160405180910390a450505050565b6107983383836111b1565b600a5460009060ff16610a6c576109aa7f9f2df0fed2c77648de5860a4cc508cd0818c85b8b8a1ab4ceeef8d981c8956a6336108b5565b6109f65760405162461bcd60e51b815260206004820152601e60248201527f696e76616c6964206f7220756e617574686f72697a65642063616c6c6572000060448201526064016104df565b610a207f9f2df0fed2c77648de5860a4cc508cd0818c85b8b8a1ab4ceeef8d981c8956a6866108b5565b610a6c5760405162461bcd60e51b815260206004820152601e60248201527f696e76616c6964206f7220756e617574686f72697a6564206d696e746572000060448201526064016104df565b610a768585611280565b610a8084846113b4565b610a8b84868461143f565b5060015b949350505050565b610aa13383610e02565b610abd5760405162461bcd60e51b81526004016104df90611fff565b610ac98484848461154d565b50505050565b6060610ada82610d77565b610b405760405162461bcd60e51b815260206004820152603160248201527f45524337323155524953746f726167653a2055524920717565727920666f72206044820152703737b732bc34b9ba32b73a103a37b5b2b760791b60648201526084016104df565b60008281526006602052604081208054610b59906120f5565b80601f0160208091040260200160405190810160405280929190818152602001828054610b85906120f5565b8015610bd25780601f10610ba757610100808354040283529160200191610bd2565b820191906000526020600020905b815481529060010190602001808311610bb557829003601f168201915b505050505090506000610bf060408051602081019091526000815290565b9050805160001415610c04575090506103e0565b815115610c36578082604051602001610c1e929190611eb9565b604051602081830303815290604052925050506103e0565b610a8f84611580565b600082815260096020526040902060010154610c5b813361070f565b610615838361114a565b6001600160a01b03918216600090815260056020908152604080832093909416825291909152205460ff1690565b610c9d8233610c65565b610ce55760405162461bcd60e51b8152602060048201526019602482015278139bdd08105c1c1c9bdd9959081d1bc81b1bd9c8195d995b9d603a1b60448201526064016104df565b60405181906001600160a01b0384169085903090600090a4505050565b60006001600160e01b031982166380ac58cd60e01b1480610d3357506001600160e01b03198216635b5e139f60e01b145b806103dd57506301ffc9a760e01b6001600160e01b03198316146103dd565b60006001600160e01b03198216637965db0b60e01b14806103dd57506103dd82611658565b6000908152600260205260409020546001600160a01b0316151590565b600081815260046020526040902080546001600160a01b0319166001600160a01b0384169081179091558190610dc9826107b7565b6001600160a01b03167f8c5be1e5ebec7d5bd14f71427d1e84f3dd0314c0f7b2291e5b200ac8c7c3b92560405160405180910390a45050565b6000610e0d82610d77565b610e6e5760405162461bcd60e51b815260206004820152602c60248201527f4552433732313a206f70657261746f7220717565727920666f72206e6f6e657860448201526b34b9ba32b73a103a37b5b2b760a11b60648201526084016104df565b6000610e79836107b7565b9050806001600160a01b0316846001600160a01b03161480610eb45750836001600160a01b0316610ea984610477565b6001600160a01b0316145b80610a8f5750610a8f8185610c65565b826001600160a01b0316610ed7826107b7565b6001600160a01b031614610f3b5760405162461bcd60e51b815260206004820152602560248201527f4552433732313a207472616e736665722066726f6d20696e636f72726563742060448201526437bbb732b960d91b60648201526084016104df565b6001600160a01b038216610f9d5760405162461bcd60e51b8152602060048201526024808201527f4552433732313a207472616e7366657220746f20746865207a65726f206164646044820152637265737360e01b60648201526084016104df565b610fa8600082610d94565b6001600160a01b0383166000908152600360205260408120805460019290610fd190849061209b565b90915550506001600160a01b0382166000908152600360205260408120805460019290610fff908490612050565b909155505060008181526002602052604080822080546001600160a01b0319166001600160a01b0386811691821790925591518493918716917fddf252ad1be2c89b69c2b068fc378daa952ba7f163c4a11628f55a4df523b3ef91a4610615565b61106a82826108b5565b61079857611082816001600160a01b0316601461167d565b61108d83602061167d565b60405160200161109e929190611ee8565b60408051601f198184030181529082905262461bcd60e51b82526104df91600401611f9a565b6110ce82826108b5565b6107985760008281526009602090815260408083206001600160a01b03851684529091529020805460ff191660011790556111063390565b6001600160a01b0316816001600160a01b0316837f2f8788117e7eff1d82e926ec794901d17c78024a50270940304540a733656f0d60405160405180910390a45050565b61115482826108b5565b156107985760008281526009602090815260408083206001600160a01b0385168085529252808320805460ff1916905551339285917ff6391f5c32d9c69d2a47ea670b442974b53935d1edc7fd64eb21e047a839171b9190a45050565b816001600160a01b0316836001600160a01b031614156112135760405162461bcd60e51b815260206004820152601960248201527f4552433732313a20617070726f766520746f2063616c6c65720000000000000060448201526064016104df565b6001600160a01b03838116600081815260056020908152604080832094871680845294825291829020805460ff191686151590811790915591519182527f17307eab39ab6107e8899845ad3d59bd9653f200f220920489ca2b5937696c31910160405180910390a3505050565b6001600160a01b0382166112d65760405162461bcd60e51b815260206004820181905260248201527f4552433732313a206d696e7420746f20746865207a65726f206164647265737360448201526064016104df565b6112df81610d77565b1561132c5760405162461bcd60e51b815260206004820152601c60248201527f4552433732313a20746f6b656e20616c7265616479206d696e7465640000000060448201526064016104df565b6001600160a01b0382166000908152600360205260408120805460019290611355908490612050565b909155505060008181526002602052604080822080546001600160a01b0319166001600160a01b03861690811790915590518392907fddf252ad1be2c89b69c2b068fc378daa952ba7f163c4a11628f55a4df523b3ef908290a4610798565b6113bd82610d77565b6114205760405162461bcd60e51b815260206004820152602e60248201527f45524337323155524953746f726167653a2055524920736574206f66206e6f6e60448201526d32bc34b9ba32b73a103a37b5b2b760911b60648201526084016104df565b6000828152600660209081526040909120825161061592840190611a84565b6127106001600160601b03821611156114ad5760405162461bcd60e51b815260206004820152602a60248201527f455243323938313a20726f79616c7479206665652077696c6c206578636565646044820152692073616c65507269636560b01b60648201526084016104df565b6001600160a01b0382166115035760405162461bcd60e51b815260206004820152601b60248201527f455243323938313a20496e76616c696420706172616d6574657273000000000060448201526064016104df565b6040805180820182526001600160a01b0393841681526001600160601b0392831660208083019182526000968752600890529190942093519051909116600160a01b029116179055565b611558848484610ec4565b6115648484848461185f565b610ac95760405162461bcd60e51b81526004016104df90611fad565b606061158b82610d77565b6115ef5760405162461bcd60e51b815260206004820152602f60248201527f4552433732314d657461646174613a2055524920717565727920666f72206e6f60448201526e3732bc34b9ba32b73a103a37b5b2b760891b60648201526084016104df565b600061160660408051602081019091526000815290565b905060008151116116265760405180602001604052806000815250611651565b8061163084611969565b604051602001611641929190611eb9565b6040516020818303038152906040525b9392505050565b60006001600160e01b0319821663152a902d60e11b14806103dd57506103dd82610d02565b6060600061168c83600261207c565b611697906002612050565b67ffffffffffffffff8111156116bd57634e487b7160e01b600052604160045260246000fd5b6040519080825280601f01601f1916602001820160405280156116e7576020820181803683370190505b509050600360fc1b8160008151811061171057634e487b7160e01b600052603260045260246000fd5b60200101906001600160f81b031916908160001a905350600f60fb1b8160018151811061174d57634e487b7160e01b600052603260045260246000fd5b60200101906001600160f81b031916908160001a905350600061177184600261207c565b61177c906001612050565b90505b6001811115611810576f181899199a1a9b1b9c1cb0b131b232b360811b85600f16601081106117be57634e487b7160e01b600052603260045260246000fd5b1a60f81b8282815181106117e257634e487b7160e01b600052603260045260246000fd5b60200101906001600160f81b031916908160001a90535060049490941c93611809816120de565b905061177f565b5083156116515760405162461bcd60e51b815260206004820181905260248201527f537472696e67733a20686578206c656e67746820696e73756666696369656e7460448201526064016104df565b60006001600160a01b0384163b1561196157604051630a85bd0160e11b81526001600160a01b0385169063150b7a02906118a3903390899088908890600401611f5d565b602060405180830381600087803b1580156118bd57600080fd5b505af19250505080156118ed575060408051601f3d908101601f191682019092526118ea91810190611de9565b60015b611947573d80801561191b576040519150601f19603f3d011682016040523d82523d6000602084013e611920565b606091505b50805161193f5760405162461bcd60e51b81526004016104df90611fad565b805181602001fd5b6001600160e01b031916630a85bd0160e11b149050610a8f565b506001610a8f565b60608161198e57506040805180820190915260018152600360fc1b60208201526103e0565b8160005b81156119b857806119a281612130565b91506119b19050600a83612068565b9150611992565b60008167ffffffffffffffff8111156119e157634e487b7160e01b600052604160045260246000fd5b6040519080825280601f01601f191660200182016040528015611a0b576020820181803683370190505b5090505b8415610a8f57611a2060018361209b565b9150611a2d600a8661214b565b611a38906030612050565b60f81b818381518110611a5b57634e487b7160e01b600052603260045260246000fd5b60200101906001600160f81b031916908160001a905350611a7d600a86612068565b9450611a0f565b828054611a90906120f5565b90600052602060002090601f016020900481019282611ab25760008555611af8565b82601f10611acb57805160ff1916838001178555611af8565b82800160010185558215611af8579182015b82811115611af8578251825591602001919060010190611add565b50611b04929150611b08565b5090565b5b80821115611b045760008155600101611b09565b600067ffffffffffffffff80841115611b3857611b3861218b565b604051601f8501601f19908116603f01168101908282118183101715611b6057611b6061218b565b81604052809350858152868686011115611b7957600080fd5b858560208301376000602087830101525050509392505050565b80356001600160a01b03811681146103e057600080fd5b600060208284031215611bbb578081fd5b61165182611b93565b60008060408385031215611bd6578081fd5b611bdf83611b93565b9150611bed60208401611b93565b90509250929050565b600080600060608486031215611c0a578081fd5b611c1384611b93565b9250611c2160208501611b93565b9150604084013590509250925092565b60008060008060808587031215611c46578081fd5b611c4f85611b93565b9350611c5d60208601611b93565b925060408501359150606085013567ffffffffffffffff811115611c7f578182fd5b8501601f81018713611c8f578182fd5b611c9e87823560208401611b1d565b91505092959194509250565b60008060408385031215611cbc578182fd5b611cc583611b93565b915060208301358015158114611cd9578182fd5b809150509250929050565b60008060408385031215611cf6578182fd5b611cff83611b93565b946020939093013593505050565b60008060008060808587031215611d22578384fd5b611d2b85611b93565b935060208501359250604085013567ffffffffffffffff811115611d4d578283fd5b8501601f81018713611d5d578283fd5b611d6c87823560208401611b1d565b92505060608501356001600160601b0381168114611d88578182fd5b939692955090935050565b600060208284031215611da4578081fd5b5035919050565b60008060408385031215611dbd578182fd5b82359150611bed60208401611b93565b600060208284031215611dde578081fd5b8135611651816121a1565b600060208284031215611dfa578081fd5b8151611651816121a1565b60008060008060808587031215611e1a578182fd5b84359350611e2a60208601611b93565b9250611e3860408601611b93565b9396929550929360600135925050565b600080600060608486031215611e5c578081fd5b83359250611c2160208501611b93565b60008060408385031215611e7e578182fd5b50508035926020909101359150565b60008151808452611ea58160208601602086016120b2565b601f01601f19169290920160200192915050565b60008351611ecb8184602088016120b2565b835190830190611edf8183602088016120b2565b01949350505050565b60007f416363657373436f6e74726f6c3a206163636f756e742000000000000000000082528351611f208160178501602088016120b2565b7001034b99036b4b9b9b4b733903937b6329607d1b6017918401918201528351611f518160288401602088016120b2565b01602801949350505050565b6001600160a01b0385811682528416602082015260408101839052608060608201819052600090611f9090830184611e8d565b9695505050505050565b6000602082526116516020830184611e8d565b60208082526032908201527f4552433732313a207472616e7366657220746f206e6f6e20455243373231526560408201527131b2b4bb32b91034b6b83632b6b2b73a32b960711b606082015260800190565b60208082526031908201527f4552433732313a207472616e736665722063616c6c6572206973206e6f74206f6040820152701ddb995c881b9bdc88185c1c1c9bdd9959607a1b606082015260800190565b600082198211156120635761206361215f565b500190565b60008261207757612077612175565b500490565b60008160001904831182151516156120965761209661215f565b500290565b6000828210156120ad576120ad61215f565b500390565b60005b838110156120cd5781810151838201526020016120b5565b83811115610ac95750506000910152565b6000816120ed576120ed61215f565b506000190190565b600181811c9082168061210957607f821691505b6020821081141561212a57634e487b7160e01b600052602260045260246000fd5b50919050565b60006000198214156121445761214461215f565b5060010190565b60008261215a5761215a612175565b500690565b634e487b7160e01b600052601160045260246000fd5b634e487b7160e01b600052601260045260246000fd5b634e487b7160e01b600052604160045260246000fd5b6001600160e01b0319811681146121b757600080fd5b5056fea2646970667358221220ecdd7d2afdd4f527eed8ff381e23e368eaec6bfab05a2281daff39d67be6023d64736f6c63430008030033",
  "linkReferences": {},
  "deployedLinkReferences": {}
}