{
  "_format": "hh-sol-artifact-1",
  "contractName": "ERC721Merchant",
  "sourceName": "contracts/ERC721Merchant/ERC721Merchant.sol",
  "abi": [
    {
      "inputs": [
        {
          "internalType": "string",
          "name": "tknName",
          "type": "string"
        },
        {
          "internalType": "string",
          "name": "tknSymbol",
          "type": "string"
        },
        {
          "internalType": "address[]",
          "name": "minters",
          "type": "address[]"
        },
        {
          "internalType": "address[]",
          "name": "admins",
          "type": "address[]"
        }
      ],
      "stateMutability": "nonpayable",
      "type": "constructor"
    },
    {
      "anonymous": false,
      "inputs": [
        {
          "indexed": true,
          "internalType": "address",
          "name": "owner",
          "type": "address"
        },
        {
          "indexed": true,
          "internalType": "address",
          "name": "approved",
          "type": "address"
        },
        {
          "indexed": true,
          "internalType": "uint256",
          "name": "tokenId",
          "type": "uint256"
        }
      ],
      "name": "Approval",
      "type": "event"
    },
    {
      "anonymous": false,
      "inputs": [
        {
          "indexed": true,
          "internalType": "address",
          "name": "owner",
          "type": "address"
        },
        {
          "indexed": true,
          "internalType": "address",
          "name": "operator",
          "type": "address"
        },
        {
          "indexed": false,
          "internalType": "bool",
          "name": "approved",
          "type": "bool"
        }
      ],
      "name": "ApprovalForAll",
      "type": "event"
    },
    {
      "anonymous": true,
      "inputs": [
        {
          "indexed": true,
          "internalType": "address",
          "name": "contractId",
          "type": "address"
        },
        {
          "indexed": true,
          "internalType": "uint256",
          "name": "price",
          "type": "uint256"
        },
        {
          "indexed": true,
          "internalType": "address",
          "name": "from",
          "type": "address"
        },
        {
          "indexed": true,
          "internalType": "uint256",
          "name": "tokenId",
          "type": "uint256"
        }
      ],
      "name": "Listed",
      "type": "event"
    },
    {
      "anonymous": false,
      "inputs": [
        {
          "indexed": true,
          "internalType": "bytes32",
          "name": "role",
          "type": "bytes32"
        },
        {
          "indexed": true,
          "internalType": "bytes32",
          "name": "previousAdminRole",
          "type": "bytes32"
        },
        {
          "indexed": true,
          "internalType": "bytes32",
          "name": "newAdminRole",
          "type": "bytes32"
        }
      ],
      "name": "RoleAdminChanged",
      "type": "event"
    },
    {
      "anonymous": false,
      "inputs": [
        {
          "indexed": true,
          "internalType": "bytes32",
          "name": "role",
          "type": "bytes32"
        },
        {
          "indexed": true,
          "internalType": "address",
          "name": "account",
          "type": "address"
        },
        {
          "indexed": true,
          "internalType": "address",
          "name": "sender",
          "type": "address"
        }
      ],
      "name": "RoleGranted",
      "type": "event"
    },
    {
      "anonymous": false,
      "inputs": [
        {
          "indexed": true,
          "internalType": "bytes32",
          "name": "role",
          "type": "bytes32"
        },
        {
          "indexed": true,
          "internalType": "address",
          "name": "account",
          "type": "address"
        },
        {
          "indexed": true,
          "internalType": "address",
          "name": "sender",
          "type": "address"
        }
      ],
      "name": "RoleRevoked",
      "type": "event"
    },
    {
      "anonymous": true,
      "inputs": [
        {
          "indexed": true,
          "internalType": "uint256",
          "name": "price",
          "type": "uint256"
        },
        {
          "indexed": true,
          "internalType": "address",
          "name": "from",
          "type": "address"
        },
        {
          "indexed": true,
          "internalType": "address",
          "name": "to",
          "type": "address"
        },
        {
          "indexed": true,
          "internalType": "uint256",
          "name": "tokenId",
          "type": "uint256"
        }
      ],
      "name": "Sale",
      "type": "event"
    },
    {
      "anonymous": false,
      "inputs": [
        {
          "indexed": true,
          "internalType": "address",
          "name": "from",
          "type": "address"
        },
        {
          "indexed": true,
          "internalType": "address",
          "name": "to",
          "type": "address"
        },
        {
          "indexed": true,
          "internalType": "uint256",
          "name": "tokenId",
          "type": "uint256"
        }
      ],
      "name": "Transfer",
      "type": "event"
    },
    {
      "inputs": [],
      "name": "DEFAULT_ADMIN_ROLE",
      "outputs": [
        {
          "internalType": "bytes32",
          "name": "",
          "type": "bytes32"
        }
      ],
      "stateMutability": "view",
      "type": "function"
    },
    {
      "inputs": [],
      "name": "MINTER_ROLE",
      "outputs": [
        {
          "internalType": "bytes32",
          "name": "",
          "type": "bytes32"
        }
      ],
      "stateMutability": "view",
      "type": "function"
    },
    {
      "inputs": [
        {
          "internalType": "address",
          "name": "to",
          "type": "address"
        },
        {
          "internalType": "uint256",
          "name": "tokenId",
          "type": "uint256"
        }
      ],
      "name": "approve",
      "outputs": [],
      "stateMutability": "nonpayable",
      "type": "function"
    },
    {
      "inputs": [
        {
          "internalType": "address",
          "name": "owner",
          "type": "address"
        }
      ],
      "name": "balanceOf",
      "outputs": [
        {
          "internalType": "uint256",
          "name": "",
          "type": "uint256"
        }
      ],
      "stateMutability": "view",
      "type": "function"
    },
    {
      "inputs": [
        {
          "internalType": "uint256",
          "name": "price",
          "type": "uint256"
        },
        {
          "internalType": "address",
          "name": "from",
          "type": "address"
        },
        {
          "internalType": "uint256",
          "name": "tokenId",
          "type": "uint256"
        }
      ],
      "name": "emitListing",
      "outputs": [],
      "stateMutability": "nonpayable",
      "type": "function"
    },
    {
      "inputs": [
        {
          "internalType": "uint256",
          "name": "price",
          "type": "uint256"
        },
        {
          "internalType": "address",
          "name": "from",
          "type": "address"
        },
        {
          "internalType": "address",
          "name": "to",
          "type": "address"
        },
        {
          "internalType": "uint256",
          "name": "tokenId",
          "type": "uint256"
        }
      ],
      "name": "emitSale",
      "outputs": [],
      "stateMutability": "nonpayable",
      "type": "function"
    },
    {
      "inputs": [
        {
          "internalType": "uint256",
          "name": "tokenId",
          "type": "uint256"
        }
      ],
      "name": "getApproved",
      "outputs": [
        {
          "internalType": "address",
          "name": "",
          "type": "address"
        }
      ],
      "stateMutability": "view",
      "type": "function"
    },
    {
      "inputs": [
        {
          "internalType": "bytes32",
          "name": "role",
          "type": "bytes32"
        }
      ],
      "name": "getRoleAdmin",
      "outputs": [
        {
          "internalType": "bytes32",
          "name": "",
          "type": "bytes32"
        }
      ],
      "stateMutability": "view",
      "type": "function"
    },
    {
      "inputs": [
        {
          "internalType": "bytes32",
          "name": "role",
          "type": "bytes32"
        },
        {
          "internalType": "address",
          "name": "account",
          "type": "address"
        }
      ],
      "name": "grantRole",
      "outputs": [],
      "stateMutability": "nonpayable",
      "type": "function"
    },
    {
      "inputs": [
        {
          "internalType": "bytes32",
          "name": "role",
          "type": "bytes32"
        },
        {
          "internalType": "address",
          "name": "account",
          "type": "address"
        }
      ],
      "name": "hasRole",
      "outputs": [
        {
          "internalType": "bool",
          "name": "",
          "type": "bool"
        }
      ],
      "stateMutability": "view",
      "type": "function"
    },
    {
      "inputs": [
        {
          "internalType": "address",
          "name": "owner",
          "type": "address"
        },
        {
          "internalType": "address",
          "name": "operator",
          "type": "address"
        }
      ],
      "name": "isApprovedForAll",
      "outputs": [
        {
          "internalType": "bool",
          "name": "",
          "type": "bool"
        }
      ],
      "stateMutability": "view",
      "type": "function"
    },
    {
      "inputs": [
        {
          "internalType": "address",
          "name": "minter",
          "type": "address"
        },
        {
          "internalType": "uint256",
          "name": "tokenId",
          "type": "uint256"
        },
        {
          "internalType": "string",
          "name": "uri",
          "type": "string"
        },
        {
          "internalType": "uint96",
          "name": "royalty",
          "type": "uint96"
        }
      ],
      "name": "mint",
      "outputs": [
        {
          "internalType": "bool",
          "name": "",
          "type": "bool"
        }
      ],
      "stateMutability": "nonpayable",
      "type": "function"
    },
    {
      "inputs": [],
      "name": "name",
      "outputs": [
        {
          "internalType": "string",
          "name": "",
          "type": "string"
        }
      ],
      "stateMutability": "view",
      "type": "function"
    },
    {
      "inputs": [
        {
          "internalType": "uint256",
          "name": "tokenId",
          "type": "uint256"
        }
      ],
      "name": "ownerOf",
      "outputs": [
        {
          "internalType": "address",
          "name": "",
          "type": "address"
        }
      ],
      "stateMutability": "view",
      "type": "function"
    },
    {
      "inputs": [
        {
          "internalType": "bytes32",
          "name": "role",
          "type": "bytes32"
        },
        {
          "internalType": "address",
          "name": "account",
          "type": "address"
        }
      ],
      "name": "renounceRole",
      "outputs": [],
      "stateMutability": "nonpayable",
      "type": "function"
    },
    {
      "inputs": [
        {
          "internalType": "bytes32",
          "name": "role",
          "type": "bytes32"
        },
        {
          "internalType": "address",
          "name": "account",
          "type": "address"
        }
      ],
      "name": "revokeRole",
      "outputs": [],
      "stateMutability": "nonpayable",
      "type": "function"
    },
    {
      "inputs": [
        {
          "internalType": "uint256",
          "name": "_tokenId",
          "type": "uint256"
        },
        {
          "internalType": "uint256",
          "name": "_salePrice",
          "type": "uint256"
        }
      ],
      "name": "royaltyInfo",
      "outputs": [
        {
          "internalType": "address",
          "name": "",
          "type": "address"
        },
        {
          "internalType": "uint256",
          "name": "",
          "type": "uint256"
        }
      ],
      "stateMutability": "view",
      "type": "function"
    },
    {
      "inputs": [
        {
          "internalType": "address",
          "name": "from",
          "type": "address"
        },
        {
          "internalType": "address",
          "name": "to",
          "type": "address"
        },
        {
          "internalType": "uint256",
          "name": "tokenId",
          "type": "uint256"
        }
      ],
      "name": "safeTransferFrom",
      "outputs": [],
      "stateMutability": "nonpayable",
      "type": "function"
    },
    {
      "inputs": [
        {
          "internalType": "address",
          "name": "from",
          "type": "address"
        },
        {
          "internalType": "address",
          "name": "to",
          "type": "address"
        },
        {
          "internalType": "uint256",
          "name": "tokenId",
          "type": "uint256"
        },
        {
          "internalType": "bytes",
          "name": "_data",
          "type": "bytes"
        }
      ],
      "name": "safeTransferFrom",
      "outputs": [],
      "stateMutability": "nonpayable",
      "type": "function"
    },
    {
      "inputs": [
        {
          "internalType": "address",
          "name": "operator",
          "type": "address"
        },
        {
          "internalType": "bool",
          "name": "approved",
          "type": "bool"
        }
      ],
      "name": "setApprovalForAll",
      "outputs": [],
      "stateMutability": "nonpayable",
      "type": "function"
    },
    {
      "inputs": [
        {
          "internalType": "bytes4",
          "name": "interfaceId",
          "type": "bytes4"
        }
      ],
      "name": "supportsInterface",
      "outputs": [
        {
          "internalType": "bool",
          "name": "",
          "type": "bool"
        }
      ],
      "stateMutability": "view",
      "type": "function"
    },
    {
      "inputs": [],
      "name": "symbol",
      "outputs": [
        {
          "internalType": "string",
          "name": "",
          "type": "string"
        }
      ],
      "stateMutability": "view",
      "type": "function"
    },
    {
      "inputs": [
        {
          "internalType": "uint256",
          "name": "tokenId",
          "type": "uint256"
        }
      ],
      "name": "tokenURI",
      "outputs": [
        {
          "internalType": "string",
          "name": "",
          "type": "string"
        }
      ],
      "stateMutability": "view",
      "type": "function"
    },
    {
      "inputs": [
        {
          "internalType": "address",
          "name": "from",
          "type": "address"
        },
        {
          "internalType": "address",
          "name": "to",
          "type": "address"
        },
        {
          "internalType": "uint256",
          "name": "tokenId",
          "type": "uint256"
        }
      ],
      "name": "transferFrom",
      "outputs": [],
      "stateMutability": "nonpayable",
      "type": "function"
    }
  ],
  "bytecode": "0x6080604052600a805460ff191690553480156200001b57600080fd5b5060405162002810380380620028108339810160408190526200003e91620004e0565b8351849084906200005790600090602085019062000309565b5080516200006d90600190602084019062000309565b5050508151600014156200008e57600a805460ff191660011790556200010c565b60005b82518110156200010a57620000f57f9f2df0fed2c77648de5860a4cc508cd0818c85b8b8a1ab4ceeef8d981c8956a6848381518110620000e157634e487b7160e01b600052603260045260246000fd5b60200260200101516200017460201b60201c565b80620001018162000604565b91505062000091565b505b60005b81518110156200016957620001548282815181106200013e57634e487b7160e01b600052603260045260246000fd5b602002602001015160016200018460201b60201c565b80620001608162000604565b9150506200010f565b505050505062000642565b62000180828262000191565b5050565b6200018033838362000235565b60008281526009602090815260408083206001600160a01b038516845290915290205460ff16620001805760008281526009602090815260408083206001600160a01b03851684529091529020805460ff19166001179055620001f13390565b6001600160a01b0316816001600160a01b0316837f2f8788117e7eff1d82e926ec794901d17c78024a50270940304540a733656f0d60405160405180910390a45050565b816001600160a01b0316836001600160a01b031614156200029c5760405162461bcd60e51b815260206004820152601960248201527f4552433732313a20617070726f766520746f2063616c6c657200000000000000604482015260640160405180910390fd5b6001600160a01b03838116600081815260056020908152604080832094871680845294825291829020805460ff191686151590811790915591519182527f17307eab39ab6107e8899845ad3d59bd9653f200f220920489ca2b5937696c31910160405180910390a3505050565b8280546200031790620005c7565b90600052602060002090601f0160209004810192826200033b576000855562000386565b82601f106200035657805160ff191683800117855562000386565b8280016001018555821562000386579182015b828111156200038657825182559160200191906001019062000369565b506200039492915062000398565b5090565b5b8082111562000394576000815560010162000399565b600082601f830112620003c0578081fd5b815160206001600160401b03821115620003de57620003de6200062c565b8160051b620003ef82820162000594565b8381528281019086840183880185018910156200040a578687fd5b8693505b85841015620004435780516001600160a01b03811681146200042e578788fd5b8352600193909301929184019184016200040e565b50979650505050505050565b600082601f83011262000460578081fd5b81516001600160401b038111156200047c576200047c6200062c565b602062000492601f8301601f1916820162000594565b8281528582848701011115620004a6578384fd5b835b83811015620004c5578581018301518282018401528201620004a8565b83811115620004d657848385840101525b5095945050505050565b60008060008060808587031215620004f6578384fd5b84516001600160401b03808211156200050d578586fd5b6200051b888389016200044f565b9550602087015191508082111562000531578485fd5b6200053f888389016200044f565b9450604087015191508082111562000555578384fd5b6200056388838901620003af565b9350606087015191508082111562000579578283fd5b506200058887828801620003af565b91505092959194509250565b604051601f8201601f191681016001600160401b0381118282101715620005bf57620005bf6200062c565b604052919050565b600181811c90821680620005dc57607f821691505b60208210811415620005fe57634e487b7160e01b600052602260045260246000fd5b50919050565b60006000198214156200062557634e487b7160e01b81526011600452602481fd5b5060010190565b634e487b7160e01b600052604160045260246000fd5b6121be80620006526000396000f3fe608060405234801561001057600080fd5b50600436106101585760003560e01c806391d14854116100c3578063b88d4fde1161007c578063b88d4fde1461030b578063c87b56dd1461031e578063d539139314610331578063d547741f14610358578063e985e9c51461036b578063fcb156ac1461037e57610158565b806391d14854146102af57806395d89b41146102c25780639841aa75146102ca578063a217fddf146102dd578063a22cb465146102e5578063a2b929ea146102f857610158565b80632a55205a116101155780632a55205a1461021e5780632f2ff15d1461025057806336568abe1461026357806342842e0e146102765780636352211e1461028957806370a082311461029c57610158565b806301ffc9a71461015d57806306fdde0314610185578063081812fc1461019a578063095ea7b3146101c557806323b872dd146101da578063248a9ca3146101ed575b600080fd5b61017061016b366004611d9b565b610391565b60405190151581526020015b60405180910390f35b61018d6103b3565b60405161017c9190611f68565b6101ad6101a8366004611d61565b610445565b6040516001600160a01b03909116815260200161017c565b6101d86101d3366004611cb2565b6104d2565b005b6101d86101e8366004611bc4565b6105e8565b6102106101fb366004611d61565b60009081526009602052604090206001015490565b60405190815260200161017c565b61023161022c366004611e3a565b610619565b604080516001600160a01b03909316835260208301919091520161017c565b6101d861025e366004611d79565b6106c5565b6101d8610271366004611d79565b6106ec565b6101d8610284366004611bc4565b61076a565b6101ad610297366004611d61565b610785565b6102106102aa366004611b78565b6107fc565b6101706102bd366004611d79565b610883565b61018d6108ae565b6101d86102d8366004611dd3565b6108bd565b610210600081565b6101d86102f3366004611c78565b610936565b610170610306366004611cdb565b610941565b6101d8610319366004611bff565b610a65565b61018d61032c366004611d61565b610a9d565b6102107f9f2df0fed2c77648de5860a4cc508cd0818c85b8b8a1ab4ceeef8d981c8956a681565b6101d8610366366004611d79565b610c0d565b610170610379366004611b92565b610c33565b6101d861038c366004611e16565b610c61565b600061039c82610cd0565b806103ab57506103ab82610d20565b90505b919050565b6060600080546103c2906120c3565b80601f01602080910402602001604051908101604052809291908181526020018280546103ee906120c3565b801561043b5780601f106104105761010080835404028352916020019161043b565b820191906000526020600020905b81548152906001019060200180831161041e57829003601f168201915b5050505050905090565b600061045082610d45565b6104b65760405162461bcd60e51b815260206004820152602c60248201527f4552433732313a20617070726f76656420717565727920666f72206e6f6e657860448201526b34b9ba32b73a103a37b5b2b760a11b60648201526084015b60405180910390fd5b506000908152600460205260409020546001600160a01b031690565b60006104dd82610785565b9050806001600160a01b0316836001600160a01b0316141561054b5760405162461bcd60e51b815260206004820152602160248201527f4552433732313a20617070726f76616c20746f2063757272656e74206f776e656044820152603960f91b60648201526084016104ad565b336001600160a01b038216148061056757506105678133610379565b6105d95760405162461bcd60e51b815260206004820152603860248201527f4552433732313a20617070726f76652063616c6c6572206973206e6f74206f7760448201527f6e6572206e6f7220617070726f76656420666f7220616c6c000000000000000060648201526084016104ad565b6105e38383610d62565b505050565b6105f23382610dd0565b61060e5760405162461bcd60e51b81526004016104ad90611fcd565b6105e3838383610e92565b60008281526008602090815260408083208151808301909252546001600160a01b038116808352600160a01b9091046001600160601b031692820192909252829161068e5750604080518082019091526007546001600160a01b0381168252600160a01b90046001600160601b031660208201525b6020810151600090612710906106ad906001600160601b03168761204a565b6106b79190612036565b915196919550909350505050565b6000828152600960205260409020600101546106e281335b61102e565b6105e38383611092565b6001600160a01b038116331461075c5760405162461bcd60e51b815260206004820152602f60248201527f416363657373436f6e74726f6c3a2063616e206f6e6c792072656e6f756e636560448201526e103937b632b9903337b91039b2b63360891b60648201526084016104ad565b6107668282611118565b5050565b6105e383838360405180602001604052806000815250610a65565b6000818152600260205260408120546001600160a01b0316806103ab5760405162461bcd60e51b815260206004820152602960248201527f4552433732313a206f776e657220717565727920666f72206e6f6e657869737460448201526832b73a103a37b5b2b760b91b60648201526084016104ad565b60006001600160a01b0382166108675760405162461bcd60e51b815260206004820152602a60248201527f4552433732313a2062616c616e636520717565727920666f7220746865207a65604482015269726f206164647265737360b01b60648201526084016104ad565b506001600160a01b031660009081526003602052604090205490565b60009182526009602090815260408084206001600160a01b0393909316845291905290205460ff1690565b6060600180546103c2906120c3565b6108c78233610c33565b61090f5760405162461bcd60e51b8152602060048201526019602482015278139bdd08105c1c1c9bdd9959081d1bc81b1bd9c8195d995b9d603a1b60448201526064016104ad565b80836001600160a01b0316836001600160a01b03168660405160405180910390a450505050565b61076633838361117f565b600a5460009060ff16610a3a576109787f9f2df0fed2c77648de5860a4cc508cd0818c85b8b8a1ab4ceeef8d981c8956a633610883565b6109c45760405162461bcd60e51b815260206004820152601e60248201527f696e76616c6964206f7220756e617574686f72697a65642063616c6c6572000060448201526064016104ad565b6109ee7f9f2df0fed2c77648de5860a4cc508cd0818c85b8b8a1ab4ceeef8d981c8956a686610883565b610a3a5760405162461bcd60e51b815260206004820152601e60248201527f696e76616c6964206f7220756e617574686f72697a6564206d696e746572000060448201526064016104ad565b610a44858561124e565b610a4e8484611382565b610a5984868461140d565b5060015b949350505050565b610a6f3383610dd0565b610a8b5760405162461bcd60e51b81526004016104ad90611fcd565b610a978484848461151b565b50505050565b6060610aa882610d45565b610b0e5760405162461bcd60e51b815260206004820152603160248201527f45524337323155524953746f726167653a2055524920717565727920666f72206044820152703737b732bc34b9ba32b73a103a37b5b2b760791b60648201526084016104ad565b60008281526006602052604081208054610b27906120c3565b80601f0160208091040260200160405190810160405280929190818152602001828054610b53906120c3565b8015610ba05780601f10610b7557610100808354040283529160200191610ba0565b820191906000526020600020905b815481529060010190602001808311610b8357829003601f168201915b505050505090506000610bbe60408051602081019091526000815290565b9050805160001415610bd2575090506103ae565b815115610c04578082604051602001610bec929190611e87565b604051602081830303815290604052925050506103ae565b610a5d8461154e565b600082815260096020526040902060010154610c2981336106dd565b6105e38383611118565b6001600160a01b03918216600090815260056020908152604080832093909416825291909152205460ff1690565b610c6b8233610c33565b610cb35760405162461bcd60e51b8152602060048201526019602482015278139bdd08105c1c1c9bdd9959081d1bc81b1bd9c8195d995b9d603a1b60448201526064016104ad565b60405181906001600160a01b0384169085903090600090a4505050565b60006001600160e01b031982166380ac58cd60e01b1480610d0157506001600160e01b03198216635b5e139f60e01b145b806103ab57506301ffc9a760e01b6001600160e01b03198316146103ab565b60006001600160e01b03198216637965db0b60e01b14806103ab57506103ab82611626565b6000908152600260205260409020546001600160a01b0316151590565b600081815260046020526040902080546001600160a01b0319166001600160a01b0384169081179091558190610d9782610785565b6001600160a01b03167f8c5be1e5ebec7d5bd14f71427d1e84f3dd0314c0f7b2291e5b200ac8c7c3b92560405160405180910390a45050565b6000610ddb82610d45565b610e3c5760405162461bcd60e51b815260206004820152602c60248201527f4552433732313a206f70657261746f7220717565727920666f72206e6f6e657860448201526b34b9ba32b73a103a37b5b2b760a11b60648201526084016104ad565b6000610e4783610785565b9050806001600160a01b0316846001600160a01b03161480610e825750836001600160a01b0316610e7784610445565b6001600160a01b0316145b80610a5d5750610a5d8185610c33565b826001600160a01b0316610ea582610785565b6001600160a01b031614610f095760405162461bcd60e51b815260206004820152602560248201527f4552433732313a207472616e736665722066726f6d20696e636f72726563742060448201526437bbb732b960d91b60648201526084016104ad565b6001600160a01b038216610f6b5760405162461bcd60e51b8152602060048201526024808201527f4552433732313a207472616e7366657220746f20746865207a65726f206164646044820152637265737360e01b60648201526084016104ad565b610f76600082610d62565b6001600160a01b0383166000908152600360205260408120805460019290610f9f908490612069565b90915550506001600160a01b0382166000908152600360205260408120805460019290610fcd90849061201e565b909155505060008181526002602052604080822080546001600160a01b0319166001600160a01b0386811691821790925591518493918716917fddf252ad1be2c89b69c2b068fc378daa952ba7f163c4a11628f55a4df523b3ef91a46105e3565b6110388282610883565b61076657611050816001600160a01b0316601461164b565b61105b83602061164b565b60405160200161106c929190611eb6565b60408051601f198184030181529082905262461bcd60e51b82526104ad91600401611f68565b61109c8282610883565b6107665760008281526009602090815260408083206001600160a01b03851684529091529020805460ff191660011790556110d43390565b6001600160a01b0316816001600160a01b0316837f2f8788117e7eff1d82e926ec794901d17c78024a50270940304540a733656f0d60405160405180910390a45050565b6111228282610883565b156107665760008281526009602090815260408083206001600160a01b0385168085529252808320805460ff1916905551339285917ff6391f5c32d9c69d2a47ea670b442974b53935d1edc7fd64eb21e047a839171b9190a45050565b816001600160a01b0316836001600160a01b031614156111e15760405162461bcd60e51b815260206004820152601960248201527f4552433732313a20617070726f766520746f2063616c6c65720000000000000060448201526064016104ad565b6001600160a01b03838116600081815260056020908152604080832094871680845294825291829020805460ff191686151590811790915591519182527f17307eab39ab6107e8899845ad3d59bd9653f200f220920489ca2b5937696c31910160405180910390a3505050565b6001600160a01b0382166112a45760405162461bcd60e51b815260206004820181905260248201527f4552433732313a206d696e7420746f20746865207a65726f206164647265737360448201526064016104ad565b6112ad81610d45565b156112fa5760405162461bcd60e51b815260206004820152601c60248201527f4552433732313a20746f6b656e20616c7265616479206d696e7465640000000060448201526064016104ad565b6001600160a01b038216600090815260036020526040812080546001929061132390849061201e565b909155505060008181526002602052604080822080546001600160a01b0319166001600160a01b03861690811790915590518392907fddf252ad1be2c89b69c2b068fc378daa952ba7f163c4a11628f55a4df523b3ef908290a4610766565b61138b82610d45565b6113ee5760405162461bcd60e51b815260206004820152602e60248201527f45524337323155524953746f726167653a2055524920736574206f66206e6f6e60448201526d32bc34b9ba32b73a103a37b5b2b760911b60648201526084016104ad565b600082815260066020908152604090912082516105e392840190611a52565b6127106001600160601b038216111561147b5760405162461bcd60e51b815260206004820152602a60248201527f455243323938313a20726f79616c7479206665652077696c6c206578636565646044820152692073616c65507269636560b01b60648201526084016104ad565b6001600160a01b0382166114d15760405162461bcd60e51b815260206004820152601b60248201527f455243323938313a20496e76616c696420706172616d6574657273000000000060448201526064016104ad565b6040805180820182526001600160a01b0393841681526001600160601b0392831660208083019182526000968752600890529190942093519051909116600160a01b029116179055565b611526848484610e92565b6115328484848461182d565b610a975760405162461bcd60e51b81526004016104ad90611f7b565b606061155982610d45565b6115bd5760405162461bcd60e51b815260206004820152602f60248201527f4552433732314d657461646174613a2055524920717565727920666f72206e6f60448201526e3732bc34b9ba32b73a103a37b5b2b760891b60648201526084016104ad565b60006115d460408051602081019091526000815290565b905060008151116115f4576040518060200160405280600081525061161f565b806115fe84611937565b60405160200161160f929190611e87565b6040516020818303038152906040525b9392505050565b60006001600160e01b0319821663152a902d60e11b14806103ab57506103ab82610cd0565b6060600061165a83600261204a565b61166590600261201e565b67ffffffffffffffff81111561168b57634e487b7160e01b600052604160045260246000fd5b6040519080825280601f01601f1916602001820160405280156116b5576020820181803683370190505b509050600360fc1b816000815181106116de57634e487b7160e01b600052603260045260246000fd5b60200101906001600160f81b031916908160001a905350600f60fb1b8160018151811061171b57634e487b7160e01b600052603260045260246000fd5b60200101906001600160f81b031916908160001a905350600061173f84600261204a565b61174a90600161201e565b90505b60018111156117de576f181899199a1a9b1b9c1cb0b131b232b360811b85600f166010811061178c57634e487b7160e01b600052603260045260246000fd5b1a60f81b8282815181106117b057634e487b7160e01b600052603260045260246000fd5b60200101906001600160f81b031916908160001a90535060049490941c936117d7816120ac565b905061174d565b50831561161f5760405162461bcd60e51b815260206004820181905260248201527f537472696e67733a20686578206c656e67746820696e73756666696369656e7460448201526064016104ad565b60006001600160a01b0384163b1561192f57604051630a85bd0160e11b81526001600160a01b0385169063150b7a0290611871903390899088908890600401611f2b565b602060405180830381600087803b15801561188b57600080fd5b505af19250505080156118bb575060408051601f3d908101601f191682019092526118b891810190611db7565b60015b611915573d8080156118e9576040519150601f19603f3d011682016040523d82523d6000602084013e6118ee565b606091505b50805161190d5760405162461bcd60e51b81526004016104ad90611f7b565b805181602001fd5b6001600160e01b031916630a85bd0160e11b149050610a5d565b506001610a5d565b60608161195c57506040805180820190915260018152600360fc1b60208201526103ae565b8160005b81156119865780611970816120fe565b915061197f9050600a83612036565b9150611960565b60008167ffffffffffffffff8111156119af57634e487b7160e01b600052604160045260246000fd5b6040519080825280601f01601f1916602001820160405280156119d9576020820181803683370190505b5090505b8415610a5d576119ee600183612069565b91506119fb600a86612119565b611a0690603061201e565b60f81b818381518110611a2957634e487b7160e01b600052603260045260246000fd5b60200101906001600160f81b031916908160001a905350611a4b600a86612036565b94506119dd565b828054611a5e906120c3565b90600052602060002090601f016020900481019282611a805760008555611ac6565b82601f10611a9957805160ff1916838001178555611ac6565b82800160010185558215611ac6579182015b82811115611ac6578251825591602001919060010190611aab565b50611ad2929150611ad6565b5090565b5b80821115611ad25760008155600101611ad7565b600067ffffffffffffffff80841115611b0657611b06612159565b604051601f8501601f19908116603f01168101908282118183101715611b2e57611b2e612159565b81604052809350858152868686011115611b4757600080fd5b858560208301376000602087830101525050509392505050565b80356001600160a01b03811681146103ae57600080fd5b600060208284031215611b89578081fd5b61161f82611b61565b60008060408385031215611ba4578081fd5b611bad83611b61565b9150611bbb60208401611b61565b90509250929050565b600080600060608486031215611bd8578081fd5b611be184611b61565b9250611bef60208501611b61565b9150604084013590509250925092565b60008060008060808587031215611c14578081fd5b611c1d85611b61565b9350611c2b60208601611b61565b925060408501359150606085013567ffffffffffffffff811115611c4d578182fd5b8501601f81018713611c5d578182fd5b611c6c87823560208401611aeb565b91505092959194509250565b60008060408385031215611c8a578182fd5b611c9383611b61565b915060208301358015158114611ca7578182fd5b809150509250929050565b60008060408385031215611cc4578182fd5b611ccd83611b61565b946020939093013593505050565b60008060008060808587031215611cf0578384fd5b611cf985611b61565b935060208501359250604085013567ffffffffffffffff811115611d1b578283fd5b8501601f81018713611d2b578283fd5b611d3a87823560208401611aeb565b92505060608501356001600160601b0381168114611d56578182fd5b939692955090935050565b600060208284031215611d72578081fd5b5035919050565b60008060408385031215611d8b578182fd5b82359150611bbb60208401611b61565b600060208284031215611dac578081fd5b813561161f8161216f565b600060208284031215611dc8578081fd5b815161161f8161216f565b60008060008060808587031215611de8578182fd5b84359350611df860208601611b61565b9250611e0660408601611b61565b9396929550929360600135925050565b600080600060608486031215611e2a578081fd5b83359250611bef60208501611b61565b60008060408385031215611e4c578182fd5b50508035926020909101359150565b60008151808452611e73816020860160208601612080565b601f01601f19169290920160200192915050565b60008351611e99818460208801612080565b835190830190611ead818360208801612080565b01949350505050565b60007f416363657373436f6e74726f6c3a206163636f756e742000000000000000000082528351611eee816017850160208801612080565b7001034b99036b4b9b9b4b733903937b6329607d1b6017918401918201528351611f1f816028840160208801612080565b01602801949350505050565b6001600160a01b0385811682528416602082015260408101839052608060608201819052600090611f5e90830184611e5b565b9695505050505050565b60006020825261161f6020830184611e5b565b60208082526032908201527f4552433732313a207472616e7366657220746f206e6f6e20455243373231526560408201527131b2b4bb32b91034b6b83632b6b2b73a32b960711b606082015260800190565b60208082526031908201527f4552433732313a207472616e736665722063616c6c6572206973206e6f74206f6040820152701ddb995c881b9bdc88185c1c1c9bdd9959607a1b606082015260800190565b600082198211156120315761203161212d565b500190565b60008261204557612045612143565b500490565b60008160001904831182151516156120645761206461212d565b500290565b60008282101561207b5761207b61212d565b500390565b60005b8381101561209b578181015183820152602001612083565b83811115610a975750506000910152565b6000816120bb576120bb61212d565b506000190190565b600181811c908216806120d757607f821691505b602082108114156120f857634e487b7160e01b600052602260045260246000fd5b50919050565b60006000198214156121125761211261212d565b5060010190565b60008261212857612128612143565b500690565b634e487b7160e01b600052601160045260246000fd5b634e487b7160e01b600052601260045260246000fd5b634e487b7160e01b600052604160045260246000fd5b6001600160e01b03198116811461218557600080fd5b5056fea2646970667358221220fbc7a954b54b20a2b1029870008d149092a17d6e790368845643711cd771866064736f6c63430008030033",
  "linkReferences": {},
  "deployedLinkReferences": {}
}